{"contracts/test/TestSwapMath.sol":{"TestSwapMath":{"abi":[{"inputs":[{"internalType":"uint256","name":"prod1","type":"uint256"},{"internalType":"uint256","name":"denominator","type":"uint256"}],"name":"PRBMath__MulDivOverflow","type":"error"},{"inputs":[{"internalType":"uint256","name":"currentPrice","type":"uint256"},{"internalType":"uint128","name":"activeLquidity","type":"uint128"},{"internalType":"uint160","name":"activeComposition","type":"uint160"},{"internalType":"uint256","name":"nextPrice","type":"uint256"},{"internalType":"bool","name":"zeroForOne","type":"bool"},{"internalType":"uint256","name":"amountRemain","type":"uint256"}],"name":"computeSwap","outputs":[{"internalType":"uint256","name":"_nextPice","type":"uint256"},{"internalType":"uint160","name":"compositionAfter","type":"uint160"},{"internalType":"uint256","name":"amountIn","type":"uint256"},{"internalType":"uint256","name":"amountOut","type":"uint256"}],"stateMutability":"pure","type":"function"}],"evm":{"bytecode":{"linkReferences":{},"object":"60806040523461001a576040516107c761002082396107c790f35b600080fdfe6080604052600436101561001257600080fd5b60003560e01c6393261d190361003057610128565b805b0361003057565b600080fd5b9050359061004282610027565b565b6001600160801b038116610029565b9050359061004282610044565b6001600160a01b038116610029565b9050359061004282610060565b801515610029565b905035906100428261007c565b909160c082840312610030576100a78383610035565b926100b58160208501610053565b926100c3826040830161006f565b926100eb6100d48460608501610035565b9360a06100e48260808701610084565b9401610035565b90565b6101246100429461011d60609498979561010d608086019a6000870152565b6001600160a01b03166020850152565b6040830152565b0152565b346100305761016061014a61013e366004610091565b94939093929192610164565b9061015794929460405190565b948594856100ee565b0390f35b6101729594939291906102ab565b90919293565b6101856100eb6100eb9290565b6001600160a01b031690565b634e487b7160e01b600052601160045260246000fd5b6101c2906001600160a01b03165b916001600160a01b031690565b9003906001600160a01b0382116101d557565b610191565b634e487b7160e01b600052604160045260246000fd5b90601f01601f1916810190811067ffffffffffffffff82111761021257604052565b6101da565b9061004261022460405190565b92836101f0565b67ffffffffffffffff811161021257602090601f01601f19160190565b0190565b9061025e6102598361022b565b610217565b918252565b61026d600661024c565b650cadcdeeaced60d31b602082015290565b6100eb610263565b610299906001600160a01b03166101b5565b01906001600160a01b0382116101d557565b9492939091936102b9600090565b5060009082156103aa576102e3876102dd886102d8600160601b610178565b6101a7565b8661046e565b85906102ee565b9190565b111561034d575061030561030061027f565b610501565b501561032e5761032a9061032461031d8483886105a8565b8092610424565b93610287565b9293565b61032a9061034785610340858461056e565b809361046e565b936101a7565b959294935050156103885761037761036f61037d936102d8600160601b610178565b91828561046e565b92610424565b9061032a6000610178565b61039c916103968185610424565b9361046e565b9061032a600160601b610178565b6103b48685610424565b6102e3565b6100eb6100eb6100eb926001600160801b031690565b6103dc6100eb6100eb9290565b60ff1690565b6100eb60606103cf565b6100eb906104006102ea6100eb9460ff1690565b901b90565b6100eb6100eb6100eb9290565b6100eb9081906001600160a01b031681565b9061043a6100eb92610434600090565b506103b9565b61046861046261045261044b6103e2565b80946103ec565b9261045d6001610405565b6103ec565b92610412565b90610605565b906104686104936104856100eb9594610434600090565b61048d6103e2565b906103ec565b91610412565b60005b8381106104ac5750506000910152565b818101518382015260200161049c565b6104dd6104e6602093610248936104d1815190565b80835293849260200190565b95869101610499565b601f01601f191690565b60208082526100eb929101906104bc565b61052d61053c6100429261051460405190565b63104c13eb60e21b6020820152928391602483016104f0565b602082018103825203826101f0565b61073e565b610562906104006105556100eb9460ff1690565b916001600160801b031690565b6001600160801b031690565b6100eb916105a39161059d6105986105846103e2565b6105928161045d6001610405565b93610541565b6103b9565b91610605565b610178565b6100eb9261059d6105986105a3946105be600090565b506105c76103e2565b90610541565b634e487b7160e01b600052601260045260246000fd5b81156105ed570490565b6105cd565b9081526040810192916100429160200152565b91929190600090600019818409928181029384808210910303926106296000610405565b841461072f57868410156107075792866100eb96979361067393610686965009808603951090036001610660841961024883610405565b8416808095049604938060000304010290565b179161068661068a826106866003610405565b0290565b6106bb6107016106fb6106ec6106dd6106ce6106bf6002976106ab89610405565b186106868b82026106bb8b610405565b0390565b6106868a82026106bb8a610405565b6106868982026106bb89610405565b6106868882026106bb88610405565b6106868782026106bb87610405565b80950290565b91610405565b868461072b61071560405190565b631dcf306360e21b8152928392600484016105f2565b0390fd5b50505050916100eb91926105e3565b610042906001610781565b6000809161075f6a636f6e736f6c652e6c6f6790565b602082519201905afa50565b634e487b7160e01b600052605160045260246000fd5b60010361076b576100429061074956fea2646970667358221220c4f9a7d262cbd07119eba0b3c5c308b3d4d21d41e7b3f44287726a0d38fa474c64736f6c63430008180033","opcodes":"PUSH1 0x80 PUSH1 0x40 MSTORE CALLVALUE PUSH2 0x1A JUMPI PUSH1 0x40 MLOAD PUSH2 0x7C7 PUSH2 0x20 DUP3 CODECOPY PUSH2 0x7C7 SWAP1 RETURN JUMPDEST PUSH1 0x0 DUP1 REVERT INVALID PUSH1 0x80 PUSH1 0x40 MSTORE PUSH1 0x4 CALLDATASIZE LT ISZERO PUSH2 0x12 JUMPI PUSH1 0x0 DUP1 REVERT JUMPDEST PUSH1 0x0 CALLDATALOAD PUSH1 0xE0 SHR PUSH4 0x93261D19 SUB PUSH2 0x30 JUMPI PUSH2 0x128 JUMP JUMPDEST DUP1 JUMPDEST SUB PUSH2 0x30 JUMPI JUMP JUMPDEST PUSH1 0x0 DUP1 REVERT JUMPDEST SWAP1 POP CALLDATALOAD SWAP1 PUSH2 0x42 DUP3 PUSH2 0x27 JUMP JUMPDEST JUMP JUMPDEST PUSH1 0x1 PUSH1 0x1 PUSH1 0x80 SHL SUB DUP2 AND PUSH2 0x29 JUMP JUMPDEST SWAP1 POP CALLDATALOAD SWAP1 PUSH2 0x42 DUP3 PUSH2 0x44 JUMP JUMPDEST PUSH1 0x1 PUSH1 0x1 PUSH1 0xA0 SHL SUB DUP2 AND PUSH2 0x29 JUMP JUMPDEST SWAP1 POP CALLDATALOAD SWAP1 PUSH2 0x42 DUP3 PUSH2 0x60 JUMP JUMPDEST DUP1 ISZERO ISZERO PUSH2 0x29 JUMP JUMPDEST SWAP1 POP CALLDATALOAD SWAP1 PUSH2 0x42 DUP3 PUSH2 0x7C JUMP JUMPDEST SWAP1 SWAP2 PUSH1 0xC0 DUP3 DUP5 SUB SLT PUSH2 0x30 JUMPI PUSH2 0xA7 DUP4 DUP4 PUSH2 0x35 JUMP JUMPDEST SWAP3 PUSH2 0xB5 DUP2 PUSH1 0x20 DUP6 ADD PUSH2 0x53 JUMP JUMPDEST SWAP3 PUSH2 0xC3 DUP3 PUSH1 0x40 DUP4 ADD PUSH2 0x6F JUMP JUMPDEST SWAP3 PUSH2 0xEB PUSH2 0xD4 DUP5 PUSH1 0x60 DUP6 ADD PUSH2 0x35 JUMP JUMPDEST SWAP4 PUSH1 0xA0 PUSH2 0xE4 DUP3 PUSH1 0x80 DUP8 ADD PUSH2 0x84 JUMP JUMPDEST SWAP5 ADD PUSH2 0x35 JUMP JUMPDEST SWAP1 JUMP JUMPDEST PUSH2 0x124 PUSH2 0x42 SWAP5 PUSH2 0x11D PUSH1 0x60 SWAP5 SWAP9 SWAP8 SWAP6 PUSH2 0x10D PUSH1 0x80 DUP7 ADD SWAP11 PUSH1 0x0 DUP8 ADD MSTORE JUMP JUMPDEST PUSH1 0x1 PUSH1 0x1 PUSH1 0xA0 SHL SUB AND PUSH1 0x20 DUP6 ADD MSTORE JUMP JUMPDEST PUSH1 0x40 DUP4 ADD MSTORE JUMP JUMPDEST ADD MSTORE JUMP JUMPDEST CALLVALUE PUSH2 0x30 JUMPI PUSH2 0x160 PUSH2 0x14A PUSH2 0x13E CALLDATASIZE PUSH1 0x4 PUSH2 0x91 JUMP JUMPDEST SWAP5 SWAP4 SWAP1 SWAP4 SWAP3 SWAP2 SWAP3 PUSH2 0x164 JUMP JUMPDEST SWAP1 PUSH2 0x157 SWAP5 SWAP3 SWAP5 PUSH1 0x40 MLOAD SWAP1 JUMP JUMPDEST SWAP5 DUP6 SWAP5 DUP6 PUSH2 0xEE JUMP JUMPDEST SUB SWAP1 RETURN JUMPDEST PUSH2 0x172 SWAP6 SWAP5 SWAP4 SWAP3 SWAP2 SWAP1 PUSH2 0x2AB JUMP JUMPDEST SWAP1 SWAP2 SWAP3 SWAP4 JUMP JUMPDEST PUSH2 0x185 PUSH2 0xEB PUSH2 0xEB SWAP3 SWAP1 JUMP JUMPDEST PUSH1 0x1 PUSH1 0x1 PUSH1 0xA0 SHL SUB AND SWAP1 JUMP JUMPDEST PUSH4 0x4E487B71 PUSH1 0xE0 SHL PUSH1 0x0 MSTORE PUSH1 0x11 PUSH1 0x4 MSTORE PUSH1 0x24 PUSH1 0x0 REVERT JUMPDEST PUSH2 0x1C2 SWAP1 PUSH1 0x1 PUSH1 0x1 PUSH1 0xA0 SHL SUB AND JUMPDEST SWAP2 PUSH1 0x1 PUSH1 0x1 PUSH1 0xA0 SHL SUB AND SWAP1 JUMP JUMPDEST SWAP1 SUB SWAP1 PUSH1 0x1 PUSH1 0x1 PUSH1 0xA0 SHL SUB DUP3 GT PUSH2 0x1D5 JUMPI JUMP JUMPDEST PUSH2 0x191 JUMP JUMPDEST PUSH4 0x4E487B71 PUSH1 0xE0 SHL PUSH1 0x0 MSTORE PUSH1 0x41 PUSH1 0x4 MSTORE PUSH1 0x24 PUSH1 0x0 REVERT JUMPDEST SWAP1 PUSH1 0x1F ADD PUSH1 0x1F NOT AND DUP2 ADD SWAP1 DUP2 LT PUSH8 0xFFFFFFFFFFFFFFFF DUP3 GT OR PUSH2 0x212 JUMPI PUSH1 0x40 MSTORE JUMP JUMPDEST PUSH2 0x1DA JUMP JUMPDEST SWAP1 PUSH2 0x42 PUSH2 0x224 PUSH1 0x40 MLOAD SWAP1 JUMP JUMPDEST SWAP3 DUP4 PUSH2 0x1F0 JUMP JUMPDEST PUSH8 0xFFFFFFFFFFFFFFFF DUP2 GT PUSH2 0x212 JUMPI PUSH1 0x20 SWAP1 PUSH1 0x1F ADD PUSH1 0x1F NOT AND ADD SWAP1 JUMP JUMPDEST ADD SWAP1 JUMP JUMPDEST SWAP1 PUSH2 0x25E PUSH2 0x259 DUP4 PUSH2 0x22B JUMP JUMPDEST PUSH2 0x217 JUMP JUMPDEST SWAP2 DUP3 MSTORE JUMP JUMPDEST PUSH2 0x26D PUSH1 0x6 PUSH2 0x24C JUMP JUMPDEST PUSH6 0xCADCDEEACED PUSH1 0xD3 SHL PUSH1 0x20 DUP3 ADD MSTORE SWAP1 JUMP JUMPDEST PUSH2 0xEB PUSH2 0x263 JUMP JUMPDEST PUSH2 0x299 SWAP1 PUSH1 0x1 PUSH1 0x1 PUSH1 0xA0 SHL SUB AND PUSH2 0x1B5 JUMP JUMPDEST ADD SWAP1 PUSH1 0x1 PUSH1 0x1 PUSH1 0xA0 SHL SUB DUP3 GT PUSH2 0x1D5 JUMPI JUMP JUMPDEST SWAP5 SWAP3 SWAP4 SWAP1 SWAP2 SWAP4 PUSH2 0x2B9 PUSH1 0x0 SWAP1 JUMP JUMPDEST POP PUSH1 0x0 SWAP1 DUP3 ISZERO PUSH2 0x3AA JUMPI PUSH2 0x2E3 DUP8 PUSH2 0x2DD DUP9 PUSH2 0x2D8 PUSH1 0x1 PUSH1 0x60 SHL PUSH2 0x178 JUMP JUMPDEST PUSH2 0x1A7 JUMP JUMPDEST DUP7 PUSH2 0x46E JUMP JUMPDEST DUP6 SWAP1 PUSH2 0x2EE JUMP JUMPDEST SWAP2 SWAP1 JUMP JUMPDEST GT ISZERO PUSH2 0x34D JUMPI POP PUSH2 0x305 PUSH2 0x300 PUSH2 0x27F JUMP JUMPDEST PUSH2 0x501 JUMP JUMPDEST POP ISZERO PUSH2 0x32E JUMPI PUSH2 0x32A SWAP1 PUSH2 0x324 PUSH2 0x31D DUP5 DUP4 DUP9 PUSH2 0x5A8 JUMP JUMPDEST DUP1 SWAP3 PUSH2 0x424 JUMP JUMPDEST SWAP4 PUSH2 0x287 JUMP JUMPDEST SWAP3 SWAP4 JUMP JUMPDEST PUSH2 0x32A SWAP1 PUSH2 0x347 DUP6 PUSH2 0x340 DUP6 DUP5 PUSH2 0x56E JUMP JUMPDEST DUP1 SWAP4 PUSH2 0x46E JUMP JUMPDEST SWAP4 PUSH2 0x1A7 JUMP JUMPDEST SWAP6 SWAP3 SWAP5 SWAP4 POP POP ISZERO PUSH2 0x388 JUMPI PUSH2 0x377 PUSH2 0x36F PUSH2 0x37D SWAP4 PUSH2 0x2D8 PUSH1 0x1 PUSH1 0x60 SHL PUSH2 0x178 JUMP JUMPDEST SWAP2 DUP3 DUP6 PUSH2 0x46E JUMP JUMPDEST SWAP3 PUSH2 0x424 JUMP JUMPDEST SWAP1 PUSH2 0x32A PUSH1 0x0 PUSH2 0x178 JUMP JUMPDEST PUSH2 0x39C SWAP2 PUSH2 0x396 DUP2 DUP6 PUSH2 0x424 JUMP JUMPDEST SWAP4 PUSH2 0x46E JUMP JUMPDEST SWAP1 PUSH2 0x32A PUSH1 0x1 PUSH1 0x60 SHL PUSH2 0x178 JUMP JUMPDEST PUSH2 0x3B4 DUP7 DUP6 PUSH2 0x424 JUMP JUMPDEST PUSH2 0x2E3 JUMP JUMPDEST PUSH2 0xEB PUSH2 0xEB PUSH2 0xEB SWAP3 PUSH1 0x1 PUSH1 0x1 PUSH1 0x80 SHL SUB AND SWAP1 JUMP JUMPDEST PUSH2 0x3DC PUSH2 0xEB PUSH2 0xEB SWAP3 SWAP1 JUMP JUMPDEST PUSH1 0xFF AND SWAP1 JUMP JUMPDEST PUSH2 0xEB PUSH1 0x60 PUSH2 0x3CF JUMP JUMPDEST PUSH2 0xEB SWAP1 PUSH2 0x400 PUSH2 0x2EA PUSH2 0xEB SWAP5 PUSH1 0xFF AND SWAP1 JUMP JUMPDEST SWAP1 SHL SWAP1 JUMP JUMPDEST PUSH2 0xEB PUSH2 0xEB PUSH2 0xEB SWAP3 SWAP1 JUMP JUMPDEST PUSH2 0xEB SWAP1 DUP2 SWAP1 PUSH1 0x1 PUSH1 0x1 PUSH1 0xA0 SHL SUB AND DUP2 JUMP JUMPDEST SWAP1 PUSH2 0x43A PUSH2 0xEB SWAP3 PUSH2 0x434 PUSH1 0x0 SWAP1 JUMP JUMPDEST POP PUSH2 0x3B9 JUMP JUMPDEST PUSH2 0x468 PUSH2 0x462 PUSH2 0x452 PUSH2 0x44B PUSH2 0x3E2 JUMP JUMPDEST DUP1 SWAP5 PUSH2 0x3EC JUMP JUMPDEST SWAP3 PUSH2 0x45D PUSH1 0x1 PUSH2 0x405 JUMP JUMPDEST PUSH2 0x3EC JUMP JUMPDEST SWAP3 PUSH2 0x412 JUMP JUMPDEST SWAP1 PUSH2 0x605 JUMP JUMPDEST SWAP1 PUSH2 0x468 PUSH2 0x493 PUSH2 0x485 PUSH2 0xEB SWAP6 SWAP5 PUSH2 0x434 PUSH1 0x0 SWAP1 JUMP JUMPDEST PUSH2 0x48D PUSH2 0x3E2 JUMP JUMPDEST SWAP1 PUSH2 0x3EC JUMP JUMPDEST SWAP2 PUSH2 0x412 JUMP JUMPDEST PUSH1 0x0 JUMPDEST DUP4 DUP2 LT PUSH2 0x4AC JUMPI POP POP PUSH1 0x0 SWAP2 ADD MSTORE JUMP JUMPDEST DUP2 DUP2 ADD MLOAD DUP4 DUP3 ADD MSTORE PUSH1 0x20 ADD PUSH2 0x49C JUMP JUMPDEST PUSH2 0x4DD PUSH2 0x4E6 PUSH1 0x20 SWAP4 PUSH2 0x248 SWAP4 PUSH2 0x4D1 DUP2 MLOAD SWAP1 JUMP JUMPDEST DUP1 DUP4 MSTORE SWAP4 DUP5 SWAP3 PUSH1 0x20 ADD SWAP1 JUMP JUMPDEST SWAP6 DUP7 SWAP2 ADD PUSH2 0x499 JUMP JUMPDEST PUSH1 0x1F ADD PUSH1 0x1F NOT AND SWAP1 JUMP JUMPDEST PUSH1 0x20 DUP1 DUP3 MSTORE PUSH2 0xEB SWAP3 SWAP2 ADD SWAP1 PUSH2 0x4BC JUMP JUMPDEST PUSH2 0x52D PUSH2 0x53C PUSH2 0x42 SWAP3 PUSH2 0x514 PUSH1 0x40 MLOAD SWAP1 JUMP JUMPDEST PUSH4 0x104C13EB PUSH1 0xE2 SHL PUSH1 0x20 DUP3 ADD MSTORE SWAP3 DUP4 SWAP2 PUSH1 0x24 DUP4 ADD PUSH2 0x4F0 JUMP JUMPDEST PUSH1 0x20 DUP3 ADD DUP2 SUB DUP3 MSTORE SUB DUP3 PUSH2 0x1F0 JUMP JUMPDEST PUSH2 0x73E JUMP JUMPDEST PUSH2 0x562 SWAP1 PUSH2 0x400 PUSH2 0x555 PUSH2 0xEB SWAP5 PUSH1 0xFF AND SWAP1 JUMP JUMPDEST SWAP2 PUSH1 0x1 PUSH1 0x1 PUSH1 0x80 SHL SUB AND SWAP1 JUMP JUMPDEST PUSH1 0x1 PUSH1 0x1 PUSH1 0x80 SHL SUB AND SWAP1 JUMP JUMPDEST PUSH2 0xEB SWAP2 PUSH2 0x5A3 SWAP2 PUSH2 0x59D PUSH2 0x598 PUSH2 0x584 PUSH2 0x3E2 JUMP JUMPDEST PUSH2 0x592 DUP2 PUSH2 0x45D PUSH1 0x1 PUSH2 0x405 JUMP JUMPDEST SWAP4 PUSH2 0x541 JUMP JUMPDEST PUSH2 0x3B9 JUMP JUMPDEST SWAP2 PUSH2 0x605 JUMP JUMPDEST PUSH2 0x178 JUMP JUMPDEST PUSH2 0xEB SWAP3 PUSH2 0x59D PUSH2 0x598 PUSH2 0x5A3 SWAP5 PUSH2 0x5BE PUSH1 0x0 SWAP1 JUMP JUMPDEST POP PUSH2 0x5C7 PUSH2 0x3E2 JUMP JUMPDEST SWAP1 PUSH2 0x541 JUMP JUMPDEST PUSH4 0x4E487B71 PUSH1 0xE0 SHL PUSH1 0x0 MSTORE PUSH1 0x12 PUSH1 0x4 MSTORE PUSH1 0x24 PUSH1 0x0 REVERT JUMPDEST DUP2 ISZERO PUSH2 0x5ED JUMPI DIV SWAP1 JUMP JUMPDEST PUSH2 0x5CD JUMP JUMPDEST SWAP1 DUP2 MSTORE PUSH1 0x40 DUP2 ADD SWAP3 SWAP2 PUSH2 0x42 SWAP2 PUSH1 0x20 ADD MSTORE JUMP JUMPDEST SWAP2 SWAP3 SWAP2 SWAP1 PUSH1 0x0 SWAP1 PUSH1 0x0 NOT DUP2 DUP5 MULMOD SWAP3 DUP2 DUP2 MUL SWAP4 DUP5 DUP1 DUP3 LT SWAP2 SUB SUB SWAP3 PUSH2 0x629 PUSH1 0x0 PUSH2 0x405 JUMP JUMPDEST DUP5 EQ PUSH2 0x72F JUMPI DUP7 DUP5 LT ISZERO PUSH2 0x707 JUMPI SWAP3 DUP7 PUSH2 0xEB SWAP7 SWAP8 SWAP4 PUSH2 0x673 SWAP4 PUSH2 0x686 SWAP7 POP MULMOD DUP1 DUP7 SUB SWAP6 LT SWAP1 SUB PUSH1 0x1 PUSH2 0x660 DUP5 NOT PUSH2 0x248 DUP4 PUSH2 0x405 JUMP JUMPDEST DUP5 AND DUP1 DUP1 SWAP6 DIV SWAP7 DIV SWAP4 DUP1 PUSH1 0x0 SUB DIV ADD MUL SWAP1 JUMP JUMPDEST OR SWAP2 PUSH2 0x686 PUSH2 0x68A DUP3 PUSH2 0x686 PUSH1 0x3 PUSH2 0x405 JUMP JUMPDEST MUL SWAP1 JUMP JUMPDEST PUSH2 0x6BB PUSH2 0x701 PUSH2 0x6FB PUSH2 0x6EC PUSH2 0x6DD PUSH2 0x6CE PUSH2 0x6BF PUSH1 0x2 SWAP8 PUSH2 0x6AB DUP10 PUSH2 0x405 JUMP JUMPDEST XOR PUSH2 0x686 DUP12 DUP3 MUL PUSH2 0x6BB DUP12 PUSH2 0x405 JUMP JUMPDEST SUB SWAP1 JUMP JUMPDEST PUSH2 0x686 DUP11 DUP3 MUL PUSH2 0x6BB DUP11 PUSH2 0x405 JUMP JUMPDEST PUSH2 0x686 DUP10 DUP3 MUL PUSH2 0x6BB DUP10 PUSH2 0x405 JUMP JUMPDEST PUSH2 0x686 DUP9 DUP3 MUL PUSH2 0x6BB DUP9 PUSH2 0x405 JUMP JUMPDEST PUSH2 0x686 DUP8 DUP3 MUL PUSH2 0x6BB DUP8 PUSH2 0x405 JUMP JUMPDEST DUP1 SWAP6 MUL SWAP1 JUMP JUMPDEST SWAP2 PUSH2 0x405 JUMP JUMPDEST DUP7 DUP5 PUSH2 0x72B PUSH2 0x715 PUSH1 0x40 MLOAD SWAP1 JUMP JUMPDEST PUSH4 0x1DCF3063 PUSH1 0xE2 SHL DUP2 MSTORE SWAP3 DUP4 SWAP3 PUSH1 0x4 DUP5 ADD PUSH2 0x5F2 JUMP JUMPDEST SUB SWAP1 REVERT JUMPDEST POP POP POP POP SWAP2 PUSH2 0xEB SWAP2 SWAP3 PUSH2 0x5E3 JUMP JUMPDEST PUSH2 0x42 SWAP1 PUSH1 0x1 PUSH2 0x781 JUMP JUMPDEST PUSH1 0x0 DUP1 SWAP2 PUSH2 0x75F PUSH11 0x636F6E736F6C652E6C6F67 SWAP1 JUMP JUMPDEST PUSH1 0x20 DUP3 MLOAD SWAP3 ADD SWAP1 GAS STATICCALL POP JUMP JUMPDEST PUSH4 0x4E487B71 PUSH1 0xE0 SHL PUSH1 0x0 MSTORE PUSH1 0x51 PUSH1 0x4 MSTORE PUSH1 0x24 PUSH1 0x0 REVERT JUMPDEST PUSH1 0x1 SUB PUSH2 0x76B JUMPI PUSH2 0x42 SWAP1 PUSH2 0x749 JUMP INVALID LOG2 PUSH5 0x6970667358 0x22 SLT KECCAK256 0xC4 0xF9 0xA7 0xD2 PUSH3 0xCBD071 NOT 0xEB LOG0 0xB3 0xC5 0xC3 ADDMOD 0xB3 0xD4 0xD2 SAR COINBASE 0xE7 0xB3 DELEGATECALL TIMESTAMP DUP8 PUSH19 0x6A0D38FA474C64736F6C634300081800330000 "},"methodIdentifiers":{"computeSwap(uint256,uint128,uint160,uint256,bool,uint256)":"93261d19"}}}}}