{"contracts/test/TestBinMath.sol":{"TestBinMath":{"abi":[{"inputs":[{"internalType":"uint32","name":"bin","type":"uint32"}],"name":"getPriceAtBin","outputs":[{"internalType":"uint256","name":"priceX96","type":"uint256"}],"stateMutability":"pure","type":"function"}],"evm":{"bytecode":{"linkReferences":{},"object":"60806040523461001a5760405161098d610020823961098d90f35b600080fdfe6080604052600436101561001257600080fd5b60003560e01c631e784c5c0361003557610060565b63ffffffff81160361003557565b600080fd5b9050359061004782610027565b565b906020828203126100355761005d9161003a565b90565b346100355761008b61007b610076366004610049565b61008f565b6040519182918290815260200190565b0390f35b61005d90610295565b6100ab61005d61005d9263ffffffff1690565b60030b90565b6100ab61005d61005d9290565b61005d628000006100b1565b634e487b7160e01b600052601160045260246000fd5b6100ee9060030b9160030b90565b900390637fffffff198212637fffffff83131761010757565b6100ca565b61011c61005d61005d9260030b90565b60020b90565b61011c61005d61005d9290565b61005d61005d61005d9260020b90565b61005d61005d61005d9290565b600160ff1b81146101075760000390565b61005d62080000610122565b61017961005d61005d9260020b90565b62ffffff1690565b61005d61005d61005d9262ffffff1690565b1561019a57565b60405162461bcd60e51b815260206004820152601560248201527462696e206973206f7574206f662072616e6765202160581b6044820152606490fd5b6101e461005d61005d9290565b6001600160881b031690565b61005d61005d61005d926001600160881b031690565b8181029291811591840414171561010757565b61022661005d61005d9290565b60ff1690565b61005d9061024461024061005d9460ff1690565b9190565b901c90565b634e487b7160e01b600052601260045260246000fd5b8115610269570490565b610249565b8115610269570690565b61005d61005d61005d9260ff1690565b9190820180921161010757565b6102c36102be6102b061005d936102aa600090565b50610098565b6102b86100be565b906100e0565b61010c565b60006102ce81610122565b6102d88360020b90565b1215610945576102f76102f26102ed8461012f565b61014c565b61013f565b915b61031f61031761005d61031261030d61015d565b610169565b610181565b841115610193565b610329600161013f565b83166103376102408461013f565b146109355761035d6103586ffff97272373d400000000000000000006101d7565b6101f0565b92610368600261013f565b81166103766102408561013f565b0361090e575b610386600461013f565b81166103946102408561013f565b036108e7575b6103a4600861013f565b81166103b26102408561013f565b036108c0575b6103c2601061013f565b81166103d06102408561013f565b03610899575b6103e0602061013f565b81166103ee6102408561013f565b03610872575b6103fe604061013f565b811661040c6102408561013f565b03610841575b60809061041e8261013f565b811661042c6102408661013f565b0361081a575b61043d61010061013f565b811661044b6102408661013f565b036107f3575b61045c61020061013f565b811661046a6102408661013f565b036107cc575b61047b61040061013f565b81166104896102408661013f565b036107a5575b61049a61080061013f565b81166104a86102408661013f565b0361077e575b6104b961100061013f565b81166104c76102408661013f565b03610757575b6104d861200061013f565b81166104e66102408661013f565b03610730575b6104f761400061013f565b81166105056102408661013f565b03610709575b61051661800061013f565b81166105246102408661013f565b036106e2575b6105366201000061013f565b81166105446102408661013f565b036106bc575b6105566202000061013f565b81166105646102408661013f565b03610697575b6105766204000061013f565b81166105846102408661013f565b0361066b575b6105966208000061013f565b166105a36102408561013f565b03610637575b506105bd6105b683610122565b9160020b90565b13610624575b6105ee6105d96105d36020610219565b8461022c565b926105e864010000000061013f565b9061026e565b6105fa6102408361013f565b036106165761060b61061091610219565b610278565b90610288565b5061061061060b6001610219565b906106319060001961025f565b906105c3565b61065e610658610664939561065266149b34ee7b453361013f565b90610206565b91610219565b9061022c565b91386105a9565b93610688610691916106526b048a1703920644c00000000061013f565b61065e83610219565b9361058a565b936106886106b6916106526d2216e584f630380000000000000061013f565b9361056a565b936106886106dc916106526e5d6af8dedbcb38000000000000000061013f565b9361054a565b93610688610703916106526f09aa508b5b7e5a80000000000000000061013f565b9361052a565b9361068861072a916106526f31be135f97da6e00000000000000000061013f565b9361050b565b93610688610751916106526f70d869a156ddd400000000000000000061013f565b936104ec565b93610688610778916106526fa9f746462d8f7800000000000000000061013f565b936104cd565b9361068861079f916106526fd097f3bdfd255000000000000000000061013f565b936104ae565b936106886107c6916106526fe7159475a2c57800000000000000000061013f565b9361048f565b936106886107ed916106526ff3392b0822b88000000000000000000061013f565b93610470565b93610688610814916106526ff987a7253ac4d800000000000000000061013f565b93610451565b9361068861083b916106526ffcbe86c7900ae800000000000000000061013f565b93610432565b9261086261086c916106526ffe5dee046a99d800000000000000000061013f565b61065e6080610219565b92610412565b92610862610893916106526fff2ea16466c98000000000000000000061013f565b926103f4565b926108626108ba916106526fff973b41fa98d800000000000000000061013f565b926103d6565b926108626108e1916106526fffcb9843d60f6800000000000000000061013f565b926103b8565b92610862610908916106526fffe5caca7e10f000000000000000000061013f565b9261039a565b9261086261092f916106526ffff2e50f5f657000000000000000000061013f565b9261037c565b61035d610358600160801b6101d7565b6109516102f28361012f565b916102f956fea2646970667358221220cc5ac9d983c1b97b0bee438d248a46640ff47b090073d1be3f0f65ce3218b6a364736f6c63430008180033","opcodes":"PUSH1 0x80 PUSH1 0x40 MSTORE CALLVALUE PUSH2 0x1A JUMPI PUSH1 0x40 MLOAD PUSH2 0x98D PUSH2 0x20 DUP3 CODECOPY PUSH2 0x98D SWAP1 RETURN JUMPDEST PUSH1 0x0 DUP1 REVERT INVALID PUSH1 0x80 PUSH1 0x40 MSTORE PUSH1 0x4 CALLDATASIZE LT ISZERO PUSH2 0x12 JUMPI PUSH1 0x0 DUP1 REVERT JUMPDEST PUSH1 0x0 CALLDATALOAD PUSH1 0xE0 SHR PUSH4 0x1E784C5C SUB PUSH2 0x35 JUMPI PUSH2 0x60 JUMP JUMPDEST PUSH4 0xFFFFFFFF DUP2 AND SUB PUSH2 0x35 JUMPI JUMP JUMPDEST PUSH1 0x0 DUP1 REVERT JUMPDEST SWAP1 POP CALLDATALOAD SWAP1 PUSH2 0x47 DUP3 PUSH2 0x27 JUMP JUMPDEST JUMP JUMPDEST SWAP1 PUSH1 0x20 DUP3 DUP3 SUB SLT PUSH2 0x35 JUMPI PUSH2 0x5D SWAP2 PUSH2 0x3A JUMP JUMPDEST SWAP1 JUMP JUMPDEST CALLVALUE PUSH2 0x35 JUMPI PUSH2 0x8B PUSH2 0x7B PUSH2 0x76 CALLDATASIZE PUSH1 0x4 PUSH2 0x49 JUMP JUMPDEST PUSH2 0x8F JUMP JUMPDEST PUSH1 0x40 MLOAD SWAP2 DUP3 SWAP2 DUP3 SWAP1 DUP2 MSTORE PUSH1 0x20 ADD SWAP1 JUMP JUMPDEST SUB SWAP1 RETURN JUMPDEST PUSH2 0x5D SWAP1 PUSH2 0x295 JUMP JUMPDEST PUSH2 0xAB PUSH2 0x5D PUSH2 0x5D SWAP3 PUSH4 0xFFFFFFFF AND SWAP1 JUMP JUMPDEST PUSH1 0x3 SIGNEXTEND SWAP1 JUMP JUMPDEST PUSH2 0xAB PUSH2 0x5D PUSH2 0x5D SWAP3 SWAP1 JUMP JUMPDEST PUSH2 0x5D PUSH3 0x800000 PUSH2 0xB1 JUMP JUMPDEST PUSH4 0x4E487B71 PUSH1 0xE0 SHL PUSH1 0x0 MSTORE PUSH1 0x11 PUSH1 0x4 MSTORE PUSH1 0x24 PUSH1 0x0 REVERT JUMPDEST PUSH2 0xEE SWAP1 PUSH1 0x3 SIGNEXTEND SWAP2 PUSH1 0x3 SIGNEXTEND SWAP1 JUMP JUMPDEST SWAP1 SUB SWAP1 PUSH4 0x7FFFFFFF NOT DUP3 SLT PUSH4 0x7FFFFFFF DUP4 SGT OR PUSH2 0x107 JUMPI JUMP JUMPDEST PUSH2 0xCA JUMP JUMPDEST PUSH2 0x11C PUSH2 0x5D PUSH2 0x5D SWAP3 PUSH1 0x3 SIGNEXTEND SWAP1 JUMP JUMPDEST PUSH1 0x2 SIGNEXTEND SWAP1 JUMP JUMPDEST PUSH2 0x11C PUSH2 0x5D PUSH2 0x5D SWAP3 SWAP1 JUMP JUMPDEST PUSH2 0x5D PUSH2 0x5D PUSH2 0x5D SWAP3 PUSH1 0x2 SIGNEXTEND SWAP1 JUMP JUMPDEST PUSH2 0x5D PUSH2 0x5D PUSH2 0x5D SWAP3 SWAP1 JUMP JUMPDEST PUSH1 0x1 PUSH1 0xFF SHL DUP2 EQ PUSH2 0x107 JUMPI PUSH1 0x0 SUB SWAP1 JUMP JUMPDEST PUSH2 0x5D PUSH3 0x80000 PUSH2 0x122 JUMP JUMPDEST PUSH2 0x179 PUSH2 0x5D PUSH2 0x5D SWAP3 PUSH1 0x2 SIGNEXTEND SWAP1 JUMP JUMPDEST PUSH3 0xFFFFFF AND SWAP1 JUMP JUMPDEST PUSH2 0x5D PUSH2 0x5D PUSH2 0x5D SWAP3 PUSH3 0xFFFFFF AND SWAP1 JUMP JUMPDEST ISZERO PUSH2 0x19A JUMPI JUMP JUMPDEST PUSH1 0x40 MLOAD PUSH3 0x461BCD PUSH1 0xE5 SHL DUP2 MSTORE PUSH1 0x20 PUSH1 0x4 DUP3 ADD MSTORE PUSH1 0x15 PUSH1 0x24 DUP3 ADD MSTORE PUSH21 0x62696E206973206F7574206F662072616E67652021 PUSH1 0x58 SHL PUSH1 0x44 DUP3 ADD MSTORE PUSH1 0x64 SWAP1 REVERT JUMPDEST PUSH2 0x1E4 PUSH2 0x5D PUSH2 0x5D SWAP3 SWAP1 JUMP JUMPDEST PUSH1 0x1 PUSH1 0x1 PUSH1 0x88 SHL SUB AND SWAP1 JUMP JUMPDEST PUSH2 0x5D PUSH2 0x5D PUSH2 0x5D SWAP3 PUSH1 0x1 PUSH1 0x1 PUSH1 0x88 SHL SUB AND SWAP1 JUMP JUMPDEST DUP2 DUP2 MUL SWAP3 SWAP2 DUP2 ISZERO SWAP2 DUP5 DIV EQ OR ISZERO PUSH2 0x107 JUMPI JUMP JUMPDEST PUSH2 0x226 PUSH2 0x5D PUSH2 0x5D SWAP3 SWAP1 JUMP JUMPDEST PUSH1 0xFF AND SWAP1 JUMP JUMPDEST PUSH2 0x5D SWAP1 PUSH2 0x244 PUSH2 0x240 PUSH2 0x5D SWAP5 PUSH1 0xFF AND SWAP1 JUMP JUMPDEST SWAP2 SWAP1 JUMP JUMPDEST SWAP1 SHR SWAP1 JUMP JUMPDEST PUSH4 0x4E487B71 PUSH1 0xE0 SHL PUSH1 0x0 MSTORE PUSH1 0x12 PUSH1 0x4 MSTORE PUSH1 0x24 PUSH1 0x0 REVERT JUMPDEST DUP2 ISZERO PUSH2 0x269 JUMPI DIV SWAP1 JUMP JUMPDEST PUSH2 0x249 JUMP JUMPDEST DUP2 ISZERO PUSH2 0x269 JUMPI MOD SWAP1 JUMP JUMPDEST PUSH2 0x5D PUSH2 0x5D PUSH2 0x5D SWAP3 PUSH1 0xFF AND SWAP1 JUMP JUMPDEST SWAP2 SWAP1 DUP3 ADD DUP1 SWAP3 GT PUSH2 0x107 JUMPI JUMP JUMPDEST PUSH2 0x2C3 PUSH2 0x2BE PUSH2 0x2B0 PUSH2 0x5D SWAP4 PUSH2 0x2AA PUSH1 0x0 SWAP1 JUMP JUMPDEST POP PUSH2 0x98 JUMP JUMPDEST PUSH2 0x2B8 PUSH2 0xBE JUMP JUMPDEST SWAP1 PUSH2 0xE0 JUMP JUMPDEST PUSH2 0x10C JUMP JUMPDEST PUSH1 0x0 PUSH2 0x2CE DUP2 PUSH2 0x122 JUMP JUMPDEST PUSH2 0x2D8 DUP4 PUSH1 0x2 SIGNEXTEND SWAP1 JUMP JUMPDEST SLT ISZERO PUSH2 0x945 JUMPI PUSH2 0x2F7 PUSH2 0x2F2 PUSH2 0x2ED DUP5 PUSH2 0x12F JUMP JUMPDEST PUSH2 0x14C JUMP JUMPDEST PUSH2 0x13F JUMP JUMPDEST SWAP2 JUMPDEST PUSH2 0x31F PUSH2 0x317 PUSH2 0x5D PUSH2 0x312 PUSH2 0x30D PUSH2 0x15D JUMP JUMPDEST PUSH2 0x169 JUMP JUMPDEST PUSH2 0x181 JUMP JUMPDEST DUP5 GT ISZERO PUSH2 0x193 JUMP JUMPDEST PUSH2 0x329 PUSH1 0x1 PUSH2 0x13F JUMP JUMPDEST DUP4 AND PUSH2 0x337 PUSH2 0x240 DUP5 PUSH2 0x13F JUMP JUMPDEST EQ PUSH2 0x935 JUMPI PUSH2 0x35D PUSH2 0x358 PUSH16 0xFFF97272373D40000000000000000000 PUSH2 0x1D7 JUMP JUMPDEST PUSH2 0x1F0 JUMP JUMPDEST SWAP3 PUSH2 0x368 PUSH1 0x2 PUSH2 0x13F JUMP JUMPDEST DUP2 AND PUSH2 0x376 PUSH2 0x240 DUP6 PUSH2 0x13F JUMP JUMPDEST SUB PUSH2 0x90E JUMPI JUMPDEST PUSH2 0x386 PUSH1 0x4 PUSH2 0x13F JUMP JUMPDEST DUP2 AND PUSH2 0x394 PUSH2 0x240 DUP6 PUSH2 0x13F JUMP JUMPDEST SUB PUSH2 0x8E7 JUMPI JUMPDEST PUSH2 0x3A4 PUSH1 0x8 PUSH2 0x13F JUMP JUMPDEST DUP2 AND PUSH2 0x3B2 PUSH2 0x240 DUP6 PUSH2 0x13F JUMP JUMPDEST SUB PUSH2 0x8C0 JUMPI JUMPDEST PUSH2 0x3C2 PUSH1 0x10 PUSH2 0x13F JUMP JUMPDEST DUP2 AND PUSH2 0x3D0 PUSH2 0x240 DUP6 PUSH2 0x13F JUMP JUMPDEST SUB PUSH2 0x899 JUMPI JUMPDEST PUSH2 0x3E0 PUSH1 0x20 PUSH2 0x13F JUMP JUMPDEST DUP2 AND PUSH2 0x3EE PUSH2 0x240 DUP6 PUSH2 0x13F JUMP JUMPDEST SUB PUSH2 0x872 JUMPI JUMPDEST PUSH2 0x3FE PUSH1 0x40 PUSH2 0x13F JUMP JUMPDEST DUP2 AND PUSH2 0x40C PUSH2 0x240 DUP6 PUSH2 0x13F JUMP JUMPDEST SUB PUSH2 0x841 JUMPI JUMPDEST PUSH1 0x80 SWAP1 PUSH2 0x41E DUP3 PUSH2 0x13F JUMP JUMPDEST DUP2 AND PUSH2 0x42C PUSH2 0x240 DUP7 PUSH2 0x13F JUMP JUMPDEST SUB PUSH2 0x81A JUMPI JUMPDEST PUSH2 0x43D PUSH2 0x100 PUSH2 0x13F JUMP JUMPDEST DUP2 AND PUSH2 0x44B PUSH2 0x240 DUP7 PUSH2 0x13F JUMP JUMPDEST SUB PUSH2 0x7F3 JUMPI JUMPDEST PUSH2 0x45C PUSH2 0x200 PUSH2 0x13F JUMP JUMPDEST DUP2 AND PUSH2 0x46A PUSH2 0x240 DUP7 PUSH2 0x13F JUMP JUMPDEST SUB PUSH2 0x7CC JUMPI JUMPDEST PUSH2 0x47B PUSH2 0x400 PUSH2 0x13F JUMP JUMPDEST DUP2 AND PUSH2 0x489 PUSH2 0x240 DUP7 PUSH2 0x13F JUMP JUMPDEST SUB PUSH2 0x7A5 JUMPI JUMPDEST PUSH2 0x49A PUSH2 0x800 PUSH2 0x13F JUMP JUMPDEST DUP2 AND PUSH2 0x4A8 PUSH2 0x240 DUP7 PUSH2 0x13F JUMP JUMPDEST SUB PUSH2 0x77E JUMPI JUMPDEST PUSH2 0x4B9 PUSH2 0x1000 PUSH2 0x13F JUMP JUMPDEST DUP2 AND PUSH2 0x4C7 PUSH2 0x240 DUP7 PUSH2 0x13F JUMP JUMPDEST SUB PUSH2 0x757 JUMPI JUMPDEST PUSH2 0x4D8 PUSH2 0x2000 PUSH2 0x13F JUMP JUMPDEST DUP2 AND PUSH2 0x4E6 PUSH2 0x240 DUP7 PUSH2 0x13F JUMP JUMPDEST SUB PUSH2 0x730 JUMPI JUMPDEST PUSH2 0x4F7 PUSH2 0x4000 PUSH2 0x13F JUMP JUMPDEST DUP2 AND PUSH2 0x505 PUSH2 0x240 DUP7 PUSH2 0x13F JUMP JUMPDEST SUB PUSH2 0x709 JUMPI JUMPDEST PUSH2 0x516 PUSH2 0x8000 PUSH2 0x13F JUMP JUMPDEST DUP2 AND PUSH2 0x524 PUSH2 0x240 DUP7 PUSH2 0x13F JUMP JUMPDEST SUB PUSH2 0x6E2 JUMPI JUMPDEST PUSH2 0x536 PUSH3 0x10000 PUSH2 0x13F JUMP JUMPDEST DUP2 AND PUSH2 0x544 PUSH2 0x240 DUP7 PUSH2 0x13F JUMP JUMPDEST SUB PUSH2 0x6BC JUMPI JUMPDEST PUSH2 0x556 PUSH3 0x20000 PUSH2 0x13F JUMP JUMPDEST DUP2 AND PUSH2 0x564 PUSH2 0x240 DUP7 PUSH2 0x13F JUMP JUMPDEST SUB PUSH2 0x697 JUMPI JUMPDEST PUSH2 0x576 PUSH3 0x40000 PUSH2 0x13F JUMP JUMPDEST DUP2 AND PUSH2 0x584 PUSH2 0x240 DUP7 PUSH2 0x13F JUMP JUMPDEST SUB PUSH2 0x66B JUMPI JUMPDEST PUSH2 0x596 PUSH3 0x80000 PUSH2 0x13F JUMP JUMPDEST AND PUSH2 0x5A3 PUSH2 0x240 DUP6 PUSH2 0x13F JUMP JUMPDEST SUB PUSH2 0x637 JUMPI JUMPDEST POP PUSH2 0x5BD PUSH2 0x5B6 DUP4 PUSH2 0x122 JUMP JUMPDEST SWAP2 PUSH1 0x2 SIGNEXTEND SWAP1 JUMP JUMPDEST SGT PUSH2 0x624 JUMPI JUMPDEST PUSH2 0x5EE PUSH2 0x5D9 PUSH2 0x5D3 PUSH1 0x20 PUSH2 0x219 JUMP JUMPDEST DUP5 PUSH2 0x22C JUMP JUMPDEST SWAP3 PUSH2 0x5E8 PUSH5 0x100000000 PUSH2 0x13F JUMP JUMPDEST SWAP1 PUSH2 0x26E JUMP JUMPDEST PUSH2 0x5FA PUSH2 0x240 DUP4 PUSH2 0x13F JUMP JUMPDEST SUB PUSH2 0x616 JUMPI PUSH2 0x60B PUSH2 0x610 SWAP2 PUSH2 0x219 JUMP JUMPDEST PUSH2 0x278 JUMP JUMPDEST SWAP1 PUSH2 0x288 JUMP JUMPDEST POP PUSH2 0x610 PUSH2 0x60B PUSH1 0x1 PUSH2 0x219 JUMP JUMPDEST SWAP1 PUSH2 0x631 SWAP1 PUSH1 0x0 NOT PUSH2 0x25F JUMP JUMPDEST SWAP1 PUSH2 0x5C3 JUMP JUMPDEST PUSH2 0x65E PUSH2 0x658 PUSH2 0x664 SWAP4 SWAP6 PUSH2 0x652 PUSH7 0x149B34EE7B4533 PUSH2 0x13F JUMP JUMPDEST SWAP1 PUSH2 0x206 JUMP JUMPDEST SWAP2 PUSH2 0x219 JUMP JUMPDEST SWAP1 PUSH2 0x22C JUMP JUMPDEST SWAP2 CODESIZE PUSH2 0x5A9 JUMP JUMPDEST SWAP4 PUSH2 0x688 PUSH2 0x691 SWAP2 PUSH2 0x652 PUSH12 0x48A1703920644C000000000 PUSH2 0x13F JUMP JUMPDEST PUSH2 0x65E DUP4 PUSH2 0x219 JUMP JUMPDEST SWAP4 PUSH2 0x58A JUMP JUMPDEST SWAP4 PUSH2 0x688 PUSH2 0x6B6 SWAP2 PUSH2 0x652 PUSH14 0x2216E584F6303800000000000000 PUSH2 0x13F JUMP JUMPDEST SWAP4 PUSH2 0x56A JUMP JUMPDEST SWAP4 PUSH2 0x688 PUSH2 0x6DC SWAP2 PUSH2 0x652 PUSH15 0x5D6AF8DEDBCB380000000000000000 PUSH2 0x13F JUMP JUMPDEST SWAP4 PUSH2 0x54A JUMP JUMPDEST SWAP4 PUSH2 0x688 PUSH2 0x703 SWAP2 PUSH2 0x652 PUSH16 0x9AA508B5B7E5A800000000000000000 PUSH2 0x13F JUMP JUMPDEST SWAP4 PUSH2 0x52A JUMP JUMPDEST SWAP4 PUSH2 0x688 PUSH2 0x72A SWAP2 PUSH2 0x652 PUSH16 0x31BE135F97DA6E000000000000000000 PUSH2 0x13F JUMP JUMPDEST SWAP4 PUSH2 0x50B JUMP JUMPDEST SWAP4 PUSH2 0x688 PUSH2 0x751 SWAP2 PUSH2 0x652 PUSH16 0x70D869A156DDD4000000000000000000 PUSH2 0x13F JUMP JUMPDEST SWAP4 PUSH2 0x4EC JUMP JUMPDEST SWAP4 PUSH2 0x688 PUSH2 0x778 SWAP2 PUSH2 0x652 PUSH16 0xA9F746462D8F78000000000000000000 PUSH2 0x13F JUMP JUMPDEST SWAP4 PUSH2 0x4CD JUMP JUMPDEST SWAP4 PUSH2 0x688 PUSH2 0x79F SWAP2 PUSH2 0x652 PUSH16 0xD097F3BDFD2550000000000000000000 PUSH2 0x13F JUMP JUMPDEST SWAP4 PUSH2 0x4AE JUMP JUMPDEST SWAP4 PUSH2 0x688 PUSH2 0x7C6 SWAP2 PUSH2 0x652 PUSH16 0xE7159475A2C578000000000000000000 PUSH2 0x13F JUMP JUMPDEST SWAP4 PUSH2 0x48F JUMP JUMPDEST SWAP4 PUSH2 0x688 PUSH2 0x7ED SWAP2 PUSH2 0x652 PUSH16 0xF3392B0822B880000000000000000000 PUSH2 0x13F JUMP JUMPDEST SWAP4 PUSH2 0x470 JUMP JUMPDEST SWAP4 PUSH2 0x688 PUSH2 0x814 SWAP2 PUSH2 0x652 PUSH16 0xF987A7253AC4D8000000000000000000 PUSH2 0x13F JUMP JUMPDEST SWAP4 PUSH2 0x451 JUMP JUMPDEST SWAP4 PUSH2 0x688 PUSH2 0x83B SWAP2 PUSH2 0x652 PUSH16 0xFCBE86C7900AE8000000000000000000 PUSH2 0x13F JUMP JUMPDEST SWAP4 PUSH2 0x432 JUMP JUMPDEST SWAP3 PUSH2 0x862 PUSH2 0x86C SWAP2 PUSH2 0x652 PUSH16 0xFE5DEE046A99D8000000000000000000 PUSH2 0x13F JUMP JUMPDEST PUSH2 0x65E PUSH1 0x80 PUSH2 0x219 JUMP JUMPDEST SWAP3 PUSH2 0x412 JUMP JUMPDEST SWAP3 PUSH2 0x862 PUSH2 0x893 SWAP2 PUSH2 0x652 PUSH16 0xFF2EA16466C980000000000000000000 PUSH2 0x13F JUMP JUMPDEST SWAP3 PUSH2 0x3F4 JUMP JUMPDEST SWAP3 PUSH2 0x862 PUSH2 0x8BA SWAP2 PUSH2 0x652 PUSH16 0xFF973B41FA98D8000000000000000000 PUSH2 0x13F JUMP JUMPDEST SWAP3 PUSH2 0x3D6 JUMP JUMPDEST SWAP3 PUSH2 0x862 PUSH2 0x8E1 SWAP2 PUSH2 0x652 PUSH16 0xFFCB9843D60F68000000000000000000 PUSH2 0x13F JUMP JUMPDEST SWAP3 PUSH2 0x3B8 JUMP JUMPDEST SWAP3 PUSH2 0x862 PUSH2 0x908 SWAP2 PUSH2 0x652 PUSH16 0xFFE5CACA7E10F0000000000000000000 PUSH2 0x13F JUMP JUMPDEST SWAP3 PUSH2 0x39A JUMP JUMPDEST SWAP3 PUSH2 0x862 PUSH2 0x92F SWAP2 PUSH2 0x652 PUSH16 0xFFF2E50F5F6570000000000000000000 PUSH2 0x13F JUMP JUMPDEST SWAP3 PUSH2 0x37C JUMP JUMPDEST PUSH2 0x35D PUSH2 0x358 PUSH1 0x1 PUSH1 0x80 SHL PUSH2 0x1D7 JUMP JUMPDEST PUSH2 0x951 PUSH2 0x2F2 DUP4 PUSH2 0x12F JUMP JUMPDEST SWAP2 PUSH2 0x2F9 JUMP INVALID LOG2 PUSH5 0x6970667358 0x22 SLT KECCAK256 0xCC GAS 0xC9 0xD9 DUP4 0xC1 0xB9 PUSH28 0xBEE438D248A46640FF47B090073D1BE3F0F65CE3218B6A364736F6C PUSH4 0x43000818 STOP CALLER "},"methodIdentifiers":{"getPriceAtBin(uint32)":"1e784c5c"}}}}}