{"contracts/PoolManager.sol":{"PoolManager":{"abi":[{"inputs":[{"internalType":"uint32","name":"target_bin","type":"uint32"},{"internalType":"uint256","name":"amount0","type":"uint256"},{"internalType":"uint256","name":"amount1","type":"uint256"},{"internalType":"bytes","name":"data","type":"bytes"}],"name":"PoolMintCallback","outputs":[],"stateMutability":"nonpayable","type":"function"},{"inputs":[{"internalType":"uint256[]","name":"bins","type":"uint256[]"},{"internalType":"uint256[]","name":"amount0","type":"uint256[]"},{"internalType":"uint256[]","name":"amount1","type":"uint256[]"},{"internalType":"bytes","name":"data","type":"bytes"},{"internalType":"bool","name":"zeroforone","type":"bool"}],"name":"PoolSwapCallback","outputs":[],"stateMutability":"nonpayable","type":"function"},{"inputs":[{"internalType":"address","name":"pool_address","type":"address"},{"internalType":"uint32","name":"target_bin","type":"uint32"},{"internalType":"uint128","name":"amount","type":"uint128"},{"internalType":"bytes","name":"data","type":"bytes"}],"name":"mint","outputs":[{"internalType":"uint256","name":"","type":"uint256"},{"internalType":"uint256","name":"","type":"uint256"}],"stateMutability":"nonpayable","type":"function"}],"evm":{"bytecode":{"linkReferences":{},"object":"60806040523461001a5760405161096a610020823961096a90f35b600080fdfe6080604052600436101561001257600080fd5b60003560e01c8063428716f81461004257806363439a551461003d5763859e32a7036100685761036c565b6101c6565b61014c565b6001600160a01b031690565b90565b6001600160a01b0381165b0361006857565b600080fd5b9050359061007a82610056565b565b63ffffffff8116610061565b9050359061007a8261007c565b6001600160801b038116610061565b9050359061007a82610095565b909182601f830112156100685781359167ffffffffffffffff831161006857602001926001830284011161006857565b90608082820312610068576100f6818361006d565b926101048260208501610088565b9261011283604083016100a4565b92606082013567ffffffffffffffff81116100685761013192016100b1565b9091565b9052565b90815260408101929161007a9160200152565b346100685761016861015f3660046100e1565b93929092610478565b9061017e61017560405190565b92839283610139565b0390f35b80610061565b9050359061007a82610182565b90608082820312610068576101aa8183610088565b926101b88260208501610188565b926101128360408301610188565b34610068576101e26101d9366004610195565b939290926105ea565b604051005b634e487b7160e01b600052604160045260246000fd5b90601f01601f1916810190811067ffffffffffffffff82111761021f57604052565b6101e7565b9061007a61023160405190565b92836101fd565b67ffffffffffffffff811161021f5760208091020190565b9092919261026561026082610238565b610224565b938185526020808601920283019281841161006857915b8383106102895750505050565b602080916102978486610188565b81520192019161027c565b9080601f830112156100685781602061005393359101610250565b801515610061565b9050359061007a826102bd565b9160a08383031261006857823567ffffffffffffffff811161006857826102fa9185016102a2565b92602081013567ffffffffffffffff8111610068578361031b9183016102a2565b92604082013567ffffffffffffffff8111610068578161033c9184016102a2565b92606083013567ffffffffffffffff811161006857826103636080946100539387016100b1565b949095016102c5565b34610068576101e261037f3660046102d2565b949390939291926107c9565b61005390610047906001600160a01b031682565b6100539061038b565b6100539061039f565b9050519061007a82610182565b9190604083820312610068576100539060206103da82866103b1565b94016103b1565b90826000939282370152565b919061040b81610404816104159560209181520190565b80956103e1565b601f01601f191690565b0190565b909391610053959361044f61045f92610442608086019860008701906001600160a01b03169052565b63ffffffff166020850152565b6001600160801b03166040830152565b60608185039101526103ed565b6040513d6000823e3d90fd5b91600061049b61049660409695989798610490600090565b506103a8565b6103a8565b926104c36104a860405190565b98899687958694630850e2df60e31b86523360048701610419565b03925af180156105075760009283916104db57509190565b905061013191925060403d604011610500575b6104f881836101fd565b8101906103be565b503d6104ee565b61046c565b91906060838203126100685761054d9060406105286060610224565b94610533838261006d565b8652610542836020830161006d565b60208701520161006d565b6040830152565b90606082820312610068576100539161050c565b600091031261006857565b6100536100536100539263ffffffff1690565b61013590610573565b91936105d66105dd9296946105cc61005399976105bc60a088019a60008901906001600160a01b03169052565b6001600160a01b03166020870152565b6040850190610586565b6060830152565b60808185039101526103ed565b939291926105fa81840184610554565b926106106104968086516001600160a01b031690565b63f242432a94604081019461062c86516001600160a01b031690565b833b1561006857899361065860008a6106658a8a849861064b60405190565b9b8c998a98899760e01b90565b875233906004880161058f565b03925af1908115610507576104966020610496926106a395610695956106f7575b5001516001600160a01b031690565b93516001600160a01b031690565b93833b15610068576106ce610658936000979388946106c160405190565b9a8b998a98899760e01b90565b03925af18015610507576106df5750565b61007a9060006106ef81836101fd565b810190610568565b6107079060006106ef81836101fd565b38610686565b9061072d61072661071c845190565b8084529260200190565b9260200190565b9060005b81811061073e5750505090565b90919261075b6107546001928651815260200190565b9460200190565b929101610731565b94926100539694916107ad916107a06107bb9561079060a08b019460008c01906001600160a01b03169052565b6001600160a01b031660208a0152565b878203604089015261070d565b90858203606087015261070d565b9260808185039101526103ed565b9492939091936107db82820182610554565b9315610897576107f66104968086516001600160a01b031690565b632eb2c2d694604081019461081286516001600160a01b031690565b833b1561006857899361083160008a61083d8a8a849861064b60405190565b87523360048801610763565b03925af19081156105075761049660206104969261086c95610695956106f7575001516001600160a01b031690565b93833b15610068576106ce61088a936000979388946106c160405190565b8752339060048801610763565b6108ac6104968086516001600160a01b031690565b632eb2c2d69460408101946108c886516001600160a01b031690565b833b1561006857899361088a60008a6108e78a8a849861064b60405190565b03925af19081156105075761049660206104969261091695610695956106f7575001516001600160a01b031690565b93833b15610068576106ce610831936000979388946106c16040519056fea2646970667358221220b2cc9cf1597b3ded5d53109240eedf4fc3ce6a22daa8ae55f9765d163d72097c64736f6c63430008180033","opcodes":"PUSH1 0x80 PUSH1 0x40 MSTORE CALLVALUE PUSH2 0x1A JUMPI PUSH1 0x40 MLOAD PUSH2 0x96A PUSH2 0x20 DUP3 CODECOPY PUSH2 0x96A SWAP1 RETURN JUMPDEST PUSH1 0x0 DUP1 REVERT INVALID PUSH1 0x80 PUSH1 0x40 MSTORE PUSH1 0x4 CALLDATASIZE LT ISZERO PUSH2 0x12 JUMPI PUSH1 0x0 DUP1 REVERT JUMPDEST PUSH1 0x0 CALLDATALOAD PUSH1 0xE0 SHR DUP1 PUSH4 0x428716F8 EQ PUSH2 0x42 JUMPI DUP1 PUSH4 0x63439A55 EQ PUSH2 0x3D JUMPI PUSH4 0x859E32A7 SUB PUSH2 0x68 JUMPI PUSH2 0x36C JUMP JUMPDEST PUSH2 0x1C6 JUMP JUMPDEST PUSH2 0x14C JUMP JUMPDEST PUSH1 0x1 PUSH1 0x1 PUSH1 0xA0 SHL SUB AND SWAP1 JUMP JUMPDEST SWAP1 JUMP JUMPDEST PUSH1 0x1 PUSH1 0x1 PUSH1 0xA0 SHL SUB DUP2 AND JUMPDEST SUB PUSH2 0x68 JUMPI JUMP JUMPDEST PUSH1 0x0 DUP1 REVERT JUMPDEST SWAP1 POP CALLDATALOAD SWAP1 PUSH2 0x7A DUP3 PUSH2 0x56 JUMP JUMPDEST JUMP JUMPDEST PUSH4 0xFFFFFFFF DUP2 AND PUSH2 0x61 JUMP JUMPDEST SWAP1 POP CALLDATALOAD SWAP1 PUSH2 0x7A DUP3 PUSH2 0x7C JUMP JUMPDEST PUSH1 0x1 PUSH1 0x1 PUSH1 0x80 SHL SUB DUP2 AND PUSH2 0x61 JUMP JUMPDEST SWAP1 POP CALLDATALOAD SWAP1 PUSH2 0x7A DUP3 PUSH2 0x95 JUMP JUMPDEST SWAP1 SWAP2 DUP3 PUSH1 0x1F DUP4 ADD SLT ISZERO PUSH2 0x68 JUMPI DUP2 CALLDATALOAD SWAP2 PUSH8 0xFFFFFFFFFFFFFFFF DUP4 GT PUSH2 0x68 JUMPI PUSH1 0x20 ADD SWAP3 PUSH1 0x1 DUP4 MUL DUP5 ADD GT PUSH2 0x68 JUMPI JUMP JUMPDEST SWAP1 PUSH1 0x80 DUP3 DUP3 SUB SLT PUSH2 0x68 JUMPI PUSH2 0xF6 DUP2 DUP4 PUSH2 0x6D JUMP JUMPDEST SWAP3 PUSH2 0x104 DUP3 PUSH1 0x20 DUP6 ADD PUSH2 0x88 JUMP JUMPDEST SWAP3 PUSH2 0x112 DUP4 PUSH1 0x40 DUP4 ADD PUSH2 0xA4 JUMP JUMPDEST SWAP3 PUSH1 0x60 DUP3 ADD CALLDATALOAD PUSH8 0xFFFFFFFFFFFFFFFF DUP2 GT PUSH2 0x68 JUMPI PUSH2 0x131 SWAP3 ADD PUSH2 0xB1 JUMP JUMPDEST SWAP1 SWAP2 JUMP JUMPDEST SWAP1 MSTORE JUMP JUMPDEST SWAP1 DUP2 MSTORE PUSH1 0x40 DUP2 ADD SWAP3 SWAP2 PUSH2 0x7A SWAP2 PUSH1 0x20 ADD MSTORE JUMP JUMPDEST CALLVALUE PUSH2 0x68 JUMPI PUSH2 0x168 PUSH2 0x15F CALLDATASIZE PUSH1 0x4 PUSH2 0xE1 JUMP JUMPDEST SWAP4 SWAP3 SWAP1 SWAP3 PUSH2 0x478 JUMP JUMPDEST SWAP1 PUSH2 0x17E PUSH2 0x175 PUSH1 0x40 MLOAD SWAP1 JUMP JUMPDEST SWAP3 DUP4 SWAP3 DUP4 PUSH2 0x139 JUMP JUMPDEST SUB SWAP1 RETURN JUMPDEST DUP1 PUSH2 0x61 JUMP JUMPDEST SWAP1 POP CALLDATALOAD SWAP1 PUSH2 0x7A DUP3 PUSH2 0x182 JUMP JUMPDEST SWAP1 PUSH1 0x80 DUP3 DUP3 SUB SLT PUSH2 0x68 JUMPI PUSH2 0x1AA DUP2 DUP4 PUSH2 0x88 JUMP JUMPDEST SWAP3 PUSH2 0x1B8 DUP3 PUSH1 0x20 DUP6 ADD PUSH2 0x188 JUMP JUMPDEST SWAP3 PUSH2 0x112 DUP4 PUSH1 0x40 DUP4 ADD PUSH2 0x188 JUMP JUMPDEST CALLVALUE PUSH2 0x68 JUMPI PUSH2 0x1E2 PUSH2 0x1D9 CALLDATASIZE PUSH1 0x4 PUSH2 0x195 JUMP JUMPDEST SWAP4 SWAP3 SWAP1 SWAP3 PUSH2 0x5EA JUMP JUMPDEST PUSH1 0x40 MLOAD STOP JUMPDEST PUSH4 0x4E487B71 PUSH1 0xE0 SHL PUSH1 0x0 MSTORE PUSH1 0x41 PUSH1 0x4 MSTORE PUSH1 0x24 PUSH1 0x0 REVERT JUMPDEST SWAP1 PUSH1 0x1F ADD PUSH1 0x1F NOT AND DUP2 ADD SWAP1 DUP2 LT PUSH8 0xFFFFFFFFFFFFFFFF DUP3 GT OR PUSH2 0x21F JUMPI PUSH1 0x40 MSTORE JUMP JUMPDEST PUSH2 0x1E7 JUMP JUMPDEST SWAP1 PUSH2 0x7A PUSH2 0x231 PUSH1 0x40 MLOAD SWAP1 JUMP JUMPDEST SWAP3 DUP4 PUSH2 0x1FD JUMP JUMPDEST PUSH8 0xFFFFFFFFFFFFFFFF DUP2 GT PUSH2 0x21F JUMPI PUSH1 0x20 DUP1 SWAP2 MUL ADD SWAP1 JUMP JUMPDEST SWAP1 SWAP3 SWAP2 SWAP3 PUSH2 0x265 PUSH2 0x260 DUP3 PUSH2 0x238 JUMP JUMPDEST PUSH2 0x224 JUMP JUMPDEST SWAP4 DUP2 DUP6 MSTORE PUSH1 0x20 DUP1 DUP7 ADD SWAP3 MUL DUP4 ADD SWAP3 DUP2 DUP5 GT PUSH2 0x68 JUMPI SWAP2 JUMPDEST DUP4 DUP4 LT PUSH2 0x289 JUMPI POP POP POP POP JUMP JUMPDEST PUSH1 0x20 DUP1 SWAP2 PUSH2 0x297 DUP5 DUP7 PUSH2 0x188 JUMP JUMPDEST DUP2 MSTORE ADD SWAP3 ADD SWAP2 PUSH2 0x27C JUMP JUMPDEST SWAP1 DUP1 PUSH1 0x1F DUP4 ADD SLT ISZERO PUSH2 0x68 JUMPI DUP2 PUSH1 0x20 PUSH2 0x53 SWAP4 CALLDATALOAD SWAP2 ADD PUSH2 0x250 JUMP JUMPDEST DUP1 ISZERO ISZERO PUSH2 0x61 JUMP JUMPDEST SWAP1 POP CALLDATALOAD SWAP1 PUSH2 0x7A DUP3 PUSH2 0x2BD JUMP JUMPDEST SWAP2 PUSH1 0xA0 DUP4 DUP4 SUB SLT PUSH2 0x68 JUMPI DUP3 CALLDATALOAD PUSH8 0xFFFFFFFFFFFFFFFF DUP2 GT PUSH2 0x68 JUMPI DUP3 PUSH2 0x2FA SWAP2 DUP6 ADD PUSH2 0x2A2 JUMP JUMPDEST SWAP3 PUSH1 0x20 DUP2 ADD CALLDATALOAD PUSH8 0xFFFFFFFFFFFFFFFF DUP2 GT PUSH2 0x68 JUMPI DUP4 PUSH2 0x31B SWAP2 DUP4 ADD PUSH2 0x2A2 JUMP JUMPDEST SWAP3 PUSH1 0x40 DUP3 ADD CALLDATALOAD PUSH8 0xFFFFFFFFFFFFFFFF DUP2 GT PUSH2 0x68 JUMPI DUP2 PUSH2 0x33C SWAP2 DUP5 ADD PUSH2 0x2A2 JUMP JUMPDEST SWAP3 PUSH1 0x60 DUP4 ADD CALLDATALOAD PUSH8 0xFFFFFFFFFFFFFFFF DUP2 GT PUSH2 0x68 JUMPI DUP3 PUSH2 0x363 PUSH1 0x80 SWAP5 PUSH2 0x53 SWAP4 DUP8 ADD PUSH2 0xB1 JUMP JUMPDEST SWAP5 SWAP1 SWAP6 ADD PUSH2 0x2C5 JUMP JUMPDEST CALLVALUE PUSH2 0x68 JUMPI PUSH2 0x1E2 PUSH2 0x37F CALLDATASIZE PUSH1 0x4 PUSH2 0x2D2 JUMP JUMPDEST SWAP5 SWAP4 SWAP1 SWAP4 SWAP3 SWAP2 SWAP3 PUSH2 0x7C9 JUMP JUMPDEST PUSH2 0x53 SWAP1 PUSH2 0x47 SWAP1 PUSH1 0x1 PUSH1 0x1 PUSH1 0xA0 SHL SUB AND DUP3 JUMP JUMPDEST PUSH2 0x53 SWAP1 PUSH2 0x38B JUMP JUMPDEST PUSH2 0x53 SWAP1 PUSH2 0x39F JUMP JUMPDEST SWAP1 POP MLOAD SWAP1 PUSH2 0x7A DUP3 PUSH2 0x182 JUMP JUMPDEST SWAP2 SWAP1 PUSH1 0x40 DUP4 DUP3 SUB SLT PUSH2 0x68 JUMPI PUSH2 0x53 SWAP1 PUSH1 0x20 PUSH2 0x3DA DUP3 DUP7 PUSH2 0x3B1 JUMP JUMPDEST SWAP5 ADD PUSH2 0x3B1 JUMP JUMPDEST SWAP1 DUP3 PUSH1 0x0 SWAP4 SWAP3 DUP3 CALLDATACOPY ADD MSTORE JUMP JUMPDEST SWAP2 SWAP1 PUSH2 0x40B DUP2 PUSH2 0x404 DUP2 PUSH2 0x415 SWAP6 PUSH1 0x20 SWAP2 DUP2 MSTORE ADD SWAP1 JUMP JUMPDEST DUP1 SWAP6 PUSH2 0x3E1 JUMP JUMPDEST PUSH1 0x1F ADD PUSH1 0x1F NOT AND SWAP1 JUMP JUMPDEST ADD SWAP1 JUMP JUMPDEST SWAP1 SWAP4 SWAP2 PUSH2 0x53 SWAP6 SWAP4 PUSH2 0x44F PUSH2 0x45F SWAP3 PUSH2 0x442 PUSH1 0x80 DUP7 ADD SWAP9 PUSH1 0x0 DUP8 ADD SWAP1 PUSH1 0x1 PUSH1 0x1 PUSH1 0xA0 SHL SUB AND SWAP1 MSTORE JUMP JUMPDEST PUSH4 0xFFFFFFFF AND PUSH1 0x20 DUP6 ADD MSTORE JUMP JUMPDEST PUSH1 0x1 PUSH1 0x1 PUSH1 0x80 SHL SUB AND PUSH1 0x40 DUP4 ADD MSTORE JUMP JUMPDEST PUSH1 0x60 DUP2 DUP6 SUB SWAP2 ADD MSTORE PUSH2 0x3ED JUMP JUMPDEST PUSH1 0x40 MLOAD RETURNDATASIZE PUSH1 0x0 DUP3 RETURNDATACOPY RETURNDATASIZE SWAP1 REVERT JUMPDEST SWAP2 PUSH1 0x0 PUSH2 0x49B PUSH2 0x496 PUSH1 0x40 SWAP7 SWAP6 SWAP9 SWAP8 SWAP9 PUSH2 0x490 PUSH1 0x0 SWAP1 JUMP JUMPDEST POP PUSH2 0x3A8 JUMP JUMPDEST PUSH2 0x3A8 JUMP JUMPDEST SWAP3 PUSH2 0x4C3 PUSH2 0x4A8 PUSH1 0x40 MLOAD SWAP1 JUMP JUMPDEST SWAP9 DUP10 SWAP7 DUP8 SWAP6 DUP7 SWAP5 PUSH4 0x850E2DF PUSH1 0xE3 SHL DUP7 MSTORE CALLER PUSH1 0x4 DUP8 ADD PUSH2 0x419 JUMP JUMPDEST SUB SWAP3 GAS CALL DUP1 ISZERO PUSH2 0x507 JUMPI PUSH1 0x0 SWAP3 DUP4 SWAP2 PUSH2 0x4DB JUMPI POP SWAP2 SWAP1 JUMP JUMPDEST SWAP1 POP PUSH2 0x131 SWAP2 SWAP3 POP PUSH1 0x40 RETURNDATASIZE PUSH1 0x40 GT PUSH2 0x500 JUMPI JUMPDEST PUSH2 0x4F8 DUP2 DUP4 PUSH2 0x1FD JUMP JUMPDEST DUP2 ADD SWAP1 PUSH2 0x3BE JUMP JUMPDEST POP RETURNDATASIZE PUSH2 0x4EE JUMP JUMPDEST PUSH2 0x46C JUMP JUMPDEST SWAP2 SWAP1 PUSH1 0x60 DUP4 DUP3 SUB SLT PUSH2 0x68 JUMPI PUSH2 0x54D SWAP1 PUSH1 0x40 PUSH2 0x528 PUSH1 0x60 PUSH2 0x224 JUMP JUMPDEST SWAP5 PUSH2 0x533 DUP4 DUP3 PUSH2 0x6D JUMP JUMPDEST DUP7 MSTORE PUSH2 0x542 DUP4 PUSH1 0x20 DUP4 ADD PUSH2 0x6D JUMP JUMPDEST PUSH1 0x20 DUP8 ADD MSTORE ADD PUSH2 0x6D JUMP JUMPDEST PUSH1 0x40 DUP4 ADD MSTORE JUMP JUMPDEST SWAP1 PUSH1 0x60 DUP3 DUP3 SUB SLT PUSH2 0x68 JUMPI PUSH2 0x53 SWAP2 PUSH2 0x50C JUMP JUMPDEST PUSH1 0x0 SWAP2 SUB SLT PUSH2 0x68 JUMPI JUMP JUMPDEST PUSH2 0x53 PUSH2 0x53 PUSH2 0x53 SWAP3 PUSH4 0xFFFFFFFF AND SWAP1 JUMP JUMPDEST PUSH2 0x135 SWAP1 PUSH2 0x573 JUMP JUMPDEST SWAP2 SWAP4 PUSH2 0x5D6 PUSH2 0x5DD SWAP3 SWAP7 SWAP5 PUSH2 0x5CC PUSH2 0x53 SWAP10 SWAP8 PUSH2 0x5BC PUSH1 0xA0 DUP9 ADD SWAP11 PUSH1 0x0 DUP10 ADD SWAP1 PUSH1 0x1 PUSH1 0x1 PUSH1 0xA0 SHL SUB AND SWAP1 MSTORE JUMP JUMPDEST PUSH1 0x1 PUSH1 0x1 PUSH1 0xA0 SHL SUB AND PUSH1 0x20 DUP8 ADD MSTORE JUMP JUMPDEST PUSH1 0x40 DUP6 ADD SWAP1 PUSH2 0x586 JUMP JUMPDEST PUSH1 0x60 DUP4 ADD MSTORE JUMP JUMPDEST PUSH1 0x80 DUP2 DUP6 SUB SWAP2 ADD MSTORE PUSH2 0x3ED JUMP JUMPDEST SWAP4 SWAP3 SWAP2 SWAP3 PUSH2 0x5FA DUP2 DUP5 ADD DUP5 PUSH2 0x554 JUMP JUMPDEST SWAP3 PUSH2 0x610 PUSH2 0x496 DUP1 DUP7 MLOAD PUSH1 0x1 PUSH1 0x1 PUSH1 0xA0 SHL SUB AND SWAP1 JUMP JUMPDEST PUSH4 0xF242432A SWAP5 PUSH1 0x40 DUP2 ADD SWAP5 PUSH2 0x62C DUP7 MLOAD PUSH1 0x1 PUSH1 0x1 PUSH1 0xA0 SHL SUB AND SWAP1 JUMP JUMPDEST DUP4 EXTCODESIZE ISZERO PUSH2 0x68 JUMPI DUP10 SWAP4 PUSH2 0x658 PUSH1 0x0 DUP11 PUSH2 0x665 DUP11 DUP11 DUP5 SWAP9 PUSH2 0x64B PUSH1 0x40 MLOAD SWAP1 JUMP JUMPDEST SWAP12 DUP13 SWAP10 DUP11 SWAP9 DUP10 SWAP8 PUSH1 0xE0 SHL SWAP1 JUMP JUMPDEST DUP8 MSTORE CALLER SWAP1 PUSH1 0x4 DUP9 ADD PUSH2 0x58F JUMP JUMPDEST SUB SWAP3 GAS CALL SWAP1 DUP2 ISZERO PUSH2 0x507 JUMPI PUSH2 0x496 PUSH1 0x20 PUSH2 0x496 SWAP3 PUSH2 0x6A3 SWAP6 PUSH2 0x695 SWAP6 PUSH2 0x6F7 JUMPI JUMPDEST POP ADD MLOAD PUSH1 0x1 PUSH1 0x1 PUSH1 0xA0 SHL SUB AND SWAP1 JUMP JUMPDEST SWAP4 MLOAD PUSH1 0x1 PUSH1 0x1 PUSH1 0xA0 SHL SUB AND SWAP1 JUMP JUMPDEST SWAP4 DUP4 EXTCODESIZE ISZERO PUSH2 0x68 JUMPI PUSH2 0x6CE PUSH2 0x658 SWAP4 PUSH1 0x0 SWAP8 SWAP4 DUP9 SWAP5 PUSH2 0x6C1 PUSH1 0x40 MLOAD SWAP1 JUMP JUMPDEST SWAP11 DUP12 SWAP10 DUP11 SWAP9 DUP10 SWAP8 PUSH1 0xE0 SHL SWAP1 JUMP JUMPDEST SUB SWAP3 GAS CALL DUP1 ISZERO PUSH2 0x507 JUMPI PUSH2 0x6DF JUMPI POP JUMP JUMPDEST PUSH2 0x7A SWAP1 PUSH1 0x0 PUSH2 0x6EF DUP2 DUP4 PUSH2 0x1FD JUMP JUMPDEST DUP2 ADD SWAP1 PUSH2 0x568 JUMP JUMPDEST PUSH2 0x707 SWAP1 PUSH1 0x0 PUSH2 0x6EF DUP2 DUP4 PUSH2 0x1FD JUMP JUMPDEST CODESIZE PUSH2 0x686 JUMP JUMPDEST SWAP1 PUSH2 0x72D PUSH2 0x726 PUSH2 0x71C DUP5 MLOAD SWAP1 JUMP JUMPDEST DUP1 DUP5 MSTORE SWAP3 PUSH1 0x20 ADD SWAP1 JUMP JUMPDEST SWAP3 PUSH1 0x20 ADD SWAP1 JUMP JUMPDEST SWAP1 PUSH1 0x0 JUMPDEST DUP2 DUP2 LT PUSH2 0x73E JUMPI POP POP POP SWAP1 JUMP JUMPDEST SWAP1 SWAP2 SWAP3 PUSH2 0x75B PUSH2 0x754 PUSH1 0x1 SWAP3 DUP7 MLOAD DUP2 MSTORE PUSH1 0x20 ADD SWAP1 JUMP JUMPDEST SWAP5 PUSH1 0x20 ADD SWAP1 JUMP JUMPDEST SWAP3 SWAP2 ADD PUSH2 0x731 JUMP JUMPDEST SWAP5 SWAP3 PUSH2 0x53 SWAP7 SWAP5 SWAP2 PUSH2 0x7AD SWAP2 PUSH2 0x7A0 PUSH2 0x7BB SWAP6 PUSH2 0x790 PUSH1 0xA0 DUP12 ADD SWAP5 PUSH1 0x0 DUP13 ADD SWAP1 PUSH1 0x1 PUSH1 0x1 PUSH1 0xA0 SHL SUB AND SWAP1 MSTORE JUMP JUMPDEST PUSH1 0x1 PUSH1 0x1 PUSH1 0xA0 SHL SUB AND PUSH1 0x20 DUP11 ADD MSTORE JUMP JUMPDEST DUP8 DUP3 SUB PUSH1 0x40 DUP10 ADD MSTORE PUSH2 0x70D JUMP JUMPDEST SWAP1 DUP6 DUP3 SUB PUSH1 0x60 DUP8 ADD MSTORE PUSH2 0x70D JUMP JUMPDEST SWAP3 PUSH1 0x80 DUP2 DUP6 SUB SWAP2 ADD MSTORE PUSH2 0x3ED JUMP JUMPDEST SWAP5 SWAP3 SWAP4 SWAP1 SWAP2 SWAP4 PUSH2 0x7DB DUP3 DUP3 ADD DUP3 PUSH2 0x554 JUMP JUMPDEST SWAP4 ISZERO PUSH2 0x897 JUMPI PUSH2 0x7F6 PUSH2 0x496 DUP1 DUP7 MLOAD PUSH1 0x1 PUSH1 0x1 PUSH1 0xA0 SHL SUB AND SWAP1 JUMP JUMPDEST PUSH4 0x2EB2C2D6 SWAP5 PUSH1 0x40 DUP2 ADD SWAP5 PUSH2 0x812 DUP7 MLOAD PUSH1 0x1 PUSH1 0x1 PUSH1 0xA0 SHL SUB AND SWAP1 JUMP JUMPDEST DUP4 EXTCODESIZE ISZERO PUSH2 0x68 JUMPI DUP10 SWAP4 PUSH2 0x831 PUSH1 0x0 DUP11 PUSH2 0x83D DUP11 DUP11 DUP5 SWAP9 PUSH2 0x64B PUSH1 0x40 MLOAD SWAP1 JUMP JUMPDEST DUP8 MSTORE CALLER PUSH1 0x4 DUP9 ADD PUSH2 0x763 JUMP JUMPDEST SUB SWAP3 GAS CALL SWAP1 DUP2 ISZERO PUSH2 0x507 JUMPI PUSH2 0x496 PUSH1 0x20 PUSH2 0x496 SWAP3 PUSH2 0x86C SWAP6 PUSH2 0x695 SWAP6 PUSH2 0x6F7 JUMPI POP ADD MLOAD PUSH1 0x1 PUSH1 0x1 PUSH1 0xA0 SHL SUB AND SWAP1 JUMP JUMPDEST SWAP4 DUP4 EXTCODESIZE ISZERO PUSH2 0x68 JUMPI PUSH2 0x6CE PUSH2 0x88A SWAP4 PUSH1 0x0 SWAP8 SWAP4 DUP9 SWAP5 PUSH2 0x6C1 PUSH1 0x40 MLOAD SWAP1 JUMP JUMPDEST DUP8 MSTORE CALLER SWAP1 PUSH1 0x4 DUP9 ADD PUSH2 0x763 JUMP JUMPDEST PUSH2 0x8AC PUSH2 0x496 DUP1 DUP7 MLOAD PUSH1 0x1 PUSH1 0x1 PUSH1 0xA0 SHL SUB AND SWAP1 JUMP JUMPDEST PUSH4 0x2EB2C2D6 SWAP5 PUSH1 0x40 DUP2 ADD SWAP5 PUSH2 0x8C8 DUP7 MLOAD PUSH1 0x1 PUSH1 0x1 PUSH1 0xA0 SHL SUB AND SWAP1 JUMP JUMPDEST DUP4 EXTCODESIZE ISZERO PUSH2 0x68 JUMPI DUP10 SWAP4 PUSH2 0x88A PUSH1 0x0 DUP11 PUSH2 0x8E7 DUP11 DUP11 DUP5 SWAP9 PUSH2 0x64B PUSH1 0x40 MLOAD SWAP1 JUMP JUMPDEST SUB SWAP3 GAS CALL SWAP1 DUP2 ISZERO PUSH2 0x507 JUMPI PUSH2 0x496 PUSH1 0x20 PUSH2 0x496 SWAP3 PUSH2 0x916 SWAP6 PUSH2 0x695 SWAP6 PUSH2 0x6F7 JUMPI POP ADD MLOAD PUSH1 0x1 PUSH1 0x1 PUSH1 0xA0 SHL SUB AND SWAP1 JUMP JUMPDEST SWAP4 DUP4 EXTCODESIZE ISZERO PUSH2 0x68 JUMPI PUSH2 0x6CE PUSH2 0x831 SWAP4 PUSH1 0x0 SWAP8 SWAP4 DUP9 SWAP5 PUSH2 0x6C1 PUSH1 0x40 MLOAD SWAP1 JUMP INVALID LOG2 PUSH5 0x6970667358 0x22 SLT KECCAK256 0xB2 0xCC SWAP13 CALL MSIZE PUSH28 0x3DED5D53109240EEDF4FC3CE6A22DAA8AE55F9765D163D72097C6473 PUSH16 0x6C634300081800330000000000000000 "},"methodIdentifiers":{"PoolMintCallback(uint32,uint256,uint256,bytes)":"63439a55","PoolSwapCallback(uint256[],uint256[],uint256[],bytes,bool)":"859e32a7","mint(address,uint32,uint128,bytes)":"428716f8"}}}}}