{"contracts/test/TestMath.sol":{"TestMath":{"abi":[{"inputs":[{"internalType":"uint256","name":"prod1","type":"uint256"},{"internalType":"uint256","name":"denominator","type":"uint256"}],"name":"PRBMath__MulDivOverflow","type":"error"},{"inputs":[{"internalType":"uint128","name":"deltaL","type":"uint128"},{"internalType":"uint160","name":"C","type":"uint160"},{"internalType":"uint256","name":"P","type":"uint256"}],"name":"calcAmount0Active","outputs":[{"internalType":"uint256","name":"deltaX","type":"uint256"}],"stateMutability":"view","type":"function"},{"inputs":[{"internalType":"uint128","name":"deltaL","type":"uint128"},{"internalType":"uint256","name":"P","type":"uint256"}],"name":"calcAmount0Inactive","outputs":[{"internalType":"uint256","name":"deltaX","type":"uint256"}],"stateMutability":"view","type":"function"},{"inputs":[{"internalType":"uint128","name":"deltaL","type":"uint128"},{"internalType":"uint160","name":"C","type":"uint160"}],"name":"calcAmount1Active","outputs":[{"internalType":"uint256","name":"deltaY","type":"uint256"}],"stateMutability":"view","type":"function"},{"inputs":[{"internalType":"uint128","name":"deltaL","type":"uint128"}],"name":"calcAmount1Inactive","outputs":[{"internalType":"uint256","name":"deltaY","type":"uint256"}],"stateMutability":"view","type":"function"}],"evm":{"bytecode":{"linkReferences":{},"object":"60806040523461001a57604051610581610020823961058190f35b600080fdfe6080604052600436101561001257600080fd5b60003560e01c80632b3622d5146100525780638fd63dad1461004d578063bf63ace9146100485763c08841f00361006957610199565b61015a565b6100f9565b610094565b6001600160801b0381165b0361006957565b600080fd5b9050359061007b82610057565b565b90602082820312610069576100919161006e565b90565b34610069576100bf6100af6100aa36600461007d565b6101b5565b6040519182918290815260200190565b0390f35b80610062565b9050359061007b826100c3565b9190604083820312610069576100919060206100f2828661006e565b94016100c9565b34610069576100bf6100af61010f3660046100d6565b906101be565b6001600160a01b038116610062565b9050359061007b82610115565b90916060828403126100695761009161014a848461006e565b9360406100f28260208701610124565b34610069576100bf6100af610170366004610131565b916101c8565b919060408382031261006957610091906020610192828661006e565b9401610124565b34610069576100bf6100af6101af366004610176565b906101d3565b6100919061022d565b610091919061025d565b6100919291906102fe565b610091919061033c565b610091610091610091926001600160801b031690565b6102006100916100919290565b60ff1690565b61009160606101f3565b610091906102286102246100919460ff1690565b9190565b901b90565b6102426100919161023c600090565b506101dd565b61024a610206565b90610210565b6100916100916100919290565b9061026d6100919261023c600090565b61029261028261027b610206565b8093610210565b9161028d6001610250565b610210565b906103ad565b6102a56100916100919290565b6001600160a01b031690565b634e487b7160e01b600052601160045260246000fd5b6001600160a01b0390811691169003906001600160a01b0382116102e757565b6102b1565b6100919081906001600160a01b031681565b6103366103316100919493610311600090565b5061032b610242610325600160601b610298565b956101dd565b936102c7565b6102ec565b90610500565b9061034c6100919261023c600090565b61029261036f61036461035d610206565b8094610210565b9261028d6001610250565b926102ec565b634e487b7160e01b600052601260045260246000fd5b8115610395570490565b610375565b90815260408101929161007b9160200152565b91929190600090600019818409928181029384808210910303926103d16000610250565b84146104db57868410156104b357928661009196979361041f9361043296500980860395109003600161040c841961040883610250565b0190565b8416808095049604938060000304010290565b1791610432610436826104326003610250565b0290565b6104676104ad6104a761049861048961047a61046b60029761045789610250565b186104328b82026104678b610250565b0390565b6104328a82026104678a610250565b61043289820261046789610250565b61043288820261046788610250565b61043287820261046787610250565b80950290565b91610250565b86846104d76104c160405190565b631dcf306360e21b81529283926004840161039a565b0390fd5b5050505091610091919261038b565b1561006957565b60001981146102e75760010190565b91929161050e8483836103ad565b91829480156103955761052a916105256000610250565b930990565b116105325750565b9091506100919061054660001982106104ea565b6104f156fea264697066735822122077ae281200354e38d4d72f57889c562591bfd7d3f2eea2518eab2ab5b45d51ff64736f6c63430008180033","opcodes":"PUSH1 0x80 PUSH1 0x40 MSTORE CALLVALUE PUSH2 0x1A JUMPI PUSH1 0x40 MLOAD PUSH2 0x581 PUSH2 0x20 DUP3 CODECOPY PUSH2 0x581 SWAP1 RETURN JUMPDEST PUSH1 0x0 DUP1 REVERT INVALID PUSH1 0x80 PUSH1 0x40 MSTORE PUSH1 0x4 CALLDATASIZE LT ISZERO PUSH2 0x12 JUMPI PUSH1 0x0 DUP1 REVERT JUMPDEST PUSH1 0x0 CALLDATALOAD PUSH1 0xE0 SHR DUP1 PUSH4 0x2B3622D5 EQ PUSH2 0x52 JUMPI DUP1 PUSH4 0x8FD63DAD EQ PUSH2 0x4D JUMPI DUP1 PUSH4 0xBF63ACE9 EQ PUSH2 0x48 JUMPI PUSH4 0xC08841F0 SUB PUSH2 0x69 JUMPI PUSH2 0x199 JUMP JUMPDEST PUSH2 0x15A JUMP JUMPDEST PUSH2 0xF9 JUMP JUMPDEST PUSH2 0x94 JUMP JUMPDEST PUSH1 0x1 PUSH1 0x1 PUSH1 0x80 SHL SUB DUP2 AND JUMPDEST SUB PUSH2 0x69 JUMPI JUMP JUMPDEST PUSH1 0x0 DUP1 REVERT JUMPDEST SWAP1 POP CALLDATALOAD SWAP1 PUSH2 0x7B DUP3 PUSH2 0x57 JUMP JUMPDEST JUMP JUMPDEST SWAP1 PUSH1 0x20 DUP3 DUP3 SUB SLT PUSH2 0x69 JUMPI PUSH2 0x91 SWAP2 PUSH2 0x6E JUMP JUMPDEST SWAP1 JUMP JUMPDEST CALLVALUE PUSH2 0x69 JUMPI PUSH2 0xBF PUSH2 0xAF PUSH2 0xAA CALLDATASIZE PUSH1 0x4 PUSH2 0x7D JUMP JUMPDEST PUSH2 0x1B5 JUMP JUMPDEST PUSH1 0x40 MLOAD SWAP2 DUP3 SWAP2 DUP3 SWAP1 DUP2 MSTORE PUSH1 0x20 ADD SWAP1 JUMP JUMPDEST SUB SWAP1 RETURN JUMPDEST DUP1 PUSH2 0x62 JUMP JUMPDEST SWAP1 POP CALLDATALOAD SWAP1 PUSH2 0x7B DUP3 PUSH2 0xC3 JUMP JUMPDEST SWAP2 SWAP1 PUSH1 0x40 DUP4 DUP3 SUB SLT PUSH2 0x69 JUMPI PUSH2 0x91 SWAP1 PUSH1 0x20 PUSH2 0xF2 DUP3 DUP7 PUSH2 0x6E JUMP JUMPDEST SWAP5 ADD PUSH2 0xC9 JUMP JUMPDEST CALLVALUE PUSH2 0x69 JUMPI PUSH2 0xBF PUSH2 0xAF PUSH2 0x10F CALLDATASIZE PUSH1 0x4 PUSH2 0xD6 JUMP JUMPDEST SWAP1 PUSH2 0x1BE JUMP JUMPDEST PUSH1 0x1 PUSH1 0x1 PUSH1 0xA0 SHL SUB DUP2 AND PUSH2 0x62 JUMP JUMPDEST SWAP1 POP CALLDATALOAD SWAP1 PUSH2 0x7B DUP3 PUSH2 0x115 JUMP JUMPDEST SWAP1 SWAP2 PUSH1 0x60 DUP3 DUP5 SUB SLT PUSH2 0x69 JUMPI PUSH2 0x91 PUSH2 0x14A DUP5 DUP5 PUSH2 0x6E JUMP JUMPDEST SWAP4 PUSH1 0x40 PUSH2 0xF2 DUP3 PUSH1 0x20 DUP8 ADD PUSH2 0x124 JUMP JUMPDEST CALLVALUE PUSH2 0x69 JUMPI PUSH2 0xBF PUSH2 0xAF PUSH2 0x170 CALLDATASIZE PUSH1 0x4 PUSH2 0x131 JUMP JUMPDEST SWAP2 PUSH2 0x1C8 JUMP JUMPDEST SWAP2 SWAP1 PUSH1 0x40 DUP4 DUP3 SUB SLT PUSH2 0x69 JUMPI PUSH2 0x91 SWAP1 PUSH1 0x20 PUSH2 0x192 DUP3 DUP7 PUSH2 0x6E JUMP JUMPDEST SWAP5 ADD PUSH2 0x124 JUMP JUMPDEST CALLVALUE PUSH2 0x69 JUMPI PUSH2 0xBF PUSH2 0xAF PUSH2 0x1AF CALLDATASIZE PUSH1 0x4 PUSH2 0x176 JUMP JUMPDEST SWAP1 PUSH2 0x1D3 JUMP JUMPDEST PUSH2 0x91 SWAP1 PUSH2 0x22D JUMP JUMPDEST PUSH2 0x91 SWAP2 SWAP1 PUSH2 0x25D JUMP JUMPDEST PUSH2 0x91 SWAP3 SWAP2 SWAP1 PUSH2 0x2FE JUMP JUMPDEST PUSH2 0x91 SWAP2 SWAP1 PUSH2 0x33C JUMP JUMPDEST PUSH2 0x91 PUSH2 0x91 PUSH2 0x91 SWAP3 PUSH1 0x1 PUSH1 0x1 PUSH1 0x80 SHL SUB AND SWAP1 JUMP JUMPDEST PUSH2 0x200 PUSH2 0x91 PUSH2 0x91 SWAP3 SWAP1 JUMP JUMPDEST PUSH1 0xFF AND SWAP1 JUMP JUMPDEST PUSH2 0x91 PUSH1 0x60 PUSH2 0x1F3 JUMP JUMPDEST PUSH2 0x91 SWAP1 PUSH2 0x228 PUSH2 0x224 PUSH2 0x91 SWAP5 PUSH1 0xFF AND SWAP1 JUMP JUMPDEST SWAP2 SWAP1 JUMP JUMPDEST SWAP1 SHL SWAP1 JUMP JUMPDEST PUSH2 0x242 PUSH2 0x91 SWAP2 PUSH2 0x23C PUSH1 0x0 SWAP1 JUMP JUMPDEST POP PUSH2 0x1DD JUMP JUMPDEST PUSH2 0x24A PUSH2 0x206 JUMP JUMPDEST SWAP1 PUSH2 0x210 JUMP JUMPDEST PUSH2 0x91 PUSH2 0x91 PUSH2 0x91 SWAP3 SWAP1 JUMP JUMPDEST SWAP1 PUSH2 0x26D PUSH2 0x91 SWAP3 PUSH2 0x23C PUSH1 0x0 SWAP1 JUMP JUMPDEST PUSH2 0x292 PUSH2 0x282 PUSH2 0x27B PUSH2 0x206 JUMP JUMPDEST DUP1 SWAP4 PUSH2 0x210 JUMP JUMPDEST SWAP2 PUSH2 0x28D PUSH1 0x1 PUSH2 0x250 JUMP JUMPDEST PUSH2 0x210 JUMP JUMPDEST SWAP1 PUSH2 0x3AD JUMP JUMPDEST PUSH2 0x2A5 PUSH2 0x91 PUSH2 0x91 SWAP3 SWAP1 JUMP JUMPDEST PUSH1 0x1 PUSH1 0x1 PUSH1 0xA0 SHL SUB AND SWAP1 JUMP JUMPDEST PUSH4 0x4E487B71 PUSH1 0xE0 SHL PUSH1 0x0 MSTORE PUSH1 0x11 PUSH1 0x4 MSTORE PUSH1 0x24 PUSH1 0x0 REVERT JUMPDEST PUSH1 0x1 PUSH1 0x1 PUSH1 0xA0 SHL SUB SWAP1 DUP2 AND SWAP2 AND SWAP1 SUB SWAP1 PUSH1 0x1 PUSH1 0x1 PUSH1 0xA0 SHL SUB DUP3 GT PUSH2 0x2E7 JUMPI JUMP JUMPDEST PUSH2 0x2B1 JUMP JUMPDEST PUSH2 0x91 SWAP1 DUP2 SWAP1 PUSH1 0x1 PUSH1 0x1 PUSH1 0xA0 SHL SUB AND DUP2 JUMP JUMPDEST PUSH2 0x336 PUSH2 0x331 PUSH2 0x91 SWAP5 SWAP4 PUSH2 0x311 PUSH1 0x0 SWAP1 JUMP JUMPDEST POP PUSH2 0x32B PUSH2 0x242 PUSH2 0x325 PUSH1 0x1 PUSH1 0x60 SHL PUSH2 0x298 JUMP JUMPDEST SWAP6 PUSH2 0x1DD JUMP JUMPDEST SWAP4 PUSH2 0x2C7 JUMP JUMPDEST PUSH2 0x2EC JUMP JUMPDEST SWAP1 PUSH2 0x500 JUMP JUMPDEST SWAP1 PUSH2 0x34C PUSH2 0x91 SWAP3 PUSH2 0x23C PUSH1 0x0 SWAP1 JUMP JUMPDEST PUSH2 0x292 PUSH2 0x36F PUSH2 0x364 PUSH2 0x35D PUSH2 0x206 JUMP JUMPDEST DUP1 SWAP5 PUSH2 0x210 JUMP JUMPDEST SWAP3 PUSH2 0x28D PUSH1 0x1 PUSH2 0x250 JUMP JUMPDEST SWAP3 PUSH2 0x2EC JUMP JUMPDEST PUSH4 0x4E487B71 PUSH1 0xE0 SHL PUSH1 0x0 MSTORE PUSH1 0x12 PUSH1 0x4 MSTORE PUSH1 0x24 PUSH1 0x0 REVERT JUMPDEST DUP2 ISZERO PUSH2 0x395 JUMPI DIV SWAP1 JUMP JUMPDEST PUSH2 0x375 JUMP JUMPDEST SWAP1 DUP2 MSTORE PUSH1 0x40 DUP2 ADD SWAP3 SWAP2 PUSH2 0x7B SWAP2 PUSH1 0x20 ADD MSTORE JUMP JUMPDEST SWAP2 SWAP3 SWAP2 SWAP1 PUSH1 0x0 SWAP1 PUSH1 0x0 NOT DUP2 DUP5 MULMOD SWAP3 DUP2 DUP2 MUL SWAP4 DUP5 DUP1 DUP3 LT SWAP2 SUB SUB SWAP3 PUSH2 0x3D1 PUSH1 0x0 PUSH2 0x250 JUMP JUMPDEST DUP5 EQ PUSH2 0x4DB JUMPI DUP7 DUP5 LT ISZERO PUSH2 0x4B3 JUMPI SWAP3 DUP7 PUSH2 0x91 SWAP7 SWAP8 SWAP4 PUSH2 0x41F SWAP4 PUSH2 0x432 SWAP7 POP MULMOD DUP1 DUP7 SUB SWAP6 LT SWAP1 SUB PUSH1 0x1 PUSH2 0x40C DUP5 NOT PUSH2 0x408 DUP4 PUSH2 0x250 JUMP JUMPDEST ADD SWAP1 JUMP JUMPDEST DUP5 AND DUP1 DUP1 SWAP6 DIV SWAP7 DIV SWAP4 DUP1 PUSH1 0x0 SUB DIV ADD MUL SWAP1 JUMP JUMPDEST OR SWAP2 PUSH2 0x432 PUSH2 0x436 DUP3 PUSH2 0x432 PUSH1 0x3 PUSH2 0x250 JUMP JUMPDEST MUL SWAP1 JUMP JUMPDEST PUSH2 0x467 PUSH2 0x4AD PUSH2 0x4A7 PUSH2 0x498 PUSH2 0x489 PUSH2 0x47A PUSH2 0x46B PUSH1 0x2 SWAP8 PUSH2 0x457 DUP10 PUSH2 0x250 JUMP JUMPDEST XOR PUSH2 0x432 DUP12 DUP3 MUL PUSH2 0x467 DUP12 PUSH2 0x250 JUMP JUMPDEST SUB SWAP1 JUMP JUMPDEST PUSH2 0x432 DUP11 DUP3 MUL PUSH2 0x467 DUP11 PUSH2 0x250 JUMP JUMPDEST PUSH2 0x432 DUP10 DUP3 MUL PUSH2 0x467 DUP10 PUSH2 0x250 JUMP JUMPDEST PUSH2 0x432 DUP9 DUP3 MUL PUSH2 0x467 DUP9 PUSH2 0x250 JUMP JUMPDEST PUSH2 0x432 DUP8 DUP3 MUL PUSH2 0x467 DUP8 PUSH2 0x250 JUMP JUMPDEST DUP1 SWAP6 MUL SWAP1 JUMP JUMPDEST SWAP2 PUSH2 0x250 JUMP JUMPDEST DUP7 DUP5 PUSH2 0x4D7 PUSH2 0x4C1 PUSH1 0x40 MLOAD SWAP1 JUMP JUMPDEST PUSH4 0x1DCF3063 PUSH1 0xE2 SHL DUP2 MSTORE SWAP3 DUP4 SWAP3 PUSH1 0x4 DUP5 ADD PUSH2 0x39A JUMP JUMPDEST SUB SWAP1 REVERT JUMPDEST POP POP POP POP SWAP2 PUSH2 0x91 SWAP2 SWAP3 PUSH2 0x38B JUMP JUMPDEST ISZERO PUSH2 0x69 JUMPI JUMP JUMPDEST PUSH1 0x0 NOT DUP2 EQ PUSH2 0x2E7 JUMPI PUSH1 0x1 ADD SWAP1 JUMP JUMPDEST SWAP2 SWAP3 SWAP2 PUSH2 0x50E DUP5 DUP4 DUP4 PUSH2 0x3AD JUMP JUMPDEST SWAP2 DUP3 SWAP5 DUP1 ISZERO PUSH2 0x395 JUMPI PUSH2 0x52A SWAP2 PUSH2 0x525 PUSH1 0x0 PUSH2 0x250 JUMP JUMPDEST SWAP4 MULMOD SWAP1 JUMP JUMPDEST GT PUSH2 0x532 JUMPI POP JUMP JUMPDEST SWAP1 SWAP2 POP PUSH2 0x91 SWAP1 PUSH2 0x546 PUSH1 0x0 NOT DUP3 LT PUSH2 0x4EA JUMP JUMPDEST PUSH2 0x4F1 JUMP INVALID LOG2 PUSH5 0x6970667358 0x22 SLT KECCAK256 PUSH24 0xAE281200354E38D4D72F57889C562591BFD7D3F2EEA2518E 0xAB 0x2A 0xB5 0xB4 TSTORE MLOAD SELFDESTRUCT PUSH5 0x736F6C6343 STOP ADDMOD XOR STOP CALLER "},"methodIdentifiers":{"calcAmount0Active(uint128,uint160,uint256)":"bf63ace9","calcAmount0Inactive(uint128,uint256)":"8fd63dad","calcAmount1Active(uint128,uint160)":"c08841f0","calcAmount1Inactive(uint128)":"2b3622d5"}}}}}