{"contracts/JoeSwapPool.sol":{"JoeSwapPool":{"abi":[{"inputs":[{"internalType":"address","name":"token0_","type":"address"},{"internalType":"address","name":"token1_","type":"address"},{"internalType":"uint256","name":"_pi","type":"uint256"},{"internalType":"int32","name":"_bin","type":"int32"}],"stateMutability":"nonpayable","type":"constructor"},{"inputs":[],"name":"Invalidbinposition","type":"error"},{"inputs":[],"name":"LiquidityNotEnough","type":"error"},{"inputs":[{"internalType":"uint256","name":"prod1","type":"uint256"},{"internalType":"uint256","name":"denominator","type":"uint256"}],"name":"PRBMath__MulDivOverflow","type":"error"},{"inputs":[],"name":"ZeroLiquidity","type":"error"},{"inputs":[],"name":"composition","outputs":[{"internalType":"uint160","name":"","type":"uint160"}],"stateMutability":"view","type":"function"},{"inputs":[],"name":"liquidity","outputs":[{"internalType":"uint128","name":"","type":"uint128"}],"stateMutability":"view","type":"function"},{"inputs":[{"internalType":"address","name":"owner","type":"address"},{"internalType":"int32","name":"target_bin","type":"int32"},{"internalType":"uint128","name":"amount","type":"uint128"},{"internalType":"bytes","name":"data","type":"bytes"}],"name":"mint","outputs":[{"internalType":"uint256","name":"amount0","type":"uint256"},{"internalType":"uint256","name":"amount1","type":"uint256"}],"stateMutability":"nonpayable","type":"function"},{"inputs":[{"internalType":"address","name":"operator","type":"address"},{"internalType":"address","name":"from","type":"address"},{"internalType":"uint256[]","name":"ids","type":"uint256[]"},{"internalType":"uint256[]","name":"values","type":"uint256[]"},{"internalType":"bytes","name":"data","type":"bytes"}],"name":"onERC1155BatchReceived","outputs":[{"internalType":"bytes4","name":"","type":"bytes4"}],"stateMutability":"nonpayable","type":"function"},{"inputs":[{"internalType":"address","name":"operator","type":"address"},{"internalType":"address","name":"from","type":"address"},{"internalType":"uint256","name":"id","type":"uint256"},{"internalType":"uint256","name":"value","type":"uint256"},{"internalType":"bytes","name":"data","type":"bytes"}],"name":"onERC1155Received","outputs":[{"internalType":"bytes4","name":"","type":"bytes4"}],"stateMutability":"nonpayable","type":"function"},{"inputs":[],"name":"slot","outputs":[{"internalType":"uint256","name":"pi","type":"uint256"},{"internalType":"int32","name":"bin","type":"int32"}],"stateMutability":"view","type":"function"},{"inputs":[{"internalType":"address","name":"recipient","type":"address"},{"internalType":"uint256","name":"expectedAmount","type":"uint256"},{"internalType":"uint256","name":"limitPrice","type":"uint256"},{"internalType":"bool","name":"zeroforone","type":"bool"},{"internalType":"bytes","name":"data","type":"bytes"}],"name":"swap","outputs":[{"internalType":"uint256","name":"amount0","type":"uint256"},{"internalType":"uint256","name":"amount1","type":"uint256"}],"stateMutability":"nonpayable","type":"function"},{"inputs":[],"name":"token0","outputs":[{"internalType":"address","name":"","type":"address"}],"stateMutability":"view","type":"function"},{"inputs":[],"name":"token1","outputs":[{"internalType":"address","name":"","type":"address"}],"stateMutability":"view","type":"function"}],"evm":{"bytecode":{"linkReferences":{},"object":"60c060405234620000455762000022620000186200013b565b9291909162000232565b6040516130d46200026882396080518160e1015260a051816104d601526130d490f35b600080fd5b634e487b7160e01b600052604160045260246000fd5b90601f01601f191681019081106001600160401b038211176200008257604052565b6200004a565b906200009f6200009760405190565b928362000060565b565b90565b6001600160a01b0381165b036200004557565b905051906200009f82620000a4565b80620000af565b905051906200009f82620000c6565b620000af8160030b90565b905051906200009f82620000dc565b60808183031262000045576200010d8282620000b7565b92620000a1620001218460208501620000b7565b936060620001338260408701620000cd565b9401620000e7565b6200015e6200333c80380380620001528162000088565b928339810190620000f6565b90919293565b620000a1604062000088565b90600019905b9181191691161790565b620000a1620000a1620000a19290565b90620001a4620000a1620001ac9262000180565b825462000170565b9055565b9063ffffffff9062000176565b620001d0620000a1620000a19260030b90565b60030b90565b90620001ea620000a1620001ac92620001bd565b8254620001b0565b60016200021e60206200009f94620002166200020f600083015190565b8662000190565b015160030b90565b9101620001d6565b906200009f91620001f2565b60805260a0526200009f916200025f90620002556200025062000164565b938452565b60030b6020830152565b60006200022656fe6080604052600436101561001257600080fd5b60003560e01c80630dfe1681146100a25780631a6865021461009d5780631a88bc66146100985780632ead224d1461009357806356b4b80d1461008e578063bc197c8114610089578063d21220a714610084578063d456b5dd1461007f5763f23a6e61036100b257610581565b610525565b6104c1565b610481565b6103ad565b6102f5565b6101d5565b61014b565b6100cc565b60009103126100b257565b600080fd5b6001600160a01b031690565b90565b9052565b565b346100b2576100dc3660046100a7565b61011b7f00000000000000000000000000000000000000000000000000000000000000005b604051918291826001600160a01b03909116815260200190565b0390f35b6100c3916008021c5b6001600160801b031690565b906100c3915461011f565b6100c360006005610134565b346100b25761015b3660046100a7565b61011b61016661013f565b604051918291826001600160801b03909116815260200190565b6100c39081565b6100c39054610180565b6100c3905b60030b90565b6100c39054610191565b6101b06000610187565b906100c3600161019c565b9081526040810192916100ca916020905b019060030b9052565b346100b2576101e53660046100a7565b6101ed6101a6565b9061011b6101fa60405190565b928392836101bb565b6001600160a01b0381165b036100b257565b905035906100ca82610203565b8061020e565b905035906100ca82610222565b80151561020e565b905035906100ca82610235565b909182601f830112156100b25781359167ffffffffffffffff83116100b25760200192600183028401116100b257565b91909160a0818403126100b2576102918382610215565b9261029f8160208401610228565b926102ad8260408501610228565b926102bb836060830161023d565b92608082013567ffffffffffffffff81116100b2576102da920161024a565b9091565b9081526040810192916100ca9160200152565b0152565b346100b25761031461030836600461027a565b94939093929192610e4c565b9061011b61032160405190565b928392836102de565b61020e8160030b90565b905035906100ca8261032a565b6001600160801b03811661020e565b905035906100ca82610341565b906080828203126100b2576103728183610215565b926103808260208501610334565b9261038e8360408301610350565b92606082013567ffffffffffffffff81116100b2576102da920161024a565b346100b2576103146103c036600461035d565b939290926116d5565b909182601f830112156100b25781359167ffffffffffffffff83116100b25760200192602083028401116100b257565b9160a0838303126100b25761040e8284610215565b9261041c8360208301610215565b92604082013567ffffffffffffffff81116100b2578161043d9184016103c9565b929093606082013567ffffffffffffffff81116100b257836104609184016103c9565b929093608082013567ffffffffffffffff81116100b2576102da920161024a565b346100b25761011b6104a66104973660046103f9565b96959095949194939293611963565b604051918291826001600160e01b0319909116815260200190565b346100b2576104d13660046100a7565b61011b7f0000000000000000000000000000000000000000000000000000000000000000610101565b6100c3916008021c6001600160a01b031690565b906100c391546104fa565b6100c36000600661050e565b346100b2576105353660046100a7565b61011b610101610519565b91909160a0818403126100b2576105578382610215565b926105658160208401610215565b926105738260408501610228565b926102bb8360608301610228565b346100b25761011b6104a6610597366004610540565b9493909392919261197f565b634e487b7160e01b600052604160045260246000fd5b90601f01601f1916810190811067ffffffffffffffff8211176105db57604052565b6105a3565b906100ca6105ed60405190565b92836105b9565b6100c360406105e0565b906100ca610626600161060f6105f4565b9461062061061c82610187565b8752565b0161019c565b60030b6020840152565b6100c3906105fe565b6100c390610128565b6100c39054610639565b6100c36100c36100c39290565b6100c373fffd8963efd1fc6a506488495d951d5263988d2661064c565b6100c36401000276a361064c565b0190565b1561068f57565b60405162461bcd60e51b8152602060048201526013602482015272496e76616c6964204c696d697450726963652160681b6044820152606490fd5b0390fd5b6100c360a06105e0565b67ffffffffffffffff81116105db57602090601f01601f19160190565b90610707610702836106d8565b6105e0565b918252565b61071660336106f5565b7f20202020202020202020205b44454255475d3a202a2a2a2a2a2a2a2a2a2a2a2a60208201527215103937bab73210151515151515151515151560691b604082015290565b6100c361070c565b6101966100c36100c39260030b90565b9061077d90610763565b600052602052604060002090565b6100c3905b60ff1690565b6100c3905461078b565b6100c360c06105e0565b6107b26107a0565b906000825260208080808080870160008152016000815201600081520160008152016000905250565b6100c36107aa565b6107ed60336106f5565b7f20202020202020202020205b44454255475d3a202a2a2a2a2a2a2a2a207365616020820152723931b41032bc32b1baba32901515151515151560691b604082015290565b6100c36107e3565b6100c36100c36100c39260030b90565b61085460136106f5565b7210101010101010101010102da222a12aa3ae9d60691b602082015290565b6100c361084a565b6101966100c36100c39290565b634e487b7160e01b600052601160045260246000fd5b6108ad9060030b5b9160030b90565b900390637fffffff198212637fffffff8313176108c657565b610888565b6108db6100c36100c39260030b90565b60020b90565b6108eb60346106f5565b7f20202020202020202020205b44454255475d3a204e6f7420537572653a207072602082015273696365506f696e743e3d6c696d6974507269636560601b604082015290565b6100c36108e1565b61094360306106f5565b7f20202020202020202020205b44454255475d3a20537572653a2070726963655060208201526f6f696e743d3d6c696d6974507269636560801b604082015290565b6100c3610939565b610997602f6106f5565b7f20202020202020202020205b44454255475d3a20537572653a2070726963655060208201526e6f696e743e6c696d6974507269636560881b604082015290565b6100c361098d565b6109ea601e6106f5565b7f20202020202020202020205b44454255475d3a206e65787442696e203d200000602082015290565b6100c36109e0565b610a2560256106f5565b7f20202020202020202020205b44454255475d3a206e6578745072696365506f696020820152640373a101e960dd1b604082015290565b6100c3610a1b565b610a6e60336106f5565b7f20202020202020202020205b44454255475d3a204e6f7420537572653a207072602082015272696365506f696e743c6c696d6974507269636560681b604082015290565b6100c3610a64565b610ac5602f6106f5565b7f20202020202020202020205b44454255475d3a20537572653a2070726963655060208201526e6f696e743c6c696d6974507269636560881b604082015290565b6100c3610abb565b610b1860346106f5565b7f20202020202020202020205b44454255475d3a202a2a2a2a2a2a2a2a2a206f756020820152733a1037b31039b2b0b931b410151515151515151560611b604082015290565b6100c3610b0e565b6107906100c36100c39290565b6100c36060610b66565b6100c390610b95610b916100c39460ff1690565b9190565b901c90565b6100c3906100b7565b6100c39054610b9a565b906001600160a01b03905b9181191691161790565b6100c3906100b7906001600160a01b031682565b90610be66100c3610bed92610bc2565b8254610bad565b9055565b6100c39060081c610128565b6100c39054610bf1565b919082039182116108c657565b919082018092116108c657565b610c2b604e6106f5565b7f20202020202020202020205b44454255475d3a206578706563746564416d6f7560208201527f6e74207c2073746174652e616d6f756e744265656e4f7574207c20737461746560408201526d01730b6b7bab73a2132b2b724b7160951b606082015290565b6100c3610c21565b610ca3601f6106f5565b7f20202020202020202020205b44454255475d3a2073746174652e7069203d2000602082015290565b6100c3610c99565b610cde600e6106f5565b6d031b7b6b837b9b4ba34b7b7101e960951b602082015290565b6100c3610cd4565b6100c39081906001600160a01b031681565b610d1c60336106f5565b7f20202020202020202020205b44454255475d3a202a2a2a2a2a2a2a2a2a206f756020820152723a1037b3103937bab73210151515151515151560691b604082015290565b6100c3610d12565b906001600160801b0390610bb8565b6101286100c36100c3926001600160801b031690565b90610d9e6100c3610bed92610d78565b8254610d69565b9063ffffffff90610bb8565b90610dc16100c3610bed92610763565b8254610da5565b9060001990610bb8565b90610de26100c3610bed9261064c565b8254610dc8565b610df3601e6106f5565b7f20202020202020202020205b44454255475d3a20616d6f756e7430203d200000602082015290565b6100c3610de9565b610e2e600a6106f5565b69030b6b7bab73a18901e960b51b602082015290565b6100c3610e24565b509350939150610e5a600090565b50610e656000610630565b91610edd610e736005610642565b831561157d57610e846100c3865190565b871080611564575b610e9590610688565b610ecd610eb16000610eab602089015160030b90565b97015190565b610ec6610ebc6106ce565b97889060030b9052565b6020870152565b6001600160801b03166040850152565b610ee7600061064c565b610ef2816060860152565b610efd816080860152565b80851180611543575b1561153857610f13611999565b610f23610f1e61075b565b611a2d565b610f4a610f466000610f40610f39885160030b90565b6002610773565b01610796565b1590565b61148057610f566107db565b94610f6561061c602087015190565b8551855160030b9060008615611345575b888a8310611327575050610f8b610f1e610832565b610fac610f9f610f9a8461083a565b61064c565b610fa7610873565b611a7b565b610fb881610fa7610873565b8188610fd2886004610fca600161087b565b968791611b5d565b908c82966280000091610ffd610ff8610ff3610fed8661087b565b8761089e565b6108cb565b611dd7565b9461101561100d610f9a8761083a565b610fa7610a13565b61102186610fa7610a5c565b1561126c57915061102f9050565b82101561122c5750506110f29361106e61117a946110676111dc989560206110779661105c610f1e610b06565b6101cc610f1e610b5e565b60408d0152565b151560608b0152565b87878a611082815190565b6110f96110eb6110da8761109e611097610b73565b8096610b7d565b9660408901976110b589516001600160801b031690565b6110bf6006610ba3565b906110d4896110cf60408d015190565b610b7d565b926124f7565b60a0880152608087019b9293908c52565b6006610bd6565b6020860152565b611119610b916100c361110d602088015190565b936110cf604087015190565b0361121957600061115c610f398261116f9661114b61115360208861114b61114560406111629c015190565b83870152565b015160030b90565b60030b82840152565b01610bfd565b6001600160801b03169052565b60a089015190610c07565b906111ce6111c96111b161119060a0869c015190565b936111ad6111a960608d01966111a4885190565b610c14565b8652565b5190565b926111ad6111c560808c01956111a4875190565b8552565b915190565b916111d7610c91565b612623565b6112146111ea602086015190565b6111f46006610ba3565b6111fc610ccc565b9161120e611208610cf8565b92610d00565b9261268c565b610efd565b5160208b0152506112279050565b61116f565b91935091508a8203611263576110f29361106e61117a946110676111dc989560206110779661125c610f1e610985565b919361105c565b92909150610f76565b9496929591949093106112f85750508261128c6000610f40836002610773565b156112c95750506110f29361106e61117a946110676111dc989560206112c3610ff8610ff36112bd6110779a61087b565b8561089e565b9361105c565b610ff8929594506112f29350610ff3916112e29161089e565b6112ec819661087b565b9061089e565b90610f76565b6111dc97945061107793506110f29692509061106761106e92602061117a98611322610f1e610ab3565b61105c565b6111dc949161106e61117a946110676110f29760206110779661105c565b9188925b8a8311611462575061135c610f1e610832565b61136b610f9f610f9a8361083a565b61137782610fa7610873565b61138e87600483611388600161087b565b91611b5d565b8094916113ac610ff8610ff36113a66280000061087b565b8461089e565b911561141d578c8211156113e05750506110f29361106e61117a946110676111dc9895602061107796611322610f1e6109d8565b91935091508a8203611410576110f29361106e61117a946110676111dc989560206110779661125c610f1e610985565b929091505b918892611349565b92909493916114298d90565b86101561143a575050509190611415565b6110f295506111dc9693506110779261106761117a9693602061106e94611322610f1e610931565b6110779061106e61117a946110676111dc989560206110f29961105c565b5092509092505b61148f611999565b61149a610f1e610d61565b6114e96114e2602085016114af6111ea825190565b6114cd6114c660408801516001600160801b031690565b6005610d8e565b6111ad6114db875160030b90565b6001610db1565b6000610dd2565b156115225761150460606114fe608085015190565b93015190565b905b6100ca8284611513610e1c565b9061151c610e44565b9161268c565b61153260806114fe606085015190565b90611506565b509250909250611487565b508215611557576020840151861115610f06565b6020840151861015610f06565b50610e956115736100c3610676565b8810159050610e8c565b6115886100c3865190565b87118061159857610e9590610688565b50610e956115a76100c3610659565b8811159050610e8c565b6100c3628d89e861087b565b6100c36272761861087b565b6101286100c36100c39290565b6100c3906115ea610b916100c39460ff1690565b901b90565b6100b76100c36100c39290565b61160b9060ff165b9160ff1690565b90039060ff82116108c657565b611633906001600160801b03165b916001600160801b031690565b01906001600160801b0382116108c657565b6100c390610bc2565b6100c390611645565b90826000939282370152565b91906116818161167a816106849560209181520190565b8095611657565b601f01601f191690565b9093916100c395936116b56116bc926116ae6080860198600087019060030b9052565b6020850152565b6040830152565b6060818503910152611663565b6040513d6000823e3d90fd5b9394929060009586936116e96101966115b1565b6116f38460030b90565b138015611947575b6119355760009461170b866115c9565b6001600160801b03831614611923576117266001870161019c565b98611742610ff8610ff361173c6280000061087b565b8861089e565b9961174d8160030b90565b6117578760030b90565b036118bf5750505061176e85610f40856002610773565b1561186a576117cf906117ca8461179b61179461178b6006610ba3565b9c5b8d86612723565b9b8461275b565b996117b26114c6856117ad6005610642565b611618565b6117be848360026127e1565b611850575b6003612924565b61296e565b6117e06117db3361164e565b61164e565b803b156100b257878580946118138a956117f960405190565b9889978896879563196d73b760e21b87526004870161168b565b03925af1801561184b57611825575050565b816100ca92903d10611844575b61183c81836105b9565b8101906100a7565b503d611832565b6116c9565b61186561185d600161087b565b83600461289c565b6117c3565b6117cf906117ca8461179b6117946118ba9c6118b16118ac61189d61188d610b73565b6118976001610b66565b906115fc565b6118a7600161064c565b6115d6565b6115ef565b9d8e6006610bd6565b61178d565b9899919860030b6118d08660030b90565b13156118f95750906117ca846118f36117cf946118ec8a6115ef565b50846126ed565b9a6117b2565b989750506117cf9061190f6118ac61189d610b73565b506117ca8461191d836126d0565b996117b2565b604051630200e8a960e31b8152600490fd5b604051633944550f60e21b8152600490fd5b506119536101966115bd565b61195d8460030b90565b126116fb565b5050505050505050611973600090565b5063bc197c8160e01b90565b50505050505061198d600090565b5063f23a6e6160e01b90565b6100ca6119a560405190565b6351973ec960e01b60208201526119ca81602481015b602082018103825203826105b9565b612985565b60005b8381106119e25750506000910152565b81810151838201526020016119d2565b611a1361168160209361068493611a07815190565b80835293849260200190565b958691016119cf565b60208082526100c3929101906119f2565b6119bb6119ca6100ca92611a4060405190565b63104c13eb60e21b602082015292839160248301611a1c565b92916020611a766100ca93604087019087820360008901526119f2565b940152565b906119ca6100ca926119bb611a8f60405190565b632d839cb360e21b602082015293849260248401611a59565b634e487b7160e01b600052601260045260246000fd5b611aca9060030b6108a6565b908115611ae757637fffffff1981146000198314166108c6570590565b611aa8565b611af89060030b6108a6565b0190637fffffff8213637fffffff198312176108c657565b611b206100c36100c39260ff1690565b63ffffffff1690565b6101966100c36100c39263ffffffff1690565b611b489060030b6108a6565b0290611b548260030b90565b9182036108c657565b92919081611b7391611b6d600090565b50611abe565b9115611c0857611bad92611bb2611b89846129cf565b9590611ba7611b98600161064c565b611ba289826115d6565b610c07565b93610773565b610187565b1692611bbe600061064c565b841480159490611bf457926112ec611be7611be2611bec94611897611bf198612c8b565b611b10565b611b29565b611b3c565b91565b50611bf1926112ec611be7611bec93611b10565b611bad600193611c4a611c2b611c26611c208861087b565b87611aec565b6129cf565b9390611ba7611c46611c3c8a61064c565b611ba288826115d6565b1990565b1690611c56600061064c565b821480159590611c9257611be7611be2611bec9493611c8d611c87611bf199611c81611c819761087b565b90611aec565b95612a43565b6115fc565b611bec9250611be7611be2611cb0611bf197611c81611c819561087b565b9360ff6115fc565b6108db6100c36100c39290565b6100c36100c36100c39260020b90565b600160ff1b81146108c65760000390565b6100c3620d89e719611cb8565b60020b627fffff1981146108c65760000390565b6100c3611d12611ce6565b611cf3565b611d276100c36100c39260020b90565b62ffffff1690565b6100c36100c36100c39262ffffff1690565b15611d4857565b60405162461bcd60e51b81526020600482015260016024820152601560fa1b6044820152606490fd5b611d7e6100c36100c39290565b6001600160881b031690565b6100c36100c36100c3926001600160881b031690565b818102929181159184041417156108c657565b8115611ae7570490565b8115611ae7570690565b6100c36100c36100c39260ff1690565b61215161214b61213b6100c393611dec600090565b506000611df881611cb8565b611e028360020b90565b121561249357611e1c610f9a611e1784611cc5565b611cd5565b915b611e44611e3c6100c3611e37611e32611d07565b611d17565b611d2f565b841115611d41565b611e4e600161064c565b8316611e5c610b918461064c565b1461248357611e82611e7d6ffffcb933bd6fad37aa2d162d1a594001611d71565b611d8a565b92611e8d600261064c565b8116611e9b610b918561064c565b0361245c575b611eab600461064c565b8116611eb9610b918561064c565b03612435575b611ec9600861064c565b8116611ed7610b918561064c565b0361240e575b611ee7601061064c565b8116611ef5610b918561064c565b036123e7575b611f05602061064c565b8116611f13610b918561064c565b036123c0575b611f23604061064c565b8116611f31610b918561064c565b0361238f575b608090611f438261064c565b8116611f51610b918661064c565b03612368575b611f6261010061064c565b8116611f70610b918661064c565b03612341575b611f8161020061064c565b8116611f8f610b918661064c565b0361231a575b611fa061040061064c565b8116611fae610b918661064c565b036122f3575b611fbf61080061064c565b8116611fcd610b918661064c565b036122cc575b611fde61100061064c565b8116611fec610b918661064c565b036122a5575b611ffd61200061064c565b811661200b610b918661064c565b0361227e575b61201c61400061064c565b811661202a610b918661064c565b03612257575b61203b61800061064c565b8116612049610b918661064c565b03612230575b61205b6201000061064c565b8116612069610b918661064c565b03612209575b61207b6202000061064c565b8116612089610b918661064c565b036121e3575b61209b6204000061064c565b81166120a9610b918661064c565b036121b5575b6120bb6208000061064c565b166120c8610b918561064c565b03612182575b506120e26120db83611cb8565b9160020b90565b1361216f575b6121136120fe6120f86020610b66565b84610b7d565b9261210d64010000000061064c565b90611dbd565b61211f610b918361064c565b036121615761213061213591610b66565b611dc7565b90610c14565b6121456050610b66565b90610b7d565b80611da0565b61215b6040610b66565b906115d6565b506121356121306001610b66565b9061217c90600019611db3565b906120e8565b6121456121a86121ae93956121a26b091f7dc42448a170344e8fa261064c565b90611da0565b91610b66565b91386120ce565b936121d46121dd916121a26d2216e584f5fa1ea926041bedfe9861064c565b61214583610b66565b936120af565b936121d4612203916121a26e5d6af8dedb81196699c329225ee60461064c565b9361208f565b936121d461222a916121a26f09aa508b5b7a84e1c677de54f3e99bc961064c565b9361206f565b936121d4612251916121a26f31be135f97d08fd981231505542fcfa661064c565b9361204f565b936121d4612278916121a26f70d869a156d2a1b890bb3df62baf32f761064c565b93612030565b936121d461229f916121a26fa9f746462d870fdf8a65dc1f90e061e561064c565b93612011565b936121d46122c6916121a26fd097f3bdfd2022b8845ad8f792aa582561064c565b93611ff2565b936121d46122ed916121a26fe7159475a2c29b7443b29c7fa6e889d961064c565b93611fd3565b936121d4612314916121a26ff3392b0822b70005940c7a398e4b70f361064c565b93611fb4565b936121d461233b916121a26ff987a7253ac413176f2b074cf7815e5461064c565b93611f95565b936121d4612362916121a26ffcbe86c7900a88aedcffc83b479aa3a461064c565b93611f76565b936121d4612389916121a26ffe5dee046a99a2a811c461f1969c305361064c565b93611f57565b926123b06123ba916121a26fff2ea16466c96a3843ec78b326b5286161064c565b6121456080610b66565b92611f37565b926123b06123e1916121a26fff973b41fa98c081472e6896dfb254c061064c565b92611f19565b926123b0612408916121a26fffcb9843d60f6159c9db58835c92664461064c565b92611efb565b926123b061242f916121a26fffe5caca7e10e4e61c3624eaa0941cd061064c565b92611edd565b926123b0612456916121a26ffff2e50f5f656932ef12357cf3c7fdcc61064c565b92611ebf565b926123b061247d916121a26ffff97272373d413259a46990580e213a61064c565b92611ea1565b611e82611e7d600160801b611d71565b61249f610f9a83611cc5565b91611e1e565b6124c0906001600160a01b03165b916001600160a01b031690565b9003906001600160a01b0382116108c657565b6124e5906001600160a01b03166124b3565b01906001600160a01b0382116108c657565b94919360009381156125e55761250d868461275b565b8410156125785750859083945060001461255a57612550906125326125569484612e9d565b9261254a846125456118ac61189d610b73565b6124a5565b90612e0f565b936124a5565b9293565b61256b612556938361257293612e62565b809261275b565b936124d3565b959250909392506000146125b6576125ac91906125a6906125a083612545600160601b6115ef565b85612e0f565b9261275b565b61255660016115ef565b816125d56125cf6125db946125456118ac61189d610b73565b8561275b565b93612e0f565b61255660006115ef565b6125f0878785612e0f565b61250d565b6102f16100ca946116b561261b60609599989699608086019086820360008801526119f2565b986020850152565b6119bb6100ca946119ca939461263860405190565b63a7a8785360e01b6020820152958694602486016125f5565b949391611a76906100ca9461267f61267760609560808b01908b820360008d01526119f2565b9260208a0152565b87820360408901526119f2565b6119bb6100ca946119ca93946126a160405190565b63c67ea9d160e01b602082015295869460248601612651565b6100c36100c36100c3926001600160801b031690565b6126e56100c3916126df600090565b506126ba565b61215b610b73565b906126fd6100c3926126df600090565b61271d61271261270b610b73565b80936115d6565b916118a7600161064c565b90612ec7565b6127556127506100c39493612736600090565b506125506126e561274a600160601b6115ef565b956126ba565b610d00565b9061300b565b9061276b6100c3926126df600090565b61271d61120861278361277c610b73565b80946115d6565b926118a7600161064c565b9060ff90610bb8565b906127a76100c3610bed92151590565b825461278e565b9070ffffffffffffffffffffffffffffffff009060081b610bb8565b906127da6100c3610bed92610d78565b82546127ae565b6100c36100ca926127fd929594956127f7600090565b50610773565b9261280784610bfd565b6000948591612818611626846115c9565b1461286c575b019361286461285e61283961283288610bfd565b9485611618565b9361285a611626612849866115c9565b6001600160801b03881614956115c9565b1490565b91151590565b1415936127ca565b6128796001838301612797565b61281e565b61288a9060030b6108a6565b908115611ae7570790565b156100b257565b906128d76128ca6128dd92611c266128b76100ca978361287e565b6128c46108a6600061087b565b14612895565b6118a7600193929361064c565b92610773565b906128e782610187565b1890610dd2565b6100c6906001600160a01b031660601b90565b60148161291461068493600496956128ee565b01809260e01b9052565b9061077d565b6129496129556100c3946100c39461293b60405190565b938492602084019283612901565b908103825203826105b9565b612967612960825190565b9160200190565b209061291e565b6100ca9161297f906117ad83610642565b90610d8e565b6100ca90600161308e565b610196906129a46108a66100c39460ff1690565b901d90565b6129b96100c36100c39260030b90565b60000b90565b6107906100c36100c39260000b90565b906100c3612a036129fe6129ec6129e66008610b66565b86612990565b946129f861010061087b565b9061287e565b6129a9565b6129bf565b6100c36100c36100c39267ffffffffffffffff1690565b6100c36100c36100c39263ffffffff1690565b6100c36100c36100c39261ffff1690565b906000612a5a612a528261064c565b845b11612895565b612a6460ff610b66565b80612a756001600160801b036126ba565b8516612a83610b918561064c565b1115612c5d5750612a98906118976080610b66565b612aa967ffffffffffffffff612a08565b8416612ab7610b918461064c565b1115612c4857612acb906118976040610b66565b612ad863ffffffff612a1f565b8416612ae6610b918461064c565b1115612c3357612afa906118976020610b66565b612b0561ffff612a32565b8416612b13610b918461064c565b1115612c1e57612b27906118976010610b66565b612b3160ff611dc7565b8416612b3f610b918461064c565b1115612c0957612b53906118976008610b66565b612b5d600f61064c565b8416612b6b610b918461064c565b1115612bf457612b7f906118976004610b66565b612b89600361064c565b8416612b97610b918461064c565b1115612bda57610b91612bb1612bc4926118976002610b66565b945b612bbd600161064c565b169261064c565b11612bcb57565b906100c3906118976001610b66565b92610b91612bef612bc4926121456002610b66565b612bb3565b92612c03906121456004610b66565b92612b7f565b92612c18906121456008610b66565b92612b53565b92612c2d906121456010610b66565b92612b27565b92612c42906121456020610b66565b92612afa565b92612c57906121456040610b66565b92612acb565b93612c6d91506121456080610b66565b92612a98565b612c7f9060ff16611604565b019060ff82116108c657565b9060009182612ca3612c9d600061064c565b83612a54565b612cb0600160801b61064c565b821015612df5575b50612ccb6801000000000000000061064c565b811015612dde575b612ce164010000000061064c565b811015612dc7575b612cf56201000061064c565b811015612db0575b612d0861010061064c565b811015612d99575b612d1a601061064c565b811015612d82575b612d2c600461064c565b811015612d5e575b612d41610b91600261064c565b1015612d4957565b906100c390612d586001610b66565b90612c73565b612d7c90612d76612d6f6002610b66565b8092610b7d565b93612c73565b91612d34565b612d9390612d76612d6f6004610b66565b91612d22565b612daa90612d76612d6f6008610b66565b91612d10565b612dc190612d76612d6f6010610b66565b91612cfd565b612dd890612d76612d6f6020610b66565b91612ce9565b612def90612d76612d6f6040610b66565b91612cd3565b9250612e0890612d76612d6f6080610b66565b9138612cb8565b6127556112086100c39493612e22600090565b50612e48612e3661274a600160601b6115ef565b91612e4261277c610b73565b956124a5565b946115d6565b610128906115ea6116266100c39460ff1690565b906100c392612e97612e926118ac94612e79600090565b50612e8c612e85610b73565b80926115d6565b94612e4e565b6126ba565b9161300b565b6100c3916118ac91612e97612e92612eb3610b73565b612ec1816118a7600161064c565b93612e4e565b9192919060009060001981840992818102938480821091030392612eeb600061064c565b8414612fed5786841015612fc95792866100c3969793612f3593612f48965009808603951090036001612f2284196106848361064c565b8416808095049604938060000304010290565b1791612f48612f4c82612f48600361064c565b0290565b612f7d612fc3612fbd612fae612f9f612f90612f81600297612f6d8961064c565b18612f488b8202612f7d8b61064c565b0390565b612f488a8202612f7d8a61064c565b612f48898202612f7d8961064c565b612f48888202612f7d8861064c565b612f48878202612f7d8761064c565b80950290565b9161064c565b86846106ca612fd760405190565b631dcf306360e21b8152928392600484016102de565b50505050916100c39192611db3565b60001981146108c65760010190565b919291613019848383612ec7565b9182948015611ae75761303591613030600061064c565b930990565b1161303d5750565b9091506100c3906130516000198210612895565b612ffc565b6000809161306c6a636f6e736f6c652e6c6f6790565b602082519201905afa50565b634e487b7160e01b600052605160045260246000fd5b600103613078576100ca9061305656fea26469706673582212207100283e62ddcd90892e5cea711bf79bd055b41cc258196b8d8a0103890c9a9864736f6c63430008180033","opcodes":"PUSH1 0xC0 PUSH1 0x40 MSTORE CALLVALUE PUSH3 0x45 JUMPI PUSH3 0x22 PUSH3 0x18 PUSH3 0x13B JUMP JUMPDEST SWAP3 SWAP2 SWAP1 SWAP2 PUSH3 0x232 JUMP JUMPDEST PUSH1 0x40 MLOAD PUSH2 0x30D4 PUSH3 0x268 DUP3 CODECOPY PUSH1 0x80 MLOAD DUP2 PUSH1 0xE1 ADD MSTORE PUSH1 0xA0 MLOAD DUP2 PUSH2 0x4D6 ADD MSTORE PUSH2 0x30D4 SWAP1 RETURN JUMPDEST PUSH1 0x0 DUP1 REVERT JUMPDEST PUSH4 0x4E487B71 PUSH1 0xE0 SHL PUSH1 0x0 MSTORE PUSH1 0x41 PUSH1 0x4 MSTORE PUSH1 0x24 PUSH1 0x0 REVERT JUMPDEST SWAP1 PUSH1 0x1F ADD PUSH1 0x1F NOT AND DUP2 ADD SWAP1 DUP2 LT PUSH1 0x1 PUSH1 0x1 PUSH1 0x40 SHL SUB DUP3 GT OR PUSH3 0x82 JUMPI PUSH1 0x40 MSTORE JUMP JUMPDEST PUSH3 0x4A JUMP JUMPDEST SWAP1 PUSH3 0x9F PUSH3 0x97 PUSH1 0x40 MLOAD SWAP1 JUMP JUMPDEST SWAP3 DUP4 PUSH3 0x60 JUMP JUMPDEST JUMP JUMPDEST SWAP1 JUMP JUMPDEST PUSH1 0x1 PUSH1 0x1 PUSH1 0xA0 SHL SUB DUP2 AND JUMPDEST SUB PUSH3 0x45 JUMPI JUMP JUMPDEST SWAP1 POP MLOAD SWAP1 PUSH3 0x9F DUP3 PUSH3 0xA4 JUMP JUMPDEST DUP1 PUSH3 0xAF JUMP JUMPDEST SWAP1 POP MLOAD SWAP1 PUSH3 0x9F DUP3 PUSH3 0xC6 JUMP JUMPDEST PUSH3 0xAF DUP2 PUSH1 0x3 SIGNEXTEND SWAP1 JUMP JUMPDEST SWAP1 POP MLOAD SWAP1 PUSH3 0x9F DUP3 PUSH3 0xDC JUMP JUMPDEST PUSH1 0x80 DUP2 DUP4 SUB SLT PUSH3 0x45 JUMPI PUSH3 0x10D DUP3 DUP3 PUSH3 0xB7 JUMP JUMPDEST SWAP3 PUSH3 0xA1 PUSH3 0x121 DUP5 PUSH1 0x20 DUP6 ADD PUSH3 0xB7 JUMP JUMPDEST SWAP4 PUSH1 0x60 PUSH3 0x133 DUP3 PUSH1 0x40 DUP8 ADD PUSH3 0xCD JUMP JUMPDEST SWAP5 ADD PUSH3 0xE7 JUMP JUMPDEST PUSH3 0x15E PUSH3 0x333C DUP1 CODESIZE SUB DUP1 PUSH3 0x152 DUP2 PUSH3 0x88 JUMP JUMPDEST SWAP3 DUP4 CODECOPY DUP2 ADD SWAP1 PUSH3 0xF6 JUMP JUMPDEST SWAP1 SWAP2 SWAP3 SWAP4 JUMP JUMPDEST PUSH3 0xA1 PUSH1 0x40 PUSH3 0x88 JUMP JUMPDEST SWAP1 PUSH1 0x0 NOT SWAP1 JUMPDEST SWAP2 DUP2 NOT AND SWAP2 AND OR SWAP1 JUMP JUMPDEST PUSH3 0xA1 PUSH3 0xA1 PUSH3 0xA1 SWAP3 SWAP1 JUMP JUMPDEST SWAP1 PUSH3 0x1A4 PUSH3 0xA1 PUSH3 0x1AC SWAP3 PUSH3 0x180 JUMP JUMPDEST DUP3 SLOAD PUSH3 0x170 JUMP JUMPDEST SWAP1 SSTORE JUMP JUMPDEST SWAP1 PUSH4 0xFFFFFFFF SWAP1 PUSH3 0x176 JUMP JUMPDEST PUSH3 0x1D0 PUSH3 0xA1 PUSH3 0xA1 SWAP3 PUSH1 0x3 SIGNEXTEND SWAP1 JUMP JUMPDEST PUSH1 0x3 SIGNEXTEND SWAP1 JUMP JUMPDEST SWAP1 PUSH3 0x1EA PUSH3 0xA1 PUSH3 0x1AC SWAP3 PUSH3 0x1BD JUMP JUMPDEST DUP3 SLOAD PUSH3 0x1B0 JUMP JUMPDEST PUSH1 0x1 PUSH3 0x21E PUSH1 0x20 PUSH3 0x9F SWAP5 PUSH3 0x216 PUSH3 0x20F PUSH1 0x0 DUP4 ADD MLOAD SWAP1 JUMP JUMPDEST DUP7 PUSH3 0x190 JUMP JUMPDEST ADD MLOAD PUSH1 0x3 SIGNEXTEND SWAP1 JUMP JUMPDEST SWAP2 ADD PUSH3 0x1D6 JUMP JUMPDEST SWAP1 PUSH3 0x9F SWAP2 PUSH3 0x1F2 JUMP JUMPDEST PUSH1 0x80 MSTORE PUSH1 0xA0 MSTORE PUSH3 0x9F SWAP2 PUSH3 0x25F SWAP1 PUSH3 0x255 PUSH3 0x250 PUSH3 0x164 JUMP JUMPDEST SWAP4 DUP5 MSTORE JUMP JUMPDEST PUSH1 0x3 SIGNEXTEND PUSH1 0x20 DUP4 ADD MSTORE JUMP JUMPDEST PUSH1 0x0 PUSH3 0x226 JUMP INVALID PUSH1 0x80 PUSH1 0x40 MSTORE PUSH1 0x4 CALLDATASIZE LT ISZERO PUSH2 0x12 JUMPI PUSH1 0x0 DUP1 REVERT JUMPDEST PUSH1 0x0 CALLDATALOAD PUSH1 0xE0 SHR DUP1 PUSH4 0xDFE1681 EQ PUSH2 0xA2 JUMPI DUP1 PUSH4 0x1A686502 EQ PUSH2 0x9D JUMPI DUP1 PUSH4 0x1A88BC66 EQ PUSH2 0x98 JUMPI DUP1 PUSH4 0x2EAD224D EQ PUSH2 0x93 JUMPI DUP1 PUSH4 0x56B4B80D EQ PUSH2 0x8E JUMPI DUP1 PUSH4 0xBC197C81 EQ PUSH2 0x89 JUMPI DUP1 PUSH4 0xD21220A7 EQ PUSH2 0x84 JUMPI DUP1 PUSH4 0xD456B5DD EQ PUSH2 0x7F JUMPI PUSH4 0xF23A6E61 SUB PUSH2 0xB2 JUMPI PUSH2 0x581 JUMP JUMPDEST PUSH2 0x525 JUMP JUMPDEST PUSH2 0x4C1 JUMP JUMPDEST PUSH2 0x481 JUMP JUMPDEST PUSH2 0x3AD JUMP JUMPDEST PUSH2 0x2F5 JUMP JUMPDEST PUSH2 0x1D5 JUMP JUMPDEST PUSH2 0x14B JUMP JUMPDEST PUSH2 0xCC JUMP JUMPDEST PUSH1 0x0 SWAP2 SUB SLT PUSH2 0xB2 JUMPI JUMP JUMPDEST PUSH1 0x0 DUP1 REVERT JUMPDEST PUSH1 0x1 PUSH1 0x1 PUSH1 0xA0 SHL SUB AND SWAP1 JUMP JUMPDEST SWAP1 JUMP JUMPDEST SWAP1 MSTORE JUMP JUMPDEST JUMP JUMPDEST CALLVALUE PUSH2 0xB2 JUMPI PUSH2 0xDC CALLDATASIZE PUSH1 0x4 PUSH2 0xA7 JUMP JUMPDEST PUSH2 0x11B PUSH32 0x0 JUMPDEST PUSH1 0x40 MLOAD SWAP2 DUP3 SWAP2 DUP3 PUSH1 0x1 PUSH1 0x1 PUSH1 0xA0 SHL SUB SWAP1 SWAP2 AND DUP2 MSTORE PUSH1 0x20 ADD SWAP1 JUMP JUMPDEST SUB SWAP1 RETURN JUMPDEST PUSH2 0xC3 SWAP2 PUSH1 0x8 MUL SHR JUMPDEST PUSH1 0x1 PUSH1 0x1 PUSH1 0x80 SHL SUB AND SWAP1 JUMP JUMPDEST SWAP1 PUSH2 0xC3 SWAP2 SLOAD PUSH2 0x11F JUMP JUMPDEST PUSH2 0xC3 PUSH1 0x0 PUSH1 0x5 PUSH2 0x134 JUMP JUMPDEST CALLVALUE PUSH2 0xB2 JUMPI PUSH2 0x15B CALLDATASIZE PUSH1 0x4 PUSH2 0xA7 JUMP JUMPDEST PUSH2 0x11B PUSH2 0x166 PUSH2 0x13F JUMP JUMPDEST PUSH1 0x40 MLOAD SWAP2 DUP3 SWAP2 DUP3 PUSH1 0x1 PUSH1 0x1 PUSH1 0x80 SHL SUB SWAP1 SWAP2 AND DUP2 MSTORE PUSH1 0x20 ADD SWAP1 JUMP JUMPDEST PUSH2 0xC3 SWAP1 DUP2 JUMP JUMPDEST PUSH2 0xC3 SWAP1 SLOAD PUSH2 0x180 JUMP JUMPDEST PUSH2 0xC3 SWAP1 JUMPDEST PUSH1 0x3 SIGNEXTEND SWAP1 JUMP JUMPDEST PUSH2 0xC3 SWAP1 SLOAD PUSH2 0x191 JUMP JUMPDEST PUSH2 0x1B0 PUSH1 0x0 PUSH2 0x187 JUMP JUMPDEST SWAP1 PUSH2 0xC3 PUSH1 0x1 PUSH2 0x19C JUMP JUMPDEST SWAP1 DUP2 MSTORE PUSH1 0x40 DUP2 ADD SWAP3 SWAP2 PUSH2 0xCA SWAP2 PUSH1 0x20 SWAP1 JUMPDEST ADD SWAP1 PUSH1 0x3 SIGNEXTEND SWAP1 MSTORE JUMP JUMPDEST CALLVALUE PUSH2 0xB2 JUMPI PUSH2 0x1E5 CALLDATASIZE PUSH1 0x4 PUSH2 0xA7 JUMP JUMPDEST PUSH2 0x1ED PUSH2 0x1A6 JUMP JUMPDEST SWAP1 PUSH2 0x11B PUSH2 0x1FA PUSH1 0x40 MLOAD SWAP1 JUMP JUMPDEST SWAP3 DUP4 SWAP3 DUP4 PUSH2 0x1BB JUMP JUMPDEST PUSH1 0x1 PUSH1 0x1 PUSH1 0xA0 SHL SUB DUP2 AND JUMPDEST SUB PUSH2 0xB2 JUMPI JUMP JUMPDEST SWAP1 POP CALLDATALOAD SWAP1 PUSH2 0xCA DUP3 PUSH2 0x203 JUMP JUMPDEST DUP1 PUSH2 0x20E JUMP JUMPDEST SWAP1 POP CALLDATALOAD SWAP1 PUSH2 0xCA DUP3 PUSH2 0x222 JUMP JUMPDEST DUP1 ISZERO ISZERO PUSH2 0x20E JUMP JUMPDEST SWAP1 POP CALLDATALOAD SWAP1 PUSH2 0xCA DUP3 PUSH2 0x235 JUMP JUMPDEST SWAP1 SWAP2 DUP3 PUSH1 0x1F DUP4 ADD SLT ISZERO PUSH2 0xB2 JUMPI DUP2 CALLDATALOAD SWAP2 PUSH8 0xFFFFFFFFFFFFFFFF DUP4 GT PUSH2 0xB2 JUMPI PUSH1 0x20 ADD SWAP3 PUSH1 0x1 DUP4 MUL DUP5 ADD GT PUSH2 0xB2 JUMPI JUMP JUMPDEST SWAP2 SWAP1 SWAP2 PUSH1 0xA0 DUP2 DUP5 SUB SLT PUSH2 0xB2 JUMPI PUSH2 0x291 DUP4 DUP3 PUSH2 0x215 JUMP JUMPDEST SWAP3 PUSH2 0x29F DUP2 PUSH1 0x20 DUP5 ADD PUSH2 0x228 JUMP JUMPDEST SWAP3 PUSH2 0x2AD DUP3 PUSH1 0x40 DUP6 ADD PUSH2 0x228 JUMP JUMPDEST SWAP3 PUSH2 0x2BB DUP4 PUSH1 0x60 DUP4 ADD PUSH2 0x23D JUMP JUMPDEST SWAP3 PUSH1 0x80 DUP3 ADD CALLDATALOAD PUSH8 0xFFFFFFFFFFFFFFFF DUP2 GT PUSH2 0xB2 JUMPI PUSH2 0x2DA SWAP3 ADD PUSH2 0x24A JUMP JUMPDEST SWAP1 SWAP2 JUMP JUMPDEST SWAP1 DUP2 MSTORE PUSH1 0x40 DUP2 ADD SWAP3 SWAP2 PUSH2 0xCA SWAP2 PUSH1 0x20 ADD MSTORE JUMP JUMPDEST ADD MSTORE JUMP JUMPDEST CALLVALUE PUSH2 0xB2 JUMPI PUSH2 0x314 PUSH2 0x308 CALLDATASIZE PUSH1 0x4 PUSH2 0x27A JUMP JUMPDEST SWAP5 SWAP4 SWAP1 SWAP4 SWAP3 SWAP2 SWAP3 PUSH2 0xE4C JUMP JUMPDEST SWAP1 PUSH2 0x11B PUSH2 0x321 PUSH1 0x40 MLOAD SWAP1 JUMP JUMPDEST SWAP3 DUP4 SWAP3 DUP4 PUSH2 0x2DE JUMP JUMPDEST PUSH2 0x20E DUP2 PUSH1 0x3 SIGNEXTEND SWAP1 JUMP JUMPDEST SWAP1 POP CALLDATALOAD SWAP1 PUSH2 0xCA DUP3 PUSH2 0x32A JUMP JUMPDEST PUSH1 0x1 PUSH1 0x1 PUSH1 0x80 SHL SUB DUP2 AND PUSH2 0x20E JUMP JUMPDEST SWAP1 POP CALLDATALOAD SWAP1 PUSH2 0xCA DUP3 PUSH2 0x341 JUMP JUMPDEST SWAP1 PUSH1 0x80 DUP3 DUP3 SUB SLT PUSH2 0xB2 JUMPI PUSH2 0x372 DUP2 DUP4 PUSH2 0x215 JUMP JUMPDEST SWAP3 PUSH2 0x380 DUP3 PUSH1 0x20 DUP6 ADD PUSH2 0x334 JUMP JUMPDEST SWAP3 PUSH2 0x38E DUP4 PUSH1 0x40 DUP4 ADD PUSH2 0x350 JUMP JUMPDEST SWAP3 PUSH1 0x60 DUP3 ADD CALLDATALOAD PUSH8 0xFFFFFFFFFFFFFFFF DUP2 GT PUSH2 0xB2 JUMPI PUSH2 0x2DA SWAP3 ADD PUSH2 0x24A JUMP JUMPDEST CALLVALUE PUSH2 0xB2 JUMPI PUSH2 0x314 PUSH2 0x3C0 CALLDATASIZE PUSH1 0x4 PUSH2 0x35D JUMP JUMPDEST SWAP4 SWAP3 SWAP1 SWAP3 PUSH2 0x16D5 JUMP JUMPDEST SWAP1 SWAP2 DUP3 PUSH1 0x1F DUP4 ADD SLT ISZERO PUSH2 0xB2 JUMPI DUP2 CALLDATALOAD SWAP2 PUSH8 0xFFFFFFFFFFFFFFFF DUP4 GT PUSH2 0xB2 JUMPI PUSH1 0x20 ADD SWAP3 PUSH1 0x20 DUP4 MUL DUP5 ADD GT PUSH2 0xB2 JUMPI JUMP JUMPDEST SWAP2 PUSH1 0xA0 DUP4 DUP4 SUB SLT PUSH2 0xB2 JUMPI PUSH2 0x40E DUP3 DUP5 PUSH2 0x215 JUMP JUMPDEST SWAP3 PUSH2 0x41C DUP4 PUSH1 0x20 DUP4 ADD PUSH2 0x215 JUMP JUMPDEST SWAP3 PUSH1 0x40 DUP3 ADD CALLDATALOAD PUSH8 0xFFFFFFFFFFFFFFFF DUP2 GT PUSH2 0xB2 JUMPI DUP2 PUSH2 0x43D SWAP2 DUP5 ADD PUSH2 0x3C9 JUMP JUMPDEST SWAP3 SWAP1 SWAP4 PUSH1 0x60 DUP3 ADD CALLDATALOAD PUSH8 0xFFFFFFFFFFFFFFFF DUP2 GT PUSH2 0xB2 JUMPI DUP4 PUSH2 0x460 SWAP2 DUP5 ADD PUSH2 0x3C9 JUMP JUMPDEST SWAP3 SWAP1 SWAP4 PUSH1 0x80 DUP3 ADD CALLDATALOAD PUSH8 0xFFFFFFFFFFFFFFFF DUP2 GT PUSH2 0xB2 JUMPI PUSH2 0x2DA SWAP3 ADD PUSH2 0x24A JUMP JUMPDEST CALLVALUE PUSH2 0xB2 JUMPI PUSH2 0x11B PUSH2 0x4A6 PUSH2 0x497 CALLDATASIZE PUSH1 0x4 PUSH2 0x3F9 JUMP JUMPDEST SWAP7 SWAP6 SWAP1 SWAP6 SWAP5 SWAP2 SWAP5 SWAP4 SWAP3 SWAP4 PUSH2 0x1963 JUMP JUMPDEST PUSH1 0x40 MLOAD SWAP2 DUP3 SWAP2 DUP3 PUSH1 0x1 PUSH1 0x1 PUSH1 0xE0 SHL SUB NOT SWAP1 SWAP2 AND DUP2 MSTORE PUSH1 0x20 ADD SWAP1 JUMP JUMPDEST CALLVALUE PUSH2 0xB2 JUMPI PUSH2 0x4D1 CALLDATASIZE PUSH1 0x4 PUSH2 0xA7 JUMP JUMPDEST PUSH2 0x11B PUSH32 0x0 PUSH2 0x101 JUMP JUMPDEST PUSH2 0xC3 SWAP2 PUSH1 0x8 MUL SHR PUSH1 0x1 PUSH1 0x1 PUSH1 0xA0 SHL SUB AND SWAP1 JUMP JUMPDEST SWAP1 PUSH2 0xC3 SWAP2 SLOAD PUSH2 0x4FA JUMP JUMPDEST PUSH2 0xC3 PUSH1 0x0 PUSH1 0x6 PUSH2 0x50E JUMP JUMPDEST CALLVALUE PUSH2 0xB2 JUMPI PUSH2 0x535 CALLDATASIZE PUSH1 0x4 PUSH2 0xA7 JUMP JUMPDEST PUSH2 0x11B PUSH2 0x101 PUSH2 0x519 JUMP JUMPDEST SWAP2 SWAP1 SWAP2 PUSH1 0xA0 DUP2 DUP5 SUB SLT PUSH2 0xB2 JUMPI PUSH2 0x557 DUP4 DUP3 PUSH2 0x215 JUMP JUMPDEST SWAP3 PUSH2 0x565 DUP2 PUSH1 0x20 DUP5 ADD PUSH2 0x215 JUMP JUMPDEST SWAP3 PUSH2 0x573 DUP3 PUSH1 0x40 DUP6 ADD PUSH2 0x228 JUMP JUMPDEST SWAP3 PUSH2 0x2BB DUP4 PUSH1 0x60 DUP4 ADD PUSH2 0x228 JUMP JUMPDEST CALLVALUE PUSH2 0xB2 JUMPI PUSH2 0x11B PUSH2 0x4A6 PUSH2 0x597 CALLDATASIZE PUSH1 0x4 PUSH2 0x540 JUMP JUMPDEST SWAP5 SWAP4 SWAP1 SWAP4 SWAP3 SWAP2 SWAP3 PUSH2 0x197F JUMP JUMPDEST PUSH4 0x4E487B71 PUSH1 0xE0 SHL PUSH1 0x0 MSTORE PUSH1 0x41 PUSH1 0x4 MSTORE PUSH1 0x24 PUSH1 0x0 REVERT JUMPDEST SWAP1 PUSH1 0x1F ADD PUSH1 0x1F NOT AND DUP2 ADD SWAP1 DUP2 LT PUSH8 0xFFFFFFFFFFFFFFFF DUP3 GT OR PUSH2 0x5DB JUMPI PUSH1 0x40 MSTORE JUMP JUMPDEST PUSH2 0x5A3 JUMP JUMPDEST SWAP1 PUSH2 0xCA PUSH2 0x5ED PUSH1 0x40 MLOAD SWAP1 JUMP JUMPDEST SWAP3 DUP4 PUSH2 0x5B9 JUMP JUMPDEST PUSH2 0xC3 PUSH1 0x40 PUSH2 0x5E0 JUMP JUMPDEST SWAP1 PUSH2 0xCA PUSH2 0x626 PUSH1 0x1 PUSH2 0x60F PUSH2 0x5F4 JUMP JUMPDEST SWAP5 PUSH2 0x620 PUSH2 0x61C DUP3 PUSH2 0x187 JUMP JUMPDEST DUP8 MSTORE JUMP JUMPDEST ADD PUSH2 0x19C JUMP JUMPDEST PUSH1 0x3 SIGNEXTEND PUSH1 0x20 DUP5 ADD MSTORE JUMP JUMPDEST PUSH2 0xC3 SWAP1 PUSH2 0x5FE JUMP JUMPDEST PUSH2 0xC3 SWAP1 PUSH2 0x128 JUMP JUMPDEST PUSH2 0xC3 SWAP1 SLOAD PUSH2 0x639 JUMP JUMPDEST PUSH2 0xC3 PUSH2 0xC3 PUSH2 0xC3 SWAP3 SWAP1 JUMP JUMPDEST PUSH2 0xC3 PUSH20 0xFFFD8963EFD1FC6A506488495D951D5263988D26 PUSH2 0x64C JUMP JUMPDEST PUSH2 0xC3 PUSH5 0x1000276A3 PUSH2 0x64C JUMP JUMPDEST ADD SWAP1 JUMP JUMPDEST ISZERO PUSH2 0x68F JUMPI JUMP JUMPDEST PUSH1 0x40 MLOAD PUSH3 0x461BCD PUSH1 0xE5 SHL DUP2 MSTORE PUSH1 0x20 PUSH1 0x4 DUP3 ADD MSTORE PUSH1 0x13 PUSH1 0x24 DUP3 ADD MSTORE PUSH19 0x496E76616C6964204C696D6974507269636521 PUSH1 0x68 SHL PUSH1 0x44 DUP3 ADD MSTORE PUSH1 0x64 SWAP1 REVERT JUMPDEST SUB SWAP1 REVERT JUMPDEST PUSH2 0xC3 PUSH1 0xA0 PUSH2 0x5E0 JUMP JUMPDEST PUSH8 0xFFFFFFFFFFFFFFFF DUP2 GT PUSH2 0x5DB JUMPI PUSH1 0x20 SWAP1 PUSH1 0x1F ADD PUSH1 0x1F NOT AND ADD SWAP1 JUMP JUMPDEST SWAP1 PUSH2 0x707 PUSH2 0x702 DUP4 PUSH2 0x6D8 JUMP JUMPDEST PUSH2 0x5E0 JUMP JUMPDEST SWAP2 DUP3 MSTORE JUMP JUMPDEST PUSH2 0x716 PUSH1 0x33 PUSH2 0x6F5 JUMP JUMPDEST PUSH32 0x20202020202020202020205B44454255475D3A202A2A2A2A2A2A2A2A2A2A2A2A PUSH1 0x20 DUP3 ADD MSTORE PUSH19 0x15103937BAB732101515151515151515151515 PUSH1 0x69 SHL PUSH1 0x40 DUP3 ADD MSTORE SWAP1 JUMP JUMPDEST PUSH2 0xC3 PUSH2 0x70C JUMP JUMPDEST PUSH2 0x196 PUSH2 0xC3 PUSH2 0xC3 SWAP3 PUSH1 0x3 SIGNEXTEND SWAP1 JUMP JUMPDEST SWAP1 PUSH2 0x77D SWAP1 PUSH2 0x763 JUMP JUMPDEST PUSH1 0x0 MSTORE PUSH1 0x20 MSTORE PUSH1 0x40 PUSH1 0x0 KECCAK256 SWAP1 JUMP JUMPDEST PUSH2 0xC3 SWAP1 JUMPDEST PUSH1 0xFF AND SWAP1 JUMP JUMPDEST PUSH2 0xC3 SWAP1 SLOAD PUSH2 0x78B JUMP JUMPDEST PUSH2 0xC3 PUSH1 0xC0 PUSH2 0x5E0 JUMP JUMPDEST PUSH2 0x7B2 PUSH2 0x7A0 JUMP JUMPDEST SWAP1 PUSH1 0x0 DUP3 MSTORE PUSH1 0x20 DUP1 DUP1 DUP1 DUP1 DUP1 DUP8 ADD PUSH1 0x0 DUP2 MSTORE ADD PUSH1 0x0 DUP2 MSTORE ADD PUSH1 0x0 DUP2 MSTORE ADD PUSH1 0x0 DUP2 MSTORE ADD PUSH1 0x0 SWAP1 MSTORE POP JUMP JUMPDEST PUSH2 0xC3 PUSH2 0x7AA JUMP JUMPDEST PUSH2 0x7ED PUSH1 0x33 PUSH2 0x6F5 JUMP JUMPDEST PUSH32 0x20202020202020202020205B44454255475D3A202A2A2A2A2A2A2A2A20736561 PUSH1 0x20 DUP3 ADD MSTORE PUSH19 0x3931B41032BC32B1BABA329015151515151515 PUSH1 0x69 SHL PUSH1 0x40 DUP3 ADD MSTORE SWAP1 JUMP JUMPDEST PUSH2 0xC3 PUSH2 0x7E3 JUMP JUMPDEST PUSH2 0xC3 PUSH2 0xC3 PUSH2 0xC3 SWAP3 PUSH1 0x3 SIGNEXTEND SWAP1 JUMP JUMPDEST PUSH2 0x854 PUSH1 0x13 PUSH2 0x6F5 JUMP JUMPDEST PUSH19 0x10101010101010101010102DA222A12AA3AE9D PUSH1 0x69 SHL PUSH1 0x20 DUP3 ADD MSTORE SWAP1 JUMP JUMPDEST PUSH2 0xC3 PUSH2 0x84A JUMP JUMPDEST PUSH2 0x196 PUSH2 0xC3 PUSH2 0xC3 SWAP3 SWAP1 JUMP JUMPDEST PUSH4 0x4E487B71 PUSH1 0xE0 SHL PUSH1 0x0 MSTORE PUSH1 0x11 PUSH1 0x4 MSTORE PUSH1 0x24 PUSH1 0x0 REVERT JUMPDEST PUSH2 0x8AD SWAP1 PUSH1 0x3 SIGNEXTEND JUMPDEST SWAP2 PUSH1 0x3 SIGNEXTEND SWAP1 JUMP JUMPDEST SWAP1 SUB SWAP1 PUSH4 0x7FFFFFFF NOT DUP3 SLT PUSH4 0x7FFFFFFF DUP4 SGT OR PUSH2 0x8C6 JUMPI JUMP JUMPDEST PUSH2 0x888 JUMP JUMPDEST PUSH2 0x8DB PUSH2 0xC3 PUSH2 0xC3 SWAP3 PUSH1 0x3 SIGNEXTEND SWAP1 JUMP JUMPDEST PUSH1 0x2 SIGNEXTEND SWAP1 JUMP JUMPDEST PUSH2 0x8EB PUSH1 0x34 PUSH2 0x6F5 JUMP JUMPDEST PUSH32 0x20202020202020202020205B44454255475D3A204E6F7420537572653A207072 PUSH1 0x20 DUP3 ADD MSTORE PUSH20 0x696365506F696E743E3D6C696D69745072696365 PUSH1 0x60 SHL PUSH1 0x40 DUP3 ADD MSTORE SWAP1 JUMP JUMPDEST PUSH2 0xC3 PUSH2 0x8E1 JUMP JUMPDEST PUSH2 0x943 PUSH1 0x30 PUSH2 0x6F5 JUMP JUMPDEST PUSH32 0x20202020202020202020205B44454255475D3A20537572653A20707269636550 PUSH1 0x20 DUP3 ADD MSTORE PUSH16 0x6F696E743D3D6C696D69745072696365 PUSH1 0x80 SHL PUSH1 0x40 DUP3 ADD MSTORE SWAP1 JUMP JUMPDEST PUSH2 0xC3 PUSH2 0x939 JUMP JUMPDEST PUSH2 0x997 PUSH1 0x2F PUSH2 0x6F5 JUMP JUMPDEST PUSH32 0x20202020202020202020205B44454255475D3A20537572653A20707269636550 PUSH1 0x20 DUP3 ADD MSTORE PUSH15 0x6F696E743E6C696D69745072696365 PUSH1 0x88 SHL PUSH1 0x40 DUP3 ADD MSTORE SWAP1 JUMP JUMPDEST PUSH2 0xC3 PUSH2 0x98D JUMP JUMPDEST PUSH2 0x9EA PUSH1 0x1E PUSH2 0x6F5 JUMP JUMPDEST PUSH32 0x20202020202020202020205B44454255475D3A206E65787442696E203D200000 PUSH1 0x20 DUP3 ADD MSTORE SWAP1 JUMP JUMPDEST PUSH2 0xC3 PUSH2 0x9E0 JUMP JUMPDEST PUSH2 0xA25 PUSH1 0x25 PUSH2 0x6F5 JUMP JUMPDEST PUSH32 0x20202020202020202020205B44454255475D3A206E6578745072696365506F69 PUSH1 0x20 DUP3 ADD MSTORE PUSH5 0x373A101E9 PUSH1 0xDD SHL PUSH1 0x40 DUP3 ADD MSTORE SWAP1 JUMP JUMPDEST PUSH2 0xC3 PUSH2 0xA1B JUMP JUMPDEST PUSH2 0xA6E PUSH1 0x33 PUSH2 0x6F5 JUMP JUMPDEST PUSH32 0x20202020202020202020205B44454255475D3A204E6F7420537572653A207072 PUSH1 0x20 DUP3 ADD MSTORE PUSH19 0x696365506F696E743C6C696D69745072696365 PUSH1 0x68 SHL PUSH1 0x40 DUP3 ADD MSTORE SWAP1 JUMP JUMPDEST PUSH2 0xC3 PUSH2 0xA64 JUMP JUMPDEST PUSH2 0xAC5 PUSH1 0x2F PUSH2 0x6F5 JUMP JUMPDEST PUSH32 0x20202020202020202020205B44454255475D3A20537572653A20707269636550 PUSH1 0x20 DUP3 ADD MSTORE PUSH15 0x6F696E743C6C696D69745072696365 PUSH1 0x88 SHL PUSH1 0x40 DUP3 ADD MSTORE SWAP1 JUMP JUMPDEST PUSH2 0xC3 PUSH2 0xABB JUMP JUMPDEST PUSH2 0xB18 PUSH1 0x34 PUSH2 0x6F5 JUMP JUMPDEST PUSH32 0x20202020202020202020205B44454255475D3A202A2A2A2A2A2A2A2A2A206F75 PUSH1 0x20 DUP3 ADD MSTORE PUSH20 0x3A1037B31039B2B0B931B4101515151515151515 PUSH1 0x61 SHL PUSH1 0x40 DUP3 ADD MSTORE SWAP1 JUMP JUMPDEST PUSH2 0xC3 PUSH2 0xB0E JUMP JUMPDEST PUSH2 0x790 PUSH2 0xC3 PUSH2 0xC3 SWAP3 SWAP1 JUMP JUMPDEST PUSH2 0xC3 PUSH1 0x60 PUSH2 0xB66 JUMP JUMPDEST PUSH2 0xC3 SWAP1 PUSH2 0xB95 PUSH2 0xB91 PUSH2 0xC3 SWAP5 PUSH1 0xFF AND SWAP1 JUMP JUMPDEST SWAP2 SWAP1 JUMP JUMPDEST SWAP1 SHR SWAP1 JUMP JUMPDEST PUSH2 0xC3 SWAP1 PUSH2 0xB7 JUMP JUMPDEST PUSH2 0xC3 SWAP1 SLOAD PUSH2 0xB9A JUMP JUMPDEST SWAP1 PUSH1 0x1 PUSH1 0x1 PUSH1 0xA0 SHL SUB SWAP1 JUMPDEST SWAP2 DUP2 NOT AND SWAP2 AND OR SWAP1 JUMP JUMPDEST PUSH2 0xC3 SWAP1 PUSH2 0xB7 SWAP1 PUSH1 0x1 PUSH1 0x1 PUSH1 0xA0 SHL SUB AND DUP3 JUMP JUMPDEST SWAP1 PUSH2 0xBE6 PUSH2 0xC3 PUSH2 0xBED SWAP3 PUSH2 0xBC2 JUMP JUMPDEST DUP3 SLOAD PUSH2 0xBAD JUMP JUMPDEST SWAP1 SSTORE JUMP JUMPDEST PUSH2 0xC3 SWAP1 PUSH1 0x8 SHR PUSH2 0x128 JUMP JUMPDEST PUSH2 0xC3 SWAP1 SLOAD PUSH2 0xBF1 JUMP JUMPDEST SWAP2 SWAP1 DUP3 SUB SWAP2 DUP3 GT PUSH2 0x8C6 JUMPI JUMP JUMPDEST SWAP2 SWAP1 DUP3 ADD DUP1 SWAP3 GT PUSH2 0x8C6 JUMPI JUMP JUMPDEST PUSH2 0xC2B PUSH1 0x4E PUSH2 0x6F5 JUMP JUMPDEST PUSH32 0x20202020202020202020205B44454255475D3A206578706563746564416D6F75 PUSH1 0x20 DUP3 ADD MSTORE PUSH32 0x6E74207C2073746174652E616D6F756E744265656E4F7574207C207374617465 PUSH1 0x40 DUP3 ADD MSTORE PUSH14 0x1730B6B7BAB73A2132B2B724B71 PUSH1 0x95 SHL PUSH1 0x60 DUP3 ADD MSTORE SWAP1 JUMP JUMPDEST PUSH2 0xC3 PUSH2 0xC21 JUMP JUMPDEST PUSH2 0xCA3 PUSH1 0x1F PUSH2 0x6F5 JUMP JUMPDEST PUSH32 0x20202020202020202020205B44454255475D3A2073746174652E7069203D2000 PUSH1 0x20 DUP3 ADD MSTORE SWAP1 JUMP JUMPDEST PUSH2 0xC3 PUSH2 0xC99 JUMP JUMPDEST PUSH2 0xCDE PUSH1 0xE PUSH2 0x6F5 JUMP JUMPDEST PUSH14 0x31B7B6B837B9B4BA34B7B7101E9 PUSH1 0x95 SHL PUSH1 0x20 DUP3 ADD MSTORE SWAP1 JUMP JUMPDEST PUSH2 0xC3 PUSH2 0xCD4 JUMP JUMPDEST PUSH2 0xC3 SWAP1 DUP2 SWAP1 PUSH1 0x1 PUSH1 0x1 PUSH1 0xA0 SHL SUB AND DUP2 JUMP JUMPDEST PUSH2 0xD1C PUSH1 0x33 PUSH2 0x6F5 JUMP JUMPDEST PUSH32 0x20202020202020202020205B44454255475D3A202A2A2A2A2A2A2A2A2A206F75 PUSH1 0x20 DUP3 ADD MSTORE PUSH19 0x3A1037B3103937BAB732101515151515151515 PUSH1 0x69 SHL PUSH1 0x40 DUP3 ADD MSTORE SWAP1 JUMP JUMPDEST PUSH2 0xC3 PUSH2 0xD12 JUMP JUMPDEST SWAP1 PUSH1 0x1 PUSH1 0x1 PUSH1 0x80 SHL SUB SWAP1 PUSH2 0xBB8 JUMP JUMPDEST PUSH2 0x128 PUSH2 0xC3 PUSH2 0xC3 SWAP3 PUSH1 0x1 PUSH1 0x1 PUSH1 0x80 SHL SUB AND SWAP1 JUMP JUMPDEST SWAP1 PUSH2 0xD9E PUSH2 0xC3 PUSH2 0xBED SWAP3 PUSH2 0xD78 JUMP JUMPDEST DUP3 SLOAD PUSH2 0xD69 JUMP JUMPDEST SWAP1 PUSH4 0xFFFFFFFF SWAP1 PUSH2 0xBB8 JUMP JUMPDEST SWAP1 PUSH2 0xDC1 PUSH2 0xC3 PUSH2 0xBED SWAP3 PUSH2 0x763 JUMP JUMPDEST DUP3 SLOAD PUSH2 0xDA5 JUMP JUMPDEST SWAP1 PUSH1 0x0 NOT SWAP1 PUSH2 0xBB8 JUMP JUMPDEST SWAP1 PUSH2 0xDE2 PUSH2 0xC3 PUSH2 0xBED SWAP3 PUSH2 0x64C JUMP JUMPDEST DUP3 SLOAD PUSH2 0xDC8 JUMP JUMPDEST PUSH2 0xDF3 PUSH1 0x1E PUSH2 0x6F5 JUMP JUMPDEST PUSH32 0x20202020202020202020205B44454255475D3A20616D6F756E7430203D200000 PUSH1 0x20 DUP3 ADD MSTORE SWAP1 JUMP JUMPDEST PUSH2 0xC3 PUSH2 0xDE9 JUMP JUMPDEST PUSH2 0xE2E PUSH1 0xA PUSH2 0x6F5 JUMP JUMPDEST PUSH10 0x30B6B7BAB73A18901E9 PUSH1 0xB5 SHL PUSH1 0x20 DUP3 ADD MSTORE SWAP1 JUMP JUMPDEST PUSH2 0xC3 PUSH2 0xE24 JUMP JUMPDEST POP SWAP4 POP SWAP4 SWAP2 POP PUSH2 0xE5A PUSH1 0x0 SWAP1 JUMP JUMPDEST POP PUSH2 0xE65 PUSH1 0x0 PUSH2 0x630 JUMP JUMPDEST SWAP2 PUSH2 0xEDD PUSH2 0xE73 PUSH1 0x5 PUSH2 0x642 JUMP JUMPDEST DUP4 ISZERO PUSH2 0x157D JUMPI PUSH2 0xE84 PUSH2 0xC3 DUP7 MLOAD SWAP1 JUMP JUMPDEST DUP8 LT DUP1 PUSH2 0x1564 JUMPI JUMPDEST PUSH2 0xE95 SWAP1 PUSH2 0x688 JUMP JUMPDEST PUSH2 0xECD PUSH2 0xEB1 PUSH1 0x0 PUSH2 0xEAB PUSH1 0x20 DUP10 ADD MLOAD PUSH1 0x3 SIGNEXTEND SWAP1 JUMP JUMPDEST SWAP8 ADD MLOAD SWAP1 JUMP JUMPDEST PUSH2 0xEC6 PUSH2 0xEBC PUSH2 0x6CE JUMP JUMPDEST SWAP8 DUP9 SWAP1 PUSH1 0x3 SIGNEXTEND SWAP1 MSTORE JUMP JUMPDEST PUSH1 0x20 DUP8 ADD MSTORE JUMP JUMPDEST PUSH1 0x1 PUSH1 0x1 PUSH1 0x80 SHL SUB AND PUSH1 0x40 DUP6 ADD MSTORE JUMP JUMPDEST PUSH2 0xEE7 PUSH1 0x0 PUSH2 0x64C JUMP JUMPDEST PUSH2 0xEF2 DUP2 PUSH1 0x60 DUP7 ADD MSTORE JUMP JUMPDEST PUSH2 0xEFD DUP2 PUSH1 0x80 DUP7 ADD MSTORE JUMP JUMPDEST DUP1 DUP6 GT DUP1 PUSH2 0x1543 JUMPI JUMPDEST ISZERO PUSH2 0x1538 JUMPI PUSH2 0xF13 PUSH2 0x1999 JUMP JUMPDEST PUSH2 0xF23 PUSH2 0xF1E PUSH2 0x75B JUMP JUMPDEST PUSH2 0x1A2D JUMP JUMPDEST PUSH2 0xF4A PUSH2 0xF46 PUSH1 0x0 PUSH2 0xF40 PUSH2 0xF39 DUP9 MLOAD PUSH1 0x3 SIGNEXTEND SWAP1 JUMP JUMPDEST PUSH1 0x2 PUSH2 0x773 JUMP JUMPDEST ADD PUSH2 0x796 JUMP JUMPDEST ISZERO SWAP1 JUMP JUMPDEST PUSH2 0x1480 JUMPI PUSH2 0xF56 PUSH2 0x7DB JUMP JUMPDEST SWAP5 PUSH2 0xF65 PUSH2 0x61C PUSH1 0x20 DUP8 ADD MLOAD SWAP1 JUMP JUMPDEST DUP6 MLOAD DUP6 MLOAD PUSH1 0x3 SIGNEXTEND SWAP1 PUSH1 0x0 DUP7 ISZERO PUSH2 0x1345 JUMPI JUMPDEST DUP9 DUP11 DUP4 LT PUSH2 0x1327 JUMPI POP POP PUSH2 0xF8B PUSH2 0xF1E PUSH2 0x832 JUMP JUMPDEST PUSH2 0xFAC PUSH2 0xF9F PUSH2 0xF9A DUP5 PUSH2 0x83A JUMP JUMPDEST PUSH2 0x64C JUMP JUMPDEST PUSH2 0xFA7 PUSH2 0x873 JUMP JUMPDEST PUSH2 0x1A7B JUMP JUMPDEST PUSH2 0xFB8 DUP2 PUSH2 0xFA7 PUSH2 0x873 JUMP JUMPDEST DUP2 DUP9 PUSH2 0xFD2 DUP9 PUSH1 0x4 PUSH2 0xFCA PUSH1 0x1 PUSH2 0x87B JUMP JUMPDEST SWAP7 DUP8 SWAP2 PUSH2 0x1B5D JUMP JUMPDEST SWAP1 DUP13 DUP3 SWAP7 PUSH3 0x800000 SWAP2 PUSH2 0xFFD PUSH2 0xFF8 PUSH2 0xFF3 PUSH2 0xFED DUP7 PUSH2 0x87B JUMP JUMPDEST DUP8 PUSH2 0x89E JUMP JUMPDEST PUSH2 0x8CB JUMP JUMPDEST PUSH2 0x1DD7 JUMP JUMPDEST SWAP5 PUSH2 0x1015 PUSH2 0x100D PUSH2 0xF9A DUP8 PUSH2 0x83A JUMP JUMPDEST PUSH2 0xFA7 PUSH2 0xA13 JUMP JUMPDEST PUSH2 0x1021 DUP7 PUSH2 0xFA7 PUSH2 0xA5C JUMP JUMPDEST ISZERO PUSH2 0x126C JUMPI SWAP2 POP PUSH2 0x102F SWAP1 POP JUMP JUMPDEST DUP3 LT ISZERO PUSH2 0x122C JUMPI POP POP PUSH2 0x10F2 SWAP4 PUSH2 0x106E PUSH2 0x117A SWAP5 PUSH2 0x1067 PUSH2 0x11DC SWAP9 SWAP6 PUSH1 0x20 PUSH2 0x1077 SWAP7 PUSH2 0x105C PUSH2 0xF1E PUSH2 0xB06 JUMP JUMPDEST PUSH2 0x1CC PUSH2 0xF1E PUSH2 0xB5E JUMP JUMPDEST PUSH1 0x40 DUP14 ADD MSTORE JUMP JUMPDEST ISZERO ISZERO PUSH1 0x60 DUP12 ADD MSTORE JUMP JUMPDEST DUP8 DUP8 DUP11 PUSH2 0x1082 DUP2 MLOAD SWAP1 JUMP JUMPDEST PUSH2 0x10F9 PUSH2 0x10EB PUSH2 0x10DA DUP8 PUSH2 0x109E PUSH2 0x1097 PUSH2 0xB73 JUMP JUMPDEST DUP1 SWAP7 PUSH2 0xB7D JUMP JUMPDEST SWAP7 PUSH1 0x40 DUP10 ADD SWAP8 PUSH2 0x10B5 DUP10 MLOAD PUSH1 0x1 PUSH1 0x1 PUSH1 0x80 SHL SUB AND SWAP1 JUMP JUMPDEST PUSH2 0x10BF PUSH1 0x6 PUSH2 0xBA3 JUMP JUMPDEST SWAP1 PUSH2 0x10D4 DUP10 PUSH2 0x10CF PUSH1 0x40 DUP14 ADD MLOAD SWAP1 JUMP JUMPDEST PUSH2 0xB7D JUMP JUMPDEST SWAP3 PUSH2 0x24F7 JUMP JUMPDEST PUSH1 0xA0 DUP9 ADD MSTORE PUSH1 0x80 DUP8 ADD SWAP12 SWAP3 SWAP4 SWAP1 DUP13 MSTORE JUMP JUMPDEST PUSH1 0x6 PUSH2 0xBD6 JUMP JUMPDEST PUSH1 0x20 DUP7 ADD MSTORE JUMP JUMPDEST PUSH2 0x1119 PUSH2 0xB91 PUSH2 0xC3 PUSH2 0x110D PUSH1 0x20 DUP9 ADD MLOAD SWAP1 JUMP JUMPDEST SWAP4 PUSH2 0x10CF PUSH1 0x40 DUP8 ADD MLOAD SWAP1 JUMP JUMPDEST SUB PUSH2 0x1219 JUMPI PUSH1 0x0 PUSH2 0x115C PUSH2 0xF39 DUP3 PUSH2 0x116F SWAP7 PUSH2 0x114B PUSH2 0x1153 PUSH1 0x20 DUP9 PUSH2 0x114B PUSH2 0x1145 PUSH1 0x40 PUSH2 0x1162 SWAP13 ADD MLOAD SWAP1 JUMP JUMPDEST DUP4 DUP8 ADD MSTORE JUMP JUMPDEST ADD MLOAD PUSH1 0x3 SIGNEXTEND SWAP1 JUMP JUMPDEST PUSH1 0x3 SIGNEXTEND DUP3 DUP5 ADD MSTORE JUMP JUMPDEST ADD PUSH2 0xBFD JUMP JUMPDEST PUSH1 0x1 PUSH1 0x1 PUSH1 0x80 SHL SUB AND SWAP1 MSTORE JUMP JUMPDEST PUSH1 0xA0 DUP10 ADD MLOAD SWAP1 PUSH2 0xC07 JUMP JUMPDEST SWAP1 PUSH2 0x11CE PUSH2 0x11C9 PUSH2 0x11B1 PUSH2 0x1190 PUSH1 0xA0 DUP7 SWAP13 ADD MLOAD SWAP1 JUMP JUMPDEST SWAP4 PUSH2 0x11AD PUSH2 0x11A9 PUSH1 0x60 DUP14 ADD SWAP7 PUSH2 0x11A4 DUP9 MLOAD SWAP1 JUMP JUMPDEST PUSH2 0xC14 JUMP JUMPDEST DUP7 MSTORE JUMP JUMPDEST MLOAD SWAP1 JUMP JUMPDEST SWAP3 PUSH2 0x11AD PUSH2 0x11C5 PUSH1 0x80 DUP13 ADD SWAP6 PUSH2 0x11A4 DUP8 MLOAD SWAP1 JUMP JUMPDEST DUP6 MSTORE JUMP JUMPDEST SWAP2 MLOAD SWAP1 JUMP JUMPDEST SWAP2 PUSH2 0x11D7 PUSH2 0xC91 JUMP JUMPDEST PUSH2 0x2623 JUMP JUMPDEST PUSH2 0x1214 PUSH2 0x11EA PUSH1 0x20 DUP7 ADD MLOAD SWAP1 JUMP JUMPDEST PUSH2 0x11F4 PUSH1 0x6 PUSH2 0xBA3 JUMP JUMPDEST PUSH2 0x11FC PUSH2 0xCCC JUMP JUMPDEST SWAP2 PUSH2 0x120E PUSH2 0x1208 PUSH2 0xCF8 JUMP JUMPDEST SWAP3 PUSH2 0xD00 JUMP JUMPDEST SWAP3 PUSH2 0x268C JUMP JUMPDEST PUSH2 0xEFD JUMP JUMPDEST MLOAD PUSH1 0x20 DUP12 ADD MSTORE POP PUSH2 0x1227 SWAP1 POP JUMP JUMPDEST PUSH2 0x116F JUMP JUMPDEST SWAP2 SWAP4 POP SWAP2 POP DUP11 DUP3 SUB PUSH2 0x1263 JUMPI PUSH2 0x10F2 SWAP4 PUSH2 0x106E PUSH2 0x117A SWAP5 PUSH2 0x1067 PUSH2 0x11DC SWAP9 SWAP6 PUSH1 0x20 PUSH2 0x1077 SWAP7 PUSH2 0x125C PUSH2 0xF1E PUSH2 0x985 JUMP JUMPDEST SWAP2 SWAP4 PUSH2 0x105C JUMP JUMPDEST SWAP3 SWAP1 SWAP2 POP PUSH2 0xF76 JUMP JUMPDEST SWAP5 SWAP7 SWAP3 SWAP6 SWAP2 SWAP5 SWAP1 SWAP4 LT PUSH2 0x12F8 JUMPI POP POP DUP3 PUSH2 0x128C PUSH1 0x0 PUSH2 0xF40 DUP4 PUSH1 0x2 PUSH2 0x773 JUMP JUMPDEST ISZERO PUSH2 0x12C9 JUMPI POP POP PUSH2 0x10F2 SWAP4 PUSH2 0x106E PUSH2 0x117A SWAP5 PUSH2 0x1067 PUSH2 0x11DC SWAP9 SWAP6 PUSH1 0x20 PUSH2 0x12C3 PUSH2 0xFF8 PUSH2 0xFF3 PUSH2 0x12BD PUSH2 0x1077 SWAP11 PUSH2 0x87B JUMP JUMPDEST DUP6 PUSH2 0x89E JUMP JUMPDEST SWAP4 PUSH2 0x105C JUMP JUMPDEST PUSH2 0xFF8 SWAP3 SWAP6 SWAP5 POP PUSH2 0x12F2 SWAP4 POP PUSH2 0xFF3 SWAP2 PUSH2 0x12E2 SWAP2 PUSH2 0x89E JUMP JUMPDEST PUSH2 0x12EC DUP2 SWAP7 PUSH2 0x87B JUMP JUMPDEST SWAP1 PUSH2 0x89E JUMP JUMPDEST SWAP1 PUSH2 0xF76 JUMP JUMPDEST PUSH2 0x11DC SWAP8 SWAP5 POP PUSH2 0x1077 SWAP4 POP PUSH2 0x10F2 SWAP7 SWAP3 POP SWAP1 PUSH2 0x1067 PUSH2 0x106E SWAP3 PUSH1 0x20 PUSH2 0x117A SWAP9 PUSH2 0x1322 PUSH2 0xF1E PUSH2 0xAB3 JUMP JUMPDEST PUSH2 0x105C JUMP JUMPDEST PUSH2 0x11DC SWAP5 SWAP2 PUSH2 0x106E PUSH2 0x117A SWAP5 PUSH2 0x1067 PUSH2 0x10F2 SWAP8 PUSH1 0x20 PUSH2 0x1077 SWAP7 PUSH2 0x105C JUMP JUMPDEST SWAP2 DUP9 SWAP3 JUMPDEST DUP11 DUP4 GT PUSH2 0x1462 JUMPI POP PUSH2 0x135C PUSH2 0xF1E PUSH2 0x832 JUMP JUMPDEST PUSH2 0x136B PUSH2 0xF9F PUSH2 0xF9A DUP4 PUSH2 0x83A JUMP JUMPDEST PUSH2 0x1377 DUP3 PUSH2 0xFA7 PUSH2 0x873 JUMP JUMPDEST PUSH2 0x138E DUP8 PUSH1 0x4 DUP4 PUSH2 0x1388 PUSH1 0x1 PUSH2 0x87B JUMP JUMPDEST SWAP2 PUSH2 0x1B5D JUMP JUMPDEST DUP1 SWAP5 SWAP2 PUSH2 0x13AC PUSH2 0xFF8 PUSH2 0xFF3 PUSH2 0x13A6 PUSH3 0x800000 PUSH2 0x87B JUMP JUMPDEST DUP5 PUSH2 0x89E JUMP JUMPDEST SWAP2 ISZERO PUSH2 0x141D JUMPI DUP13 DUP3 GT ISZERO PUSH2 0x13E0 JUMPI POP POP PUSH2 0x10F2 SWAP4 PUSH2 0x106E PUSH2 0x117A SWAP5 PUSH2 0x1067 PUSH2 0x11DC SWAP9 SWAP6 PUSH1 0x20 PUSH2 0x1077 SWAP7 PUSH2 0x1322 PUSH2 0xF1E PUSH2 0x9D8 JUMP JUMPDEST SWAP2 SWAP4 POP SWAP2 POP DUP11 DUP3 SUB PUSH2 0x1410 JUMPI PUSH2 0x10F2 SWAP4 PUSH2 0x106E PUSH2 0x117A SWAP5 PUSH2 0x1067 PUSH2 0x11DC SWAP9 SWAP6 PUSH1 0x20 PUSH2 0x1077 SWAP7 PUSH2 0x125C PUSH2 0xF1E PUSH2 0x985 JUMP JUMPDEST SWAP3 SWAP1 SWAP2 POP JUMPDEST SWAP2 DUP9 SWAP3 PUSH2 0x1349 JUMP JUMPDEST SWAP3 SWAP1 SWAP5 SWAP4 SWAP2 PUSH2 0x1429 DUP14 SWAP1 JUMP JUMPDEST DUP7 LT ISZERO PUSH2 0x143A JUMPI POP POP POP SWAP2 SWAP1 PUSH2 0x1415 JUMP JUMPDEST PUSH2 0x10F2 SWAP6 POP PUSH2 0x11DC SWAP7 SWAP4 POP PUSH2 0x1077 SWAP3 PUSH2 0x1067 PUSH2 0x117A SWAP7 SWAP4 PUSH1 0x20 PUSH2 0x106E SWAP5 PUSH2 0x1322 PUSH2 0xF1E PUSH2 0x931 JUMP JUMPDEST PUSH2 0x1077 SWAP1 PUSH2 0x106E PUSH2 0x117A SWAP5 PUSH2 0x1067 PUSH2 0x11DC SWAP9 SWAP6 PUSH1 0x20 PUSH2 0x10F2 SWAP10 PUSH2 0x105C JUMP JUMPDEST POP SWAP3 POP SWAP1 SWAP3 POP JUMPDEST PUSH2 0x148F PUSH2 0x1999 JUMP JUMPDEST PUSH2 0x149A PUSH2 0xF1E PUSH2 0xD61 JUMP JUMPDEST PUSH2 0x14E9 PUSH2 0x14E2 PUSH1 0x20 DUP6 ADD PUSH2 0x14AF PUSH2 0x11EA DUP3 MLOAD SWAP1 JUMP JUMPDEST PUSH2 0x14CD PUSH2 0x14C6 PUSH1 0x40 DUP9 ADD MLOAD PUSH1 0x1 PUSH1 0x1 PUSH1 0x80 SHL SUB AND SWAP1 JUMP JUMPDEST PUSH1 0x5 PUSH2 0xD8E JUMP JUMPDEST PUSH2 0x11AD PUSH2 0x14DB DUP8 MLOAD PUSH1 0x3 SIGNEXTEND SWAP1 JUMP JUMPDEST PUSH1 0x1 PUSH2 0xDB1 JUMP JUMPDEST PUSH1 0x0 PUSH2 0xDD2 JUMP JUMPDEST ISZERO PUSH2 0x1522 JUMPI PUSH2 0x1504 PUSH1 0x60 PUSH2 0x14FE PUSH1 0x80 DUP6 ADD MLOAD SWAP1 JUMP JUMPDEST SWAP4 ADD MLOAD SWAP1 JUMP JUMPDEST SWAP1 JUMPDEST PUSH2 0xCA DUP3 DUP5 PUSH2 0x1513 PUSH2 0xE1C JUMP JUMPDEST SWAP1 PUSH2 0x151C PUSH2 0xE44 JUMP JUMPDEST SWAP2 PUSH2 0x268C JUMP JUMPDEST PUSH2 0x1532 PUSH1 0x80 PUSH2 0x14FE PUSH1 0x60 DUP6 ADD MLOAD SWAP1 JUMP JUMPDEST SWAP1 PUSH2 0x1506 JUMP JUMPDEST POP SWAP3 POP SWAP1 SWAP3 POP PUSH2 0x1487 JUMP JUMPDEST POP DUP3 ISZERO PUSH2 0x1557 JUMPI PUSH1 0x20 DUP5 ADD MLOAD DUP7 GT ISZERO PUSH2 0xF06 JUMP JUMPDEST PUSH1 0x20 DUP5 ADD MLOAD DUP7 LT ISZERO PUSH2 0xF06 JUMP JUMPDEST POP PUSH2 0xE95 PUSH2 0x1573 PUSH2 0xC3 PUSH2 0x676 JUMP JUMPDEST DUP9 LT ISZERO SWAP1 POP PUSH2 0xE8C JUMP JUMPDEST PUSH2 0x1588 PUSH2 0xC3 DUP7 MLOAD SWAP1 JUMP JUMPDEST DUP8 GT DUP1 PUSH2 0x1598 JUMPI PUSH2 0xE95 SWAP1 PUSH2 0x688 JUMP JUMPDEST POP PUSH2 0xE95 PUSH2 0x15A7 PUSH2 0xC3 PUSH2 0x659 JUMP JUMPDEST DUP9 GT ISZERO SWAP1 POP PUSH2 0xE8C JUMP JUMPDEST PUSH2 0xC3 PUSH3 0x8D89E8 PUSH2 0x87B JUMP JUMPDEST PUSH2 0xC3 PUSH3 0x727618 PUSH2 0x87B JUMP JUMPDEST PUSH2 0x128 PUSH2 0xC3 PUSH2 0xC3 SWAP3 SWAP1 JUMP JUMPDEST PUSH2 0xC3 SWAP1 PUSH2 0x15EA PUSH2 0xB91 PUSH2 0xC3 SWAP5 PUSH1 0xFF AND SWAP1 JUMP JUMPDEST SWAP1 SHL SWAP1 JUMP JUMPDEST PUSH2 0xB7 PUSH2 0xC3 PUSH2 0xC3 SWAP3 SWAP1 JUMP JUMPDEST PUSH2 0x160B SWAP1 PUSH1 0xFF AND JUMPDEST SWAP2 PUSH1 0xFF AND SWAP1 JUMP JUMPDEST SWAP1 SUB SWAP1 PUSH1 0xFF DUP3 GT PUSH2 0x8C6 JUMPI JUMP JUMPDEST PUSH2 0x1633 SWAP1 PUSH1 0x1 PUSH1 0x1 PUSH1 0x80 SHL SUB AND JUMPDEST SWAP2 PUSH1 0x1 PUSH1 0x1 PUSH1 0x80 SHL SUB AND SWAP1 JUMP JUMPDEST ADD SWAP1 PUSH1 0x1 PUSH1 0x1 PUSH1 0x80 SHL SUB DUP3 GT PUSH2 0x8C6 JUMPI JUMP JUMPDEST PUSH2 0xC3 SWAP1 PUSH2 0xBC2 JUMP JUMPDEST PUSH2 0xC3 SWAP1 PUSH2 0x1645 JUMP JUMPDEST SWAP1 DUP3 PUSH1 0x0 SWAP4 SWAP3 DUP3 CALLDATACOPY ADD MSTORE JUMP JUMPDEST SWAP2 SWAP1 PUSH2 0x1681 DUP2 PUSH2 0x167A DUP2 PUSH2 0x684 SWAP6 PUSH1 0x20 SWAP2 DUP2 MSTORE ADD SWAP1 JUMP JUMPDEST DUP1 SWAP6 PUSH2 0x1657 JUMP JUMPDEST PUSH1 0x1F ADD PUSH1 0x1F NOT AND SWAP1 JUMP JUMPDEST SWAP1 SWAP4 SWAP2 PUSH2 0xC3 SWAP6 SWAP4 PUSH2 0x16B5 PUSH2 0x16BC SWAP3 PUSH2 0x16AE PUSH1 0x80 DUP7 ADD SWAP9 PUSH1 0x0 DUP8 ADD SWAP1 PUSH1 0x3 SIGNEXTEND SWAP1 MSTORE JUMP JUMPDEST PUSH1 0x20 DUP6 ADD MSTORE JUMP JUMPDEST PUSH1 0x40 DUP4 ADD MSTORE JUMP JUMPDEST PUSH1 0x60 DUP2 DUP6 SUB SWAP2 ADD MSTORE PUSH2 0x1663 JUMP JUMPDEST PUSH1 0x40 MLOAD RETURNDATASIZE PUSH1 0x0 DUP3 RETURNDATACOPY RETURNDATASIZE SWAP1 REVERT JUMPDEST SWAP4 SWAP5 SWAP3 SWAP1 PUSH1 0x0 SWAP6 DUP7 SWAP4 PUSH2 0x16E9 PUSH2 0x196 PUSH2 0x15B1 JUMP JUMPDEST PUSH2 0x16F3 DUP5 PUSH1 0x3 SIGNEXTEND SWAP1 JUMP JUMPDEST SGT DUP1 ISZERO PUSH2 0x1947 JUMPI JUMPDEST PUSH2 0x1935 JUMPI PUSH1 0x0 SWAP5 PUSH2 0x170B DUP7 PUSH2 0x15C9 JUMP JUMPDEST PUSH1 0x1 PUSH1 0x1 PUSH1 0x80 SHL SUB DUP4 AND EQ PUSH2 0x1923 JUMPI PUSH2 0x1726 PUSH1 0x1 DUP8 ADD PUSH2 0x19C JUMP JUMPDEST SWAP9 PUSH2 0x1742 PUSH2 0xFF8 PUSH2 0xFF3 PUSH2 0x173C PUSH3 0x800000 PUSH2 0x87B JUMP JUMPDEST DUP9 PUSH2 0x89E JUMP JUMPDEST SWAP10 PUSH2 0x174D DUP2 PUSH1 0x3 SIGNEXTEND SWAP1 JUMP JUMPDEST PUSH2 0x1757 DUP8 PUSH1 0x3 SIGNEXTEND SWAP1 JUMP JUMPDEST SUB PUSH2 0x18BF JUMPI POP POP POP PUSH2 0x176E DUP6 PUSH2 0xF40 DUP6 PUSH1 0x2 PUSH2 0x773 JUMP JUMPDEST ISZERO PUSH2 0x186A JUMPI PUSH2 0x17CF SWAP1 PUSH2 0x17CA DUP5 PUSH2 0x179B PUSH2 0x1794 PUSH2 0x178B PUSH1 0x6 PUSH2 0xBA3 JUMP JUMPDEST SWAP13 JUMPDEST DUP14 DUP7 PUSH2 0x2723 JUMP JUMPDEST SWAP12 DUP5 PUSH2 0x275B JUMP JUMPDEST SWAP10 PUSH2 0x17B2 PUSH2 0x14C6 DUP6 PUSH2 0x17AD PUSH1 0x5 PUSH2 0x642 JUMP JUMPDEST PUSH2 0x1618 JUMP JUMPDEST PUSH2 0x17BE DUP5 DUP4 PUSH1 0x2 PUSH2 0x27E1 JUMP JUMPDEST PUSH2 0x1850 JUMPI JUMPDEST PUSH1 0x3 PUSH2 0x2924 JUMP JUMPDEST PUSH2 0x296E JUMP JUMPDEST PUSH2 0x17E0 PUSH2 0x17DB CALLER PUSH2 0x164E JUMP JUMPDEST PUSH2 0x164E JUMP JUMPDEST DUP1 EXTCODESIZE ISZERO PUSH2 0xB2 JUMPI DUP8 DUP6 DUP1 SWAP5 PUSH2 0x1813 DUP11 SWAP6 PUSH2 0x17F9 PUSH1 0x40 MLOAD SWAP1 JUMP JUMPDEST SWAP9 DUP10 SWAP8 DUP9 SWAP7 DUP8 SWAP6 PUSH4 0x196D73B7 PUSH1 0xE2 SHL DUP8 MSTORE PUSH1 0x4 DUP8 ADD PUSH2 0x168B JUMP JUMPDEST SUB SWAP3 GAS CALL DUP1 ISZERO PUSH2 0x184B JUMPI PUSH2 0x1825 JUMPI POP POP JUMP JUMPDEST DUP2 PUSH2 0xCA SWAP3 SWAP1 RETURNDATASIZE LT PUSH2 0x1844 JUMPI JUMPDEST PUSH2 0x183C DUP2 DUP4 PUSH2 0x5B9 JUMP JUMPDEST DUP2 ADD SWAP1 PUSH2 0xA7 JUMP JUMPDEST POP RETURNDATASIZE PUSH2 0x1832 JUMP JUMPDEST PUSH2 0x16C9 JUMP JUMPDEST PUSH2 0x1865 PUSH2 0x185D PUSH1 0x1 PUSH2 0x87B JUMP JUMPDEST DUP4 PUSH1 0x4 PUSH2 0x289C JUMP JUMPDEST PUSH2 0x17C3 JUMP JUMPDEST PUSH2 0x17CF SWAP1 PUSH2 0x17CA DUP5 PUSH2 0x179B PUSH2 0x1794 PUSH2 0x18BA SWAP13 PUSH2 0x18B1 PUSH2 0x18AC PUSH2 0x189D PUSH2 0x188D PUSH2 0xB73 JUMP JUMPDEST PUSH2 0x1897 PUSH1 0x1 PUSH2 0xB66 JUMP JUMPDEST SWAP1 PUSH2 0x15FC JUMP JUMPDEST PUSH2 0x18A7 PUSH1 0x1 PUSH2 0x64C JUMP JUMPDEST PUSH2 0x15D6 JUMP JUMPDEST PUSH2 0x15EF JUMP JUMPDEST SWAP14 DUP15 PUSH1 0x6 PUSH2 0xBD6 JUMP JUMPDEST PUSH2 0x178D JUMP JUMPDEST SWAP9 SWAP10 SWAP2 SWAP9 PUSH1 0x3 SIGNEXTEND PUSH2 0x18D0 DUP7 PUSH1 0x3 SIGNEXTEND SWAP1 JUMP JUMPDEST SGT ISZERO PUSH2 0x18F9 JUMPI POP SWAP1 PUSH2 0x17CA DUP5 PUSH2 0x18F3 PUSH2 0x17CF SWAP5 PUSH2 0x18EC DUP11 PUSH2 0x15EF JUMP JUMPDEST POP DUP5 PUSH2 0x26ED JUMP JUMPDEST SWAP11 PUSH2 0x17B2 JUMP JUMPDEST SWAP9 SWAP8 POP POP PUSH2 0x17CF SWAP1 PUSH2 0x190F PUSH2 0x18AC PUSH2 0x189D PUSH2 0xB73 JUMP JUMPDEST POP PUSH2 0x17CA DUP5 PUSH2 0x191D DUP4 PUSH2 0x26D0 JUMP JUMPDEST SWAP10 PUSH2 0x17B2 JUMP JUMPDEST PUSH1 0x40 MLOAD PUSH4 0x200E8A9 PUSH1 0xE3 SHL DUP2 MSTORE PUSH1 0x4 SWAP1 REVERT JUMPDEST PUSH1 0x40 MLOAD PUSH4 0x3944550F PUSH1 0xE2 SHL DUP2 MSTORE PUSH1 0x4 SWAP1 REVERT JUMPDEST POP PUSH2 0x1953 PUSH2 0x196 PUSH2 0x15BD JUMP JUMPDEST PUSH2 0x195D DUP5 PUSH1 0x3 SIGNEXTEND SWAP1 JUMP JUMPDEST SLT PUSH2 0x16FB JUMP JUMPDEST POP POP POP POP POP POP POP POP PUSH2 0x1973 PUSH1 0x0 SWAP1 JUMP JUMPDEST POP PUSH4 0xBC197C81 PUSH1 0xE0 SHL SWAP1 JUMP JUMPDEST POP POP POP POP POP POP PUSH2 0x198D PUSH1 0x0 SWAP1 JUMP JUMPDEST POP PUSH4 0xF23A6E61 PUSH1 0xE0 SHL SWAP1 JUMP JUMPDEST PUSH2 0xCA PUSH2 0x19A5 PUSH1 0x40 MLOAD SWAP1 JUMP JUMPDEST PUSH4 0x51973EC9 PUSH1 0xE0 SHL PUSH1 0x20 DUP3 ADD MSTORE PUSH2 0x19CA DUP2 PUSH1 0x24 DUP2 ADD JUMPDEST PUSH1 0x20 DUP3 ADD DUP2 SUB DUP3 MSTORE SUB DUP3 PUSH2 0x5B9 JUMP JUMPDEST PUSH2 0x2985 JUMP JUMPDEST PUSH1 0x0 JUMPDEST DUP4 DUP2 LT PUSH2 0x19E2 JUMPI POP POP PUSH1 0x0 SWAP2 ADD MSTORE JUMP JUMPDEST DUP2 DUP2 ADD MLOAD DUP4 DUP3 ADD MSTORE PUSH1 0x20 ADD PUSH2 0x19D2 JUMP JUMPDEST PUSH2 0x1A13 PUSH2 0x1681 PUSH1 0x20 SWAP4 PUSH2 0x684 SWAP4 PUSH2 0x1A07 DUP2 MLOAD SWAP1 JUMP JUMPDEST DUP1 DUP4 MSTORE SWAP4 DUP5 SWAP3 PUSH1 0x20 ADD SWAP1 JUMP JUMPDEST SWAP6 DUP7 SWAP2 ADD PUSH2 0x19CF JUMP JUMPDEST PUSH1 0x20 DUP1 DUP3 MSTORE PUSH2 0xC3 SWAP3 SWAP2 ADD SWAP1 PUSH2 0x19F2 JUMP JUMPDEST PUSH2 0x19BB PUSH2 0x19CA PUSH2 0xCA SWAP3 PUSH2 0x1A40 PUSH1 0x40 MLOAD SWAP1 JUMP JUMPDEST PUSH4 0x104C13EB PUSH1 0xE2 SHL PUSH1 0x20 DUP3 ADD MSTORE SWAP3 DUP4 SWAP2 PUSH1 0x24 DUP4 ADD PUSH2 0x1A1C JUMP JUMPDEST SWAP3 SWAP2 PUSH1 0x20 PUSH2 0x1A76 PUSH2 0xCA SWAP4 PUSH1 0x40 DUP8 ADD SWAP1 DUP8 DUP3 SUB PUSH1 0x0 DUP10 ADD MSTORE PUSH2 0x19F2 JUMP JUMPDEST SWAP5 ADD MSTORE JUMP JUMPDEST SWAP1 PUSH2 0x19CA PUSH2 0xCA SWAP3 PUSH2 0x19BB PUSH2 0x1A8F PUSH1 0x40 MLOAD SWAP1 JUMP JUMPDEST PUSH4 0x2D839CB3 PUSH1 0xE2 SHL PUSH1 0x20 DUP3 ADD MSTORE SWAP4 DUP5 SWAP3 PUSH1 0x24 DUP5 ADD PUSH2 0x1A59 JUMP JUMPDEST PUSH4 0x4E487B71 PUSH1 0xE0 SHL PUSH1 0x0 MSTORE PUSH1 0x12 PUSH1 0x4 MSTORE PUSH1 0x24 PUSH1 0x0 REVERT JUMPDEST PUSH2 0x1ACA SWAP1 PUSH1 0x3 SIGNEXTEND PUSH2 0x8A6 JUMP JUMPDEST SWAP1 DUP2 ISZERO PUSH2 0x1AE7 JUMPI PUSH4 0x7FFFFFFF NOT DUP2 EQ PUSH1 0x0 NOT DUP4 EQ AND PUSH2 0x8C6 JUMPI SDIV SWAP1 JUMP JUMPDEST PUSH2 0x1AA8 JUMP JUMPDEST PUSH2 0x1AF8 SWAP1 PUSH1 0x3 SIGNEXTEND PUSH2 0x8A6 JUMP JUMPDEST ADD SWAP1 PUSH4 0x7FFFFFFF DUP3 SGT PUSH4 0x7FFFFFFF NOT DUP4 SLT OR PUSH2 0x8C6 JUMPI JUMP JUMPDEST PUSH2 0x1B20 PUSH2 0xC3 PUSH2 0xC3 SWAP3 PUSH1 0xFF AND SWAP1 JUMP JUMPDEST PUSH4 0xFFFFFFFF AND SWAP1 JUMP JUMPDEST PUSH2 0x196 PUSH2 0xC3 PUSH2 0xC3 SWAP3 PUSH4 0xFFFFFFFF AND SWAP1 JUMP JUMPDEST PUSH2 0x1B48 SWAP1 PUSH1 0x3 SIGNEXTEND PUSH2 0x8A6 JUMP JUMPDEST MUL SWAP1 PUSH2 0x1B54 DUP3 PUSH1 0x3 SIGNEXTEND SWAP1 JUMP JUMPDEST SWAP2 DUP3 SUB PUSH2 0x8C6 JUMPI JUMP JUMPDEST SWAP3 SWAP2 SWAP1 DUP2 PUSH2 0x1B73 SWAP2 PUSH2 0x1B6D PUSH1 0x0 SWAP1 JUMP JUMPDEST POP PUSH2 0x1ABE JUMP JUMPDEST SWAP2 ISZERO PUSH2 0x1C08 JUMPI PUSH2 0x1BAD SWAP3 PUSH2 0x1BB2 PUSH2 0x1B89 DUP5 PUSH2 0x29CF JUMP JUMPDEST SWAP6 SWAP1 PUSH2 0x1BA7 PUSH2 0x1B98 PUSH1 0x1 PUSH2 0x64C JUMP JUMPDEST PUSH2 0x1BA2 DUP10 DUP3 PUSH2 0x15D6 JUMP JUMPDEST PUSH2 0xC07 JUMP JUMPDEST SWAP4 PUSH2 0x773 JUMP JUMPDEST PUSH2 0x187 JUMP JUMPDEST AND SWAP3 PUSH2 0x1BBE PUSH1 0x0 PUSH2 0x64C JUMP JUMPDEST DUP5 EQ DUP1 ISZERO SWAP5 SWAP1 PUSH2 0x1BF4 JUMPI SWAP3 PUSH2 0x12EC PUSH2 0x1BE7 PUSH2 0x1BE2 PUSH2 0x1BEC SWAP5 PUSH2 0x1897 PUSH2 0x1BF1 SWAP9 PUSH2 0x2C8B JUMP JUMPDEST PUSH2 0x1B10 JUMP JUMPDEST PUSH2 0x1B29 JUMP JUMPDEST PUSH2 0x1B3C JUMP JUMPDEST SWAP2 JUMP JUMPDEST POP PUSH2 0x1BF1 SWAP3 PUSH2 0x12EC PUSH2 0x1BE7 PUSH2 0x1BEC SWAP4 PUSH2 0x1B10 JUMP JUMPDEST PUSH2 0x1BAD PUSH1 0x1 SWAP4 PUSH2 0x1C4A PUSH2 0x1C2B PUSH2 0x1C26 PUSH2 0x1C20 DUP9 PUSH2 0x87B JUMP JUMPDEST DUP8 PUSH2 0x1AEC JUMP JUMPDEST PUSH2 0x29CF JUMP JUMPDEST SWAP4 SWAP1 PUSH2 0x1BA7 PUSH2 0x1C46 PUSH2 0x1C3C DUP11 PUSH2 0x64C JUMP JUMPDEST PUSH2 0x1BA2 DUP9 DUP3 PUSH2 0x15D6 JUMP JUMPDEST NOT SWAP1 JUMP JUMPDEST AND SWAP1 PUSH2 0x1C56 PUSH1 0x0 PUSH2 0x64C JUMP JUMPDEST DUP3 EQ DUP1 ISZERO SWAP6 SWAP1 PUSH2 0x1C92 JUMPI PUSH2 0x1BE7 PUSH2 0x1BE2 PUSH2 0x1BEC SWAP5 SWAP4 PUSH2 0x1C8D PUSH2 0x1C87 PUSH2 0x1BF1 SWAP10 PUSH2 0x1C81 PUSH2 0x1C81 SWAP8 PUSH2 0x87B JUMP JUMPDEST SWAP1 PUSH2 0x1AEC JUMP JUMPDEST SWAP6 PUSH2 0x2A43 JUMP JUMPDEST PUSH2 0x15FC JUMP JUMPDEST PUSH2 0x1BEC SWAP3 POP PUSH2 0x1BE7 PUSH2 0x1BE2 PUSH2 0x1CB0 PUSH2 0x1BF1 SWAP8 PUSH2 0x1C81 PUSH2 0x1C81 SWAP6 PUSH2 0x87B JUMP JUMPDEST SWAP4 PUSH1 0xFF PUSH2 0x15FC JUMP JUMPDEST PUSH2 0x8DB PUSH2 0xC3 PUSH2 0xC3 SWAP3 SWAP1 JUMP JUMPDEST PUSH2 0xC3 PUSH2 0xC3 PUSH2 0xC3 SWAP3 PUSH1 0x2 SIGNEXTEND SWAP1 JUMP JUMPDEST PUSH1 0x1 PUSH1 0xFF SHL DUP2 EQ PUSH2 0x8C6 JUMPI PUSH1 0x0 SUB SWAP1 JUMP JUMPDEST PUSH2 0xC3 PUSH3 0xD89E7 NOT PUSH2 0x1CB8 JUMP JUMPDEST PUSH1 0x2 SIGNEXTEND PUSH3 0x7FFFFF NOT DUP2 EQ PUSH2 0x8C6 JUMPI PUSH1 0x0 SUB SWAP1 JUMP JUMPDEST PUSH2 0xC3 PUSH2 0x1D12 PUSH2 0x1CE6 JUMP JUMPDEST PUSH2 0x1CF3 JUMP JUMPDEST PUSH2 0x1D27 PUSH2 0xC3 PUSH2 0xC3 SWAP3 PUSH1 0x2 SIGNEXTEND SWAP1 JUMP JUMPDEST PUSH3 0xFFFFFF AND SWAP1 JUMP JUMPDEST PUSH2 0xC3 PUSH2 0xC3 PUSH2 0xC3 SWAP3 PUSH3 0xFFFFFF AND SWAP1 JUMP JUMPDEST ISZERO PUSH2 0x1D48 JUMPI JUMP JUMPDEST PUSH1 0x40 MLOAD PUSH3 0x461BCD PUSH1 0xE5 SHL DUP2 MSTORE PUSH1 0x20 PUSH1 0x4 DUP3 ADD MSTORE PUSH1 0x1 PUSH1 0x24 DUP3 ADD MSTORE PUSH1 0x15 PUSH1 0xFA SHL PUSH1 0x44 DUP3 ADD MSTORE PUSH1 0x64 SWAP1 REVERT JUMPDEST PUSH2 0x1D7E PUSH2 0xC3 PUSH2 0xC3 SWAP3 SWAP1 JUMP JUMPDEST PUSH1 0x1 PUSH1 0x1 PUSH1 0x88 SHL SUB AND SWAP1 JUMP JUMPDEST PUSH2 0xC3 PUSH2 0xC3 PUSH2 0xC3 SWAP3 PUSH1 0x1 PUSH1 0x1 PUSH1 0x88 SHL SUB AND SWAP1 JUMP JUMPDEST DUP2 DUP2 MUL SWAP3 SWAP2 DUP2 ISZERO SWAP2 DUP5 DIV EQ OR ISZERO PUSH2 0x8C6 JUMPI JUMP JUMPDEST DUP2 ISZERO PUSH2 0x1AE7 JUMPI DIV SWAP1 JUMP JUMPDEST DUP2 ISZERO PUSH2 0x1AE7 JUMPI MOD SWAP1 JUMP JUMPDEST PUSH2 0xC3 PUSH2 0xC3 PUSH2 0xC3 SWAP3 PUSH1 0xFF AND SWAP1 JUMP JUMPDEST PUSH2 0x2151 PUSH2 0x214B PUSH2 0x213B PUSH2 0xC3 SWAP4 PUSH2 0x1DEC PUSH1 0x0 SWAP1 JUMP JUMPDEST POP PUSH1 0x0 PUSH2 0x1DF8 DUP2 PUSH2 0x1CB8 JUMP JUMPDEST PUSH2 0x1E02 DUP4 PUSH1 0x2 SIGNEXTEND SWAP1 JUMP JUMPDEST SLT ISZERO PUSH2 0x2493 JUMPI PUSH2 0x1E1C PUSH2 0xF9A PUSH2 0x1E17 DUP5 PUSH2 0x1CC5 JUMP JUMPDEST PUSH2 0x1CD5 JUMP JUMPDEST SWAP2 JUMPDEST PUSH2 0x1E44 PUSH2 0x1E3C PUSH2 0xC3 PUSH2 0x1E37 PUSH2 0x1E32 PUSH2 0x1D07 JUMP JUMPDEST PUSH2 0x1D17 JUMP JUMPDEST PUSH2 0x1D2F JUMP JUMPDEST DUP5 GT ISZERO PUSH2 0x1D41 JUMP JUMPDEST PUSH2 0x1E4E PUSH1 0x1 PUSH2 0x64C JUMP JUMPDEST DUP4 AND PUSH2 0x1E5C PUSH2 0xB91 DUP5 PUSH2 0x64C JUMP JUMPDEST EQ PUSH2 0x2483 JUMPI PUSH2 0x1E82 PUSH2 0x1E7D PUSH16 0xFFFCB933BD6FAD37AA2D162D1A594001 PUSH2 0x1D71 JUMP JUMPDEST PUSH2 0x1D8A JUMP JUMPDEST SWAP3 PUSH2 0x1E8D PUSH1 0x2 PUSH2 0x64C JUMP JUMPDEST DUP2 AND PUSH2 0x1E9B PUSH2 0xB91 DUP6 PUSH2 0x64C JUMP JUMPDEST SUB PUSH2 0x245C JUMPI JUMPDEST PUSH2 0x1EAB PUSH1 0x4 PUSH2 0x64C JUMP JUMPDEST DUP2 AND PUSH2 0x1EB9 PUSH2 0xB91 DUP6 PUSH2 0x64C JUMP JUMPDEST SUB PUSH2 0x2435 JUMPI JUMPDEST PUSH2 0x1EC9 PUSH1 0x8 PUSH2 0x64C JUMP JUMPDEST DUP2 AND PUSH2 0x1ED7 PUSH2 0xB91 DUP6 PUSH2 0x64C JUMP JUMPDEST SUB PUSH2 0x240E JUMPI JUMPDEST PUSH2 0x1EE7 PUSH1 0x10 PUSH2 0x64C JUMP JUMPDEST DUP2 AND PUSH2 0x1EF5 PUSH2 0xB91 DUP6 PUSH2 0x64C JUMP JUMPDEST SUB PUSH2 0x23E7 JUMPI JUMPDEST PUSH2 0x1F05 PUSH1 0x20 PUSH2 0x64C JUMP JUMPDEST DUP2 AND PUSH2 0x1F13 PUSH2 0xB91 DUP6 PUSH2 0x64C JUMP JUMPDEST SUB PUSH2 0x23C0 JUMPI JUMPDEST PUSH2 0x1F23 PUSH1 0x40 PUSH2 0x64C JUMP JUMPDEST DUP2 AND PUSH2 0x1F31 PUSH2 0xB91 DUP6 PUSH2 0x64C JUMP JUMPDEST SUB PUSH2 0x238F JUMPI JUMPDEST PUSH1 0x80 SWAP1 PUSH2 0x1F43 DUP3 PUSH2 0x64C JUMP JUMPDEST DUP2 AND PUSH2 0x1F51 PUSH2 0xB91 DUP7 PUSH2 0x64C JUMP JUMPDEST SUB PUSH2 0x2368 JUMPI JUMPDEST PUSH2 0x1F62 PUSH2 0x100 PUSH2 0x64C JUMP JUMPDEST DUP2 AND PUSH2 0x1F70 PUSH2 0xB91 DUP7 PUSH2 0x64C JUMP JUMPDEST SUB PUSH2 0x2341 JUMPI JUMPDEST PUSH2 0x1F81 PUSH2 0x200 PUSH2 0x64C JUMP JUMPDEST DUP2 AND PUSH2 0x1F8F PUSH2 0xB91 DUP7 PUSH2 0x64C JUMP JUMPDEST SUB PUSH2 0x231A JUMPI JUMPDEST PUSH2 0x1FA0 PUSH2 0x400 PUSH2 0x64C JUMP JUMPDEST DUP2 AND PUSH2 0x1FAE PUSH2 0xB91 DUP7 PUSH2 0x64C JUMP JUMPDEST SUB PUSH2 0x22F3 JUMPI JUMPDEST PUSH2 0x1FBF PUSH2 0x800 PUSH2 0x64C JUMP JUMPDEST DUP2 AND PUSH2 0x1FCD PUSH2 0xB91 DUP7 PUSH2 0x64C JUMP JUMPDEST SUB PUSH2 0x22CC JUMPI JUMPDEST PUSH2 0x1FDE PUSH2 0x1000 PUSH2 0x64C JUMP JUMPDEST DUP2 AND PUSH2 0x1FEC PUSH2 0xB91 DUP7 PUSH2 0x64C JUMP JUMPDEST SUB PUSH2 0x22A5 JUMPI JUMPDEST PUSH2 0x1FFD PUSH2 0x2000 PUSH2 0x64C JUMP JUMPDEST DUP2 AND PUSH2 0x200B PUSH2 0xB91 DUP7 PUSH2 0x64C JUMP JUMPDEST SUB PUSH2 0x227E JUMPI JUMPDEST PUSH2 0x201C PUSH2 0x4000 PUSH2 0x64C JUMP JUMPDEST DUP2 AND PUSH2 0x202A PUSH2 0xB91 DUP7 PUSH2 0x64C JUMP JUMPDEST SUB PUSH2 0x2257 JUMPI JUMPDEST PUSH2 0x203B PUSH2 0x8000 PUSH2 0x64C JUMP JUMPDEST DUP2 AND PUSH2 0x2049 PUSH2 0xB91 DUP7 PUSH2 0x64C JUMP JUMPDEST SUB PUSH2 0x2230 JUMPI JUMPDEST PUSH2 0x205B PUSH3 0x10000 PUSH2 0x64C JUMP JUMPDEST DUP2 AND PUSH2 0x2069 PUSH2 0xB91 DUP7 PUSH2 0x64C JUMP JUMPDEST SUB PUSH2 0x2209 JUMPI JUMPDEST PUSH2 0x207B PUSH3 0x20000 PUSH2 0x64C JUMP JUMPDEST DUP2 AND PUSH2 0x2089 PUSH2 0xB91 DUP7 PUSH2 0x64C JUMP JUMPDEST SUB PUSH2 0x21E3 JUMPI JUMPDEST PUSH2 0x209B PUSH3 0x40000 PUSH2 0x64C JUMP JUMPDEST DUP2 AND PUSH2 0x20A9 PUSH2 0xB91 DUP7 PUSH2 0x64C JUMP JUMPDEST SUB PUSH2 0x21B5 JUMPI JUMPDEST PUSH2 0x20BB PUSH3 0x80000 PUSH2 0x64C JUMP JUMPDEST AND PUSH2 0x20C8 PUSH2 0xB91 DUP6 PUSH2 0x64C JUMP JUMPDEST SUB PUSH2 0x2182 JUMPI JUMPDEST POP PUSH2 0x20E2 PUSH2 0x20DB DUP4 PUSH2 0x1CB8 JUMP JUMPDEST SWAP2 PUSH1 0x2 SIGNEXTEND SWAP1 JUMP JUMPDEST SGT PUSH2 0x216F JUMPI JUMPDEST PUSH2 0x2113 PUSH2 0x20FE PUSH2 0x20F8 PUSH1 0x20 PUSH2 0xB66 JUMP JUMPDEST DUP5 PUSH2 0xB7D JUMP JUMPDEST SWAP3 PUSH2 0x210D PUSH5 0x100000000 PUSH2 0x64C JUMP JUMPDEST SWAP1 PUSH2 0x1DBD JUMP JUMPDEST PUSH2 0x211F PUSH2 0xB91 DUP4 PUSH2 0x64C JUMP JUMPDEST SUB PUSH2 0x2161 JUMPI PUSH2 0x2130 PUSH2 0x2135 SWAP2 PUSH2 0xB66 JUMP JUMPDEST PUSH2 0x1DC7 JUMP JUMPDEST SWAP1 PUSH2 0xC14 JUMP JUMPDEST PUSH2 0x2145 PUSH1 0x50 PUSH2 0xB66 JUMP JUMPDEST SWAP1 PUSH2 0xB7D JUMP JUMPDEST DUP1 PUSH2 0x1DA0 JUMP JUMPDEST PUSH2 0x215B PUSH1 0x40 PUSH2 0xB66 JUMP JUMPDEST SWAP1 PUSH2 0x15D6 JUMP JUMPDEST POP PUSH2 0x2135 PUSH2 0x2130 PUSH1 0x1 PUSH2 0xB66 JUMP JUMPDEST SWAP1 PUSH2 0x217C SWAP1 PUSH1 0x0 NOT PUSH2 0x1DB3 JUMP JUMPDEST SWAP1 PUSH2 0x20E8 JUMP JUMPDEST PUSH2 0x2145 PUSH2 0x21A8 PUSH2 0x21AE SWAP4 SWAP6 PUSH2 0x21A2 PUSH12 0x91F7DC42448A170344E8FA2 PUSH2 0x64C JUMP JUMPDEST SWAP1 PUSH2 0x1DA0 JUMP JUMPDEST SWAP2 PUSH2 0xB66 JUMP JUMPDEST SWAP2 CODESIZE PUSH2 0x20CE JUMP JUMPDEST SWAP4 PUSH2 0x21D4 PUSH2 0x21DD SWAP2 PUSH2 0x21A2 PUSH14 0x2216E584F5FA1EA926041BEDFE98 PUSH2 0x64C JUMP JUMPDEST PUSH2 0x2145 DUP4 PUSH2 0xB66 JUMP JUMPDEST SWAP4 PUSH2 0x20AF JUMP JUMPDEST SWAP4 PUSH2 0x21D4 PUSH2 0x2203 SWAP2 PUSH2 0x21A2 PUSH15 0x5D6AF8DEDB81196699C329225EE604 PUSH2 0x64C JUMP JUMPDEST SWAP4 PUSH2 0x208F JUMP JUMPDEST SWAP4 PUSH2 0x21D4 PUSH2 0x222A SWAP2 PUSH2 0x21A2 PUSH16 0x9AA508B5B7A84E1C677DE54F3E99BC9 PUSH2 0x64C JUMP JUMPDEST SWAP4 PUSH2 0x206F JUMP JUMPDEST SWAP4 PUSH2 0x21D4 PUSH2 0x2251 SWAP2 PUSH2 0x21A2 PUSH16 0x31BE135F97D08FD981231505542FCFA6 PUSH2 0x64C JUMP JUMPDEST SWAP4 PUSH2 0x204F JUMP JUMPDEST SWAP4 PUSH2 0x21D4 PUSH2 0x2278 SWAP2 PUSH2 0x21A2 PUSH16 0x70D869A156D2A1B890BB3DF62BAF32F7 PUSH2 0x64C JUMP JUMPDEST SWAP4 PUSH2 0x2030 JUMP JUMPDEST SWAP4 PUSH2 0x21D4 PUSH2 0x229F SWAP2 PUSH2 0x21A2 PUSH16 0xA9F746462D870FDF8A65DC1F90E061E5 PUSH2 0x64C JUMP JUMPDEST SWAP4 PUSH2 0x2011 JUMP JUMPDEST SWAP4 PUSH2 0x21D4 PUSH2 0x22C6 SWAP2 PUSH2 0x21A2 PUSH16 0xD097F3BDFD2022B8845AD8F792AA5825 PUSH2 0x64C JUMP JUMPDEST SWAP4 PUSH2 0x1FF2 JUMP JUMPDEST SWAP4 PUSH2 0x21D4 PUSH2 0x22ED SWAP2 PUSH2 0x21A2 PUSH16 0xE7159475A2C29B7443B29C7FA6E889D9 PUSH2 0x64C JUMP JUMPDEST SWAP4 PUSH2 0x1FD3 JUMP JUMPDEST SWAP4 PUSH2 0x21D4 PUSH2 0x2314 SWAP2 PUSH2 0x21A2 PUSH16 0xF3392B0822B70005940C7A398E4B70F3 PUSH2 0x64C JUMP JUMPDEST SWAP4 PUSH2 0x1FB4 JUMP JUMPDEST SWAP4 PUSH2 0x21D4 PUSH2 0x233B SWAP2 PUSH2 0x21A2 PUSH16 0xF987A7253AC413176F2B074CF7815E54 PUSH2 0x64C JUMP JUMPDEST SWAP4 PUSH2 0x1F95 JUMP JUMPDEST SWAP4 PUSH2 0x21D4 PUSH2 0x2362 SWAP2 PUSH2 0x21A2 PUSH16 0xFCBE86C7900A88AEDCFFC83B479AA3A4 PUSH2 0x64C JUMP JUMPDEST SWAP4 PUSH2 0x1F76 JUMP JUMPDEST SWAP4 PUSH2 0x21D4 PUSH2 0x2389 SWAP2 PUSH2 0x21A2 PUSH16 0xFE5DEE046A99A2A811C461F1969C3053 PUSH2 0x64C JUMP JUMPDEST SWAP4 PUSH2 0x1F57 JUMP JUMPDEST SWAP3 PUSH2 0x23B0 PUSH2 0x23BA SWAP2 PUSH2 0x21A2 PUSH16 0xFF2EA16466C96A3843EC78B326B52861 PUSH2 0x64C JUMP JUMPDEST PUSH2 0x2145 PUSH1 0x80 PUSH2 0xB66 JUMP JUMPDEST SWAP3 PUSH2 0x1F37 JUMP JUMPDEST SWAP3 PUSH2 0x23B0 PUSH2 0x23E1 SWAP2 PUSH2 0x21A2 PUSH16 0xFF973B41FA98C081472E6896DFB254C0 PUSH2 0x64C JUMP JUMPDEST SWAP3 PUSH2 0x1F19 JUMP JUMPDEST SWAP3 PUSH2 0x23B0 PUSH2 0x2408 SWAP2 PUSH2 0x21A2 PUSH16 0xFFCB9843D60F6159C9DB58835C926644 PUSH2 0x64C JUMP JUMPDEST SWAP3 PUSH2 0x1EFB JUMP JUMPDEST SWAP3 PUSH2 0x23B0 PUSH2 0x242F SWAP2 PUSH2 0x21A2 PUSH16 0xFFE5CACA7E10E4E61C3624EAA0941CD0 PUSH2 0x64C JUMP JUMPDEST SWAP3 PUSH2 0x1EDD JUMP JUMPDEST SWAP3 PUSH2 0x23B0 PUSH2 0x2456 SWAP2 PUSH2 0x21A2 PUSH16 0xFFF2E50F5F656932EF12357CF3C7FDCC PUSH2 0x64C JUMP JUMPDEST SWAP3 PUSH2 0x1EBF JUMP JUMPDEST SWAP3 PUSH2 0x23B0 PUSH2 0x247D SWAP2 PUSH2 0x21A2 PUSH16 0xFFF97272373D413259A46990580E213A PUSH2 0x64C JUMP JUMPDEST SWAP3 PUSH2 0x1EA1 JUMP JUMPDEST PUSH2 0x1E82 PUSH2 0x1E7D PUSH1 0x1 PUSH1 0x80 SHL PUSH2 0x1D71 JUMP JUMPDEST PUSH2 0x249F PUSH2 0xF9A DUP4 PUSH2 0x1CC5 JUMP JUMPDEST SWAP2 PUSH2 0x1E1E JUMP JUMPDEST PUSH2 0x24C0 SWAP1 PUSH1 0x1 PUSH1 0x1 PUSH1 0xA0 SHL SUB AND JUMPDEST SWAP2 PUSH1 0x1 PUSH1 0x1 PUSH1 0xA0 SHL SUB AND SWAP1 JUMP JUMPDEST SWAP1 SUB SWAP1 PUSH1 0x1 PUSH1 0x1 PUSH1 0xA0 SHL SUB DUP3 GT PUSH2 0x8C6 JUMPI JUMP JUMPDEST PUSH2 0x24E5 SWAP1 PUSH1 0x1 PUSH1 0x1 PUSH1 0xA0 SHL SUB AND PUSH2 0x24B3 JUMP JUMPDEST ADD SWAP1 PUSH1 0x1 PUSH1 0x1 PUSH1 0xA0 SHL SUB DUP3 GT PUSH2 0x8C6 JUMPI JUMP JUMPDEST SWAP5 SWAP2 SWAP4 PUSH1 0x0 SWAP4 DUP2 ISZERO PUSH2 0x25E5 JUMPI PUSH2 0x250D DUP7 DUP5 PUSH2 0x275B JUMP JUMPDEST DUP5 LT ISZERO PUSH2 0x2578 JUMPI POP DUP6 SWAP1 DUP4 SWAP5 POP PUSH1 0x0 EQ PUSH2 0x255A JUMPI PUSH2 0x2550 SWAP1 PUSH2 0x2532 PUSH2 0x2556 SWAP5 DUP5 PUSH2 0x2E9D JUMP JUMPDEST SWAP3 PUSH2 0x254A DUP5 PUSH2 0x2545 PUSH2 0x18AC PUSH2 0x189D PUSH2 0xB73 JUMP JUMPDEST PUSH2 0x24A5 JUMP JUMPDEST SWAP1 PUSH2 0x2E0F JUMP JUMPDEST SWAP4 PUSH2 0x24A5 JUMP JUMPDEST SWAP3 SWAP4 JUMP JUMPDEST PUSH2 0x256B PUSH2 0x2556 SWAP4 DUP4 PUSH2 0x2572 SWAP4 PUSH2 0x2E62 JUMP JUMPDEST DUP1 SWAP3 PUSH2 0x275B JUMP JUMPDEST SWAP4 PUSH2 0x24D3 JUMP JUMPDEST SWAP6 SWAP3 POP SWAP1 SWAP4 SWAP3 POP PUSH1 0x0 EQ PUSH2 0x25B6 JUMPI PUSH2 0x25AC SWAP2 SWAP1 PUSH2 0x25A6 SWAP1 PUSH2 0x25A0 DUP4 PUSH2 0x2545 PUSH1 0x1 PUSH1 0x60 SHL PUSH2 0x15EF JUMP JUMPDEST DUP6 PUSH2 0x2E0F JUMP JUMPDEST SWAP3 PUSH2 0x275B JUMP JUMPDEST PUSH2 0x2556 PUSH1 0x1 PUSH2 0x15EF JUMP JUMPDEST DUP2 PUSH2 0x25D5 PUSH2 0x25CF PUSH2 0x25DB SWAP5 PUSH2 0x2545 PUSH2 0x18AC PUSH2 0x189D PUSH2 0xB73 JUMP JUMPDEST DUP6 PUSH2 0x275B JUMP JUMPDEST SWAP4 PUSH2 0x2E0F JUMP JUMPDEST PUSH2 0x2556 PUSH1 0x0 PUSH2 0x15EF JUMP JUMPDEST PUSH2 0x25F0 DUP8 DUP8 DUP6 PUSH2 0x2E0F JUMP JUMPDEST PUSH2 0x250D JUMP JUMPDEST PUSH2 0x2F1 PUSH2 0xCA SWAP5 PUSH2 0x16B5 PUSH2 0x261B PUSH1 0x60 SWAP6 SWAP10 SWAP9 SWAP7 SWAP10 PUSH1 0x80 DUP7 ADD SWAP1 DUP7 DUP3 SUB PUSH1 0x0 DUP9 ADD MSTORE PUSH2 0x19F2 JUMP JUMPDEST SWAP9 PUSH1 0x20 DUP6 ADD MSTORE JUMP JUMPDEST PUSH2 0x19BB PUSH2 0xCA SWAP5 PUSH2 0x19CA SWAP4 SWAP5 PUSH2 0x2638 PUSH1 0x40 MLOAD SWAP1 JUMP JUMPDEST PUSH4 0xA7A87853 PUSH1 0xE0 SHL PUSH1 0x20 DUP3 ADD MSTORE SWAP6 DUP7 SWAP5 PUSH1 0x24 DUP7 ADD PUSH2 0x25F5 JUMP JUMPDEST SWAP5 SWAP4 SWAP2 PUSH2 0x1A76 SWAP1 PUSH2 0xCA SWAP5 PUSH2 0x267F PUSH2 0x2677 PUSH1 0x60 SWAP6 PUSH1 0x80 DUP12 ADD SWAP1 DUP12 DUP3 SUB PUSH1 0x0 DUP14 ADD MSTORE PUSH2 0x19F2 JUMP JUMPDEST SWAP3 PUSH1 0x20 DUP11 ADD MSTORE JUMP JUMPDEST DUP8 DUP3 SUB PUSH1 0x40 DUP10 ADD MSTORE PUSH2 0x19F2 JUMP JUMPDEST PUSH2 0x19BB PUSH2 0xCA SWAP5 PUSH2 0x19CA SWAP4 SWAP5 PUSH2 0x26A1 PUSH1 0x40 MLOAD SWAP1 JUMP JUMPDEST PUSH4 0xC67EA9D1 PUSH1 0xE0 SHL PUSH1 0x20 DUP3 ADD MSTORE SWAP6 DUP7 SWAP5 PUSH1 0x24 DUP7 ADD PUSH2 0x2651 JUMP JUMPDEST PUSH2 0xC3 PUSH2 0xC3 PUSH2 0xC3 SWAP3 PUSH1 0x1 PUSH1 0x1 PUSH1 0x80 SHL SUB AND SWAP1 JUMP JUMPDEST PUSH2 0x26E5 PUSH2 0xC3 SWAP2 PUSH2 0x26DF PUSH1 0x0 SWAP1 JUMP JUMPDEST POP PUSH2 0x26BA JUMP JUMPDEST PUSH2 0x215B PUSH2 0xB73 JUMP JUMPDEST SWAP1 PUSH2 0x26FD PUSH2 0xC3 SWAP3 PUSH2 0x26DF PUSH1 0x0 SWAP1 JUMP JUMPDEST PUSH2 0x271D PUSH2 0x2712 PUSH2 0x270B PUSH2 0xB73 JUMP JUMPDEST DUP1 SWAP4 PUSH2 0x15D6 JUMP JUMPDEST SWAP2 PUSH2 0x18A7 PUSH1 0x1 PUSH2 0x64C JUMP JUMPDEST SWAP1 PUSH2 0x2EC7 JUMP JUMPDEST PUSH2 0x2755 PUSH2 0x2750 PUSH2 0xC3 SWAP5 SWAP4 PUSH2 0x2736 PUSH1 0x0 SWAP1 JUMP JUMPDEST POP PUSH2 0x2550 PUSH2 0x26E5 PUSH2 0x274A PUSH1 0x1 PUSH1 0x60 SHL PUSH2 0x15EF JUMP JUMPDEST SWAP6 PUSH2 0x26BA JUMP JUMPDEST PUSH2 0xD00 JUMP JUMPDEST SWAP1 PUSH2 0x300B JUMP JUMPDEST SWAP1 PUSH2 0x276B PUSH2 0xC3 SWAP3 PUSH2 0x26DF PUSH1 0x0 SWAP1 JUMP JUMPDEST PUSH2 0x271D PUSH2 0x1208 PUSH2 0x2783 PUSH2 0x277C PUSH2 0xB73 JUMP JUMPDEST DUP1 SWAP5 PUSH2 0x15D6 JUMP JUMPDEST SWAP3 PUSH2 0x18A7 PUSH1 0x1 PUSH2 0x64C JUMP JUMPDEST SWAP1 PUSH1 0xFF SWAP1 PUSH2 0xBB8 JUMP JUMPDEST SWAP1 PUSH2 0x27A7 PUSH2 0xC3 PUSH2 0xBED SWAP3 ISZERO ISZERO SWAP1 JUMP JUMPDEST DUP3 SLOAD PUSH2 0x278E JUMP JUMPDEST SWAP1 PUSH17 0xFFFFFFFFFFFFFFFFFFFFFFFFFFFFFFFF00 SWAP1 PUSH1 0x8 SHL PUSH2 0xBB8 JUMP JUMPDEST SWAP1 PUSH2 0x27DA PUSH2 0xC3 PUSH2 0xBED SWAP3 PUSH2 0xD78 JUMP JUMPDEST DUP3 SLOAD PUSH2 0x27AE JUMP JUMPDEST PUSH2 0xC3 PUSH2 0xCA SWAP3 PUSH2 0x27FD SWAP3 SWAP6 SWAP5 SWAP6 PUSH2 0x27F7 PUSH1 0x0 SWAP1 JUMP JUMPDEST POP PUSH2 0x773 JUMP JUMPDEST SWAP3 PUSH2 0x2807 DUP5 PUSH2 0xBFD JUMP JUMPDEST PUSH1 0x0 SWAP5 DUP6 SWAP2 PUSH2 0x2818 PUSH2 0x1626 DUP5 PUSH2 0x15C9 JUMP JUMPDEST EQ PUSH2 0x286C JUMPI JUMPDEST ADD SWAP4 PUSH2 0x2864 PUSH2 0x285E PUSH2 0x2839 PUSH2 0x2832 DUP9 PUSH2 0xBFD JUMP JUMPDEST SWAP5 DUP6 PUSH2 0x1618 JUMP JUMPDEST SWAP4 PUSH2 0x285A PUSH2 0x1626 PUSH2 0x2849 DUP7 PUSH2 0x15C9 JUMP JUMPDEST PUSH1 0x1 PUSH1 0x1 PUSH1 0x80 SHL SUB DUP9 AND EQ SWAP6 PUSH2 0x15C9 JUMP JUMPDEST EQ SWAP1 JUMP JUMPDEST SWAP2 ISZERO ISZERO SWAP1 JUMP JUMPDEST EQ ISZERO SWAP4 PUSH2 0x27CA JUMP JUMPDEST PUSH2 0x2879 PUSH1 0x1 DUP4 DUP4 ADD PUSH2 0x2797 JUMP JUMPDEST PUSH2 0x281E JUMP JUMPDEST PUSH2 0x288A SWAP1 PUSH1 0x3 SIGNEXTEND PUSH2 0x8A6 JUMP JUMPDEST SWAP1 DUP2 ISZERO PUSH2 0x1AE7 JUMPI SMOD SWAP1 JUMP JUMPDEST ISZERO PUSH2 0xB2 JUMPI JUMP JUMPDEST SWAP1 PUSH2 0x28D7 PUSH2 0x28CA PUSH2 0x28DD SWAP3 PUSH2 0x1C26 PUSH2 0x28B7 PUSH2 0xCA SWAP8 DUP4 PUSH2 0x287E JUMP JUMPDEST PUSH2 0x28C4 PUSH2 0x8A6 PUSH1 0x0 PUSH2 0x87B JUMP JUMPDEST EQ PUSH2 0x2895 JUMP JUMPDEST PUSH2 0x18A7 PUSH1 0x1 SWAP4 SWAP3 SWAP4 PUSH2 0x64C JUMP JUMPDEST SWAP3 PUSH2 0x773 JUMP JUMPDEST SWAP1 PUSH2 0x28E7 DUP3 PUSH2 0x187 JUMP JUMPDEST XOR SWAP1 PUSH2 0xDD2 JUMP JUMPDEST PUSH2 0xC6 SWAP1 PUSH1 0x1 PUSH1 0x1 PUSH1 0xA0 SHL SUB AND PUSH1 0x60 SHL SWAP1 JUMP JUMPDEST PUSH1 0x14 DUP2 PUSH2 0x2914 PUSH2 0x684 SWAP4 PUSH1 0x4 SWAP7 SWAP6 PUSH2 0x28EE JUMP JUMPDEST ADD DUP1 SWAP3 PUSH1 0xE0 SHL SWAP1 MSTORE JUMP JUMPDEST SWAP1 PUSH2 0x77D JUMP JUMPDEST PUSH2 0x2949 PUSH2 0x2955 PUSH2 0xC3 SWAP5 PUSH2 0xC3 SWAP5 PUSH2 0x293B PUSH1 0x40 MLOAD SWAP1 JUMP JUMPDEST SWAP4 DUP5 SWAP3 PUSH1 0x20 DUP5 ADD SWAP3 DUP4 PUSH2 0x2901 JUMP JUMPDEST SWAP1 DUP2 SUB DUP3 MSTORE SUB DUP3 PUSH2 0x5B9 JUMP JUMPDEST PUSH2 0x2967 PUSH2 0x2960 DUP3 MLOAD SWAP1 JUMP JUMPDEST SWAP2 PUSH1 0x20 ADD SWAP1 JUMP JUMPDEST KECCAK256 SWAP1 PUSH2 0x291E JUMP JUMPDEST PUSH2 0xCA SWAP2 PUSH2 0x297F SWAP1 PUSH2 0x17AD DUP4 PUSH2 0x642 JUMP JUMPDEST SWAP1 PUSH2 0xD8E JUMP JUMPDEST PUSH2 0xCA SWAP1 PUSH1 0x1 PUSH2 0x308E JUMP JUMPDEST PUSH2 0x196 SWAP1 PUSH2 0x29A4 PUSH2 0x8A6 PUSH2 0xC3 SWAP5 PUSH1 0xFF AND SWAP1 JUMP JUMPDEST SWAP1 SAR SWAP1 JUMP JUMPDEST PUSH2 0x29B9 PUSH2 0xC3 PUSH2 0xC3 SWAP3 PUSH1 0x3 SIGNEXTEND SWAP1 JUMP JUMPDEST PUSH1 0x0 SIGNEXTEND SWAP1 JUMP JUMPDEST PUSH2 0x790 PUSH2 0xC3 PUSH2 0xC3 SWAP3 PUSH1 0x0 SIGNEXTEND SWAP1 JUMP JUMPDEST SWAP1 PUSH2 0xC3 PUSH2 0x2A03 PUSH2 0x29FE PUSH2 0x29EC PUSH2 0x29E6 PUSH1 0x8 PUSH2 0xB66 JUMP JUMPDEST DUP7 PUSH2 0x2990 JUMP JUMPDEST SWAP5 PUSH2 0x29F8 PUSH2 0x100 PUSH2 0x87B JUMP JUMPDEST SWAP1 PUSH2 0x287E JUMP JUMPDEST PUSH2 0x29A9 JUMP JUMPDEST PUSH2 0x29BF JUMP JUMPDEST PUSH2 0xC3 PUSH2 0xC3 PUSH2 0xC3 SWAP3 PUSH8 0xFFFFFFFFFFFFFFFF AND SWAP1 JUMP JUMPDEST PUSH2 0xC3 PUSH2 0xC3 PUSH2 0xC3 SWAP3 PUSH4 0xFFFFFFFF AND SWAP1 JUMP JUMPDEST PUSH2 0xC3 PUSH2 0xC3 PUSH2 0xC3 SWAP3 PUSH2 0xFFFF AND SWAP1 JUMP JUMPDEST SWAP1 PUSH1 0x0 PUSH2 0x2A5A PUSH2 0x2A52 DUP3 PUSH2 0x64C JUMP JUMPDEST DUP5 JUMPDEST GT PUSH2 0x2895 JUMP JUMPDEST PUSH2 0x2A64 PUSH1 0xFF PUSH2 0xB66 JUMP JUMPDEST DUP1 PUSH2 0x2A75 PUSH1 0x1 PUSH1 0x1 PUSH1 0x80 SHL SUB PUSH2 0x26BA JUMP JUMPDEST DUP6 AND PUSH2 0x2A83 PUSH2 0xB91 DUP6 PUSH2 0x64C JUMP JUMPDEST GT ISZERO PUSH2 0x2C5D JUMPI POP PUSH2 0x2A98 SWAP1 PUSH2 0x1897 PUSH1 0x80 PUSH2 0xB66 JUMP JUMPDEST PUSH2 0x2AA9 PUSH8 0xFFFFFFFFFFFFFFFF PUSH2 0x2A08 JUMP JUMPDEST DUP5 AND PUSH2 0x2AB7 PUSH2 0xB91 DUP5 PUSH2 0x64C JUMP JUMPDEST GT ISZERO PUSH2 0x2C48 JUMPI PUSH2 0x2ACB SWAP1 PUSH2 0x1897 PUSH1 0x40 PUSH2 0xB66 JUMP JUMPDEST PUSH2 0x2AD8 PUSH4 0xFFFFFFFF PUSH2 0x2A1F JUMP JUMPDEST DUP5 AND PUSH2 0x2AE6 PUSH2 0xB91 DUP5 PUSH2 0x64C JUMP JUMPDEST GT ISZERO PUSH2 0x2C33 JUMPI PUSH2 0x2AFA SWAP1 PUSH2 0x1897 PUSH1 0x20 PUSH2 0xB66 JUMP JUMPDEST PUSH2 0x2B05 PUSH2 0xFFFF PUSH2 0x2A32 JUMP JUMPDEST DUP5 AND PUSH2 0x2B13 PUSH2 0xB91 DUP5 PUSH2 0x64C JUMP JUMPDEST GT ISZERO PUSH2 0x2C1E JUMPI PUSH2 0x2B27 SWAP1 PUSH2 0x1897 PUSH1 0x10 PUSH2 0xB66 JUMP JUMPDEST PUSH2 0x2B31 PUSH1 0xFF PUSH2 0x1DC7 JUMP JUMPDEST DUP5 AND PUSH2 0x2B3F PUSH2 0xB91 DUP5 PUSH2 0x64C JUMP JUMPDEST GT ISZERO PUSH2 0x2C09 JUMPI PUSH2 0x2B53 SWAP1 PUSH2 0x1897 PUSH1 0x8 PUSH2 0xB66 JUMP JUMPDEST PUSH2 0x2B5D PUSH1 0xF PUSH2 0x64C JUMP JUMPDEST DUP5 AND PUSH2 0x2B6B PUSH2 0xB91 DUP5 PUSH2 0x64C JUMP JUMPDEST GT ISZERO PUSH2 0x2BF4 JUMPI PUSH2 0x2B7F SWAP1 PUSH2 0x1897 PUSH1 0x4 PUSH2 0xB66 JUMP JUMPDEST PUSH2 0x2B89 PUSH1 0x3 PUSH2 0x64C JUMP JUMPDEST DUP5 AND PUSH2 0x2B97 PUSH2 0xB91 DUP5 PUSH2 0x64C JUMP JUMPDEST GT ISZERO PUSH2 0x2BDA JUMPI PUSH2 0xB91 PUSH2 0x2BB1 PUSH2 0x2BC4 SWAP3 PUSH2 0x1897 PUSH1 0x2 PUSH2 0xB66 JUMP JUMPDEST SWAP5 JUMPDEST PUSH2 0x2BBD PUSH1 0x1 PUSH2 0x64C JUMP JUMPDEST AND SWAP3 PUSH2 0x64C JUMP JUMPDEST GT PUSH2 0x2BCB JUMPI JUMP JUMPDEST SWAP1 PUSH2 0xC3 SWAP1 PUSH2 0x1897 PUSH1 0x1 PUSH2 0xB66 JUMP JUMPDEST SWAP3 PUSH2 0xB91 PUSH2 0x2BEF PUSH2 0x2BC4 SWAP3 PUSH2 0x2145 PUSH1 0x2 PUSH2 0xB66 JUMP JUMPDEST PUSH2 0x2BB3 JUMP JUMPDEST SWAP3 PUSH2 0x2C03 SWAP1 PUSH2 0x2145 PUSH1 0x4 PUSH2 0xB66 JUMP JUMPDEST SWAP3 PUSH2 0x2B7F JUMP JUMPDEST SWAP3 PUSH2 0x2C18 SWAP1 PUSH2 0x2145 PUSH1 0x8 PUSH2 0xB66 JUMP JUMPDEST SWAP3 PUSH2 0x2B53 JUMP JUMPDEST SWAP3 PUSH2 0x2C2D SWAP1 PUSH2 0x2145 PUSH1 0x10 PUSH2 0xB66 JUMP JUMPDEST SWAP3 PUSH2 0x2B27 JUMP JUMPDEST SWAP3 PUSH2 0x2C42 SWAP1 PUSH2 0x2145 PUSH1 0x20 PUSH2 0xB66 JUMP JUMPDEST SWAP3 PUSH2 0x2AFA JUMP JUMPDEST SWAP3 PUSH2 0x2C57 SWAP1 PUSH2 0x2145 PUSH1 0x40 PUSH2 0xB66 JUMP JUMPDEST SWAP3 PUSH2 0x2ACB JUMP JUMPDEST SWAP4 PUSH2 0x2C6D SWAP2 POP PUSH2 0x2145 PUSH1 0x80 PUSH2 0xB66 JUMP JUMPDEST SWAP3 PUSH2 0x2A98 JUMP JUMPDEST PUSH2 0x2C7F SWAP1 PUSH1 0xFF AND PUSH2 0x1604 JUMP JUMPDEST ADD SWAP1 PUSH1 0xFF DUP3 GT PUSH2 0x8C6 JUMPI JUMP JUMPDEST SWAP1 PUSH1 0x0 SWAP2 DUP3 PUSH2 0x2CA3 PUSH2 0x2C9D PUSH1 0x0 PUSH2 0x64C JUMP JUMPDEST DUP4 PUSH2 0x2A54 JUMP JUMPDEST PUSH2 0x2CB0 PUSH1 0x1 PUSH1 0x80 SHL PUSH2 0x64C JUMP JUMPDEST DUP3 LT ISZERO PUSH2 0x2DF5 JUMPI JUMPDEST POP PUSH2 0x2CCB PUSH9 0x10000000000000000 PUSH2 0x64C JUMP JUMPDEST DUP2 LT ISZERO PUSH2 0x2DDE JUMPI JUMPDEST PUSH2 0x2CE1 PUSH5 0x100000000 PUSH2 0x64C JUMP JUMPDEST DUP2 LT ISZERO PUSH2 0x2DC7 JUMPI JUMPDEST PUSH2 0x2CF5 PUSH3 0x10000 PUSH2 0x64C JUMP JUMPDEST DUP2 LT ISZERO PUSH2 0x2DB0 JUMPI JUMPDEST PUSH2 0x2D08 PUSH2 0x100 PUSH2 0x64C JUMP JUMPDEST DUP2 LT ISZERO PUSH2 0x2D99 JUMPI JUMPDEST PUSH2 0x2D1A PUSH1 0x10 PUSH2 0x64C JUMP JUMPDEST DUP2 LT ISZERO PUSH2 0x2D82 JUMPI JUMPDEST PUSH2 0x2D2C PUSH1 0x4 PUSH2 0x64C JUMP JUMPDEST DUP2 LT ISZERO PUSH2 0x2D5E JUMPI JUMPDEST PUSH2 0x2D41 PUSH2 0xB91 PUSH1 0x2 PUSH2 0x64C JUMP JUMPDEST LT ISZERO PUSH2 0x2D49 JUMPI JUMP JUMPDEST SWAP1 PUSH2 0xC3 SWAP1 PUSH2 0x2D58 PUSH1 0x1 PUSH2 0xB66 JUMP JUMPDEST SWAP1 PUSH2 0x2C73 JUMP JUMPDEST PUSH2 0x2D7C SWAP1 PUSH2 0x2D76 PUSH2 0x2D6F PUSH1 0x2 PUSH2 0xB66 JUMP JUMPDEST DUP1 SWAP3 PUSH2 0xB7D JUMP JUMPDEST SWAP4 PUSH2 0x2C73 JUMP JUMPDEST SWAP2 PUSH2 0x2D34 JUMP JUMPDEST PUSH2 0x2D93 SWAP1 PUSH2 0x2D76 PUSH2 0x2D6F PUSH1 0x4 PUSH2 0xB66 JUMP JUMPDEST SWAP2 PUSH2 0x2D22 JUMP JUMPDEST PUSH2 0x2DAA SWAP1 PUSH2 0x2D76 PUSH2 0x2D6F PUSH1 0x8 PUSH2 0xB66 JUMP JUMPDEST SWAP2 PUSH2 0x2D10 JUMP JUMPDEST PUSH2 0x2DC1 SWAP1 PUSH2 0x2D76 PUSH2 0x2D6F PUSH1 0x10 PUSH2 0xB66 JUMP JUMPDEST SWAP2 PUSH2 0x2CFD JUMP JUMPDEST PUSH2 0x2DD8 SWAP1 PUSH2 0x2D76 PUSH2 0x2D6F PUSH1 0x20 PUSH2 0xB66 JUMP JUMPDEST SWAP2 PUSH2 0x2CE9 JUMP JUMPDEST PUSH2 0x2DEF SWAP1 PUSH2 0x2D76 PUSH2 0x2D6F PUSH1 0x40 PUSH2 0xB66 JUMP JUMPDEST SWAP2 PUSH2 0x2CD3 JUMP JUMPDEST SWAP3 POP PUSH2 0x2E08 SWAP1 PUSH2 0x2D76 PUSH2 0x2D6F PUSH1 0x80 PUSH2 0xB66 JUMP JUMPDEST SWAP2 CODESIZE PUSH2 0x2CB8 JUMP JUMPDEST PUSH2 0x2755 PUSH2 0x1208 PUSH2 0xC3 SWAP5 SWAP4 PUSH2 0x2E22 PUSH1 0x0 SWAP1 JUMP JUMPDEST POP PUSH2 0x2E48 PUSH2 0x2E36 PUSH2 0x274A PUSH1 0x1 PUSH1 0x60 SHL PUSH2 0x15EF JUMP JUMPDEST SWAP2 PUSH2 0x2E42 PUSH2 0x277C PUSH2 0xB73 JUMP JUMPDEST SWAP6 PUSH2 0x24A5 JUMP JUMPDEST SWAP5 PUSH2 0x15D6 JUMP JUMPDEST PUSH2 0x128 SWAP1 PUSH2 0x15EA PUSH2 0x1626 PUSH2 0xC3 SWAP5 PUSH1 0xFF AND SWAP1 JUMP JUMPDEST SWAP1 PUSH2 0xC3 SWAP3 PUSH2 0x2E97 PUSH2 0x2E92 PUSH2 0x18AC SWAP5 PUSH2 0x2E79 PUSH1 0x0 SWAP1 JUMP JUMPDEST POP PUSH2 0x2E8C PUSH2 0x2E85 PUSH2 0xB73 JUMP JUMPDEST DUP1 SWAP3 PUSH2 0x15D6 JUMP JUMPDEST SWAP5 PUSH2 0x2E4E JUMP JUMPDEST PUSH2 0x26BA JUMP JUMPDEST SWAP2 PUSH2 0x300B JUMP JUMPDEST PUSH2 0xC3 SWAP2 PUSH2 0x18AC SWAP2 PUSH2 0x2E97 PUSH2 0x2E92 PUSH2 0x2EB3 PUSH2 0xB73 JUMP JUMPDEST PUSH2 0x2EC1 DUP2 PUSH2 0x18A7 PUSH1 0x1 PUSH2 0x64C JUMP JUMPDEST SWAP4 PUSH2 0x2E4E JUMP JUMPDEST SWAP2 SWAP3 SWAP2 SWAP1 PUSH1 0x0 SWAP1 PUSH1 0x0 NOT DUP2 DUP5 MULMOD SWAP3 DUP2 DUP2 MUL SWAP4 DUP5 DUP1 DUP3 LT SWAP2 SUB SUB SWAP3 PUSH2 0x2EEB PUSH1 0x0 PUSH2 0x64C JUMP JUMPDEST DUP5 EQ PUSH2 0x2FED JUMPI DUP7 DUP5 LT ISZERO PUSH2 0x2FC9 JUMPI SWAP3 DUP7 PUSH2 0xC3 SWAP7 SWAP8 SWAP4 PUSH2 0x2F35 SWAP4 PUSH2 0x2F48 SWAP7 POP MULMOD DUP1 DUP7 SUB SWAP6 LT SWAP1 SUB PUSH1 0x1 PUSH2 0x2F22 DUP5 NOT PUSH2 0x684 DUP4 PUSH2 0x64C JUMP JUMPDEST DUP5 AND DUP1 DUP1 SWAP6 DIV SWAP7 DIV SWAP4 DUP1 PUSH1 0x0 SUB DIV ADD MUL SWAP1 JUMP JUMPDEST OR SWAP2 PUSH2 0x2F48 PUSH2 0x2F4C DUP3 PUSH2 0x2F48 PUSH1 0x3 PUSH2 0x64C JUMP JUMPDEST MUL SWAP1 JUMP JUMPDEST PUSH2 0x2F7D PUSH2 0x2FC3 PUSH2 0x2FBD PUSH2 0x2FAE PUSH2 0x2F9F PUSH2 0x2F90 PUSH2 0x2F81 PUSH1 0x2 SWAP8 PUSH2 0x2F6D DUP10 PUSH2 0x64C JUMP JUMPDEST XOR PUSH2 0x2F48 DUP12 DUP3 MUL PUSH2 0x2F7D DUP12 PUSH2 0x64C JUMP JUMPDEST SUB SWAP1 JUMP JUMPDEST PUSH2 0x2F48 DUP11 DUP3 MUL PUSH2 0x2F7D DUP11 PUSH2 0x64C JUMP JUMPDEST PUSH2 0x2F48 DUP10 DUP3 MUL PUSH2 0x2F7D DUP10 PUSH2 0x64C JUMP JUMPDEST PUSH2 0x2F48 DUP9 DUP3 MUL PUSH2 0x2F7D DUP9 PUSH2 0x64C JUMP JUMPDEST PUSH2 0x2F48 DUP8 DUP3 MUL PUSH2 0x2F7D DUP8 PUSH2 0x64C JUMP JUMPDEST DUP1 SWAP6 MUL SWAP1 JUMP JUMPDEST SWAP2 PUSH2 0x64C JUMP JUMPDEST DUP7 DUP5 PUSH2 0x6CA PUSH2 0x2FD7 PUSH1 0x40 MLOAD SWAP1 JUMP JUMPDEST PUSH4 0x1DCF3063 PUSH1 0xE2 SHL DUP2 MSTORE SWAP3 DUP4 SWAP3 PUSH1 0x4 DUP5 ADD PUSH2 0x2DE JUMP JUMPDEST POP POP POP POP SWAP2 PUSH2 0xC3 SWAP2 SWAP3 PUSH2 0x1DB3 JUMP JUMPDEST PUSH1 0x0 NOT DUP2 EQ PUSH2 0x8C6 JUMPI PUSH1 0x1 ADD SWAP1 JUMP JUMPDEST SWAP2 SWAP3 SWAP2 PUSH2 0x3019 DUP5 DUP4 DUP4 PUSH2 0x2EC7 JUMP JUMPDEST SWAP2 DUP3 SWAP5 DUP1 ISZERO PUSH2 0x1AE7 JUMPI PUSH2 0x3035 SWAP2 PUSH2 0x3030 PUSH1 0x0 PUSH2 0x64C JUMP JUMPDEST SWAP4 MULMOD SWAP1 JUMP JUMPDEST GT PUSH2 0x303D JUMPI POP JUMP JUMPDEST SWAP1 SWAP2 POP PUSH2 0xC3 SWAP1 PUSH2 0x3051 PUSH1 0x0 NOT DUP3 LT PUSH2 0x2895 JUMP JUMPDEST PUSH2 0x2FFC JUMP JUMPDEST PUSH1 0x0 DUP1 SWAP2 PUSH2 0x306C PUSH11 0x636F6E736F6C652E6C6F67 SWAP1 JUMP JUMPDEST PUSH1 0x20 DUP3 MLOAD SWAP3 ADD SWAP1 GAS STATICCALL POP JUMP JUMPDEST PUSH4 0x4E487B71 PUSH1 0xE0 SHL PUSH1 0x0 MSTORE PUSH1 0x51 PUSH1 0x4 MSTORE PUSH1 0x24 PUSH1 0x0 REVERT JUMPDEST PUSH1 0x1 SUB PUSH2 0x3078 JUMPI PUSH2 0xCA SWAP1 PUSH2 0x3056 JUMP INVALID LOG2 PUSH5 0x6970667358 0x22 SLT KECCAK256 PUSH18 0x283E62DDCD90892E5CEA711BF79BD055B4 SHR 0xC2 PC NOT PUSH12 0x8D8A0103890C9A9864736F6C PUSH4 0x43000818 STOP CALLER "},"methodIdentifiers":{"composition()":"d456b5dd","liquidity()":"1a686502","mint(address,int32,uint128,bytes)":"56b4b80d","onERC1155BatchReceived(address,address,uint256[],uint256[],bytes)":"bc197c81","onERC1155Received(address,address,uint256,uint256,bytes)":"f23a6e61","slot()":"1a88bc66","swap(address,uint256,uint256,bool,bytes)":"2ead224d","token0()":"0dfe1681","token1()":"d21220a7"}}}}}