{"contracts/JoeSwapManager.sol":{"JoeSwapManager":{"abi":[{"inputs":[{"internalType":"uint256[]","name":"ids","type":"uint256[]"},{"internalType":"uint256[]","name":"amountsOfToken0","type":"uint256[]"},{"internalType":"uint256[]","name":"amountsOfToken1","type":"uint256[]"},{"internalType":"bytes","name":"data","type":"bytes"},{"internalType":"bool","name":"zeroForOne","type":"bool"}],"name":"JoeSwapCallBack","outputs":[],"stateMutability":"nonpayable","type":"function"},{"inputs":[{"internalType":"int32","name":"target_bin","type":"int32"},{"internalType":"uint256","name":"amount0","type":"uint256"},{"internalType":"uint256","name":"amount1","type":"uint256"},{"internalType":"bytes","name":"data","type":"bytes"}],"name":"JoeSwapMintCallback","outputs":[],"stateMutability":"nonpayable","type":"function"},{"inputs":[{"internalType":"address","name":"pool_address","type":"address"},{"internalType":"int32","name":"target_bin","type":"int32"},{"internalType":"uint128","name":"amount","type":"uint128"},{"internalType":"bytes","name":"data","type":"bytes"}],"name":"mint","outputs":[{"internalType":"uint256","name":"amount0","type":"uint256"},{"internalType":"uint256","name":"amount1","type":"uint256"}],"stateMutability":"nonpayable","type":"function"},{"inputs":[{"internalType":"address","name":"pool_address","type":"address"},{"internalType":"uint256","name":"expectedAmount","type":"uint256"},{"internalType":"uint256","name":"limitPrice","type":"uint256"},{"internalType":"bool","name":"zeroforone","type":"bool"},{"internalType":"bytes","name":"data","type":"bytes"}],"name":"swap","outputs":[{"internalType":"uint256","name":"amount0","type":"uint256"},{"internalType":"uint256","name":"amount1","type":"uint256"}],"stateMutability":"nonpayable","type":"function"}],"evm":{"bytecode":{"linkReferences":{},"object":"60806040523461001a57604051610bfd6100208239610bfd90f35b600080fdfe6080604052600436101561001257600080fd5b60003560e01c80632ead224d1461005257806356b4b80d1461004d57806365b5cedc146100485763a271aa6e0361007857610466565b610264565b610217565b61015b565b6001600160a01b031690565b90565b6001600160a01b0381165b0361007857565b600080fd5b9050359061008a82610066565b565b80610071565b9050359061008a8261008c565b801515610071565b9050359061008a8261009f565b909182601f830112156100785781359167ffffffffffffffff831161007857602001926001830284011161007857565b91909160a081840312610078576100fb838261007d565b926101098160208401610092565b926101178260408501610092565b9261012583606083016100a7565b92608082013567ffffffffffffffff81116100785761014492016100b4565b9091565b90815260408101929161008a9160200152565b346100785761017a61016e3660046100e4565b94939093929192610547565b9061019061018760405190565b92839283610148565b0390f35b6100718160030b90565b9050359061008a82610194565b6001600160801b038116610071565b9050359061008a826101ab565b90608082820312610078576101dc818361007d565b926101ea826020850161019e565b926101f883604083016101ba565b92606082013567ffffffffffffffff81116100785761014492016100b4565b346100785761017a61022a3660046101c7565b9392909261061d565b9060808282031261007857610248818361019e565b926102568260208501610092565b926101f88360408301610092565b3461007857610280610277366004610233565b93929092610773565b604051005b634e487b7160e01b600052604160045260246000fd5b90601f01601f1916810190811067ffffffffffffffff8211176102bd57604052565b610285565b9061008a6102cf60405190565b928361029b565b67ffffffffffffffff81116102bd5760208091020190565b909291926103036102fe826102d6565b6102c2565b938185526020808601920283019281841161007857915b8383106103275750505050565b602080916103358486610092565b81520192019161031a565b9080601f8301121561007857816020610063933591016102ee565b67ffffffffffffffff81116102bd57602090601f01601f19160190565b0190565b90826000939282370152565b909291926103986102fe8261035b565b93818552818301116100785761008a91602085019061037c565b9080601f830112156100785781602061006393359101610388565b919060a08382031261007857823567ffffffffffffffff811161007857816103f6918501610340565b92602081013567ffffffffffffffff81116100785782610417918301610340565b92604082013567ffffffffffffffff81116100785783610438918401610340565b9260608301359067ffffffffffffffff821161007857608061045f826100639487016103b2565b94016100a7565b34610078576102806104793660046103cd565b93929092610a2e565b61006390610057906001600160a01b031682565b61006390610482565b61006390610496565b9050519061008a8261008c565b9190604083820312610078576100639060206104d182866104a8565b94016104a8565b91906104f6816104ef816103789560209181520190565b809561037c565b601f01601f191690565b909391610063959361052561052e9261051e60808601986000870152565b6020850152565b15156040830152565b60608185039101526104d8565b6040513d6000823e3d90fd5b6040949695929161059161056d610568600094610562600090565b5061049f565b61049f565b9461057760405190565b998a9788968795636ea16a6360e11b875260048701610500565b03925af180156105d55760009283916105a957509190565b905061014491925060403d6040116105ce575b6105c6818361029b565b8101906104b5565b503d6105bc565b61053b565b909391610063959361060d61052e92610603608086019860008701906001600160a01b03169052565b60030b6020850152565b6001600160801b03166040830152565b91600061063561056860409695989798610562600090565b9261059161064260405190565b988996879586946356b4b80d60e01b865233600487016105da565b91906060838203126100785761069e90604061067960606102c2565b94610684838261007d565b8652610693836020830161007d565b60208701520161007d565b6040830152565b90606082820312610078576100639161065d565b6106c66100636100639290565b60ff1690565b61006360606106b9565b610063906106ee6106ea6100639460ff1690565b9190565b901c90565b6100636100636100639260030b90565b6100636100636100639290565b600091031261007857565b919361075f610766929694610758610063999761074860a088019a60008901906001600160a01b03169052565b6001600160a01b03166020870152565b6040850152565b6060830152565b60808185039101526104d8565b9391909161079f610786828601866106a5565b936107996107926106cc565b80926106d6565b936106d6565b936107b56105688086516001600160a01b031690565b63f242432a9460408101946107e26107dd6107d788516001600160a01b031690565b9a6106f3565b610703565b98833b1561007857899361080f60008a61081c8a8a849861080260405190565b9b8c998a98899760e01b90565b875233906004880161071b565b03925af19081156105d55761056860206105689261085a9561084c956108ae575b5001516001600160a01b031690565b93516001600160a01b031690565b93833b156100785761088561080f9360009793889461087860405190565b9a8b998a98899760e01b90565b03925af180156105d5576108965750565b61008a9060006108a6818361029b565b810190610710565b6108be9060006108a6818361029b565b3861083d565b9050519061008a82610066565b91906060838203126100785761069e9060406108ed60606102c2565b946108f883826108c4565b865261090783602083016108c4565b6020870152016108c4565b9060608282031261007857610063916108d1565b9061094661093f610935845190565b8084529260200190565b9260200190565b9060005b8181106109575750505090565b90919261097461096d6001928651815260200190565b9460200190565b92910161094a565b60005b83811061098f5750506000910152565b818101518382015260200161097f565b6109c06104f6602093610378936109b4815190565b80835293849260200190565b9586910161097c565b9390610a12906100639694610a05610a20956109f560a08a019460008b01906001600160a01b03169052565b6001600160a01b03166020890152565b8682036040880152610926565b908482036060860152610926565b91608081840391015261099f565b939291610a4a610a3c845190565b602085010160208501610912565b9315610b2c57610a656105688086516001600160a01b031690565b632eb2c2d6946040810193610a8185516001600160a01b031690565b833b15610078578893610aac60008a610ab98b8397610a9f60405190565b9a8b988997889660e01b90565b86523390600487016109c9565b03925af19081156105d557610568602061056892610af695610ae8956108ae575001516001600160a01b031690565b92516001600160a01b031690565b92823b15610078576000946108858692610b2094610b1360405190565b998a988997889660e01b90565b865233600487016109c9565b610b416105688086516001600160a01b031690565b632eb2c2d6946040810193610b5d85516001600160a01b031690565b833b15610078578893610b2060008a610b7b8b8397610a9f60405190565b03925af19081156105d557610568602061056892610baa95610ae8956108ae575001516001600160a01b031690565b92823b15610078576000946108858692610aac94610b136040519056fea2646970667358221220bd844c463f7c8257060e685405df010d3d6c6bc6c4f846288928947e8db02c6564736f6c63430008180033","opcodes":"PUSH1 0x80 PUSH1 0x40 MSTORE CALLVALUE PUSH2 0x1A JUMPI PUSH1 0x40 MLOAD PUSH2 0xBFD PUSH2 0x20 DUP3 CODECOPY PUSH2 0xBFD SWAP1 RETURN JUMPDEST PUSH1 0x0 DUP1 REVERT INVALID PUSH1 0x80 PUSH1 0x40 MSTORE PUSH1 0x4 CALLDATASIZE LT ISZERO PUSH2 0x12 JUMPI PUSH1 0x0 DUP1 REVERT JUMPDEST PUSH1 0x0 CALLDATALOAD PUSH1 0xE0 SHR DUP1 PUSH4 0x2EAD224D EQ PUSH2 0x52 JUMPI DUP1 PUSH4 0x56B4B80D EQ PUSH2 0x4D JUMPI DUP1 PUSH4 0x65B5CEDC EQ PUSH2 0x48 JUMPI PUSH4 0xA271AA6E SUB PUSH2 0x78 JUMPI PUSH2 0x466 JUMP JUMPDEST PUSH2 0x264 JUMP JUMPDEST PUSH2 0x217 JUMP JUMPDEST PUSH2 0x15B JUMP JUMPDEST PUSH1 0x1 PUSH1 0x1 PUSH1 0xA0 SHL SUB AND SWAP1 JUMP JUMPDEST SWAP1 JUMP JUMPDEST PUSH1 0x1 PUSH1 0x1 PUSH1 0xA0 SHL SUB DUP2 AND JUMPDEST SUB PUSH2 0x78 JUMPI JUMP JUMPDEST PUSH1 0x0 DUP1 REVERT JUMPDEST SWAP1 POP CALLDATALOAD SWAP1 PUSH2 0x8A DUP3 PUSH2 0x66 JUMP JUMPDEST JUMP JUMPDEST DUP1 PUSH2 0x71 JUMP JUMPDEST SWAP1 POP CALLDATALOAD SWAP1 PUSH2 0x8A DUP3 PUSH2 0x8C JUMP JUMPDEST DUP1 ISZERO ISZERO PUSH2 0x71 JUMP JUMPDEST SWAP1 POP CALLDATALOAD SWAP1 PUSH2 0x8A DUP3 PUSH2 0x9F JUMP JUMPDEST SWAP1 SWAP2 DUP3 PUSH1 0x1F DUP4 ADD SLT ISZERO PUSH2 0x78 JUMPI DUP2 CALLDATALOAD SWAP2 PUSH8 0xFFFFFFFFFFFFFFFF DUP4 GT PUSH2 0x78 JUMPI PUSH1 0x20 ADD SWAP3 PUSH1 0x1 DUP4 MUL DUP5 ADD GT PUSH2 0x78 JUMPI JUMP JUMPDEST SWAP2 SWAP1 SWAP2 PUSH1 0xA0 DUP2 DUP5 SUB SLT PUSH2 0x78 JUMPI PUSH2 0xFB DUP4 DUP3 PUSH2 0x7D JUMP JUMPDEST SWAP3 PUSH2 0x109 DUP2 PUSH1 0x20 DUP5 ADD PUSH2 0x92 JUMP JUMPDEST SWAP3 PUSH2 0x117 DUP3 PUSH1 0x40 DUP6 ADD PUSH2 0x92 JUMP JUMPDEST SWAP3 PUSH2 0x125 DUP4 PUSH1 0x60 DUP4 ADD PUSH2 0xA7 JUMP JUMPDEST SWAP3 PUSH1 0x80 DUP3 ADD CALLDATALOAD PUSH8 0xFFFFFFFFFFFFFFFF DUP2 GT PUSH2 0x78 JUMPI PUSH2 0x144 SWAP3 ADD PUSH2 0xB4 JUMP JUMPDEST SWAP1 SWAP2 JUMP JUMPDEST SWAP1 DUP2 MSTORE PUSH1 0x40 DUP2 ADD SWAP3 SWAP2 PUSH2 0x8A SWAP2 PUSH1 0x20 ADD MSTORE JUMP JUMPDEST CALLVALUE PUSH2 0x78 JUMPI PUSH2 0x17A PUSH2 0x16E CALLDATASIZE PUSH1 0x4 PUSH2 0xE4 JUMP JUMPDEST SWAP5 SWAP4 SWAP1 SWAP4 SWAP3 SWAP2 SWAP3 PUSH2 0x547 JUMP JUMPDEST SWAP1 PUSH2 0x190 PUSH2 0x187 PUSH1 0x40 MLOAD SWAP1 JUMP JUMPDEST SWAP3 DUP4 SWAP3 DUP4 PUSH2 0x148 JUMP JUMPDEST SUB SWAP1 RETURN JUMPDEST PUSH2 0x71 DUP2 PUSH1 0x3 SIGNEXTEND SWAP1 JUMP JUMPDEST SWAP1 POP CALLDATALOAD SWAP1 PUSH2 0x8A DUP3 PUSH2 0x194 JUMP JUMPDEST PUSH1 0x1 PUSH1 0x1 PUSH1 0x80 SHL SUB DUP2 AND PUSH2 0x71 JUMP JUMPDEST SWAP1 POP CALLDATALOAD SWAP1 PUSH2 0x8A DUP3 PUSH2 0x1AB JUMP JUMPDEST SWAP1 PUSH1 0x80 DUP3 DUP3 SUB SLT PUSH2 0x78 JUMPI PUSH2 0x1DC DUP2 DUP4 PUSH2 0x7D JUMP JUMPDEST SWAP3 PUSH2 0x1EA DUP3 PUSH1 0x20 DUP6 ADD PUSH2 0x19E JUMP JUMPDEST SWAP3 PUSH2 0x1F8 DUP4 PUSH1 0x40 DUP4 ADD PUSH2 0x1BA JUMP JUMPDEST SWAP3 PUSH1 0x60 DUP3 ADD CALLDATALOAD PUSH8 0xFFFFFFFFFFFFFFFF DUP2 GT PUSH2 0x78 JUMPI PUSH2 0x144 SWAP3 ADD PUSH2 0xB4 JUMP JUMPDEST CALLVALUE PUSH2 0x78 JUMPI PUSH2 0x17A PUSH2 0x22A CALLDATASIZE PUSH1 0x4 PUSH2 0x1C7 JUMP JUMPDEST SWAP4 SWAP3 SWAP1 SWAP3 PUSH2 0x61D JUMP JUMPDEST SWAP1 PUSH1 0x80 DUP3 DUP3 SUB SLT PUSH2 0x78 JUMPI PUSH2 0x248 DUP2 DUP4 PUSH2 0x19E JUMP JUMPDEST SWAP3 PUSH2 0x256 DUP3 PUSH1 0x20 DUP6 ADD PUSH2 0x92 JUMP JUMPDEST SWAP3 PUSH2 0x1F8 DUP4 PUSH1 0x40 DUP4 ADD PUSH2 0x92 JUMP JUMPDEST CALLVALUE PUSH2 0x78 JUMPI PUSH2 0x280 PUSH2 0x277 CALLDATASIZE PUSH1 0x4 PUSH2 0x233 JUMP JUMPDEST SWAP4 SWAP3 SWAP1 SWAP3 PUSH2 0x773 JUMP JUMPDEST PUSH1 0x40 MLOAD STOP JUMPDEST PUSH4 0x4E487B71 PUSH1 0xE0 SHL PUSH1 0x0 MSTORE PUSH1 0x41 PUSH1 0x4 MSTORE PUSH1 0x24 PUSH1 0x0 REVERT JUMPDEST SWAP1 PUSH1 0x1F ADD PUSH1 0x1F NOT AND DUP2 ADD SWAP1 DUP2 LT PUSH8 0xFFFFFFFFFFFFFFFF DUP3 GT OR PUSH2 0x2BD JUMPI PUSH1 0x40 MSTORE JUMP JUMPDEST PUSH2 0x285 JUMP JUMPDEST SWAP1 PUSH2 0x8A PUSH2 0x2CF PUSH1 0x40 MLOAD SWAP1 JUMP JUMPDEST SWAP3 DUP4 PUSH2 0x29B JUMP JUMPDEST PUSH8 0xFFFFFFFFFFFFFFFF DUP2 GT PUSH2 0x2BD JUMPI PUSH1 0x20 DUP1 SWAP2 MUL ADD SWAP1 JUMP JUMPDEST SWAP1 SWAP3 SWAP2 SWAP3 PUSH2 0x303 PUSH2 0x2FE DUP3 PUSH2 0x2D6 JUMP JUMPDEST PUSH2 0x2C2 JUMP JUMPDEST SWAP4 DUP2 DUP6 MSTORE PUSH1 0x20 DUP1 DUP7 ADD SWAP3 MUL DUP4 ADD SWAP3 DUP2 DUP5 GT PUSH2 0x78 JUMPI SWAP2 JUMPDEST DUP4 DUP4 LT PUSH2 0x327 JUMPI POP POP POP POP JUMP JUMPDEST PUSH1 0x20 DUP1 SWAP2 PUSH2 0x335 DUP5 DUP7 PUSH2 0x92 JUMP JUMPDEST DUP2 MSTORE ADD SWAP3 ADD SWAP2 PUSH2 0x31A JUMP JUMPDEST SWAP1 DUP1 PUSH1 0x1F DUP4 ADD SLT ISZERO PUSH2 0x78 JUMPI DUP2 PUSH1 0x20 PUSH2 0x63 SWAP4 CALLDATALOAD SWAP2 ADD PUSH2 0x2EE JUMP JUMPDEST PUSH8 0xFFFFFFFFFFFFFFFF DUP2 GT PUSH2 0x2BD JUMPI PUSH1 0x20 SWAP1 PUSH1 0x1F ADD PUSH1 0x1F NOT AND ADD SWAP1 JUMP JUMPDEST ADD SWAP1 JUMP JUMPDEST SWAP1 DUP3 PUSH1 0x0 SWAP4 SWAP3 DUP3 CALLDATACOPY ADD MSTORE JUMP JUMPDEST SWAP1 SWAP3 SWAP2 SWAP3 PUSH2 0x398 PUSH2 0x2FE DUP3 PUSH2 0x35B JUMP JUMPDEST SWAP4 DUP2 DUP6 MSTORE DUP2 DUP4 ADD GT PUSH2 0x78 JUMPI PUSH2 0x8A SWAP2 PUSH1 0x20 DUP6 ADD SWAP1 PUSH2 0x37C JUMP JUMPDEST SWAP1 DUP1 PUSH1 0x1F DUP4 ADD SLT ISZERO PUSH2 0x78 JUMPI DUP2 PUSH1 0x20 PUSH2 0x63 SWAP4 CALLDATALOAD SWAP2 ADD PUSH2 0x388 JUMP JUMPDEST SWAP2 SWAP1 PUSH1 0xA0 DUP4 DUP3 SUB SLT PUSH2 0x78 JUMPI DUP3 CALLDATALOAD PUSH8 0xFFFFFFFFFFFFFFFF DUP2 GT PUSH2 0x78 JUMPI DUP2 PUSH2 0x3F6 SWAP2 DUP6 ADD PUSH2 0x340 JUMP JUMPDEST SWAP3 PUSH1 0x20 DUP2 ADD CALLDATALOAD PUSH8 0xFFFFFFFFFFFFFFFF DUP2 GT PUSH2 0x78 JUMPI DUP3 PUSH2 0x417 SWAP2 DUP4 ADD PUSH2 0x340 JUMP JUMPDEST SWAP3 PUSH1 0x40 DUP3 ADD CALLDATALOAD PUSH8 0xFFFFFFFFFFFFFFFF DUP2 GT PUSH2 0x78 JUMPI DUP4 PUSH2 0x438 SWAP2 DUP5 ADD PUSH2 0x340 JUMP JUMPDEST SWAP3 PUSH1 0x60 DUP4 ADD CALLDATALOAD SWAP1 PUSH8 0xFFFFFFFFFFFFFFFF DUP3 GT PUSH2 0x78 JUMPI PUSH1 0x80 PUSH2 0x45F DUP3 PUSH2 0x63 SWAP5 DUP8 ADD PUSH2 0x3B2 JUMP JUMPDEST SWAP5 ADD PUSH2 0xA7 JUMP JUMPDEST CALLVALUE PUSH2 0x78 JUMPI PUSH2 0x280 PUSH2 0x479 CALLDATASIZE PUSH1 0x4 PUSH2 0x3CD JUMP JUMPDEST SWAP4 SWAP3 SWAP1 SWAP3 PUSH2 0xA2E JUMP JUMPDEST PUSH2 0x63 SWAP1 PUSH2 0x57 SWAP1 PUSH1 0x1 PUSH1 0x1 PUSH1 0xA0 SHL SUB AND DUP3 JUMP JUMPDEST PUSH2 0x63 SWAP1 PUSH2 0x482 JUMP JUMPDEST PUSH2 0x63 SWAP1 PUSH2 0x496 JUMP JUMPDEST SWAP1 POP MLOAD SWAP1 PUSH2 0x8A DUP3 PUSH2 0x8C JUMP JUMPDEST SWAP2 SWAP1 PUSH1 0x40 DUP4 DUP3 SUB SLT PUSH2 0x78 JUMPI PUSH2 0x63 SWAP1 PUSH1 0x20 PUSH2 0x4D1 DUP3 DUP7 PUSH2 0x4A8 JUMP JUMPDEST SWAP5 ADD PUSH2 0x4A8 JUMP JUMPDEST SWAP2 SWAP1 PUSH2 0x4F6 DUP2 PUSH2 0x4EF DUP2 PUSH2 0x378 SWAP6 PUSH1 0x20 SWAP2 DUP2 MSTORE ADD SWAP1 JUMP JUMPDEST DUP1 SWAP6 PUSH2 0x37C JUMP JUMPDEST PUSH1 0x1F ADD PUSH1 0x1F NOT AND SWAP1 JUMP JUMPDEST SWAP1 SWAP4 SWAP2 PUSH2 0x63 SWAP6 SWAP4 PUSH2 0x525 PUSH2 0x52E SWAP3 PUSH2 0x51E PUSH1 0x80 DUP7 ADD SWAP9 PUSH1 0x0 DUP8 ADD MSTORE JUMP JUMPDEST PUSH1 0x20 DUP6 ADD MSTORE JUMP JUMPDEST ISZERO ISZERO PUSH1 0x40 DUP4 ADD MSTORE JUMP JUMPDEST PUSH1 0x60 DUP2 DUP6 SUB SWAP2 ADD MSTORE PUSH2 0x4D8 JUMP JUMPDEST PUSH1 0x40 MLOAD RETURNDATASIZE PUSH1 0x0 DUP3 RETURNDATACOPY RETURNDATASIZE SWAP1 REVERT JUMPDEST PUSH1 0x40 SWAP5 SWAP7 SWAP6 SWAP3 SWAP2 PUSH2 0x591 PUSH2 0x56D PUSH2 0x568 PUSH1 0x0 SWAP5 PUSH2 0x562 PUSH1 0x0 SWAP1 JUMP JUMPDEST POP PUSH2 0x49F JUMP JUMPDEST PUSH2 0x49F JUMP JUMPDEST SWAP5 PUSH2 0x577 PUSH1 0x40 MLOAD SWAP1 JUMP JUMPDEST SWAP10 DUP11 SWAP8 DUP9 SWAP7 DUP8 SWAP6 PUSH4 0x6EA16A63 PUSH1 0xE1 SHL DUP8 MSTORE PUSH1 0x4 DUP8 ADD PUSH2 0x500 JUMP JUMPDEST SUB SWAP3 GAS CALL DUP1 ISZERO PUSH2 0x5D5 JUMPI PUSH1 0x0 SWAP3 DUP4 SWAP2 PUSH2 0x5A9 JUMPI POP SWAP2 SWAP1 JUMP JUMPDEST SWAP1 POP PUSH2 0x144 SWAP2 SWAP3 POP PUSH1 0x40 RETURNDATASIZE PUSH1 0x40 GT PUSH2 0x5CE JUMPI JUMPDEST PUSH2 0x5C6 DUP2 DUP4 PUSH2 0x29B JUMP JUMPDEST DUP2 ADD SWAP1 PUSH2 0x4B5 JUMP JUMPDEST POP RETURNDATASIZE PUSH2 0x5BC JUMP JUMPDEST PUSH2 0x53B JUMP JUMPDEST SWAP1 SWAP4 SWAP2 PUSH2 0x63 SWAP6 SWAP4 PUSH2 0x60D PUSH2 0x52E SWAP3 PUSH2 0x603 PUSH1 0x80 DUP7 ADD SWAP9 PUSH1 0x0 DUP8 ADD SWAP1 PUSH1 0x1 PUSH1 0x1 PUSH1 0xA0 SHL SUB AND SWAP1 MSTORE JUMP JUMPDEST PUSH1 0x3 SIGNEXTEND PUSH1 0x20 DUP6 ADD MSTORE JUMP JUMPDEST PUSH1 0x1 PUSH1 0x1 PUSH1 0x80 SHL SUB AND PUSH1 0x40 DUP4 ADD MSTORE JUMP JUMPDEST SWAP2 PUSH1 0x0 PUSH2 0x635 PUSH2 0x568 PUSH1 0x40 SWAP7 SWAP6 SWAP9 SWAP8 SWAP9 PUSH2 0x562 PUSH1 0x0 SWAP1 JUMP JUMPDEST SWAP3 PUSH2 0x591 PUSH2 0x642 PUSH1 0x40 MLOAD SWAP1 JUMP JUMPDEST SWAP9 DUP10 SWAP7 DUP8 SWAP6 DUP7 SWAP5 PUSH4 0x56B4B80D PUSH1 0xE0 SHL DUP7 MSTORE CALLER PUSH1 0x4 DUP8 ADD PUSH2 0x5DA JUMP JUMPDEST SWAP2 SWAP1 PUSH1 0x60 DUP4 DUP3 SUB SLT PUSH2 0x78 JUMPI PUSH2 0x69E SWAP1 PUSH1 0x40 PUSH2 0x679 PUSH1 0x60 PUSH2 0x2C2 JUMP JUMPDEST SWAP5 PUSH2 0x684 DUP4 DUP3 PUSH2 0x7D JUMP JUMPDEST DUP7 MSTORE PUSH2 0x693 DUP4 PUSH1 0x20 DUP4 ADD PUSH2 0x7D JUMP JUMPDEST PUSH1 0x20 DUP8 ADD MSTORE ADD PUSH2 0x7D JUMP JUMPDEST PUSH1 0x40 DUP4 ADD MSTORE JUMP JUMPDEST SWAP1 PUSH1 0x60 DUP3 DUP3 SUB SLT PUSH2 0x78 JUMPI PUSH2 0x63 SWAP2 PUSH2 0x65D JUMP JUMPDEST PUSH2 0x6C6 PUSH2 0x63 PUSH2 0x63 SWAP3 SWAP1 JUMP JUMPDEST PUSH1 0xFF AND SWAP1 JUMP JUMPDEST PUSH2 0x63 PUSH1 0x60 PUSH2 0x6B9 JUMP JUMPDEST PUSH2 0x63 SWAP1 PUSH2 0x6EE PUSH2 0x6EA PUSH2 0x63 SWAP5 PUSH1 0xFF AND SWAP1 JUMP JUMPDEST SWAP2 SWAP1 JUMP JUMPDEST SWAP1 SHR SWAP1 JUMP JUMPDEST PUSH2 0x63 PUSH2 0x63 PUSH2 0x63 SWAP3 PUSH1 0x3 SIGNEXTEND SWAP1 JUMP JUMPDEST PUSH2 0x63 PUSH2 0x63 PUSH2 0x63 SWAP3 SWAP1 JUMP JUMPDEST PUSH1 0x0 SWAP2 SUB SLT PUSH2 0x78 JUMPI JUMP JUMPDEST SWAP2 SWAP4 PUSH2 0x75F PUSH2 0x766 SWAP3 SWAP7 SWAP5 PUSH2 0x758 PUSH2 0x63 SWAP10 SWAP8 PUSH2 0x748 PUSH1 0xA0 DUP9 ADD SWAP11 PUSH1 0x0 DUP10 ADD SWAP1 PUSH1 0x1 PUSH1 0x1 PUSH1 0xA0 SHL SUB AND SWAP1 MSTORE JUMP JUMPDEST PUSH1 0x1 PUSH1 0x1 PUSH1 0xA0 SHL SUB AND PUSH1 0x20 DUP8 ADD MSTORE JUMP JUMPDEST PUSH1 0x40 DUP6 ADD MSTORE JUMP JUMPDEST PUSH1 0x60 DUP4 ADD MSTORE JUMP JUMPDEST PUSH1 0x80 DUP2 DUP6 SUB SWAP2 ADD MSTORE PUSH2 0x4D8 JUMP JUMPDEST SWAP4 SWAP2 SWAP1 SWAP2 PUSH2 0x79F PUSH2 0x786 DUP3 DUP7 ADD DUP7 PUSH2 0x6A5 JUMP JUMPDEST SWAP4 PUSH2 0x799 PUSH2 0x792 PUSH2 0x6CC JUMP JUMPDEST DUP1 SWAP3 PUSH2 0x6D6 JUMP JUMPDEST SWAP4 PUSH2 0x6D6 JUMP JUMPDEST SWAP4 PUSH2 0x7B5 PUSH2 0x568 DUP1 DUP7 MLOAD PUSH1 0x1 PUSH1 0x1 PUSH1 0xA0 SHL SUB AND SWAP1 JUMP JUMPDEST PUSH4 0xF242432A SWAP5 PUSH1 0x40 DUP2 ADD SWAP5 PUSH2 0x7E2 PUSH2 0x7DD PUSH2 0x7D7 DUP9 MLOAD PUSH1 0x1 PUSH1 0x1 PUSH1 0xA0 SHL SUB AND SWAP1 JUMP JUMPDEST SWAP11 PUSH2 0x6F3 JUMP JUMPDEST PUSH2 0x703 JUMP JUMPDEST SWAP9 DUP4 EXTCODESIZE ISZERO PUSH2 0x78 JUMPI DUP10 SWAP4 PUSH2 0x80F PUSH1 0x0 DUP11 PUSH2 0x81C DUP11 DUP11 DUP5 SWAP9 PUSH2 0x802 PUSH1 0x40 MLOAD SWAP1 JUMP JUMPDEST SWAP12 DUP13 SWAP10 DUP11 SWAP9 DUP10 SWAP8 PUSH1 0xE0 SHL SWAP1 JUMP JUMPDEST DUP8 MSTORE CALLER SWAP1 PUSH1 0x4 DUP9 ADD PUSH2 0x71B JUMP JUMPDEST SUB SWAP3 GAS CALL SWAP1 DUP2 ISZERO PUSH2 0x5D5 JUMPI PUSH2 0x568 PUSH1 0x20 PUSH2 0x568 SWAP3 PUSH2 0x85A SWAP6 PUSH2 0x84C SWAP6 PUSH2 0x8AE JUMPI JUMPDEST POP ADD MLOAD PUSH1 0x1 PUSH1 0x1 PUSH1 0xA0 SHL SUB AND SWAP1 JUMP JUMPDEST SWAP4 MLOAD PUSH1 0x1 PUSH1 0x1 PUSH1 0xA0 SHL SUB AND SWAP1 JUMP JUMPDEST SWAP4 DUP4 EXTCODESIZE ISZERO PUSH2 0x78 JUMPI PUSH2 0x885 PUSH2 0x80F SWAP4 PUSH1 0x0 SWAP8 SWAP4 DUP9 SWAP5 PUSH2 0x878 PUSH1 0x40 MLOAD SWAP1 JUMP JUMPDEST SWAP11 DUP12 SWAP10 DUP11 SWAP9 DUP10 SWAP8 PUSH1 0xE0 SHL SWAP1 JUMP JUMPDEST SUB SWAP3 GAS CALL DUP1 ISZERO PUSH2 0x5D5 JUMPI PUSH2 0x896 JUMPI POP JUMP JUMPDEST PUSH2 0x8A SWAP1 PUSH1 0x0 PUSH2 0x8A6 DUP2 DUP4 PUSH2 0x29B JUMP JUMPDEST DUP2 ADD SWAP1 PUSH2 0x710 JUMP JUMPDEST PUSH2 0x8BE SWAP1 PUSH1 0x0 PUSH2 0x8A6 DUP2 DUP4 PUSH2 0x29B JUMP JUMPDEST CODESIZE PUSH2 0x83D JUMP JUMPDEST SWAP1 POP MLOAD SWAP1 PUSH2 0x8A DUP3 PUSH2 0x66 JUMP JUMPDEST SWAP2 SWAP1 PUSH1 0x60 DUP4 DUP3 SUB SLT PUSH2 0x78 JUMPI PUSH2 0x69E SWAP1 PUSH1 0x40 PUSH2 0x8ED PUSH1 0x60 PUSH2 0x2C2 JUMP JUMPDEST SWAP5 PUSH2 0x8F8 DUP4 DUP3 PUSH2 0x8C4 JUMP JUMPDEST DUP7 MSTORE PUSH2 0x907 DUP4 PUSH1 0x20 DUP4 ADD PUSH2 0x8C4 JUMP JUMPDEST PUSH1 0x20 DUP8 ADD MSTORE ADD PUSH2 0x8C4 JUMP JUMPDEST SWAP1 PUSH1 0x60 DUP3 DUP3 SUB SLT PUSH2 0x78 JUMPI PUSH2 0x63 SWAP2 PUSH2 0x8D1 JUMP JUMPDEST SWAP1 PUSH2 0x946 PUSH2 0x93F PUSH2 0x935 DUP5 MLOAD SWAP1 JUMP JUMPDEST DUP1 DUP5 MSTORE SWAP3 PUSH1 0x20 ADD SWAP1 JUMP JUMPDEST SWAP3 PUSH1 0x20 ADD SWAP1 JUMP JUMPDEST SWAP1 PUSH1 0x0 JUMPDEST DUP2 DUP2 LT PUSH2 0x957 JUMPI POP POP POP SWAP1 JUMP JUMPDEST SWAP1 SWAP2 SWAP3 PUSH2 0x974 PUSH2 0x96D PUSH1 0x1 SWAP3 DUP7 MLOAD DUP2 MSTORE PUSH1 0x20 ADD SWAP1 JUMP JUMPDEST SWAP5 PUSH1 0x20 ADD SWAP1 JUMP JUMPDEST SWAP3 SWAP2 ADD PUSH2 0x94A JUMP JUMPDEST PUSH1 0x0 JUMPDEST DUP4 DUP2 LT PUSH2 0x98F JUMPI POP POP PUSH1 0x0 SWAP2 ADD MSTORE JUMP JUMPDEST DUP2 DUP2 ADD MLOAD DUP4 DUP3 ADD MSTORE PUSH1 0x20 ADD PUSH2 0x97F JUMP JUMPDEST PUSH2 0x9C0 PUSH2 0x4F6 PUSH1 0x20 SWAP4 PUSH2 0x378 SWAP4 PUSH2 0x9B4 DUP2 MLOAD SWAP1 JUMP JUMPDEST DUP1 DUP4 MSTORE SWAP4 DUP5 SWAP3 PUSH1 0x20 ADD SWAP1 JUMP JUMPDEST SWAP6 DUP7 SWAP2 ADD PUSH2 0x97C JUMP JUMPDEST SWAP4 SWAP1 PUSH2 0xA12 SWAP1 PUSH2 0x63 SWAP7 SWAP5 PUSH2 0xA05 PUSH2 0xA20 SWAP6 PUSH2 0x9F5 PUSH1 0xA0 DUP11 ADD SWAP5 PUSH1 0x0 DUP12 ADD SWAP1 PUSH1 0x1 PUSH1 0x1 PUSH1 0xA0 SHL SUB AND SWAP1 MSTORE JUMP JUMPDEST PUSH1 0x1 PUSH1 0x1 PUSH1 0xA0 SHL SUB AND PUSH1 0x20 DUP10 ADD MSTORE JUMP JUMPDEST DUP7 DUP3 SUB PUSH1 0x40 DUP9 ADD MSTORE PUSH2 0x926 JUMP JUMPDEST SWAP1 DUP5 DUP3 SUB PUSH1 0x60 DUP7 ADD MSTORE PUSH2 0x926 JUMP JUMPDEST SWAP2 PUSH1 0x80 DUP2 DUP5 SUB SWAP2 ADD MSTORE PUSH2 0x99F JUMP JUMPDEST SWAP4 SWAP3 SWAP2 PUSH2 0xA4A PUSH2 0xA3C DUP5 MLOAD SWAP1 JUMP JUMPDEST PUSH1 0x20 DUP6 ADD ADD PUSH1 0x20 DUP6 ADD PUSH2 0x912 JUMP JUMPDEST SWAP4 ISZERO PUSH2 0xB2C JUMPI PUSH2 0xA65 PUSH2 0x568 DUP1 DUP7 MLOAD PUSH1 0x1 PUSH1 0x1 PUSH1 0xA0 SHL SUB AND SWAP1 JUMP JUMPDEST PUSH4 0x2EB2C2D6 SWAP5 PUSH1 0x40 DUP2 ADD SWAP4 PUSH2 0xA81 DUP6 MLOAD PUSH1 0x1 PUSH1 0x1 PUSH1 0xA0 SHL SUB AND SWAP1 JUMP JUMPDEST DUP4 EXTCODESIZE ISZERO PUSH2 0x78 JUMPI DUP9 SWAP4 PUSH2 0xAAC PUSH1 0x0 DUP11 PUSH2 0xAB9 DUP12 DUP4 SWAP8 PUSH2 0xA9F PUSH1 0x40 MLOAD SWAP1 JUMP JUMPDEST SWAP11 DUP12 SWAP9 DUP10 SWAP8 DUP9 SWAP7 PUSH1 0xE0 SHL SWAP1 JUMP JUMPDEST DUP7 MSTORE CALLER SWAP1 PUSH1 0x4 DUP8 ADD PUSH2 0x9C9 JUMP JUMPDEST SUB SWAP3 GAS CALL SWAP1 DUP2 ISZERO PUSH2 0x5D5 JUMPI PUSH2 0x568 PUSH1 0x20 PUSH2 0x568 SWAP3 PUSH2 0xAF6 SWAP6 PUSH2 0xAE8 SWAP6 PUSH2 0x8AE JUMPI POP ADD MLOAD PUSH1 0x1 PUSH1 0x1 PUSH1 0xA0 SHL SUB AND SWAP1 JUMP JUMPDEST SWAP3 MLOAD PUSH1 0x1 PUSH1 0x1 PUSH1 0xA0 SHL SUB AND SWAP1 JUMP JUMPDEST SWAP3 DUP3 EXTCODESIZE ISZERO PUSH2 0x78 JUMPI PUSH1 0x0 SWAP5 PUSH2 0x885 DUP7 SWAP3 PUSH2 0xB20 SWAP5 PUSH2 0xB13 PUSH1 0x40 MLOAD SWAP1 JUMP JUMPDEST SWAP10 DUP11 SWAP9 DUP10 SWAP8 DUP9 SWAP7 PUSH1 0xE0 SHL SWAP1 JUMP JUMPDEST DUP7 MSTORE CALLER PUSH1 0x4 DUP8 ADD PUSH2 0x9C9 JUMP JUMPDEST PUSH2 0xB41 PUSH2 0x568 DUP1 DUP7 MLOAD PUSH1 0x1 PUSH1 0x1 PUSH1 0xA0 SHL SUB AND SWAP1 JUMP JUMPDEST PUSH4 0x2EB2C2D6 SWAP5 PUSH1 0x40 DUP2 ADD SWAP4 PUSH2 0xB5D DUP6 MLOAD PUSH1 0x1 PUSH1 0x1 PUSH1 0xA0 SHL SUB AND SWAP1 JUMP JUMPDEST DUP4 EXTCODESIZE ISZERO PUSH2 0x78 JUMPI DUP9 SWAP4 PUSH2 0xB20 PUSH1 0x0 DUP11 PUSH2 0xB7B DUP12 DUP4 SWAP8 PUSH2 0xA9F PUSH1 0x40 MLOAD SWAP1 JUMP JUMPDEST SUB SWAP3 GAS CALL SWAP1 DUP2 ISZERO PUSH2 0x5D5 JUMPI PUSH2 0x568 PUSH1 0x20 PUSH2 0x568 SWAP3 PUSH2 0xBAA SWAP6 PUSH2 0xAE8 SWAP6 PUSH2 0x8AE JUMPI POP ADD MLOAD PUSH1 0x1 PUSH1 0x1 PUSH1 0xA0 SHL SUB AND SWAP1 JUMP JUMPDEST SWAP3 DUP3 EXTCODESIZE ISZERO PUSH2 0x78 JUMPI PUSH1 0x0 SWAP5 PUSH2 0x885 DUP7 SWAP3 PUSH2 0xAAC SWAP5 PUSH2 0xB13 PUSH1 0x40 MLOAD SWAP1 JUMP INVALID LOG2 PUSH5 0x6970667358 0x22 SLT KECCAK256 0xBD DUP5 0x4C CHAINID EXTCODEHASH PUSH29 0x8257060E685405DF010D3D6C6BC6C4F846288928947E8DB02C6564736F PUSH13 0x63430008180033000000000000 "},"methodIdentifiers":{"JoeSwapCallBack(uint256[],uint256[],uint256[],bytes,bool)":"a271aa6e","JoeSwapMintCallback(int32,uint256,uint256,bytes)":"65b5cedc","mint(address,int32,uint128,bytes)":"56b4b80d","swap(address,uint256,uint256,bool,bytes)":"2ead224d"}}}}}