{"contracts/JoeSwapPool.sol":{"JoeSwapPool":{"abi":[{"inputs":[{"internalType":"address","name":"token0_","type":"address"},{"internalType":"address","name":"token1_","type":"address"},{"internalType":"uint256","name":"_pi","type":"uint256"},{"internalType":"int32","name":"_bin","type":"int32"}],"stateMutability":"nonpayable","type":"constructor"},{"inputs":[],"name":"Invalidbinposition","type":"error"},{"inputs":[],"name":"LiquidityNotEnough","type":"error"},{"inputs":[{"internalType":"uint256","name":"prod1","type":"uint256"},{"internalType":"uint256","name":"denominator","type":"uint256"}],"name":"PRBMath__MulDivOverflow","type":"error"},{"inputs":[],"name":"ZeroLiquidity","type":"error"},{"inputs":[],"name":"composition","outputs":[{"internalType":"uint160","name":"","type":"uint160"}],"stateMutability":"view","type":"function"},{"inputs":[],"name":"liquidity","outputs":[{"internalType":"uint128","name":"","type":"uint128"}],"stateMutability":"view","type":"function"},{"inputs":[{"internalType":"address","name":"owner","type":"address"},{"internalType":"int32","name":"target_bin","type":"int32"},{"internalType":"uint128","name":"amount","type":"uint128"},{"internalType":"bytes","name":"data","type":"bytes"}],"name":"mint","outputs":[{"internalType":"uint256","name":"amount0","type":"uint256"},{"internalType":"uint256","name":"amount1","type":"uint256"}],"stateMutability":"nonpayable","type":"function"},{"inputs":[{"internalType":"address","name":"operator","type":"address"},{"internalType":"address","name":"from","type":"address"},{"internalType":"uint256[]","name":"ids","type":"uint256[]"},{"internalType":"uint256[]","name":"values","type":"uint256[]"},{"internalType":"bytes","name":"data","type":"bytes"}],"name":"onERC1155BatchReceived","outputs":[{"internalType":"bytes4","name":"","type":"bytes4"}],"stateMutability":"nonpayable","type":"function"},{"inputs":[{"internalType":"address","name":"operator","type":"address"},{"internalType":"address","name":"from","type":"address"},{"internalType":"uint256","name":"id","type":"uint256"},{"internalType":"uint256","name":"value","type":"uint256"},{"internalType":"bytes","name":"data","type":"bytes"}],"name":"onERC1155Received","outputs":[{"internalType":"bytes4","name":"","type":"bytes4"}],"stateMutability":"nonpayable","type":"function"},{"inputs":[],"name":"slot","outputs":[{"internalType":"uint256","name":"pi","type":"uint256"},{"internalType":"int32","name":"bin","type":"int32"}],"stateMutability":"view","type":"function"},{"inputs":[{"internalType":"uint256","name":"expectedAmount","type":"uint256"},{"internalType":"uint256","name":"limitPrice","type":"uint256"},{"internalType":"bool","name":"zeroforone","type":"bool"},{"internalType":"bytes","name":"data","type":"bytes"}],"name":"swap","outputs":[{"internalType":"uint256","name":"amount0","type":"uint256"},{"internalType":"uint256","name":"amount1","type":"uint256"}],"stateMutability":"nonpayable","type":"function"},{"inputs":[],"name":"token0","outputs":[{"internalType":"address","name":"","type":"address"}],"stateMutability":"view","type":"function"},{"inputs":[],"name":"token1","outputs":[{"internalType":"address","name":"","type":"address"}],"stateMutability":"view","type":"function"}],"evm":{"bytecode":{"linkReferences":{},"object":"60c060405234620000455762000022620000186200013b565b9291909162000232565b60405161387c6200026882396080518160e1015260a05181610424015261387c90f35b600080fd5b634e487b7160e01b600052604160045260246000fd5b90601f01601f191681019081106001600160401b038211176200008257604052565b6200004a565b906200009f6200009760405190565b928362000060565b565b90565b6001600160a01b0381165b036200004557565b905051906200009f82620000a4565b80620000af565b905051906200009f82620000c6565b620000af8160030b90565b905051906200009f82620000dc565b60808183031262000045576200010d8282620000b7565b92620000a1620001218460208501620000b7565b936060620001338260408701620000cd565b9401620000e7565b6200015e62003ae480380380620001528162000088565b928339810190620000f6565b90919293565b620000a1604062000088565b90600019905b9181191691161790565b620000a1620000a1620000a19290565b90620001a4620000a1620001ac9262000180565b825462000170565b9055565b9063ffffffff9062000176565b620001d0620000a1620000a19260030b90565b60030b90565b90620001ea620000a1620001ac92620001bd565b8254620001b0565b60016200021e60206200009f94620002166200020f600083015190565b8662000190565b015160030b90565b9101620001d6565b906200009f91620001f2565b60805260a0526200009f916200025f90620002556200025062000164565b938452565b60030b6020830152565b60006200022656fe6080604052600436101561001257600080fd5b60003560e01c80630dfe1681146100a25780631a6865021461009d5780631a88bc661461009857806356b4b80d14610093578063bc197c811461008e578063d21220a714610089578063d456b5dd14610084578063dd42d4c61461007f5763f23a6e61036100b257610563565b6104e7565b610473565b61040f565b6103cf565b6102e5565b6101bb565b61014b565b6100cc565b60009103126100b257565b600080fd5b6001600160a01b031690565b90565b9052565b565b346100b2576100dc3660046100a7565b61011b7f00000000000000000000000000000000000000000000000000000000000000005b604051918291826001600160a01b03909116815260200190565b0390f35b6100c3916008021c5b6001600160801b031690565b906100c3915461011f565b6100c360006005610134565b346100b25761015b3660046100a7565b61011b61016661013f565b604051918291826001600160801b03909116815260200190565b6100c39081565b6100c39054610180565b6100c3905b60030b90565b6100c39054610191565b6101b06000610187565b906100c3600161019c565b346100b2576101cb3660046100a7565b6101d36101a6565b9061011b6101e060405190565b9283928390815260039190910b602082015260400190565b6001600160a01b0381165b036100b257565b905035906100ca826101f8565b6102038160030b90565b905035906100ca82610217565b6001600160801b038116610203565b905035906100ca8261022e565b909182601f830112156100b25781359167ffffffffffffffff83116100b25760200192600183028401116100b257565b906080828203126100b25761028f818361020a565b9261029d8260208501610221565b926102ab836040830161023d565b92606082013567ffffffffffffffff81116100b2576102ca920161024a565b9091565b9081526040810192916100ca9160200152565b0152565b346100b2576103016102f836600461027a565b9392909261085f565b9061011b61030e60405190565b928392836102ce565b909182601f830112156100b25781359167ffffffffffffffff83116100b25760200192602083028401116100b257565b9160a0838303126100b25761035c828461020a565b9261036a836020830161020a565b92604082013567ffffffffffffffff81116100b2578161038b918401610317565b929093606082013567ffffffffffffffff81116100b257836103ae918401610317565b929093608082013567ffffffffffffffff81116100b2576102ca920161024a565b346100b25761011b6103f46103e5366004610347565b96959095949194939293610b08565b604051918291826001600160e01b0319909116815260200190565b346100b25761041f3660046100a7565b61011b7f0000000000000000000000000000000000000000000000000000000000000000610101565b6100c3916008021c6001600160a01b031690565b906100c39154610448565b6100c36000600661045c565b346100b2576104833660046100a7565b61011b610101610467565b80610203565b905035906100ca8261048e565b801515610203565b905035906100ca826104a1565b906080828203126100b2576104cb8183610494565b926104d98260208501610494565b926102ab83604083016104a9565b346100b2576103016104fa3660046104b6565b939290926116ea565b91909160a0818403126100b25761051a838261020a565b92610528816020840161020a565b926105368260408501610494565b926105448360608301610494565b92608082013567ffffffffffffffff81116100b2576102ca920161024a565b346100b25761011b6103f4610579366004610503565b94939093929192612148565b6101966100c36100c39290565b6100c3628d89e8610585565b6100c362727618610585565b6101286100c36100c39290565b634e487b7160e01b600052601160045260246000fd5b6105dc9060030b5b9160030b90565b900390637fffffff198212637fffffff8313176105f557565b6105b7565b61060a6100c36100c39260030b90565b60020b90565b61061d6100c36100c39290565b60ff1690565b6100c36060610610565b6100c36100c36100c39290565b6100c39061065261064e6100c39460ff1690565b9190565b901b90565b6100b76100c36100c39290565b6101966100c36100c39260030b90565b9061067e90610664565b600052602052604060002090565b6100c39061061d565b6100c3905461068c565b6106ae9060ff165b9160ff1690565b90039060ff82116105f557565b906001600160a01b03905b9181191691161790565b6100c3906100b7906001600160a01b031682565b906106f46100c36106fb926106d0565b82546106bb565b9055565b6100c3906100b7565b6100c390546106ff565b6100c390610128565b6100c39054610712565b610740906001600160801b03165b916001600160801b031690565b01906001600160801b0382116105f557565b906001600160801b03906106c6565b6101286100c36100c3926001600160801b031690565b906107876100c36106fb92610761565b8254610752565b6100c3906106d0565b6100c39061078e565b634e487b7160e01b600052604160045260246000fd5b90601f01601f1916810190811067ffffffffffffffff8211176107d857604052565b6107a0565b90826000939282370152565b919061080781610800816108119560209181520190565b80956107dd565b601f01601f191690565b0190565b9093916100c3959361083f610846926108386080860198600087019060030b9052565b6020850152565b6040830152565b60608185039101526107e9565b6040513d6000823e3d90fd5b939492906000958693610873610196610592565b61087d8460030b90565b138015610aec575b610ada57600094610895866105aa565b6001600160801b03831614610ac4576108b06001870161019c565b986108d66108d16108cc6108c662800000610585565b886105cd565b6105fa565b612289565b996108e18160030b90565b6108eb8760030b90565b03610a605750505061090885610902856002610674565b01610695565b15610a0b576109709061096b8461093561092e6109256006610708565b9c5b8d866129d8565b9b84612a16565b9961095361094c85610947600561071b565b610725565b6005610777565b61095f84836002612a9c565b6109f1575b6003612be4565b612c2e565b61098161097c33610797565b610797565b803b156100b257878580946109b48a9561099a60405190565b9889978896879563196d73b760e21b875260048701610815565b03925af180156109ec576109c6575050565b816100ca92903d106109e5575b6109dd81836107b6565b8101906100a7565b503d6109d3565b610853565b610a066109fe6001610585565b836004612b57565b610964565b6109709061096b8461093561092e610a5b9c610a52610a4d610a3e610a2e610623565b610a386001610610565b9061069f565b610a48600161062d565b61063a565b610657565b9d8e60066106e4565b610927565b9899919860030b610a718660030b90565b1315610a9a57509061096b84610a9461097094610a8d8a610657565b5084612974565b9a610953565b9897505061097090610ab0610a4d610a3e610623565b5061096b84610abe83612957565b99610953565b604051630200e8a960e31b8152600490fd5b0390fd5b604051633944550f60e21b8152600490fd5b50610af861019661059e565b610b028460030b90565b12610885565b5050505050505050610b18600090565b5063bc197c8160e01b90565b818102929181159184041417156105f557565b9160001960089290920291821b911b6106c6565b9190610b5c6100c36106fb9361062d565b908354610b37565b6100ca91600091610b4b565b818110610b7b575050565b80610b896000600193610b64565b01610b70565b919091828210610b9e57505050565b6100ca9291610bb39091600052602060002090565b9182019101610b70565b90600160401b81116107d85781610bd56100ca935490565b90828155610b8f565b60006100ca91610bbd565b634e487b7160e01b600052600060045260246000fd5b90600003610c10576100ca90610bde565b610be9565b906100ca610c2260405190565b92836107b6565b6100c36040610c15565b906100ca610c5b6001610c44610c29565b94610c55610c5182610187565b8752565b0161019c565b60030b6020840152565b6100c390610c33565b6100c373fffd8963efd1fc6a506488495d951d5263988d2661062d565b6100c36401000276a361062d565b15610ca057565b60405162461bcd60e51b8152602060048201526013602482015272496e76616c6964204c696d697450726963652160681b6044820152606490fd5b6100c360a0610c15565b67ffffffffffffffff81116107d857602090601f01601f19160190565b90610d14610d0f83610ce5565b610c15565b918252565b610d236081610d02565b7f20202020202020202020205b44454255475d3a202a2a2a2a2a2a2a2a2a2a2a2a60208201527f2a2a2a2a2a2a2a2a2a2a2a2a2a2a2a2a2a2a2a2a2a2a2a2a2a2a2a2a2a2a2a2a604082018190527f2a2a2a2a2a2a2a2a20726f756e64202a2a2a2a2a2a2a2a2a2a2a2a2a2a2a2a2a60608301526080820152601560f91b60a082015290565b6100c3610d19565b6100c360c0610c15565b610dc3610db1565b906000825260208080808080870160008152016000815201600081520160008152016000905250565b6100c3610dbb565b610dfe6033610d02565b7f20202020202020202020205b44454255475d3a202a2a2a2a2a2a2a2a207365616020820152723931b41032bc32b1baba32901515151515151560691b604082015290565b6100c3610df4565b6100c36100c36100c39260030b90565b610e656013610d02565b7210101010101010101010102da222a12aa3ae9d60691b602082015290565b6100c3610e5b565b610e966034610d02565b7f20202020202020202020205b44454255475d3a204e6f7420537572653a207072602082015273696365506f696e743e3d6c696d6974507269636560601b604082015290565b6100c3610e8c565b610ef09060030b6105d5565b0190637fffffff8213637fffffff198312176105f557565b610f126030610d02565b60008051602061382783398151915260208201526f6f696e743c3d6c696d6974507269636560801b604082015290565b6100c3610f08565b610f54602f610d02565b60008051602061382783398151915260208201526e6f696e743e6c696d6974507269636560881b604082015290565b6100c3610f4a565b610f95601e610d02565b7f20202020202020202020205b44454255475d3a206e65787442696e203d200000602082015290565b6100c3610f8b565b610fd06025610d02565b7f20202020202020202020205b44454255475d3a206e6578745072696365506f696020820152640373a101e960dd1b604082015290565b6100c3610fc6565b6110196033610d02565b7f20202020202020202020205b44454255475d3a204e6f7420537572653a207072602082015272696365506f696e743c6c696d6974507269636560681b604082015290565b6100c361100f565b6110706030610d02565b60008051602061382783398151915260208201526f6f696e743e3d6c696d6974507269636560801b604082015290565b6100c3611066565b6110b2602f610d02565b60008051602061382783398151915260208201526e6f696e743c6c696d6974507269636560881b604082015290565b6100c36110a8565b6110f36033610d02565b7f20202020202020202020205b44454255475d3a202a2a2a2a2a2a2a2a2a206f756020820152723a1037b31039b2b0b931b4101515151515151560691b604082015290565b6100c36110e9565b61114a603f610d02565b7f20202020202020202020205b44454255475d3a20737465702e7374617274507260208201527f696365207c2073746174652e6163746976655f6c6971756964697479203a2000604082015290565b6100c3611140565b6100c36100c36100c3926001600160801b031690565b6111c16044610d02565b7f20202020202020202020205b44454255475d3a20636f6d706f736974696f6e2060208201527f7c20737465702e6e6578745072696365207c206578706563746564416d6f756e60408201526303a101d160e51b606082015290565b6100c36111b7565b6100c39081906001600160a01b031681565b6100c39061124b61064e6100c39460ff1690565b901c90565b6100c39060081c610128565b6100c39054611250565b919082039182116105f557565b919082018092116105f557565b634e487b7160e01b600052603260045260246000fd5b80548210156112b9576112b0600191600052602060002090565b91020190600090565b611280565b90815491600160401b8310156107d857826112e19160016100ca95018155611296565b90610b4b565b6112f16035610d02565b7f20202020202020202020205b44454255475d3a20737465702e616d6f756e744f60208201527403aba103e1039ba32b81730b6b7bab73a24b7101d1605d1b604082015290565b6100c36112e7565b61134a601f610d02565b7f20202020202020202020205b44454255475d3a2073746174652e7069203d2000602082015290565b6100c3611340565b611385600e610d02565b6d031b7b6b837b9b4ba34b7b7101e960951b602082015290565b6100c361137b565b6113b16081610d02565b7f20202020202020202020205b44454255475d3a202a2a2a2a2a2a2a2a2a2a2a2a60208201527f2a2a2a2a2a2a2a2a2a2a2a2a2a2a2a2a2a2a2a2a2a2a2a2a2a2a2a2a2a2a2a2a604082018190527f2a2a2a2a206f7574206f6620726f756e64202a2a2a2a2a2a2a2a2a2a2a2a2a2a60608301526080820152601560f91b60a082015290565b6100c36113a7565b67ffffffffffffffff81116107d85760208091020190565b90610d14610d0f8361143f565b369037565b906100ca61147f61147984611457565b9361143f565b601f190160208401611464565b6100c3916008021c81565b906100c3915461148c565b6114ac6053610d02565b7f20202020202020202020205b44454255475d3a2074656d704964735b695d207c60208201527f2074656d70416d6f756e74734f66546f6b656e305b695d207c2074656d70416d604082015272037bab73a39a7b32a37b5b2b718adb4ae901e9606d1b606082015290565b6100c36114a2565b90611528825190565b8110156112b9576020809102010190565b91906060838203126100b25761083f9060406115556060610c15565b94611560838261020a565b865261156f836020830161020a565b60208701520161020a565b906060828203126100b2576100c391611539565b906115ae6115a761159d845190565b8084529260200190565b9260200190565b9060005b8181106115bf5750505090565b9091926115dc6115d56001928651815260200190565b9460200190565b9291016115b2565b969593909461162c60809461161e61163a956116108c6100ca9b60a0820191600081840391015261158e565b8c810360208e01529061158e565b908a820360408c015261158e565b9188830360608a01526107e9565b94019015159052565b9063ffffffff906106c6565b9061165f6100c36106fb92610664565b8254611643565b90600019906106c6565b906116806100c36106fb9261062d565b8254611666565b611691601e610d02565b7f20202020202020202020205b44454255475d3a20616d6f756e7430203d200000602082015290565b6100c3611687565b6116cc600a610d02565b69030b6b7bab73a18901e960b51b602082015290565b6100c36116c2565b9294906000906116fc60006007610bff565b61170860006008610bff565b61171460006009610bff565b61171e6000610c65565b9161179961172c600561071b565b6000871561211c57506117406100c3865190565b841080612103575b61175190610c99565b61178961176d6000611767602089015160030b90565b97015190565b611782611778610cdb565b97889060030b9052565b6020870152565b6001600160801b03166040850152565b6117a3600061062d565b956117af876060860152565b6117ba876080860152565b868111806120e2575b156120da576117d0612c45565b6117e06117db610da9565b612cd9565b836117e9610dec565b916117fc6117f8602084015190565b8452565b8251908861180b845160030b90565b60009360008315611fb0575b898210611fa557508190611829612c45565b6118346117db610e43565b61185561184861184384610e4b565b61062d565b611850610e84565b612d27565b61186181611850610e84565b6118798460046118716001610585565b948591612dca565b9081938c6118986108d16108cc61189262800000610585565b866105cd565b936118b06118a861184386610e4b565b611850610fbe565b6118bc85611850611007565b15611f06578a9b9a9796959493929150821015611ef15750506118e06117db6110e1565b6118e8612c45565b6118f0611138565b6118f990612cd9565b600383900b6020890152604088015215156060870152855194604084019561192887516001600160801b031690565b90611931611199565b9161193b906111a1565b9061194592612f4a565b61194f6006610708565b8561195b60408a015190565b61196361121d565b9261196d90611225565b61197693612fa5565b835160030b95611984885190565b868561199784516001600160801b031690565b6119a16006610708565b60408d0151916119b095612ff7565b60a08c015260808b01526119c59060066106e4565b6020860152602085015197806119dc604082015190565b996119e5610623565b9a8b6119f091611237565b1460001499611ad26108d19a611abe611a806108cc9c611b919f9c611b3299611b0e98611b7e9f611edd576000611a62611a7594611a55611a4c602086611a44611a3e6040611a689a015190565b83870152565b015160030b90565b60030b82850152565b82015160030b6002610674565b0161125c565b6001600160801b03169052565b60a088015190611266565b9e611aa4611a8f60a089015190565b6100c66060840191611a9f835190565b611273565b6100c66080611ab3818a015190565b920191611a9f835190565b611acc611843600792610e4b565b906112be565b8615611eb657611b07611afe611af283611aed608088015190565b611237565b92611aed60a087015190565b915b60086112be565b60096112be565b611b246080611b1e60a084015190565b92015190565b90611b2d611338565b612f4a565b611b6a611b4060208d015190565b611b4a6006610708565b611b52611373565b91611b64611b5e61139f565b92611225565b9261312e565b50600490611b786001610585565b91612dca565b50611b8b62800000610585565b906105cd565b8615611eaf5783115b156117ba575050505b611bab612c45565b611bb66117db611437565b600791611bc9611bc4845490565b611469565b93611bd5611bc4855490565b97611be1611bc4865490565b965b611bee6100c3875490565b811015611cae57611bff8187611296565b611c0891611497565b81808c600882808d8d82611c1c8187611296565b611c2591611497565b9960099a611c33838d611296565b611c3c91611497565b90611c45611517565b92611c4f93612fa5565b611c5891611296565b611c6191611497565b91611c6b9161151f565b52611c7591611296565b611c7e91611497565b91611c889161151f565b52611c9291611296565b611c9b91611497565b611ca5828a61151f565b52600101611be3565b50949350949196959095611cc48286018661157a565b611cd961097c8083516001600160a01b031690565b63a22cb46591813b156100b2576000611cf160405190565b8093611cfd8660e01b90565b825233600483015260016024830152604490829084905af19182156109ec57602061097c9261097c92611d3e95611e99575b5001516001600160a01b031690565b803b156100b257611d5e91600091611d5560405190565b93849260e01b90565b825233600483015260016024830152604490829084905af180156109ec57611e83575b50611d8e61097c33610797565b91823b156100b257600094611dc2888793611da860405190565b998a9889978896635138d53760e11b8852600488016115e4565b03925af180156109ec57611e6d575b50611e1e611e1760208501611de7611b40825190565b611dfe61094c60408801516001600160801b031690565b611e13611e0c875160030b90565b600161164f565b5190565b6000611670565b15611e5757611e396060611e33608085015190565b93015190565b905b6100ca8284611e486116ba565b90611e516116e2565b9161312e565b611e676080611e33606085015190565b90611e3b565b611e7d9060006109dd81836107b6565b38611dd1565b611e939060006109dd81836107b6565b38611d81565b611ea99060006109dd81836107b6565b38611d2f565b8310611b9a565b611b07611ed7611ecb83611aed60a088015190565b92611aed608087015190565b91611b00565b51611eec929150602090910152565b611a75565b91509250611f006117db6110a0565b916118e0565b61064e611f169197949295939790565b10611f9057505082611f2e6000610902836002610674565b15611f5b575050908596959291611f566108d16108cc611f5062800000610585565b856105cd565b6118e0565b6108cc949596935090611f6d916105cd565b90611f846108d183958694611b8b62800000610585565b91509493929194611817565b90929150879897949350611f566117db61105e565b8697969392916118e0565b898211611fa557508190611fc2612c45565b611fcd6117db610e43565b611fdc61184861184384610e4b565b611fe881611850610e84565b611ff88460046118716001610585565b9081938c6120116108d16108cc61189262800000610585565b9315612045578a9b9a9796959493929150821115612036575050611f566117db610f83565b91509250611f006117db610f42565b61064e6120559197949295939790565b10156120c55750508261206e6000610902836002610674565b15612090575050908596959291611f566108d16108cc611f5062800000610585565b6108cc9495969350906120a291610ee4565b906120b96108d183958694611b8b62800000610585565b91509493929194611fb0565b90929150879897949350611f566117db610edc565b505050611ba3565b5085156120f65760208401518311156117c3565b60208401518310156117c3565b506117516121126100c3610c8b565b8510159050611748565b85015184118061212f5761175190610c99565b5061175161213e6100c3610c6e565b8511159050611748565b505050505050612156600090565b5063f23a6e6160e01b90565b61060a6100c36100c39290565b6100c36100c36100c39260020b90565b600160ff1b81146105f55760000390565b6100c3620d89e719612162565b60020b627fffff1981146105f55760000390565b6100c36121bc612190565b61219d565b6121d16100c36100c39260020b90565b62ffffff1690565b6100c36100c36100c39262ffffff1690565b156121f257565b60405162461bcd60e51b81526020600482015260016024820152601560fa1b6044820152606490fd5b6122286100c36100c39290565b6001600160881b031690565b6100c36100c36100c3926001600160881b031690565b634e487b7160e01b600052601260045260246000fd5b811561226a570490565b61224a565b811561226a570690565b6100c36100c36100c39260ff1690565b6126036125fd6125ed6100c39361229e600090565b5060006122aa81612162565b6122b48360020b90565b1215612945576122ce6118436122c98461216f565b61217f565b915b6122f66122ee6100c36122e96122e46121b1565b6121c1565b6121d9565b8411156121eb565b612300600161062d565b831661230e61064e8461062d565b146129355761233461232f6ffffcb933bd6fad37aa2d162d1a59400161221b565b612234565b9261233f600261062d565b811661234d61064e8561062d565b0361290e575b61235d600461062d565b811661236b61064e8561062d565b036128e7575b61237b600861062d565b811661238961064e8561062d565b036128c0575b612399601061062d565b81166123a761064e8561062d565b03612899575b6123b7602061062d565b81166123c561064e8561062d565b03612872575b6123d5604061062d565b81166123e361064e8561062d565b03612841575b6080906123f58261062d565b811661240361064e8661062d565b0361281a575b61241461010061062d565b811661242261064e8661062d565b036127f3575b61243361020061062d565b811661244161064e8661062d565b036127cc575b61245261040061062d565b811661246061064e8661062d565b036127a5575b61247161080061062d565b811661247f61064e8661062d565b0361277e575b61249061100061062d565b811661249e61064e8661062d565b03612757575b6124af61200061062d565b81166124bd61064e8661062d565b03612730575b6124ce61400061062d565b81166124dc61064e8661062d565b03612709575b6124ed61800061062d565b81166124fb61064e8661062d565b036126e2575b61250d6201000061062d565b811661251b61064e8661062d565b036126bb575b61252d6202000061062d565b811661253b61064e8661062d565b03612695575b61254d6204000061062d565b811661255b61064e8661062d565b03612667575b61256d6208000061062d565b1661257a61064e8561062d565b03612634575b5061259461258d83612162565b9160020b90565b13612621575b6125c56125b06125aa6020610610565b84611237565b926125bf64010000000061062d565b9061226f565b6125d161064e8361062d565b03612613576125e26125e791610610565b612279565b90611273565b6125f76050610610565b90611237565b80610b24565b61260d6040610610565b9061063a565b506125e76125e26001610610565b9061262e90600019612260565b9061259a565b6125f761265a61266093956126546b091f7dc42448a170344e8fa261062d565b90610b24565b91610610565b9138612580565b9361268661268f916126546d2216e584f5fa1ea926041bedfe9861062d565b6125f783610610565b93612561565b936126866126b5916126546e5d6af8dedb81196699c329225ee60461062d565b93612541565b936126866126dc916126546f09aa508b5b7a84e1c677de54f3e99bc961062d565b93612521565b93612686612703916126546f31be135f97d08fd981231505542fcfa661062d565b93612501565b9361268661272a916126546f70d869a156d2a1b890bb3df62baf32f761062d565b936124e2565b93612686612751916126546fa9f746462d870fdf8a65dc1f90e061e561062d565b936124c3565b93612686612778916126546fd097f3bdfd2022b8845ad8f792aa582561062d565b936124a4565b9361268661279f916126546fe7159475a2c29b7443b29c7fa6e889d961062d565b93612485565b936126866127c6916126546ff3392b0822b70005940c7a398e4b70f361062d565b93612466565b936126866127ed916126546ff987a7253ac413176f2b074cf7815e5461062d565b93612447565b93612686612814916126546ffcbe86c7900a88aedcffc83b479aa3a461062d565b93612428565b9361268661283b916126546ffe5dee046a99a2a811c461f1969c305361062d565b93612409565b9261286261286c916126546fff2ea16466c96a3843ec78b326b5286161062d565b6125f76080610610565b926123e9565b92612862612893916126546fff973b41fa98c081472e6896dfb254c061062d565b926123cb565b926128626128ba916126546fffcb9843d60f6159c9db58835c92664461062d565b926123ad565b926128626128e1916126546fffe5caca7e10e4e61c3624eaa0941cd061062d565b9261238f565b92612862612908916126546ffff2e50f5f656932ef12357cf3c7fdcc61062d565b92612371565b9261286261292f916126546ffff97272373d413259a46990580e213a61062d565b92612353565b61233461232f600160801b61221b565b6129516118438361216f565b916122d0565b61296c6100c391612966600090565b506111a1565b61260d610623565b906129846100c392612966600090565b6129a4612999612992610623565b809361063a565b91610a48600161062d565b9061315c565b6129c5906001600160a01b03165b916001600160a01b031690565b9003906001600160a01b0382116105f557565b612a10612a0b6100c394936129eb600090565b50612a0561296c6129ff600160601b610657565b956111a1565b936129aa565b611225565b906132a0565b90612a266100c392612966600090565b6129a4611b5e612a3e612a37610623565b809461063a565b92610a48600161062d565b9060ff906106c6565b90612a626100c36106fb92151590565b8254612a49565b9070ffffffffffffffffffffffffffffffff009060081b6106c6565b90612a956100c36106fb92610761565b8254612a69565b6100c36100ca92612ab892959495612ab2600090565b50610674565b92612ac28461125c565b6000948591612ad3610733846105aa565b14612b27575b0193612b1f612b19612af4612aed8861125c565b9485610725565b93612b15610733612b04866105aa565b6001600160801b03881614956105aa565b1490565b91151590565b141593612a85565b612b346001838301612a52565b612ad9565b612b459060030b6105d5565b90811561226a570790565b156100b257565b90612b97612b8a612b9d92612b85612b726100ca9783612b39565b612b7f6105d56000610585565b14612b50565b61332a565b610a48600193929361062d565b92610674565b90612ba782610187565b1890611670565b6100c6906001600160a01b031660601b90565b601481612bd46108119360049695612bae565b01809260e01b9052565b9061067e565b612c09612c156100c3946100c394612bfb60405190565b938492602084019283612bc1565b908103825203826107b6565b612c27612c20825190565b9160200190565b2090612bde565b6100ca91612c3f906109478361071b565b90610777565b6100ca612c5160405190565b6351973ec960e01b6020820152612c7681602481015b602082018103825203826107b6565b613363565b60005b838110612c8e5750506000910152565b8181015183820152602001612c7e565b612cbf61080760209361081193612cb3815190565b80835293849260200190565b95869101612c7b565b60208082526100c392910190612c9e565b612c67612c766100ca92612cec60405190565b63104c13eb60e21b602082015292839160248301612cc8565b92916020612d226100ca9360408701908782036000890152612c9e565b940152565b90612c766100ca92612c67612d3b60405190565b632d839cb360e21b602082015293849260248401612d05565b612d609060030b6105d5565b90811561226a57637fffffff1981146000198314166105f5570590565b612d8d6100c36100c39260ff1690565b63ffffffff1690565b6101966100c36100c39263ffffffff1690565b612db59060030b6105d5565b0290612dc18260030b90565b9182036105f557565b92919081612de091612dda600090565b50612d54565b9115612e7557612e1a92612e1f612df68461332a565b9590612e14612e05600161062d565b612e0f898261063a565b611266565b93610674565b610187565b1692612e2b600061062d565b841480159490612e615792611b8b612e54612e4f612e5994610a38612e5e986135f1565b612d7d565b612d96565b612da9565b91565b50612e5e92611b8b612e54612e5993612d7d565b612e1a600193612eb2612e93612b85612e8d88610585565b87610ee4565b9390612e14612eae612ea48a61062d565b612e0f888261063a565b1990565b1690612ebe600061062d565b821480159590612efa57612e54612e4f612e599493612ef5612eef612e5e99612ee9612ee997610585565b90610ee4565b956133a9565b61069f565b612e599250612e54612e4f612f18612e5e97612ee9612ee995610585565b9360ff61069f565b6040906102e1612f426100ca9597969460608401908482036000860152612c9e565b966020830152565b612c7690612c676100ca94612f5e60405190565b63ca47c4eb60e01b602082015294859360248501612f20565b6102e16100ca9461083f612f9d6060959998969960808601908682036000880152612c9e565b986020850152565b612c676100ca94612c769394612fba60405190565b63a7a8785360e01b602082015295869460248601612f77565b612fe5906001600160a01b03166129b8565b01906001600160a01b0382116105f557565b94919360009381156130e35761300d8684612a16565b8410156130725750859083945060001461305457612a059061303261305094846137b4565b9261304a84613045610a4d610a3e610623565b6129aa565b906129d8565b9293565b613065613050938361306c93613784565b8092612a16565b93612fd3565b959250909392506000146130b4576130a691906130a09061309a83613045600160601b610657565b856129d8565b92612a16565b613050610a4d610a3e610623565b816130d36130cd6130d994613045610a4d610a3e610623565b85612a16565b936129d8565b6130506000610657565b6130ee8787856129d8565b61300d565b949391612d22906100ca9461312161311960609560808b01908b820360008d0152612c9e565b9260208a0152565b8782036040890152612c9e565b612c676100ca94612c76939461314360405190565b63c67ea9d160e01b6020820152958694602486016130f3565b9192919060009060001981840992818102938480821091030392613180600061062d565b8414613282578684101561325e5792866100c39697936131ca936131dd9650098086039510900360016131b784196108118361062d565b8416808095049604938060000304010290565b17916131dd6131e1826131dd600361062d565b0290565b6132126132586132526132436132346132256132166002976132028961062d565b186131dd8b82026132128b61062d565b0390565b6131dd8a82026132128a61062d565b6131dd8982026132128961062d565b6131dd8882026132128861062d565b6131dd8782026132128761062d565b80950290565b9161062d565b8684610ad661326c60405190565b631dcf306360e21b8152928392600484016102ce565b50505050916100c39192612260565b60001981146105f55760010190565b9192916132ae84838361315c565b918294801561226a576132ca916132c5600061062d565b930990565b116132d25750565b9091506100c3906132e66000198210612b50565b613291565b610196906132ff6105d56100c39460ff1690565b901d90565b6133146100c36100c39260030b90565b60000b90565b61061d6100c36100c39260000b90565b906100c361335e6133596133476133416008610610565b866132eb565b94613353610100610585565b90612b39565b613304565b61331a565b6100ca906001613816565b6100c36100c36100c39267ffffffffffffffff1690565b6100c36100c36100c39263ffffffff1690565b6100c36100c36100c39261ffff1690565b9060006133c06133b88261062d565b845b11612b50565b6133ca60ff610610565b806133db6001600160801b036111a1565b85166133e961064e8561062d565b11156135c357506133fe90610a386080610610565b61340f67ffffffffffffffff61336e565b841661341d61064e8461062d565b11156135ae5761343190610a386040610610565b61343e63ffffffff613385565b841661344c61064e8461062d565b11156135995761346090610a386020610610565b61346b61ffff613398565b841661347961064e8461062d565b11156135845761348d90610a386010610610565b61349760ff612279565b84166134a561064e8461062d565b111561356f576134b990610a386008610610565b6134c3600f61062d565b84166134d161064e8461062d565b111561355a576134e590610a386004610610565b6134ef600361062d565b84166134fd61064e8461062d565b11156135405761064e61351761352a92610a386002610610565b945b613523600161062d565b169261062d565b1161353157565b906100c390610a386001610610565b9261064e61355561352a926125f76002610610565b613519565b92613569906125f76004610610565b926134e5565b9261357e906125f76008610610565b926134b9565b92613593906125f76010610610565b9261348d565b926135a8906125f76020610610565b92613460565b926135bd906125f76040610610565b92613431565b936135d391506125f76080610610565b926133fe565b6135e59060ff166106a7565b019060ff82116105f557565b9060009182613609613603600061062d565b836133ba565b613616600160801b61062d565b821015613756575b5061362c600160401b61062d565b81101561373f575b61364264010000000061062d565b811015613728575b6136566201000061062d565b811015613711575b61366961010061062d565b8110156136fa575b61367b601061062d565b8110156136e3575b61368d600461062d565b8110156136bf575b6136a261064e600261062d565b10156136aa57565b906100c3906136b96001610610565b906135d9565b6136dd906136d76136d06002610610565b8092611237565b936135d9565b91613695565b6136f4906136d76136d06004610610565b91613683565b61370b906136d76136d06008610610565b91613671565b613722906136d76136d06010610610565b9161365e565b613739906136d76136d06020610610565b9161364a565b613750906136d76136d06040610610565b91613634565b9250613769906136d76136d06080610610565b913861361e565b610128906106526107336100c39460ff1690565b6100c3926137ae6137a9610a4d9461379a600090565b506137a3610623565b90613770565b6111a1565b916132a0565b6100c391610a4d916137ae6137a96137ca610623565b6137d881610a48600161062d565b93613770565b600080916137f46a636f6e736f6c652e6c6f6790565b602082519201905afa50565b634e487b7160e01b600052605160045260246000fd5b600103613800576100ca906137de56fe20202020202020202020205b44454255475d3a20537572653a20707269636550a2646970667358221220db3c142c829b53561ac0164ca469be86ea98e5d762db02f7de756130162dffca64736f6c63430008180033","opcodes":"PUSH1 0xC0 PUSH1 0x40 MSTORE CALLVALUE PUSH3 0x45 JUMPI PUSH3 0x22 PUSH3 0x18 PUSH3 0x13B JUMP JUMPDEST SWAP3 SWAP2 SWAP1 SWAP2 PUSH3 0x232 JUMP JUMPDEST PUSH1 0x40 MLOAD PUSH2 0x387C PUSH3 0x268 DUP3 CODECOPY PUSH1 0x80 MLOAD DUP2 PUSH1 0xE1 ADD MSTORE PUSH1 0xA0 MLOAD DUP2 PUSH2 0x424 ADD MSTORE PUSH2 0x387C SWAP1 RETURN JUMPDEST PUSH1 0x0 DUP1 REVERT JUMPDEST PUSH4 0x4E487B71 PUSH1 0xE0 SHL PUSH1 0x0 MSTORE PUSH1 0x41 PUSH1 0x4 MSTORE PUSH1 0x24 PUSH1 0x0 REVERT JUMPDEST SWAP1 PUSH1 0x1F ADD PUSH1 0x1F NOT AND DUP2 ADD SWAP1 DUP2 LT PUSH1 0x1 PUSH1 0x1 PUSH1 0x40 SHL SUB DUP3 GT OR PUSH3 0x82 JUMPI PUSH1 0x40 MSTORE JUMP JUMPDEST PUSH3 0x4A JUMP JUMPDEST SWAP1 PUSH3 0x9F PUSH3 0x97 PUSH1 0x40 MLOAD SWAP1 JUMP JUMPDEST SWAP3 DUP4 PUSH3 0x60 JUMP JUMPDEST JUMP JUMPDEST SWAP1 JUMP JUMPDEST PUSH1 0x1 PUSH1 0x1 PUSH1 0xA0 SHL SUB DUP2 AND JUMPDEST SUB PUSH3 0x45 JUMPI JUMP JUMPDEST SWAP1 POP MLOAD SWAP1 PUSH3 0x9F DUP3 PUSH3 0xA4 JUMP JUMPDEST DUP1 PUSH3 0xAF JUMP JUMPDEST SWAP1 POP MLOAD SWAP1 PUSH3 0x9F DUP3 PUSH3 0xC6 JUMP JUMPDEST PUSH3 0xAF DUP2 PUSH1 0x3 SIGNEXTEND SWAP1 JUMP JUMPDEST SWAP1 POP MLOAD SWAP1 PUSH3 0x9F DUP3 PUSH3 0xDC JUMP JUMPDEST PUSH1 0x80 DUP2 DUP4 SUB SLT PUSH3 0x45 JUMPI PUSH3 0x10D DUP3 DUP3 PUSH3 0xB7 JUMP JUMPDEST SWAP3 PUSH3 0xA1 PUSH3 0x121 DUP5 PUSH1 0x20 DUP6 ADD PUSH3 0xB7 JUMP JUMPDEST SWAP4 PUSH1 0x60 PUSH3 0x133 DUP3 PUSH1 0x40 DUP8 ADD PUSH3 0xCD JUMP JUMPDEST SWAP5 ADD PUSH3 0xE7 JUMP JUMPDEST PUSH3 0x15E PUSH3 0x3AE4 DUP1 CODESIZE SUB DUP1 PUSH3 0x152 DUP2 PUSH3 0x88 JUMP JUMPDEST SWAP3 DUP4 CODECOPY DUP2 ADD SWAP1 PUSH3 0xF6 JUMP JUMPDEST SWAP1 SWAP2 SWAP3 SWAP4 JUMP JUMPDEST PUSH3 0xA1 PUSH1 0x40 PUSH3 0x88 JUMP JUMPDEST SWAP1 PUSH1 0x0 NOT SWAP1 JUMPDEST SWAP2 DUP2 NOT AND SWAP2 AND OR SWAP1 JUMP JUMPDEST PUSH3 0xA1 PUSH3 0xA1 PUSH3 0xA1 SWAP3 SWAP1 JUMP JUMPDEST SWAP1 PUSH3 0x1A4 PUSH3 0xA1 PUSH3 0x1AC SWAP3 PUSH3 0x180 JUMP JUMPDEST DUP3 SLOAD PUSH3 0x170 JUMP JUMPDEST SWAP1 SSTORE JUMP JUMPDEST SWAP1 PUSH4 0xFFFFFFFF SWAP1 PUSH3 0x176 JUMP JUMPDEST PUSH3 0x1D0 PUSH3 0xA1 PUSH3 0xA1 SWAP3 PUSH1 0x3 SIGNEXTEND SWAP1 JUMP JUMPDEST PUSH1 0x3 SIGNEXTEND SWAP1 JUMP JUMPDEST SWAP1 PUSH3 0x1EA PUSH3 0xA1 PUSH3 0x1AC SWAP3 PUSH3 0x1BD JUMP JUMPDEST DUP3 SLOAD PUSH3 0x1B0 JUMP JUMPDEST PUSH1 0x1 PUSH3 0x21E PUSH1 0x20 PUSH3 0x9F SWAP5 PUSH3 0x216 PUSH3 0x20F PUSH1 0x0 DUP4 ADD MLOAD SWAP1 JUMP JUMPDEST DUP7 PUSH3 0x190 JUMP JUMPDEST ADD MLOAD PUSH1 0x3 SIGNEXTEND SWAP1 JUMP JUMPDEST SWAP2 ADD PUSH3 0x1D6 JUMP JUMPDEST SWAP1 PUSH3 0x9F SWAP2 PUSH3 0x1F2 JUMP JUMPDEST PUSH1 0x80 MSTORE PUSH1 0xA0 MSTORE PUSH3 0x9F SWAP2 PUSH3 0x25F SWAP1 PUSH3 0x255 PUSH3 0x250 PUSH3 0x164 JUMP JUMPDEST SWAP4 DUP5 MSTORE JUMP JUMPDEST PUSH1 0x3 SIGNEXTEND PUSH1 0x20 DUP4 ADD MSTORE JUMP JUMPDEST PUSH1 0x0 PUSH3 0x226 JUMP INVALID PUSH1 0x80 PUSH1 0x40 MSTORE PUSH1 0x4 CALLDATASIZE LT ISZERO PUSH2 0x12 JUMPI PUSH1 0x0 DUP1 REVERT JUMPDEST PUSH1 0x0 CALLDATALOAD PUSH1 0xE0 SHR DUP1 PUSH4 0xDFE1681 EQ PUSH2 0xA2 JUMPI DUP1 PUSH4 0x1A686502 EQ PUSH2 0x9D JUMPI DUP1 PUSH4 0x1A88BC66 EQ PUSH2 0x98 JUMPI DUP1 PUSH4 0x56B4B80D EQ PUSH2 0x93 JUMPI DUP1 PUSH4 0xBC197C81 EQ PUSH2 0x8E JUMPI DUP1 PUSH4 0xD21220A7 EQ PUSH2 0x89 JUMPI DUP1 PUSH4 0xD456B5DD EQ PUSH2 0x84 JUMPI DUP1 PUSH4 0xDD42D4C6 EQ PUSH2 0x7F JUMPI PUSH4 0xF23A6E61 SUB PUSH2 0xB2 JUMPI PUSH2 0x563 JUMP JUMPDEST PUSH2 0x4E7 JUMP JUMPDEST PUSH2 0x473 JUMP JUMPDEST PUSH2 0x40F JUMP JUMPDEST PUSH2 0x3CF JUMP JUMPDEST PUSH2 0x2E5 JUMP JUMPDEST PUSH2 0x1BB JUMP JUMPDEST PUSH2 0x14B JUMP JUMPDEST PUSH2 0xCC JUMP JUMPDEST PUSH1 0x0 SWAP2 SUB SLT PUSH2 0xB2 JUMPI JUMP JUMPDEST PUSH1 0x0 DUP1 REVERT JUMPDEST PUSH1 0x1 PUSH1 0x1 PUSH1 0xA0 SHL SUB AND SWAP1 JUMP JUMPDEST SWAP1 JUMP JUMPDEST SWAP1 MSTORE JUMP JUMPDEST JUMP JUMPDEST CALLVALUE PUSH2 0xB2 JUMPI PUSH2 0xDC CALLDATASIZE PUSH1 0x4 PUSH2 0xA7 JUMP JUMPDEST PUSH2 0x11B PUSH32 0x0 JUMPDEST PUSH1 0x40 MLOAD SWAP2 DUP3 SWAP2 DUP3 PUSH1 0x1 PUSH1 0x1 PUSH1 0xA0 SHL SUB SWAP1 SWAP2 AND DUP2 MSTORE PUSH1 0x20 ADD SWAP1 JUMP JUMPDEST SUB SWAP1 RETURN JUMPDEST PUSH2 0xC3 SWAP2 PUSH1 0x8 MUL SHR JUMPDEST PUSH1 0x1 PUSH1 0x1 PUSH1 0x80 SHL SUB AND SWAP1 JUMP JUMPDEST SWAP1 PUSH2 0xC3 SWAP2 SLOAD PUSH2 0x11F JUMP JUMPDEST PUSH2 0xC3 PUSH1 0x0 PUSH1 0x5 PUSH2 0x134 JUMP JUMPDEST CALLVALUE PUSH2 0xB2 JUMPI PUSH2 0x15B CALLDATASIZE PUSH1 0x4 PUSH2 0xA7 JUMP JUMPDEST PUSH2 0x11B PUSH2 0x166 PUSH2 0x13F JUMP JUMPDEST PUSH1 0x40 MLOAD SWAP2 DUP3 SWAP2 DUP3 PUSH1 0x1 PUSH1 0x1 PUSH1 0x80 SHL SUB SWAP1 SWAP2 AND DUP2 MSTORE PUSH1 0x20 ADD SWAP1 JUMP JUMPDEST PUSH2 0xC3 SWAP1 DUP2 JUMP JUMPDEST PUSH2 0xC3 SWAP1 SLOAD PUSH2 0x180 JUMP JUMPDEST PUSH2 0xC3 SWAP1 JUMPDEST PUSH1 0x3 SIGNEXTEND SWAP1 JUMP JUMPDEST PUSH2 0xC3 SWAP1 SLOAD PUSH2 0x191 JUMP JUMPDEST PUSH2 0x1B0 PUSH1 0x0 PUSH2 0x187 JUMP JUMPDEST SWAP1 PUSH2 0xC3 PUSH1 0x1 PUSH2 0x19C JUMP JUMPDEST CALLVALUE PUSH2 0xB2 JUMPI PUSH2 0x1CB CALLDATASIZE PUSH1 0x4 PUSH2 0xA7 JUMP JUMPDEST PUSH2 0x1D3 PUSH2 0x1A6 JUMP JUMPDEST SWAP1 PUSH2 0x11B PUSH2 0x1E0 PUSH1 0x40 MLOAD SWAP1 JUMP JUMPDEST SWAP3 DUP4 SWAP3 DUP4 SWAP1 DUP2 MSTORE PUSH1 0x3 SWAP2 SWAP1 SWAP2 SIGNEXTEND PUSH1 0x20 DUP3 ADD MSTORE PUSH1 0x40 ADD SWAP1 JUMP JUMPDEST PUSH1 0x1 PUSH1 0x1 PUSH1 0xA0 SHL SUB DUP2 AND JUMPDEST SUB PUSH2 0xB2 JUMPI JUMP JUMPDEST SWAP1 POP CALLDATALOAD SWAP1 PUSH2 0xCA DUP3 PUSH2 0x1F8 JUMP JUMPDEST PUSH2 0x203 DUP2 PUSH1 0x3 SIGNEXTEND SWAP1 JUMP JUMPDEST SWAP1 POP CALLDATALOAD SWAP1 PUSH2 0xCA DUP3 PUSH2 0x217 JUMP JUMPDEST PUSH1 0x1 PUSH1 0x1 PUSH1 0x80 SHL SUB DUP2 AND PUSH2 0x203 JUMP JUMPDEST SWAP1 POP CALLDATALOAD SWAP1 PUSH2 0xCA DUP3 PUSH2 0x22E JUMP JUMPDEST SWAP1 SWAP2 DUP3 PUSH1 0x1F DUP4 ADD SLT ISZERO PUSH2 0xB2 JUMPI DUP2 CALLDATALOAD SWAP2 PUSH8 0xFFFFFFFFFFFFFFFF DUP4 GT PUSH2 0xB2 JUMPI PUSH1 0x20 ADD SWAP3 PUSH1 0x1 DUP4 MUL DUP5 ADD GT PUSH2 0xB2 JUMPI JUMP JUMPDEST SWAP1 PUSH1 0x80 DUP3 DUP3 SUB SLT PUSH2 0xB2 JUMPI PUSH2 0x28F DUP2 DUP4 PUSH2 0x20A JUMP JUMPDEST SWAP3 PUSH2 0x29D DUP3 PUSH1 0x20 DUP6 ADD PUSH2 0x221 JUMP JUMPDEST SWAP3 PUSH2 0x2AB DUP4 PUSH1 0x40 DUP4 ADD PUSH2 0x23D JUMP JUMPDEST SWAP3 PUSH1 0x60 DUP3 ADD CALLDATALOAD PUSH8 0xFFFFFFFFFFFFFFFF DUP2 GT PUSH2 0xB2 JUMPI PUSH2 0x2CA SWAP3 ADD PUSH2 0x24A JUMP JUMPDEST SWAP1 SWAP2 JUMP JUMPDEST SWAP1 DUP2 MSTORE PUSH1 0x40 DUP2 ADD SWAP3 SWAP2 PUSH2 0xCA SWAP2 PUSH1 0x20 ADD MSTORE JUMP JUMPDEST ADD MSTORE JUMP JUMPDEST CALLVALUE PUSH2 0xB2 JUMPI PUSH2 0x301 PUSH2 0x2F8 CALLDATASIZE PUSH1 0x4 PUSH2 0x27A JUMP JUMPDEST SWAP4 SWAP3 SWAP1 SWAP3 PUSH2 0x85F JUMP JUMPDEST SWAP1 PUSH2 0x11B PUSH2 0x30E PUSH1 0x40 MLOAD SWAP1 JUMP JUMPDEST SWAP3 DUP4 SWAP3 DUP4 PUSH2 0x2CE JUMP JUMPDEST SWAP1 SWAP2 DUP3 PUSH1 0x1F DUP4 ADD SLT ISZERO PUSH2 0xB2 JUMPI DUP2 CALLDATALOAD SWAP2 PUSH8 0xFFFFFFFFFFFFFFFF DUP4 GT PUSH2 0xB2 JUMPI PUSH1 0x20 ADD SWAP3 PUSH1 0x20 DUP4 MUL DUP5 ADD GT PUSH2 0xB2 JUMPI JUMP JUMPDEST SWAP2 PUSH1 0xA0 DUP4 DUP4 SUB SLT PUSH2 0xB2 JUMPI PUSH2 0x35C DUP3 DUP5 PUSH2 0x20A JUMP JUMPDEST SWAP3 PUSH2 0x36A DUP4 PUSH1 0x20 DUP4 ADD PUSH2 0x20A JUMP JUMPDEST SWAP3 PUSH1 0x40 DUP3 ADD CALLDATALOAD PUSH8 0xFFFFFFFFFFFFFFFF DUP2 GT PUSH2 0xB2 JUMPI DUP2 PUSH2 0x38B SWAP2 DUP5 ADD PUSH2 0x317 JUMP JUMPDEST SWAP3 SWAP1 SWAP4 PUSH1 0x60 DUP3 ADD CALLDATALOAD PUSH8 0xFFFFFFFFFFFFFFFF DUP2 GT PUSH2 0xB2 JUMPI DUP4 PUSH2 0x3AE SWAP2 DUP5 ADD PUSH2 0x317 JUMP JUMPDEST SWAP3 SWAP1 SWAP4 PUSH1 0x80 DUP3 ADD CALLDATALOAD PUSH8 0xFFFFFFFFFFFFFFFF DUP2 GT PUSH2 0xB2 JUMPI PUSH2 0x2CA SWAP3 ADD PUSH2 0x24A JUMP JUMPDEST CALLVALUE PUSH2 0xB2 JUMPI PUSH2 0x11B PUSH2 0x3F4 PUSH2 0x3E5 CALLDATASIZE PUSH1 0x4 PUSH2 0x347 JUMP JUMPDEST SWAP7 SWAP6 SWAP1 SWAP6 SWAP5 SWAP2 SWAP5 SWAP4 SWAP3 SWAP4 PUSH2 0xB08 JUMP JUMPDEST PUSH1 0x40 MLOAD SWAP2 DUP3 SWAP2 DUP3 PUSH1 0x1 PUSH1 0x1 PUSH1 0xE0 SHL SUB NOT SWAP1 SWAP2 AND DUP2 MSTORE PUSH1 0x20 ADD SWAP1 JUMP JUMPDEST CALLVALUE PUSH2 0xB2 JUMPI PUSH2 0x41F CALLDATASIZE PUSH1 0x4 PUSH2 0xA7 JUMP JUMPDEST PUSH2 0x11B PUSH32 0x0 PUSH2 0x101 JUMP JUMPDEST PUSH2 0xC3 SWAP2 PUSH1 0x8 MUL SHR PUSH1 0x1 PUSH1 0x1 PUSH1 0xA0 SHL SUB AND SWAP1 JUMP JUMPDEST SWAP1 PUSH2 0xC3 SWAP2 SLOAD PUSH2 0x448 JUMP JUMPDEST PUSH2 0xC3 PUSH1 0x0 PUSH1 0x6 PUSH2 0x45C JUMP JUMPDEST CALLVALUE PUSH2 0xB2 JUMPI PUSH2 0x483 CALLDATASIZE PUSH1 0x4 PUSH2 0xA7 JUMP JUMPDEST PUSH2 0x11B PUSH2 0x101 PUSH2 0x467 JUMP JUMPDEST DUP1 PUSH2 0x203 JUMP JUMPDEST SWAP1 POP CALLDATALOAD SWAP1 PUSH2 0xCA DUP3 PUSH2 0x48E JUMP JUMPDEST DUP1 ISZERO ISZERO PUSH2 0x203 JUMP JUMPDEST SWAP1 POP CALLDATALOAD SWAP1 PUSH2 0xCA DUP3 PUSH2 0x4A1 JUMP JUMPDEST SWAP1 PUSH1 0x80 DUP3 DUP3 SUB SLT PUSH2 0xB2 JUMPI PUSH2 0x4CB DUP2 DUP4 PUSH2 0x494 JUMP JUMPDEST SWAP3 PUSH2 0x4D9 DUP3 PUSH1 0x20 DUP6 ADD PUSH2 0x494 JUMP JUMPDEST SWAP3 PUSH2 0x2AB DUP4 PUSH1 0x40 DUP4 ADD PUSH2 0x4A9 JUMP JUMPDEST CALLVALUE PUSH2 0xB2 JUMPI PUSH2 0x301 PUSH2 0x4FA CALLDATASIZE PUSH1 0x4 PUSH2 0x4B6 JUMP JUMPDEST SWAP4 SWAP3 SWAP1 SWAP3 PUSH2 0x16EA JUMP JUMPDEST SWAP2 SWAP1 SWAP2 PUSH1 0xA0 DUP2 DUP5 SUB SLT PUSH2 0xB2 JUMPI PUSH2 0x51A DUP4 DUP3 PUSH2 0x20A JUMP JUMPDEST SWAP3 PUSH2 0x528 DUP2 PUSH1 0x20 DUP5 ADD PUSH2 0x20A JUMP JUMPDEST SWAP3 PUSH2 0x536 DUP3 PUSH1 0x40 DUP6 ADD PUSH2 0x494 JUMP JUMPDEST SWAP3 PUSH2 0x544 DUP4 PUSH1 0x60 DUP4 ADD PUSH2 0x494 JUMP JUMPDEST SWAP3 PUSH1 0x80 DUP3 ADD CALLDATALOAD PUSH8 0xFFFFFFFFFFFFFFFF DUP2 GT PUSH2 0xB2 JUMPI PUSH2 0x2CA SWAP3 ADD PUSH2 0x24A JUMP JUMPDEST CALLVALUE PUSH2 0xB2 JUMPI PUSH2 0x11B PUSH2 0x3F4 PUSH2 0x579 CALLDATASIZE PUSH1 0x4 PUSH2 0x503 JUMP JUMPDEST SWAP5 SWAP4 SWAP1 SWAP4 SWAP3 SWAP2 SWAP3 PUSH2 0x2148 JUMP JUMPDEST PUSH2 0x196 PUSH2 0xC3 PUSH2 0xC3 SWAP3 SWAP1 JUMP JUMPDEST PUSH2 0xC3 PUSH3 0x8D89E8 PUSH2 0x585 JUMP JUMPDEST PUSH2 0xC3 PUSH3 0x727618 PUSH2 0x585 JUMP JUMPDEST PUSH2 0x128 PUSH2 0xC3 PUSH2 0xC3 SWAP3 SWAP1 JUMP JUMPDEST PUSH4 0x4E487B71 PUSH1 0xE0 SHL PUSH1 0x0 MSTORE PUSH1 0x11 PUSH1 0x4 MSTORE PUSH1 0x24 PUSH1 0x0 REVERT JUMPDEST PUSH2 0x5DC SWAP1 PUSH1 0x3 SIGNEXTEND JUMPDEST SWAP2 PUSH1 0x3 SIGNEXTEND SWAP1 JUMP JUMPDEST SWAP1 SUB SWAP1 PUSH4 0x7FFFFFFF NOT DUP3 SLT PUSH4 0x7FFFFFFF DUP4 SGT OR PUSH2 0x5F5 JUMPI JUMP JUMPDEST PUSH2 0x5B7 JUMP JUMPDEST PUSH2 0x60A PUSH2 0xC3 PUSH2 0xC3 SWAP3 PUSH1 0x3 SIGNEXTEND SWAP1 JUMP JUMPDEST PUSH1 0x2 SIGNEXTEND SWAP1 JUMP JUMPDEST PUSH2 0x61D PUSH2 0xC3 PUSH2 0xC3 SWAP3 SWAP1 JUMP JUMPDEST PUSH1 0xFF AND SWAP1 JUMP JUMPDEST PUSH2 0xC3 PUSH1 0x60 PUSH2 0x610 JUMP JUMPDEST PUSH2 0xC3 PUSH2 0xC3 PUSH2 0xC3 SWAP3 SWAP1 JUMP JUMPDEST PUSH2 0xC3 SWAP1 PUSH2 0x652 PUSH2 0x64E PUSH2 0xC3 SWAP5 PUSH1 0xFF AND SWAP1 JUMP JUMPDEST SWAP2 SWAP1 JUMP JUMPDEST SWAP1 SHL SWAP1 JUMP JUMPDEST PUSH2 0xB7 PUSH2 0xC3 PUSH2 0xC3 SWAP3 SWAP1 JUMP JUMPDEST PUSH2 0x196 PUSH2 0xC3 PUSH2 0xC3 SWAP3 PUSH1 0x3 SIGNEXTEND SWAP1 JUMP JUMPDEST SWAP1 PUSH2 0x67E SWAP1 PUSH2 0x664 JUMP JUMPDEST PUSH1 0x0 MSTORE PUSH1 0x20 MSTORE PUSH1 0x40 PUSH1 0x0 KECCAK256 SWAP1 JUMP JUMPDEST PUSH2 0xC3 SWAP1 PUSH2 0x61D JUMP JUMPDEST PUSH2 0xC3 SWAP1 SLOAD PUSH2 0x68C JUMP JUMPDEST PUSH2 0x6AE SWAP1 PUSH1 0xFF AND JUMPDEST SWAP2 PUSH1 0xFF AND SWAP1 JUMP JUMPDEST SWAP1 SUB SWAP1 PUSH1 0xFF DUP3 GT PUSH2 0x5F5 JUMPI JUMP JUMPDEST SWAP1 PUSH1 0x1 PUSH1 0x1 PUSH1 0xA0 SHL SUB SWAP1 JUMPDEST SWAP2 DUP2 NOT AND SWAP2 AND OR SWAP1 JUMP JUMPDEST PUSH2 0xC3 SWAP1 PUSH2 0xB7 SWAP1 PUSH1 0x1 PUSH1 0x1 PUSH1 0xA0 SHL SUB AND DUP3 JUMP JUMPDEST SWAP1 PUSH2 0x6F4 PUSH2 0xC3 PUSH2 0x6FB SWAP3 PUSH2 0x6D0 JUMP JUMPDEST DUP3 SLOAD PUSH2 0x6BB JUMP JUMPDEST SWAP1 SSTORE JUMP JUMPDEST PUSH2 0xC3 SWAP1 PUSH2 0xB7 JUMP JUMPDEST PUSH2 0xC3 SWAP1 SLOAD PUSH2 0x6FF JUMP JUMPDEST PUSH2 0xC3 SWAP1 PUSH2 0x128 JUMP JUMPDEST PUSH2 0xC3 SWAP1 SLOAD PUSH2 0x712 JUMP JUMPDEST PUSH2 0x740 SWAP1 PUSH1 0x1 PUSH1 0x1 PUSH1 0x80 SHL SUB AND JUMPDEST SWAP2 PUSH1 0x1 PUSH1 0x1 PUSH1 0x80 SHL SUB AND SWAP1 JUMP JUMPDEST ADD SWAP1 PUSH1 0x1 PUSH1 0x1 PUSH1 0x80 SHL SUB DUP3 GT PUSH2 0x5F5 JUMPI JUMP JUMPDEST SWAP1 PUSH1 0x1 PUSH1 0x1 PUSH1 0x80 SHL SUB SWAP1 PUSH2 0x6C6 JUMP JUMPDEST PUSH2 0x128 PUSH2 0xC3 PUSH2 0xC3 SWAP3 PUSH1 0x1 PUSH1 0x1 PUSH1 0x80 SHL SUB AND SWAP1 JUMP JUMPDEST SWAP1 PUSH2 0x787 PUSH2 0xC3 PUSH2 0x6FB SWAP3 PUSH2 0x761 JUMP JUMPDEST DUP3 SLOAD PUSH2 0x752 JUMP JUMPDEST PUSH2 0xC3 SWAP1 PUSH2 0x6D0 JUMP JUMPDEST PUSH2 0xC3 SWAP1 PUSH2 0x78E JUMP JUMPDEST PUSH4 0x4E487B71 PUSH1 0xE0 SHL PUSH1 0x0 MSTORE PUSH1 0x41 PUSH1 0x4 MSTORE PUSH1 0x24 PUSH1 0x0 REVERT JUMPDEST SWAP1 PUSH1 0x1F ADD PUSH1 0x1F NOT AND DUP2 ADD SWAP1 DUP2 LT PUSH8 0xFFFFFFFFFFFFFFFF DUP3 GT OR PUSH2 0x7D8 JUMPI PUSH1 0x40 MSTORE JUMP JUMPDEST PUSH2 0x7A0 JUMP JUMPDEST SWAP1 DUP3 PUSH1 0x0 SWAP4 SWAP3 DUP3 CALLDATACOPY ADD MSTORE JUMP JUMPDEST SWAP2 SWAP1 PUSH2 0x807 DUP2 PUSH2 0x800 DUP2 PUSH2 0x811 SWAP6 PUSH1 0x20 SWAP2 DUP2 MSTORE ADD SWAP1 JUMP JUMPDEST DUP1 SWAP6 PUSH2 0x7DD JUMP JUMPDEST PUSH1 0x1F ADD PUSH1 0x1F NOT AND SWAP1 JUMP JUMPDEST ADD SWAP1 JUMP JUMPDEST SWAP1 SWAP4 SWAP2 PUSH2 0xC3 SWAP6 SWAP4 PUSH2 0x83F PUSH2 0x846 SWAP3 PUSH2 0x838 PUSH1 0x80 DUP7 ADD SWAP9 PUSH1 0x0 DUP8 ADD SWAP1 PUSH1 0x3 SIGNEXTEND SWAP1 MSTORE JUMP JUMPDEST PUSH1 0x20 DUP6 ADD MSTORE JUMP JUMPDEST PUSH1 0x40 DUP4 ADD MSTORE JUMP JUMPDEST PUSH1 0x60 DUP2 DUP6 SUB SWAP2 ADD MSTORE PUSH2 0x7E9 JUMP JUMPDEST PUSH1 0x40 MLOAD RETURNDATASIZE PUSH1 0x0 DUP3 RETURNDATACOPY RETURNDATASIZE SWAP1 REVERT JUMPDEST SWAP4 SWAP5 SWAP3 SWAP1 PUSH1 0x0 SWAP6 DUP7 SWAP4 PUSH2 0x873 PUSH2 0x196 PUSH2 0x592 JUMP JUMPDEST PUSH2 0x87D DUP5 PUSH1 0x3 SIGNEXTEND SWAP1 JUMP JUMPDEST SGT DUP1 ISZERO PUSH2 0xAEC JUMPI JUMPDEST PUSH2 0xADA JUMPI PUSH1 0x0 SWAP5 PUSH2 0x895 DUP7 PUSH2 0x5AA JUMP JUMPDEST PUSH1 0x1 PUSH1 0x1 PUSH1 0x80 SHL SUB DUP4 AND EQ PUSH2 0xAC4 JUMPI PUSH2 0x8B0 PUSH1 0x1 DUP8 ADD PUSH2 0x19C JUMP JUMPDEST SWAP9 PUSH2 0x8D6 PUSH2 0x8D1 PUSH2 0x8CC PUSH2 0x8C6 PUSH3 0x800000 PUSH2 0x585 JUMP JUMPDEST DUP9 PUSH2 0x5CD JUMP JUMPDEST PUSH2 0x5FA JUMP JUMPDEST PUSH2 0x2289 JUMP JUMPDEST SWAP10 PUSH2 0x8E1 DUP2 PUSH1 0x3 SIGNEXTEND SWAP1 JUMP JUMPDEST PUSH2 0x8EB DUP8 PUSH1 0x3 SIGNEXTEND SWAP1 JUMP JUMPDEST SUB PUSH2 0xA60 JUMPI POP POP POP PUSH2 0x908 DUP6 PUSH2 0x902 DUP6 PUSH1 0x2 PUSH2 0x674 JUMP JUMPDEST ADD PUSH2 0x695 JUMP JUMPDEST ISZERO PUSH2 0xA0B JUMPI PUSH2 0x970 SWAP1 PUSH2 0x96B DUP5 PUSH2 0x935 PUSH2 0x92E PUSH2 0x925 PUSH1 0x6 PUSH2 0x708 JUMP JUMPDEST SWAP13 JUMPDEST DUP14 DUP7 PUSH2 0x29D8 JUMP JUMPDEST SWAP12 DUP5 PUSH2 0x2A16 JUMP JUMPDEST SWAP10 PUSH2 0x953 PUSH2 0x94C DUP6 PUSH2 0x947 PUSH1 0x5 PUSH2 0x71B JUMP JUMPDEST PUSH2 0x725 JUMP JUMPDEST PUSH1 0x5 PUSH2 0x777 JUMP JUMPDEST PUSH2 0x95F DUP5 DUP4 PUSH1 0x2 PUSH2 0x2A9C JUMP JUMPDEST PUSH2 0x9F1 JUMPI JUMPDEST PUSH1 0x3 PUSH2 0x2BE4 JUMP JUMPDEST PUSH2 0x2C2E JUMP JUMPDEST PUSH2 0x981 PUSH2 0x97C CALLER PUSH2 0x797 JUMP JUMPDEST PUSH2 0x797 JUMP JUMPDEST DUP1 EXTCODESIZE ISZERO PUSH2 0xB2 JUMPI DUP8 DUP6 DUP1 SWAP5 PUSH2 0x9B4 DUP11 SWAP6 PUSH2 0x99A PUSH1 0x40 MLOAD SWAP1 JUMP JUMPDEST SWAP9 DUP10 SWAP8 DUP9 SWAP7 DUP8 SWAP6 PUSH4 0x196D73B7 PUSH1 0xE2 SHL DUP8 MSTORE PUSH1 0x4 DUP8 ADD PUSH2 0x815 JUMP JUMPDEST SUB SWAP3 GAS CALL DUP1 ISZERO PUSH2 0x9EC JUMPI PUSH2 0x9C6 JUMPI POP POP JUMP JUMPDEST DUP2 PUSH2 0xCA SWAP3 SWAP1 RETURNDATASIZE LT PUSH2 0x9E5 JUMPI JUMPDEST PUSH2 0x9DD DUP2 DUP4 PUSH2 0x7B6 JUMP JUMPDEST DUP2 ADD SWAP1 PUSH2 0xA7 JUMP JUMPDEST POP RETURNDATASIZE PUSH2 0x9D3 JUMP JUMPDEST PUSH2 0x853 JUMP JUMPDEST PUSH2 0xA06 PUSH2 0x9FE PUSH1 0x1 PUSH2 0x585 JUMP JUMPDEST DUP4 PUSH1 0x4 PUSH2 0x2B57 JUMP JUMPDEST PUSH2 0x964 JUMP JUMPDEST PUSH2 0x970 SWAP1 PUSH2 0x96B DUP5 PUSH2 0x935 PUSH2 0x92E PUSH2 0xA5B SWAP13 PUSH2 0xA52 PUSH2 0xA4D PUSH2 0xA3E PUSH2 0xA2E PUSH2 0x623 JUMP JUMPDEST PUSH2 0xA38 PUSH1 0x1 PUSH2 0x610 JUMP JUMPDEST SWAP1 PUSH2 0x69F JUMP JUMPDEST PUSH2 0xA48 PUSH1 0x1 PUSH2 0x62D JUMP JUMPDEST PUSH2 0x63A JUMP JUMPDEST PUSH2 0x657 JUMP JUMPDEST SWAP14 DUP15 PUSH1 0x6 PUSH2 0x6E4 JUMP JUMPDEST PUSH2 0x927 JUMP JUMPDEST SWAP9 SWAP10 SWAP2 SWAP9 PUSH1 0x3 SIGNEXTEND PUSH2 0xA71 DUP7 PUSH1 0x3 SIGNEXTEND SWAP1 JUMP JUMPDEST SGT ISZERO PUSH2 0xA9A JUMPI POP SWAP1 PUSH2 0x96B DUP5 PUSH2 0xA94 PUSH2 0x970 SWAP5 PUSH2 0xA8D DUP11 PUSH2 0x657 JUMP JUMPDEST POP DUP5 PUSH2 0x2974 JUMP JUMPDEST SWAP11 PUSH2 0x953 JUMP JUMPDEST SWAP9 SWAP8 POP POP PUSH2 0x970 SWAP1 PUSH2 0xAB0 PUSH2 0xA4D PUSH2 0xA3E PUSH2 0x623 JUMP JUMPDEST POP PUSH2 0x96B DUP5 PUSH2 0xABE DUP4 PUSH2 0x2957 JUMP JUMPDEST SWAP10 PUSH2 0x953 JUMP JUMPDEST PUSH1 0x40 MLOAD PUSH4 0x200E8A9 PUSH1 0xE3 SHL DUP2 MSTORE PUSH1 0x4 SWAP1 REVERT JUMPDEST SUB SWAP1 REVERT JUMPDEST PUSH1 0x40 MLOAD PUSH4 0x3944550F PUSH1 0xE2 SHL DUP2 MSTORE PUSH1 0x4 SWAP1 REVERT JUMPDEST POP PUSH2 0xAF8 PUSH2 0x196 PUSH2 0x59E JUMP JUMPDEST PUSH2 0xB02 DUP5 PUSH1 0x3 SIGNEXTEND SWAP1 JUMP JUMPDEST SLT PUSH2 0x885 JUMP JUMPDEST POP POP POP POP POP POP POP POP PUSH2 0xB18 PUSH1 0x0 SWAP1 JUMP JUMPDEST POP PUSH4 0xBC197C81 PUSH1 0xE0 SHL SWAP1 JUMP JUMPDEST DUP2 DUP2 MUL SWAP3 SWAP2 DUP2 ISZERO SWAP2 DUP5 DIV EQ OR ISZERO PUSH2 0x5F5 JUMPI JUMP JUMPDEST SWAP2 PUSH1 0x0 NOT PUSH1 0x8 SWAP3 SWAP1 SWAP3 MUL SWAP2 DUP3 SHL SWAP2 SHL PUSH2 0x6C6 JUMP JUMPDEST SWAP2 SWAP1 PUSH2 0xB5C PUSH2 0xC3 PUSH2 0x6FB SWAP4 PUSH2 0x62D JUMP JUMPDEST SWAP1 DUP4 SLOAD PUSH2 0xB37 JUMP JUMPDEST PUSH2 0xCA SWAP2 PUSH1 0x0 SWAP2 PUSH2 0xB4B JUMP JUMPDEST DUP2 DUP2 LT PUSH2 0xB7B JUMPI POP POP JUMP JUMPDEST DUP1 PUSH2 0xB89 PUSH1 0x0 PUSH1 0x1 SWAP4 PUSH2 0xB64 JUMP JUMPDEST ADD PUSH2 0xB70 JUMP JUMPDEST SWAP2 SWAP1 SWAP2 DUP3 DUP3 LT PUSH2 0xB9E JUMPI POP POP POP JUMP JUMPDEST PUSH2 0xCA SWAP3 SWAP2 PUSH2 0xBB3 SWAP1 SWAP2 PUSH1 0x0 MSTORE PUSH1 0x20 PUSH1 0x0 KECCAK256 SWAP1 JUMP JUMPDEST SWAP2 DUP3 ADD SWAP2 ADD PUSH2 0xB70 JUMP JUMPDEST SWAP1 PUSH1 0x1 PUSH1 0x40 SHL DUP2 GT PUSH2 0x7D8 JUMPI DUP2 PUSH2 0xBD5 PUSH2 0xCA SWAP4 SLOAD SWAP1 JUMP JUMPDEST SWAP1 DUP3 DUP2 SSTORE PUSH2 0xB8F JUMP JUMPDEST PUSH1 0x0 PUSH2 0xCA SWAP2 PUSH2 0xBBD JUMP JUMPDEST PUSH4 0x4E487B71 PUSH1 0xE0 SHL PUSH1 0x0 MSTORE PUSH1 0x0 PUSH1 0x4 MSTORE PUSH1 0x24 PUSH1 0x0 REVERT JUMPDEST SWAP1 PUSH1 0x0 SUB PUSH2 0xC10 JUMPI PUSH2 0xCA SWAP1 PUSH2 0xBDE JUMP JUMPDEST PUSH2 0xBE9 JUMP JUMPDEST SWAP1 PUSH2 0xCA PUSH2 0xC22 PUSH1 0x40 MLOAD SWAP1 JUMP JUMPDEST SWAP3 DUP4 PUSH2 0x7B6 JUMP JUMPDEST PUSH2 0xC3 PUSH1 0x40 PUSH2 0xC15 JUMP JUMPDEST SWAP1 PUSH2 0xCA PUSH2 0xC5B PUSH1 0x1 PUSH2 0xC44 PUSH2 0xC29 JUMP JUMPDEST SWAP5 PUSH2 0xC55 PUSH2 0xC51 DUP3 PUSH2 0x187 JUMP JUMPDEST DUP8 MSTORE JUMP JUMPDEST ADD PUSH2 0x19C JUMP JUMPDEST PUSH1 0x3 SIGNEXTEND PUSH1 0x20 DUP5 ADD MSTORE JUMP JUMPDEST PUSH2 0xC3 SWAP1 PUSH2 0xC33 JUMP JUMPDEST PUSH2 0xC3 PUSH20 0xFFFD8963EFD1FC6A506488495D951D5263988D26 PUSH2 0x62D JUMP JUMPDEST PUSH2 0xC3 PUSH5 0x1000276A3 PUSH2 0x62D JUMP JUMPDEST ISZERO PUSH2 0xCA0 JUMPI JUMP JUMPDEST PUSH1 0x40 MLOAD PUSH3 0x461BCD PUSH1 0xE5 SHL DUP2 MSTORE PUSH1 0x20 PUSH1 0x4 DUP3 ADD MSTORE PUSH1 0x13 PUSH1 0x24 DUP3 ADD MSTORE PUSH19 0x496E76616C6964204C696D6974507269636521 PUSH1 0x68 SHL PUSH1 0x44 DUP3 ADD MSTORE PUSH1 0x64 SWAP1 REVERT JUMPDEST PUSH2 0xC3 PUSH1 0xA0 PUSH2 0xC15 JUMP JUMPDEST PUSH8 0xFFFFFFFFFFFFFFFF DUP2 GT PUSH2 0x7D8 JUMPI PUSH1 0x20 SWAP1 PUSH1 0x1F ADD PUSH1 0x1F NOT AND ADD SWAP1 JUMP JUMPDEST SWAP1 PUSH2 0xD14 PUSH2 0xD0F DUP4 PUSH2 0xCE5 JUMP JUMPDEST PUSH2 0xC15 JUMP JUMPDEST SWAP2 DUP3 MSTORE JUMP JUMPDEST PUSH2 0xD23 PUSH1 0x81 PUSH2 0xD02 JUMP JUMPDEST PUSH32 0x20202020202020202020205B44454255475D3A202A2A2A2A2A2A2A2A2A2A2A2A PUSH1 0x20 DUP3 ADD MSTORE PUSH32 0x2A2A2A2A2A2A2A2A2A2A2A2A2A2A2A2A2A2A2A2A2A2A2A2A2A2A2A2A2A2A2A2A PUSH1 0x40 DUP3 ADD DUP2 SWAP1 MSTORE PUSH32 0x2A2A2A2A2A2A2A2A20726F756E64202A2A2A2A2A2A2A2A2A2A2A2A2A2A2A2A2A PUSH1 0x60 DUP4 ADD MSTORE PUSH1 0x80 DUP3 ADD MSTORE PUSH1 0x15 PUSH1 0xF9 SHL PUSH1 0xA0 DUP3 ADD MSTORE SWAP1 JUMP JUMPDEST PUSH2 0xC3 PUSH2 0xD19 JUMP JUMPDEST PUSH2 0xC3 PUSH1 0xC0 PUSH2 0xC15 JUMP JUMPDEST PUSH2 0xDC3 PUSH2 0xDB1 JUMP JUMPDEST SWAP1 PUSH1 0x0 DUP3 MSTORE PUSH1 0x20 DUP1 DUP1 DUP1 DUP1 DUP1 DUP8 ADD PUSH1 0x0 DUP2 MSTORE ADD PUSH1 0x0 DUP2 MSTORE ADD PUSH1 0x0 DUP2 MSTORE ADD PUSH1 0x0 DUP2 MSTORE ADD PUSH1 0x0 SWAP1 MSTORE POP JUMP JUMPDEST PUSH2 0xC3 PUSH2 0xDBB JUMP JUMPDEST PUSH2 0xDFE PUSH1 0x33 PUSH2 0xD02 JUMP JUMPDEST PUSH32 0x20202020202020202020205B44454255475D3A202A2A2A2A2A2A2A2A20736561 PUSH1 0x20 DUP3 ADD MSTORE PUSH19 0x3931B41032BC32B1BABA329015151515151515 PUSH1 0x69 SHL PUSH1 0x40 DUP3 ADD MSTORE SWAP1 JUMP JUMPDEST PUSH2 0xC3 PUSH2 0xDF4 JUMP JUMPDEST PUSH2 0xC3 PUSH2 0xC3 PUSH2 0xC3 SWAP3 PUSH1 0x3 SIGNEXTEND SWAP1 JUMP JUMPDEST PUSH2 0xE65 PUSH1 0x13 PUSH2 0xD02 JUMP JUMPDEST PUSH19 0x10101010101010101010102DA222A12AA3AE9D PUSH1 0x69 SHL PUSH1 0x20 DUP3 ADD MSTORE SWAP1 JUMP JUMPDEST PUSH2 0xC3 PUSH2 0xE5B JUMP JUMPDEST PUSH2 0xE96 PUSH1 0x34 PUSH2 0xD02 JUMP JUMPDEST PUSH32 0x20202020202020202020205B44454255475D3A204E6F7420537572653A207072 PUSH1 0x20 DUP3 ADD MSTORE PUSH20 0x696365506F696E743E3D6C696D69745072696365 PUSH1 0x60 SHL PUSH1 0x40 DUP3 ADD MSTORE SWAP1 JUMP JUMPDEST PUSH2 0xC3 PUSH2 0xE8C JUMP JUMPDEST PUSH2 0xEF0 SWAP1 PUSH1 0x3 SIGNEXTEND PUSH2 0x5D5 JUMP JUMPDEST ADD SWAP1 PUSH4 0x7FFFFFFF DUP3 SGT PUSH4 0x7FFFFFFF NOT DUP4 SLT OR PUSH2 0x5F5 JUMPI JUMP JUMPDEST PUSH2 0xF12 PUSH1 0x30 PUSH2 0xD02 JUMP JUMPDEST PUSH1 0x0 DUP1 MLOAD PUSH1 0x20 PUSH2 0x3827 DUP4 CODECOPY DUP2 MLOAD SWAP2 MSTORE PUSH1 0x20 DUP3 ADD MSTORE PUSH16 0x6F696E743C3D6C696D69745072696365 PUSH1 0x80 SHL PUSH1 0x40 DUP3 ADD MSTORE SWAP1 JUMP JUMPDEST PUSH2 0xC3 PUSH2 0xF08 JUMP JUMPDEST PUSH2 0xF54 PUSH1 0x2F PUSH2 0xD02 JUMP JUMPDEST PUSH1 0x0 DUP1 MLOAD PUSH1 0x20 PUSH2 0x3827 DUP4 CODECOPY DUP2 MLOAD SWAP2 MSTORE PUSH1 0x20 DUP3 ADD MSTORE PUSH15 0x6F696E743E6C696D69745072696365 PUSH1 0x88 SHL PUSH1 0x40 DUP3 ADD MSTORE SWAP1 JUMP JUMPDEST PUSH2 0xC3 PUSH2 0xF4A JUMP JUMPDEST PUSH2 0xF95 PUSH1 0x1E PUSH2 0xD02 JUMP JUMPDEST PUSH32 0x20202020202020202020205B44454255475D3A206E65787442696E203D200000 PUSH1 0x20 DUP3 ADD MSTORE SWAP1 JUMP JUMPDEST PUSH2 0xC3 PUSH2 0xF8B JUMP JUMPDEST PUSH2 0xFD0 PUSH1 0x25 PUSH2 0xD02 JUMP JUMPDEST PUSH32 0x20202020202020202020205B44454255475D3A206E6578745072696365506F69 PUSH1 0x20 DUP3 ADD MSTORE PUSH5 0x373A101E9 PUSH1 0xDD SHL PUSH1 0x40 DUP3 ADD MSTORE SWAP1 JUMP JUMPDEST PUSH2 0xC3 PUSH2 0xFC6 JUMP JUMPDEST PUSH2 0x1019 PUSH1 0x33 PUSH2 0xD02 JUMP JUMPDEST PUSH32 0x20202020202020202020205B44454255475D3A204E6F7420537572653A207072 PUSH1 0x20 DUP3 ADD MSTORE PUSH19 0x696365506F696E743C6C696D69745072696365 PUSH1 0x68 SHL PUSH1 0x40 DUP3 ADD MSTORE SWAP1 JUMP JUMPDEST PUSH2 0xC3 PUSH2 0x100F JUMP JUMPDEST PUSH2 0x1070 PUSH1 0x30 PUSH2 0xD02 JUMP JUMPDEST PUSH1 0x0 DUP1 MLOAD PUSH1 0x20 PUSH2 0x3827 DUP4 CODECOPY DUP2 MLOAD SWAP2 MSTORE PUSH1 0x20 DUP3 ADD MSTORE PUSH16 0x6F696E743E3D6C696D69745072696365 PUSH1 0x80 SHL PUSH1 0x40 DUP3 ADD MSTORE SWAP1 JUMP JUMPDEST PUSH2 0xC3 PUSH2 0x1066 JUMP JUMPDEST PUSH2 0x10B2 PUSH1 0x2F PUSH2 0xD02 JUMP JUMPDEST PUSH1 0x0 DUP1 MLOAD PUSH1 0x20 PUSH2 0x3827 DUP4 CODECOPY DUP2 MLOAD SWAP2 MSTORE PUSH1 0x20 DUP3 ADD MSTORE PUSH15 0x6F696E743C6C696D69745072696365 PUSH1 0x88 SHL PUSH1 0x40 DUP3 ADD MSTORE SWAP1 JUMP JUMPDEST PUSH2 0xC3 PUSH2 0x10A8 JUMP JUMPDEST PUSH2 0x10F3 PUSH1 0x33 PUSH2 0xD02 JUMP JUMPDEST PUSH32 0x20202020202020202020205B44454255475D3A202A2A2A2A2A2A2A2A2A206F75 PUSH1 0x20 DUP3 ADD MSTORE PUSH19 0x3A1037B31039B2B0B931B41015151515151515 PUSH1 0x69 SHL PUSH1 0x40 DUP3 ADD MSTORE SWAP1 JUMP JUMPDEST PUSH2 0xC3 PUSH2 0x10E9 JUMP JUMPDEST PUSH2 0x114A PUSH1 0x3F PUSH2 0xD02 JUMP JUMPDEST PUSH32 0x20202020202020202020205B44454255475D3A20737465702E73746172745072 PUSH1 0x20 DUP3 ADD MSTORE PUSH32 0x696365207C2073746174652E6163746976655F6C6971756964697479203A2000 PUSH1 0x40 DUP3 ADD MSTORE SWAP1 JUMP JUMPDEST PUSH2 0xC3 PUSH2 0x1140 JUMP JUMPDEST PUSH2 0xC3 PUSH2 0xC3 PUSH2 0xC3 SWAP3 PUSH1 0x1 PUSH1 0x1 PUSH1 0x80 SHL SUB AND SWAP1 JUMP JUMPDEST PUSH2 0x11C1 PUSH1 0x44 PUSH2 0xD02 JUMP JUMPDEST PUSH32 0x20202020202020202020205B44454255475D3A20636F6D706F736974696F6E20 PUSH1 0x20 DUP3 ADD MSTORE PUSH32 0x7C20737465702E6E6578745072696365207C206578706563746564416D6F756E PUSH1 0x40 DUP3 ADD MSTORE PUSH4 0x3A101D1 PUSH1 0xE5 SHL PUSH1 0x60 DUP3 ADD MSTORE SWAP1 JUMP JUMPDEST PUSH2 0xC3 PUSH2 0x11B7 JUMP JUMPDEST PUSH2 0xC3 SWAP1 DUP2 SWAP1 PUSH1 0x1 PUSH1 0x1 PUSH1 0xA0 SHL SUB AND DUP2 JUMP JUMPDEST PUSH2 0xC3 SWAP1 PUSH2 0x124B PUSH2 0x64E PUSH2 0xC3 SWAP5 PUSH1 0xFF AND SWAP1 JUMP JUMPDEST SWAP1 SHR SWAP1 JUMP JUMPDEST PUSH2 0xC3 SWAP1 PUSH1 0x8 SHR PUSH2 0x128 JUMP JUMPDEST PUSH2 0xC3 SWAP1 SLOAD PUSH2 0x1250 JUMP JUMPDEST SWAP2 SWAP1 DUP3 SUB SWAP2 DUP3 GT PUSH2 0x5F5 JUMPI JUMP JUMPDEST SWAP2 SWAP1 DUP3 ADD DUP1 SWAP3 GT PUSH2 0x5F5 JUMPI JUMP JUMPDEST PUSH4 0x4E487B71 PUSH1 0xE0 SHL PUSH1 0x0 MSTORE PUSH1 0x32 PUSH1 0x4 MSTORE PUSH1 0x24 PUSH1 0x0 REVERT JUMPDEST DUP1 SLOAD DUP3 LT ISZERO PUSH2 0x12B9 JUMPI PUSH2 0x12B0 PUSH1 0x1 SWAP2 PUSH1 0x0 MSTORE PUSH1 0x20 PUSH1 0x0 KECCAK256 SWAP1 JUMP JUMPDEST SWAP2 MUL ADD SWAP1 PUSH1 0x0 SWAP1 JUMP JUMPDEST PUSH2 0x1280 JUMP JUMPDEST SWAP1 DUP2 SLOAD SWAP2 PUSH1 0x1 PUSH1 0x40 SHL DUP4 LT ISZERO PUSH2 0x7D8 JUMPI DUP3 PUSH2 0x12E1 SWAP2 PUSH1 0x1 PUSH2 0xCA SWAP6 ADD DUP2 SSTORE PUSH2 0x1296 JUMP JUMPDEST SWAP1 PUSH2 0xB4B JUMP JUMPDEST PUSH2 0x12F1 PUSH1 0x35 PUSH2 0xD02 JUMP JUMPDEST PUSH32 0x20202020202020202020205B44454255475D3A20737465702E616D6F756E744F PUSH1 0x20 DUP3 ADD MSTORE PUSH21 0x3ABA103E1039BA32B81730B6B7BAB73A24B7101D1 PUSH1 0x5D SHL PUSH1 0x40 DUP3 ADD MSTORE SWAP1 JUMP JUMPDEST PUSH2 0xC3 PUSH2 0x12E7 JUMP JUMPDEST PUSH2 0x134A PUSH1 0x1F PUSH2 0xD02 JUMP JUMPDEST PUSH32 0x20202020202020202020205B44454255475D3A2073746174652E7069203D2000 PUSH1 0x20 DUP3 ADD MSTORE SWAP1 JUMP JUMPDEST PUSH2 0xC3 PUSH2 0x1340 JUMP JUMPDEST PUSH2 0x1385 PUSH1 0xE PUSH2 0xD02 JUMP JUMPDEST PUSH14 0x31B7B6B837B9B4BA34B7B7101E9 PUSH1 0x95 SHL PUSH1 0x20 DUP3 ADD MSTORE SWAP1 JUMP JUMPDEST PUSH2 0xC3 PUSH2 0x137B JUMP JUMPDEST PUSH2 0x13B1 PUSH1 0x81 PUSH2 0xD02 JUMP JUMPDEST PUSH32 0x20202020202020202020205B44454255475D3A202A2A2A2A2A2A2A2A2A2A2A2A PUSH1 0x20 DUP3 ADD MSTORE PUSH32 0x2A2A2A2A2A2A2A2A2A2A2A2A2A2A2A2A2A2A2A2A2A2A2A2A2A2A2A2A2A2A2A2A PUSH1 0x40 DUP3 ADD DUP2 SWAP1 MSTORE PUSH32 0x2A2A2A2A206F7574206F6620726F756E64202A2A2A2A2A2A2A2A2A2A2A2A2A2A PUSH1 0x60 DUP4 ADD MSTORE PUSH1 0x80 DUP3 ADD MSTORE PUSH1 0x15 PUSH1 0xF9 SHL PUSH1 0xA0 DUP3 ADD MSTORE SWAP1 JUMP JUMPDEST PUSH2 0xC3 PUSH2 0x13A7 JUMP JUMPDEST PUSH8 0xFFFFFFFFFFFFFFFF DUP2 GT PUSH2 0x7D8 JUMPI PUSH1 0x20 DUP1 SWAP2 MUL ADD SWAP1 JUMP JUMPDEST SWAP1 PUSH2 0xD14 PUSH2 0xD0F DUP4 PUSH2 0x143F JUMP JUMPDEST CALLDATASIZE SWAP1 CALLDATACOPY JUMP JUMPDEST SWAP1 PUSH2 0xCA PUSH2 0x147F PUSH2 0x1479 DUP5 PUSH2 0x1457 JUMP JUMPDEST SWAP4 PUSH2 0x143F JUMP JUMPDEST PUSH1 0x1F NOT ADD PUSH1 0x20 DUP5 ADD PUSH2 0x1464 JUMP JUMPDEST PUSH2 0xC3 SWAP2 PUSH1 0x8 MUL SHR DUP2 JUMP JUMPDEST SWAP1 PUSH2 0xC3 SWAP2 SLOAD PUSH2 0x148C JUMP JUMPDEST PUSH2 0x14AC PUSH1 0x53 PUSH2 0xD02 JUMP JUMPDEST PUSH32 0x20202020202020202020205B44454255475D3A2074656D704964735B695D207C PUSH1 0x20 DUP3 ADD MSTORE PUSH32 0x2074656D70416D6F756E74734F66546F6B656E305B695D207C2074656D70416D PUSH1 0x40 DUP3 ADD MSTORE PUSH19 0x37BAB73A39A7B32A37B5B2B718ADB4AE901E9 PUSH1 0x6D SHL PUSH1 0x60 DUP3 ADD MSTORE SWAP1 JUMP JUMPDEST PUSH2 0xC3 PUSH2 0x14A2 JUMP JUMPDEST SWAP1 PUSH2 0x1528 DUP3 MLOAD SWAP1 JUMP JUMPDEST DUP2 LT ISZERO PUSH2 0x12B9 JUMPI PUSH1 0x20 DUP1 SWAP2 MUL ADD ADD SWAP1 JUMP JUMPDEST SWAP2 SWAP1 PUSH1 0x60 DUP4 DUP3 SUB SLT PUSH2 0xB2 JUMPI PUSH2 0x83F SWAP1 PUSH1 0x40 PUSH2 0x1555 PUSH1 0x60 PUSH2 0xC15 JUMP JUMPDEST SWAP5 PUSH2 0x1560 DUP4 DUP3 PUSH2 0x20A JUMP JUMPDEST DUP7 MSTORE PUSH2 0x156F DUP4 PUSH1 0x20 DUP4 ADD PUSH2 0x20A JUMP JUMPDEST PUSH1 0x20 DUP8 ADD MSTORE ADD PUSH2 0x20A JUMP JUMPDEST SWAP1 PUSH1 0x60 DUP3 DUP3 SUB SLT PUSH2 0xB2 JUMPI PUSH2 0xC3 SWAP2 PUSH2 0x1539 JUMP JUMPDEST SWAP1 PUSH2 0x15AE PUSH2 0x15A7 PUSH2 0x159D DUP5 MLOAD SWAP1 JUMP JUMPDEST DUP1 DUP5 MSTORE SWAP3 PUSH1 0x20 ADD SWAP1 JUMP JUMPDEST SWAP3 PUSH1 0x20 ADD SWAP1 JUMP JUMPDEST SWAP1 PUSH1 0x0 JUMPDEST DUP2 DUP2 LT PUSH2 0x15BF JUMPI POP POP POP SWAP1 JUMP JUMPDEST SWAP1 SWAP2 SWAP3 PUSH2 0x15DC PUSH2 0x15D5 PUSH1 0x1 SWAP3 DUP7 MLOAD DUP2 MSTORE PUSH1 0x20 ADD SWAP1 JUMP JUMPDEST SWAP5 PUSH1 0x20 ADD SWAP1 JUMP JUMPDEST SWAP3 SWAP2 ADD PUSH2 0x15B2 JUMP JUMPDEST SWAP7 SWAP6 SWAP4 SWAP1 SWAP5 PUSH2 0x162C PUSH1 0x80 SWAP5 PUSH2 0x161E PUSH2 0x163A SWAP6 PUSH2 0x1610 DUP13 PUSH2 0xCA SWAP12 PUSH1 0xA0 DUP3 ADD SWAP2 PUSH1 0x0 DUP2 DUP5 SUB SWAP2 ADD MSTORE PUSH2 0x158E JUMP JUMPDEST DUP13 DUP2 SUB PUSH1 0x20 DUP15 ADD MSTORE SWAP1 PUSH2 0x158E JUMP JUMPDEST SWAP1 DUP11 DUP3 SUB PUSH1 0x40 DUP13 ADD MSTORE PUSH2 0x158E JUMP JUMPDEST SWAP2 DUP9 DUP4 SUB PUSH1 0x60 DUP11 ADD MSTORE PUSH2 0x7E9 JUMP JUMPDEST SWAP5 ADD SWAP1 ISZERO ISZERO SWAP1 MSTORE JUMP JUMPDEST SWAP1 PUSH4 0xFFFFFFFF SWAP1 PUSH2 0x6C6 JUMP JUMPDEST SWAP1 PUSH2 0x165F PUSH2 0xC3 PUSH2 0x6FB SWAP3 PUSH2 0x664 JUMP JUMPDEST DUP3 SLOAD PUSH2 0x1643 JUMP JUMPDEST SWAP1 PUSH1 0x0 NOT SWAP1 PUSH2 0x6C6 JUMP JUMPDEST SWAP1 PUSH2 0x1680 PUSH2 0xC3 PUSH2 0x6FB SWAP3 PUSH2 0x62D JUMP JUMPDEST DUP3 SLOAD PUSH2 0x1666 JUMP JUMPDEST PUSH2 0x1691 PUSH1 0x1E PUSH2 0xD02 JUMP JUMPDEST PUSH32 0x20202020202020202020205B44454255475D3A20616D6F756E7430203D200000 PUSH1 0x20 DUP3 ADD MSTORE SWAP1 JUMP JUMPDEST PUSH2 0xC3 PUSH2 0x1687 JUMP JUMPDEST PUSH2 0x16CC PUSH1 0xA PUSH2 0xD02 JUMP JUMPDEST PUSH10 0x30B6B7BAB73A18901E9 PUSH1 0xB5 SHL PUSH1 0x20 DUP3 ADD MSTORE SWAP1 JUMP JUMPDEST PUSH2 0xC3 PUSH2 0x16C2 JUMP JUMPDEST SWAP3 SWAP5 SWAP1 PUSH1 0x0 SWAP1 PUSH2 0x16FC PUSH1 0x0 PUSH1 0x7 PUSH2 0xBFF JUMP JUMPDEST PUSH2 0x1708 PUSH1 0x0 PUSH1 0x8 PUSH2 0xBFF JUMP JUMPDEST PUSH2 0x1714 PUSH1 0x0 PUSH1 0x9 PUSH2 0xBFF JUMP JUMPDEST PUSH2 0x171E PUSH1 0x0 PUSH2 0xC65 JUMP JUMPDEST SWAP2 PUSH2 0x1799 PUSH2 0x172C PUSH1 0x5 PUSH2 0x71B JUMP JUMPDEST PUSH1 0x0 DUP8 ISZERO PUSH2 0x211C JUMPI POP PUSH2 0x1740 PUSH2 0xC3 DUP7 MLOAD SWAP1 JUMP JUMPDEST DUP5 LT DUP1 PUSH2 0x2103 JUMPI JUMPDEST PUSH2 0x1751 SWAP1 PUSH2 0xC99 JUMP JUMPDEST PUSH2 0x1789 PUSH2 0x176D PUSH1 0x0 PUSH2 0x1767 PUSH1 0x20 DUP10 ADD MLOAD PUSH1 0x3 SIGNEXTEND SWAP1 JUMP JUMPDEST SWAP8 ADD MLOAD SWAP1 JUMP JUMPDEST PUSH2 0x1782 PUSH2 0x1778 PUSH2 0xCDB JUMP JUMPDEST SWAP8 DUP9 SWAP1 PUSH1 0x3 SIGNEXTEND SWAP1 MSTORE JUMP JUMPDEST PUSH1 0x20 DUP8 ADD MSTORE JUMP JUMPDEST PUSH1 0x1 PUSH1 0x1 PUSH1 0x80 SHL SUB AND PUSH1 0x40 DUP6 ADD MSTORE JUMP JUMPDEST PUSH2 0x17A3 PUSH1 0x0 PUSH2 0x62D JUMP JUMPDEST SWAP6 PUSH2 0x17AF DUP8 PUSH1 0x60 DUP7 ADD MSTORE JUMP JUMPDEST PUSH2 0x17BA DUP8 PUSH1 0x80 DUP7 ADD MSTORE JUMP JUMPDEST DUP7 DUP2 GT DUP1 PUSH2 0x20E2 JUMPI JUMPDEST ISZERO PUSH2 0x20DA JUMPI PUSH2 0x17D0 PUSH2 0x2C45 JUMP JUMPDEST PUSH2 0x17E0 PUSH2 0x17DB PUSH2 0xDA9 JUMP JUMPDEST PUSH2 0x2CD9 JUMP JUMPDEST DUP4 PUSH2 0x17E9 PUSH2 0xDEC JUMP JUMPDEST SWAP2 PUSH2 0x17FC PUSH2 0x17F8 PUSH1 0x20 DUP5 ADD MLOAD SWAP1 JUMP JUMPDEST DUP5 MSTORE JUMP JUMPDEST DUP3 MLOAD SWAP1 DUP9 PUSH2 0x180B DUP5 MLOAD PUSH1 0x3 SIGNEXTEND SWAP1 JUMP JUMPDEST PUSH1 0x0 SWAP4 PUSH1 0x0 DUP4 ISZERO PUSH2 0x1FB0 JUMPI JUMPDEST DUP10 DUP3 LT PUSH2 0x1FA5 JUMPI POP DUP2 SWAP1 PUSH2 0x1829 PUSH2 0x2C45 JUMP JUMPDEST PUSH2 0x1834 PUSH2 0x17DB PUSH2 0xE43 JUMP JUMPDEST PUSH2 0x1855 PUSH2 0x1848 PUSH2 0x1843 DUP5 PUSH2 0xE4B JUMP JUMPDEST PUSH2 0x62D JUMP JUMPDEST PUSH2 0x1850 PUSH2 0xE84 JUMP JUMPDEST PUSH2 0x2D27 JUMP JUMPDEST PUSH2 0x1861 DUP2 PUSH2 0x1850 PUSH2 0xE84 JUMP JUMPDEST PUSH2 0x1879 DUP5 PUSH1 0x4 PUSH2 0x1871 PUSH1 0x1 PUSH2 0x585 JUMP JUMPDEST SWAP5 DUP6 SWAP2 PUSH2 0x2DCA JUMP JUMPDEST SWAP1 DUP2 SWAP4 DUP13 PUSH2 0x1898 PUSH2 0x8D1 PUSH2 0x8CC PUSH2 0x1892 PUSH3 0x800000 PUSH2 0x585 JUMP JUMPDEST DUP7 PUSH2 0x5CD JUMP JUMPDEST SWAP4 PUSH2 0x18B0 PUSH2 0x18A8 PUSH2 0x1843 DUP7 PUSH2 0xE4B JUMP JUMPDEST PUSH2 0x1850 PUSH2 0xFBE JUMP JUMPDEST PUSH2 0x18BC DUP6 PUSH2 0x1850 PUSH2 0x1007 JUMP JUMPDEST ISZERO PUSH2 0x1F06 JUMPI DUP11 SWAP12 SWAP11 SWAP8 SWAP7 SWAP6 SWAP5 SWAP4 SWAP3 SWAP2 POP DUP3 LT ISZERO PUSH2 0x1EF1 JUMPI POP POP PUSH2 0x18E0 PUSH2 0x17DB PUSH2 0x10E1 JUMP JUMPDEST PUSH2 0x18E8 PUSH2 0x2C45 JUMP JUMPDEST PUSH2 0x18F0 PUSH2 0x1138 JUMP JUMPDEST PUSH2 0x18F9 SWAP1 PUSH2 0x2CD9 JUMP JUMPDEST PUSH1 0x3 DUP4 SWAP1 SIGNEXTEND PUSH1 0x20 DUP10 ADD MSTORE PUSH1 0x40 DUP9 ADD MSTORE ISZERO ISZERO PUSH1 0x60 DUP8 ADD MSTORE DUP6 MLOAD SWAP5 PUSH1 0x40 DUP5 ADD SWAP6 PUSH2 0x1928 DUP8 MLOAD PUSH1 0x1 PUSH1 0x1 PUSH1 0x80 SHL SUB AND SWAP1 JUMP JUMPDEST SWAP1 PUSH2 0x1931 PUSH2 0x1199 JUMP JUMPDEST SWAP2 PUSH2 0x193B SWAP1 PUSH2 0x11A1 JUMP JUMPDEST SWAP1 PUSH2 0x1945 SWAP3 PUSH2 0x2F4A JUMP JUMPDEST PUSH2 0x194F PUSH1 0x6 PUSH2 0x708 JUMP JUMPDEST DUP6 PUSH2 0x195B PUSH1 0x40 DUP11 ADD MLOAD SWAP1 JUMP JUMPDEST PUSH2 0x1963 PUSH2 0x121D JUMP JUMPDEST SWAP3 PUSH2 0x196D SWAP1 PUSH2 0x1225 JUMP JUMPDEST PUSH2 0x1976 SWAP4 PUSH2 0x2FA5 JUMP JUMPDEST DUP4 MLOAD PUSH1 0x3 SIGNEXTEND SWAP6 PUSH2 0x1984 DUP9 MLOAD SWAP1 JUMP JUMPDEST DUP7 DUP6 PUSH2 0x1997 DUP5 MLOAD PUSH1 0x1 PUSH1 0x1 PUSH1 0x80 SHL SUB AND SWAP1 JUMP JUMPDEST PUSH2 0x19A1 PUSH1 0x6 PUSH2 0x708 JUMP JUMPDEST PUSH1 0x40 DUP14 ADD MLOAD SWAP2 PUSH2 0x19B0 SWAP6 PUSH2 0x2FF7 JUMP JUMPDEST PUSH1 0xA0 DUP13 ADD MSTORE PUSH1 0x80 DUP12 ADD MSTORE PUSH2 0x19C5 SWAP1 PUSH1 0x6 PUSH2 0x6E4 JUMP JUMPDEST PUSH1 0x20 DUP7 ADD MSTORE PUSH1 0x20 DUP6 ADD MLOAD SWAP8 DUP1 PUSH2 0x19DC PUSH1 0x40 DUP3 ADD MLOAD SWAP1 JUMP JUMPDEST SWAP10 PUSH2 0x19E5 PUSH2 0x623 JUMP JUMPDEST SWAP11 DUP12 PUSH2 0x19F0 SWAP2 PUSH2 0x1237 JUMP JUMPDEST EQ PUSH1 0x0 EQ SWAP10 PUSH2 0x1AD2 PUSH2 0x8D1 SWAP11 PUSH2 0x1ABE PUSH2 0x1A80 PUSH2 0x8CC SWAP13 PUSH2 0x1B91 SWAP16 SWAP13 PUSH2 0x1B32 SWAP10 PUSH2 0x1B0E SWAP9 PUSH2 0x1B7E SWAP16 PUSH2 0x1EDD JUMPI PUSH1 0x0 PUSH2 0x1A62 PUSH2 0x1A75 SWAP5 PUSH2 0x1A55 PUSH2 0x1A4C PUSH1 0x20 DUP7 PUSH2 0x1A44 PUSH2 0x1A3E PUSH1 0x40 PUSH2 0x1A68 SWAP11 ADD MLOAD SWAP1 JUMP JUMPDEST DUP4 DUP8 ADD MSTORE JUMP JUMPDEST ADD MLOAD PUSH1 0x3 SIGNEXTEND SWAP1 JUMP JUMPDEST PUSH1 0x3 SIGNEXTEND DUP3 DUP6 ADD MSTORE JUMP JUMPDEST DUP3 ADD MLOAD PUSH1 0x3 SIGNEXTEND PUSH1 0x2 PUSH2 0x674 JUMP JUMPDEST ADD PUSH2 0x125C JUMP JUMPDEST PUSH1 0x1 PUSH1 0x1 PUSH1 0x80 SHL SUB AND SWAP1 MSTORE JUMP JUMPDEST PUSH1 0xA0 DUP9 ADD MLOAD SWAP1 PUSH2 0x1266 JUMP JUMPDEST SWAP15 PUSH2 0x1AA4 PUSH2 0x1A8F PUSH1 0xA0 DUP10 ADD MLOAD SWAP1 JUMP JUMPDEST PUSH2 0xC6 PUSH1 0x60 DUP5 ADD SWAP2 PUSH2 0x1A9F DUP4 MLOAD SWAP1 JUMP JUMPDEST PUSH2 0x1273 JUMP JUMPDEST PUSH2 0xC6 PUSH1 0x80 PUSH2 0x1AB3 DUP2 DUP11 ADD MLOAD SWAP1 JUMP JUMPDEST SWAP3 ADD SWAP2 PUSH2 0x1A9F DUP4 MLOAD SWAP1 JUMP JUMPDEST PUSH2 0x1ACC PUSH2 0x1843 PUSH1 0x7 SWAP3 PUSH2 0xE4B JUMP JUMPDEST SWAP1 PUSH2 0x12BE JUMP JUMPDEST DUP7 ISZERO PUSH2 0x1EB6 JUMPI PUSH2 0x1B07 PUSH2 0x1AFE PUSH2 0x1AF2 DUP4 PUSH2 0x1AED PUSH1 0x80 DUP9 ADD MLOAD SWAP1 JUMP JUMPDEST PUSH2 0x1237 JUMP JUMPDEST SWAP3 PUSH2 0x1AED PUSH1 0xA0 DUP8 ADD MLOAD SWAP1 JUMP JUMPDEST SWAP2 JUMPDEST PUSH1 0x8 PUSH2 0x12BE JUMP JUMPDEST PUSH1 0x9 PUSH2 0x12BE JUMP JUMPDEST PUSH2 0x1B24 PUSH1 0x80 PUSH2 0x1B1E PUSH1 0xA0 DUP5 ADD MLOAD SWAP1 JUMP JUMPDEST SWAP3 ADD MLOAD SWAP1 JUMP JUMPDEST SWAP1 PUSH2 0x1B2D PUSH2 0x1338 JUMP JUMPDEST PUSH2 0x2F4A JUMP JUMPDEST PUSH2 0x1B6A PUSH2 0x1B40 PUSH1 0x20 DUP14 ADD MLOAD SWAP1 JUMP JUMPDEST PUSH2 0x1B4A PUSH1 0x6 PUSH2 0x708 JUMP JUMPDEST PUSH2 0x1B52 PUSH2 0x1373 JUMP JUMPDEST SWAP2 PUSH2 0x1B64 PUSH2 0x1B5E PUSH2 0x139F JUMP JUMPDEST SWAP3 PUSH2 0x1225 JUMP JUMPDEST SWAP3 PUSH2 0x312E JUMP JUMPDEST POP PUSH1 0x4 SWAP1 PUSH2 0x1B78 PUSH1 0x1 PUSH2 0x585 JUMP JUMPDEST SWAP2 PUSH2 0x2DCA JUMP JUMPDEST POP PUSH2 0x1B8B PUSH3 0x800000 PUSH2 0x585 JUMP JUMPDEST SWAP1 PUSH2 0x5CD JUMP JUMPDEST DUP7 ISZERO PUSH2 0x1EAF JUMPI DUP4 GT JUMPDEST ISZERO PUSH2 0x17BA JUMPI POP POP POP JUMPDEST PUSH2 0x1BAB PUSH2 0x2C45 JUMP JUMPDEST PUSH2 0x1BB6 PUSH2 0x17DB PUSH2 0x1437 JUMP JUMPDEST PUSH1 0x7 SWAP2 PUSH2 0x1BC9 PUSH2 0x1BC4 DUP5 SLOAD SWAP1 JUMP JUMPDEST PUSH2 0x1469 JUMP JUMPDEST SWAP4 PUSH2 0x1BD5 PUSH2 0x1BC4 DUP6 SLOAD SWAP1 JUMP JUMPDEST SWAP8 PUSH2 0x1BE1 PUSH2 0x1BC4 DUP7 SLOAD SWAP1 JUMP JUMPDEST SWAP7 JUMPDEST PUSH2 0x1BEE PUSH2 0xC3 DUP8 SLOAD SWAP1 JUMP JUMPDEST DUP2 LT ISZERO PUSH2 0x1CAE JUMPI PUSH2 0x1BFF DUP2 DUP8 PUSH2 0x1296 JUMP JUMPDEST PUSH2 0x1C08 SWAP2 PUSH2 0x1497 JUMP JUMPDEST DUP2 DUP1 DUP13 PUSH1 0x8 DUP3 DUP1 DUP14 DUP14 DUP3 PUSH2 0x1C1C DUP2 DUP8 PUSH2 0x1296 JUMP JUMPDEST PUSH2 0x1C25 SWAP2 PUSH2 0x1497 JUMP JUMPDEST SWAP10 PUSH1 0x9 SWAP11 PUSH2 0x1C33 DUP4 DUP14 PUSH2 0x1296 JUMP JUMPDEST PUSH2 0x1C3C SWAP2 PUSH2 0x1497 JUMP JUMPDEST SWAP1 PUSH2 0x1C45 PUSH2 0x1517 JUMP JUMPDEST SWAP3 PUSH2 0x1C4F SWAP4 PUSH2 0x2FA5 JUMP JUMPDEST PUSH2 0x1C58 SWAP2 PUSH2 0x1296 JUMP JUMPDEST PUSH2 0x1C61 SWAP2 PUSH2 0x1497 JUMP JUMPDEST SWAP2 PUSH2 0x1C6B SWAP2 PUSH2 0x151F JUMP JUMPDEST MSTORE PUSH2 0x1C75 SWAP2 PUSH2 0x1296 JUMP JUMPDEST PUSH2 0x1C7E SWAP2 PUSH2 0x1497 JUMP JUMPDEST SWAP2 PUSH2 0x1C88 SWAP2 PUSH2 0x151F JUMP JUMPDEST MSTORE PUSH2 0x1C92 SWAP2 PUSH2 0x1296 JUMP JUMPDEST PUSH2 0x1C9B SWAP2 PUSH2 0x1497 JUMP JUMPDEST PUSH2 0x1CA5 DUP3 DUP11 PUSH2 0x151F JUMP JUMPDEST MSTORE PUSH1 0x1 ADD PUSH2 0x1BE3 JUMP JUMPDEST POP SWAP5 SWAP4 POP SWAP5 SWAP2 SWAP7 SWAP6 SWAP1 SWAP6 PUSH2 0x1CC4 DUP3 DUP7 ADD DUP7 PUSH2 0x157A JUMP JUMPDEST PUSH2 0x1CD9 PUSH2 0x97C DUP1 DUP4 MLOAD PUSH1 0x1 PUSH1 0x1 PUSH1 0xA0 SHL SUB AND SWAP1 JUMP JUMPDEST PUSH4 0xA22CB465 SWAP2 DUP2 EXTCODESIZE ISZERO PUSH2 0xB2 JUMPI PUSH1 0x0 PUSH2 0x1CF1 PUSH1 0x40 MLOAD SWAP1 JUMP JUMPDEST DUP1 SWAP4 PUSH2 0x1CFD DUP7 PUSH1 0xE0 SHL SWAP1 JUMP JUMPDEST DUP3 MSTORE CALLER PUSH1 0x4 DUP4 ADD MSTORE PUSH1 0x1 PUSH1 0x24 DUP4 ADD MSTORE PUSH1 0x44 SWAP1 DUP3 SWAP1 DUP5 SWAP1 GAS CALL SWAP2 DUP3 ISZERO PUSH2 0x9EC JUMPI PUSH1 0x20 PUSH2 0x97C SWAP3 PUSH2 0x97C SWAP3 PUSH2 0x1D3E SWAP6 PUSH2 0x1E99 JUMPI JUMPDEST POP ADD MLOAD PUSH1 0x1 PUSH1 0x1 PUSH1 0xA0 SHL SUB AND SWAP1 JUMP JUMPDEST DUP1 EXTCODESIZE ISZERO PUSH2 0xB2 JUMPI PUSH2 0x1D5E SWAP2 PUSH1 0x0 SWAP2 PUSH2 0x1D55 PUSH1 0x40 MLOAD SWAP1 JUMP JUMPDEST SWAP4 DUP5 SWAP3 PUSH1 0xE0 SHL SWAP1 JUMP JUMPDEST DUP3 MSTORE CALLER PUSH1 0x4 DUP4 ADD MSTORE PUSH1 0x1 PUSH1 0x24 DUP4 ADD MSTORE PUSH1 0x44 SWAP1 DUP3 SWAP1 DUP5 SWAP1 GAS CALL DUP1 ISZERO PUSH2 0x9EC JUMPI PUSH2 0x1E83 JUMPI JUMPDEST POP PUSH2 0x1D8E PUSH2 0x97C CALLER PUSH2 0x797 JUMP JUMPDEST SWAP2 DUP3 EXTCODESIZE ISZERO PUSH2 0xB2 JUMPI PUSH1 0x0 SWAP5 PUSH2 0x1DC2 DUP9 DUP8 SWAP4 PUSH2 0x1DA8 PUSH1 0x40 MLOAD SWAP1 JUMP JUMPDEST SWAP10 DUP11 SWAP9 DUP10 SWAP8 DUP9 SWAP7 PUSH4 0x5138D537 PUSH1 0xE1 SHL DUP9 MSTORE PUSH1 0x4 DUP9 ADD PUSH2 0x15E4 JUMP JUMPDEST SUB SWAP3 GAS CALL DUP1 ISZERO PUSH2 0x9EC JUMPI PUSH2 0x1E6D JUMPI JUMPDEST POP PUSH2 0x1E1E PUSH2 0x1E17 PUSH1 0x20 DUP6 ADD PUSH2 0x1DE7 PUSH2 0x1B40 DUP3 MLOAD SWAP1 JUMP JUMPDEST PUSH2 0x1DFE PUSH2 0x94C PUSH1 0x40 DUP9 ADD MLOAD PUSH1 0x1 PUSH1 0x1 PUSH1 0x80 SHL SUB AND SWAP1 JUMP JUMPDEST PUSH2 0x1E13 PUSH2 0x1E0C DUP8 MLOAD PUSH1 0x3 SIGNEXTEND SWAP1 JUMP JUMPDEST PUSH1 0x1 PUSH2 0x164F JUMP JUMPDEST MLOAD SWAP1 JUMP JUMPDEST PUSH1 0x0 PUSH2 0x1670 JUMP JUMPDEST ISZERO PUSH2 0x1E57 JUMPI PUSH2 0x1E39 PUSH1 0x60 PUSH2 0x1E33 PUSH1 0x80 DUP6 ADD MLOAD SWAP1 JUMP JUMPDEST SWAP4 ADD MLOAD SWAP1 JUMP JUMPDEST SWAP1 JUMPDEST PUSH2 0xCA DUP3 DUP5 PUSH2 0x1E48 PUSH2 0x16BA JUMP JUMPDEST SWAP1 PUSH2 0x1E51 PUSH2 0x16E2 JUMP JUMPDEST SWAP2 PUSH2 0x312E JUMP JUMPDEST PUSH2 0x1E67 PUSH1 0x80 PUSH2 0x1E33 PUSH1 0x60 DUP6 ADD MLOAD SWAP1 JUMP JUMPDEST SWAP1 PUSH2 0x1E3B JUMP JUMPDEST PUSH2 0x1E7D SWAP1 PUSH1 0x0 PUSH2 0x9DD DUP2 DUP4 PUSH2 0x7B6 JUMP JUMPDEST CODESIZE PUSH2 0x1DD1 JUMP JUMPDEST PUSH2 0x1E93 SWAP1 PUSH1 0x0 PUSH2 0x9DD DUP2 DUP4 PUSH2 0x7B6 JUMP JUMPDEST CODESIZE PUSH2 0x1D81 JUMP JUMPDEST PUSH2 0x1EA9 SWAP1 PUSH1 0x0 PUSH2 0x9DD DUP2 DUP4 PUSH2 0x7B6 JUMP JUMPDEST CODESIZE PUSH2 0x1D2F JUMP JUMPDEST DUP4 LT PUSH2 0x1B9A JUMP JUMPDEST PUSH2 0x1B07 PUSH2 0x1ED7 PUSH2 0x1ECB DUP4 PUSH2 0x1AED PUSH1 0xA0 DUP9 ADD MLOAD SWAP1 JUMP JUMPDEST SWAP3 PUSH2 0x1AED PUSH1 0x80 DUP8 ADD MLOAD SWAP1 JUMP JUMPDEST SWAP2 PUSH2 0x1B00 JUMP JUMPDEST MLOAD PUSH2 0x1EEC SWAP3 SWAP2 POP PUSH1 0x20 SWAP1 SWAP2 ADD MSTORE JUMP JUMPDEST PUSH2 0x1A75 JUMP JUMPDEST SWAP2 POP SWAP3 POP PUSH2 0x1F00 PUSH2 0x17DB PUSH2 0x10A0 JUMP JUMPDEST SWAP2 PUSH2 0x18E0 JUMP JUMPDEST PUSH2 0x64E PUSH2 0x1F16 SWAP2 SWAP8 SWAP5 SWAP3 SWAP6 SWAP4 SWAP8 SWAP1 JUMP JUMPDEST LT PUSH2 0x1F90 JUMPI POP POP DUP3 PUSH2 0x1F2E PUSH1 0x0 PUSH2 0x902 DUP4 PUSH1 0x2 PUSH2 0x674 JUMP JUMPDEST ISZERO PUSH2 0x1F5B JUMPI POP POP SWAP1 DUP6 SWAP7 SWAP6 SWAP3 SWAP2 PUSH2 0x1F56 PUSH2 0x8D1 PUSH2 0x8CC PUSH2 0x1F50 PUSH3 0x800000 PUSH2 0x585 JUMP JUMPDEST DUP6 PUSH2 0x5CD JUMP JUMPDEST PUSH2 0x18E0 JUMP JUMPDEST PUSH2 0x8CC SWAP5 SWAP6 SWAP7 SWAP4 POP SWAP1 PUSH2 0x1F6D SWAP2 PUSH2 0x5CD JUMP JUMPDEST SWAP1 PUSH2 0x1F84 PUSH2 0x8D1 DUP4 SWAP6 DUP7 SWAP5 PUSH2 0x1B8B PUSH3 0x800000 PUSH2 0x585 JUMP JUMPDEST SWAP2 POP SWAP5 SWAP4 SWAP3 SWAP2 SWAP5 PUSH2 0x1817 JUMP JUMPDEST SWAP1 SWAP3 SWAP2 POP DUP8 SWAP9 SWAP8 SWAP5 SWAP4 POP PUSH2 0x1F56 PUSH2 0x17DB PUSH2 0x105E JUMP JUMPDEST DUP7 SWAP8 SWAP7 SWAP4 SWAP3 SWAP2 PUSH2 0x18E0 JUMP JUMPDEST DUP10 DUP3 GT PUSH2 0x1FA5 JUMPI POP DUP2 SWAP1 PUSH2 0x1FC2 PUSH2 0x2C45 JUMP JUMPDEST PUSH2 0x1FCD PUSH2 0x17DB PUSH2 0xE43 JUMP JUMPDEST PUSH2 0x1FDC PUSH2 0x1848 PUSH2 0x1843 DUP5 PUSH2 0xE4B JUMP JUMPDEST PUSH2 0x1FE8 DUP2 PUSH2 0x1850 PUSH2 0xE84 JUMP JUMPDEST PUSH2 0x1FF8 DUP5 PUSH1 0x4 PUSH2 0x1871 PUSH1 0x1 PUSH2 0x585 JUMP JUMPDEST SWAP1 DUP2 SWAP4 DUP13 PUSH2 0x2011 PUSH2 0x8D1 PUSH2 0x8CC PUSH2 0x1892 PUSH3 0x800000 PUSH2 0x585 JUMP JUMPDEST SWAP4 ISZERO PUSH2 0x2045 JUMPI DUP11 SWAP12 SWAP11 SWAP8 SWAP7 SWAP6 SWAP5 SWAP4 SWAP3 SWAP2 POP DUP3 GT ISZERO PUSH2 0x2036 JUMPI POP POP PUSH2 0x1F56 PUSH2 0x17DB PUSH2 0xF83 JUMP JUMPDEST SWAP2 POP SWAP3 POP PUSH2 0x1F00 PUSH2 0x17DB PUSH2 0xF42 JUMP JUMPDEST PUSH2 0x64E PUSH2 0x2055 SWAP2 SWAP8 SWAP5 SWAP3 SWAP6 SWAP4 SWAP8 SWAP1 JUMP JUMPDEST LT ISZERO PUSH2 0x20C5 JUMPI POP POP DUP3 PUSH2 0x206E PUSH1 0x0 PUSH2 0x902 DUP4 PUSH1 0x2 PUSH2 0x674 JUMP JUMPDEST ISZERO PUSH2 0x2090 JUMPI POP POP SWAP1 DUP6 SWAP7 SWAP6 SWAP3 SWAP2 PUSH2 0x1F56 PUSH2 0x8D1 PUSH2 0x8CC PUSH2 0x1F50 PUSH3 0x800000 PUSH2 0x585 JUMP JUMPDEST PUSH2 0x8CC SWAP5 SWAP6 SWAP7 SWAP4 POP SWAP1 PUSH2 0x20A2 SWAP2 PUSH2 0xEE4 JUMP JUMPDEST SWAP1 PUSH2 0x20B9 PUSH2 0x8D1 DUP4 SWAP6 DUP7 SWAP5 PUSH2 0x1B8B PUSH3 0x800000 PUSH2 0x585 JUMP JUMPDEST SWAP2 POP SWAP5 SWAP4 SWAP3 SWAP2 SWAP5 PUSH2 0x1FB0 JUMP JUMPDEST SWAP1 SWAP3 SWAP2 POP DUP8 SWAP9 SWAP8 SWAP5 SWAP4 POP PUSH2 0x1F56 PUSH2 0x17DB PUSH2 0xEDC JUMP JUMPDEST POP POP POP PUSH2 0x1BA3 JUMP JUMPDEST POP DUP6 ISZERO PUSH2 0x20F6 JUMPI PUSH1 0x20 DUP5 ADD MLOAD DUP4 GT ISZERO PUSH2 0x17C3 JUMP JUMPDEST PUSH1 0x20 DUP5 ADD MLOAD DUP4 LT ISZERO PUSH2 0x17C3 JUMP JUMPDEST POP PUSH2 0x1751 PUSH2 0x2112 PUSH2 0xC3 PUSH2 0xC8B JUMP JUMPDEST DUP6 LT ISZERO SWAP1 POP PUSH2 0x1748 JUMP JUMPDEST DUP6 ADD MLOAD DUP5 GT DUP1 PUSH2 0x212F JUMPI PUSH2 0x1751 SWAP1 PUSH2 0xC99 JUMP JUMPDEST POP PUSH2 0x1751 PUSH2 0x213E PUSH2 0xC3 PUSH2 0xC6E JUMP JUMPDEST DUP6 GT ISZERO SWAP1 POP PUSH2 0x1748 JUMP JUMPDEST POP POP POP POP POP POP PUSH2 0x2156 PUSH1 0x0 SWAP1 JUMP JUMPDEST POP PUSH4 0xF23A6E61 PUSH1 0xE0 SHL SWAP1 JUMP JUMPDEST PUSH2 0x60A PUSH2 0xC3 PUSH2 0xC3 SWAP3 SWAP1 JUMP JUMPDEST PUSH2 0xC3 PUSH2 0xC3 PUSH2 0xC3 SWAP3 PUSH1 0x2 SIGNEXTEND SWAP1 JUMP JUMPDEST PUSH1 0x1 PUSH1 0xFF SHL DUP2 EQ PUSH2 0x5F5 JUMPI PUSH1 0x0 SUB SWAP1 JUMP JUMPDEST PUSH2 0xC3 PUSH3 0xD89E7 NOT PUSH2 0x2162 JUMP JUMPDEST PUSH1 0x2 SIGNEXTEND PUSH3 0x7FFFFF NOT DUP2 EQ PUSH2 0x5F5 JUMPI PUSH1 0x0 SUB SWAP1 JUMP JUMPDEST PUSH2 0xC3 PUSH2 0x21BC PUSH2 0x2190 JUMP JUMPDEST PUSH2 0x219D JUMP JUMPDEST PUSH2 0x21D1 PUSH2 0xC3 PUSH2 0xC3 SWAP3 PUSH1 0x2 SIGNEXTEND SWAP1 JUMP JUMPDEST PUSH3 0xFFFFFF AND SWAP1 JUMP JUMPDEST PUSH2 0xC3 PUSH2 0xC3 PUSH2 0xC3 SWAP3 PUSH3 0xFFFFFF AND SWAP1 JUMP JUMPDEST ISZERO PUSH2 0x21F2 JUMPI JUMP JUMPDEST PUSH1 0x40 MLOAD PUSH3 0x461BCD PUSH1 0xE5 SHL DUP2 MSTORE PUSH1 0x20 PUSH1 0x4 DUP3 ADD MSTORE PUSH1 0x1 PUSH1 0x24 DUP3 ADD MSTORE PUSH1 0x15 PUSH1 0xFA SHL PUSH1 0x44 DUP3 ADD MSTORE PUSH1 0x64 SWAP1 REVERT JUMPDEST PUSH2 0x2228 PUSH2 0xC3 PUSH2 0xC3 SWAP3 SWAP1 JUMP JUMPDEST PUSH1 0x1 PUSH1 0x1 PUSH1 0x88 SHL SUB AND SWAP1 JUMP JUMPDEST PUSH2 0xC3 PUSH2 0xC3 PUSH2 0xC3 SWAP3 PUSH1 0x1 PUSH1 0x1 PUSH1 0x88 SHL SUB AND SWAP1 JUMP JUMPDEST PUSH4 0x4E487B71 PUSH1 0xE0 SHL PUSH1 0x0 MSTORE PUSH1 0x12 PUSH1 0x4 MSTORE PUSH1 0x24 PUSH1 0x0 REVERT JUMPDEST DUP2 ISZERO PUSH2 0x226A JUMPI DIV SWAP1 JUMP JUMPDEST PUSH2 0x224A JUMP JUMPDEST DUP2 ISZERO PUSH2 0x226A JUMPI MOD SWAP1 JUMP JUMPDEST PUSH2 0xC3 PUSH2 0xC3 PUSH2 0xC3 SWAP3 PUSH1 0xFF AND SWAP1 JUMP JUMPDEST PUSH2 0x2603 PUSH2 0x25FD PUSH2 0x25ED PUSH2 0xC3 SWAP4 PUSH2 0x229E PUSH1 0x0 SWAP1 JUMP JUMPDEST POP PUSH1 0x0 PUSH2 0x22AA DUP2 PUSH2 0x2162 JUMP JUMPDEST PUSH2 0x22B4 DUP4 PUSH1 0x2 SIGNEXTEND SWAP1 JUMP JUMPDEST SLT ISZERO PUSH2 0x2945 JUMPI PUSH2 0x22CE PUSH2 0x1843 PUSH2 0x22C9 DUP5 PUSH2 0x216F JUMP JUMPDEST PUSH2 0x217F JUMP JUMPDEST SWAP2 JUMPDEST PUSH2 0x22F6 PUSH2 0x22EE PUSH2 0xC3 PUSH2 0x22E9 PUSH2 0x22E4 PUSH2 0x21B1 JUMP JUMPDEST PUSH2 0x21C1 JUMP JUMPDEST PUSH2 0x21D9 JUMP JUMPDEST DUP5 GT ISZERO PUSH2 0x21EB JUMP JUMPDEST PUSH2 0x2300 PUSH1 0x1 PUSH2 0x62D JUMP JUMPDEST DUP4 AND PUSH2 0x230E PUSH2 0x64E DUP5 PUSH2 0x62D JUMP JUMPDEST EQ PUSH2 0x2935 JUMPI PUSH2 0x2334 PUSH2 0x232F PUSH16 0xFFFCB933BD6FAD37AA2D162D1A594001 PUSH2 0x221B JUMP JUMPDEST PUSH2 0x2234 JUMP JUMPDEST SWAP3 PUSH2 0x233F PUSH1 0x2 PUSH2 0x62D JUMP JUMPDEST DUP2 AND PUSH2 0x234D PUSH2 0x64E DUP6 PUSH2 0x62D JUMP JUMPDEST SUB PUSH2 0x290E JUMPI JUMPDEST PUSH2 0x235D PUSH1 0x4 PUSH2 0x62D JUMP JUMPDEST DUP2 AND PUSH2 0x236B PUSH2 0x64E DUP6 PUSH2 0x62D JUMP JUMPDEST SUB PUSH2 0x28E7 JUMPI JUMPDEST PUSH2 0x237B PUSH1 0x8 PUSH2 0x62D JUMP JUMPDEST DUP2 AND PUSH2 0x2389 PUSH2 0x64E DUP6 PUSH2 0x62D JUMP JUMPDEST SUB PUSH2 0x28C0 JUMPI JUMPDEST PUSH2 0x2399 PUSH1 0x10 PUSH2 0x62D JUMP JUMPDEST DUP2 AND PUSH2 0x23A7 PUSH2 0x64E DUP6 PUSH2 0x62D JUMP JUMPDEST SUB PUSH2 0x2899 JUMPI JUMPDEST PUSH2 0x23B7 PUSH1 0x20 PUSH2 0x62D JUMP JUMPDEST DUP2 AND PUSH2 0x23C5 PUSH2 0x64E DUP6 PUSH2 0x62D JUMP JUMPDEST SUB PUSH2 0x2872 JUMPI JUMPDEST PUSH2 0x23D5 PUSH1 0x40 PUSH2 0x62D JUMP JUMPDEST DUP2 AND PUSH2 0x23E3 PUSH2 0x64E DUP6 PUSH2 0x62D JUMP JUMPDEST SUB PUSH2 0x2841 JUMPI JUMPDEST PUSH1 0x80 SWAP1 PUSH2 0x23F5 DUP3 PUSH2 0x62D JUMP JUMPDEST DUP2 AND PUSH2 0x2403 PUSH2 0x64E DUP7 PUSH2 0x62D JUMP JUMPDEST SUB PUSH2 0x281A JUMPI JUMPDEST PUSH2 0x2414 PUSH2 0x100 PUSH2 0x62D JUMP JUMPDEST DUP2 AND PUSH2 0x2422 PUSH2 0x64E DUP7 PUSH2 0x62D JUMP JUMPDEST SUB PUSH2 0x27F3 JUMPI JUMPDEST PUSH2 0x2433 PUSH2 0x200 PUSH2 0x62D JUMP JUMPDEST DUP2 AND PUSH2 0x2441 PUSH2 0x64E DUP7 PUSH2 0x62D JUMP JUMPDEST SUB PUSH2 0x27CC JUMPI JUMPDEST PUSH2 0x2452 PUSH2 0x400 PUSH2 0x62D JUMP JUMPDEST DUP2 AND PUSH2 0x2460 PUSH2 0x64E DUP7 PUSH2 0x62D JUMP JUMPDEST SUB PUSH2 0x27A5 JUMPI JUMPDEST PUSH2 0x2471 PUSH2 0x800 PUSH2 0x62D JUMP JUMPDEST DUP2 AND PUSH2 0x247F PUSH2 0x64E DUP7 PUSH2 0x62D JUMP JUMPDEST SUB PUSH2 0x277E JUMPI JUMPDEST PUSH2 0x2490 PUSH2 0x1000 PUSH2 0x62D JUMP JUMPDEST DUP2 AND PUSH2 0x249E PUSH2 0x64E DUP7 PUSH2 0x62D JUMP JUMPDEST SUB PUSH2 0x2757 JUMPI JUMPDEST PUSH2 0x24AF PUSH2 0x2000 PUSH2 0x62D JUMP JUMPDEST DUP2 AND PUSH2 0x24BD PUSH2 0x64E DUP7 PUSH2 0x62D JUMP JUMPDEST SUB PUSH2 0x2730 JUMPI JUMPDEST PUSH2 0x24CE PUSH2 0x4000 PUSH2 0x62D JUMP JUMPDEST DUP2 AND PUSH2 0x24DC PUSH2 0x64E DUP7 PUSH2 0x62D JUMP JUMPDEST SUB PUSH2 0x2709 JUMPI JUMPDEST PUSH2 0x24ED PUSH2 0x8000 PUSH2 0x62D JUMP JUMPDEST DUP2 AND PUSH2 0x24FB PUSH2 0x64E DUP7 PUSH2 0x62D JUMP JUMPDEST SUB PUSH2 0x26E2 JUMPI JUMPDEST PUSH2 0x250D PUSH3 0x10000 PUSH2 0x62D JUMP JUMPDEST DUP2 AND PUSH2 0x251B PUSH2 0x64E DUP7 PUSH2 0x62D JUMP JUMPDEST SUB PUSH2 0x26BB JUMPI JUMPDEST PUSH2 0x252D PUSH3 0x20000 PUSH2 0x62D JUMP JUMPDEST DUP2 AND PUSH2 0x253B PUSH2 0x64E DUP7 PUSH2 0x62D JUMP JUMPDEST SUB PUSH2 0x2695 JUMPI JUMPDEST PUSH2 0x254D PUSH3 0x40000 PUSH2 0x62D JUMP JUMPDEST DUP2 AND PUSH2 0x255B PUSH2 0x64E DUP7 PUSH2 0x62D JUMP JUMPDEST SUB PUSH2 0x2667 JUMPI JUMPDEST PUSH2 0x256D PUSH3 0x80000 PUSH2 0x62D JUMP JUMPDEST AND PUSH2 0x257A PUSH2 0x64E DUP6 PUSH2 0x62D JUMP JUMPDEST SUB PUSH2 0x2634 JUMPI JUMPDEST POP PUSH2 0x2594 PUSH2 0x258D DUP4 PUSH2 0x2162 JUMP JUMPDEST SWAP2 PUSH1 0x2 SIGNEXTEND SWAP1 JUMP JUMPDEST SGT PUSH2 0x2621 JUMPI JUMPDEST PUSH2 0x25C5 PUSH2 0x25B0 PUSH2 0x25AA PUSH1 0x20 PUSH2 0x610 JUMP JUMPDEST DUP5 PUSH2 0x1237 JUMP JUMPDEST SWAP3 PUSH2 0x25BF PUSH5 0x100000000 PUSH2 0x62D JUMP JUMPDEST SWAP1 PUSH2 0x226F JUMP JUMPDEST PUSH2 0x25D1 PUSH2 0x64E DUP4 PUSH2 0x62D JUMP JUMPDEST SUB PUSH2 0x2613 JUMPI PUSH2 0x25E2 PUSH2 0x25E7 SWAP2 PUSH2 0x610 JUMP JUMPDEST PUSH2 0x2279 JUMP JUMPDEST SWAP1 PUSH2 0x1273 JUMP JUMPDEST PUSH2 0x25F7 PUSH1 0x50 PUSH2 0x610 JUMP JUMPDEST SWAP1 PUSH2 0x1237 JUMP JUMPDEST DUP1 PUSH2 0xB24 JUMP JUMPDEST PUSH2 0x260D PUSH1 0x40 PUSH2 0x610 JUMP JUMPDEST SWAP1 PUSH2 0x63A JUMP JUMPDEST POP PUSH2 0x25E7 PUSH2 0x25E2 PUSH1 0x1 PUSH2 0x610 JUMP JUMPDEST SWAP1 PUSH2 0x262E SWAP1 PUSH1 0x0 NOT PUSH2 0x2260 JUMP JUMPDEST SWAP1 PUSH2 0x259A JUMP JUMPDEST PUSH2 0x25F7 PUSH2 0x265A PUSH2 0x2660 SWAP4 SWAP6 PUSH2 0x2654 PUSH12 0x91F7DC42448A170344E8FA2 PUSH2 0x62D JUMP JUMPDEST SWAP1 PUSH2 0xB24 JUMP JUMPDEST SWAP2 PUSH2 0x610 JUMP JUMPDEST SWAP2 CODESIZE PUSH2 0x2580 JUMP JUMPDEST SWAP4 PUSH2 0x2686 PUSH2 0x268F SWAP2 PUSH2 0x2654 PUSH14 0x2216E584F5FA1EA926041BEDFE98 PUSH2 0x62D JUMP JUMPDEST PUSH2 0x25F7 DUP4 PUSH2 0x610 JUMP JUMPDEST SWAP4 PUSH2 0x2561 JUMP JUMPDEST SWAP4 PUSH2 0x2686 PUSH2 0x26B5 SWAP2 PUSH2 0x2654 PUSH15 0x5D6AF8DEDB81196699C329225EE604 PUSH2 0x62D JUMP JUMPDEST SWAP4 PUSH2 0x2541 JUMP JUMPDEST SWAP4 PUSH2 0x2686 PUSH2 0x26DC SWAP2 PUSH2 0x2654 PUSH16 0x9AA508B5B7A84E1C677DE54F3E99BC9 PUSH2 0x62D JUMP JUMPDEST SWAP4 PUSH2 0x2521 JUMP JUMPDEST SWAP4 PUSH2 0x2686 PUSH2 0x2703 SWAP2 PUSH2 0x2654 PUSH16 0x31BE135F97D08FD981231505542FCFA6 PUSH2 0x62D JUMP JUMPDEST SWAP4 PUSH2 0x2501 JUMP JUMPDEST SWAP4 PUSH2 0x2686 PUSH2 0x272A SWAP2 PUSH2 0x2654 PUSH16 0x70D869A156D2A1B890BB3DF62BAF32F7 PUSH2 0x62D JUMP JUMPDEST SWAP4 PUSH2 0x24E2 JUMP JUMPDEST SWAP4 PUSH2 0x2686 PUSH2 0x2751 SWAP2 PUSH2 0x2654 PUSH16 0xA9F746462D870FDF8A65DC1F90E061E5 PUSH2 0x62D JUMP JUMPDEST SWAP4 PUSH2 0x24C3 JUMP JUMPDEST SWAP4 PUSH2 0x2686 PUSH2 0x2778 SWAP2 PUSH2 0x2654 PUSH16 0xD097F3BDFD2022B8845AD8F792AA5825 PUSH2 0x62D JUMP JUMPDEST SWAP4 PUSH2 0x24A4 JUMP JUMPDEST SWAP4 PUSH2 0x2686 PUSH2 0x279F SWAP2 PUSH2 0x2654 PUSH16 0xE7159475A2C29B7443B29C7FA6E889D9 PUSH2 0x62D JUMP JUMPDEST SWAP4 PUSH2 0x2485 JUMP JUMPDEST SWAP4 PUSH2 0x2686 PUSH2 0x27C6 SWAP2 PUSH2 0x2654 PUSH16 0xF3392B0822B70005940C7A398E4B70F3 PUSH2 0x62D JUMP JUMPDEST SWAP4 PUSH2 0x2466 JUMP JUMPDEST SWAP4 PUSH2 0x2686 PUSH2 0x27ED SWAP2 PUSH2 0x2654 PUSH16 0xF987A7253AC413176F2B074CF7815E54 PUSH2 0x62D JUMP JUMPDEST SWAP4 PUSH2 0x2447 JUMP JUMPDEST SWAP4 PUSH2 0x2686 PUSH2 0x2814 SWAP2 PUSH2 0x2654 PUSH16 0xFCBE86C7900A88AEDCFFC83B479AA3A4 PUSH2 0x62D JUMP JUMPDEST SWAP4 PUSH2 0x2428 JUMP JUMPDEST SWAP4 PUSH2 0x2686 PUSH2 0x283B SWAP2 PUSH2 0x2654 PUSH16 0xFE5DEE046A99A2A811C461F1969C3053 PUSH2 0x62D JUMP JUMPDEST SWAP4 PUSH2 0x2409 JUMP JUMPDEST SWAP3 PUSH2 0x2862 PUSH2 0x286C SWAP2 PUSH2 0x2654 PUSH16 0xFF2EA16466C96A3843EC78B326B52861 PUSH2 0x62D JUMP JUMPDEST PUSH2 0x25F7 PUSH1 0x80 PUSH2 0x610 JUMP JUMPDEST SWAP3 PUSH2 0x23E9 JUMP JUMPDEST SWAP3 PUSH2 0x2862 PUSH2 0x2893 SWAP2 PUSH2 0x2654 PUSH16 0xFF973B41FA98C081472E6896DFB254C0 PUSH2 0x62D JUMP JUMPDEST SWAP3 PUSH2 0x23CB JUMP JUMPDEST SWAP3 PUSH2 0x2862 PUSH2 0x28BA SWAP2 PUSH2 0x2654 PUSH16 0xFFCB9843D60F6159C9DB58835C926644 PUSH2 0x62D JUMP JUMPDEST SWAP3 PUSH2 0x23AD JUMP JUMPDEST SWAP3 PUSH2 0x2862 PUSH2 0x28E1 SWAP2 PUSH2 0x2654 PUSH16 0xFFE5CACA7E10E4E61C3624EAA0941CD0 PUSH2 0x62D JUMP JUMPDEST SWAP3 PUSH2 0x238F JUMP JUMPDEST SWAP3 PUSH2 0x2862 PUSH2 0x2908 SWAP2 PUSH2 0x2654 PUSH16 0xFFF2E50F5F656932EF12357CF3C7FDCC PUSH2 0x62D JUMP JUMPDEST SWAP3 PUSH2 0x2371 JUMP JUMPDEST SWAP3 PUSH2 0x2862 PUSH2 0x292F SWAP2 PUSH2 0x2654 PUSH16 0xFFF97272373D413259A46990580E213A PUSH2 0x62D JUMP JUMPDEST SWAP3 PUSH2 0x2353 JUMP JUMPDEST PUSH2 0x2334 PUSH2 0x232F PUSH1 0x1 PUSH1 0x80 SHL PUSH2 0x221B JUMP JUMPDEST PUSH2 0x2951 PUSH2 0x1843 DUP4 PUSH2 0x216F JUMP JUMPDEST SWAP2 PUSH2 0x22D0 JUMP JUMPDEST PUSH2 0x296C PUSH2 0xC3 SWAP2 PUSH2 0x2966 PUSH1 0x0 SWAP1 JUMP JUMPDEST POP PUSH2 0x11A1 JUMP JUMPDEST PUSH2 0x260D PUSH2 0x623 JUMP JUMPDEST SWAP1 PUSH2 0x2984 PUSH2 0xC3 SWAP3 PUSH2 0x2966 PUSH1 0x0 SWAP1 JUMP JUMPDEST PUSH2 0x29A4 PUSH2 0x2999 PUSH2 0x2992 PUSH2 0x623 JUMP JUMPDEST DUP1 SWAP4 PUSH2 0x63A JUMP JUMPDEST SWAP2 PUSH2 0xA48 PUSH1 0x1 PUSH2 0x62D JUMP JUMPDEST SWAP1 PUSH2 0x315C JUMP JUMPDEST PUSH2 0x29C5 SWAP1 PUSH1 0x1 PUSH1 0x1 PUSH1 0xA0 SHL SUB AND JUMPDEST SWAP2 PUSH1 0x1 PUSH1 0x1 PUSH1 0xA0 SHL SUB AND SWAP1 JUMP JUMPDEST SWAP1 SUB SWAP1 PUSH1 0x1 PUSH1 0x1 PUSH1 0xA0 SHL SUB DUP3 GT PUSH2 0x5F5 JUMPI JUMP JUMPDEST PUSH2 0x2A10 PUSH2 0x2A0B PUSH2 0xC3 SWAP5 SWAP4 PUSH2 0x29EB PUSH1 0x0 SWAP1 JUMP JUMPDEST POP PUSH2 0x2A05 PUSH2 0x296C PUSH2 0x29FF PUSH1 0x1 PUSH1 0x60 SHL PUSH2 0x657 JUMP JUMPDEST SWAP6 PUSH2 0x11A1 JUMP JUMPDEST SWAP4 PUSH2 0x29AA JUMP JUMPDEST PUSH2 0x1225 JUMP JUMPDEST SWAP1 PUSH2 0x32A0 JUMP JUMPDEST SWAP1 PUSH2 0x2A26 PUSH2 0xC3 SWAP3 PUSH2 0x2966 PUSH1 0x0 SWAP1 JUMP JUMPDEST PUSH2 0x29A4 PUSH2 0x1B5E PUSH2 0x2A3E PUSH2 0x2A37 PUSH2 0x623 JUMP JUMPDEST DUP1 SWAP5 PUSH2 0x63A JUMP JUMPDEST SWAP3 PUSH2 0xA48 PUSH1 0x1 PUSH2 0x62D JUMP JUMPDEST SWAP1 PUSH1 0xFF SWAP1 PUSH2 0x6C6 JUMP JUMPDEST SWAP1 PUSH2 0x2A62 PUSH2 0xC3 PUSH2 0x6FB SWAP3 ISZERO ISZERO SWAP1 JUMP JUMPDEST DUP3 SLOAD PUSH2 0x2A49 JUMP JUMPDEST SWAP1 PUSH17 0xFFFFFFFFFFFFFFFFFFFFFFFFFFFFFFFF00 SWAP1 PUSH1 0x8 SHL PUSH2 0x6C6 JUMP JUMPDEST SWAP1 PUSH2 0x2A95 PUSH2 0xC3 PUSH2 0x6FB SWAP3 PUSH2 0x761 JUMP JUMPDEST DUP3 SLOAD PUSH2 0x2A69 JUMP JUMPDEST PUSH2 0xC3 PUSH2 0xCA SWAP3 PUSH2 0x2AB8 SWAP3 SWAP6 SWAP5 SWAP6 PUSH2 0x2AB2 PUSH1 0x0 SWAP1 JUMP JUMPDEST POP PUSH2 0x674 JUMP JUMPDEST SWAP3 PUSH2 0x2AC2 DUP5 PUSH2 0x125C JUMP JUMPDEST PUSH1 0x0 SWAP5 DUP6 SWAP2 PUSH2 0x2AD3 PUSH2 0x733 DUP5 PUSH2 0x5AA JUMP JUMPDEST EQ PUSH2 0x2B27 JUMPI JUMPDEST ADD SWAP4 PUSH2 0x2B1F PUSH2 0x2B19 PUSH2 0x2AF4 PUSH2 0x2AED DUP9 PUSH2 0x125C JUMP JUMPDEST SWAP5 DUP6 PUSH2 0x725 JUMP JUMPDEST SWAP4 PUSH2 0x2B15 PUSH2 0x733 PUSH2 0x2B04 DUP7 PUSH2 0x5AA JUMP JUMPDEST PUSH1 0x1 PUSH1 0x1 PUSH1 0x80 SHL SUB DUP9 AND EQ SWAP6 PUSH2 0x5AA JUMP JUMPDEST EQ SWAP1 JUMP JUMPDEST SWAP2 ISZERO ISZERO SWAP1 JUMP JUMPDEST EQ ISZERO SWAP4 PUSH2 0x2A85 JUMP JUMPDEST PUSH2 0x2B34 PUSH1 0x1 DUP4 DUP4 ADD PUSH2 0x2A52 JUMP JUMPDEST PUSH2 0x2AD9 JUMP JUMPDEST PUSH2 0x2B45 SWAP1 PUSH1 0x3 SIGNEXTEND PUSH2 0x5D5 JUMP JUMPDEST SWAP1 DUP2 ISZERO PUSH2 0x226A JUMPI SMOD SWAP1 JUMP JUMPDEST ISZERO PUSH2 0xB2 JUMPI JUMP JUMPDEST SWAP1 PUSH2 0x2B97 PUSH2 0x2B8A PUSH2 0x2B9D SWAP3 PUSH2 0x2B85 PUSH2 0x2B72 PUSH2 0xCA SWAP8 DUP4 PUSH2 0x2B39 JUMP JUMPDEST PUSH2 0x2B7F PUSH2 0x5D5 PUSH1 0x0 PUSH2 0x585 JUMP JUMPDEST EQ PUSH2 0x2B50 JUMP JUMPDEST PUSH2 0x332A JUMP JUMPDEST PUSH2 0xA48 PUSH1 0x1 SWAP4 SWAP3 SWAP4 PUSH2 0x62D JUMP JUMPDEST SWAP3 PUSH2 0x674 JUMP JUMPDEST SWAP1 PUSH2 0x2BA7 DUP3 PUSH2 0x187 JUMP JUMPDEST XOR SWAP1 PUSH2 0x1670 JUMP JUMPDEST PUSH2 0xC6 SWAP1 PUSH1 0x1 PUSH1 0x1 PUSH1 0xA0 SHL SUB AND PUSH1 0x60 SHL SWAP1 JUMP JUMPDEST PUSH1 0x14 DUP2 PUSH2 0x2BD4 PUSH2 0x811 SWAP4 PUSH1 0x4 SWAP7 SWAP6 PUSH2 0x2BAE JUMP JUMPDEST ADD DUP1 SWAP3 PUSH1 0xE0 SHL SWAP1 MSTORE JUMP JUMPDEST SWAP1 PUSH2 0x67E JUMP JUMPDEST PUSH2 0x2C09 PUSH2 0x2C15 PUSH2 0xC3 SWAP5 PUSH2 0xC3 SWAP5 PUSH2 0x2BFB PUSH1 0x40 MLOAD SWAP1 JUMP JUMPDEST SWAP4 DUP5 SWAP3 PUSH1 0x20 DUP5 ADD SWAP3 DUP4 PUSH2 0x2BC1 JUMP JUMPDEST SWAP1 DUP2 SUB DUP3 MSTORE SUB DUP3 PUSH2 0x7B6 JUMP JUMPDEST PUSH2 0x2C27 PUSH2 0x2C20 DUP3 MLOAD SWAP1 JUMP JUMPDEST SWAP2 PUSH1 0x20 ADD SWAP1 JUMP JUMPDEST KECCAK256 SWAP1 PUSH2 0x2BDE JUMP JUMPDEST PUSH2 0xCA SWAP2 PUSH2 0x2C3F SWAP1 PUSH2 0x947 DUP4 PUSH2 0x71B JUMP JUMPDEST SWAP1 PUSH2 0x777 JUMP JUMPDEST PUSH2 0xCA PUSH2 0x2C51 PUSH1 0x40 MLOAD SWAP1 JUMP JUMPDEST PUSH4 0x51973EC9 PUSH1 0xE0 SHL PUSH1 0x20 DUP3 ADD MSTORE PUSH2 0x2C76 DUP2 PUSH1 0x24 DUP2 ADD JUMPDEST PUSH1 0x20 DUP3 ADD DUP2 SUB DUP3 MSTORE SUB DUP3 PUSH2 0x7B6 JUMP JUMPDEST PUSH2 0x3363 JUMP JUMPDEST PUSH1 0x0 JUMPDEST DUP4 DUP2 LT PUSH2 0x2C8E JUMPI POP POP PUSH1 0x0 SWAP2 ADD MSTORE JUMP JUMPDEST DUP2 DUP2 ADD MLOAD DUP4 DUP3 ADD MSTORE PUSH1 0x20 ADD PUSH2 0x2C7E JUMP JUMPDEST PUSH2 0x2CBF PUSH2 0x807 PUSH1 0x20 SWAP4 PUSH2 0x811 SWAP4 PUSH2 0x2CB3 DUP2 MLOAD SWAP1 JUMP JUMPDEST DUP1 DUP4 MSTORE SWAP4 DUP5 SWAP3 PUSH1 0x20 ADD SWAP1 JUMP JUMPDEST SWAP6 DUP7 SWAP2 ADD PUSH2 0x2C7B JUMP JUMPDEST PUSH1 0x20 DUP1 DUP3 MSTORE PUSH2 0xC3 SWAP3 SWAP2 ADD SWAP1 PUSH2 0x2C9E JUMP JUMPDEST PUSH2 0x2C67 PUSH2 0x2C76 PUSH2 0xCA SWAP3 PUSH2 0x2CEC PUSH1 0x40 MLOAD SWAP1 JUMP JUMPDEST PUSH4 0x104C13EB PUSH1 0xE2 SHL PUSH1 0x20 DUP3 ADD MSTORE SWAP3 DUP4 SWAP2 PUSH1 0x24 DUP4 ADD PUSH2 0x2CC8 JUMP JUMPDEST SWAP3 SWAP2 PUSH1 0x20 PUSH2 0x2D22 PUSH2 0xCA SWAP4 PUSH1 0x40 DUP8 ADD SWAP1 DUP8 DUP3 SUB PUSH1 0x0 DUP10 ADD MSTORE PUSH2 0x2C9E JUMP JUMPDEST SWAP5 ADD MSTORE JUMP JUMPDEST SWAP1 PUSH2 0x2C76 PUSH2 0xCA SWAP3 PUSH2 0x2C67 PUSH2 0x2D3B PUSH1 0x40 MLOAD SWAP1 JUMP JUMPDEST PUSH4 0x2D839CB3 PUSH1 0xE2 SHL PUSH1 0x20 DUP3 ADD MSTORE SWAP4 DUP5 SWAP3 PUSH1 0x24 DUP5 ADD PUSH2 0x2D05 JUMP JUMPDEST PUSH2 0x2D60 SWAP1 PUSH1 0x3 SIGNEXTEND PUSH2 0x5D5 JUMP JUMPDEST SWAP1 DUP2 ISZERO PUSH2 0x226A JUMPI PUSH4 0x7FFFFFFF NOT DUP2 EQ PUSH1 0x0 NOT DUP4 EQ AND PUSH2 0x5F5 JUMPI SDIV SWAP1 JUMP JUMPDEST PUSH2 0x2D8D PUSH2 0xC3 PUSH2 0xC3 SWAP3 PUSH1 0xFF AND SWAP1 JUMP JUMPDEST PUSH4 0xFFFFFFFF AND SWAP1 JUMP JUMPDEST PUSH2 0x196 PUSH2 0xC3 PUSH2 0xC3 SWAP3 PUSH4 0xFFFFFFFF AND SWAP1 JUMP JUMPDEST PUSH2 0x2DB5 SWAP1 PUSH1 0x3 SIGNEXTEND PUSH2 0x5D5 JUMP JUMPDEST MUL SWAP1 PUSH2 0x2DC1 DUP3 PUSH1 0x3 SIGNEXTEND SWAP1 JUMP JUMPDEST SWAP2 DUP3 SUB PUSH2 0x5F5 JUMPI JUMP JUMPDEST SWAP3 SWAP2 SWAP1 DUP2 PUSH2 0x2DE0 SWAP2 PUSH2 0x2DDA PUSH1 0x0 SWAP1 JUMP JUMPDEST POP PUSH2 0x2D54 JUMP JUMPDEST SWAP2 ISZERO PUSH2 0x2E75 JUMPI PUSH2 0x2E1A SWAP3 PUSH2 0x2E1F PUSH2 0x2DF6 DUP5 PUSH2 0x332A JUMP JUMPDEST SWAP6 SWAP1 PUSH2 0x2E14 PUSH2 0x2E05 PUSH1 0x1 PUSH2 0x62D JUMP JUMPDEST PUSH2 0x2E0F DUP10 DUP3 PUSH2 0x63A JUMP JUMPDEST PUSH2 0x1266 JUMP JUMPDEST SWAP4 PUSH2 0x674 JUMP JUMPDEST PUSH2 0x187 JUMP JUMPDEST AND SWAP3 PUSH2 0x2E2B PUSH1 0x0 PUSH2 0x62D JUMP JUMPDEST DUP5 EQ DUP1 ISZERO SWAP5 SWAP1 PUSH2 0x2E61 JUMPI SWAP3 PUSH2 0x1B8B PUSH2 0x2E54 PUSH2 0x2E4F PUSH2 0x2E59 SWAP5 PUSH2 0xA38 PUSH2 0x2E5E SWAP9 PUSH2 0x35F1 JUMP JUMPDEST PUSH2 0x2D7D JUMP JUMPDEST PUSH2 0x2D96 JUMP JUMPDEST PUSH2 0x2DA9 JUMP JUMPDEST SWAP2 JUMP JUMPDEST POP PUSH2 0x2E5E SWAP3 PUSH2 0x1B8B PUSH2 0x2E54 PUSH2 0x2E59 SWAP4 PUSH2 0x2D7D JUMP JUMPDEST PUSH2 0x2E1A PUSH1 0x1 SWAP4 PUSH2 0x2EB2 PUSH2 0x2E93 PUSH2 0x2B85 PUSH2 0x2E8D DUP9 PUSH2 0x585 JUMP JUMPDEST DUP8 PUSH2 0xEE4 JUMP JUMPDEST SWAP4 SWAP1 PUSH2 0x2E14 PUSH2 0x2EAE PUSH2 0x2EA4 DUP11 PUSH2 0x62D JUMP JUMPDEST PUSH2 0x2E0F DUP9 DUP3 PUSH2 0x63A JUMP JUMPDEST NOT SWAP1 JUMP JUMPDEST AND SWAP1 PUSH2 0x2EBE PUSH1 0x0 PUSH2 0x62D JUMP JUMPDEST DUP3 EQ DUP1 ISZERO SWAP6 SWAP1 PUSH2 0x2EFA JUMPI PUSH2 0x2E54 PUSH2 0x2E4F PUSH2 0x2E59 SWAP5 SWAP4 PUSH2 0x2EF5 PUSH2 0x2EEF PUSH2 0x2E5E SWAP10 PUSH2 0x2EE9 PUSH2 0x2EE9 SWAP8 PUSH2 0x585 JUMP JUMPDEST SWAP1 PUSH2 0xEE4 JUMP JUMPDEST SWAP6 PUSH2 0x33A9 JUMP JUMPDEST PUSH2 0x69F JUMP JUMPDEST PUSH2 0x2E59 SWAP3 POP PUSH2 0x2E54 PUSH2 0x2E4F PUSH2 0x2F18 PUSH2 0x2E5E SWAP8 PUSH2 0x2EE9 PUSH2 0x2EE9 SWAP6 PUSH2 0x585 JUMP JUMPDEST SWAP4 PUSH1 0xFF PUSH2 0x69F JUMP JUMPDEST PUSH1 0x40 SWAP1 PUSH2 0x2E1 PUSH2 0x2F42 PUSH2 0xCA SWAP6 SWAP8 SWAP7 SWAP5 PUSH1 0x60 DUP5 ADD SWAP1 DUP5 DUP3 SUB PUSH1 0x0 DUP7 ADD MSTORE PUSH2 0x2C9E JUMP JUMPDEST SWAP7 PUSH1 0x20 DUP4 ADD MSTORE JUMP JUMPDEST PUSH2 0x2C76 SWAP1 PUSH2 0x2C67 PUSH2 0xCA SWAP5 PUSH2 0x2F5E PUSH1 0x40 MLOAD SWAP1 JUMP JUMPDEST PUSH4 0xCA47C4EB PUSH1 0xE0 SHL PUSH1 0x20 DUP3 ADD MSTORE SWAP5 DUP6 SWAP4 PUSH1 0x24 DUP6 ADD PUSH2 0x2F20 JUMP JUMPDEST PUSH2 0x2E1 PUSH2 0xCA SWAP5 PUSH2 0x83F PUSH2 0x2F9D PUSH1 0x60 SWAP6 SWAP10 SWAP9 SWAP7 SWAP10 PUSH1 0x80 DUP7 ADD SWAP1 DUP7 DUP3 SUB PUSH1 0x0 DUP9 ADD MSTORE PUSH2 0x2C9E JUMP JUMPDEST SWAP9 PUSH1 0x20 DUP6 ADD MSTORE JUMP JUMPDEST PUSH2 0x2C67 PUSH2 0xCA SWAP5 PUSH2 0x2C76 SWAP4 SWAP5 PUSH2 0x2FBA PUSH1 0x40 MLOAD SWAP1 JUMP JUMPDEST PUSH4 0xA7A87853 PUSH1 0xE0 SHL PUSH1 0x20 DUP3 ADD MSTORE SWAP6 DUP7 SWAP5 PUSH1 0x24 DUP7 ADD PUSH2 0x2F77 JUMP JUMPDEST PUSH2 0x2FE5 SWAP1 PUSH1 0x1 PUSH1 0x1 PUSH1 0xA0 SHL SUB AND PUSH2 0x29B8 JUMP JUMPDEST ADD SWAP1 PUSH1 0x1 PUSH1 0x1 PUSH1 0xA0 SHL SUB DUP3 GT PUSH2 0x5F5 JUMPI JUMP JUMPDEST SWAP5 SWAP2 SWAP4 PUSH1 0x0 SWAP4 DUP2 ISZERO PUSH2 0x30E3 JUMPI PUSH2 0x300D DUP7 DUP5 PUSH2 0x2A16 JUMP JUMPDEST DUP5 LT ISZERO PUSH2 0x3072 JUMPI POP DUP6 SWAP1 DUP4 SWAP5 POP PUSH1 0x0 EQ PUSH2 0x3054 JUMPI PUSH2 0x2A05 SWAP1 PUSH2 0x3032 PUSH2 0x3050 SWAP5 DUP5 PUSH2 0x37B4 JUMP JUMPDEST SWAP3 PUSH2 0x304A DUP5 PUSH2 0x3045 PUSH2 0xA4D PUSH2 0xA3E PUSH2 0x623 JUMP JUMPDEST PUSH2 0x29AA JUMP JUMPDEST SWAP1 PUSH2 0x29D8 JUMP JUMPDEST SWAP3 SWAP4 JUMP JUMPDEST PUSH2 0x3065 PUSH2 0x3050 SWAP4 DUP4 PUSH2 0x306C SWAP4 PUSH2 0x3784 JUMP JUMPDEST DUP1 SWAP3 PUSH2 0x2A16 JUMP JUMPDEST SWAP4 PUSH2 0x2FD3 JUMP JUMPDEST SWAP6 SWAP3 POP SWAP1 SWAP4 SWAP3 POP PUSH1 0x0 EQ PUSH2 0x30B4 JUMPI PUSH2 0x30A6 SWAP2 SWAP1 PUSH2 0x30A0 SWAP1 PUSH2 0x309A DUP4 PUSH2 0x3045 PUSH1 0x1 PUSH1 0x60 SHL PUSH2 0x657 JUMP JUMPDEST DUP6 PUSH2 0x29D8 JUMP JUMPDEST SWAP3 PUSH2 0x2A16 JUMP JUMPDEST PUSH2 0x3050 PUSH2 0xA4D PUSH2 0xA3E PUSH2 0x623 JUMP JUMPDEST DUP2 PUSH2 0x30D3 PUSH2 0x30CD PUSH2 0x30D9 SWAP5 PUSH2 0x3045 PUSH2 0xA4D PUSH2 0xA3E PUSH2 0x623 JUMP JUMPDEST DUP6 PUSH2 0x2A16 JUMP JUMPDEST SWAP4 PUSH2 0x29D8 JUMP JUMPDEST PUSH2 0x3050 PUSH1 0x0 PUSH2 0x657 JUMP JUMPDEST PUSH2 0x30EE DUP8 DUP8 DUP6 PUSH2 0x29D8 JUMP JUMPDEST PUSH2 0x300D JUMP JUMPDEST SWAP5 SWAP4 SWAP2 PUSH2 0x2D22 SWAP1 PUSH2 0xCA SWAP5 PUSH2 0x3121 PUSH2 0x3119 PUSH1 0x60 SWAP6 PUSH1 0x80 DUP12 ADD SWAP1 DUP12 DUP3 SUB PUSH1 0x0 DUP14 ADD MSTORE PUSH2 0x2C9E JUMP JUMPDEST SWAP3 PUSH1 0x20 DUP11 ADD MSTORE JUMP JUMPDEST DUP8 DUP3 SUB PUSH1 0x40 DUP10 ADD MSTORE PUSH2 0x2C9E JUMP JUMPDEST PUSH2 0x2C67 PUSH2 0xCA SWAP5 PUSH2 0x2C76 SWAP4 SWAP5 PUSH2 0x3143 PUSH1 0x40 MLOAD SWAP1 JUMP JUMPDEST PUSH4 0xC67EA9D1 PUSH1 0xE0 SHL PUSH1 0x20 DUP3 ADD MSTORE SWAP6 DUP7 SWAP5 PUSH1 0x24 DUP7 ADD PUSH2 0x30F3 JUMP JUMPDEST SWAP2 SWAP3 SWAP2 SWAP1 PUSH1 0x0 SWAP1 PUSH1 0x0 NOT DUP2 DUP5 MULMOD SWAP3 DUP2 DUP2 MUL SWAP4 DUP5 DUP1 DUP3 LT SWAP2 SUB SUB SWAP3 PUSH2 0x3180 PUSH1 0x0 PUSH2 0x62D JUMP JUMPDEST DUP5 EQ PUSH2 0x3282 JUMPI DUP7 DUP5 LT ISZERO PUSH2 0x325E JUMPI SWAP3 DUP7 PUSH2 0xC3 SWAP7 SWAP8 SWAP4 PUSH2 0x31CA SWAP4 PUSH2 0x31DD SWAP7 POP MULMOD DUP1 DUP7 SUB SWAP6 LT SWAP1 SUB PUSH1 0x1 PUSH2 0x31B7 DUP5 NOT PUSH2 0x811 DUP4 PUSH2 0x62D JUMP JUMPDEST DUP5 AND DUP1 DUP1 SWAP6 DIV SWAP7 DIV SWAP4 DUP1 PUSH1 0x0 SUB DIV ADD MUL SWAP1 JUMP JUMPDEST OR SWAP2 PUSH2 0x31DD PUSH2 0x31E1 DUP3 PUSH2 0x31DD PUSH1 0x3 PUSH2 0x62D JUMP JUMPDEST MUL SWAP1 JUMP JUMPDEST PUSH2 0x3212 PUSH2 0x3258 PUSH2 0x3252 PUSH2 0x3243 PUSH2 0x3234 PUSH2 0x3225 PUSH2 0x3216 PUSH1 0x2 SWAP8 PUSH2 0x3202 DUP10 PUSH2 0x62D JUMP JUMPDEST XOR PUSH2 0x31DD DUP12 DUP3 MUL PUSH2 0x3212 DUP12 PUSH2 0x62D JUMP JUMPDEST SUB SWAP1 JUMP JUMPDEST PUSH2 0x31DD DUP11 DUP3 MUL PUSH2 0x3212 DUP11 PUSH2 0x62D JUMP JUMPDEST PUSH2 0x31DD DUP10 DUP3 MUL PUSH2 0x3212 DUP10 PUSH2 0x62D JUMP JUMPDEST PUSH2 0x31DD DUP9 DUP3 MUL PUSH2 0x3212 DUP9 PUSH2 0x62D JUMP JUMPDEST PUSH2 0x31DD DUP8 DUP3 MUL PUSH2 0x3212 DUP8 PUSH2 0x62D JUMP JUMPDEST DUP1 SWAP6 MUL SWAP1 JUMP JUMPDEST SWAP2 PUSH2 0x62D JUMP JUMPDEST DUP7 DUP5 PUSH2 0xAD6 PUSH2 0x326C PUSH1 0x40 MLOAD SWAP1 JUMP JUMPDEST PUSH4 0x1DCF3063 PUSH1 0xE2 SHL DUP2 MSTORE SWAP3 DUP4 SWAP3 PUSH1 0x4 DUP5 ADD PUSH2 0x2CE JUMP JUMPDEST POP POP POP POP SWAP2 PUSH2 0xC3 SWAP2 SWAP3 PUSH2 0x2260 JUMP JUMPDEST PUSH1 0x0 NOT DUP2 EQ PUSH2 0x5F5 JUMPI PUSH1 0x1 ADD SWAP1 JUMP JUMPDEST SWAP2 SWAP3 SWAP2 PUSH2 0x32AE DUP5 DUP4 DUP4 PUSH2 0x315C JUMP JUMPDEST SWAP2 DUP3 SWAP5 DUP1 ISZERO PUSH2 0x226A JUMPI PUSH2 0x32CA SWAP2 PUSH2 0x32C5 PUSH1 0x0 PUSH2 0x62D JUMP JUMPDEST SWAP4 MULMOD SWAP1 JUMP JUMPDEST GT PUSH2 0x32D2 JUMPI POP JUMP JUMPDEST SWAP1 SWAP2 POP PUSH2 0xC3 SWAP1 PUSH2 0x32E6 PUSH1 0x0 NOT DUP3 LT PUSH2 0x2B50 JUMP JUMPDEST PUSH2 0x3291 JUMP JUMPDEST PUSH2 0x196 SWAP1 PUSH2 0x32FF PUSH2 0x5D5 PUSH2 0xC3 SWAP5 PUSH1 0xFF AND SWAP1 JUMP JUMPDEST SWAP1 SAR SWAP1 JUMP JUMPDEST PUSH2 0x3314 PUSH2 0xC3 PUSH2 0xC3 SWAP3 PUSH1 0x3 SIGNEXTEND SWAP1 JUMP JUMPDEST PUSH1 0x0 SIGNEXTEND SWAP1 JUMP JUMPDEST PUSH2 0x61D PUSH2 0xC3 PUSH2 0xC3 SWAP3 PUSH1 0x0 SIGNEXTEND SWAP1 JUMP JUMPDEST SWAP1 PUSH2 0xC3 PUSH2 0x335E PUSH2 0x3359 PUSH2 0x3347 PUSH2 0x3341 PUSH1 0x8 PUSH2 0x610 JUMP JUMPDEST DUP7 PUSH2 0x32EB JUMP JUMPDEST SWAP5 PUSH2 0x3353 PUSH2 0x100 PUSH2 0x585 JUMP JUMPDEST SWAP1 PUSH2 0x2B39 JUMP JUMPDEST PUSH2 0x3304 JUMP JUMPDEST PUSH2 0x331A JUMP JUMPDEST PUSH2 0xCA SWAP1 PUSH1 0x1 PUSH2 0x3816 JUMP JUMPDEST PUSH2 0xC3 PUSH2 0xC3 PUSH2 0xC3 SWAP3 PUSH8 0xFFFFFFFFFFFFFFFF AND SWAP1 JUMP JUMPDEST PUSH2 0xC3 PUSH2 0xC3 PUSH2 0xC3 SWAP3 PUSH4 0xFFFFFFFF AND SWAP1 JUMP JUMPDEST PUSH2 0xC3 PUSH2 0xC3 PUSH2 0xC3 SWAP3 PUSH2 0xFFFF AND SWAP1 JUMP JUMPDEST SWAP1 PUSH1 0x0 PUSH2 0x33C0 PUSH2 0x33B8 DUP3 PUSH2 0x62D JUMP JUMPDEST DUP5 JUMPDEST GT PUSH2 0x2B50 JUMP JUMPDEST PUSH2 0x33CA PUSH1 0xFF PUSH2 0x610 JUMP JUMPDEST DUP1 PUSH2 0x33DB PUSH1 0x1 PUSH1 0x1 PUSH1 0x80 SHL SUB PUSH2 0x11A1 JUMP JUMPDEST DUP6 AND PUSH2 0x33E9 PUSH2 0x64E DUP6 PUSH2 0x62D JUMP JUMPDEST GT ISZERO PUSH2 0x35C3 JUMPI POP PUSH2 0x33FE SWAP1 PUSH2 0xA38 PUSH1 0x80 PUSH2 0x610 JUMP JUMPDEST PUSH2 0x340F PUSH8 0xFFFFFFFFFFFFFFFF PUSH2 0x336E JUMP JUMPDEST DUP5 AND PUSH2 0x341D PUSH2 0x64E DUP5 PUSH2 0x62D JUMP JUMPDEST GT ISZERO PUSH2 0x35AE JUMPI PUSH2 0x3431 SWAP1 PUSH2 0xA38 PUSH1 0x40 PUSH2 0x610 JUMP JUMPDEST PUSH2 0x343E PUSH4 0xFFFFFFFF PUSH2 0x3385 JUMP JUMPDEST DUP5 AND PUSH2 0x344C PUSH2 0x64E DUP5 PUSH2 0x62D JUMP JUMPDEST GT ISZERO PUSH2 0x3599 JUMPI PUSH2 0x3460 SWAP1 PUSH2 0xA38 PUSH1 0x20 PUSH2 0x610 JUMP JUMPDEST PUSH2 0x346B PUSH2 0xFFFF PUSH2 0x3398 JUMP JUMPDEST DUP5 AND PUSH2 0x3479 PUSH2 0x64E DUP5 PUSH2 0x62D JUMP JUMPDEST GT ISZERO PUSH2 0x3584 JUMPI PUSH2 0x348D SWAP1 PUSH2 0xA38 PUSH1 0x10 PUSH2 0x610 JUMP JUMPDEST PUSH2 0x3497 PUSH1 0xFF PUSH2 0x2279 JUMP JUMPDEST DUP5 AND PUSH2 0x34A5 PUSH2 0x64E DUP5 PUSH2 0x62D JUMP JUMPDEST GT ISZERO PUSH2 0x356F JUMPI PUSH2 0x34B9 SWAP1 PUSH2 0xA38 PUSH1 0x8 PUSH2 0x610 JUMP JUMPDEST PUSH2 0x34C3 PUSH1 0xF PUSH2 0x62D JUMP JUMPDEST DUP5 AND PUSH2 0x34D1 PUSH2 0x64E DUP5 PUSH2 0x62D JUMP JUMPDEST GT ISZERO PUSH2 0x355A JUMPI PUSH2 0x34E5 SWAP1 PUSH2 0xA38 PUSH1 0x4 PUSH2 0x610 JUMP JUMPDEST PUSH2 0x34EF PUSH1 0x3 PUSH2 0x62D JUMP JUMPDEST DUP5 AND PUSH2 0x34FD PUSH2 0x64E DUP5 PUSH2 0x62D JUMP JUMPDEST GT ISZERO PUSH2 0x3540 JUMPI PUSH2 0x64E PUSH2 0x3517 PUSH2 0x352A SWAP3 PUSH2 0xA38 PUSH1 0x2 PUSH2 0x610 JUMP JUMPDEST SWAP5 JUMPDEST PUSH2 0x3523 PUSH1 0x1 PUSH2 0x62D JUMP JUMPDEST AND SWAP3 PUSH2 0x62D JUMP JUMPDEST GT PUSH2 0x3531 JUMPI JUMP JUMPDEST SWAP1 PUSH2 0xC3 SWAP1 PUSH2 0xA38 PUSH1 0x1 PUSH2 0x610 JUMP JUMPDEST SWAP3 PUSH2 0x64E PUSH2 0x3555 PUSH2 0x352A SWAP3 PUSH2 0x25F7 PUSH1 0x2 PUSH2 0x610 JUMP JUMPDEST PUSH2 0x3519 JUMP JUMPDEST SWAP3 PUSH2 0x3569 SWAP1 PUSH2 0x25F7 PUSH1 0x4 PUSH2 0x610 JUMP JUMPDEST SWAP3 PUSH2 0x34E5 JUMP JUMPDEST SWAP3 PUSH2 0x357E SWAP1 PUSH2 0x25F7 PUSH1 0x8 PUSH2 0x610 JUMP JUMPDEST SWAP3 PUSH2 0x34B9 JUMP JUMPDEST SWAP3 PUSH2 0x3593 SWAP1 PUSH2 0x25F7 PUSH1 0x10 PUSH2 0x610 JUMP JUMPDEST SWAP3 PUSH2 0x348D JUMP JUMPDEST SWAP3 PUSH2 0x35A8 SWAP1 PUSH2 0x25F7 PUSH1 0x20 PUSH2 0x610 JUMP JUMPDEST SWAP3 PUSH2 0x3460 JUMP JUMPDEST SWAP3 PUSH2 0x35BD SWAP1 PUSH2 0x25F7 PUSH1 0x40 PUSH2 0x610 JUMP JUMPDEST SWAP3 PUSH2 0x3431 JUMP JUMPDEST SWAP4 PUSH2 0x35D3 SWAP2 POP PUSH2 0x25F7 PUSH1 0x80 PUSH2 0x610 JUMP JUMPDEST SWAP3 PUSH2 0x33FE JUMP JUMPDEST PUSH2 0x35E5 SWAP1 PUSH1 0xFF AND PUSH2 0x6A7 JUMP JUMPDEST ADD SWAP1 PUSH1 0xFF DUP3 GT PUSH2 0x5F5 JUMPI JUMP JUMPDEST SWAP1 PUSH1 0x0 SWAP2 DUP3 PUSH2 0x3609 PUSH2 0x3603 PUSH1 0x0 PUSH2 0x62D JUMP JUMPDEST DUP4 PUSH2 0x33BA JUMP JUMPDEST PUSH2 0x3616 PUSH1 0x1 PUSH1 0x80 SHL PUSH2 0x62D JUMP JUMPDEST DUP3 LT ISZERO PUSH2 0x3756 JUMPI JUMPDEST POP PUSH2 0x362C PUSH1 0x1 PUSH1 0x40 SHL PUSH2 0x62D JUMP JUMPDEST DUP2 LT ISZERO PUSH2 0x373F JUMPI JUMPDEST PUSH2 0x3642 PUSH5 0x100000000 PUSH2 0x62D JUMP JUMPDEST DUP2 LT ISZERO PUSH2 0x3728 JUMPI JUMPDEST PUSH2 0x3656 PUSH3 0x10000 PUSH2 0x62D JUMP JUMPDEST DUP2 LT ISZERO PUSH2 0x3711 JUMPI JUMPDEST PUSH2 0x3669 PUSH2 0x100 PUSH2 0x62D JUMP JUMPDEST DUP2 LT ISZERO PUSH2 0x36FA JUMPI JUMPDEST PUSH2 0x367B PUSH1 0x10 PUSH2 0x62D JUMP JUMPDEST DUP2 LT ISZERO PUSH2 0x36E3 JUMPI JUMPDEST PUSH2 0x368D PUSH1 0x4 PUSH2 0x62D JUMP JUMPDEST DUP2 LT ISZERO PUSH2 0x36BF JUMPI JUMPDEST PUSH2 0x36A2 PUSH2 0x64E PUSH1 0x2 PUSH2 0x62D JUMP JUMPDEST LT ISZERO PUSH2 0x36AA JUMPI JUMP JUMPDEST SWAP1 PUSH2 0xC3 SWAP1 PUSH2 0x36B9 PUSH1 0x1 PUSH2 0x610 JUMP JUMPDEST SWAP1 PUSH2 0x35D9 JUMP JUMPDEST PUSH2 0x36DD SWAP1 PUSH2 0x36D7 PUSH2 0x36D0 PUSH1 0x2 PUSH2 0x610 JUMP JUMPDEST DUP1 SWAP3 PUSH2 0x1237 JUMP JUMPDEST SWAP4 PUSH2 0x35D9 JUMP JUMPDEST SWAP2 PUSH2 0x3695 JUMP JUMPDEST PUSH2 0x36F4 SWAP1 PUSH2 0x36D7 PUSH2 0x36D0 PUSH1 0x4 PUSH2 0x610 JUMP JUMPDEST SWAP2 PUSH2 0x3683 JUMP JUMPDEST PUSH2 0x370B SWAP1 PUSH2 0x36D7 PUSH2 0x36D0 PUSH1 0x8 PUSH2 0x610 JUMP JUMPDEST SWAP2 PUSH2 0x3671 JUMP JUMPDEST PUSH2 0x3722 SWAP1 PUSH2 0x36D7 PUSH2 0x36D0 PUSH1 0x10 PUSH2 0x610 JUMP JUMPDEST SWAP2 PUSH2 0x365E JUMP JUMPDEST PUSH2 0x3739 SWAP1 PUSH2 0x36D7 PUSH2 0x36D0 PUSH1 0x20 PUSH2 0x610 JUMP JUMPDEST SWAP2 PUSH2 0x364A JUMP JUMPDEST PUSH2 0x3750 SWAP1 PUSH2 0x36D7 PUSH2 0x36D0 PUSH1 0x40 PUSH2 0x610 JUMP JUMPDEST SWAP2 PUSH2 0x3634 JUMP JUMPDEST SWAP3 POP PUSH2 0x3769 SWAP1 PUSH2 0x36D7 PUSH2 0x36D0 PUSH1 0x80 PUSH2 0x610 JUMP JUMPDEST SWAP2 CODESIZE PUSH2 0x361E JUMP JUMPDEST PUSH2 0x128 SWAP1 PUSH2 0x652 PUSH2 0x733 PUSH2 0xC3 SWAP5 PUSH1 0xFF AND SWAP1 JUMP JUMPDEST PUSH2 0xC3 SWAP3 PUSH2 0x37AE PUSH2 0x37A9 PUSH2 0xA4D SWAP5 PUSH2 0x379A PUSH1 0x0 SWAP1 JUMP JUMPDEST POP PUSH2 0x37A3 PUSH2 0x623 JUMP JUMPDEST SWAP1 PUSH2 0x3770 JUMP JUMPDEST PUSH2 0x11A1 JUMP JUMPDEST SWAP2 PUSH2 0x32A0 JUMP JUMPDEST PUSH2 0xC3 SWAP2 PUSH2 0xA4D SWAP2 PUSH2 0x37AE PUSH2 0x37A9 PUSH2 0x37CA PUSH2 0x623 JUMP JUMPDEST PUSH2 0x37D8 DUP2 PUSH2 0xA48 PUSH1 0x1 PUSH2 0x62D JUMP JUMPDEST SWAP4 PUSH2 0x3770 JUMP JUMPDEST PUSH1 0x0 DUP1 SWAP2 PUSH2 0x37F4 PUSH11 0x636F6E736F6C652E6C6F67 SWAP1 JUMP JUMPDEST PUSH1 0x20 DUP3 MLOAD SWAP3 ADD SWAP1 GAS STATICCALL POP JUMP JUMPDEST PUSH4 0x4E487B71 PUSH1 0xE0 SHL PUSH1 0x0 MSTORE PUSH1 0x51 PUSH1 0x4 MSTORE PUSH1 0x24 PUSH1 0x0 REVERT JUMPDEST PUSH1 0x1 SUB PUSH2 0x3800 JUMPI PUSH2 0xCA SWAP1 PUSH2 0x37DE JUMP INVALID KECCAK256 KECCAK256 KECCAK256 KECCAK256 KECCAK256 KECCAK256 KECCAK256 KECCAK256 KECCAK256 KECCAK256 KECCAK256 JUMPDEST PREVRANDAO GASLIMIT TIMESTAMP SSTORE SELFBALANCE TSTORE GASPRICE KECCAK256 MSTORE8 PUSH22 0x72653A20707269636550A2646970667358221220DB3C EQ 0x2C DUP3 SWAP12 MSTORE8 JUMP BYTE 0xC0 AND 0x4C LOG4 PUSH10 0xBE86EA98E5D762DB02F7 0xDE PUSH22 0x6130162DFFCA64736F6C634300081800330000000000 "},"methodIdentifiers":{"composition()":"d456b5dd","liquidity()":"1a686502","mint(address,int32,uint128,bytes)":"56b4b80d","onERC1155BatchReceived(address,address,uint256[],uint256[],bytes)":"bc197c81","onERC1155Received(address,address,uint256,uint256,bytes)":"f23a6e61","slot()":"1a88bc66","swap(uint256,uint256,bool,bytes)":"dd42d4c6","token0()":"0dfe1681","token1()":"d21220a7"}}}}}