{"contracts/PoolManager.sol":{"PoolManager":{"abi":[{"anonymous":false,"inputs":[{"indexed":false,"internalType":"uint256","name":"limitPrice","type":"uint256"}],"name":"CAO","type":"event"},{"inputs":[{"internalType":"uint32","name":"target_bin","type":"uint32"},{"internalType":"uint256","name":"amount0","type":"uint256"},{"internalType":"uint256","name":"amount1","type":"uint256"},{"internalType":"bytes","name":"data","type":"bytes"}],"name":"PoolMintCallback","outputs":[],"stateMutability":"nonpayable","type":"function"},{"inputs":[{"internalType":"uint256[]","name":"bins","type":"uint256[]"},{"internalType":"uint256[]","name":"amount0","type":"uint256[]"},{"internalType":"uint256[]","name":"amount1","type":"uint256[]"},{"internalType":"bytes","name":"data","type":"bytes"},{"internalType":"bool","name":"zeroforone","type":"bool"}],"name":"PoolSwapCallback","outputs":[],"stateMutability":"nonpayable","type":"function"},{"inputs":[{"internalType":"address","name":"pool_address","type":"address"},{"internalType":"uint32","name":"target_bin","type":"uint32"},{"internalType":"uint128","name":"amount","type":"uint128"},{"internalType":"bytes","name":"data","type":"bytes"}],"name":"mint","outputs":[{"internalType":"uint256","name":"","type":"uint256"},{"internalType":"uint256","name":"","type":"uint256"}],"stateMutability":"nonpayable","type":"function"},{"inputs":[{"internalType":"address","name":"pool_address","type":"address"},{"internalType":"uint256","name":"expectedAmount","type":"uint256"},{"internalType":"uint256","name":"limitPrice","type":"uint256"},{"internalType":"bool","name":"zeroforone","type":"bool"},{"internalType":"bytes","name":"data","type":"bytes"}],"name":"swap","outputs":[{"internalType":"uint256","name":"","type":"uint256"},{"internalType":"uint256","name":"","type":"uint256"}],"stateMutability":"nonpayable","type":"function"}],"evm":{"bytecode":{"linkReferences":{},"object":"60806040523461001a57604051610a9d6100208239610a9d90f35b600080fdfe6080604052600436101561001257600080fd5b60003560e01c80632ead224d14610052578063428716f81461004d57806363439a55146100485763859e32a703610078576103fb565b61026a565b61021d565b61015f565b6001600160a01b031690565b90565b6001600160a01b0381165b0361007857565b600080fd5b9050359061008a82610066565b565b80610071565b9050359061008a8261008c565b801515610071565b9050359061008a8261009f565b909182601f830112156100785781359167ffffffffffffffff831161007857602001926001830284011161007857565b91909160a081840312610078576100fb838261007d565b926101098160208401610092565b926101178260408501610092565b9261012583606083016100a7565b92608082013567ffffffffffffffff81116100785761014492016100b4565b9091565b9052565b90815260408101929161008a9160200152565b346100785761017e6101723660046100e4565b949390939291926104ef565b9061019461018b60405190565b9283928361014c565b0390f35b63ffffffff8116610071565b9050359061008a82610198565b6001600160801b038116610071565b9050359061008a826101b1565b90608082820312610078576101e2818361007d565b926101f082602085016101a4565b926101fe83604083016101c0565b92606082013567ffffffffffffffff81116100785761014492016100b4565b346100785761017e6102303660046101cd565b939290926105f9565b906080828203126100785761024e81836101a4565b9261025c8260208501610092565b926101fe8360408301610092565b346100785761028661027d366004610239565b9392909261071d565b604051005b634e487b7160e01b600052604160045260246000fd5b90601f01601f1916810190811067ffffffffffffffff8211176102c357604052565b61028b565b9061008a6102d560405190565b92836102a1565b67ffffffffffffffff81116102c35760208091020190565b90929192610309610304826102dc565b6102c8565b938185526020808601920283019281841161007857915b83831061032d5750505050565b6020809161033b8486610092565b815201920191610320565b9080601f8301121561007857816020610063933591016102f4565b9160a08383031261007857823567ffffffffffffffff81116100785782610389918501610346565b92602081013567ffffffffffffffff811161007857836103aa918301610346565b92604082013567ffffffffffffffff811161007857816103cb918401610346565b92606083013567ffffffffffffffff811161007857826103f26080946100639387016100b4565b949095016100a7565b346100785761028661040e366004610361565b949390939291926108fc565b61006390610057906001600160a01b031682565b6100639061041a565b6100639061042e565b9050519061008a8261008c565b9190604083820312610078576100639060206104698286610440565b9401610440565b90826000939282370152565b919061049a81610493816104a49560209181520190565b8095610470565b601f01601f191690565b0190565b90939161006395936104cd6104d6926104c660808601986000870152565b6020850152565b15156040830152565b606081850391015261047c565b6040513d6000823e3d90fd5b6040949695929161056a61054661054160009461050a600090565b507f0f64aca3ed0ac59f780bc873a011a63618325e4f5aae93e119ce67c33625c00261053560405190565b888152602090a1610437565b610437565b9461055060405190565b998a9788968795636ea16a6360e11b8752600487016104a8565b03925af180156105ae57600092839161058257509190565b905061014491925060403d6040116105a7575b61059f81836102a1565b81019061044d565b503d610595565b6104e3565b90939161006395936105e96104d6926105dc608086019860008701906001600160a01b03169052565b63ffffffff166020850152565b6001600160801b03166040830152565b91600061061761054160409695989798610611600090565b50610437565b9261056a61062460405190565b98899687958694630850e2df60e31b865233600487016105b3565b91906060838203126100785761068090604061065b60606102c8565b94610666838261007d565b8652610675836020830161007d565b60208701520161007d565b6040830152565b90606082820312610078576100639161063f565b600091031261007857565b6100636100636100639263ffffffff1690565b610148906106a6565b91936107096107109296946106ff61006399976106ef60a088019a60008901906001600160a01b03169052565b6001600160a01b03166020870152565b60408501906106b9565b6060830152565b608081850391015261047c565b9392919261072d81840184610687565b926107436105418086516001600160a01b031690565b63f242432a94604081019461075f86516001600160a01b031690565b833b1561007857899361078b60008a6107988a8a849861077e60405190565b9b8c998a98899760e01b90565b87523390600488016106c2565b03925af19081156105ae576105416020610541926107d6956107c89561082a575b5001516001600160a01b031690565b93516001600160a01b031690565b93833b156100785761080161078b936000979388946107f460405190565b9a8b998a98899760e01b90565b03925af180156105ae576108125750565b61008a90600061082281836102a1565b81019061069b565b61083a90600061082281836102a1565b386107b9565b9061086061085961084f845190565b8084529260200190565b9260200190565b9060005b8181106108715750505090565b90919261088e6108876001928651815260200190565b9460200190565b929101610864565b94926100639694916108e0916108d36108ee956108c360a08b019460008c01906001600160a01b03169052565b6001600160a01b031660208a0152565b8782036040890152610840565b908582036060870152610840565b92608081850391015261047c565b94929390919361090e82820182610687565b93156109ca576109296105418086516001600160a01b031690565b632eb2c2d694604081019461094586516001600160a01b031690565b833b1561007857899361096460008a6109708a8a849861077e60405190565b87523360048801610896565b03925af19081156105ae5761054160206105419261099f956107c89561082a575001516001600160a01b031690565b93833b15610078576108016109bd936000979388946107f460405190565b8752339060048801610896565b6109df6105418086516001600160a01b031690565b632eb2c2d69460408101946109fb86516001600160a01b031690565b833b156100785789936109bd60008a610a1a8a8a849861077e60405190565b03925af19081156105ae57610541602061054192610a49956107c89561082a575001516001600160a01b031690565b93833b1561007857610801610964936000979388946107f46040519056fea2646970667358221220b3c1d97bd915505abd76ecc39a7125712e4f6cb62a34af2873d5234d9f98a8bd64736f6c63430008180033","opcodes":"PUSH1 0x80 PUSH1 0x40 MSTORE CALLVALUE PUSH2 0x1A JUMPI PUSH1 0x40 MLOAD PUSH2 0xA9D PUSH2 0x20 DUP3 CODECOPY PUSH2 0xA9D SWAP1 RETURN JUMPDEST PUSH1 0x0 DUP1 REVERT INVALID PUSH1 0x80 PUSH1 0x40 MSTORE PUSH1 0x4 CALLDATASIZE LT ISZERO PUSH2 0x12 JUMPI PUSH1 0x0 DUP1 REVERT JUMPDEST PUSH1 0x0 CALLDATALOAD PUSH1 0xE0 SHR DUP1 PUSH4 0x2EAD224D EQ PUSH2 0x52 JUMPI DUP1 PUSH4 0x428716F8 EQ PUSH2 0x4D JUMPI DUP1 PUSH4 0x63439A55 EQ PUSH2 0x48 JUMPI PUSH4 0x859E32A7 SUB PUSH2 0x78 JUMPI PUSH2 0x3FB JUMP JUMPDEST PUSH2 0x26A JUMP JUMPDEST PUSH2 0x21D JUMP JUMPDEST PUSH2 0x15F JUMP JUMPDEST PUSH1 0x1 PUSH1 0x1 PUSH1 0xA0 SHL SUB AND SWAP1 JUMP JUMPDEST SWAP1 JUMP JUMPDEST PUSH1 0x1 PUSH1 0x1 PUSH1 0xA0 SHL SUB DUP2 AND JUMPDEST SUB PUSH2 0x78 JUMPI JUMP JUMPDEST PUSH1 0x0 DUP1 REVERT JUMPDEST SWAP1 POP CALLDATALOAD SWAP1 PUSH2 0x8A DUP3 PUSH2 0x66 JUMP JUMPDEST JUMP JUMPDEST DUP1 PUSH2 0x71 JUMP JUMPDEST SWAP1 POP CALLDATALOAD SWAP1 PUSH2 0x8A DUP3 PUSH2 0x8C JUMP JUMPDEST DUP1 ISZERO ISZERO PUSH2 0x71 JUMP JUMPDEST SWAP1 POP CALLDATALOAD SWAP1 PUSH2 0x8A DUP3 PUSH2 0x9F JUMP JUMPDEST SWAP1 SWAP2 DUP3 PUSH1 0x1F DUP4 ADD SLT ISZERO PUSH2 0x78 JUMPI DUP2 CALLDATALOAD SWAP2 PUSH8 0xFFFFFFFFFFFFFFFF DUP4 GT PUSH2 0x78 JUMPI PUSH1 0x20 ADD SWAP3 PUSH1 0x1 DUP4 MUL DUP5 ADD GT PUSH2 0x78 JUMPI JUMP JUMPDEST SWAP2 SWAP1 SWAP2 PUSH1 0xA0 DUP2 DUP5 SUB SLT PUSH2 0x78 JUMPI PUSH2 0xFB DUP4 DUP3 PUSH2 0x7D JUMP JUMPDEST SWAP3 PUSH2 0x109 DUP2 PUSH1 0x20 DUP5 ADD PUSH2 0x92 JUMP JUMPDEST SWAP3 PUSH2 0x117 DUP3 PUSH1 0x40 DUP6 ADD PUSH2 0x92 JUMP JUMPDEST SWAP3 PUSH2 0x125 DUP4 PUSH1 0x60 DUP4 ADD PUSH2 0xA7 JUMP JUMPDEST SWAP3 PUSH1 0x80 DUP3 ADD CALLDATALOAD PUSH8 0xFFFFFFFFFFFFFFFF DUP2 GT PUSH2 0x78 JUMPI PUSH2 0x144 SWAP3 ADD PUSH2 0xB4 JUMP JUMPDEST SWAP1 SWAP2 JUMP JUMPDEST SWAP1 MSTORE JUMP JUMPDEST SWAP1 DUP2 MSTORE PUSH1 0x40 DUP2 ADD SWAP3 SWAP2 PUSH2 0x8A SWAP2 PUSH1 0x20 ADD MSTORE JUMP JUMPDEST CALLVALUE PUSH2 0x78 JUMPI PUSH2 0x17E PUSH2 0x172 CALLDATASIZE PUSH1 0x4 PUSH2 0xE4 JUMP JUMPDEST SWAP5 SWAP4 SWAP1 SWAP4 SWAP3 SWAP2 SWAP3 PUSH2 0x4EF JUMP JUMPDEST SWAP1 PUSH2 0x194 PUSH2 0x18B PUSH1 0x40 MLOAD SWAP1 JUMP JUMPDEST SWAP3 DUP4 SWAP3 DUP4 PUSH2 0x14C JUMP JUMPDEST SUB SWAP1 RETURN JUMPDEST PUSH4 0xFFFFFFFF DUP2 AND PUSH2 0x71 JUMP JUMPDEST SWAP1 POP CALLDATALOAD SWAP1 PUSH2 0x8A DUP3 PUSH2 0x198 JUMP JUMPDEST PUSH1 0x1 PUSH1 0x1 PUSH1 0x80 SHL SUB DUP2 AND PUSH2 0x71 JUMP JUMPDEST SWAP1 POP CALLDATALOAD SWAP1 PUSH2 0x8A DUP3 PUSH2 0x1B1 JUMP JUMPDEST SWAP1 PUSH1 0x80 DUP3 DUP3 SUB SLT PUSH2 0x78 JUMPI PUSH2 0x1E2 DUP2 DUP4 PUSH2 0x7D JUMP JUMPDEST SWAP3 PUSH2 0x1F0 DUP3 PUSH1 0x20 DUP6 ADD PUSH2 0x1A4 JUMP JUMPDEST SWAP3 PUSH2 0x1FE DUP4 PUSH1 0x40 DUP4 ADD PUSH2 0x1C0 JUMP JUMPDEST SWAP3 PUSH1 0x60 DUP3 ADD CALLDATALOAD PUSH8 0xFFFFFFFFFFFFFFFF DUP2 GT PUSH2 0x78 JUMPI PUSH2 0x144 SWAP3 ADD PUSH2 0xB4 JUMP JUMPDEST CALLVALUE PUSH2 0x78 JUMPI PUSH2 0x17E PUSH2 0x230 CALLDATASIZE PUSH1 0x4 PUSH2 0x1CD JUMP JUMPDEST SWAP4 SWAP3 SWAP1 SWAP3 PUSH2 0x5F9 JUMP JUMPDEST SWAP1 PUSH1 0x80 DUP3 DUP3 SUB SLT PUSH2 0x78 JUMPI PUSH2 0x24E DUP2 DUP4 PUSH2 0x1A4 JUMP JUMPDEST SWAP3 PUSH2 0x25C DUP3 PUSH1 0x20 DUP6 ADD PUSH2 0x92 JUMP JUMPDEST SWAP3 PUSH2 0x1FE DUP4 PUSH1 0x40 DUP4 ADD PUSH2 0x92 JUMP JUMPDEST CALLVALUE PUSH2 0x78 JUMPI PUSH2 0x286 PUSH2 0x27D CALLDATASIZE PUSH1 0x4 PUSH2 0x239 JUMP JUMPDEST SWAP4 SWAP3 SWAP1 SWAP3 PUSH2 0x71D JUMP JUMPDEST PUSH1 0x40 MLOAD STOP JUMPDEST PUSH4 0x4E487B71 PUSH1 0xE0 SHL PUSH1 0x0 MSTORE PUSH1 0x41 PUSH1 0x4 MSTORE PUSH1 0x24 PUSH1 0x0 REVERT JUMPDEST SWAP1 PUSH1 0x1F ADD PUSH1 0x1F NOT AND DUP2 ADD SWAP1 DUP2 LT PUSH8 0xFFFFFFFFFFFFFFFF DUP3 GT OR PUSH2 0x2C3 JUMPI PUSH1 0x40 MSTORE JUMP JUMPDEST PUSH2 0x28B JUMP JUMPDEST SWAP1 PUSH2 0x8A PUSH2 0x2D5 PUSH1 0x40 MLOAD SWAP1 JUMP JUMPDEST SWAP3 DUP4 PUSH2 0x2A1 JUMP JUMPDEST PUSH8 0xFFFFFFFFFFFFFFFF DUP2 GT PUSH2 0x2C3 JUMPI PUSH1 0x20 DUP1 SWAP2 MUL ADD SWAP1 JUMP JUMPDEST SWAP1 SWAP3 SWAP2 SWAP3 PUSH2 0x309 PUSH2 0x304 DUP3 PUSH2 0x2DC JUMP JUMPDEST PUSH2 0x2C8 JUMP JUMPDEST SWAP4 DUP2 DUP6 MSTORE PUSH1 0x20 DUP1 DUP7 ADD SWAP3 MUL DUP4 ADD SWAP3 DUP2 DUP5 GT PUSH2 0x78 JUMPI SWAP2 JUMPDEST DUP4 DUP4 LT PUSH2 0x32D JUMPI POP POP POP POP JUMP JUMPDEST PUSH1 0x20 DUP1 SWAP2 PUSH2 0x33B DUP5 DUP7 PUSH2 0x92 JUMP JUMPDEST DUP2 MSTORE ADD SWAP3 ADD SWAP2 PUSH2 0x320 JUMP JUMPDEST SWAP1 DUP1 PUSH1 0x1F DUP4 ADD SLT ISZERO PUSH2 0x78 JUMPI DUP2 PUSH1 0x20 PUSH2 0x63 SWAP4 CALLDATALOAD SWAP2 ADD PUSH2 0x2F4 JUMP JUMPDEST SWAP2 PUSH1 0xA0 DUP4 DUP4 SUB SLT PUSH2 0x78 JUMPI DUP3 CALLDATALOAD PUSH8 0xFFFFFFFFFFFFFFFF DUP2 GT PUSH2 0x78 JUMPI DUP3 PUSH2 0x389 SWAP2 DUP6 ADD PUSH2 0x346 JUMP JUMPDEST SWAP3 PUSH1 0x20 DUP2 ADD CALLDATALOAD PUSH8 0xFFFFFFFFFFFFFFFF DUP2 GT PUSH2 0x78 JUMPI DUP4 PUSH2 0x3AA SWAP2 DUP4 ADD PUSH2 0x346 JUMP JUMPDEST SWAP3 PUSH1 0x40 DUP3 ADD CALLDATALOAD PUSH8 0xFFFFFFFFFFFFFFFF DUP2 GT PUSH2 0x78 JUMPI DUP2 PUSH2 0x3CB SWAP2 DUP5 ADD PUSH2 0x346 JUMP JUMPDEST SWAP3 PUSH1 0x60 DUP4 ADD CALLDATALOAD PUSH8 0xFFFFFFFFFFFFFFFF DUP2 GT PUSH2 0x78 JUMPI DUP3 PUSH2 0x3F2 PUSH1 0x80 SWAP5 PUSH2 0x63 SWAP4 DUP8 ADD PUSH2 0xB4 JUMP JUMPDEST SWAP5 SWAP1 SWAP6 ADD PUSH2 0xA7 JUMP JUMPDEST CALLVALUE PUSH2 0x78 JUMPI PUSH2 0x286 PUSH2 0x40E CALLDATASIZE PUSH1 0x4 PUSH2 0x361 JUMP JUMPDEST SWAP5 SWAP4 SWAP1 SWAP4 SWAP3 SWAP2 SWAP3 PUSH2 0x8FC JUMP JUMPDEST PUSH2 0x63 SWAP1 PUSH2 0x57 SWAP1 PUSH1 0x1 PUSH1 0x1 PUSH1 0xA0 SHL SUB AND DUP3 JUMP JUMPDEST PUSH2 0x63 SWAP1 PUSH2 0x41A JUMP JUMPDEST PUSH2 0x63 SWAP1 PUSH2 0x42E JUMP JUMPDEST SWAP1 POP MLOAD SWAP1 PUSH2 0x8A DUP3 PUSH2 0x8C JUMP JUMPDEST SWAP2 SWAP1 PUSH1 0x40 DUP4 DUP3 SUB SLT PUSH2 0x78 JUMPI PUSH2 0x63 SWAP1 PUSH1 0x20 PUSH2 0x469 DUP3 DUP7 PUSH2 0x440 JUMP JUMPDEST SWAP5 ADD PUSH2 0x440 JUMP JUMPDEST SWAP1 DUP3 PUSH1 0x0 SWAP4 SWAP3 DUP3 CALLDATACOPY ADD MSTORE JUMP JUMPDEST SWAP2 SWAP1 PUSH2 0x49A DUP2 PUSH2 0x493 DUP2 PUSH2 0x4A4 SWAP6 PUSH1 0x20 SWAP2 DUP2 MSTORE ADD SWAP1 JUMP JUMPDEST DUP1 SWAP6 PUSH2 0x470 JUMP JUMPDEST PUSH1 0x1F ADD PUSH1 0x1F NOT AND SWAP1 JUMP JUMPDEST ADD SWAP1 JUMP JUMPDEST SWAP1 SWAP4 SWAP2 PUSH2 0x63 SWAP6 SWAP4 PUSH2 0x4CD PUSH2 0x4D6 SWAP3 PUSH2 0x4C6 PUSH1 0x80 DUP7 ADD SWAP9 PUSH1 0x0 DUP8 ADD MSTORE JUMP JUMPDEST PUSH1 0x20 DUP6 ADD MSTORE JUMP JUMPDEST ISZERO ISZERO PUSH1 0x40 DUP4 ADD MSTORE JUMP JUMPDEST PUSH1 0x60 DUP2 DUP6 SUB SWAP2 ADD MSTORE PUSH2 0x47C JUMP JUMPDEST PUSH1 0x40 MLOAD RETURNDATASIZE PUSH1 0x0 DUP3 RETURNDATACOPY RETURNDATASIZE SWAP1 REVERT JUMPDEST PUSH1 0x40 SWAP5 SWAP7 SWAP6 SWAP3 SWAP2 PUSH2 0x56A PUSH2 0x546 PUSH2 0x541 PUSH1 0x0 SWAP5 PUSH2 0x50A PUSH1 0x0 SWAP1 JUMP JUMPDEST POP PUSH32 0xF64ACA3ED0AC59F780BC873A011A63618325E4F5AAE93E119CE67C33625C002 PUSH2 0x535 PUSH1 0x40 MLOAD SWAP1 JUMP JUMPDEST DUP9 DUP2 MSTORE PUSH1 0x20 SWAP1 LOG1 PUSH2 0x437 JUMP JUMPDEST PUSH2 0x437 JUMP JUMPDEST SWAP5 PUSH2 0x550 PUSH1 0x40 MLOAD SWAP1 JUMP JUMPDEST SWAP10 DUP11 SWAP8 DUP9 SWAP7 DUP8 SWAP6 PUSH4 0x6EA16A63 PUSH1 0xE1 SHL DUP8 MSTORE PUSH1 0x4 DUP8 ADD PUSH2 0x4A8 JUMP JUMPDEST SUB SWAP3 GAS CALL DUP1 ISZERO PUSH2 0x5AE JUMPI PUSH1 0x0 SWAP3 DUP4 SWAP2 PUSH2 0x582 JUMPI POP SWAP2 SWAP1 JUMP JUMPDEST SWAP1 POP PUSH2 0x144 SWAP2 SWAP3 POP PUSH1 0x40 RETURNDATASIZE PUSH1 0x40 GT PUSH2 0x5A7 JUMPI JUMPDEST PUSH2 0x59F DUP2 DUP4 PUSH2 0x2A1 JUMP JUMPDEST DUP2 ADD SWAP1 PUSH2 0x44D JUMP JUMPDEST POP RETURNDATASIZE PUSH2 0x595 JUMP JUMPDEST PUSH2 0x4E3 JUMP JUMPDEST SWAP1 SWAP4 SWAP2 PUSH2 0x63 SWAP6 SWAP4 PUSH2 0x5E9 PUSH2 0x4D6 SWAP3 PUSH2 0x5DC PUSH1 0x80 DUP7 ADD SWAP9 PUSH1 0x0 DUP8 ADD SWAP1 PUSH1 0x1 PUSH1 0x1 PUSH1 0xA0 SHL SUB AND SWAP1 MSTORE JUMP JUMPDEST PUSH4 0xFFFFFFFF AND PUSH1 0x20 DUP6 ADD MSTORE JUMP JUMPDEST PUSH1 0x1 PUSH1 0x1 PUSH1 0x80 SHL SUB AND PUSH1 0x40 DUP4 ADD MSTORE JUMP JUMPDEST SWAP2 PUSH1 0x0 PUSH2 0x617 PUSH2 0x541 PUSH1 0x40 SWAP7 SWAP6 SWAP9 SWAP8 SWAP9 PUSH2 0x611 PUSH1 0x0 SWAP1 JUMP JUMPDEST POP PUSH2 0x437 JUMP JUMPDEST SWAP3 PUSH2 0x56A PUSH2 0x624 PUSH1 0x40 MLOAD SWAP1 JUMP JUMPDEST SWAP9 DUP10 SWAP7 DUP8 SWAP6 DUP7 SWAP5 PUSH4 0x850E2DF PUSH1 0xE3 SHL DUP7 MSTORE CALLER PUSH1 0x4 DUP8 ADD PUSH2 0x5B3 JUMP JUMPDEST SWAP2 SWAP1 PUSH1 0x60 DUP4 DUP3 SUB SLT PUSH2 0x78 JUMPI PUSH2 0x680 SWAP1 PUSH1 0x40 PUSH2 0x65B PUSH1 0x60 PUSH2 0x2C8 JUMP JUMPDEST SWAP5 PUSH2 0x666 DUP4 DUP3 PUSH2 0x7D JUMP JUMPDEST DUP7 MSTORE PUSH2 0x675 DUP4 PUSH1 0x20 DUP4 ADD PUSH2 0x7D JUMP JUMPDEST PUSH1 0x20 DUP8 ADD MSTORE ADD PUSH2 0x7D JUMP JUMPDEST PUSH1 0x40 DUP4 ADD MSTORE JUMP JUMPDEST SWAP1 PUSH1 0x60 DUP3 DUP3 SUB SLT PUSH2 0x78 JUMPI PUSH2 0x63 SWAP2 PUSH2 0x63F JUMP JUMPDEST PUSH1 0x0 SWAP2 SUB SLT PUSH2 0x78 JUMPI JUMP JUMPDEST PUSH2 0x63 PUSH2 0x63 PUSH2 0x63 SWAP3 PUSH4 0xFFFFFFFF AND SWAP1 JUMP JUMPDEST PUSH2 0x148 SWAP1 PUSH2 0x6A6 JUMP JUMPDEST SWAP2 SWAP4 PUSH2 0x709 PUSH2 0x710 SWAP3 SWAP7 SWAP5 PUSH2 0x6FF PUSH2 0x63 SWAP10 SWAP8 PUSH2 0x6EF PUSH1 0xA0 DUP9 ADD SWAP11 PUSH1 0x0 DUP10 ADD SWAP1 PUSH1 0x1 PUSH1 0x1 PUSH1 0xA0 SHL SUB AND SWAP1 MSTORE JUMP JUMPDEST PUSH1 0x1 PUSH1 0x1 PUSH1 0xA0 SHL SUB AND PUSH1 0x20 DUP8 ADD MSTORE JUMP JUMPDEST PUSH1 0x40 DUP6 ADD SWAP1 PUSH2 0x6B9 JUMP JUMPDEST PUSH1 0x60 DUP4 ADD MSTORE JUMP JUMPDEST PUSH1 0x80 DUP2 DUP6 SUB SWAP2 ADD MSTORE PUSH2 0x47C JUMP JUMPDEST SWAP4 SWAP3 SWAP2 SWAP3 PUSH2 0x72D DUP2 DUP5 ADD DUP5 PUSH2 0x687 JUMP JUMPDEST SWAP3 PUSH2 0x743 PUSH2 0x541 DUP1 DUP7 MLOAD PUSH1 0x1 PUSH1 0x1 PUSH1 0xA0 SHL SUB AND SWAP1 JUMP JUMPDEST PUSH4 0xF242432A SWAP5 PUSH1 0x40 DUP2 ADD SWAP5 PUSH2 0x75F DUP7 MLOAD PUSH1 0x1 PUSH1 0x1 PUSH1 0xA0 SHL SUB AND SWAP1 JUMP JUMPDEST DUP4 EXTCODESIZE ISZERO PUSH2 0x78 JUMPI DUP10 SWAP4 PUSH2 0x78B PUSH1 0x0 DUP11 PUSH2 0x798 DUP11 DUP11 DUP5 SWAP9 PUSH2 0x77E PUSH1 0x40 MLOAD SWAP1 JUMP JUMPDEST SWAP12 DUP13 SWAP10 DUP11 SWAP9 DUP10 SWAP8 PUSH1 0xE0 SHL SWAP1 JUMP JUMPDEST DUP8 MSTORE CALLER SWAP1 PUSH1 0x4 DUP9 ADD PUSH2 0x6C2 JUMP JUMPDEST SUB SWAP3 GAS CALL SWAP1 DUP2 ISZERO PUSH2 0x5AE JUMPI PUSH2 0x541 PUSH1 0x20 PUSH2 0x541 SWAP3 PUSH2 0x7D6 SWAP6 PUSH2 0x7C8 SWAP6 PUSH2 0x82A JUMPI JUMPDEST POP ADD MLOAD PUSH1 0x1 PUSH1 0x1 PUSH1 0xA0 SHL SUB AND SWAP1 JUMP JUMPDEST SWAP4 MLOAD PUSH1 0x1 PUSH1 0x1 PUSH1 0xA0 SHL SUB AND SWAP1 JUMP JUMPDEST SWAP4 DUP4 EXTCODESIZE ISZERO PUSH2 0x78 JUMPI PUSH2 0x801 PUSH2 0x78B SWAP4 PUSH1 0x0 SWAP8 SWAP4 DUP9 SWAP5 PUSH2 0x7F4 PUSH1 0x40 MLOAD SWAP1 JUMP JUMPDEST SWAP11 DUP12 SWAP10 DUP11 SWAP9 DUP10 SWAP8 PUSH1 0xE0 SHL SWAP1 JUMP JUMPDEST SUB SWAP3 GAS CALL DUP1 ISZERO PUSH2 0x5AE JUMPI PUSH2 0x812 JUMPI POP JUMP JUMPDEST PUSH2 0x8A SWAP1 PUSH1 0x0 PUSH2 0x822 DUP2 DUP4 PUSH2 0x2A1 JUMP JUMPDEST DUP2 ADD SWAP1 PUSH2 0x69B JUMP JUMPDEST PUSH2 0x83A SWAP1 PUSH1 0x0 PUSH2 0x822 DUP2 DUP4 PUSH2 0x2A1 JUMP JUMPDEST CODESIZE PUSH2 0x7B9 JUMP JUMPDEST SWAP1 PUSH2 0x860 PUSH2 0x859 PUSH2 0x84F DUP5 MLOAD SWAP1 JUMP JUMPDEST DUP1 DUP5 MSTORE SWAP3 PUSH1 0x20 ADD SWAP1 JUMP JUMPDEST SWAP3 PUSH1 0x20 ADD SWAP1 JUMP JUMPDEST SWAP1 PUSH1 0x0 JUMPDEST DUP2 DUP2 LT PUSH2 0x871 JUMPI POP POP POP SWAP1 JUMP JUMPDEST SWAP1 SWAP2 SWAP3 PUSH2 0x88E PUSH2 0x887 PUSH1 0x1 SWAP3 DUP7 MLOAD DUP2 MSTORE PUSH1 0x20 ADD SWAP1 JUMP JUMPDEST SWAP5 PUSH1 0x20 ADD SWAP1 JUMP JUMPDEST SWAP3 SWAP2 ADD PUSH2 0x864 JUMP JUMPDEST SWAP5 SWAP3 PUSH2 0x63 SWAP7 SWAP5 SWAP2 PUSH2 0x8E0 SWAP2 PUSH2 0x8D3 PUSH2 0x8EE SWAP6 PUSH2 0x8C3 PUSH1 0xA0 DUP12 ADD SWAP5 PUSH1 0x0 DUP13 ADD SWAP1 PUSH1 0x1 PUSH1 0x1 PUSH1 0xA0 SHL SUB AND SWAP1 MSTORE JUMP JUMPDEST PUSH1 0x1 PUSH1 0x1 PUSH1 0xA0 SHL SUB AND PUSH1 0x20 DUP11 ADD MSTORE JUMP JUMPDEST DUP8 DUP3 SUB PUSH1 0x40 DUP10 ADD MSTORE PUSH2 0x840 JUMP JUMPDEST SWAP1 DUP6 DUP3 SUB PUSH1 0x60 DUP8 ADD MSTORE PUSH2 0x840 JUMP JUMPDEST SWAP3 PUSH1 0x80 DUP2 DUP6 SUB SWAP2 ADD MSTORE PUSH2 0x47C JUMP JUMPDEST SWAP5 SWAP3 SWAP4 SWAP1 SWAP2 SWAP4 PUSH2 0x90E DUP3 DUP3 ADD DUP3 PUSH2 0x687 JUMP JUMPDEST SWAP4 ISZERO PUSH2 0x9CA JUMPI PUSH2 0x929 PUSH2 0x541 DUP1 DUP7 MLOAD PUSH1 0x1 PUSH1 0x1 PUSH1 0xA0 SHL SUB AND SWAP1 JUMP JUMPDEST PUSH4 0x2EB2C2D6 SWAP5 PUSH1 0x40 DUP2 ADD SWAP5 PUSH2 0x945 DUP7 MLOAD PUSH1 0x1 PUSH1 0x1 PUSH1 0xA0 SHL SUB AND SWAP1 JUMP JUMPDEST DUP4 EXTCODESIZE ISZERO PUSH2 0x78 JUMPI DUP10 SWAP4 PUSH2 0x964 PUSH1 0x0 DUP11 PUSH2 0x970 DUP11 DUP11 DUP5 SWAP9 PUSH2 0x77E PUSH1 0x40 MLOAD SWAP1 JUMP JUMPDEST DUP8 MSTORE CALLER PUSH1 0x4 DUP9 ADD PUSH2 0x896 JUMP JUMPDEST SUB SWAP3 GAS CALL SWAP1 DUP2 ISZERO PUSH2 0x5AE JUMPI PUSH2 0x541 PUSH1 0x20 PUSH2 0x541 SWAP3 PUSH2 0x99F SWAP6 PUSH2 0x7C8 SWAP6 PUSH2 0x82A JUMPI POP ADD MLOAD PUSH1 0x1 PUSH1 0x1 PUSH1 0xA0 SHL SUB AND SWAP1 JUMP JUMPDEST SWAP4 DUP4 EXTCODESIZE ISZERO PUSH2 0x78 JUMPI PUSH2 0x801 PUSH2 0x9BD SWAP4 PUSH1 0x0 SWAP8 SWAP4 DUP9 SWAP5 PUSH2 0x7F4 PUSH1 0x40 MLOAD SWAP1 JUMP JUMPDEST DUP8 MSTORE CALLER SWAP1 PUSH1 0x4 DUP9 ADD PUSH2 0x896 JUMP JUMPDEST PUSH2 0x9DF PUSH2 0x541 DUP1 DUP7 MLOAD PUSH1 0x1 PUSH1 0x1 PUSH1 0xA0 SHL SUB AND SWAP1 JUMP JUMPDEST PUSH4 0x2EB2C2D6 SWAP5 PUSH1 0x40 DUP2 ADD SWAP5 PUSH2 0x9FB DUP7 MLOAD PUSH1 0x1 PUSH1 0x1 PUSH1 0xA0 SHL SUB AND SWAP1 JUMP JUMPDEST DUP4 EXTCODESIZE ISZERO PUSH2 0x78 JUMPI DUP10 SWAP4 PUSH2 0x9BD PUSH1 0x0 DUP11 PUSH2 0xA1A DUP11 DUP11 DUP5 SWAP9 PUSH2 0x77E PUSH1 0x40 MLOAD SWAP1 JUMP JUMPDEST SUB SWAP3 GAS CALL SWAP1 DUP2 ISZERO PUSH2 0x5AE JUMPI PUSH2 0x541 PUSH1 0x20 PUSH2 0x541 SWAP3 PUSH2 0xA49 SWAP6 PUSH2 0x7C8 SWAP6 PUSH2 0x82A JUMPI POP ADD MLOAD PUSH1 0x1 PUSH1 0x1 PUSH1 0xA0 SHL SUB AND SWAP1 JUMP JUMPDEST SWAP4 DUP4 EXTCODESIZE ISZERO PUSH2 0x78 JUMPI PUSH2 0x801 PUSH2 0x964 SWAP4 PUSH1 0x0 SWAP8 SWAP4 DUP9 SWAP5 PUSH2 0x7F4 PUSH1 0x40 MLOAD SWAP1 JUMP INVALID LOG2 PUSH5 0x6970667358 0x22 SLT KECCAK256 0xB3 0xC1 0xD9 PUSH28 0xD915505ABD76ECC39A7125712E4F6CB62A34AF2873D5234D9F98A8BD PUSH5 0x736F6C6343 STOP ADDMOD XOR STOP CALLER "},"methodIdentifiers":{"PoolMintCallback(uint32,uint256,uint256,bytes)":"63439a55","PoolSwapCallback(uint256[],uint256[],uint256[],bytes,bool)":"859e32a7","mint(address,uint32,uint128,bytes)":"428716f8","swap(address,uint256,uint256,bool,bytes)":"2ead224d"}}}}}