{"contracts/Quoter.sol":{"Quoter":{"abi":[{"inputs":[{"internalType":"uint256[]","name":"","type":"uint256[]"},{"internalType":"uint256[]","name":"amount0","type":"uint256[]"},{"internalType":"uint256[]","name":"amount1","type":"uint256[]"},{"internalType":"bytes","name":"","type":"bytes"},{"internalType":"bool","name":"zeroforone","type":"bool"}],"name":"PoolSwapCallback","outputs":[],"stateMutability":"nonpayable","type":"function"},{"inputs":[{"internalType":"address","name":"pool","type":"address"},{"internalType":"uint256","name":"expectedAmount","type":"uint256"},{"internalType":"uint256","name":"limitPrice","type":"uint256"},{"internalType":"bool","name":"zeroforone","type":"bool"},{"internalType":"bytes","name":"data","type":"bytes"}],"name":"quote","outputs":[{"internalType":"uint256","name":"amountOut","type":"uint256"},{"internalType":"uint256","name":"afterPrice","type":"uint256"},{"internalType":"uint256","name":"afterBin","type":"uint256"}],"stateMutability":"nonpayable","type":"function"}],"evm":{"bytecode":{"linkReferences":{},"object":"60806040523461001a57604051610721610020823961072190f35b600080fdfe6080604052600436101561001257600080fd5b60003560e01c806345df8648146100325763859e32a703610058576102ee565b610149565b6001600160a01b031690565b90565b6001600160a01b0381165b0361005857565b600080fd5b9050359061006a82610046565b565b80610051565b9050359061006a8261006c565b801515610051565b9050359061006a8261007f565b909182601f830112156100585781359167ffffffffffffffff831161005857602001926001830284011161005857565b91909160a081840312610058576100db838261005d565b926100e98160208401610072565b926100f78260408501610072565b926101058360608301610087565b92608082013567ffffffffffffffff8111610058576101249201610094565b9091565b90815260608101939261006a929091604091610145906020830152565b0152565b346100585761017a61016b61015f3660046100c4565b94939093929192610456565b60405191939193849384610128565b0390f35b634e487b7160e01b600052604160045260246000fd5b90601f01601f1916810190811067ffffffffffffffff8211176101b657604052565b61017e565b9061006a6101c860405190565b9283610194565b67ffffffffffffffff81116101b65760208091020190565b909291926101fc6101f7826101cf565b6101bb565b938185526020808601920283019281841161005857915b8383106102205750505050565b6020809161022e8486610072565b815201920191610213565b9080601f8301121561005857816020610043933591016101e7565b9160a08383031261005857823567ffffffffffffffff8111610058578261027c918501610239565b92602081013567ffffffffffffffff8111610058578361029d918301610239565b92604082013567ffffffffffffffff811161005857816102be918401610239565b92606083013567ffffffffffffffff811161005857826102e5608094610043938701610094565b94909501610087565b34610058576102fe366004610254565b949390939291926105b2565b61004390610037906001600160a01b031682565b6100439061030a565b6100439061031e565b9050519061006a8261006c565b9190604083820312610058576100439060206103598286610330565b9401610330565b90826000939282370152565b919061038a81610383816103949560209181520190565b8095610360565b601f01601f191690565b0190565b90939161004395936103bd6103c6926103b660808601986000870152565b6020850152565b15156040830152565b606081850391015261036c565b6040513d6000823e3d90fd5b67ffffffffffffffff81116101b657602090601f01601f19160190565b906104096101f7836103df565b918252565b3d156104285761041d3d6103fc565b903d6000602084013e565b606090565b9091606082840312610058576100436104468484610330565b9360406103598260208701610330565b939194926040919693610467600090565b96600088996104a561048161047c8c9b610327565b610327565b9461048b60405190565b98899788968795636ea16a6360e11b875260048701610398565b03925af190816104de575b5061006a57925050506104d96104c461040e565b60206104ce825190565b81830101910161042d565b909192565b6104ff9060403d604011610505575b6104f78183610194565b81019061033d565b506104b0565b503d6104ed565b6100436100436100439290565b634e487b7160e01b600052603260045260246000fd5b90610538825190565b811015610549576020809102010190565b610519565b634e487b7160e01b600052601160045260246000fd5b9190820180921161057157565b61054e565b63ffffffff8116610051565b9050519061006a82610576565b9190604083820312610058576100439060206105ab8286610330565b9401610582565b50925090506000921561069a57506105ca600061050c565b915b6105d7610043835190565b831015610609576105fc610603916105f66105f2868661052f565b5190565b90610564565b9260010190565b916105cc565b9150505b61061961047c33610327565b90604061062560405190565b630d445e3360e11b815292839060049082906000905af1918215610695576060926000918291610663575b5060405192835260208301526040820152fd5b9050610687915060403d60401161068e575b61067f8183610194565b81019061058f565b9038610650565b503d610675565b6103d3565b6106a4600061050c565b925b6106b1610043845190565b8410156106e2576100436106d96106d26106b1936105f66105f2898861052f565b9560010190565b949150506106a6565b9250505061060d56fea2646970667358221220427a7c4815ce65838cf6ea31db95f617a0980b38048adbc34b8a7632cdb7fb9b64736f6c63430008180033","opcodes":"PUSH1 0x80 PUSH1 0x40 MSTORE CALLVALUE PUSH2 0x1A JUMPI PUSH1 0x40 MLOAD PUSH2 0x721 PUSH2 0x20 DUP3 CODECOPY PUSH2 0x721 SWAP1 RETURN JUMPDEST PUSH1 0x0 DUP1 REVERT INVALID PUSH1 0x80 PUSH1 0x40 MSTORE PUSH1 0x4 CALLDATASIZE LT ISZERO PUSH2 0x12 JUMPI PUSH1 0x0 DUP1 REVERT JUMPDEST PUSH1 0x0 CALLDATALOAD PUSH1 0xE0 SHR DUP1 PUSH4 0x45DF8648 EQ PUSH2 0x32 JUMPI PUSH4 0x859E32A7 SUB PUSH2 0x58 JUMPI PUSH2 0x2EE JUMP JUMPDEST PUSH2 0x149 JUMP JUMPDEST PUSH1 0x1 PUSH1 0x1 PUSH1 0xA0 SHL SUB AND SWAP1 JUMP JUMPDEST SWAP1 JUMP JUMPDEST PUSH1 0x1 PUSH1 0x1 PUSH1 0xA0 SHL SUB DUP2 AND JUMPDEST SUB PUSH2 0x58 JUMPI JUMP JUMPDEST PUSH1 0x0 DUP1 REVERT JUMPDEST SWAP1 POP CALLDATALOAD SWAP1 PUSH2 0x6A DUP3 PUSH2 0x46 JUMP JUMPDEST JUMP JUMPDEST DUP1 PUSH2 0x51 JUMP JUMPDEST SWAP1 POP CALLDATALOAD SWAP1 PUSH2 0x6A DUP3 PUSH2 0x6C JUMP JUMPDEST DUP1 ISZERO ISZERO PUSH2 0x51 JUMP JUMPDEST SWAP1 POP CALLDATALOAD SWAP1 PUSH2 0x6A DUP3 PUSH2 0x7F JUMP JUMPDEST SWAP1 SWAP2 DUP3 PUSH1 0x1F DUP4 ADD SLT ISZERO PUSH2 0x58 JUMPI DUP2 CALLDATALOAD SWAP2 PUSH8 0xFFFFFFFFFFFFFFFF DUP4 GT PUSH2 0x58 JUMPI PUSH1 0x20 ADD SWAP3 PUSH1 0x1 DUP4 MUL DUP5 ADD GT PUSH2 0x58 JUMPI JUMP JUMPDEST SWAP2 SWAP1 SWAP2 PUSH1 0xA0 DUP2 DUP5 SUB SLT PUSH2 0x58 JUMPI PUSH2 0xDB DUP4 DUP3 PUSH2 0x5D JUMP JUMPDEST SWAP3 PUSH2 0xE9 DUP2 PUSH1 0x20 DUP5 ADD PUSH2 0x72 JUMP JUMPDEST SWAP3 PUSH2 0xF7 DUP3 PUSH1 0x40 DUP6 ADD PUSH2 0x72 JUMP JUMPDEST SWAP3 PUSH2 0x105 DUP4 PUSH1 0x60 DUP4 ADD PUSH2 0x87 JUMP JUMPDEST SWAP3 PUSH1 0x80 DUP3 ADD CALLDATALOAD PUSH8 0xFFFFFFFFFFFFFFFF DUP2 GT PUSH2 0x58 JUMPI PUSH2 0x124 SWAP3 ADD PUSH2 0x94 JUMP JUMPDEST SWAP1 SWAP2 JUMP JUMPDEST SWAP1 DUP2 MSTORE PUSH1 0x60 DUP2 ADD SWAP4 SWAP3 PUSH2 0x6A SWAP3 SWAP1 SWAP2 PUSH1 0x40 SWAP2 PUSH2 0x145 SWAP1 PUSH1 0x20 DUP4 ADD MSTORE JUMP JUMPDEST ADD MSTORE JUMP JUMPDEST CALLVALUE PUSH2 0x58 JUMPI PUSH2 0x17A PUSH2 0x16B PUSH2 0x15F CALLDATASIZE PUSH1 0x4 PUSH2 0xC4 JUMP JUMPDEST SWAP5 SWAP4 SWAP1 SWAP4 SWAP3 SWAP2 SWAP3 PUSH2 0x456 JUMP JUMPDEST PUSH1 0x40 MLOAD SWAP2 SWAP4 SWAP2 SWAP4 DUP5 SWAP4 DUP5 PUSH2 0x128 JUMP JUMPDEST SUB SWAP1 RETURN JUMPDEST PUSH4 0x4E487B71 PUSH1 0xE0 SHL PUSH1 0x0 MSTORE PUSH1 0x41 PUSH1 0x4 MSTORE PUSH1 0x24 PUSH1 0x0 REVERT JUMPDEST SWAP1 PUSH1 0x1F ADD PUSH1 0x1F NOT AND DUP2 ADD SWAP1 DUP2 LT PUSH8 0xFFFFFFFFFFFFFFFF DUP3 GT OR PUSH2 0x1B6 JUMPI PUSH1 0x40 MSTORE JUMP JUMPDEST PUSH2 0x17E JUMP JUMPDEST SWAP1 PUSH2 0x6A PUSH2 0x1C8 PUSH1 0x40 MLOAD SWAP1 JUMP JUMPDEST SWAP3 DUP4 PUSH2 0x194 JUMP JUMPDEST PUSH8 0xFFFFFFFFFFFFFFFF DUP2 GT PUSH2 0x1B6 JUMPI PUSH1 0x20 DUP1 SWAP2 MUL ADD SWAP1 JUMP JUMPDEST SWAP1 SWAP3 SWAP2 SWAP3 PUSH2 0x1FC PUSH2 0x1F7 DUP3 PUSH2 0x1CF JUMP JUMPDEST PUSH2 0x1BB JUMP JUMPDEST SWAP4 DUP2 DUP6 MSTORE PUSH1 0x20 DUP1 DUP7 ADD SWAP3 MUL DUP4 ADD SWAP3 DUP2 DUP5 GT PUSH2 0x58 JUMPI SWAP2 JUMPDEST DUP4 DUP4 LT PUSH2 0x220 JUMPI POP POP POP POP JUMP JUMPDEST PUSH1 0x20 DUP1 SWAP2 PUSH2 0x22E DUP5 DUP7 PUSH2 0x72 JUMP JUMPDEST DUP2 MSTORE ADD SWAP3 ADD SWAP2 PUSH2 0x213 JUMP JUMPDEST SWAP1 DUP1 PUSH1 0x1F DUP4 ADD SLT ISZERO PUSH2 0x58 JUMPI DUP2 PUSH1 0x20 PUSH2 0x43 SWAP4 CALLDATALOAD SWAP2 ADD PUSH2 0x1E7 JUMP JUMPDEST SWAP2 PUSH1 0xA0 DUP4 DUP4 SUB SLT PUSH2 0x58 JUMPI DUP3 CALLDATALOAD PUSH8 0xFFFFFFFFFFFFFFFF DUP2 GT PUSH2 0x58 JUMPI DUP3 PUSH2 0x27C SWAP2 DUP6 ADD PUSH2 0x239 JUMP JUMPDEST SWAP3 PUSH1 0x20 DUP2 ADD CALLDATALOAD PUSH8 0xFFFFFFFFFFFFFFFF DUP2 GT PUSH2 0x58 JUMPI DUP4 PUSH2 0x29D SWAP2 DUP4 ADD PUSH2 0x239 JUMP JUMPDEST SWAP3 PUSH1 0x40 DUP3 ADD CALLDATALOAD PUSH8 0xFFFFFFFFFFFFFFFF DUP2 GT PUSH2 0x58 JUMPI DUP2 PUSH2 0x2BE SWAP2 DUP5 ADD PUSH2 0x239 JUMP JUMPDEST SWAP3 PUSH1 0x60 DUP4 ADD CALLDATALOAD PUSH8 0xFFFFFFFFFFFFFFFF DUP2 GT PUSH2 0x58 JUMPI DUP3 PUSH2 0x2E5 PUSH1 0x80 SWAP5 PUSH2 0x43 SWAP4 DUP8 ADD PUSH2 0x94 JUMP JUMPDEST SWAP5 SWAP1 SWAP6 ADD PUSH2 0x87 JUMP JUMPDEST CALLVALUE PUSH2 0x58 JUMPI PUSH2 0x2FE CALLDATASIZE PUSH1 0x4 PUSH2 0x254 JUMP JUMPDEST SWAP5 SWAP4 SWAP1 SWAP4 SWAP3 SWAP2 SWAP3 PUSH2 0x5B2 JUMP JUMPDEST PUSH2 0x43 SWAP1 PUSH2 0x37 SWAP1 PUSH1 0x1 PUSH1 0x1 PUSH1 0xA0 SHL SUB AND DUP3 JUMP JUMPDEST PUSH2 0x43 SWAP1 PUSH2 0x30A JUMP JUMPDEST PUSH2 0x43 SWAP1 PUSH2 0x31E JUMP JUMPDEST SWAP1 POP MLOAD SWAP1 PUSH2 0x6A DUP3 PUSH2 0x6C JUMP JUMPDEST SWAP2 SWAP1 PUSH1 0x40 DUP4 DUP3 SUB SLT PUSH2 0x58 JUMPI PUSH2 0x43 SWAP1 PUSH1 0x20 PUSH2 0x359 DUP3 DUP7 PUSH2 0x330 JUMP JUMPDEST SWAP5 ADD PUSH2 0x330 JUMP JUMPDEST SWAP1 DUP3 PUSH1 0x0 SWAP4 SWAP3 DUP3 CALLDATACOPY ADD MSTORE JUMP JUMPDEST SWAP2 SWAP1 PUSH2 0x38A DUP2 PUSH2 0x383 DUP2 PUSH2 0x394 SWAP6 PUSH1 0x20 SWAP2 DUP2 MSTORE ADD SWAP1 JUMP JUMPDEST DUP1 SWAP6 PUSH2 0x360 JUMP JUMPDEST PUSH1 0x1F ADD PUSH1 0x1F NOT AND SWAP1 JUMP JUMPDEST ADD SWAP1 JUMP JUMPDEST SWAP1 SWAP4 SWAP2 PUSH2 0x43 SWAP6 SWAP4 PUSH2 0x3BD PUSH2 0x3C6 SWAP3 PUSH2 0x3B6 PUSH1 0x80 DUP7 ADD SWAP9 PUSH1 0x0 DUP8 ADD MSTORE JUMP JUMPDEST PUSH1 0x20 DUP6 ADD MSTORE JUMP JUMPDEST ISZERO ISZERO PUSH1 0x40 DUP4 ADD MSTORE JUMP JUMPDEST PUSH1 0x60 DUP2 DUP6 SUB SWAP2 ADD MSTORE PUSH2 0x36C JUMP JUMPDEST PUSH1 0x40 MLOAD RETURNDATASIZE PUSH1 0x0 DUP3 RETURNDATACOPY RETURNDATASIZE SWAP1 REVERT JUMPDEST PUSH8 0xFFFFFFFFFFFFFFFF DUP2 GT PUSH2 0x1B6 JUMPI PUSH1 0x20 SWAP1 PUSH1 0x1F ADD PUSH1 0x1F NOT AND ADD SWAP1 JUMP JUMPDEST SWAP1 PUSH2 0x409 PUSH2 0x1F7 DUP4 PUSH2 0x3DF JUMP JUMPDEST SWAP2 DUP3 MSTORE JUMP JUMPDEST RETURNDATASIZE ISZERO PUSH2 0x428 JUMPI PUSH2 0x41D RETURNDATASIZE PUSH2 0x3FC JUMP JUMPDEST SWAP1 RETURNDATASIZE PUSH1 0x0 PUSH1 0x20 DUP5 ADD RETURNDATACOPY JUMP JUMPDEST PUSH1 0x60 SWAP1 JUMP JUMPDEST SWAP1 SWAP2 PUSH1 0x60 DUP3 DUP5 SUB SLT PUSH2 0x58 JUMPI PUSH2 0x43 PUSH2 0x446 DUP5 DUP5 PUSH2 0x330 JUMP JUMPDEST SWAP4 PUSH1 0x40 PUSH2 0x359 DUP3 PUSH1 0x20 DUP8 ADD PUSH2 0x330 JUMP JUMPDEST SWAP4 SWAP2 SWAP5 SWAP3 PUSH1 0x40 SWAP2 SWAP7 SWAP4 PUSH2 0x467 PUSH1 0x0 SWAP1 JUMP JUMPDEST SWAP7 PUSH1 0x0 DUP9 SWAP10 PUSH2 0x4A5 PUSH2 0x481 PUSH2 0x47C DUP13 SWAP12 PUSH2 0x327 JUMP JUMPDEST PUSH2 0x327 JUMP JUMPDEST SWAP5 PUSH2 0x48B PUSH1 0x40 MLOAD SWAP1 JUMP JUMPDEST SWAP9 DUP10 SWAP8 DUP9 SWAP7 DUP8 SWAP6 PUSH4 0x6EA16A63 PUSH1 0xE1 SHL DUP8 MSTORE PUSH1 0x4 DUP8 ADD PUSH2 0x398 JUMP JUMPDEST SUB SWAP3 GAS CALL SWAP1 DUP2 PUSH2 0x4DE JUMPI JUMPDEST POP PUSH2 0x6A JUMPI SWAP3 POP POP POP PUSH2 0x4D9 PUSH2 0x4C4 PUSH2 0x40E JUMP JUMPDEST PUSH1 0x20 PUSH2 0x4CE DUP3 MLOAD SWAP1 JUMP JUMPDEST DUP2 DUP4 ADD ADD SWAP2 ADD PUSH2 0x42D JUMP JUMPDEST SWAP1 SWAP2 SWAP3 JUMP JUMPDEST PUSH2 0x4FF SWAP1 PUSH1 0x40 RETURNDATASIZE PUSH1 0x40 GT PUSH2 0x505 JUMPI JUMPDEST PUSH2 0x4F7 DUP2 DUP4 PUSH2 0x194 JUMP JUMPDEST DUP2 ADD SWAP1 PUSH2 0x33D JUMP JUMPDEST POP PUSH2 0x4B0 JUMP JUMPDEST POP RETURNDATASIZE PUSH2 0x4ED JUMP JUMPDEST PUSH2 0x43 PUSH2 0x43 PUSH2 0x43 SWAP3 SWAP1 JUMP JUMPDEST PUSH4 0x4E487B71 PUSH1 0xE0 SHL PUSH1 0x0 MSTORE PUSH1 0x32 PUSH1 0x4 MSTORE PUSH1 0x24 PUSH1 0x0 REVERT JUMPDEST SWAP1 PUSH2 0x538 DUP3 MLOAD SWAP1 JUMP JUMPDEST DUP2 LT ISZERO PUSH2 0x549 JUMPI PUSH1 0x20 DUP1 SWAP2 MUL ADD ADD SWAP1 JUMP JUMPDEST PUSH2 0x519 JUMP JUMPDEST PUSH4 0x4E487B71 PUSH1 0xE0 SHL PUSH1 0x0 MSTORE PUSH1 0x11 PUSH1 0x4 MSTORE PUSH1 0x24 PUSH1 0x0 REVERT JUMPDEST SWAP2 SWAP1 DUP3 ADD DUP1 SWAP3 GT PUSH2 0x571 JUMPI JUMP JUMPDEST PUSH2 0x54E JUMP JUMPDEST PUSH4 0xFFFFFFFF DUP2 AND PUSH2 0x51 JUMP JUMPDEST SWAP1 POP MLOAD SWAP1 PUSH2 0x6A DUP3 PUSH2 0x576 JUMP JUMPDEST SWAP2 SWAP1 PUSH1 0x40 DUP4 DUP3 SUB SLT PUSH2 0x58 JUMPI PUSH2 0x43 SWAP1 PUSH1 0x20 PUSH2 0x5AB DUP3 DUP7 PUSH2 0x330 JUMP JUMPDEST SWAP5 ADD PUSH2 0x582 JUMP JUMPDEST POP SWAP3 POP SWAP1 POP PUSH1 0x0 SWAP3 ISZERO PUSH2 0x69A JUMPI POP PUSH2 0x5CA PUSH1 0x0 PUSH2 0x50C JUMP JUMPDEST SWAP2 JUMPDEST PUSH2 0x5D7 PUSH2 0x43 DUP4 MLOAD SWAP1 JUMP JUMPDEST DUP4 LT ISZERO PUSH2 0x609 JUMPI PUSH2 0x5FC PUSH2 0x603 SWAP2 PUSH2 0x5F6 PUSH2 0x5F2 DUP7 DUP7 PUSH2 0x52F JUMP JUMPDEST MLOAD SWAP1 JUMP JUMPDEST SWAP1 PUSH2 0x564 JUMP JUMPDEST SWAP3 PUSH1 0x1 ADD SWAP1 JUMP JUMPDEST SWAP2 PUSH2 0x5CC JUMP JUMPDEST SWAP2 POP POP JUMPDEST PUSH2 0x619 PUSH2 0x47C CALLER PUSH2 0x327 JUMP JUMPDEST SWAP1 PUSH1 0x40 PUSH2 0x625 PUSH1 0x40 MLOAD SWAP1 JUMP JUMPDEST PUSH4 0xD445E33 PUSH1 0xE1 SHL DUP2 MSTORE SWAP3 DUP4 SWAP1 PUSH1 0x4 SWAP1 DUP3 SWAP1 PUSH1 0x0 SWAP1 GAS CALL SWAP2 DUP3 ISZERO PUSH2 0x695 JUMPI PUSH1 0x60 SWAP3 PUSH1 0x0 SWAP2 DUP3 SWAP2 PUSH2 0x663 JUMPI JUMPDEST POP PUSH1 0x40 MLOAD SWAP3 DUP4 MSTORE PUSH1 0x20 DUP4 ADD MSTORE PUSH1 0x40 DUP3 ADD MSTORE REVERT JUMPDEST SWAP1 POP PUSH2 0x687 SWAP2 POP PUSH1 0x40 RETURNDATASIZE PUSH1 0x40 GT PUSH2 0x68E JUMPI JUMPDEST PUSH2 0x67F DUP2 DUP4 PUSH2 0x194 JUMP JUMPDEST DUP2 ADD SWAP1 PUSH2 0x58F JUMP JUMPDEST SWAP1 CODESIZE PUSH2 0x650 JUMP JUMPDEST POP RETURNDATASIZE PUSH2 0x675 JUMP JUMPDEST PUSH2 0x3D3 JUMP JUMPDEST PUSH2 0x6A4 PUSH1 0x0 PUSH2 0x50C JUMP JUMPDEST SWAP3 JUMPDEST PUSH2 0x6B1 PUSH2 0x43 DUP5 MLOAD SWAP1 JUMP JUMPDEST DUP5 LT ISZERO PUSH2 0x6E2 JUMPI PUSH2 0x43 PUSH2 0x6D9 PUSH2 0x6D2 PUSH2 0x6B1 SWAP4 PUSH2 0x5F6 PUSH2 0x5F2 DUP10 DUP9 PUSH2 0x52F JUMP JUMPDEST SWAP6 PUSH1 0x1 ADD SWAP1 JUMP JUMPDEST SWAP5 SWAP2 POP POP PUSH2 0x6A6 JUMP JUMPDEST SWAP3 POP POP POP PUSH2 0x60D JUMP INVALID LOG2 PUSH5 0x6970667358 0x22 SLT KECCAK256 TIMESTAMP PUSH27 0x7C4815CE65838CF6EA31DB95F617A0980B38048ADBC34B8A7632CD 0xB7 0xFB SWAP12 PUSH5 0x736F6C6343 STOP ADDMOD XOR STOP CALLER "},"methodIdentifiers":{"PoolSwapCallback(uint256[],uint256[],uint256[],bytes,bool)":"859e32a7","quote(address,uint256,uint256,bool,bytes)":"45df8648"}}}}}