{"contracts/Pool.sol":{"Pool":{"abi":[{"inputs":[{"internalType":"address","name":"token0_","type":"address"},{"internalType":"address","name":"token1_","type":"address"},{"internalType":"uint256","name":"_pi","type":"uint256"},{"internalType":"uint32","name":"_bin","type":"uint32"}],"stateMutability":"nonpayable","type":"constructor"},{"inputs":[],"name":"InvalidLimitPrice","type":"error"},{"inputs":[],"name":"Invalidbinposition","type":"error"},{"inputs":[],"name":"LiquidityNotEnough","type":"error"},{"inputs":[{"internalType":"uint256","name":"prod1","type":"uint256"},{"internalType":"uint256","name":"denominator","type":"uint256"}],"name":"PRBMath__MulDivOverflow","type":"error"},{"inputs":[],"name":"ZeroLiquidity","type":"error"},{"anonymous":false,"inputs":[{"indexed":false,"internalType":"uint256","name":"amount0","type":"uint256"},{"indexed":false,"internalType":"uint256","name":"amount1","type":"uint256"}],"name":"Swap","type":"event"},{"inputs":[],"name":"composition","outputs":[{"internalType":"uint160","name":"","type":"uint160"}],"stateMutability":"view","type":"function"},{"inputs":[],"name":"liquidity","outputs":[{"internalType":"uint128","name":"","type":"uint128"}],"stateMutability":"view","type":"function"},{"inputs":[{"internalType":"address","name":"owner","type":"address"},{"internalType":"uint32","name":"target_bin","type":"uint32"},{"internalType":"uint128","name":"amount","type":"uint128"},{"internalType":"bytes","name":"data","type":"bytes"}],"name":"mint","outputs":[{"internalType":"uint256","name":"amount0","type":"uint256"},{"internalType":"uint256","name":"amount1","type":"uint256"}],"stateMutability":"nonpayable","type":"function"},{"inputs":[{"internalType":"address","name":"","type":"address"},{"internalType":"address","name":"","type":"address"},{"internalType":"uint256[]","name":"","type":"uint256[]"},{"internalType":"uint256[]","name":"","type":"uint256[]"},{"internalType":"bytes","name":"","type":"bytes"}],"name":"onERC1155BatchReceived","outputs":[{"internalType":"bytes4","name":"","type":"bytes4"}],"stateMutability":"nonpayable","type":"function"},{"inputs":[{"internalType":"address","name":"","type":"address"},{"internalType":"address","name":"","type":"address"},{"internalType":"uint256","name":"","type":"uint256"},{"internalType":"uint256","name":"","type":"uint256"},{"internalType":"bytes","name":"","type":"bytes"}],"name":"onERC1155Received","outputs":[{"internalType":"bytes4","name":"","type":"bytes4"}],"stateMutability":"nonpayable","type":"function"},{"inputs":[],"name":"slot","outputs":[{"internalType":"uint256","name":"pi","type":"uint256"},{"internalType":"uint32","name":"bin","type":"uint32"}],"stateMutability":"view","type":"function"},{"inputs":[{"internalType":"bytes4","name":"interfaceId","type":"bytes4"}],"name":"supportsInterface","outputs":[{"internalType":"bool","name":"","type":"bool"}],"stateMutability":"view","type":"function"},{"inputs":[{"internalType":"uint256","name":"expectedAmount","type":"uint256"},{"internalType":"uint256","name":"limitPrice","type":"uint256"},{"internalType":"bool","name":"zeroforone","type":"bool"},{"internalType":"bytes","name":"data","type":"bytes"}],"name":"swap","outputs":[{"internalType":"uint256","name":"amount0","type":"uint256"},{"internalType":"uint256","name":"amount1","type":"uint256"}],"stateMutability":"nonpayable","type":"function"},{"inputs":[],"name":"token0","outputs":[{"internalType":"address","name":"","type":"address"}],"stateMutability":"view","type":"function"},{"inputs":[],"name":"token1","outputs":[{"internalType":"address","name":"","type":"address"}],"stateMutability":"view","type":"function"}],"evm":{"bytecode":{"linkReferences":{},"object":"60c060405234620000465762000022620000186200013e565b929190916200023e565b60405161356862000277823960805181610157015260a051816105bd015261356890f35b600080fd5b634e487b7160e01b600052604160045260246000fd5b90601f01601f191681019081106001600160401b038211176200008357604052565b6200004b565b90620000a06200009860405190565b928362000061565b565b90565b6001600160a01b0381165b036200004657565b90505190620000a082620000a5565b80620000b0565b90505190620000a082620000c7565b63ffffffff8116620000b0565b90505190620000a082620000dd565b6080818303126200004657620001108282620000b8565b92620000a2620001248460208501620000b8565b936060620001368260408701620000ce565b9401620000ea565b62000161620037df80380380620001558162000089565b928339810190620000f9565b90919293565b620000a2604062000089565b90600019905b9181191691161790565b620000a2620000a2620000a29290565b90620001a7620000a2620001af9262000183565b825462000173565b9055565b9063ffffffff9062000179565b620001d6620000a2620000a29263ffffffff1690565b63ffffffff1690565b90620001f3620000a2620001af92620001c0565b8254620001b3565b60016200022a6020620000a0946200021f62000218600083015190565b8662000193565b015163ffffffff1690565b9101620001df565b90620000a091620001fb565b60805260a052620000a0916200026e90620002616200025c62000167565b938452565b63ffffffff166020830152565b60076200023256fe6101c0604052600436101561001357600080fd5b60003560e01c806301ffc9a7146100b35780630dfe1681146100ae5780631a686502146100a95780631a88bc66146100a4578063428716f81461009f578063bc197c811461009a578063d21220a714610095578063d456b5dd14610090578063dd42d4c61461008b5763f23a6e61036100cb576106ca565b61066d565b61060c565b6105a8565b61056e565b61035b565b610230565b6101bd565b610142565b6100fa565b6001600160e01b031981165b036100cb57565b600080fd5b905035906100dd826100b8565b565b906020828203126100cb576100f3916100d0565b90565b9052565b346100cb576101276101156101103660046100df565b6106e9565b60405191829182901515815260200190565b0390f35b60009103126100cb57565b6001600160a01b031690565b346100cb5761015236600461012b565b6101277f00000000000000000000000000000000000000000000000000000000000000005b604051918291826001600160a01b03909116815260200190565b6100f3916008021c5b6001600160801b031690565b906100f39154610191565b6100f3600060056101a6565b346100cb576101cd36600461012b565b6101276101d86101b1565b604051918291826001600160801b03909116815260200190565b6100f39081565b6100f390546101f2565b6100f3905b63ffffffff1690565b6100f39054610203565b61022560076101f9565b906100f36008610211565b346100cb5761024036600461012b565b61024861021b565b9061012761025560405190565b9283928390815263ffffffff909116602082015260400190565b6001600160a01b0381166100c4565b905035906100dd8261026f565b63ffffffff81166100c4565b905035906100dd8261028b565b6001600160801b0381166100c4565b905035906100dd826102a4565b909182601f830112156100cb5781359167ffffffffffffffff83116100cb5760200192600183028401116100cb57565b906080828203126100cb57610305818361027e565b926103138260208501610297565b9261032183604083016102b3565b92606082013567ffffffffffffffff81116100cb5761034092016102c0565b9091565b9081526040810192916100dd9160200152565b0152565b346100cb5761037761036e3660046102f0565b93929092610978565b9061012761038460405190565b92839283610344565b634e487b7160e01b600052604160045260246000fd5b90601f01601f1916810190811067ffffffffffffffff8211176103c557604052565b61038d565b906100dd6103d760405190565b92836103a3565b67ffffffffffffffff81116103c55760208091020190565b806100c4565b905035906100dd826103f6565b9092919261041e610419826103de565b6103ca565b93818552602080860192028301928184116100cb57915b8383106104425750505050565b6020809161045084866103fc565b815201920191610435565b9080601f830112156100cb578160206100f393359101610409565b67ffffffffffffffff81116103c557602090601f01601f19160190565b0190565b90826000939282370152565b909291926104b361041982610476565b93818552818301116100cb576100dd916020850190610497565b9080601f830112156100cb578160206100f3933591016104a3565b91909160a0818403126100cb576104ff838261027e565b9261050d816020840161027e565b92604083013567ffffffffffffffff81116100cb578261052e91850161045b565b92606081013567ffffffffffffffff81116100cb578361054f91830161045b565b92608082013567ffffffffffffffff81116100cb576100f392016104cd565b346100cb5761012761058d6105843660046104e8565b93929092610c11565b604051918291826001600160e01b0319909116815260200190565b346100cb576105b836600461012b565b6101277f0000000000000000000000000000000000000000000000000000000000000000610177565b6100f3916008021c6001600160a01b031690565b906100f391546105e1565b6100f3600060066105f5565b346100cb5761061c36600461012b565b610127610177610600565b8015156100c4565b905035906100dd82610627565b906080828203126100cb5761065181836103fc565b9261065f82602085016103fc565b92610321836040830161062f565b346100cb5761037761068036600461063c565b93929092611181565b91909160a0818403126100cb576106a0838261027e565b926106ae816020840161027e565b926106bc82604085016103fc565b9261054f83606083016103fc565b346100cb5761012761058d6106e0366004610689565b93929092611a63565b630271189760e51b6001600160e01b0319821614908115610708575090565b6100f391506001600160e01b0319166301ffc9a760e01b1490565b6102086100f36100f39290565b6100f3628d89e8610723565b6100f362727618610723565b61019a6100f36100f39290565b6107626100f36100f39290565b60ff1690565b6100f36060610755565b6100f36100f36100f39290565b6100f3906107976107936100f39460ff1690565b9190565b901b90565b6101366100f36100f39290565b6102086100f36100f39263ffffffff1690565b906107c6906107a9565b600052602052604060002090565b6100f390610762565b6100f390546107d4565b634e487b7160e01b600052601160045260246000fd5b61080c9060ff165b9160ff1690565b90039060ff821161081957565b6107e7565b906001600160a01b03905b9181191691161790565b6100f390610136906001600160a01b031682565b906108576100f361085e92610833565b825461081e565b9055565b6100f390610136565b6100f39054610862565b6100f39061019a565b6100f39054610875565b6108a3906001600160801b03165b916001600160801b031690565b01906001600160801b03821161081957565b906001600160801b0390610829565b61019a6100f36100f3926001600160801b031690565b906108ea6100f361085e926108c4565b82546108b5565b6100f390610833565b6100f3906108f1565b91906109218161091a816104939560209181520190565b8095610497565b601f01601f191690565b9093916100f3959361095861095f926109516080860198600087019063ffffffff169052565b6020850152565b6040830152565b6060818503910152610903565b6040513d6000823e3d90fd5b93949290600095869361098c610208610730565b63ffffffff8416118015610bd2575b610bc0576000946109ab86610748565b6001600160801b03831614610baa576109c46008610211565b986109ce85611c20565b9963ffffffff811663ffffffff871603610b46575050506109f9856109f385826107bc565b016107dd565b15610af157610a6090610a5b84610a26610a1f610a16600661086b565b9c5b8d86612391565b9b846123c9565b99610a44610a3d85610a38600561087e565b610888565b60056108da565b610a4f84838b612455565b610ae1575b6001612697565b6126e1565b610a71610a6c336108fa565b6108fa565b803b156100cb5787858094610aa48a95610a8a60405190565b988997889687956363439a5560e01b87526004870161092b565b03925af18015610adc57610ab6575050565b816100dd92903d10610ad5575b610acd81836103a3565b81019061012b565b503d610ac3565b61096c565b610aec826002612591565b610a54565b610a6090610a5b84610a26610a1f610b419c610b38610b33610b24610b14610768565b610b1e6001610755565b906107fd565b610b2e6001610772565b61077f565b61079c565b9d8e6006610847565b610a18565b9899919863ffffffff1663ffffffff86161115610b80575090610a5b84610b7a610a6094610b738a61079c565b508461231b565b9a610a44565b98975050610a6090610b96610b33610b24610768565b50610a5b84610ba4836122f8565b99610a44565b604051630200e8a960e31b8152600490fd5b0390fd5b604051633944550f60e21b8152600490fd5b50610bde61020861073c565b63ffffffff84161061099b565b610c04610bfe6100f39263ffffffff1690565b60e01b90565b6001600160e01b03191690565b5050505050610c1e600090565b506100f363bc197c81610beb565b8181029291811591840414171561081957565b9160001960089290920291821b911b610829565b9190610c646100f361085e93610772565b908354610c3f565b6100dd91600091610c53565b818110610c83575050565b80610c916000600193610c6c565b01610c78565b919091828210610ca657505050565b6100dd9291610cbb9091600052602060002090565b9182019101610c78565b90600160401b81116103c55781610cdd6100dd935490565b90828155610c97565b60006100dd91610cc5565b634e487b7160e01b600052600060045260246000fd5b90600003610d18576100dd90610ce6565b610cf1565b6100f360406103ca565b906100dd610d4f6001610d38610d1d565b94610d49610d45826101f9565b8752565b01610211565b63ffffffff166020840152565b6100f390610d27565b6100f36401000276a3610772565b6100f373fffd8963efd1fc6a506488495d951d5263988d26610772565b6100f360a06103ca565b90610da761041983610476565b918252565b610db66005610d9a565b6462696e203d60d81b602082015290565b6100f3610dac565b6100f36100f36100f39263ffffffff1690565b6100f360c06103ca565b610df4610de2565b906000825260208080808080870160008152016000815201600081520160008152016000905250565b6100f3610dec565b9190820391821161081957565b9190820180921161081957565b634e487b7160e01b600052603260045260246000fd5b8054821015610e7857610e6f600191600052602060002090565b91020190600090565b610e3f565b90815491600160401b8310156103c55782610ea09160016100dd95018155610e55565b90610c53565b610eb06018610d9a565b7f446f6e6520506172746c793a206e6f206d6f72652062696e0000000000000000602082015290565b6100f3610ea6565b610eeb601e610d9a565b7f446f6e6520506172746c793a206f7574206f66206c696d697470726963650000602082015290565b6100f3610ee1565b610f26601d610d9a565b7f446f6e653a2066756c6c206f6620657870656374656420616d6f756e74000000602082015290565b6100f3610f1c565b6100f39060081c61019a565b6100f39054610f57565b90610da7610419836103de565b369037565b906100dd610f95610f8f84610f6d565b936103de565b601f190160208401610f7a565b6100f3916008021c81565b906100f39154610fa2565b610fc2603f610d9a565b7f74656d704964735b695d207c2074656d70416d6f756e74734f66546f6b656e3060208201527f5b695d207c2074656d70416d6f756e74734f66546f6b656e315b695d203d2000604082015290565b6100f3610fb8565b90611022825190565b811015610e78576020809102010190565b9063ffffffff90610829565b9061104f6100f361085e926107a9565b8254611033565b9060001990610829565b906110706100f361085e92610772565b8254611056565b91906060838203126100cb5761095890604061109360606103ca565b9461109e838261027e565b86526110ad836020830161027e565b60208701520161027e565b906060828203126100cb576100f391611077565b906110ec6110e56110db845190565b8084529260200190565b9260200190565b9060005b8181106110fd5750505090565b90919261111a6111136001928651815260200190565b9460200190565b9291016110f0565b969593909461116a60809461115c6111789561114e8c6100dd9b60a082019160008184039101526110cc565b8c810360208e0152906110cc565b908a820360408c01526110cc565b9188830360608a0152610903565b94019015159052565b60c0526101a0526101205261018052610160526000610100526111a660006009610d07565b6111b26000600a610d07565b6111be6000600b610d07565b6111c86007610d5c565b6111d2600561087e565b600061012051600014611a3457506111eb6100f3835190565b6101a0511180611a18575b155b611a065761124e82611245611222600061121c602061126298015163ffffffff1690565b93015190565b916000608052611230610d90565b60a05260805160a051019063ffffffff169052565b602060a0510152565b604060a05101906001600160801b03169052565b61126d608051610772565b6101405261128161014051606060a0510152565b61129161014051608060a0510152565b6101405160c05111806119c6575b156118d6576112d26112bb60805160a051015163ffffffff1690565b6112cc6112c6610dc7565b91610dcf565b90612767565b6112da610e1d565b60e05260a051602001516112f29060805160e0510152565b60805160a051015163ffffffff168061130e602060a051015190565b906101205160001461197a5750611326826002612afa565b63ffffffff8082160361194d575b505b61134d61020860805160a051015163ffffffff1690565b63ffffffff8316146119295761137161137a92602060e051019063ffffffff169052565b604060e0510152565b61010051506113e36113ea6113da6113ca61139960805160e051015190565b60a051604001516001600160801b0316906113b4600661086b565b60e051604001519060c051936101205193612d25565b60a060e097949795929395510152565b608060e0510152565b6006610847565b6114026113fa60a060e051015190565b60c051610e25565b908160c05261142e61141760a060e051015190565b6100f6606060a0510191611429835190565b610e32565b61145061143e608060e051015190565b6100f6608060a0510191611429835190565b611477600961147161146c60805160a051015163ffffffff1690565b610dcf565b90610e7d565b6101205115611903576114b061149060a060e051015190565b6114a96114a0608060e051015190565b915b600a610e7d565b600b610e7d565b602060e05101916114c5835163ffffffff1690565b6114d863ffffffff5b9163ffffffff1690565b146118f55761012051156118db5760e051604001516114fa6107936101a05190565b115b6118c85761014051146115625761124561151d61152f935163ffffffff1690565b60805160a051019063ffffffff169052565b61155d61124e61155461154c60805160a051015163ffffffff1690565b6080516107bc565b60805101610f63565b611291565b505061157461156f610f4f565b612e24565b600990611587611582835490565b610f7f565b91611593611582825490565b9261159f611582835490565b91610140515b6115b06100f3835490565b81101561166b576115c18183610e55565b6115ca91610fad565b81600a6115d78282610e55565b6115e091610fad565b92600b936115ee8486610e55565b6115f791610fad565b90611600611011565b9261160a93612e7e565b816116158187610e55565b61161e91610fad565b6116288289611019565b5261163291610e55565b61163b91610fad565b611645828a611019565b5261164f91610e55565b61165891610fad565b6116628286611019565b526001016115a5565b5050929192611689610a3d604060a05101516001600160801b031690565b6116a76116a060805160a051015163ffffffff1690565b600861103f565b6116c26116b7602060a051015190565b608051600701611060565b6116d7610160516101805101610180516110b8565b6116f2610a6c610a6c6080518401516001600160a01b031690565b63a22cb46591813b156100cb576040519161170d8460e01b90565b835233600484015260016024840152608051908390604490829084905af1918215610adc576020610a6c92610a6c92611754956118a8575b5001516001600160a01b031690565b803b156100cb5761176e61176760405190565b9260e01b90565b825233600483015260016024830152608051908290604490829084905af18015610adc57611888575b506117a4610a6c336108fa565b91823b156100cb576117de906117b960405190565b94859363859e32a760e01b855261012051926101605192610180519260048801611122565b918180608051940391608051905af18015610adc57611868575b50610120511561184d5760a0516060015190611817608060a051015190565b905b7f015fc8ee969fd902d9ebd12a31c54446400a2b512a405366fe14defd6081d220828461184861038460405190565b0390a1565b60a0516080015190611862606060a051015190565b90611819565b611882906080513d60805111610ad557610acd81836103a3565b386117f8565b6118a2906080513d60805111610ad557610acd81836103a3565b38611797565b6118c2906080513d60805111610ad557610acd81836103a3565b38611745565b5050506118d661156f610f14565b611574565b60e051604001516118ef6107936101a05190565b106114fc565b5050506118d661156f610ed9565b6114b0611913608060e051015190565b6114a961192360a060e051015190565b916114a2565b505060e05163ffffffff602090910152611948600019604060e0510152565b61137a565b61195681611c20565b906119616101a05190565b82111561196f575b50611334565b925090503880611969565b611985906002612898565b63ffffffff80821603611999575b50611336565b6119a281611c20565b906119ad6101a05190565b8210156119bb575b50611993565b9250905038806119b5565b5061012051156119eb5760a051602001516119e46107936101a05190565b111561129f565b60a051602001516119ff6107936101a05190565b101561129f565b604051632e6cde9d60e11b8152600490fd5b506111f8611a276100f3610d73565b6101a051111590506111f6565b8201516101a0511080611a4757156111f8565b506111f8611a566100f3610d65565b6101a051101590506111f6565b5050505050611a70600090565b506100f363f23a6e61610beb565b1490565b611a956100f36100f39263ffffffff1690565b60030b90565b611a956100f36100f39290565b6100f362800000611a9b565b611ac29060030b9160030b90565b900390637fffffff198212637fffffff83131761081957565b611aeb6100f36100f39260030b90565b60020b90565b611aeb6100f36100f39290565b6100f36100f36100f39260020b90565b600160ff1b81146108195760000390565b6100f362080000611af1565b611b3b6100f36100f39260020b90565b62ffffff1690565b6100f36100f36100f39262ffffff1690565b15611b5c57565b60405162461bcd60e51b815260206004820152601560248201527462696e206973206f7574206f662072616e6765202160581b6044820152606490fd5b611ba66100f36100f39290565b6001600160881b031690565b6100f36100f36100f3926001600160881b031690565b6100f390611bdc6107936100f39460ff1690565b901c90565b634e487b7160e01b600052601260045260246000fd5b8115611c01570490565b611be1565b8115611c01570690565b6100f36100f36100f39260ff1690565b611c4e611c49611c3b6100f393611c35600090565b50611a82565b611c43611aa8565b90611ab4565b611adb565b6000611c5981611af1565b611c638360020b90565b12156122d057611c82611c7d611c7884611afe565b611b0e565b610772565b915b611caa611ca26100f3611c9d611c98611b1f565b611b2b565b611b43565b841115611b55565b611cb46001610772565b8316611cc261079384610772565b146122c057611ce8611ce36ffff97272373d40000000000000000000611b99565b611bb2565b92611cf36002610772565b8116611d0161079385610772565b03612299575b611d116004610772565b8116611d1f61079385610772565b03612272575b611d2f6008610772565b8116611d3d61079385610772565b0361224b575b611d4d6010610772565b8116611d5b61079385610772565b03612224575b611d6b6020610772565b8116611d7961079385610772565b036121fd575b611d896040610772565b8116611d9761079385610772565b036121cc575b608090611da982610772565b8116611db761079386610772565b036121a5575b611dc8610100610772565b8116611dd661079386610772565b0361217e575b611de7610200610772565b8116611df561079386610772565b03612157575b611e06610400610772565b8116611e1461079386610772565b03612130575b611e25610800610772565b8116611e3361079386610772565b03612109575b611e44611000610772565b8116611e5261079386610772565b036120e2575b611e63612000610772565b8116611e7161079386610772565b036120bb575b611e82614000610772565b8116611e9061079386610772565b03612094575b611ea1618000610772565b8116611eaf61079386610772565b0361206d575b611ec162010000610772565b8116611ecf61079386610772565b03612047575b611ee162020000610772565b8116611eef61079386610772565b03612022575b611f0162040000610772565b8116611f0f61079386610772565b03611ff6575b611f2162080000610772565b16611f2e61079385610772565b03611fc2575b50611f48611f4183611af1565b9160020b90565b13611faf575b611f79611f64611f5e6020610755565b84611bc8565b92611f73640100000000610772565b90611c06565b611f8561079383610772565b03611fa157611f96611f9b91610755565b611c10565b90610e32565b50611f9b611f966001610755565b90611fbc90600019611bf7565b90611f4e565b611fe9611fe3611fef9395611fdd66149b34ee7b4533610772565b90610c2c565b91610755565b90611bc8565b9138611f34565b9361201361201c91611fdd6b048a1703920644c000000000610772565b611fe983610755565b93611f15565b9361201361204191611fdd6d2216e584f6303800000000000000610772565b93611ef5565b9361201361206791611fdd6e5d6af8dedbcb380000000000000000610772565b93611ed5565b9361201361208e91611fdd6f09aa508b5b7e5a800000000000000000610772565b93611eb5565b936120136120b591611fdd6f31be135f97da6e000000000000000000610772565b93611e96565b936120136120dc91611fdd6f70d869a156ddd4000000000000000000610772565b93611e77565b9361201361210391611fdd6fa9f746462d8f78000000000000000000610772565b93611e58565b9361201361212a91611fdd6fd097f3bdfd2550000000000000000000610772565b93611e39565b9361201361215191611fdd6fe7159475a2c578000000000000000000610772565b93611e1a565b9361201361217891611fdd6ff3392b0822b880000000000000000000610772565b93611dfb565b9361201361219f91611fdd6ff987a7253ac4d8000000000000000000610772565b93611ddc565b936120136121c691611fdd6ffcbe86c7900ae8000000000000000000610772565b93611dbd565b926121ed6121f791611fdd6ffe5dee046a99d8000000000000000000610772565b611fe96080610755565b92611d9d565b926121ed61221e91611fdd6fff2ea16466c980000000000000000000610772565b92611d7f565b926121ed61224591611fdd6fff973b41fa98d8000000000000000000610772565b92611d61565b926121ed61226c91611fdd6fffcb9843d60f68000000000000000000610772565b92611d43565b926121ed61229391611fdd6fffe5caca7e10f0000000000000000000610772565b92611d25565b926121ed6122ba91611fdd6ffff2e50f5f6570000000000000000000610772565b92611d07565b611ce8611ce3600160801b611b99565b6122dc611c7d83611afe565b91611c84565b6100f36100f36100f3926001600160801b031690565b61230d6100f391612307600090565b506122e2565b612315610768565b9061077f565b9061232b6100f392612307600090565b61234b612340612339610768565b809361077f565b91610b2e6001610772565b90612eac565b61236c906001600160a01b03165b916001600160a01b031690565b9003906001600160a01b03821161081957565b6100f39081906001600160a01b031681565b61234b6123c46100f394936123a4600090565b506123be61230d6123b8600160601b61079c565b956122e2565b93612351565b61237f565b906123d96100f392612307600090565b61234b6123fc6123f16123ea610768565b809461077f565b92610b2e6001610772565b9261237f565b9060ff90610829565b9061241b6100f361085e92151590565b8254612402565b9070ffffffffffffffffffffffffffffffff009060081b610829565b9061244e6100f361085e926108c4565b8254612422565b6100f36100dd926124719295949561246b600090565b506107bc565b9261247b84610f63565b600094859161248c61089684610748565b146124dc575b01936124d46124ce6124ad6124a688610f63565b9485610888565b93611a7e6108966124bd86610748565b6001600160801b0388161495610748565b91151590565b14159361243e565b6124e9600183830161240b565b612492565b61020890611bdc6114ce6100f39460ff1690565b6125156100f36100f39263ffffffff1690565b61ffff1690565b6107626100f36100f39263ffffffff1690565b6125156100f36100f39261ffff1690565b906107c69061252f565b61251590611bdc61255e6100f39460ff1690565b9161ffff1690565b6107626100f36100f39261ffff1690565b6107626100f36100f39260ff1690565b906107c690612577565b60006126416100dd936125a46008610755565b610b2e61261a61261461260f6125cb6125c56125c087896124ee565b612502565b9661251c565b9461260960028b01612604896125e96125e48285612540565b6101f9565b6125fd6125f66001610772565b9b8c61077f565b1792612540565b611060565b8661254a565b612566565b93612566565b61260484600189019261263a6126336125e48487612587565b918761077f565b1792612587565b91019061264d826101f9565b1790611060565b6100f6906001600160a01b031660601b90565b6100f69063ffffffff16610bfe565b6014816126896104939360049695612654565b018092612667565b906107c6565b6126bc6126c86100f3946100f3946126ae60405190565b938492602084019283612676565b908103825203826103a3565b6126da6126d3825190565b9160200190565b2090612691565b6100dd916126f290610a388361087e565b906108da565b60005b83811061270b5750506000910152565b81810151838201526020016126fb565b61273c61092160209361049393612730815190565b80835293849260200190565b958691016126f8565b929160206127626100dd936040870190878203600089015261271b565b940152565b906127a36100dd9261279461277b60405190565b632d839cb360e21b602082015293849260248401612745565b602082018103825203826103a3565b612fe1565b6125156100f36100f39260ff1690565b6125159061079761255e6100f39460ff1690565b6125156100f36100f39290565b6127e69061ffff1661255e565b019061ffff821161081957565b6128009061ffff1661255e565b90039061ffff821161081957565b6102086100f36100f39261ffff1690565b610208906107976114ce6100f39460ff1690565b6128429063ffffffff166114ce565b019063ffffffff821161081957565b6128609063ffffffff166114ce565b90039063ffffffff821161081957565b61287c9060ff16610805565b019060ff821161081957565b6102086100f36100f39260ff1690565b6128a26008610755565b6128af6125c082856124ee565b80926128ba8561251c565b9260028201906128cd6125e48584612540565b956001966128da88610772565b906128ee826128e98a8261077f565b610e25565b1690819660009261290161079385610772565b111561294357505050505050506100f39392610b1e611fe361293d9461293261292c61293896612fec565b94610755565b90612870565b612888565b90612851565b9295995092955092955061296e61295d61260f878461254a565b9161296860ff6127a8565b16612566565b92878901916129806125e48285612587565b61298e856128e9888261077f565b16938461299d61079385610772565b1115612a1257505050506100f39650612a0693612a016129fb6129f66125e46129ef61293d9a986129e96129e48e610b1e611fe3612a0c9d61293261292c612a069f612fec565b6127a8565b906127f3565b8098612540565b612fec565b9461280e565b61281f565b91610723565b90612833565b9195509250612a3c93506128e9612a2e86612a35949b016101f9565b938261077f565b1691610772565b811115612aed57612a0c612a0683612a01612ae8612ade6129f66125e461293d9a612ad8612ad26100f39f8f612ac6612a069f829f90612abb6129e4612acc96610b1e612ab56129f66125e4612a9c612a97612ac09a612fec565b610755565b94612aaf612aa98d610755565b876107fd565b90612587565b97610755565b6127b8565b916127cc565b906127d9565b9b6127cc565b8b6127f3565b90612540565b956129e98a6127cc565b61280e565b505050505063ffffffff90565b90612b056008610755565b91612b136125c084846124ee565b906128e982612b218561251c565b956002840191612b346125e48785612540565b95600196612b66612b62612b50612b4a8b610755565b8d612870565b612b598b610772565b9889918261077f565b1990565b1695600087612b7761079383610772565b1115612ba657505050505050506100f393612ba1612a0c93610b1e611fe3612a976129389661322a565b6107fd565b929599509281612bbc929598995081975061254a565b612bc590612566565b92612bd060ff6127a8565b16612bda90612566565b9287830198612be9828b612587565b612bf2906101f9565b81612bfc8b610755565b612c069088612870565b612c10908261077f565b90612c1a91610e25565b19169384612c2785610772565b1015612c7457505050506100f39650612a0693612a016129fb612c6f6125e46129ef61293d9a98612ac66129e4612a0c9a8f612ba190610b1e611fe3612a97612a069f61322a565b61322a565b839650612ca69550612b62929450612ca0612c96612a35956128e993016101f9565b956129328c610755565b8261077f565b811115612aed57612a0c612a0683612a01612ae8612ade612c6f6125e461293d9a612ad8612ad26100f39f8f612ac6612a069f829f90612abb6129e4612acc96610b1e612ab5612c6f6125e4612a9c612a97612ac09a61322a565b612d13906001600160a01b031661235f565b01906001600160a01b03821161081957565b949293909193612d33600090565b506000908215612e0457612d5d87612d5788612d52600160601b61079c565b612351565b8661345f565b851015612da757505015612d8e57612d8a90612d84612d7d8483886134c5565b80926123c9565b93612d01565b9293565b612d8a906123be85612da08584613490565b809361345f565b95929493505015612de257612dd1612dc9612dd793612d52600160601b61079c565b91828561345f565b926123c9565b90612d8a600061079c565b612df691612df081856123c9565b9361345f565b90612d8a600160601b61079c565b612e0e86856123c9565b612d5d565b60208082526100f39291019061271b565b6127946127a36100dd92612e3760405190565b63104c13eb60e21b602082015292839160248301612e13565b6103576100dd94610958612e76606095999896996080860190868203600088015261271b565b986020850152565b6127946100dd946127a39394612e9360405190565b63a7a8785360e01b602082015295869460248601612e50565b9192919060009060001981840992818102938480821091030392612ed06000610772565b8414612fd25786841015612fae5792866100f3969793612f1a93612f2d965009808603951090036001612f07841961049383610772565b8416808095049604938060000304010290565b1791612f2d612f3182612f2d6003610772565b0290565b612f62612fa8612fa2612f93612f84612f75612f66600297612f5289610772565b18612f2d8b8202612f628b610772565b0390565b612f2d8a8202612f628a610772565b612f2d898202612f6289610772565b612f2d888202612f6288610772565b612f2d878202612f6287610772565b80950290565b91610772565b8684610bbc612fbc60405190565b631dcf306360e21b815292839260048401610344565b50505050916100f39192611bf7565b6100dd906001613522565b9060008092613004612ffe607f610755565b82611bc8565b9160009261301461079385610772565b036131dd575b50613028612ffe603f610755565b61303461079384610772565b036131bb575b613047612ffe601f610755565b61305361079384610772565b03613199575b613066612ffe600f610755565b61307261079384610772565b03613177575b613085612ffe6007610755565b61309161079384610772565b03613155575b6130a4612ffe6003610755565b6130b061079384610772565b03613133575b6130c06001610755565b916130cb8383611bc8565b6130d761079383610772565b0361310a575b6130e690610772565b81036130f0575050565b6100f39293916130ff91611bc8565b50611f9b6001610772565b939061312b6131206130e692611fe96002610755565b92611f9b6002610772565b9490506130dd565b61314461314f91611fe96004610755565b93611f9b6004610772565b926130b6565b61316661317191611fe96008610755565b93611f9b6008610772565b92613097565b61318861319391611fe96010610755565b93611f9b6010610772565b92613078565b6131aa6131b591611fe96020610755565b93611f9b6020610772565b92613059565b6131cc6131d791611fe96040610755565b93611f9b6040610772565b9261303a565b93506131f06131fb91611fe96080610755565b93611f9b6080610772565b923861301a565b6100f36100f36100f39267ffffffffffffffff1690565b6100f36100f36100f39261ffff1690565b6100f390600090816132426001600160801b036122e2565b82169260009361325461079386610772565b1115613449575061326990611f9b6080610772565b61327a67ffffffffffffffff613202565b821661328861079385610772565b11156134345761329c90611f9b6040610772565b6132a963ffffffff610dcf565b82166132b761079385610772565b111561341f576132cb90611f9b6020610772565b6132d661ffff613219565b82166132e461079385610772565b111561340a576132f890611f9b6010610772565b61330260ff611c10565b821661331061079385610772565b11156133f55761332490611f9b6008610772565b61332e600f610772565b821661333c61079385610772565b11156133e05761335090611f9b6004610772565b61335a6003610772565b821661336861079385610772565b11156133ca5761337c90611f9b6002610772565b915b61339661079361338e6001610772565b841692610772565b11156133b657506133ab90611f9b6001610772565b6128e9610100610772565b6133c490611fe96001610755565b506133ab565b91906133da90611fe96002610755565b9061337e565b906133ef90611fe96004610755565b90613350565b9061340490611fe96008610755565b90613324565b9061341990611fe96010610755565b906132f8565b9061342e90611fe96020610755565b906132cb565b9061344390611fe96040610755565b9061329c565b916134599150611fe96080610755565b90613269565b9061234b61347661230d6100f39594612307600090565b9161237f565b61019a906107976108966100f39460ff1690565b6100f391610b33916134bf6134ba6134a6610768565b6134b481610b2e6001610772565b9361347c565b6122e2565b91612eac565b6100f3926134bf6134ba610b33946134db600090565b506134e4610768565b9061347c565b600080916135006a636f6e736f6c652e6c6f6790565b602082519201905afa50565b634e487b7160e01b600052605160045260246000fd5b60010361350c576100dd906134ea56fea2646970667358221220c39d3c64b2cb966816f0357809809f4eb158e8c07da3282c4e726b955b0a2dda64736f6c63430008180033","opcodes":"PUSH1 0xC0 PUSH1 0x40 MSTORE CALLVALUE PUSH3 0x46 JUMPI PUSH3 0x22 PUSH3 0x18 PUSH3 0x13E JUMP JUMPDEST SWAP3 SWAP2 SWAP1 SWAP2 PUSH3 0x23E JUMP JUMPDEST PUSH1 0x40 MLOAD PUSH2 0x3568 PUSH3 0x277 DUP3 CODECOPY PUSH1 0x80 MLOAD DUP2 PUSH2 0x157 ADD MSTORE PUSH1 0xA0 MLOAD DUP2 PUSH2 0x5BD ADD MSTORE PUSH2 0x3568 SWAP1 RETURN JUMPDEST PUSH1 0x0 DUP1 REVERT JUMPDEST PUSH4 0x4E487B71 PUSH1 0xE0 SHL PUSH1 0x0 MSTORE PUSH1 0x41 PUSH1 0x4 MSTORE PUSH1 0x24 PUSH1 0x0 REVERT JUMPDEST SWAP1 PUSH1 0x1F ADD PUSH1 0x1F NOT AND DUP2 ADD SWAP1 DUP2 LT PUSH1 0x1 PUSH1 0x1 PUSH1 0x40 SHL SUB DUP3 GT OR PUSH3 0x83 JUMPI PUSH1 0x40 MSTORE JUMP JUMPDEST PUSH3 0x4B JUMP JUMPDEST SWAP1 PUSH3 0xA0 PUSH3 0x98 PUSH1 0x40 MLOAD SWAP1 JUMP JUMPDEST SWAP3 DUP4 PUSH3 0x61 JUMP JUMPDEST JUMP JUMPDEST SWAP1 JUMP JUMPDEST PUSH1 0x1 PUSH1 0x1 PUSH1 0xA0 SHL SUB DUP2 AND JUMPDEST SUB PUSH3 0x46 JUMPI JUMP JUMPDEST SWAP1 POP MLOAD SWAP1 PUSH3 0xA0 DUP3 PUSH3 0xA5 JUMP JUMPDEST DUP1 PUSH3 0xB0 JUMP JUMPDEST SWAP1 POP MLOAD SWAP1 PUSH3 0xA0 DUP3 PUSH3 0xC7 JUMP JUMPDEST PUSH4 0xFFFFFFFF DUP2 AND PUSH3 0xB0 JUMP JUMPDEST SWAP1 POP MLOAD SWAP1 PUSH3 0xA0 DUP3 PUSH3 0xDD JUMP JUMPDEST PUSH1 0x80 DUP2 DUP4 SUB SLT PUSH3 0x46 JUMPI PUSH3 0x110 DUP3 DUP3 PUSH3 0xB8 JUMP JUMPDEST SWAP3 PUSH3 0xA2 PUSH3 0x124 DUP5 PUSH1 0x20 DUP6 ADD PUSH3 0xB8 JUMP JUMPDEST SWAP4 PUSH1 0x60 PUSH3 0x136 DUP3 PUSH1 0x40 DUP8 ADD PUSH3 0xCE JUMP JUMPDEST SWAP5 ADD PUSH3 0xEA JUMP JUMPDEST PUSH3 0x161 PUSH3 0x37DF DUP1 CODESIZE SUB DUP1 PUSH3 0x155 DUP2 PUSH3 0x89 JUMP JUMPDEST SWAP3 DUP4 CODECOPY DUP2 ADD SWAP1 PUSH3 0xF9 JUMP JUMPDEST SWAP1 SWAP2 SWAP3 SWAP4 JUMP JUMPDEST PUSH3 0xA2 PUSH1 0x40 PUSH3 0x89 JUMP JUMPDEST SWAP1 PUSH1 0x0 NOT SWAP1 JUMPDEST SWAP2 DUP2 NOT AND SWAP2 AND OR SWAP1 JUMP JUMPDEST PUSH3 0xA2 PUSH3 0xA2 PUSH3 0xA2 SWAP3 SWAP1 JUMP JUMPDEST SWAP1 PUSH3 0x1A7 PUSH3 0xA2 PUSH3 0x1AF SWAP3 PUSH3 0x183 JUMP JUMPDEST DUP3 SLOAD PUSH3 0x173 JUMP JUMPDEST SWAP1 SSTORE JUMP JUMPDEST SWAP1 PUSH4 0xFFFFFFFF SWAP1 PUSH3 0x179 JUMP JUMPDEST PUSH3 0x1D6 PUSH3 0xA2 PUSH3 0xA2 SWAP3 PUSH4 0xFFFFFFFF AND SWAP1 JUMP JUMPDEST PUSH4 0xFFFFFFFF AND SWAP1 JUMP JUMPDEST SWAP1 PUSH3 0x1F3 PUSH3 0xA2 PUSH3 0x1AF SWAP3 PUSH3 0x1C0 JUMP JUMPDEST DUP3 SLOAD PUSH3 0x1B3 JUMP JUMPDEST PUSH1 0x1 PUSH3 0x22A PUSH1 0x20 PUSH3 0xA0 SWAP5 PUSH3 0x21F PUSH3 0x218 PUSH1 0x0 DUP4 ADD MLOAD SWAP1 JUMP JUMPDEST DUP7 PUSH3 0x193 JUMP JUMPDEST ADD MLOAD PUSH4 0xFFFFFFFF AND SWAP1 JUMP JUMPDEST SWAP2 ADD PUSH3 0x1DF JUMP JUMPDEST SWAP1 PUSH3 0xA0 SWAP2 PUSH3 0x1FB JUMP JUMPDEST PUSH1 0x80 MSTORE PUSH1 0xA0 MSTORE PUSH3 0xA0 SWAP2 PUSH3 0x26E SWAP1 PUSH3 0x261 PUSH3 0x25C PUSH3 0x167 JUMP JUMPDEST SWAP4 DUP5 MSTORE JUMP JUMPDEST PUSH4 0xFFFFFFFF AND PUSH1 0x20 DUP4 ADD MSTORE JUMP JUMPDEST PUSH1 0x7 PUSH3 0x232 JUMP INVALID PUSH2 0x1C0 PUSH1 0x40 MSTORE PUSH1 0x4 CALLDATASIZE LT ISZERO PUSH2 0x13 JUMPI PUSH1 0x0 DUP1 REVERT JUMPDEST PUSH1 0x0 CALLDATALOAD PUSH1 0xE0 SHR DUP1 PUSH4 0x1FFC9A7 EQ PUSH2 0xB3 JUMPI DUP1 PUSH4 0xDFE1681 EQ PUSH2 0xAE JUMPI DUP1 PUSH4 0x1A686502 EQ PUSH2 0xA9 JUMPI DUP1 PUSH4 0x1A88BC66 EQ PUSH2 0xA4 JUMPI DUP1 PUSH4 0x428716F8 EQ PUSH2 0x9F JUMPI DUP1 PUSH4 0xBC197C81 EQ PUSH2 0x9A JUMPI DUP1 PUSH4 0xD21220A7 EQ PUSH2 0x95 JUMPI DUP1 PUSH4 0xD456B5DD EQ PUSH2 0x90 JUMPI DUP1 PUSH4 0xDD42D4C6 EQ PUSH2 0x8B JUMPI PUSH4 0xF23A6E61 SUB PUSH2 0xCB JUMPI PUSH2 0x6CA JUMP JUMPDEST PUSH2 0x66D JUMP JUMPDEST PUSH2 0x60C JUMP JUMPDEST PUSH2 0x5A8 JUMP JUMPDEST PUSH2 0x56E JUMP JUMPDEST PUSH2 0x35B JUMP JUMPDEST PUSH2 0x230 JUMP JUMPDEST PUSH2 0x1BD JUMP JUMPDEST PUSH2 0x142 JUMP JUMPDEST PUSH2 0xFA JUMP JUMPDEST PUSH1 0x1 PUSH1 0x1 PUSH1 0xE0 SHL SUB NOT DUP2 AND JUMPDEST SUB PUSH2 0xCB JUMPI JUMP JUMPDEST PUSH1 0x0 DUP1 REVERT JUMPDEST SWAP1 POP CALLDATALOAD SWAP1 PUSH2 0xDD DUP3 PUSH2 0xB8 JUMP JUMPDEST JUMP JUMPDEST SWAP1 PUSH1 0x20 DUP3 DUP3 SUB SLT PUSH2 0xCB JUMPI PUSH2 0xF3 SWAP2 PUSH2 0xD0 JUMP JUMPDEST SWAP1 JUMP JUMPDEST SWAP1 MSTORE JUMP JUMPDEST CALLVALUE PUSH2 0xCB JUMPI PUSH2 0x127 PUSH2 0x115 PUSH2 0x110 CALLDATASIZE PUSH1 0x4 PUSH2 0xDF JUMP JUMPDEST PUSH2 0x6E9 JUMP JUMPDEST PUSH1 0x40 MLOAD SWAP2 DUP3 SWAP2 DUP3 SWAP1 ISZERO ISZERO DUP2 MSTORE PUSH1 0x20 ADD SWAP1 JUMP JUMPDEST SUB SWAP1 RETURN JUMPDEST PUSH1 0x0 SWAP2 SUB SLT PUSH2 0xCB JUMPI JUMP JUMPDEST PUSH1 0x1 PUSH1 0x1 PUSH1 0xA0 SHL SUB AND SWAP1 JUMP JUMPDEST CALLVALUE PUSH2 0xCB JUMPI PUSH2 0x152 CALLDATASIZE PUSH1 0x4 PUSH2 0x12B JUMP JUMPDEST PUSH2 0x127 PUSH32 0x0 JUMPDEST PUSH1 0x40 MLOAD SWAP2 DUP3 SWAP2 DUP3 PUSH1 0x1 PUSH1 0x1 PUSH1 0xA0 SHL SUB SWAP1 SWAP2 AND DUP2 MSTORE PUSH1 0x20 ADD SWAP1 JUMP JUMPDEST PUSH2 0xF3 SWAP2 PUSH1 0x8 MUL SHR JUMPDEST PUSH1 0x1 PUSH1 0x1 PUSH1 0x80 SHL SUB AND SWAP1 JUMP JUMPDEST SWAP1 PUSH2 0xF3 SWAP2 SLOAD PUSH2 0x191 JUMP JUMPDEST PUSH2 0xF3 PUSH1 0x0 PUSH1 0x5 PUSH2 0x1A6 JUMP JUMPDEST CALLVALUE PUSH2 0xCB JUMPI PUSH2 0x1CD CALLDATASIZE PUSH1 0x4 PUSH2 0x12B JUMP JUMPDEST PUSH2 0x127 PUSH2 0x1D8 PUSH2 0x1B1 JUMP JUMPDEST PUSH1 0x40 MLOAD SWAP2 DUP3 SWAP2 DUP3 PUSH1 0x1 PUSH1 0x1 PUSH1 0x80 SHL SUB SWAP1 SWAP2 AND DUP2 MSTORE PUSH1 0x20 ADD SWAP1 JUMP JUMPDEST PUSH2 0xF3 SWAP1 DUP2 JUMP JUMPDEST PUSH2 0xF3 SWAP1 SLOAD PUSH2 0x1F2 JUMP JUMPDEST PUSH2 0xF3 SWAP1 JUMPDEST PUSH4 0xFFFFFFFF AND SWAP1 JUMP JUMPDEST PUSH2 0xF3 SWAP1 SLOAD PUSH2 0x203 JUMP JUMPDEST PUSH2 0x225 PUSH1 0x7 PUSH2 0x1F9 JUMP JUMPDEST SWAP1 PUSH2 0xF3 PUSH1 0x8 PUSH2 0x211 JUMP JUMPDEST CALLVALUE PUSH2 0xCB JUMPI PUSH2 0x240 CALLDATASIZE PUSH1 0x4 PUSH2 0x12B JUMP JUMPDEST PUSH2 0x248 PUSH2 0x21B JUMP JUMPDEST SWAP1 PUSH2 0x127 PUSH2 0x255 PUSH1 0x40 MLOAD SWAP1 JUMP JUMPDEST SWAP3 DUP4 SWAP3 DUP4 SWAP1 DUP2 MSTORE PUSH4 0xFFFFFFFF SWAP1 SWAP2 AND PUSH1 0x20 DUP3 ADD MSTORE PUSH1 0x40 ADD SWAP1 JUMP JUMPDEST PUSH1 0x1 PUSH1 0x1 PUSH1 0xA0 SHL SUB DUP2 AND PUSH2 0xC4 JUMP JUMPDEST SWAP1 POP CALLDATALOAD SWAP1 PUSH2 0xDD DUP3 PUSH2 0x26F JUMP JUMPDEST PUSH4 0xFFFFFFFF DUP2 AND PUSH2 0xC4 JUMP JUMPDEST SWAP1 POP CALLDATALOAD SWAP1 PUSH2 0xDD DUP3 PUSH2 0x28B JUMP JUMPDEST PUSH1 0x1 PUSH1 0x1 PUSH1 0x80 SHL SUB DUP2 AND PUSH2 0xC4 JUMP JUMPDEST SWAP1 POP CALLDATALOAD SWAP1 PUSH2 0xDD DUP3 PUSH2 0x2A4 JUMP JUMPDEST SWAP1 SWAP2 DUP3 PUSH1 0x1F DUP4 ADD SLT ISZERO PUSH2 0xCB JUMPI DUP2 CALLDATALOAD SWAP2 PUSH8 0xFFFFFFFFFFFFFFFF DUP4 GT PUSH2 0xCB JUMPI PUSH1 0x20 ADD SWAP3 PUSH1 0x1 DUP4 MUL DUP5 ADD GT PUSH2 0xCB JUMPI JUMP JUMPDEST SWAP1 PUSH1 0x80 DUP3 DUP3 SUB SLT PUSH2 0xCB JUMPI PUSH2 0x305 DUP2 DUP4 PUSH2 0x27E JUMP JUMPDEST SWAP3 PUSH2 0x313 DUP3 PUSH1 0x20 DUP6 ADD PUSH2 0x297 JUMP JUMPDEST SWAP3 PUSH2 0x321 DUP4 PUSH1 0x40 DUP4 ADD PUSH2 0x2B3 JUMP JUMPDEST SWAP3 PUSH1 0x60 DUP3 ADD CALLDATALOAD PUSH8 0xFFFFFFFFFFFFFFFF DUP2 GT PUSH2 0xCB JUMPI PUSH2 0x340 SWAP3 ADD PUSH2 0x2C0 JUMP JUMPDEST SWAP1 SWAP2 JUMP JUMPDEST SWAP1 DUP2 MSTORE PUSH1 0x40 DUP2 ADD SWAP3 SWAP2 PUSH2 0xDD SWAP2 PUSH1 0x20 ADD MSTORE JUMP JUMPDEST ADD MSTORE JUMP JUMPDEST CALLVALUE PUSH2 0xCB JUMPI PUSH2 0x377 PUSH2 0x36E CALLDATASIZE PUSH1 0x4 PUSH2 0x2F0 JUMP JUMPDEST SWAP4 SWAP3 SWAP1 SWAP3 PUSH2 0x978 JUMP JUMPDEST SWAP1 PUSH2 0x127 PUSH2 0x384 PUSH1 0x40 MLOAD SWAP1 JUMP JUMPDEST SWAP3 DUP4 SWAP3 DUP4 PUSH2 0x344 JUMP JUMPDEST PUSH4 0x4E487B71 PUSH1 0xE0 SHL PUSH1 0x0 MSTORE PUSH1 0x41 PUSH1 0x4 MSTORE PUSH1 0x24 PUSH1 0x0 REVERT JUMPDEST SWAP1 PUSH1 0x1F ADD PUSH1 0x1F NOT AND DUP2 ADD SWAP1 DUP2 LT PUSH8 0xFFFFFFFFFFFFFFFF DUP3 GT OR PUSH2 0x3C5 JUMPI PUSH1 0x40 MSTORE JUMP JUMPDEST PUSH2 0x38D JUMP JUMPDEST SWAP1 PUSH2 0xDD PUSH2 0x3D7 PUSH1 0x40 MLOAD SWAP1 JUMP JUMPDEST SWAP3 DUP4 PUSH2 0x3A3 JUMP JUMPDEST PUSH8 0xFFFFFFFFFFFFFFFF DUP2 GT PUSH2 0x3C5 JUMPI PUSH1 0x20 DUP1 SWAP2 MUL ADD SWAP1 JUMP JUMPDEST DUP1 PUSH2 0xC4 JUMP JUMPDEST SWAP1 POP CALLDATALOAD SWAP1 PUSH2 0xDD DUP3 PUSH2 0x3F6 JUMP JUMPDEST SWAP1 SWAP3 SWAP2 SWAP3 PUSH2 0x41E PUSH2 0x419 DUP3 PUSH2 0x3DE JUMP JUMPDEST PUSH2 0x3CA JUMP JUMPDEST SWAP4 DUP2 DUP6 MSTORE PUSH1 0x20 DUP1 DUP7 ADD SWAP3 MUL DUP4 ADD SWAP3 DUP2 DUP5 GT PUSH2 0xCB JUMPI SWAP2 JUMPDEST DUP4 DUP4 LT PUSH2 0x442 JUMPI POP POP POP POP JUMP JUMPDEST PUSH1 0x20 DUP1 SWAP2 PUSH2 0x450 DUP5 DUP7 PUSH2 0x3FC JUMP JUMPDEST DUP2 MSTORE ADD SWAP3 ADD SWAP2 PUSH2 0x435 JUMP JUMPDEST SWAP1 DUP1 PUSH1 0x1F DUP4 ADD SLT ISZERO PUSH2 0xCB JUMPI DUP2 PUSH1 0x20 PUSH2 0xF3 SWAP4 CALLDATALOAD SWAP2 ADD PUSH2 0x409 JUMP JUMPDEST PUSH8 0xFFFFFFFFFFFFFFFF DUP2 GT PUSH2 0x3C5 JUMPI PUSH1 0x20 SWAP1 PUSH1 0x1F ADD PUSH1 0x1F NOT AND ADD SWAP1 JUMP JUMPDEST ADD SWAP1 JUMP JUMPDEST SWAP1 DUP3 PUSH1 0x0 SWAP4 SWAP3 DUP3 CALLDATACOPY ADD MSTORE JUMP JUMPDEST SWAP1 SWAP3 SWAP2 SWAP3 PUSH2 0x4B3 PUSH2 0x419 DUP3 PUSH2 0x476 JUMP JUMPDEST SWAP4 DUP2 DUP6 MSTORE DUP2 DUP4 ADD GT PUSH2 0xCB JUMPI PUSH2 0xDD SWAP2 PUSH1 0x20 DUP6 ADD SWAP1 PUSH2 0x497 JUMP JUMPDEST SWAP1 DUP1 PUSH1 0x1F DUP4 ADD SLT ISZERO PUSH2 0xCB JUMPI DUP2 PUSH1 0x20 PUSH2 0xF3 SWAP4 CALLDATALOAD SWAP2 ADD PUSH2 0x4A3 JUMP JUMPDEST SWAP2 SWAP1 SWAP2 PUSH1 0xA0 DUP2 DUP5 SUB SLT PUSH2 0xCB JUMPI PUSH2 0x4FF DUP4 DUP3 PUSH2 0x27E JUMP JUMPDEST SWAP3 PUSH2 0x50D DUP2 PUSH1 0x20 DUP5 ADD PUSH2 0x27E JUMP JUMPDEST SWAP3 PUSH1 0x40 DUP4 ADD CALLDATALOAD PUSH8 0xFFFFFFFFFFFFFFFF DUP2 GT PUSH2 0xCB JUMPI DUP3 PUSH2 0x52E SWAP2 DUP6 ADD PUSH2 0x45B JUMP JUMPDEST SWAP3 PUSH1 0x60 DUP2 ADD CALLDATALOAD PUSH8 0xFFFFFFFFFFFFFFFF DUP2 GT PUSH2 0xCB JUMPI DUP4 PUSH2 0x54F SWAP2 DUP4 ADD PUSH2 0x45B JUMP JUMPDEST SWAP3 PUSH1 0x80 DUP3 ADD CALLDATALOAD PUSH8 0xFFFFFFFFFFFFFFFF DUP2 GT PUSH2 0xCB JUMPI PUSH2 0xF3 SWAP3 ADD PUSH2 0x4CD JUMP JUMPDEST CALLVALUE PUSH2 0xCB JUMPI PUSH2 0x127 PUSH2 0x58D PUSH2 0x584 CALLDATASIZE PUSH1 0x4 PUSH2 0x4E8 JUMP JUMPDEST SWAP4 SWAP3 SWAP1 SWAP3 PUSH2 0xC11 JUMP JUMPDEST PUSH1 0x40 MLOAD SWAP2 DUP3 SWAP2 DUP3 PUSH1 0x1 PUSH1 0x1 PUSH1 0xE0 SHL SUB NOT SWAP1 SWAP2 AND DUP2 MSTORE PUSH1 0x20 ADD SWAP1 JUMP JUMPDEST CALLVALUE PUSH2 0xCB JUMPI PUSH2 0x5B8 CALLDATASIZE PUSH1 0x4 PUSH2 0x12B JUMP JUMPDEST PUSH2 0x127 PUSH32 0x0 PUSH2 0x177 JUMP JUMPDEST PUSH2 0xF3 SWAP2 PUSH1 0x8 MUL SHR PUSH1 0x1 PUSH1 0x1 PUSH1 0xA0 SHL SUB AND SWAP1 JUMP JUMPDEST SWAP1 PUSH2 0xF3 SWAP2 SLOAD PUSH2 0x5E1 JUMP JUMPDEST PUSH2 0xF3 PUSH1 0x0 PUSH1 0x6 PUSH2 0x5F5 JUMP JUMPDEST CALLVALUE PUSH2 0xCB JUMPI PUSH2 0x61C CALLDATASIZE PUSH1 0x4 PUSH2 0x12B JUMP JUMPDEST PUSH2 0x127 PUSH2 0x177 PUSH2 0x600 JUMP JUMPDEST DUP1 ISZERO ISZERO PUSH2 0xC4 JUMP JUMPDEST SWAP1 POP CALLDATALOAD SWAP1 PUSH2 0xDD DUP3 PUSH2 0x627 JUMP JUMPDEST SWAP1 PUSH1 0x80 DUP3 DUP3 SUB SLT PUSH2 0xCB JUMPI PUSH2 0x651 DUP2 DUP4 PUSH2 0x3FC JUMP JUMPDEST SWAP3 PUSH2 0x65F DUP3 PUSH1 0x20 DUP6 ADD PUSH2 0x3FC JUMP JUMPDEST SWAP3 PUSH2 0x321 DUP4 PUSH1 0x40 DUP4 ADD PUSH2 0x62F JUMP JUMPDEST CALLVALUE PUSH2 0xCB JUMPI PUSH2 0x377 PUSH2 0x680 CALLDATASIZE PUSH1 0x4 PUSH2 0x63C JUMP JUMPDEST SWAP4 SWAP3 SWAP1 SWAP3 PUSH2 0x1181 JUMP JUMPDEST SWAP2 SWAP1 SWAP2 PUSH1 0xA0 DUP2 DUP5 SUB SLT PUSH2 0xCB JUMPI PUSH2 0x6A0 DUP4 DUP3 PUSH2 0x27E JUMP JUMPDEST SWAP3 PUSH2 0x6AE DUP2 PUSH1 0x20 DUP5 ADD PUSH2 0x27E JUMP JUMPDEST SWAP3 PUSH2 0x6BC DUP3 PUSH1 0x40 DUP6 ADD PUSH2 0x3FC JUMP JUMPDEST SWAP3 PUSH2 0x54F DUP4 PUSH1 0x60 DUP4 ADD PUSH2 0x3FC JUMP JUMPDEST CALLVALUE PUSH2 0xCB JUMPI PUSH2 0x127 PUSH2 0x58D PUSH2 0x6E0 CALLDATASIZE PUSH1 0x4 PUSH2 0x689 JUMP JUMPDEST SWAP4 SWAP3 SWAP1 SWAP3 PUSH2 0x1A63 JUMP JUMPDEST PUSH4 0x2711897 PUSH1 0xE5 SHL PUSH1 0x1 PUSH1 0x1 PUSH1 0xE0 SHL SUB NOT DUP3 AND EQ SWAP1 DUP2 ISZERO PUSH2 0x708 JUMPI POP SWAP1 JUMP JUMPDEST PUSH2 0xF3 SWAP2 POP PUSH1 0x1 PUSH1 0x1 PUSH1 0xE0 SHL SUB NOT AND PUSH4 0x1FFC9A7 PUSH1 0xE0 SHL EQ SWAP1 JUMP JUMPDEST PUSH2 0x208 PUSH2 0xF3 PUSH2 0xF3 SWAP3 SWAP1 JUMP JUMPDEST PUSH2 0xF3 PUSH3 0x8D89E8 PUSH2 0x723 JUMP JUMPDEST PUSH2 0xF3 PUSH3 0x727618 PUSH2 0x723 JUMP JUMPDEST PUSH2 0x19A PUSH2 0xF3 PUSH2 0xF3 SWAP3 SWAP1 JUMP JUMPDEST PUSH2 0x762 PUSH2 0xF3 PUSH2 0xF3 SWAP3 SWAP1 JUMP JUMPDEST PUSH1 0xFF AND SWAP1 JUMP JUMPDEST PUSH2 0xF3 PUSH1 0x60 PUSH2 0x755 JUMP JUMPDEST PUSH2 0xF3 PUSH2 0xF3 PUSH2 0xF3 SWAP3 SWAP1 JUMP JUMPDEST PUSH2 0xF3 SWAP1 PUSH2 0x797 PUSH2 0x793 PUSH2 0xF3 SWAP5 PUSH1 0xFF AND SWAP1 JUMP JUMPDEST SWAP2 SWAP1 JUMP JUMPDEST SWAP1 SHL SWAP1 JUMP JUMPDEST PUSH2 0x136 PUSH2 0xF3 PUSH2 0xF3 SWAP3 SWAP1 JUMP JUMPDEST PUSH2 0x208 PUSH2 0xF3 PUSH2 0xF3 SWAP3 PUSH4 0xFFFFFFFF AND SWAP1 JUMP JUMPDEST SWAP1 PUSH2 0x7C6 SWAP1 PUSH2 0x7A9 JUMP JUMPDEST PUSH1 0x0 MSTORE PUSH1 0x20 MSTORE PUSH1 0x40 PUSH1 0x0 KECCAK256 SWAP1 JUMP JUMPDEST PUSH2 0xF3 SWAP1 PUSH2 0x762 JUMP JUMPDEST PUSH2 0xF3 SWAP1 SLOAD PUSH2 0x7D4 JUMP JUMPDEST PUSH4 0x4E487B71 PUSH1 0xE0 SHL PUSH1 0x0 MSTORE PUSH1 0x11 PUSH1 0x4 MSTORE PUSH1 0x24 PUSH1 0x0 REVERT JUMPDEST PUSH2 0x80C SWAP1 PUSH1 0xFF AND JUMPDEST SWAP2 PUSH1 0xFF AND SWAP1 JUMP JUMPDEST SWAP1 SUB SWAP1 PUSH1 0xFF DUP3 GT PUSH2 0x819 JUMPI JUMP JUMPDEST PUSH2 0x7E7 JUMP JUMPDEST SWAP1 PUSH1 0x1 PUSH1 0x1 PUSH1 0xA0 SHL SUB SWAP1 JUMPDEST SWAP2 DUP2 NOT AND SWAP2 AND OR SWAP1 JUMP JUMPDEST PUSH2 0xF3 SWAP1 PUSH2 0x136 SWAP1 PUSH1 0x1 PUSH1 0x1 PUSH1 0xA0 SHL SUB AND DUP3 JUMP JUMPDEST SWAP1 PUSH2 0x857 PUSH2 0xF3 PUSH2 0x85E SWAP3 PUSH2 0x833 JUMP JUMPDEST DUP3 SLOAD PUSH2 0x81E JUMP JUMPDEST SWAP1 SSTORE JUMP JUMPDEST PUSH2 0xF3 SWAP1 PUSH2 0x136 JUMP JUMPDEST PUSH2 0xF3 SWAP1 SLOAD PUSH2 0x862 JUMP JUMPDEST PUSH2 0xF3 SWAP1 PUSH2 0x19A JUMP JUMPDEST PUSH2 0xF3 SWAP1 SLOAD PUSH2 0x875 JUMP JUMPDEST PUSH2 0x8A3 SWAP1 PUSH1 0x1 PUSH1 0x1 PUSH1 0x80 SHL SUB AND JUMPDEST SWAP2 PUSH1 0x1 PUSH1 0x1 PUSH1 0x80 SHL SUB AND SWAP1 JUMP JUMPDEST ADD SWAP1 PUSH1 0x1 PUSH1 0x1 PUSH1 0x80 SHL SUB DUP3 GT PUSH2 0x819 JUMPI JUMP JUMPDEST SWAP1 PUSH1 0x1 PUSH1 0x1 PUSH1 0x80 SHL SUB SWAP1 PUSH2 0x829 JUMP JUMPDEST PUSH2 0x19A PUSH2 0xF3 PUSH2 0xF3 SWAP3 PUSH1 0x1 PUSH1 0x1 PUSH1 0x80 SHL SUB AND SWAP1 JUMP JUMPDEST SWAP1 PUSH2 0x8EA PUSH2 0xF3 PUSH2 0x85E SWAP3 PUSH2 0x8C4 JUMP JUMPDEST DUP3 SLOAD PUSH2 0x8B5 JUMP JUMPDEST PUSH2 0xF3 SWAP1 PUSH2 0x833 JUMP JUMPDEST PUSH2 0xF3 SWAP1 PUSH2 0x8F1 JUMP JUMPDEST SWAP2 SWAP1 PUSH2 0x921 DUP2 PUSH2 0x91A DUP2 PUSH2 0x493 SWAP6 PUSH1 0x20 SWAP2 DUP2 MSTORE ADD SWAP1 JUMP JUMPDEST DUP1 SWAP6 PUSH2 0x497 JUMP JUMPDEST PUSH1 0x1F ADD PUSH1 0x1F NOT AND SWAP1 JUMP JUMPDEST SWAP1 SWAP4 SWAP2 PUSH2 0xF3 SWAP6 SWAP4 PUSH2 0x958 PUSH2 0x95F SWAP3 PUSH2 0x951 PUSH1 0x80 DUP7 ADD SWAP9 PUSH1 0x0 DUP8 ADD SWAP1 PUSH4 0xFFFFFFFF AND SWAP1 MSTORE JUMP JUMPDEST PUSH1 0x20 DUP6 ADD MSTORE JUMP JUMPDEST PUSH1 0x40 DUP4 ADD MSTORE JUMP JUMPDEST PUSH1 0x60 DUP2 DUP6 SUB SWAP2 ADD MSTORE PUSH2 0x903 JUMP JUMPDEST PUSH1 0x40 MLOAD RETURNDATASIZE PUSH1 0x0 DUP3 RETURNDATACOPY RETURNDATASIZE SWAP1 REVERT JUMPDEST SWAP4 SWAP5 SWAP3 SWAP1 PUSH1 0x0 SWAP6 DUP7 SWAP4 PUSH2 0x98C PUSH2 0x208 PUSH2 0x730 JUMP JUMPDEST PUSH4 0xFFFFFFFF DUP5 AND GT DUP1 ISZERO PUSH2 0xBD2 JUMPI JUMPDEST PUSH2 0xBC0 JUMPI PUSH1 0x0 SWAP5 PUSH2 0x9AB DUP7 PUSH2 0x748 JUMP JUMPDEST PUSH1 0x1 PUSH1 0x1 PUSH1 0x80 SHL SUB DUP4 AND EQ PUSH2 0xBAA JUMPI PUSH2 0x9C4 PUSH1 0x8 PUSH2 0x211 JUMP JUMPDEST SWAP9 PUSH2 0x9CE DUP6 PUSH2 0x1C20 JUMP JUMPDEST SWAP10 PUSH4 0xFFFFFFFF DUP2 AND PUSH4 0xFFFFFFFF DUP8 AND SUB PUSH2 0xB46 JUMPI POP POP POP PUSH2 0x9F9 DUP6 PUSH2 0x9F3 DUP6 DUP3 PUSH2 0x7BC JUMP JUMPDEST ADD PUSH2 0x7DD JUMP JUMPDEST ISZERO PUSH2 0xAF1 JUMPI PUSH2 0xA60 SWAP1 PUSH2 0xA5B DUP5 PUSH2 0xA26 PUSH2 0xA1F PUSH2 0xA16 PUSH1 0x6 PUSH2 0x86B JUMP JUMPDEST SWAP13 JUMPDEST DUP14 DUP7 PUSH2 0x2391 JUMP JUMPDEST SWAP12 DUP5 PUSH2 0x23C9 JUMP JUMPDEST SWAP10 PUSH2 0xA44 PUSH2 0xA3D DUP6 PUSH2 0xA38 PUSH1 0x5 PUSH2 0x87E JUMP JUMPDEST PUSH2 0x888 JUMP JUMPDEST PUSH1 0x5 PUSH2 0x8DA JUMP JUMPDEST PUSH2 0xA4F DUP5 DUP4 DUP12 PUSH2 0x2455 JUMP JUMPDEST PUSH2 0xAE1 JUMPI JUMPDEST PUSH1 0x1 PUSH2 0x2697 JUMP JUMPDEST PUSH2 0x26E1 JUMP JUMPDEST PUSH2 0xA71 PUSH2 0xA6C CALLER PUSH2 0x8FA JUMP JUMPDEST PUSH2 0x8FA JUMP JUMPDEST DUP1 EXTCODESIZE ISZERO PUSH2 0xCB JUMPI DUP8 DUP6 DUP1 SWAP5 PUSH2 0xAA4 DUP11 SWAP6 PUSH2 0xA8A PUSH1 0x40 MLOAD SWAP1 JUMP JUMPDEST SWAP9 DUP10 SWAP8 DUP9 SWAP7 DUP8 SWAP6 PUSH4 0x63439A55 PUSH1 0xE0 SHL DUP8 MSTORE PUSH1 0x4 DUP8 ADD PUSH2 0x92B JUMP JUMPDEST SUB SWAP3 GAS CALL DUP1 ISZERO PUSH2 0xADC JUMPI PUSH2 0xAB6 JUMPI POP POP JUMP JUMPDEST DUP2 PUSH2 0xDD SWAP3 SWAP1 RETURNDATASIZE LT PUSH2 0xAD5 JUMPI JUMPDEST PUSH2 0xACD DUP2 DUP4 PUSH2 0x3A3 JUMP JUMPDEST DUP2 ADD SWAP1 PUSH2 0x12B JUMP JUMPDEST POP RETURNDATASIZE PUSH2 0xAC3 JUMP JUMPDEST PUSH2 0x96C JUMP JUMPDEST PUSH2 0xAEC DUP3 PUSH1 0x2 PUSH2 0x2591 JUMP JUMPDEST PUSH2 0xA54 JUMP JUMPDEST PUSH2 0xA60 SWAP1 PUSH2 0xA5B DUP5 PUSH2 0xA26 PUSH2 0xA1F PUSH2 0xB41 SWAP13 PUSH2 0xB38 PUSH2 0xB33 PUSH2 0xB24 PUSH2 0xB14 PUSH2 0x768 JUMP JUMPDEST PUSH2 0xB1E PUSH1 0x1 PUSH2 0x755 JUMP JUMPDEST SWAP1 PUSH2 0x7FD JUMP JUMPDEST PUSH2 0xB2E PUSH1 0x1 PUSH2 0x772 JUMP JUMPDEST PUSH2 0x77F JUMP JUMPDEST PUSH2 0x79C JUMP JUMPDEST SWAP14 DUP15 PUSH1 0x6 PUSH2 0x847 JUMP JUMPDEST PUSH2 0xA18 JUMP JUMPDEST SWAP9 SWAP10 SWAP2 SWAP9 PUSH4 0xFFFFFFFF AND PUSH4 0xFFFFFFFF DUP7 AND GT ISZERO PUSH2 0xB80 JUMPI POP SWAP1 PUSH2 0xA5B DUP5 PUSH2 0xB7A PUSH2 0xA60 SWAP5 PUSH2 0xB73 DUP11 PUSH2 0x79C JUMP JUMPDEST POP DUP5 PUSH2 0x231B JUMP JUMPDEST SWAP11 PUSH2 0xA44 JUMP JUMPDEST SWAP9 SWAP8 POP POP PUSH2 0xA60 SWAP1 PUSH2 0xB96 PUSH2 0xB33 PUSH2 0xB24 PUSH2 0x768 JUMP JUMPDEST POP PUSH2 0xA5B DUP5 PUSH2 0xBA4 DUP4 PUSH2 0x22F8 JUMP JUMPDEST SWAP10 PUSH2 0xA44 JUMP JUMPDEST PUSH1 0x40 MLOAD PUSH4 0x200E8A9 PUSH1 0xE3 SHL DUP2 MSTORE PUSH1 0x4 SWAP1 REVERT JUMPDEST SUB SWAP1 REVERT JUMPDEST PUSH1 0x40 MLOAD PUSH4 0x3944550F PUSH1 0xE2 SHL DUP2 MSTORE PUSH1 0x4 SWAP1 REVERT JUMPDEST POP PUSH2 0xBDE PUSH2 0x208 PUSH2 0x73C JUMP JUMPDEST PUSH4 0xFFFFFFFF DUP5 AND LT PUSH2 0x99B JUMP JUMPDEST PUSH2 0xC04 PUSH2 0xBFE PUSH2 0xF3 SWAP3 PUSH4 0xFFFFFFFF AND SWAP1 JUMP JUMPDEST PUSH1 0xE0 SHL SWAP1 JUMP JUMPDEST PUSH1 0x1 PUSH1 0x1 PUSH1 0xE0 SHL SUB NOT AND SWAP1 JUMP JUMPDEST POP POP POP POP POP PUSH2 0xC1E PUSH1 0x0 SWAP1 JUMP JUMPDEST POP PUSH2 0xF3 PUSH4 0xBC197C81 PUSH2 0xBEB JUMP JUMPDEST DUP2 DUP2 MUL SWAP3 SWAP2 DUP2 ISZERO SWAP2 DUP5 DIV EQ OR ISZERO PUSH2 0x819 JUMPI JUMP JUMPDEST SWAP2 PUSH1 0x0 NOT PUSH1 0x8 SWAP3 SWAP1 SWAP3 MUL SWAP2 DUP3 SHL SWAP2 SHL PUSH2 0x829 JUMP JUMPDEST SWAP2 SWAP1 PUSH2 0xC64 PUSH2 0xF3 PUSH2 0x85E SWAP4 PUSH2 0x772 JUMP JUMPDEST SWAP1 DUP4 SLOAD PUSH2 0xC3F JUMP JUMPDEST PUSH2 0xDD SWAP2 PUSH1 0x0 SWAP2 PUSH2 0xC53 JUMP JUMPDEST DUP2 DUP2 LT PUSH2 0xC83 JUMPI POP POP JUMP JUMPDEST DUP1 PUSH2 0xC91 PUSH1 0x0 PUSH1 0x1 SWAP4 PUSH2 0xC6C JUMP JUMPDEST ADD PUSH2 0xC78 JUMP JUMPDEST SWAP2 SWAP1 SWAP2 DUP3 DUP3 LT PUSH2 0xCA6 JUMPI POP POP POP JUMP JUMPDEST PUSH2 0xDD SWAP3 SWAP2 PUSH2 0xCBB SWAP1 SWAP2 PUSH1 0x0 MSTORE PUSH1 0x20 PUSH1 0x0 KECCAK256 SWAP1 JUMP JUMPDEST SWAP2 DUP3 ADD SWAP2 ADD PUSH2 0xC78 JUMP JUMPDEST SWAP1 PUSH1 0x1 PUSH1 0x40 SHL DUP2 GT PUSH2 0x3C5 JUMPI DUP2 PUSH2 0xCDD PUSH2 0xDD SWAP4 SLOAD SWAP1 JUMP JUMPDEST SWAP1 DUP3 DUP2 SSTORE PUSH2 0xC97 JUMP JUMPDEST PUSH1 0x0 PUSH2 0xDD SWAP2 PUSH2 0xCC5 JUMP JUMPDEST PUSH4 0x4E487B71 PUSH1 0xE0 SHL PUSH1 0x0 MSTORE PUSH1 0x0 PUSH1 0x4 MSTORE PUSH1 0x24 PUSH1 0x0 REVERT JUMPDEST SWAP1 PUSH1 0x0 SUB PUSH2 0xD18 JUMPI PUSH2 0xDD SWAP1 PUSH2 0xCE6 JUMP JUMPDEST PUSH2 0xCF1 JUMP JUMPDEST PUSH2 0xF3 PUSH1 0x40 PUSH2 0x3CA JUMP JUMPDEST SWAP1 PUSH2 0xDD PUSH2 0xD4F PUSH1 0x1 PUSH2 0xD38 PUSH2 0xD1D JUMP JUMPDEST SWAP5 PUSH2 0xD49 PUSH2 0xD45 DUP3 PUSH2 0x1F9 JUMP JUMPDEST DUP8 MSTORE JUMP JUMPDEST ADD PUSH2 0x211 JUMP JUMPDEST PUSH4 0xFFFFFFFF AND PUSH1 0x20 DUP5 ADD MSTORE JUMP JUMPDEST PUSH2 0xF3 SWAP1 PUSH2 0xD27 JUMP JUMPDEST PUSH2 0xF3 PUSH5 0x1000276A3 PUSH2 0x772 JUMP JUMPDEST PUSH2 0xF3 PUSH20 0xFFFD8963EFD1FC6A506488495D951D5263988D26 PUSH2 0x772 JUMP JUMPDEST PUSH2 0xF3 PUSH1 0xA0 PUSH2 0x3CA JUMP JUMPDEST SWAP1 PUSH2 0xDA7 PUSH2 0x419 DUP4 PUSH2 0x476 JUMP JUMPDEST SWAP2 DUP3 MSTORE JUMP JUMPDEST PUSH2 0xDB6 PUSH1 0x5 PUSH2 0xD9A JUMP JUMPDEST PUSH5 0x62696E203D PUSH1 0xD8 SHL PUSH1 0x20 DUP3 ADD MSTORE SWAP1 JUMP JUMPDEST PUSH2 0xF3 PUSH2 0xDAC JUMP JUMPDEST PUSH2 0xF3 PUSH2 0xF3 PUSH2 0xF3 SWAP3 PUSH4 0xFFFFFFFF AND SWAP1 JUMP JUMPDEST PUSH2 0xF3 PUSH1 0xC0 PUSH2 0x3CA JUMP JUMPDEST PUSH2 0xDF4 PUSH2 0xDE2 JUMP JUMPDEST SWAP1 PUSH1 0x0 DUP3 MSTORE PUSH1 0x20 DUP1 DUP1 DUP1 DUP1 DUP1 DUP8 ADD PUSH1 0x0 DUP2 MSTORE ADD PUSH1 0x0 DUP2 MSTORE ADD PUSH1 0x0 DUP2 MSTORE ADD PUSH1 0x0 DUP2 MSTORE ADD PUSH1 0x0 SWAP1 MSTORE POP JUMP JUMPDEST PUSH2 0xF3 PUSH2 0xDEC JUMP JUMPDEST SWAP2 SWAP1 DUP3 SUB SWAP2 DUP3 GT PUSH2 0x819 JUMPI JUMP JUMPDEST SWAP2 SWAP1 DUP3 ADD DUP1 SWAP3 GT PUSH2 0x819 JUMPI JUMP JUMPDEST PUSH4 0x4E487B71 PUSH1 0xE0 SHL PUSH1 0x0 MSTORE PUSH1 0x32 PUSH1 0x4 MSTORE PUSH1 0x24 PUSH1 0x0 REVERT JUMPDEST DUP1 SLOAD DUP3 LT ISZERO PUSH2 0xE78 JUMPI PUSH2 0xE6F PUSH1 0x1 SWAP2 PUSH1 0x0 MSTORE PUSH1 0x20 PUSH1 0x0 KECCAK256 SWAP1 JUMP JUMPDEST SWAP2 MUL ADD SWAP1 PUSH1 0x0 SWAP1 JUMP JUMPDEST PUSH2 0xE3F JUMP JUMPDEST SWAP1 DUP2 SLOAD SWAP2 PUSH1 0x1 PUSH1 0x40 SHL DUP4 LT ISZERO PUSH2 0x3C5 JUMPI DUP3 PUSH2 0xEA0 SWAP2 PUSH1 0x1 PUSH2 0xDD SWAP6 ADD DUP2 SSTORE PUSH2 0xE55 JUMP JUMPDEST SWAP1 PUSH2 0xC53 JUMP JUMPDEST PUSH2 0xEB0 PUSH1 0x18 PUSH2 0xD9A JUMP JUMPDEST PUSH32 0x446F6E6520506172746C793A206E6F206D6F72652062696E0000000000000000 PUSH1 0x20 DUP3 ADD MSTORE SWAP1 JUMP JUMPDEST PUSH2 0xF3 PUSH2 0xEA6 JUMP JUMPDEST PUSH2 0xEEB PUSH1 0x1E PUSH2 0xD9A JUMP JUMPDEST PUSH32 0x446F6E6520506172746C793A206F7574206F66206C696D697470726963650000 PUSH1 0x20 DUP3 ADD MSTORE SWAP1 JUMP JUMPDEST PUSH2 0xF3 PUSH2 0xEE1 JUMP JUMPDEST PUSH2 0xF26 PUSH1 0x1D PUSH2 0xD9A JUMP JUMPDEST PUSH32 0x446F6E653A2066756C6C206F6620657870656374656420616D6F756E74000000 PUSH1 0x20 DUP3 ADD MSTORE SWAP1 JUMP JUMPDEST PUSH2 0xF3 PUSH2 0xF1C JUMP JUMPDEST PUSH2 0xF3 SWAP1 PUSH1 0x8 SHR PUSH2 0x19A JUMP JUMPDEST PUSH2 0xF3 SWAP1 SLOAD PUSH2 0xF57 JUMP JUMPDEST SWAP1 PUSH2 0xDA7 PUSH2 0x419 DUP4 PUSH2 0x3DE JUMP JUMPDEST CALLDATASIZE SWAP1 CALLDATACOPY JUMP JUMPDEST SWAP1 PUSH2 0xDD PUSH2 0xF95 PUSH2 0xF8F DUP5 PUSH2 0xF6D JUMP JUMPDEST SWAP4 PUSH2 0x3DE JUMP JUMPDEST PUSH1 0x1F NOT ADD PUSH1 0x20 DUP5 ADD PUSH2 0xF7A JUMP JUMPDEST PUSH2 0xF3 SWAP2 PUSH1 0x8 MUL SHR DUP2 JUMP JUMPDEST SWAP1 PUSH2 0xF3 SWAP2 SLOAD PUSH2 0xFA2 JUMP JUMPDEST PUSH2 0xFC2 PUSH1 0x3F PUSH2 0xD9A JUMP JUMPDEST PUSH32 0x74656D704964735B695D207C2074656D70416D6F756E74734F66546F6B656E30 PUSH1 0x20 DUP3 ADD MSTORE PUSH32 0x5B695D207C2074656D70416D6F756E74734F66546F6B656E315B695D203D2000 PUSH1 0x40 DUP3 ADD MSTORE SWAP1 JUMP JUMPDEST PUSH2 0xF3 PUSH2 0xFB8 JUMP JUMPDEST SWAP1 PUSH2 0x1022 DUP3 MLOAD SWAP1 JUMP JUMPDEST DUP2 LT ISZERO PUSH2 0xE78 JUMPI PUSH1 0x20 DUP1 SWAP2 MUL ADD ADD SWAP1 JUMP JUMPDEST SWAP1 PUSH4 0xFFFFFFFF SWAP1 PUSH2 0x829 JUMP JUMPDEST SWAP1 PUSH2 0x104F PUSH2 0xF3 PUSH2 0x85E SWAP3 PUSH2 0x7A9 JUMP JUMPDEST DUP3 SLOAD PUSH2 0x1033 JUMP JUMPDEST SWAP1 PUSH1 0x0 NOT SWAP1 PUSH2 0x829 JUMP JUMPDEST SWAP1 PUSH2 0x1070 PUSH2 0xF3 PUSH2 0x85E SWAP3 PUSH2 0x772 JUMP JUMPDEST DUP3 SLOAD PUSH2 0x1056 JUMP JUMPDEST SWAP2 SWAP1 PUSH1 0x60 DUP4 DUP3 SUB SLT PUSH2 0xCB JUMPI PUSH2 0x958 SWAP1 PUSH1 0x40 PUSH2 0x1093 PUSH1 0x60 PUSH2 0x3CA JUMP JUMPDEST SWAP5 PUSH2 0x109E DUP4 DUP3 PUSH2 0x27E JUMP JUMPDEST DUP7 MSTORE PUSH2 0x10AD DUP4 PUSH1 0x20 DUP4 ADD PUSH2 0x27E JUMP JUMPDEST PUSH1 0x20 DUP8 ADD MSTORE ADD PUSH2 0x27E JUMP JUMPDEST SWAP1 PUSH1 0x60 DUP3 DUP3 SUB SLT PUSH2 0xCB JUMPI PUSH2 0xF3 SWAP2 PUSH2 0x1077 JUMP JUMPDEST SWAP1 PUSH2 0x10EC PUSH2 0x10E5 PUSH2 0x10DB DUP5 MLOAD SWAP1 JUMP JUMPDEST DUP1 DUP5 MSTORE SWAP3 PUSH1 0x20 ADD SWAP1 JUMP JUMPDEST SWAP3 PUSH1 0x20 ADD SWAP1 JUMP JUMPDEST SWAP1 PUSH1 0x0 JUMPDEST DUP2 DUP2 LT PUSH2 0x10FD JUMPI POP POP POP SWAP1 JUMP JUMPDEST SWAP1 SWAP2 SWAP3 PUSH2 0x111A PUSH2 0x1113 PUSH1 0x1 SWAP3 DUP7 MLOAD DUP2 MSTORE PUSH1 0x20 ADD SWAP1 JUMP JUMPDEST SWAP5 PUSH1 0x20 ADD SWAP1 JUMP JUMPDEST SWAP3 SWAP2 ADD PUSH2 0x10F0 JUMP JUMPDEST SWAP7 SWAP6 SWAP4 SWAP1 SWAP5 PUSH2 0x116A PUSH1 0x80 SWAP5 PUSH2 0x115C PUSH2 0x1178 SWAP6 PUSH2 0x114E DUP13 PUSH2 0xDD SWAP12 PUSH1 0xA0 DUP3 ADD SWAP2 PUSH1 0x0 DUP2 DUP5 SUB SWAP2 ADD MSTORE PUSH2 0x10CC JUMP JUMPDEST DUP13 DUP2 SUB PUSH1 0x20 DUP15 ADD MSTORE SWAP1 PUSH2 0x10CC JUMP JUMPDEST SWAP1 DUP11 DUP3 SUB PUSH1 0x40 DUP13 ADD MSTORE PUSH2 0x10CC JUMP JUMPDEST SWAP2 DUP9 DUP4 SUB PUSH1 0x60 DUP11 ADD MSTORE PUSH2 0x903 JUMP JUMPDEST SWAP5 ADD SWAP1 ISZERO ISZERO SWAP1 MSTORE JUMP JUMPDEST PUSH1 0xC0 MSTORE PUSH2 0x1A0 MSTORE PUSH2 0x120 MSTORE PUSH2 0x180 MSTORE PUSH2 0x160 MSTORE PUSH1 0x0 PUSH2 0x100 MSTORE PUSH2 0x11A6 PUSH1 0x0 PUSH1 0x9 PUSH2 0xD07 JUMP JUMPDEST PUSH2 0x11B2 PUSH1 0x0 PUSH1 0xA PUSH2 0xD07 JUMP JUMPDEST PUSH2 0x11BE PUSH1 0x0 PUSH1 0xB PUSH2 0xD07 JUMP JUMPDEST PUSH2 0x11C8 PUSH1 0x7 PUSH2 0xD5C JUMP JUMPDEST PUSH2 0x11D2 PUSH1 0x5 PUSH2 0x87E JUMP JUMPDEST PUSH1 0x0 PUSH2 0x120 MLOAD PUSH1 0x0 EQ PUSH2 0x1A34 JUMPI POP PUSH2 0x11EB PUSH2 0xF3 DUP4 MLOAD SWAP1 JUMP JUMPDEST PUSH2 0x1A0 MLOAD GT DUP1 PUSH2 0x1A18 JUMPI JUMPDEST ISZERO JUMPDEST PUSH2 0x1A06 JUMPI PUSH2 0x124E DUP3 PUSH2 0x1245 PUSH2 0x1222 PUSH1 0x0 PUSH2 0x121C PUSH1 0x20 PUSH2 0x1262 SWAP9 ADD MLOAD PUSH4 0xFFFFFFFF AND SWAP1 JUMP JUMPDEST SWAP4 ADD MLOAD SWAP1 JUMP JUMPDEST SWAP2 PUSH1 0x0 PUSH1 0x80 MSTORE PUSH2 0x1230 PUSH2 0xD90 JUMP JUMPDEST PUSH1 0xA0 MSTORE PUSH1 0x80 MLOAD PUSH1 0xA0 MLOAD ADD SWAP1 PUSH4 0xFFFFFFFF AND SWAP1 MSTORE JUMP JUMPDEST PUSH1 0x20 PUSH1 0xA0 MLOAD ADD MSTORE JUMP JUMPDEST PUSH1 0x40 PUSH1 0xA0 MLOAD ADD SWAP1 PUSH1 0x1 PUSH1 0x1 PUSH1 0x80 SHL SUB AND SWAP1 MSTORE JUMP JUMPDEST PUSH2 0x126D PUSH1 0x80 MLOAD PUSH2 0x772 JUMP JUMPDEST PUSH2 0x140 MSTORE PUSH2 0x1281 PUSH2 0x140 MLOAD PUSH1 0x60 PUSH1 0xA0 MLOAD ADD MSTORE JUMP JUMPDEST PUSH2 0x1291 PUSH2 0x140 MLOAD PUSH1 0x80 PUSH1 0xA0 MLOAD ADD MSTORE JUMP JUMPDEST PUSH2 0x140 MLOAD PUSH1 0xC0 MLOAD GT DUP1 PUSH2 0x19C6 JUMPI JUMPDEST ISZERO PUSH2 0x18D6 JUMPI PUSH2 0x12D2 PUSH2 0x12BB PUSH1 0x80 MLOAD PUSH1 0xA0 MLOAD ADD MLOAD PUSH4 0xFFFFFFFF AND SWAP1 JUMP JUMPDEST PUSH2 0x12CC PUSH2 0x12C6 PUSH2 0xDC7 JUMP JUMPDEST SWAP2 PUSH2 0xDCF JUMP JUMPDEST SWAP1 PUSH2 0x2767 JUMP JUMPDEST PUSH2 0x12DA PUSH2 0xE1D JUMP JUMPDEST PUSH1 0xE0 MSTORE PUSH1 0xA0 MLOAD PUSH1 0x20 ADD MLOAD PUSH2 0x12F2 SWAP1 PUSH1 0x80 MLOAD PUSH1 0xE0 MLOAD ADD MSTORE JUMP JUMPDEST PUSH1 0x80 MLOAD PUSH1 0xA0 MLOAD ADD MLOAD PUSH4 0xFFFFFFFF AND DUP1 PUSH2 0x130E PUSH1 0x20 PUSH1 0xA0 MLOAD ADD MLOAD SWAP1 JUMP JUMPDEST SWAP1 PUSH2 0x120 MLOAD PUSH1 0x0 EQ PUSH2 0x197A JUMPI POP PUSH2 0x1326 DUP3 PUSH1 0x2 PUSH2 0x2AFA JUMP JUMPDEST PUSH4 0xFFFFFFFF DUP1 DUP3 AND SUB PUSH2 0x194D JUMPI JUMPDEST POP JUMPDEST PUSH2 0x134D PUSH2 0x208 PUSH1 0x80 MLOAD PUSH1 0xA0 MLOAD ADD MLOAD PUSH4 0xFFFFFFFF AND SWAP1 JUMP JUMPDEST PUSH4 0xFFFFFFFF DUP4 AND EQ PUSH2 0x1929 JUMPI PUSH2 0x1371 PUSH2 0x137A SWAP3 PUSH1 0x20 PUSH1 0xE0 MLOAD ADD SWAP1 PUSH4 0xFFFFFFFF AND SWAP1 MSTORE JUMP JUMPDEST PUSH1 0x40 PUSH1 0xE0 MLOAD ADD MSTORE JUMP JUMPDEST PUSH2 0x100 MLOAD POP PUSH2 0x13E3 PUSH2 0x13EA PUSH2 0x13DA PUSH2 0x13CA PUSH2 0x1399 PUSH1 0x80 MLOAD PUSH1 0xE0 MLOAD ADD MLOAD SWAP1 JUMP JUMPDEST PUSH1 0xA0 MLOAD PUSH1 0x40 ADD MLOAD PUSH1 0x1 PUSH1 0x1 PUSH1 0x80 SHL SUB AND SWAP1 PUSH2 0x13B4 PUSH1 0x6 PUSH2 0x86B JUMP JUMPDEST PUSH1 0xE0 MLOAD PUSH1 0x40 ADD MLOAD SWAP1 PUSH1 0xC0 MLOAD SWAP4 PUSH2 0x120 MLOAD SWAP4 PUSH2 0x2D25 JUMP JUMPDEST PUSH1 0xA0 PUSH1 0xE0 SWAP8 SWAP5 SWAP8 SWAP6 SWAP3 SWAP4 SWAP6 MLOAD ADD MSTORE JUMP JUMPDEST PUSH1 0x80 PUSH1 0xE0 MLOAD ADD MSTORE JUMP JUMPDEST PUSH1 0x6 PUSH2 0x847 JUMP JUMPDEST PUSH2 0x1402 PUSH2 0x13FA PUSH1 0xA0 PUSH1 0xE0 MLOAD ADD MLOAD SWAP1 JUMP JUMPDEST PUSH1 0xC0 MLOAD PUSH2 0xE25 JUMP JUMPDEST SWAP1 DUP2 PUSH1 0xC0 MSTORE PUSH2 0x142E PUSH2 0x1417 PUSH1 0xA0 PUSH1 0xE0 MLOAD ADD MLOAD SWAP1 JUMP JUMPDEST PUSH2 0xF6 PUSH1 0x60 PUSH1 0xA0 MLOAD ADD SWAP2 PUSH2 0x1429 DUP4 MLOAD SWAP1 JUMP JUMPDEST PUSH2 0xE32 JUMP JUMPDEST PUSH2 0x1450 PUSH2 0x143E PUSH1 0x80 PUSH1 0xE0 MLOAD ADD MLOAD SWAP1 JUMP JUMPDEST PUSH2 0xF6 PUSH1 0x80 PUSH1 0xA0 MLOAD ADD SWAP2 PUSH2 0x1429 DUP4 MLOAD SWAP1 JUMP JUMPDEST PUSH2 0x1477 PUSH1 0x9 PUSH2 0x1471 PUSH2 0x146C PUSH1 0x80 MLOAD PUSH1 0xA0 MLOAD ADD MLOAD PUSH4 0xFFFFFFFF AND SWAP1 JUMP JUMPDEST PUSH2 0xDCF JUMP JUMPDEST SWAP1 PUSH2 0xE7D JUMP JUMPDEST PUSH2 0x120 MLOAD ISZERO PUSH2 0x1903 JUMPI PUSH2 0x14B0 PUSH2 0x1490 PUSH1 0xA0 PUSH1 0xE0 MLOAD ADD MLOAD SWAP1 JUMP JUMPDEST PUSH2 0x14A9 PUSH2 0x14A0 PUSH1 0x80 PUSH1 0xE0 MLOAD ADD MLOAD SWAP1 JUMP JUMPDEST SWAP2 JUMPDEST PUSH1 0xA PUSH2 0xE7D JUMP JUMPDEST PUSH1 0xB PUSH2 0xE7D JUMP JUMPDEST PUSH1 0x20 PUSH1 0xE0 MLOAD ADD SWAP2 PUSH2 0x14C5 DUP4 MLOAD PUSH4 0xFFFFFFFF AND SWAP1 JUMP JUMPDEST PUSH2 0x14D8 PUSH4 0xFFFFFFFF JUMPDEST SWAP2 PUSH4 0xFFFFFFFF AND SWAP1 JUMP JUMPDEST EQ PUSH2 0x18F5 JUMPI PUSH2 0x120 MLOAD ISZERO PUSH2 0x18DB JUMPI PUSH1 0xE0 MLOAD PUSH1 0x40 ADD MLOAD PUSH2 0x14FA PUSH2 0x793 PUSH2 0x1A0 MLOAD SWAP1 JUMP JUMPDEST GT JUMPDEST PUSH2 0x18C8 JUMPI PUSH2 0x140 MLOAD EQ PUSH2 0x1562 JUMPI PUSH2 0x1245 PUSH2 0x151D PUSH2 0x152F SWAP4 MLOAD PUSH4 0xFFFFFFFF AND SWAP1 JUMP JUMPDEST PUSH1 0x80 MLOAD PUSH1 0xA0 MLOAD ADD SWAP1 PUSH4 0xFFFFFFFF AND SWAP1 MSTORE JUMP JUMPDEST PUSH2 0x155D PUSH2 0x124E PUSH2 0x1554 PUSH2 0x154C PUSH1 0x80 MLOAD PUSH1 0xA0 MLOAD ADD MLOAD PUSH4 0xFFFFFFFF AND SWAP1 JUMP JUMPDEST PUSH1 0x80 MLOAD PUSH2 0x7BC JUMP JUMPDEST PUSH1 0x80 MLOAD ADD PUSH2 0xF63 JUMP JUMPDEST PUSH2 0x1291 JUMP JUMPDEST POP POP PUSH2 0x1574 PUSH2 0x156F PUSH2 0xF4F JUMP JUMPDEST PUSH2 0x2E24 JUMP JUMPDEST PUSH1 0x9 SWAP1 PUSH2 0x1587 PUSH2 0x1582 DUP4 SLOAD SWAP1 JUMP JUMPDEST PUSH2 0xF7F JUMP JUMPDEST SWAP2 PUSH2 0x1593 PUSH2 0x1582 DUP3 SLOAD SWAP1 JUMP JUMPDEST SWAP3 PUSH2 0x159F PUSH2 0x1582 DUP4 SLOAD SWAP1 JUMP JUMPDEST SWAP2 PUSH2 0x140 MLOAD JUMPDEST PUSH2 0x15B0 PUSH2 0xF3 DUP4 SLOAD SWAP1 JUMP JUMPDEST DUP2 LT ISZERO PUSH2 0x166B JUMPI PUSH2 0x15C1 DUP2 DUP4 PUSH2 0xE55 JUMP JUMPDEST PUSH2 0x15CA SWAP2 PUSH2 0xFAD JUMP JUMPDEST DUP2 PUSH1 0xA PUSH2 0x15D7 DUP3 DUP3 PUSH2 0xE55 JUMP JUMPDEST PUSH2 0x15E0 SWAP2 PUSH2 0xFAD JUMP JUMPDEST SWAP3 PUSH1 0xB SWAP4 PUSH2 0x15EE DUP5 DUP7 PUSH2 0xE55 JUMP JUMPDEST PUSH2 0x15F7 SWAP2 PUSH2 0xFAD JUMP JUMPDEST SWAP1 PUSH2 0x1600 PUSH2 0x1011 JUMP JUMPDEST SWAP3 PUSH2 0x160A SWAP4 PUSH2 0x2E7E JUMP JUMPDEST DUP2 PUSH2 0x1615 DUP2 DUP8 PUSH2 0xE55 JUMP JUMPDEST PUSH2 0x161E SWAP2 PUSH2 0xFAD JUMP JUMPDEST PUSH2 0x1628 DUP3 DUP10 PUSH2 0x1019 JUMP JUMPDEST MSTORE PUSH2 0x1632 SWAP2 PUSH2 0xE55 JUMP JUMPDEST PUSH2 0x163B SWAP2 PUSH2 0xFAD JUMP JUMPDEST PUSH2 0x1645 DUP3 DUP11 PUSH2 0x1019 JUMP JUMPDEST MSTORE PUSH2 0x164F SWAP2 PUSH2 0xE55 JUMP JUMPDEST PUSH2 0x1658 SWAP2 PUSH2 0xFAD JUMP JUMPDEST PUSH2 0x1662 DUP3 DUP7 PUSH2 0x1019 JUMP JUMPDEST MSTORE PUSH1 0x1 ADD PUSH2 0x15A5 JUMP JUMPDEST POP POP SWAP3 SWAP2 SWAP3 PUSH2 0x1689 PUSH2 0xA3D PUSH1 0x40 PUSH1 0xA0 MLOAD ADD MLOAD PUSH1 0x1 PUSH1 0x1 PUSH1 0x80 SHL SUB AND SWAP1 JUMP JUMPDEST PUSH2 0x16A7 PUSH2 0x16A0 PUSH1 0x80 MLOAD PUSH1 0xA0 MLOAD ADD MLOAD PUSH4 0xFFFFFFFF AND SWAP1 JUMP JUMPDEST PUSH1 0x8 PUSH2 0x103F JUMP JUMPDEST PUSH2 0x16C2 PUSH2 0x16B7 PUSH1 0x20 PUSH1 0xA0 MLOAD ADD MLOAD SWAP1 JUMP JUMPDEST PUSH1 0x80 MLOAD PUSH1 0x7 ADD PUSH2 0x1060 JUMP JUMPDEST PUSH2 0x16D7 PUSH2 0x160 MLOAD PUSH2 0x180 MLOAD ADD PUSH2 0x180 MLOAD PUSH2 0x10B8 JUMP JUMPDEST PUSH2 0x16F2 PUSH2 0xA6C PUSH2 0xA6C PUSH1 0x80 MLOAD DUP5 ADD MLOAD PUSH1 0x1 PUSH1 0x1 PUSH1 0xA0 SHL SUB AND SWAP1 JUMP JUMPDEST PUSH4 0xA22CB465 SWAP2 DUP2 EXTCODESIZE ISZERO PUSH2 0xCB JUMPI PUSH1 0x40 MLOAD SWAP2 PUSH2 0x170D DUP5 PUSH1 0xE0 SHL SWAP1 JUMP JUMPDEST DUP4 MSTORE CALLER PUSH1 0x4 DUP5 ADD MSTORE PUSH1 0x1 PUSH1 0x24 DUP5 ADD MSTORE PUSH1 0x80 MLOAD SWAP1 DUP4 SWAP1 PUSH1 0x44 SWAP1 DUP3 SWAP1 DUP5 SWAP1 GAS CALL SWAP2 DUP3 ISZERO PUSH2 0xADC JUMPI PUSH1 0x20 PUSH2 0xA6C SWAP3 PUSH2 0xA6C SWAP3 PUSH2 0x1754 SWAP6 PUSH2 0x18A8 JUMPI JUMPDEST POP ADD MLOAD PUSH1 0x1 PUSH1 0x1 PUSH1 0xA0 SHL SUB AND SWAP1 JUMP JUMPDEST DUP1 EXTCODESIZE ISZERO PUSH2 0xCB JUMPI PUSH2 0x176E PUSH2 0x1767 PUSH1 0x40 MLOAD SWAP1 JUMP JUMPDEST SWAP3 PUSH1 0xE0 SHL SWAP1 JUMP JUMPDEST DUP3 MSTORE CALLER PUSH1 0x4 DUP4 ADD MSTORE PUSH1 0x1 PUSH1 0x24 DUP4 ADD MSTORE PUSH1 0x80 MLOAD SWAP1 DUP3 SWAP1 PUSH1 0x44 SWAP1 DUP3 SWAP1 DUP5 SWAP1 GAS CALL DUP1 ISZERO PUSH2 0xADC JUMPI PUSH2 0x1888 JUMPI JUMPDEST POP PUSH2 0x17A4 PUSH2 0xA6C CALLER PUSH2 0x8FA JUMP JUMPDEST SWAP2 DUP3 EXTCODESIZE ISZERO PUSH2 0xCB JUMPI PUSH2 0x17DE SWAP1 PUSH2 0x17B9 PUSH1 0x40 MLOAD SWAP1 JUMP JUMPDEST SWAP5 DUP6 SWAP4 PUSH4 0x859E32A7 PUSH1 0xE0 SHL DUP6 MSTORE PUSH2 0x120 MLOAD SWAP3 PUSH2 0x160 MLOAD SWAP3 PUSH2 0x180 MLOAD SWAP3 PUSH1 0x4 DUP9 ADD PUSH2 0x1122 JUMP JUMPDEST SWAP2 DUP2 DUP1 PUSH1 0x80 MLOAD SWAP5 SUB SWAP2 PUSH1 0x80 MLOAD SWAP1 GAS CALL DUP1 ISZERO PUSH2 0xADC JUMPI PUSH2 0x1868 JUMPI JUMPDEST POP PUSH2 0x120 MLOAD ISZERO PUSH2 0x184D JUMPI PUSH1 0xA0 MLOAD PUSH1 0x60 ADD MLOAD SWAP1 PUSH2 0x1817 PUSH1 0x80 PUSH1 0xA0 MLOAD ADD MLOAD SWAP1 JUMP JUMPDEST SWAP1 JUMPDEST PUSH32 0x15FC8EE969FD902D9EBD12A31C54446400A2B512A405366FE14DEFD6081D220 DUP3 DUP5 PUSH2 0x1848 PUSH2 0x384 PUSH1 0x40 MLOAD SWAP1 JUMP JUMPDEST SUB SWAP1 LOG1 JUMP JUMPDEST PUSH1 0xA0 MLOAD PUSH1 0x80 ADD MLOAD SWAP1 PUSH2 0x1862 PUSH1 0x60 PUSH1 0xA0 MLOAD ADD MLOAD SWAP1 JUMP JUMPDEST SWAP1 PUSH2 0x1819 JUMP JUMPDEST PUSH2 0x1882 SWAP1 PUSH1 0x80 MLOAD RETURNDATASIZE PUSH1 0x80 MLOAD GT PUSH2 0xAD5 JUMPI PUSH2 0xACD DUP2 DUP4 PUSH2 0x3A3 JUMP JUMPDEST CODESIZE PUSH2 0x17F8 JUMP JUMPDEST PUSH2 0x18A2 SWAP1 PUSH1 0x80 MLOAD RETURNDATASIZE PUSH1 0x80 MLOAD GT PUSH2 0xAD5 JUMPI PUSH2 0xACD DUP2 DUP4 PUSH2 0x3A3 JUMP JUMPDEST CODESIZE PUSH2 0x1797 JUMP JUMPDEST PUSH2 0x18C2 SWAP1 PUSH1 0x80 MLOAD RETURNDATASIZE PUSH1 0x80 MLOAD GT PUSH2 0xAD5 JUMPI PUSH2 0xACD DUP2 DUP4 PUSH2 0x3A3 JUMP JUMPDEST CODESIZE PUSH2 0x1745 JUMP JUMPDEST POP POP POP PUSH2 0x18D6 PUSH2 0x156F PUSH2 0xF14 JUMP JUMPDEST PUSH2 0x1574 JUMP JUMPDEST PUSH1 0xE0 MLOAD PUSH1 0x40 ADD MLOAD PUSH2 0x18EF PUSH2 0x793 PUSH2 0x1A0 MLOAD SWAP1 JUMP JUMPDEST LT PUSH2 0x14FC JUMP JUMPDEST POP POP POP PUSH2 0x18D6 PUSH2 0x156F PUSH2 0xED9 JUMP JUMPDEST PUSH2 0x14B0 PUSH2 0x1913 PUSH1 0x80 PUSH1 0xE0 MLOAD ADD MLOAD SWAP1 JUMP JUMPDEST PUSH2 0x14A9 PUSH2 0x1923 PUSH1 0xA0 PUSH1 0xE0 MLOAD ADD MLOAD SWAP1 JUMP JUMPDEST SWAP2 PUSH2 0x14A2 JUMP JUMPDEST POP POP PUSH1 0xE0 MLOAD PUSH4 0xFFFFFFFF PUSH1 0x20 SWAP1 SWAP2 ADD MSTORE PUSH2 0x1948 PUSH1 0x0 NOT PUSH1 0x40 PUSH1 0xE0 MLOAD ADD MSTORE JUMP JUMPDEST PUSH2 0x137A JUMP JUMPDEST PUSH2 0x1956 DUP2 PUSH2 0x1C20 JUMP JUMPDEST SWAP1 PUSH2 0x1961 PUSH2 0x1A0 MLOAD SWAP1 JUMP JUMPDEST DUP3 GT ISZERO PUSH2 0x196F JUMPI JUMPDEST POP PUSH2 0x1334 JUMP JUMPDEST SWAP3 POP SWAP1 POP CODESIZE DUP1 PUSH2 0x1969 JUMP JUMPDEST PUSH2 0x1985 SWAP1 PUSH1 0x2 PUSH2 0x2898 JUMP JUMPDEST PUSH4 0xFFFFFFFF DUP1 DUP3 AND SUB PUSH2 0x1999 JUMPI JUMPDEST POP PUSH2 0x1336 JUMP JUMPDEST PUSH2 0x19A2 DUP2 PUSH2 0x1C20 JUMP JUMPDEST SWAP1 PUSH2 0x19AD PUSH2 0x1A0 MLOAD SWAP1 JUMP JUMPDEST DUP3 LT ISZERO PUSH2 0x19BB JUMPI JUMPDEST POP PUSH2 0x1993 JUMP JUMPDEST SWAP3 POP SWAP1 POP CODESIZE DUP1 PUSH2 0x19B5 JUMP JUMPDEST POP PUSH2 0x120 MLOAD ISZERO PUSH2 0x19EB JUMPI PUSH1 0xA0 MLOAD PUSH1 0x20 ADD MLOAD PUSH2 0x19E4 PUSH2 0x793 PUSH2 0x1A0 MLOAD SWAP1 JUMP JUMPDEST GT ISZERO PUSH2 0x129F JUMP JUMPDEST PUSH1 0xA0 MLOAD PUSH1 0x20 ADD MLOAD PUSH2 0x19FF PUSH2 0x793 PUSH2 0x1A0 MLOAD SWAP1 JUMP JUMPDEST LT ISZERO PUSH2 0x129F JUMP JUMPDEST PUSH1 0x40 MLOAD PUSH4 0x2E6CDE9D PUSH1 0xE1 SHL DUP2 MSTORE PUSH1 0x4 SWAP1 REVERT JUMPDEST POP PUSH2 0x11F8 PUSH2 0x1A27 PUSH2 0xF3 PUSH2 0xD73 JUMP JUMPDEST PUSH2 0x1A0 MLOAD GT ISZERO SWAP1 POP PUSH2 0x11F6 JUMP JUMPDEST DUP3 ADD MLOAD PUSH2 0x1A0 MLOAD LT DUP1 PUSH2 0x1A47 JUMPI ISZERO PUSH2 0x11F8 JUMP JUMPDEST POP PUSH2 0x11F8 PUSH2 0x1A56 PUSH2 0xF3 PUSH2 0xD65 JUMP JUMPDEST PUSH2 0x1A0 MLOAD LT ISZERO SWAP1 POP PUSH2 0x11F6 JUMP JUMPDEST POP POP POP POP POP PUSH2 0x1A70 PUSH1 0x0 SWAP1 JUMP JUMPDEST POP PUSH2 0xF3 PUSH4 0xF23A6E61 PUSH2 0xBEB JUMP JUMPDEST EQ SWAP1 JUMP JUMPDEST PUSH2 0x1A95 PUSH2 0xF3 PUSH2 0xF3 SWAP3 PUSH4 0xFFFFFFFF AND SWAP1 JUMP JUMPDEST PUSH1 0x3 SIGNEXTEND SWAP1 JUMP JUMPDEST PUSH2 0x1A95 PUSH2 0xF3 PUSH2 0xF3 SWAP3 SWAP1 JUMP JUMPDEST PUSH2 0xF3 PUSH3 0x800000 PUSH2 0x1A9B JUMP JUMPDEST PUSH2 0x1AC2 SWAP1 PUSH1 0x3 SIGNEXTEND SWAP2 PUSH1 0x3 SIGNEXTEND SWAP1 JUMP JUMPDEST SWAP1 SUB SWAP1 PUSH4 0x7FFFFFFF NOT DUP3 SLT PUSH4 0x7FFFFFFF DUP4 SGT OR PUSH2 0x819 JUMPI JUMP JUMPDEST PUSH2 0x1AEB PUSH2 0xF3 PUSH2 0xF3 SWAP3 PUSH1 0x3 SIGNEXTEND SWAP1 JUMP JUMPDEST PUSH1 0x2 SIGNEXTEND SWAP1 JUMP JUMPDEST PUSH2 0x1AEB PUSH2 0xF3 PUSH2 0xF3 SWAP3 SWAP1 JUMP JUMPDEST PUSH2 0xF3 PUSH2 0xF3 PUSH2 0xF3 SWAP3 PUSH1 0x2 SIGNEXTEND SWAP1 JUMP JUMPDEST PUSH1 0x1 PUSH1 0xFF SHL DUP2 EQ PUSH2 0x819 JUMPI PUSH1 0x0 SUB SWAP1 JUMP JUMPDEST PUSH2 0xF3 PUSH3 0x80000 PUSH2 0x1AF1 JUMP JUMPDEST PUSH2 0x1B3B PUSH2 0xF3 PUSH2 0xF3 SWAP3 PUSH1 0x2 SIGNEXTEND SWAP1 JUMP JUMPDEST PUSH3 0xFFFFFF AND SWAP1 JUMP JUMPDEST PUSH2 0xF3 PUSH2 0xF3 PUSH2 0xF3 SWAP3 PUSH3 0xFFFFFF AND SWAP1 JUMP JUMPDEST ISZERO PUSH2 0x1B5C JUMPI JUMP JUMPDEST PUSH1 0x40 MLOAD PUSH3 0x461BCD PUSH1 0xE5 SHL DUP2 MSTORE PUSH1 0x20 PUSH1 0x4 DUP3 ADD MSTORE PUSH1 0x15 PUSH1 0x24 DUP3 ADD MSTORE PUSH21 0x62696E206973206F7574206F662072616E67652021 PUSH1 0x58 SHL PUSH1 0x44 DUP3 ADD MSTORE PUSH1 0x64 SWAP1 REVERT JUMPDEST PUSH2 0x1BA6 PUSH2 0xF3 PUSH2 0xF3 SWAP3 SWAP1 JUMP JUMPDEST PUSH1 0x1 PUSH1 0x1 PUSH1 0x88 SHL SUB AND SWAP1 JUMP JUMPDEST PUSH2 0xF3 PUSH2 0xF3 PUSH2 0xF3 SWAP3 PUSH1 0x1 PUSH1 0x1 PUSH1 0x88 SHL SUB AND SWAP1 JUMP JUMPDEST PUSH2 0xF3 SWAP1 PUSH2 0x1BDC PUSH2 0x793 PUSH2 0xF3 SWAP5 PUSH1 0xFF AND SWAP1 JUMP JUMPDEST SWAP1 SHR SWAP1 JUMP JUMPDEST PUSH4 0x4E487B71 PUSH1 0xE0 SHL PUSH1 0x0 MSTORE PUSH1 0x12 PUSH1 0x4 MSTORE PUSH1 0x24 PUSH1 0x0 REVERT JUMPDEST DUP2 ISZERO PUSH2 0x1C01 JUMPI DIV SWAP1 JUMP JUMPDEST PUSH2 0x1BE1 JUMP JUMPDEST DUP2 ISZERO PUSH2 0x1C01 JUMPI MOD SWAP1 JUMP JUMPDEST PUSH2 0xF3 PUSH2 0xF3 PUSH2 0xF3 SWAP3 PUSH1 0xFF AND SWAP1 JUMP JUMPDEST PUSH2 0x1C4E PUSH2 0x1C49 PUSH2 0x1C3B PUSH2 0xF3 SWAP4 PUSH2 0x1C35 PUSH1 0x0 SWAP1 JUMP JUMPDEST POP PUSH2 0x1A82 JUMP JUMPDEST PUSH2 0x1C43 PUSH2 0x1AA8 JUMP JUMPDEST SWAP1 PUSH2 0x1AB4 JUMP JUMPDEST PUSH2 0x1ADB JUMP JUMPDEST PUSH1 0x0 PUSH2 0x1C59 DUP2 PUSH2 0x1AF1 JUMP JUMPDEST PUSH2 0x1C63 DUP4 PUSH1 0x2 SIGNEXTEND SWAP1 JUMP JUMPDEST SLT ISZERO PUSH2 0x22D0 JUMPI PUSH2 0x1C82 PUSH2 0x1C7D PUSH2 0x1C78 DUP5 PUSH2 0x1AFE JUMP JUMPDEST PUSH2 0x1B0E JUMP JUMPDEST PUSH2 0x772 JUMP JUMPDEST SWAP2 JUMPDEST PUSH2 0x1CAA PUSH2 0x1CA2 PUSH2 0xF3 PUSH2 0x1C9D PUSH2 0x1C98 PUSH2 0x1B1F JUMP JUMPDEST PUSH2 0x1B2B JUMP JUMPDEST PUSH2 0x1B43 JUMP JUMPDEST DUP5 GT ISZERO PUSH2 0x1B55 JUMP JUMPDEST PUSH2 0x1CB4 PUSH1 0x1 PUSH2 0x772 JUMP JUMPDEST DUP4 AND PUSH2 0x1CC2 PUSH2 0x793 DUP5 PUSH2 0x772 JUMP JUMPDEST EQ PUSH2 0x22C0 JUMPI PUSH2 0x1CE8 PUSH2 0x1CE3 PUSH16 0xFFF97272373D40000000000000000000 PUSH2 0x1B99 JUMP JUMPDEST PUSH2 0x1BB2 JUMP JUMPDEST SWAP3 PUSH2 0x1CF3 PUSH1 0x2 PUSH2 0x772 JUMP JUMPDEST DUP2 AND PUSH2 0x1D01 PUSH2 0x793 DUP6 PUSH2 0x772 JUMP JUMPDEST SUB PUSH2 0x2299 JUMPI JUMPDEST PUSH2 0x1D11 PUSH1 0x4 PUSH2 0x772 JUMP JUMPDEST DUP2 AND PUSH2 0x1D1F PUSH2 0x793 DUP6 PUSH2 0x772 JUMP JUMPDEST SUB PUSH2 0x2272 JUMPI JUMPDEST PUSH2 0x1D2F PUSH1 0x8 PUSH2 0x772 JUMP JUMPDEST DUP2 AND PUSH2 0x1D3D PUSH2 0x793 DUP6 PUSH2 0x772 JUMP JUMPDEST SUB PUSH2 0x224B JUMPI JUMPDEST PUSH2 0x1D4D PUSH1 0x10 PUSH2 0x772 JUMP JUMPDEST DUP2 AND PUSH2 0x1D5B PUSH2 0x793 DUP6 PUSH2 0x772 JUMP JUMPDEST SUB PUSH2 0x2224 JUMPI JUMPDEST PUSH2 0x1D6B PUSH1 0x20 PUSH2 0x772 JUMP JUMPDEST DUP2 AND PUSH2 0x1D79 PUSH2 0x793 DUP6 PUSH2 0x772 JUMP JUMPDEST SUB PUSH2 0x21FD JUMPI JUMPDEST PUSH2 0x1D89 PUSH1 0x40 PUSH2 0x772 JUMP JUMPDEST DUP2 AND PUSH2 0x1D97 PUSH2 0x793 DUP6 PUSH2 0x772 JUMP JUMPDEST SUB PUSH2 0x21CC JUMPI JUMPDEST PUSH1 0x80 SWAP1 PUSH2 0x1DA9 DUP3 PUSH2 0x772 JUMP JUMPDEST DUP2 AND PUSH2 0x1DB7 PUSH2 0x793 DUP7 PUSH2 0x772 JUMP JUMPDEST SUB PUSH2 0x21A5 JUMPI JUMPDEST PUSH2 0x1DC8 PUSH2 0x100 PUSH2 0x772 JUMP JUMPDEST DUP2 AND PUSH2 0x1DD6 PUSH2 0x793 DUP7 PUSH2 0x772 JUMP JUMPDEST SUB PUSH2 0x217E JUMPI JUMPDEST PUSH2 0x1DE7 PUSH2 0x200 PUSH2 0x772 JUMP JUMPDEST DUP2 AND PUSH2 0x1DF5 PUSH2 0x793 DUP7 PUSH2 0x772 JUMP JUMPDEST SUB PUSH2 0x2157 JUMPI JUMPDEST PUSH2 0x1E06 PUSH2 0x400 PUSH2 0x772 JUMP JUMPDEST DUP2 AND PUSH2 0x1E14 PUSH2 0x793 DUP7 PUSH2 0x772 JUMP JUMPDEST SUB PUSH2 0x2130 JUMPI JUMPDEST PUSH2 0x1E25 PUSH2 0x800 PUSH2 0x772 JUMP JUMPDEST DUP2 AND PUSH2 0x1E33 PUSH2 0x793 DUP7 PUSH2 0x772 JUMP JUMPDEST SUB PUSH2 0x2109 JUMPI JUMPDEST PUSH2 0x1E44 PUSH2 0x1000 PUSH2 0x772 JUMP JUMPDEST DUP2 AND PUSH2 0x1E52 PUSH2 0x793 DUP7 PUSH2 0x772 JUMP JUMPDEST SUB PUSH2 0x20E2 JUMPI JUMPDEST PUSH2 0x1E63 PUSH2 0x2000 PUSH2 0x772 JUMP JUMPDEST DUP2 AND PUSH2 0x1E71 PUSH2 0x793 DUP7 PUSH2 0x772 JUMP JUMPDEST SUB PUSH2 0x20BB JUMPI JUMPDEST PUSH2 0x1E82 PUSH2 0x4000 PUSH2 0x772 JUMP JUMPDEST DUP2 AND PUSH2 0x1E90 PUSH2 0x793 DUP7 PUSH2 0x772 JUMP JUMPDEST SUB PUSH2 0x2094 JUMPI JUMPDEST PUSH2 0x1EA1 PUSH2 0x8000 PUSH2 0x772 JUMP JUMPDEST DUP2 AND PUSH2 0x1EAF PUSH2 0x793 DUP7 PUSH2 0x772 JUMP JUMPDEST SUB PUSH2 0x206D JUMPI JUMPDEST PUSH2 0x1EC1 PUSH3 0x10000 PUSH2 0x772 JUMP JUMPDEST DUP2 AND PUSH2 0x1ECF PUSH2 0x793 DUP7 PUSH2 0x772 JUMP JUMPDEST SUB PUSH2 0x2047 JUMPI JUMPDEST PUSH2 0x1EE1 PUSH3 0x20000 PUSH2 0x772 JUMP JUMPDEST DUP2 AND PUSH2 0x1EEF PUSH2 0x793 DUP7 PUSH2 0x772 JUMP JUMPDEST SUB PUSH2 0x2022 JUMPI JUMPDEST PUSH2 0x1F01 PUSH3 0x40000 PUSH2 0x772 JUMP JUMPDEST DUP2 AND PUSH2 0x1F0F PUSH2 0x793 DUP7 PUSH2 0x772 JUMP JUMPDEST SUB PUSH2 0x1FF6 JUMPI JUMPDEST PUSH2 0x1F21 PUSH3 0x80000 PUSH2 0x772 JUMP JUMPDEST AND PUSH2 0x1F2E PUSH2 0x793 DUP6 PUSH2 0x772 JUMP JUMPDEST SUB PUSH2 0x1FC2 JUMPI JUMPDEST POP PUSH2 0x1F48 PUSH2 0x1F41 DUP4 PUSH2 0x1AF1 JUMP JUMPDEST SWAP2 PUSH1 0x2 SIGNEXTEND SWAP1 JUMP JUMPDEST SGT PUSH2 0x1FAF JUMPI JUMPDEST PUSH2 0x1F79 PUSH2 0x1F64 PUSH2 0x1F5E PUSH1 0x20 PUSH2 0x755 JUMP JUMPDEST DUP5 PUSH2 0x1BC8 JUMP JUMPDEST SWAP3 PUSH2 0x1F73 PUSH5 0x100000000 PUSH2 0x772 JUMP JUMPDEST SWAP1 PUSH2 0x1C06 JUMP JUMPDEST PUSH2 0x1F85 PUSH2 0x793 DUP4 PUSH2 0x772 JUMP JUMPDEST SUB PUSH2 0x1FA1 JUMPI PUSH2 0x1F96 PUSH2 0x1F9B SWAP2 PUSH2 0x755 JUMP JUMPDEST PUSH2 0x1C10 JUMP JUMPDEST SWAP1 PUSH2 0xE32 JUMP JUMPDEST POP PUSH2 0x1F9B PUSH2 0x1F96 PUSH1 0x1 PUSH2 0x755 JUMP JUMPDEST SWAP1 PUSH2 0x1FBC SWAP1 PUSH1 0x0 NOT PUSH2 0x1BF7 JUMP JUMPDEST SWAP1 PUSH2 0x1F4E JUMP JUMPDEST PUSH2 0x1FE9 PUSH2 0x1FE3 PUSH2 0x1FEF SWAP4 SWAP6 PUSH2 0x1FDD PUSH7 0x149B34EE7B4533 PUSH2 0x772 JUMP JUMPDEST SWAP1 PUSH2 0xC2C JUMP JUMPDEST SWAP2 PUSH2 0x755 JUMP JUMPDEST SWAP1 PUSH2 0x1BC8 JUMP JUMPDEST SWAP2 CODESIZE PUSH2 0x1F34 JUMP JUMPDEST SWAP4 PUSH2 0x2013 PUSH2 0x201C SWAP2 PUSH2 0x1FDD PUSH12 0x48A1703920644C000000000 PUSH2 0x772 JUMP JUMPDEST PUSH2 0x1FE9 DUP4 PUSH2 0x755 JUMP JUMPDEST SWAP4 PUSH2 0x1F15 JUMP JUMPDEST SWAP4 PUSH2 0x2013 PUSH2 0x2041 SWAP2 PUSH2 0x1FDD PUSH14 0x2216E584F6303800000000000000 PUSH2 0x772 JUMP JUMPDEST SWAP4 PUSH2 0x1EF5 JUMP JUMPDEST SWAP4 PUSH2 0x2013 PUSH2 0x2067 SWAP2 PUSH2 0x1FDD PUSH15 0x5D6AF8DEDBCB380000000000000000 PUSH2 0x772 JUMP JUMPDEST SWAP4 PUSH2 0x1ED5 JUMP JUMPDEST SWAP4 PUSH2 0x2013 PUSH2 0x208E SWAP2 PUSH2 0x1FDD PUSH16 0x9AA508B5B7E5A800000000000000000 PUSH2 0x772 JUMP JUMPDEST SWAP4 PUSH2 0x1EB5 JUMP JUMPDEST SWAP4 PUSH2 0x2013 PUSH2 0x20B5 SWAP2 PUSH2 0x1FDD PUSH16 0x31BE135F97DA6E000000000000000000 PUSH2 0x772 JUMP JUMPDEST SWAP4 PUSH2 0x1E96 JUMP JUMPDEST SWAP4 PUSH2 0x2013 PUSH2 0x20DC SWAP2 PUSH2 0x1FDD PUSH16 0x70D869A156DDD4000000000000000000 PUSH2 0x772 JUMP JUMPDEST SWAP4 PUSH2 0x1E77 JUMP JUMPDEST SWAP4 PUSH2 0x2013 PUSH2 0x2103 SWAP2 PUSH2 0x1FDD PUSH16 0xA9F746462D8F78000000000000000000 PUSH2 0x772 JUMP JUMPDEST SWAP4 PUSH2 0x1E58 JUMP JUMPDEST SWAP4 PUSH2 0x2013 PUSH2 0x212A SWAP2 PUSH2 0x1FDD PUSH16 0xD097F3BDFD2550000000000000000000 PUSH2 0x772 JUMP JUMPDEST SWAP4 PUSH2 0x1E39 JUMP JUMPDEST SWAP4 PUSH2 0x2013 PUSH2 0x2151 SWAP2 PUSH2 0x1FDD PUSH16 0xE7159475A2C578000000000000000000 PUSH2 0x772 JUMP JUMPDEST SWAP4 PUSH2 0x1E1A JUMP JUMPDEST SWAP4 PUSH2 0x2013 PUSH2 0x2178 SWAP2 PUSH2 0x1FDD PUSH16 0xF3392B0822B880000000000000000000 PUSH2 0x772 JUMP JUMPDEST SWAP4 PUSH2 0x1DFB JUMP JUMPDEST SWAP4 PUSH2 0x2013 PUSH2 0x219F SWAP2 PUSH2 0x1FDD PUSH16 0xF987A7253AC4D8000000000000000000 PUSH2 0x772 JUMP JUMPDEST SWAP4 PUSH2 0x1DDC JUMP JUMPDEST SWAP4 PUSH2 0x2013 PUSH2 0x21C6 SWAP2 PUSH2 0x1FDD PUSH16 0xFCBE86C7900AE8000000000000000000 PUSH2 0x772 JUMP JUMPDEST SWAP4 PUSH2 0x1DBD JUMP JUMPDEST SWAP3 PUSH2 0x21ED PUSH2 0x21F7 SWAP2 PUSH2 0x1FDD PUSH16 0xFE5DEE046A99D8000000000000000000 PUSH2 0x772 JUMP JUMPDEST PUSH2 0x1FE9 PUSH1 0x80 PUSH2 0x755 JUMP JUMPDEST SWAP3 PUSH2 0x1D9D JUMP JUMPDEST SWAP3 PUSH2 0x21ED PUSH2 0x221E SWAP2 PUSH2 0x1FDD PUSH16 0xFF2EA16466C980000000000000000000 PUSH2 0x772 JUMP JUMPDEST SWAP3 PUSH2 0x1D7F JUMP JUMPDEST SWAP3 PUSH2 0x21ED PUSH2 0x2245 SWAP2 PUSH2 0x1FDD PUSH16 0xFF973B41FA98D8000000000000000000 PUSH2 0x772 JUMP JUMPDEST SWAP3 PUSH2 0x1D61 JUMP JUMPDEST SWAP3 PUSH2 0x21ED PUSH2 0x226C SWAP2 PUSH2 0x1FDD PUSH16 0xFFCB9843D60F68000000000000000000 PUSH2 0x772 JUMP JUMPDEST SWAP3 PUSH2 0x1D43 JUMP JUMPDEST SWAP3 PUSH2 0x21ED PUSH2 0x2293 SWAP2 PUSH2 0x1FDD PUSH16 0xFFE5CACA7E10F0000000000000000000 PUSH2 0x772 JUMP JUMPDEST SWAP3 PUSH2 0x1D25 JUMP JUMPDEST SWAP3 PUSH2 0x21ED PUSH2 0x22BA SWAP2 PUSH2 0x1FDD PUSH16 0xFFF2E50F5F6570000000000000000000 PUSH2 0x772 JUMP JUMPDEST SWAP3 PUSH2 0x1D07 JUMP JUMPDEST PUSH2 0x1CE8 PUSH2 0x1CE3 PUSH1 0x1 PUSH1 0x80 SHL PUSH2 0x1B99 JUMP JUMPDEST PUSH2 0x22DC PUSH2 0x1C7D DUP4 PUSH2 0x1AFE JUMP JUMPDEST SWAP2 PUSH2 0x1C84 JUMP JUMPDEST PUSH2 0xF3 PUSH2 0xF3 PUSH2 0xF3 SWAP3 PUSH1 0x1 PUSH1 0x1 PUSH1 0x80 SHL SUB AND SWAP1 JUMP JUMPDEST PUSH2 0x230D PUSH2 0xF3 SWAP2 PUSH2 0x2307 PUSH1 0x0 SWAP1 JUMP JUMPDEST POP PUSH2 0x22E2 JUMP JUMPDEST PUSH2 0x2315 PUSH2 0x768 JUMP JUMPDEST SWAP1 PUSH2 0x77F JUMP JUMPDEST SWAP1 PUSH2 0x232B PUSH2 0xF3 SWAP3 PUSH2 0x2307 PUSH1 0x0 SWAP1 JUMP JUMPDEST PUSH2 0x234B PUSH2 0x2340 PUSH2 0x2339 PUSH2 0x768 JUMP JUMPDEST DUP1 SWAP4 PUSH2 0x77F JUMP JUMPDEST SWAP2 PUSH2 0xB2E PUSH1 0x1 PUSH2 0x772 JUMP JUMPDEST SWAP1 PUSH2 0x2EAC JUMP JUMPDEST PUSH2 0x236C SWAP1 PUSH1 0x1 PUSH1 0x1 PUSH1 0xA0 SHL SUB AND JUMPDEST SWAP2 PUSH1 0x1 PUSH1 0x1 PUSH1 0xA0 SHL SUB AND SWAP1 JUMP JUMPDEST SWAP1 SUB SWAP1 PUSH1 0x1 PUSH1 0x1 PUSH1 0xA0 SHL SUB DUP3 GT PUSH2 0x819 JUMPI JUMP JUMPDEST PUSH2 0xF3 SWAP1 DUP2 SWAP1 PUSH1 0x1 PUSH1 0x1 PUSH1 0xA0 SHL SUB AND DUP2 JUMP JUMPDEST PUSH2 0x234B PUSH2 0x23C4 PUSH2 0xF3 SWAP5 SWAP4 PUSH2 0x23A4 PUSH1 0x0 SWAP1 JUMP JUMPDEST POP PUSH2 0x23BE PUSH2 0x230D PUSH2 0x23B8 PUSH1 0x1 PUSH1 0x60 SHL PUSH2 0x79C JUMP JUMPDEST SWAP6 PUSH2 0x22E2 JUMP JUMPDEST SWAP4 PUSH2 0x2351 JUMP JUMPDEST PUSH2 0x237F JUMP JUMPDEST SWAP1 PUSH2 0x23D9 PUSH2 0xF3 SWAP3 PUSH2 0x2307 PUSH1 0x0 SWAP1 JUMP JUMPDEST PUSH2 0x234B PUSH2 0x23FC PUSH2 0x23F1 PUSH2 0x23EA PUSH2 0x768 JUMP JUMPDEST DUP1 SWAP5 PUSH2 0x77F JUMP JUMPDEST SWAP3 PUSH2 0xB2E PUSH1 0x1 PUSH2 0x772 JUMP JUMPDEST SWAP3 PUSH2 0x237F JUMP JUMPDEST SWAP1 PUSH1 0xFF SWAP1 PUSH2 0x829 JUMP JUMPDEST SWAP1 PUSH2 0x241B PUSH2 0xF3 PUSH2 0x85E SWAP3 ISZERO ISZERO SWAP1 JUMP JUMPDEST DUP3 SLOAD PUSH2 0x2402 JUMP JUMPDEST SWAP1 PUSH17 0xFFFFFFFFFFFFFFFFFFFFFFFFFFFFFFFF00 SWAP1 PUSH1 0x8 SHL PUSH2 0x829 JUMP JUMPDEST SWAP1 PUSH2 0x244E PUSH2 0xF3 PUSH2 0x85E SWAP3 PUSH2 0x8C4 JUMP JUMPDEST DUP3 SLOAD PUSH2 0x2422 JUMP JUMPDEST PUSH2 0xF3 PUSH2 0xDD SWAP3 PUSH2 0x2471 SWAP3 SWAP6 SWAP5 SWAP6 PUSH2 0x246B PUSH1 0x0 SWAP1 JUMP JUMPDEST POP PUSH2 0x7BC JUMP JUMPDEST SWAP3 PUSH2 0x247B DUP5 PUSH2 0xF63 JUMP JUMPDEST PUSH1 0x0 SWAP5 DUP6 SWAP2 PUSH2 0x248C PUSH2 0x896 DUP5 PUSH2 0x748 JUMP JUMPDEST EQ PUSH2 0x24DC JUMPI JUMPDEST ADD SWAP4 PUSH2 0x24D4 PUSH2 0x24CE PUSH2 0x24AD PUSH2 0x24A6 DUP9 PUSH2 0xF63 JUMP JUMPDEST SWAP5 DUP6 PUSH2 0x888 JUMP JUMPDEST SWAP4 PUSH2 0x1A7E PUSH2 0x896 PUSH2 0x24BD DUP7 PUSH2 0x748 JUMP JUMPDEST PUSH1 0x1 PUSH1 0x1 PUSH1 0x80 SHL SUB DUP9 AND EQ SWAP6 PUSH2 0x748 JUMP JUMPDEST SWAP2 ISZERO ISZERO SWAP1 JUMP JUMPDEST EQ ISZERO SWAP4 PUSH2 0x243E JUMP JUMPDEST PUSH2 0x24E9 PUSH1 0x1 DUP4 DUP4 ADD PUSH2 0x240B JUMP JUMPDEST PUSH2 0x2492 JUMP JUMPDEST PUSH2 0x208 SWAP1 PUSH2 0x1BDC PUSH2 0x14CE PUSH2 0xF3 SWAP5 PUSH1 0xFF AND SWAP1 JUMP JUMPDEST PUSH2 0x2515 PUSH2 0xF3 PUSH2 0xF3 SWAP3 PUSH4 0xFFFFFFFF AND SWAP1 JUMP JUMPDEST PUSH2 0xFFFF AND SWAP1 JUMP JUMPDEST PUSH2 0x762 PUSH2 0xF3 PUSH2 0xF3 SWAP3 PUSH4 0xFFFFFFFF AND SWAP1 JUMP JUMPDEST PUSH2 0x2515 PUSH2 0xF3 PUSH2 0xF3 SWAP3 PUSH2 0xFFFF AND SWAP1 JUMP JUMPDEST SWAP1 PUSH2 0x7C6 SWAP1 PUSH2 0x252F JUMP JUMPDEST PUSH2 0x2515 SWAP1 PUSH2 0x1BDC PUSH2 0x255E PUSH2 0xF3 SWAP5 PUSH1 0xFF AND SWAP1 JUMP JUMPDEST SWAP2 PUSH2 0xFFFF AND SWAP1 JUMP JUMPDEST PUSH2 0x762 PUSH2 0xF3 PUSH2 0xF3 SWAP3 PUSH2 0xFFFF AND SWAP1 JUMP JUMPDEST PUSH2 0x762 PUSH2 0xF3 PUSH2 0xF3 SWAP3 PUSH1 0xFF AND SWAP1 JUMP JUMPDEST SWAP1 PUSH2 0x7C6 SWAP1 PUSH2 0x2577 JUMP JUMPDEST PUSH1 0x0 PUSH2 0x2641 PUSH2 0xDD SWAP4 PUSH2 0x25A4 PUSH1 0x8 PUSH2 0x755 JUMP JUMPDEST PUSH2 0xB2E PUSH2 0x261A PUSH2 0x2614 PUSH2 0x260F PUSH2 0x25CB PUSH2 0x25C5 PUSH2 0x25C0 DUP8 DUP10 PUSH2 0x24EE JUMP JUMPDEST PUSH2 0x2502 JUMP JUMPDEST SWAP7 PUSH2 0x251C JUMP JUMPDEST SWAP5 PUSH2 0x2609 PUSH1 0x2 DUP12 ADD PUSH2 0x2604 DUP10 PUSH2 0x25E9 PUSH2 0x25E4 DUP3 DUP6 PUSH2 0x2540 JUMP JUMPDEST PUSH2 0x1F9 JUMP JUMPDEST PUSH2 0x25FD PUSH2 0x25F6 PUSH1 0x1 PUSH2 0x772 JUMP JUMPDEST SWAP12 DUP13 PUSH2 0x77F JUMP JUMPDEST OR SWAP3 PUSH2 0x2540 JUMP JUMPDEST PUSH2 0x1060 JUMP JUMPDEST DUP7 PUSH2 0x254A JUMP JUMPDEST PUSH2 0x2566 JUMP JUMPDEST SWAP4 PUSH2 0x2566 JUMP JUMPDEST PUSH2 0x2604 DUP5 PUSH1 0x1 DUP10 ADD SWAP3 PUSH2 0x263A PUSH2 0x2633 PUSH2 0x25E4 DUP5 DUP8 PUSH2 0x2587 JUMP JUMPDEST SWAP2 DUP8 PUSH2 0x77F JUMP JUMPDEST OR SWAP3 PUSH2 0x2587 JUMP JUMPDEST SWAP2 ADD SWAP1 PUSH2 0x264D DUP3 PUSH2 0x1F9 JUMP JUMPDEST OR SWAP1 PUSH2 0x1060 JUMP JUMPDEST PUSH2 0xF6 SWAP1 PUSH1 0x1 PUSH1 0x1 PUSH1 0xA0 SHL SUB AND PUSH1 0x60 SHL SWAP1 JUMP JUMPDEST PUSH2 0xF6 SWAP1 PUSH4 0xFFFFFFFF AND PUSH2 0xBFE JUMP JUMPDEST PUSH1 0x14 DUP2 PUSH2 0x2689 PUSH2 0x493 SWAP4 PUSH1 0x4 SWAP7 SWAP6 PUSH2 0x2654 JUMP JUMPDEST ADD DUP1 SWAP3 PUSH2 0x2667 JUMP JUMPDEST SWAP1 PUSH2 0x7C6 JUMP JUMPDEST PUSH2 0x26BC PUSH2 0x26C8 PUSH2 0xF3 SWAP5 PUSH2 0xF3 SWAP5 PUSH2 0x26AE PUSH1 0x40 MLOAD SWAP1 JUMP JUMPDEST SWAP4 DUP5 SWAP3 PUSH1 0x20 DUP5 ADD SWAP3 DUP4 PUSH2 0x2676 JUMP JUMPDEST SWAP1 DUP2 SUB DUP3 MSTORE SUB DUP3 PUSH2 0x3A3 JUMP JUMPDEST PUSH2 0x26DA PUSH2 0x26D3 DUP3 MLOAD SWAP1 JUMP JUMPDEST SWAP2 PUSH1 0x20 ADD SWAP1 JUMP JUMPDEST KECCAK256 SWAP1 PUSH2 0x2691 JUMP JUMPDEST PUSH2 0xDD SWAP2 PUSH2 0x26F2 SWAP1 PUSH2 0xA38 DUP4 PUSH2 0x87E JUMP JUMPDEST SWAP1 PUSH2 0x8DA JUMP JUMPDEST PUSH1 0x0 JUMPDEST DUP4 DUP2 LT PUSH2 0x270B JUMPI POP POP PUSH1 0x0 SWAP2 ADD MSTORE JUMP JUMPDEST DUP2 DUP2 ADD MLOAD DUP4 DUP3 ADD MSTORE PUSH1 0x20 ADD PUSH2 0x26FB JUMP JUMPDEST PUSH2 0x273C PUSH2 0x921 PUSH1 0x20 SWAP4 PUSH2 0x493 SWAP4 PUSH2 0x2730 DUP2 MLOAD SWAP1 JUMP JUMPDEST DUP1 DUP4 MSTORE SWAP4 DUP5 SWAP3 PUSH1 0x20 ADD SWAP1 JUMP JUMPDEST SWAP6 DUP7 SWAP2 ADD PUSH2 0x26F8 JUMP JUMPDEST SWAP3 SWAP2 PUSH1 0x20 PUSH2 0x2762 PUSH2 0xDD SWAP4 PUSH1 0x40 DUP8 ADD SWAP1 DUP8 DUP3 SUB PUSH1 0x0 DUP10 ADD MSTORE PUSH2 0x271B JUMP JUMPDEST SWAP5 ADD MSTORE JUMP JUMPDEST SWAP1 PUSH2 0x27A3 PUSH2 0xDD SWAP3 PUSH2 0x2794 PUSH2 0x277B PUSH1 0x40 MLOAD SWAP1 JUMP JUMPDEST PUSH4 0x2D839CB3 PUSH1 0xE2 SHL PUSH1 0x20 DUP3 ADD MSTORE SWAP4 DUP5 SWAP3 PUSH1 0x24 DUP5 ADD PUSH2 0x2745 JUMP JUMPDEST PUSH1 0x20 DUP3 ADD DUP2 SUB DUP3 MSTORE SUB DUP3 PUSH2 0x3A3 JUMP JUMPDEST PUSH2 0x2FE1 JUMP JUMPDEST PUSH2 0x2515 PUSH2 0xF3 PUSH2 0xF3 SWAP3 PUSH1 0xFF AND SWAP1 JUMP JUMPDEST PUSH2 0x2515 SWAP1 PUSH2 0x797 PUSH2 0x255E PUSH2 0xF3 SWAP5 PUSH1 0xFF AND SWAP1 JUMP JUMPDEST PUSH2 0x2515 PUSH2 0xF3 PUSH2 0xF3 SWAP3 SWAP1 JUMP JUMPDEST PUSH2 0x27E6 SWAP1 PUSH2 0xFFFF AND PUSH2 0x255E JUMP JUMPDEST ADD SWAP1 PUSH2 0xFFFF DUP3 GT PUSH2 0x819 JUMPI JUMP JUMPDEST PUSH2 0x2800 SWAP1 PUSH2 0xFFFF AND PUSH2 0x255E JUMP JUMPDEST SWAP1 SUB SWAP1 PUSH2 0xFFFF DUP3 GT PUSH2 0x819 JUMPI JUMP JUMPDEST PUSH2 0x208 PUSH2 0xF3 PUSH2 0xF3 SWAP3 PUSH2 0xFFFF AND SWAP1 JUMP JUMPDEST PUSH2 0x208 SWAP1 PUSH2 0x797 PUSH2 0x14CE PUSH2 0xF3 SWAP5 PUSH1 0xFF AND SWAP1 JUMP JUMPDEST PUSH2 0x2842 SWAP1 PUSH4 0xFFFFFFFF AND PUSH2 0x14CE JUMP JUMPDEST ADD SWAP1 PUSH4 0xFFFFFFFF DUP3 GT PUSH2 0x819 JUMPI JUMP JUMPDEST PUSH2 0x2860 SWAP1 PUSH4 0xFFFFFFFF AND PUSH2 0x14CE JUMP JUMPDEST SWAP1 SUB SWAP1 PUSH4 0xFFFFFFFF DUP3 GT PUSH2 0x819 JUMPI JUMP JUMPDEST PUSH2 0x287C SWAP1 PUSH1 0xFF AND PUSH2 0x805 JUMP JUMPDEST ADD SWAP1 PUSH1 0xFF DUP3 GT PUSH2 0x819 JUMPI JUMP JUMPDEST PUSH2 0x208 PUSH2 0xF3 PUSH2 0xF3 SWAP3 PUSH1 0xFF AND SWAP1 JUMP JUMPDEST PUSH2 0x28A2 PUSH1 0x8 PUSH2 0x755 JUMP JUMPDEST PUSH2 0x28AF PUSH2 0x25C0 DUP3 DUP6 PUSH2 0x24EE JUMP JUMPDEST DUP1 SWAP3 PUSH2 0x28BA DUP6 PUSH2 0x251C JUMP JUMPDEST SWAP3 PUSH1 0x2 DUP3 ADD SWAP1 PUSH2 0x28CD PUSH2 0x25E4 DUP6 DUP5 PUSH2 0x2540 JUMP JUMPDEST SWAP6 PUSH1 0x1 SWAP7 PUSH2 0x28DA DUP9 PUSH2 0x772 JUMP JUMPDEST SWAP1 PUSH2 0x28EE DUP3 PUSH2 0x28E9 DUP11 DUP3 PUSH2 0x77F JUMP JUMPDEST PUSH2 0xE25 JUMP JUMPDEST AND SWAP1 DUP2 SWAP7 PUSH1 0x0 SWAP3 PUSH2 0x2901 PUSH2 0x793 DUP6 PUSH2 0x772 JUMP JUMPDEST GT ISZERO PUSH2 0x2943 JUMPI POP POP POP POP POP POP POP PUSH2 0xF3 SWAP4 SWAP3 PUSH2 0xB1E PUSH2 0x1FE3 PUSH2 0x293D SWAP5 PUSH2 0x2932 PUSH2 0x292C PUSH2 0x2938 SWAP7 PUSH2 0x2FEC JUMP JUMPDEST SWAP5 PUSH2 0x755 JUMP JUMPDEST SWAP1 PUSH2 0x2870 JUMP JUMPDEST PUSH2 0x2888 JUMP JUMPDEST SWAP1 PUSH2 0x2851 JUMP JUMPDEST SWAP3 SWAP6 SWAP10 POP SWAP3 SWAP6 POP SWAP3 SWAP6 POP PUSH2 0x296E PUSH2 0x295D PUSH2 0x260F DUP8 DUP5 PUSH2 0x254A JUMP JUMPDEST SWAP2 PUSH2 0x2968 PUSH1 0xFF PUSH2 0x27A8 JUMP JUMPDEST AND PUSH2 0x2566 JUMP JUMPDEST SWAP3 DUP8 DUP10 ADD SWAP2 PUSH2 0x2980 PUSH2 0x25E4 DUP3 DUP6 PUSH2 0x2587 JUMP JUMPDEST PUSH2 0x298E DUP6 PUSH2 0x28E9 DUP9 DUP3 PUSH2 0x77F JUMP JUMPDEST AND SWAP4 DUP5 PUSH2 0x299D PUSH2 0x793 DUP6 PUSH2 0x772 JUMP JUMPDEST GT ISZERO PUSH2 0x2A12 JUMPI POP POP POP POP PUSH2 0xF3 SWAP7 POP PUSH2 0x2A06 SWAP4 PUSH2 0x2A01 PUSH2 0x29FB PUSH2 0x29F6 PUSH2 0x25E4 PUSH2 0x29EF PUSH2 0x293D SWAP11 SWAP9 PUSH2 0x29E9 PUSH2 0x29E4 DUP15 PUSH2 0xB1E PUSH2 0x1FE3 PUSH2 0x2A0C SWAP14 PUSH2 0x2932 PUSH2 0x292C PUSH2 0x2A06 SWAP16 PUSH2 0x2FEC JUMP JUMPDEST PUSH2 0x27A8 JUMP JUMPDEST SWAP1 PUSH2 0x27F3 JUMP JUMPDEST DUP1 SWAP9 PUSH2 0x2540 JUMP JUMPDEST PUSH2 0x2FEC JUMP JUMPDEST SWAP5 PUSH2 0x280E JUMP JUMPDEST PUSH2 0x281F JUMP JUMPDEST SWAP2 PUSH2 0x723 JUMP JUMPDEST SWAP1 PUSH2 0x2833 JUMP JUMPDEST SWAP2 SWAP6 POP SWAP3 POP PUSH2 0x2A3C SWAP4 POP PUSH2 0x28E9 PUSH2 0x2A2E DUP7 PUSH2 0x2A35 SWAP5 SWAP12 ADD PUSH2 0x1F9 JUMP JUMPDEST SWAP4 DUP3 PUSH2 0x77F JUMP JUMPDEST AND SWAP2 PUSH2 0x772 JUMP JUMPDEST DUP2 GT ISZERO PUSH2 0x2AED JUMPI PUSH2 0x2A0C PUSH2 0x2A06 DUP4 PUSH2 0x2A01 PUSH2 0x2AE8 PUSH2 0x2ADE PUSH2 0x29F6 PUSH2 0x25E4 PUSH2 0x293D SWAP11 PUSH2 0x2AD8 PUSH2 0x2AD2 PUSH2 0xF3 SWAP16 DUP16 PUSH2 0x2AC6 PUSH2 0x2A06 SWAP16 DUP3 SWAP16 SWAP1 PUSH2 0x2ABB PUSH2 0x29E4 PUSH2 0x2ACC SWAP7 PUSH2 0xB1E PUSH2 0x2AB5 PUSH2 0x29F6 PUSH2 0x25E4 PUSH2 0x2A9C PUSH2 0x2A97 PUSH2 0x2AC0 SWAP11 PUSH2 0x2FEC JUMP JUMPDEST PUSH2 0x755 JUMP JUMPDEST SWAP5 PUSH2 0x2AAF PUSH2 0x2AA9 DUP14 PUSH2 0x755 JUMP JUMPDEST DUP8 PUSH2 0x7FD JUMP JUMPDEST SWAP1 PUSH2 0x2587 JUMP JUMPDEST SWAP8 PUSH2 0x755 JUMP JUMPDEST PUSH2 0x27B8 JUMP JUMPDEST SWAP2 PUSH2 0x27CC JUMP JUMPDEST SWAP1 PUSH2 0x27D9 JUMP JUMPDEST SWAP12 PUSH2 0x27CC JUMP JUMPDEST DUP12 PUSH2 0x27F3 JUMP JUMPDEST SWAP1 PUSH2 0x2540 JUMP JUMPDEST SWAP6 PUSH2 0x29E9 DUP11 PUSH2 0x27CC JUMP JUMPDEST PUSH2 0x280E JUMP JUMPDEST POP POP POP POP POP PUSH4 0xFFFFFFFF SWAP1 JUMP JUMPDEST SWAP1 PUSH2 0x2B05 PUSH1 0x8 PUSH2 0x755 JUMP JUMPDEST SWAP2 PUSH2 0x2B13 PUSH2 0x25C0 DUP5 DUP5 PUSH2 0x24EE JUMP JUMPDEST SWAP1 PUSH2 0x28E9 DUP3 PUSH2 0x2B21 DUP6 PUSH2 0x251C JUMP JUMPDEST SWAP6 PUSH1 0x2 DUP5 ADD SWAP2 PUSH2 0x2B34 PUSH2 0x25E4 DUP8 DUP6 PUSH2 0x2540 JUMP JUMPDEST SWAP6 PUSH1 0x1 SWAP7 PUSH2 0x2B66 PUSH2 0x2B62 PUSH2 0x2B50 PUSH2 0x2B4A DUP12 PUSH2 0x755 JUMP JUMPDEST DUP14 PUSH2 0x2870 JUMP JUMPDEST PUSH2 0x2B59 DUP12 PUSH2 0x772 JUMP JUMPDEST SWAP9 DUP10 SWAP2 DUP3 PUSH2 0x77F JUMP JUMPDEST NOT SWAP1 JUMP JUMPDEST AND SWAP6 PUSH1 0x0 DUP8 PUSH2 0x2B77 PUSH2 0x793 DUP4 PUSH2 0x772 JUMP JUMPDEST GT ISZERO PUSH2 0x2BA6 JUMPI POP POP POP POP POP POP POP PUSH2 0xF3 SWAP4 PUSH2 0x2BA1 PUSH2 0x2A0C SWAP4 PUSH2 0xB1E PUSH2 0x1FE3 PUSH2 0x2A97 PUSH2 0x2938 SWAP7 PUSH2 0x322A JUMP JUMPDEST PUSH2 0x7FD JUMP JUMPDEST SWAP3 SWAP6 SWAP10 POP SWAP3 DUP2 PUSH2 0x2BBC SWAP3 SWAP6 SWAP9 SWAP10 POP DUP2 SWAP8 POP PUSH2 0x254A JUMP JUMPDEST PUSH2 0x2BC5 SWAP1 PUSH2 0x2566 JUMP JUMPDEST SWAP3 PUSH2 0x2BD0 PUSH1 0xFF PUSH2 0x27A8 JUMP JUMPDEST AND PUSH2 0x2BDA SWAP1 PUSH2 0x2566 JUMP JUMPDEST SWAP3 DUP8 DUP4 ADD SWAP9 PUSH2 0x2BE9 DUP3 DUP12 PUSH2 0x2587 JUMP JUMPDEST PUSH2 0x2BF2 SWAP1 PUSH2 0x1F9 JUMP JUMPDEST DUP2 PUSH2 0x2BFC DUP12 PUSH2 0x755 JUMP JUMPDEST PUSH2 0x2C06 SWAP1 DUP9 PUSH2 0x2870 JUMP JUMPDEST PUSH2 0x2C10 SWAP1 DUP3 PUSH2 0x77F JUMP JUMPDEST SWAP1 PUSH2 0x2C1A SWAP2 PUSH2 0xE25 JUMP JUMPDEST NOT AND SWAP4 DUP5 PUSH2 0x2C27 DUP6 PUSH2 0x772 JUMP JUMPDEST LT ISZERO PUSH2 0x2C74 JUMPI POP POP POP POP PUSH2 0xF3 SWAP7 POP PUSH2 0x2A06 SWAP4 PUSH2 0x2A01 PUSH2 0x29FB PUSH2 0x2C6F PUSH2 0x25E4 PUSH2 0x29EF PUSH2 0x293D SWAP11 SWAP9 PUSH2 0x2AC6 PUSH2 0x29E4 PUSH2 0x2A0C SWAP11 DUP16 PUSH2 0x2BA1 SWAP1 PUSH2 0xB1E PUSH2 0x1FE3 PUSH2 0x2A97 PUSH2 0x2A06 SWAP16 PUSH2 0x322A JUMP JUMPDEST PUSH2 0x322A JUMP JUMPDEST DUP4 SWAP7 POP PUSH2 0x2CA6 SWAP6 POP PUSH2 0x2B62 SWAP3 SWAP5 POP PUSH2 0x2CA0 PUSH2 0x2C96 PUSH2 0x2A35 SWAP6 PUSH2 0x28E9 SWAP4 ADD PUSH2 0x1F9 JUMP JUMPDEST SWAP6 PUSH2 0x2932 DUP13 PUSH2 0x755 JUMP JUMPDEST DUP3 PUSH2 0x77F JUMP JUMPDEST DUP2 GT ISZERO PUSH2 0x2AED JUMPI PUSH2 0x2A0C PUSH2 0x2A06 DUP4 PUSH2 0x2A01 PUSH2 0x2AE8 PUSH2 0x2ADE PUSH2 0x2C6F PUSH2 0x25E4 PUSH2 0x293D SWAP11 PUSH2 0x2AD8 PUSH2 0x2AD2 PUSH2 0xF3 SWAP16 DUP16 PUSH2 0x2AC6 PUSH2 0x2A06 SWAP16 DUP3 SWAP16 SWAP1 PUSH2 0x2ABB PUSH2 0x29E4 PUSH2 0x2ACC SWAP7 PUSH2 0xB1E PUSH2 0x2AB5 PUSH2 0x2C6F PUSH2 0x25E4 PUSH2 0x2A9C PUSH2 0x2A97 PUSH2 0x2AC0 SWAP11 PUSH2 0x322A JUMP JUMPDEST PUSH2 0x2D13 SWAP1 PUSH1 0x1 PUSH1 0x1 PUSH1 0xA0 SHL SUB AND PUSH2 0x235F JUMP JUMPDEST ADD SWAP1 PUSH1 0x1 PUSH1 0x1 PUSH1 0xA0 SHL SUB DUP3 GT PUSH2 0x819 JUMPI JUMP JUMPDEST SWAP5 SWAP3 SWAP4 SWAP1 SWAP2 SWAP4 PUSH2 0x2D33 PUSH1 0x0 SWAP1 JUMP JUMPDEST POP PUSH1 0x0 SWAP1 DUP3 ISZERO PUSH2 0x2E04 JUMPI PUSH2 0x2D5D DUP8 PUSH2 0x2D57 DUP9 PUSH2 0x2D52 PUSH1 0x1 PUSH1 0x60 SHL PUSH2 0x79C JUMP JUMPDEST PUSH2 0x2351 JUMP JUMPDEST DUP7 PUSH2 0x345F JUMP JUMPDEST DUP6 LT ISZERO PUSH2 0x2DA7 JUMPI POP POP ISZERO PUSH2 0x2D8E JUMPI PUSH2 0x2D8A SWAP1 PUSH2 0x2D84 PUSH2 0x2D7D DUP5 DUP4 DUP9 PUSH2 0x34C5 JUMP JUMPDEST DUP1 SWAP3 PUSH2 0x23C9 JUMP JUMPDEST SWAP4 PUSH2 0x2D01 JUMP JUMPDEST SWAP3 SWAP4 JUMP JUMPDEST PUSH2 0x2D8A SWAP1 PUSH2 0x23BE DUP6 PUSH2 0x2DA0 DUP6 DUP5 PUSH2 0x3490 JUMP JUMPDEST DUP1 SWAP4 PUSH2 0x345F JUMP JUMPDEST SWAP6 SWAP3 SWAP5 SWAP4 POP POP ISZERO PUSH2 0x2DE2 JUMPI PUSH2 0x2DD1 PUSH2 0x2DC9 PUSH2 0x2DD7 SWAP4 PUSH2 0x2D52 PUSH1 0x1 PUSH1 0x60 SHL PUSH2 0x79C JUMP JUMPDEST SWAP2 DUP3 DUP6 PUSH2 0x345F JUMP JUMPDEST SWAP3 PUSH2 0x23C9 JUMP JUMPDEST SWAP1 PUSH2 0x2D8A PUSH1 0x0 PUSH2 0x79C JUMP JUMPDEST PUSH2 0x2DF6 SWAP2 PUSH2 0x2DF0 DUP2 DUP6 PUSH2 0x23C9 JUMP JUMPDEST SWAP4 PUSH2 0x345F JUMP JUMPDEST SWAP1 PUSH2 0x2D8A PUSH1 0x1 PUSH1 0x60 SHL PUSH2 0x79C JUMP JUMPDEST PUSH2 0x2E0E DUP7 DUP6 PUSH2 0x23C9 JUMP JUMPDEST PUSH2 0x2D5D JUMP JUMPDEST PUSH1 0x20 DUP1 DUP3 MSTORE PUSH2 0xF3 SWAP3 SWAP2 ADD SWAP1 PUSH2 0x271B JUMP JUMPDEST PUSH2 0x2794 PUSH2 0x27A3 PUSH2 0xDD SWAP3 PUSH2 0x2E37 PUSH1 0x40 MLOAD SWAP1 JUMP JUMPDEST PUSH4 0x104C13EB PUSH1 0xE2 SHL PUSH1 0x20 DUP3 ADD MSTORE SWAP3 DUP4 SWAP2 PUSH1 0x24 DUP4 ADD PUSH2 0x2E13 JUMP JUMPDEST PUSH2 0x357 PUSH2 0xDD SWAP5 PUSH2 0x958 PUSH2 0x2E76 PUSH1 0x60 SWAP6 SWAP10 SWAP9 SWAP7 SWAP10 PUSH1 0x80 DUP7 ADD SWAP1 DUP7 DUP3 SUB PUSH1 0x0 DUP9 ADD MSTORE PUSH2 0x271B JUMP JUMPDEST SWAP9 PUSH1 0x20 DUP6 ADD MSTORE JUMP JUMPDEST PUSH2 0x2794 PUSH2 0xDD SWAP5 PUSH2 0x27A3 SWAP4 SWAP5 PUSH2 0x2E93 PUSH1 0x40 MLOAD SWAP1 JUMP JUMPDEST PUSH4 0xA7A87853 PUSH1 0xE0 SHL PUSH1 0x20 DUP3 ADD MSTORE SWAP6 DUP7 SWAP5 PUSH1 0x24 DUP7 ADD PUSH2 0x2E50 JUMP JUMPDEST SWAP2 SWAP3 SWAP2 SWAP1 PUSH1 0x0 SWAP1 PUSH1 0x0 NOT DUP2 DUP5 MULMOD SWAP3 DUP2 DUP2 MUL SWAP4 DUP5 DUP1 DUP3 LT SWAP2 SUB SUB SWAP3 PUSH2 0x2ED0 PUSH1 0x0 PUSH2 0x772 JUMP JUMPDEST DUP5 EQ PUSH2 0x2FD2 JUMPI DUP7 DUP5 LT ISZERO PUSH2 0x2FAE JUMPI SWAP3 DUP7 PUSH2 0xF3 SWAP7 SWAP8 SWAP4 PUSH2 0x2F1A SWAP4 PUSH2 0x2F2D SWAP7 POP MULMOD DUP1 DUP7 SUB SWAP6 LT SWAP1 SUB PUSH1 0x1 PUSH2 0x2F07 DUP5 NOT PUSH2 0x493 DUP4 PUSH2 0x772 JUMP JUMPDEST DUP5 AND DUP1 DUP1 SWAP6 DIV SWAP7 DIV SWAP4 DUP1 PUSH1 0x0 SUB DIV ADD MUL SWAP1 JUMP JUMPDEST OR SWAP2 PUSH2 0x2F2D PUSH2 0x2F31 DUP3 PUSH2 0x2F2D PUSH1 0x3 PUSH2 0x772 JUMP JUMPDEST MUL SWAP1 JUMP JUMPDEST PUSH2 0x2F62 PUSH2 0x2FA8 PUSH2 0x2FA2 PUSH2 0x2F93 PUSH2 0x2F84 PUSH2 0x2F75 PUSH2 0x2F66 PUSH1 0x2 SWAP8 PUSH2 0x2F52 DUP10 PUSH2 0x772 JUMP JUMPDEST XOR PUSH2 0x2F2D DUP12 DUP3 MUL PUSH2 0x2F62 DUP12 PUSH2 0x772 JUMP JUMPDEST SUB SWAP1 JUMP JUMPDEST PUSH2 0x2F2D DUP11 DUP3 MUL PUSH2 0x2F62 DUP11 PUSH2 0x772 JUMP JUMPDEST PUSH2 0x2F2D DUP10 DUP3 MUL PUSH2 0x2F62 DUP10 PUSH2 0x772 JUMP JUMPDEST PUSH2 0x2F2D DUP9 DUP3 MUL PUSH2 0x2F62 DUP9 PUSH2 0x772 JUMP JUMPDEST PUSH2 0x2F2D DUP8 DUP3 MUL PUSH2 0x2F62 DUP8 PUSH2 0x772 JUMP JUMPDEST DUP1 SWAP6 MUL SWAP1 JUMP JUMPDEST SWAP2 PUSH2 0x772 JUMP JUMPDEST DUP7 DUP5 PUSH2 0xBBC PUSH2 0x2FBC PUSH1 0x40 MLOAD SWAP1 JUMP JUMPDEST PUSH4 0x1DCF3063 PUSH1 0xE2 SHL DUP2 MSTORE SWAP3 DUP4 SWAP3 PUSH1 0x4 DUP5 ADD PUSH2 0x344 JUMP JUMPDEST POP POP POP POP SWAP2 PUSH2 0xF3 SWAP2 SWAP3 PUSH2 0x1BF7 JUMP JUMPDEST PUSH2 0xDD SWAP1 PUSH1 0x1 PUSH2 0x3522 JUMP JUMPDEST SWAP1 PUSH1 0x0 DUP1 SWAP3 PUSH2 0x3004 PUSH2 0x2FFE PUSH1 0x7F PUSH2 0x755 JUMP JUMPDEST DUP3 PUSH2 0x1BC8 JUMP JUMPDEST SWAP2 PUSH1 0x0 SWAP3 PUSH2 0x3014 PUSH2 0x793 DUP6 PUSH2 0x772 JUMP JUMPDEST SUB PUSH2 0x31DD JUMPI JUMPDEST POP PUSH2 0x3028 PUSH2 0x2FFE PUSH1 0x3F PUSH2 0x755 JUMP JUMPDEST PUSH2 0x3034 PUSH2 0x793 DUP5 PUSH2 0x772 JUMP JUMPDEST SUB PUSH2 0x31BB JUMPI JUMPDEST PUSH2 0x3047 PUSH2 0x2FFE PUSH1 0x1F PUSH2 0x755 JUMP JUMPDEST PUSH2 0x3053 PUSH2 0x793 DUP5 PUSH2 0x772 JUMP JUMPDEST SUB PUSH2 0x3199 JUMPI JUMPDEST PUSH2 0x3066 PUSH2 0x2FFE PUSH1 0xF PUSH2 0x755 JUMP JUMPDEST PUSH2 0x3072 PUSH2 0x793 DUP5 PUSH2 0x772 JUMP JUMPDEST SUB PUSH2 0x3177 JUMPI JUMPDEST PUSH2 0x3085 PUSH2 0x2FFE PUSH1 0x7 PUSH2 0x755 JUMP JUMPDEST PUSH2 0x3091 PUSH2 0x793 DUP5 PUSH2 0x772 JUMP JUMPDEST SUB PUSH2 0x3155 JUMPI JUMPDEST PUSH2 0x30A4 PUSH2 0x2FFE PUSH1 0x3 PUSH2 0x755 JUMP JUMPDEST PUSH2 0x30B0 PUSH2 0x793 DUP5 PUSH2 0x772 JUMP JUMPDEST SUB PUSH2 0x3133 JUMPI JUMPDEST PUSH2 0x30C0 PUSH1 0x1 PUSH2 0x755 JUMP JUMPDEST SWAP2 PUSH2 0x30CB DUP4 DUP4 PUSH2 0x1BC8 JUMP JUMPDEST PUSH2 0x30D7 PUSH2 0x793 DUP4 PUSH2 0x772 JUMP JUMPDEST SUB PUSH2 0x310A JUMPI JUMPDEST PUSH2 0x30E6 SWAP1 PUSH2 0x772 JUMP JUMPDEST DUP2 SUB PUSH2 0x30F0 JUMPI POP POP JUMP JUMPDEST PUSH2 0xF3 SWAP3 SWAP4 SWAP2 PUSH2 0x30FF SWAP2 PUSH2 0x1BC8 JUMP JUMPDEST POP PUSH2 0x1F9B PUSH1 0x1 PUSH2 0x772 JUMP JUMPDEST SWAP4 SWAP1 PUSH2 0x312B PUSH2 0x3120 PUSH2 0x30E6 SWAP3 PUSH2 0x1FE9 PUSH1 0x2 PUSH2 0x755 JUMP JUMPDEST SWAP3 PUSH2 0x1F9B PUSH1 0x2 PUSH2 0x772 JUMP JUMPDEST SWAP5 SWAP1 POP PUSH2 0x30DD JUMP JUMPDEST PUSH2 0x3144 PUSH2 0x314F SWAP2 PUSH2 0x1FE9 PUSH1 0x4 PUSH2 0x755 JUMP JUMPDEST SWAP4 PUSH2 0x1F9B PUSH1 0x4 PUSH2 0x772 JUMP JUMPDEST SWAP3 PUSH2 0x30B6 JUMP JUMPDEST PUSH2 0x3166 PUSH2 0x3171 SWAP2 PUSH2 0x1FE9 PUSH1 0x8 PUSH2 0x755 JUMP JUMPDEST SWAP4 PUSH2 0x1F9B PUSH1 0x8 PUSH2 0x772 JUMP JUMPDEST SWAP3 PUSH2 0x3097 JUMP JUMPDEST PUSH2 0x3188 PUSH2 0x3193 SWAP2 PUSH2 0x1FE9 PUSH1 0x10 PUSH2 0x755 JUMP JUMPDEST SWAP4 PUSH2 0x1F9B PUSH1 0x10 PUSH2 0x772 JUMP JUMPDEST SWAP3 PUSH2 0x3078 JUMP JUMPDEST PUSH2 0x31AA PUSH2 0x31B5 SWAP2 PUSH2 0x1FE9 PUSH1 0x20 PUSH2 0x755 JUMP JUMPDEST SWAP4 PUSH2 0x1F9B PUSH1 0x20 PUSH2 0x772 JUMP JUMPDEST SWAP3 PUSH2 0x3059 JUMP JUMPDEST PUSH2 0x31CC PUSH2 0x31D7 SWAP2 PUSH2 0x1FE9 PUSH1 0x40 PUSH2 0x755 JUMP JUMPDEST SWAP4 PUSH2 0x1F9B PUSH1 0x40 PUSH2 0x772 JUMP JUMPDEST SWAP3 PUSH2 0x303A JUMP JUMPDEST SWAP4 POP PUSH2 0x31F0 PUSH2 0x31FB SWAP2 PUSH2 0x1FE9 PUSH1 0x80 PUSH2 0x755 JUMP JUMPDEST SWAP4 PUSH2 0x1F9B PUSH1 0x80 PUSH2 0x772 JUMP JUMPDEST SWAP3 CODESIZE PUSH2 0x301A JUMP JUMPDEST PUSH2 0xF3 PUSH2 0xF3 PUSH2 0xF3 SWAP3 PUSH8 0xFFFFFFFFFFFFFFFF AND SWAP1 JUMP JUMPDEST PUSH2 0xF3 PUSH2 0xF3 PUSH2 0xF3 SWAP3 PUSH2 0xFFFF AND SWAP1 JUMP JUMPDEST PUSH2 0xF3 SWAP1 PUSH1 0x0 SWAP1 DUP2 PUSH2 0x3242 PUSH1 0x1 PUSH1 0x1 PUSH1 0x80 SHL SUB PUSH2 0x22E2 JUMP JUMPDEST DUP3 AND SWAP3 PUSH1 0x0 SWAP4 PUSH2 0x3254 PUSH2 0x793 DUP7 PUSH2 0x772 JUMP JUMPDEST GT ISZERO PUSH2 0x3449 JUMPI POP PUSH2 0x3269 SWAP1 PUSH2 0x1F9B PUSH1 0x80 PUSH2 0x772 JUMP JUMPDEST PUSH2 0x327A PUSH8 0xFFFFFFFFFFFFFFFF PUSH2 0x3202 JUMP JUMPDEST DUP3 AND PUSH2 0x3288 PUSH2 0x793 DUP6 PUSH2 0x772 JUMP JUMPDEST GT ISZERO PUSH2 0x3434 JUMPI PUSH2 0x329C SWAP1 PUSH2 0x1F9B PUSH1 0x40 PUSH2 0x772 JUMP JUMPDEST PUSH2 0x32A9 PUSH4 0xFFFFFFFF PUSH2 0xDCF JUMP JUMPDEST DUP3 AND PUSH2 0x32B7 PUSH2 0x793 DUP6 PUSH2 0x772 JUMP JUMPDEST GT ISZERO PUSH2 0x341F JUMPI PUSH2 0x32CB SWAP1 PUSH2 0x1F9B PUSH1 0x20 PUSH2 0x772 JUMP JUMPDEST PUSH2 0x32D6 PUSH2 0xFFFF PUSH2 0x3219 JUMP JUMPDEST DUP3 AND PUSH2 0x32E4 PUSH2 0x793 DUP6 PUSH2 0x772 JUMP JUMPDEST GT ISZERO PUSH2 0x340A JUMPI PUSH2 0x32F8 SWAP1 PUSH2 0x1F9B PUSH1 0x10 PUSH2 0x772 JUMP JUMPDEST PUSH2 0x3302 PUSH1 0xFF PUSH2 0x1C10 JUMP JUMPDEST DUP3 AND PUSH2 0x3310 PUSH2 0x793 DUP6 PUSH2 0x772 JUMP JUMPDEST GT ISZERO PUSH2 0x33F5 JUMPI PUSH2 0x3324 SWAP1 PUSH2 0x1F9B PUSH1 0x8 PUSH2 0x772 JUMP JUMPDEST PUSH2 0x332E PUSH1 0xF PUSH2 0x772 JUMP JUMPDEST DUP3 AND PUSH2 0x333C PUSH2 0x793 DUP6 PUSH2 0x772 JUMP JUMPDEST GT ISZERO PUSH2 0x33E0 JUMPI PUSH2 0x3350 SWAP1 PUSH2 0x1F9B PUSH1 0x4 PUSH2 0x772 JUMP JUMPDEST PUSH2 0x335A PUSH1 0x3 PUSH2 0x772 JUMP JUMPDEST DUP3 AND PUSH2 0x3368 PUSH2 0x793 DUP6 PUSH2 0x772 JUMP JUMPDEST GT ISZERO PUSH2 0x33CA JUMPI PUSH2 0x337C SWAP1 PUSH2 0x1F9B PUSH1 0x2 PUSH2 0x772 JUMP JUMPDEST SWAP2 JUMPDEST PUSH2 0x3396 PUSH2 0x793 PUSH2 0x338E PUSH1 0x1 PUSH2 0x772 JUMP JUMPDEST DUP5 AND SWAP3 PUSH2 0x772 JUMP JUMPDEST GT ISZERO PUSH2 0x33B6 JUMPI POP PUSH2 0x33AB SWAP1 PUSH2 0x1F9B PUSH1 0x1 PUSH2 0x772 JUMP JUMPDEST PUSH2 0x28E9 PUSH2 0x100 PUSH2 0x772 JUMP JUMPDEST PUSH2 0x33C4 SWAP1 PUSH2 0x1FE9 PUSH1 0x1 PUSH2 0x755 JUMP JUMPDEST POP PUSH2 0x33AB JUMP JUMPDEST SWAP2 SWAP1 PUSH2 0x33DA SWAP1 PUSH2 0x1FE9 PUSH1 0x2 PUSH2 0x755 JUMP JUMPDEST SWAP1 PUSH2 0x337E JUMP JUMPDEST SWAP1 PUSH2 0x33EF SWAP1 PUSH2 0x1FE9 PUSH1 0x4 PUSH2 0x755 JUMP JUMPDEST SWAP1 PUSH2 0x3350 JUMP JUMPDEST SWAP1 PUSH2 0x3404 SWAP1 PUSH2 0x1FE9 PUSH1 0x8 PUSH2 0x755 JUMP JUMPDEST SWAP1 PUSH2 0x3324 JUMP JUMPDEST SWAP1 PUSH2 0x3419 SWAP1 PUSH2 0x1FE9 PUSH1 0x10 PUSH2 0x755 JUMP JUMPDEST SWAP1 PUSH2 0x32F8 JUMP JUMPDEST SWAP1 PUSH2 0x342E SWAP1 PUSH2 0x1FE9 PUSH1 0x20 PUSH2 0x755 JUMP JUMPDEST SWAP1 PUSH2 0x32CB JUMP JUMPDEST SWAP1 PUSH2 0x3443 SWAP1 PUSH2 0x1FE9 PUSH1 0x40 PUSH2 0x755 JUMP JUMPDEST SWAP1 PUSH2 0x329C JUMP JUMPDEST SWAP2 PUSH2 0x3459 SWAP2 POP PUSH2 0x1FE9 PUSH1 0x80 PUSH2 0x755 JUMP JUMPDEST SWAP1 PUSH2 0x3269 JUMP JUMPDEST SWAP1 PUSH2 0x234B PUSH2 0x3476 PUSH2 0x230D PUSH2 0xF3 SWAP6 SWAP5 PUSH2 0x2307 PUSH1 0x0 SWAP1 JUMP JUMPDEST SWAP2 PUSH2 0x237F JUMP JUMPDEST PUSH2 0x19A SWAP1 PUSH2 0x797 PUSH2 0x896 PUSH2 0xF3 SWAP5 PUSH1 0xFF AND SWAP1 JUMP JUMPDEST PUSH2 0xF3 SWAP2 PUSH2 0xB33 SWAP2 PUSH2 0x34BF PUSH2 0x34BA PUSH2 0x34A6 PUSH2 0x768 JUMP JUMPDEST PUSH2 0x34B4 DUP2 PUSH2 0xB2E PUSH1 0x1 PUSH2 0x772 JUMP JUMPDEST SWAP4 PUSH2 0x347C JUMP JUMPDEST PUSH2 0x22E2 JUMP JUMPDEST SWAP2 PUSH2 0x2EAC JUMP JUMPDEST PUSH2 0xF3 SWAP3 PUSH2 0x34BF PUSH2 0x34BA PUSH2 0xB33 SWAP5 PUSH2 0x34DB PUSH1 0x0 SWAP1 JUMP JUMPDEST POP PUSH2 0x34E4 PUSH2 0x768 JUMP JUMPDEST SWAP1 PUSH2 0x347C JUMP JUMPDEST PUSH1 0x0 DUP1 SWAP2 PUSH2 0x3500 PUSH11 0x636F6E736F6C652E6C6F67 SWAP1 JUMP JUMPDEST PUSH1 0x20 DUP3 MLOAD SWAP3 ADD SWAP1 GAS STATICCALL POP JUMP JUMPDEST PUSH4 0x4E487B71 PUSH1 0xE0 SHL PUSH1 0x0 MSTORE PUSH1 0x51 PUSH1 0x4 MSTORE PUSH1 0x24 PUSH1 0x0 REVERT JUMPDEST PUSH1 0x1 SUB PUSH2 0x350C JUMPI PUSH2 0xDD SWAP1 PUSH2 0x34EA JUMP INVALID LOG2 PUSH5 0x6970667358 0x22 SLT KECCAK256 0xC3 SWAP14 EXTCODECOPY PUSH5 0xB2CB966816 CREATE CALLDATALOAD PUSH25 0x9809F4EB158E8C07DA3282C4E726B955B0A2DDA64736F6C63 NUMBER STOP ADDMOD XOR STOP CALLER "},"methodIdentifiers":{"composition()":"d456b5dd","liquidity()":"1a686502","mint(address,uint32,uint128,bytes)":"428716f8","onERC1155BatchReceived(address,address,uint256[],uint256[],bytes)":"bc197c81","onERC1155Received(address,address,uint256,uint256,bytes)":"f23a6e61","slot()":"1a88bc66","supportsInterface(bytes4)":"01ffc9a7","swap(uint256,uint256,bool,bytes)":"dd42d4c6","token0()":"0dfe1681","token1()":"d21220a7"}}}}}