{"contracts/Tokens/Token.sol":{"Token":{"abi":[{"inputs":[{"internalType":"string","name":"uri","type":"string"}],"stateMutability":"nonpayable","type":"constructor"},{"inputs":[{"internalType":"address","name":"sender","type":"address"},{"internalType":"uint256","name":"balance","type":"uint256"},{"internalType":"uint256","name":"needed","type":"uint256"},{"internalType":"uint256","name":"tokenId","type":"uint256"}],"name":"ERC1155InsufficientBalance","type":"error"},{"inputs":[{"internalType":"address","name":"approver","type":"address"}],"name":"ERC1155InvalidApprover","type":"error"},{"inputs":[{"internalType":"uint256","name":"idsLength","type":"uint256"},{"internalType":"uint256","name":"valuesLength","type":"uint256"}],"name":"ERC1155InvalidArrayLength","type":"error"},{"inputs":[{"internalType":"address","name":"operator","type":"address"}],"name":"ERC1155InvalidOperator","type":"error"},{"inputs":[{"internalType":"address","name":"receiver","type":"address"}],"name":"ERC1155InvalidReceiver","type":"error"},{"inputs":[{"internalType":"address","name":"sender","type":"address"}],"name":"ERC1155InvalidSender","type":"error"},{"inputs":[{"internalType":"address","name":"operator","type":"address"},{"internalType":"address","name":"owner","type":"address"}],"name":"ERC1155MissingApprovalForAll","type":"error"},{"anonymous":false,"inputs":[{"indexed":true,"internalType":"address","name":"account","type":"address"},{"indexed":true,"internalType":"address","name":"operator","type":"address"},{"indexed":false,"internalType":"bool","name":"approved","type":"bool"}],"name":"ApprovalForAll","type":"event"},{"anonymous":false,"inputs":[{"indexed":true,"internalType":"address","name":"operator","type":"address"},{"indexed":true,"internalType":"address","name":"from","type":"address"},{"indexed":true,"internalType":"address","name":"to","type":"address"},{"indexed":false,"internalType":"uint256[]","name":"ids","type":"uint256[]"},{"indexed":false,"internalType":"uint256[]","name":"values","type":"uint256[]"}],"name":"TransferBatch","type":"event"},{"anonymous":false,"inputs":[{"indexed":true,"internalType":"address","name":"operator","type":"address"},{"indexed":true,"internalType":"address","name":"from","type":"address"},{"indexed":true,"internalType":"address","name":"to","type":"address"},{"indexed":false,"internalType":"uint256","name":"id","type":"uint256"},{"indexed":false,"internalType":"uint256","name":"value","type":"uint256"}],"name":"TransferSingle","type":"event"},{"anonymous":false,"inputs":[{"indexed":false,"internalType":"string","name":"value","type":"string"},{"indexed":true,"internalType":"uint256","name":"id","type":"uint256"}],"name":"URI","type":"event"},{"inputs":[{"internalType":"address","name":"account","type":"address"},{"internalType":"uint256","name":"id","type":"uint256"}],"name":"balanceOf","outputs":[{"internalType":"uint256","name":"","type":"uint256"}],"stateMutability":"view","type":"function"},{"inputs":[{"internalType":"address[]","name":"accounts","type":"address[]"},{"internalType":"uint256[]","name":"ids","type":"uint256[]"}],"name":"balanceOfBatch","outputs":[{"internalType":"uint256[]","name":"","type":"uint256[]"}],"stateMutability":"view","type":"function"},{"inputs":[{"internalType":"address","name":"account","type":"address"},{"internalType":"address","name":"operator","type":"address"}],"name":"isApprovedForAll","outputs":[{"internalType":"bool","name":"","type":"bool"}],"stateMutability":"view","type":"function"},{"inputs":[{"internalType":"uint256","name":"bin","type":"uint256"},{"internalType":"uint256","name":"amount","type":"uint256"},{"internalType":"bytes","name":"data","type":"bytes"}],"name":"recharge","outputs":[],"stateMutability":"nonpayable","type":"function"},{"inputs":[{"internalType":"uint256[]","name":"bin","type":"uint256[]"},{"internalType":"uint256[]","name":"amount","type":"uint256[]"},{"internalType":"bytes","name":"data","type":"bytes"}],"name":"rechargeBatch","outputs":[],"stateMutability":"nonpayable","type":"function"},{"inputs":[{"internalType":"address","name":"from","type":"address"},{"internalType":"address","name":"to","type":"address"},{"internalType":"uint256[]","name":"ids","type":"uint256[]"},{"internalType":"uint256[]","name":"values","type":"uint256[]"},{"internalType":"bytes","name":"data","type":"bytes"}],"name":"safeBatchTransferFrom","outputs":[],"stateMutability":"nonpayable","type":"function"},{"inputs":[{"internalType":"address","name":"from","type":"address"},{"internalType":"address","name":"to","type":"address"},{"internalType":"uint256","name":"id","type":"uint256"},{"internalType":"uint256","name":"value","type":"uint256"},{"internalType":"bytes","name":"data","type":"bytes"}],"name":"safeTransferFrom","outputs":[],"stateMutability":"nonpayable","type":"function"},{"inputs":[{"internalType":"address","name":"operator","type":"address"},{"internalType":"bool","name":"approved","type":"bool"}],"name":"setApprovalForAll","outputs":[],"stateMutability":"nonpayable","type":"function"},{"inputs":[{"internalType":"bytes4","name":"interfaceId","type":"bytes4"}],"name":"supportsInterface","outputs":[{"internalType":"bool","name":"","type":"bool"}],"stateMutability":"view","type":"function"},{"inputs":[{"internalType":"uint256","name":"","type":"uint256"}],"name":"uri","outputs":[{"internalType":"string","name":"","type":"string"}],"stateMutability":"view","type":"function"}],"evm":{"bytecode":{"linkReferences":{},"object":"60806040523462000030576200001e620000186200014d565b62000170565b60405161147262000384823961147290f35b600080fd5b634e487b7160e01b600052604160045260246000fd5b90601f01601f191681019081106001600160401b038211176200006d57604052565b62000035565b906200008a6200008260405190565b92836200004b565b565b6001600160401b0381116200006d57602090601f01601f19160190565b60005b838110620000bd5750506000910152565b8181015183820152602001620000ac565b90929192620000e7620000e1826200008c565b62000073565b938185528183011162000030576200008a916020850190620000a9565b9080601f83011215620000305781516200012192602001620000ce565b90565b90602082820312620000305781516001600160401b038111620000305762000121920162000104565b62000121620017f680380380620001648162000073565b92833981019062000124565b6200008a906200008a9062000376565b634e487b7160e01b600052602260045260246000fd5b9060016002830492168015620001b9575b6020831014620001b357565b62000180565b91607f1691620001a7565b6200012162000121620001219290565b9190620001e9620001216200020193620001c4565b90835460001960089290920291821b191691901b1790565b9055565b6200008a91600091620001d4565b8181106200021f575050565b806200022f600060019362000205565b0162000213565b9190601f81116200024657505050565b6200025a6200008a93600052602060002090565b906020601f8401819004830193106200027e575b6020601f90910104019062000213565b90915081906200026e565b9062000293815190565b906001600160401b0382116200006d57620002bb82620002b4855462000196565b8562000236565b602090601f8311600114620002fa5762000201929160009183620002ee575b5050600019600883021c1916906002021790565b015190503880620002da565b601f198316916200031085600052602060002090565b9260005b818110620003515750916002939185600196941062000337575b50505002019055565b01516000196008601f8516021c191690553880806200032e565b9193602060018192878701518155019501920162000314565b906200008a9162000289565b6200008a9060026200036a56fe6080604052600436101561001257600080fd5b60003560e01c8062fdd58e146100b157806301ffc9a7146100ac5780630e89341c146100a75780632eb2c2d6146100a25780634e1273f41461009d578063a22cb46514610098578063e985e9c514610093578063efaa50181461008e578063f242432a146100895763f737e496036100d757610713565b6106d4565b61067a565b6105f6565b6105ba565b61055a565b610421565b610230565b610182565b610121565b6001600160a01b031690565b90565b6001600160a01b0381165b036100d757565b600080fd5b905035906100e9826100c5565b565b806100d0565b905035906100e9826100eb565b91906040838203126100d7576100c290602061011a82866100dc565b94016100f1565b346100d75761014d61013d6101373660046100fe565b90610792565b6040519182918290815260200190565b0390f35b6001600160e01b031981166100d0565b905035906100e982610151565b906020828203126100d7576100c291610161565b346100d75761014d61019d61019836600461016e565b6107b7565b6040515b91829182901515815260200190565b906020828203126100d7576100c2916100f1565b60005b8381106101d75750506000910152565b81810151838201526020016101c7565b61020861021160209361021b936101fc815190565b80835293849260200190565b958691016101c4565b601f01601f191690565b0190565b60208082526100c2929101906101e7565b346100d75761014d61024b6102463660046101b0565b6108fa565b6040519182918261021f565b634e487b7160e01b600052604160045260246000fd5b90601f01601f1916810190811067ffffffffffffffff82111761028f57604052565b610257565b906100e96102a160405190565b928361026d565b67ffffffffffffffff811161028f5760208091020190565b909291926102d56102d0826102a8565b610294565b93818552602080860192028301928184116100d757915b8383106102f95750505050565b6020809161030784866100f1565b8152019201916102ec565b9080601f830112156100d7578160206100c2933591016102c0565b67ffffffffffffffff811161028f57602090601f01601f19160190565b90826000939282370152565b909291926103666102d08261032d565b93818552818301116100d7576100e991602085019061034a565b9080601f830112156100d7578160206100c293359101610356565b91909160a0818403126100d7576103b283826100dc565b926103c081602084016100dc565b92604083013567ffffffffffffffff81116100d757826103e1918501610312565b92606081013567ffffffffffffffff81116100d75783610402918301610312565b92608082013567ffffffffffffffff81116100d7576100c29201610380565b346100d75761043d61043436600461039b565b9392909261091f565b604051005b909291926104526102d0826102a8565b93818552602080860192028301928184116100d757915b8383106104765750505050565b6020809161048484866100dc565b815201920191610469565b9080601f830112156100d7578160206100c293359101610442565b9190916040818403126100d757803567ffffffffffffffff81116100d757836104d491830161048f565b92602082013567ffffffffffffffff81116100d7576100c29201610312565b9061051361050c610502845190565b8084529260200190565b9260200190565b9060005b8181106105245750505090565b90919261054161053a6001928651815260200190565b9460200190565b929101610517565b60208082526100c2929101906104f3565b346100d75761014d6105766105703660046104aa565b90610a0c565b60405191829182610549565b8015156100d0565b905035906100e982610582565b91906040838203126100d7576100c29060206105b382866100dc565b940161058a565b346100d75761043d6105cd366004610597565b90610abf565b91906040838203126100d7576100c29060206105ef82866100dc565b94016100dc565b346100d75761014d61019d61060c3660046105d3565b90610aca565b916060838303126100d757823567ffffffffffffffff81116100d7578261063a918501610312565b92602081013567ffffffffffffffff81116100d7578361065b918301610312565b92604082013567ffffffffffffffff81116100d7576100c29201610380565b346100d75761043d61068d366004610612565b91610aec565b91909160a0818403126100d7576106aa83826100dc565b926106b881602084016100dc565b926106c682604085016100f1565b9261040283606083016100f1565b346100d75761043d6106e7366004610693565b93929092610af8565b916060838303126100d75761070582846100f1565b9261065b83602083016100f1565b346100d75761043d6107263660046106f0565b91610b33565b6100c26100c26100c29290565b906107439061072c565b600052602052604060002090565b6100c2906100b6906001600160a01b031682565b6100c290610751565b6100c290610765565b906107439061076e565b6100c29081565b6100c29054610781565b6107b2906107ad6100c2936107a5600090565b506000610739565b610777565b610788565b636cdb3d1360e11b6001600160e01b03198216149081156107e7575b81156107dd575090565b6100c29150610b3f565b6001600160e01b031981166303a24d0760e21b1491506107d3565b634e487b7160e01b600052602260045260246000fd5b9060016002830492168015610838575b602083101461083357565b610802565b91607f1691610828565b8054600093929161085f61085583610818565b8085529360200190565b91600181169081156108b1575060011461087857505050565b61088b9192939450600052602060002090565b916000925b81841061089d5750500190565b805484840152602090930192600101610890565b92949550505060ff1916825215156020020190565b906100c291610842565b906100e96108ea926108e160405190565b938480926108c6565b038361026d565b6100c2906108d0565b506100c260026108f1565b6001600160a01b0391821681529116602082015260400190565b9493929190336001600160a01b0387168114158061096f575b61094757506100e99495610b73565b869061096b61095560405190565b63711bec9160e11b815292839260048401610905565b0390fd5b5061098161097d8289610aca565b1590565b610938565b9081526040810192916100e99160200152565b0152565b906109aa6102d0836102a8565b918252565b369037565b906100e96109ca6109c48461099d565b936102a8565b601f1901602084016109af565b634e487b7160e01b600052603260045260246000fd5b906109f6825190565b811015610a07576020809102010190565b6109d7565b908151610a21610a1d6100c2845190565b9190565b03610a8f57610a36610a31835190565b6109b4565b91610a41600061072c565b610a4c6100c2835190565b811015610a895780610a7e610a71610a67610a849486610c21565b6101378488610c21565b610a7b83886109ed565b52565b60010190565b610a41565b50505090565b519051610a9c565b915190565b9061096b610aa960405190565b635b05999160e01b815292839260048401610986565b6100e9919033610c61565b6100c2916107ad610ae592610add600090565b506001610777565b5460ff1690565b906100e9929133610d12565b9493929190336001600160a01b03871681141580610b20575b61094757506100e99495610d51565b50610b2e61097d8289610aca565b610b11565b906100e9929133610de2565b610b596301ffc9a760e01b5b916001600160e01b03191690565b1490565b6100b66100c26100c29290565b6100c290610b5d565b9493929190610b826000610b6a565b956001600160a01b0387166001600160a01b03831614610bf0576001600160a01b0387166001600160a01b03821614610bc0576100e9959650610e37565b61096b87610bcd60405190565b626a0d4560e21b8152918291600483016001600160a01b03909116815260200190565b61096b87610bfd60405190565b632bfa23e760e11b8152918291600483016001600160a01b03909116815260200190565b9060208091610c2e600090565b50029101015190565b9060ff905b9181191691161790565b90610c566100c2610c5d92151590565b8254610c37565b9055565b610c6b6000610b6a565b6001600160a01b0381166001600160a01b03841614610ce25750610cdd610cd3610ccd83610cc887610cc3886107ad7f17307eab39ab6107e8899845ad3d59bd9653f200f220920489ca2b5937696c31996001610777565b610c46565b61076e565b9361076e565b936101a160405190565b0390a3565b61096b90610cef60405190565b62ced3e160e81b8152918291600483016001600160a01b03909116815260200190565b93929190610d206000610b6a565b946001600160a01b0386166001600160a01b03821614610d44576100e99495610e37565b61096b86610bfd60405190565b909194939294610d616000610b6a565b6001600160a01b0381166001600160a01b03851614610dd5576001600160a01b0381166001600160a01b03841614610dc857506100e99495610dc060405192600184526020840152604083019160018352602083015260408201604052565b929091610e37565b61096b90610bcd60405190565b61096b90610bfd60405190565b90939291610df06000610b6a565b946001600160a01b0386166001600160a01b03841614610d44576100e9949591610dc060405192600184526020840152604083019160018352602083015260408201604052565b91939290610e4782868386610f6e565b610e546100b66000610b6a565b6001600160a01b03821603610e6b575b5050505050565b3392610e75865190565b610e82610a1d600161072c565b03610eb857610ea8610eae96610ea2610e9b600061072c565b8092610c21565b94610c21565b9361139b565b3880808080610e64565b610ec3959293611243565b610eae565b6109996100e994610ef9606094989795610ef2608086019a60008701906001600160a01b03169052565b6020850152565b6040830152565b9060001990610c3c565b90610f1a6100c2610c5d9261072c565b8254610f00565b634e487b7160e01b600052601160045260246000fd5b91908201809211610f4457565b610f21565b60408082526100c2939192610f60918401906104f3565b9160208184039101526104f3565b9392909192610f7b845190565b610f89610a1d6100c2855190565b03611185573393600091610f9c8361072c565b610fa76100c2845190565b8110156110bc57610fb88184610c21565b90610fc38187610c21565b91610fcd86610b6a565b92886001600160a01b0385166001600160a01b038d1603611046575b611010946001600160a01b03165b6001600160a01b03821603611015575b50505060010190565b610f9c565b611029611038916107ad61103e958b610739565b9161103383610788565b610f37565b90610f0a565b388088611007565b5090919261105b6107b28c6107ad868b610739565b82811061109757610ff7839261108f8a8f61108a908f968a6110846110109d9c9b6107ad930390565b94610739565b610f0a565b955050610fe9565b8b61096b85856110a660405190565b6303dee4c560e01b815294859460048601610ec8565b50959294916110c9825190565b6110d6610a1d600161072c565b0361113d5761111c61111c610ccd7fc3d58168c5ae7397731d063d5bbf3d657854427343f4c083240f7aacaa2d0f629594611116610e9b6111229661072c565b99610c21565b9461076e565b9461113861112f60405190565b92839283610986565b0390a4565b509361116f61111c61111c7f4a39dc06d4c0dbc64b70af90fd698a233a518aa5d07e595d983b8c0526c8f7fb9461076e565b9461113861117c60405190565b92839283610f49565b50610a9c610a97845190565b905051906100e982610151565b906020828203126100d7576100c291611191565b93906111fb906100c296946111ee611209956111de60a08a019460008b01906001600160a01b03169052565b6001600160a01b03166020890152565b86820360408801526104f3565b9084820360608601526104f3565b9160808184039101526101e7565b906109aa6102d08361032d565b3d1561123e576112333d611217565b903d6000602084013e565b606090565b92919490853b611256610a1d600061072c565b11611264575b505050505050565b600060209461129c611278610cc88a61076e565b9461128260405190565b9889978896879563bc197c8160e01b8752600487016111b2565b03925af160009181611313575b506112f857506112bf565b38808080808061125c565b6112c7611224565b906112d0825190565b6112dd610a1d600061072c565b036112ef5761096b90610bfd60405190565b50805190602001fd5b61130863bc197c8160e01b610b4b565b03610dd557506112b4565b61133691925060203d60201161133d575b61132e818361026d565b81019061119e565b90386112a9565b503d611324565b91936113876100c2969461138061138e949761137060a088019960008901906001600160a01b03169052565b6001600160a01b03166020870152565b6040850152565b6060830152565b60808184039101526101e7565b92919490853b6113ae610a1d600061072c565b116113bb57505050505050565b60006020946113f36113cf610cc88a61076e565b946113d960405190565b9889978896879563f23a6e6160e01b875260048701611344565b03925af16000918161141b575b5061140b57506112bf565b61130863f23a6e6160e01b610b4b565b61143591925060203d60201161133d5761132e818361026d565b903861140056fea2646970667358221220e41d19fac3dab63b8d215fa6e7a991e831a1c34df426d9b532f80ec55faa460364736f6c63430008180033","opcodes":"PUSH1 0x80 PUSH1 0x40 MSTORE CALLVALUE PUSH3 0x30 JUMPI PUSH3 0x1E PUSH3 0x18 PUSH3 0x14D JUMP JUMPDEST PUSH3 0x170 JUMP JUMPDEST PUSH1 0x40 MLOAD PUSH2 0x1472 PUSH3 0x384 DUP3 CODECOPY PUSH2 0x1472 SWAP1 RETURN JUMPDEST PUSH1 0x0 DUP1 REVERT JUMPDEST PUSH4 0x4E487B71 PUSH1 0xE0 SHL PUSH1 0x0 MSTORE PUSH1 0x41 PUSH1 0x4 MSTORE PUSH1 0x24 PUSH1 0x0 REVERT JUMPDEST SWAP1 PUSH1 0x1F ADD PUSH1 0x1F NOT AND DUP2 ADD SWAP1 DUP2 LT PUSH1 0x1 PUSH1 0x1 PUSH1 0x40 SHL SUB DUP3 GT OR PUSH3 0x6D JUMPI PUSH1 0x40 MSTORE JUMP JUMPDEST PUSH3 0x35 JUMP JUMPDEST SWAP1 PUSH3 0x8A PUSH3 0x82 PUSH1 0x40 MLOAD SWAP1 JUMP JUMPDEST SWAP3 DUP4 PUSH3 0x4B JUMP JUMPDEST JUMP JUMPDEST PUSH1 0x1 PUSH1 0x1 PUSH1 0x40 SHL SUB DUP2 GT PUSH3 0x6D JUMPI PUSH1 0x20 SWAP1 PUSH1 0x1F ADD PUSH1 0x1F NOT AND ADD SWAP1 JUMP JUMPDEST PUSH1 0x0 JUMPDEST DUP4 DUP2 LT PUSH3 0xBD JUMPI POP POP PUSH1 0x0 SWAP2 ADD MSTORE JUMP JUMPDEST DUP2 DUP2 ADD MLOAD DUP4 DUP3 ADD MSTORE PUSH1 0x20 ADD PUSH3 0xAC JUMP JUMPDEST SWAP1 SWAP3 SWAP2 SWAP3 PUSH3 0xE7 PUSH3 0xE1 DUP3 PUSH3 0x8C JUMP JUMPDEST PUSH3 0x73 JUMP JUMPDEST SWAP4 DUP2 DUP6 MSTORE DUP2 DUP4 ADD GT PUSH3 0x30 JUMPI PUSH3 0x8A SWAP2 PUSH1 0x20 DUP6 ADD SWAP1 PUSH3 0xA9 JUMP JUMPDEST SWAP1 DUP1 PUSH1 0x1F DUP4 ADD SLT ISZERO PUSH3 0x30 JUMPI DUP2 MLOAD PUSH3 0x121 SWAP3 PUSH1 0x20 ADD PUSH3 0xCE JUMP JUMPDEST SWAP1 JUMP JUMPDEST SWAP1 PUSH1 0x20 DUP3 DUP3 SUB SLT PUSH3 0x30 JUMPI DUP2 MLOAD PUSH1 0x1 PUSH1 0x1 PUSH1 0x40 SHL SUB DUP2 GT PUSH3 0x30 JUMPI PUSH3 0x121 SWAP3 ADD PUSH3 0x104 JUMP JUMPDEST PUSH3 0x121 PUSH3 0x17F6 DUP1 CODESIZE SUB DUP1 PUSH3 0x164 DUP2 PUSH3 0x73 JUMP JUMPDEST SWAP3 DUP4 CODECOPY DUP2 ADD SWAP1 PUSH3 0x124 JUMP JUMPDEST PUSH3 0x8A SWAP1 PUSH3 0x8A SWAP1 PUSH3 0x376 JUMP JUMPDEST PUSH4 0x4E487B71 PUSH1 0xE0 SHL PUSH1 0x0 MSTORE PUSH1 0x22 PUSH1 0x4 MSTORE PUSH1 0x24 PUSH1 0x0 REVERT JUMPDEST SWAP1 PUSH1 0x1 PUSH1 0x2 DUP4 DIV SWAP3 AND DUP1 ISZERO PUSH3 0x1B9 JUMPI JUMPDEST PUSH1 0x20 DUP4 LT EQ PUSH3 0x1B3 JUMPI JUMP JUMPDEST PUSH3 0x180 JUMP JUMPDEST SWAP2 PUSH1 0x7F AND SWAP2 PUSH3 0x1A7 JUMP JUMPDEST PUSH3 0x121 PUSH3 0x121 PUSH3 0x121 SWAP3 SWAP1 JUMP JUMPDEST SWAP2 SWAP1 PUSH3 0x1E9 PUSH3 0x121 PUSH3 0x201 SWAP4 PUSH3 0x1C4 JUMP JUMPDEST SWAP1 DUP4 SLOAD PUSH1 0x0 NOT PUSH1 0x8 SWAP3 SWAP1 SWAP3 MUL SWAP2 DUP3 SHL NOT AND SWAP2 SWAP1 SHL OR SWAP1 JUMP JUMPDEST SWAP1 SSTORE JUMP JUMPDEST PUSH3 0x8A SWAP2 PUSH1 0x0 SWAP2 PUSH3 0x1D4 JUMP JUMPDEST DUP2 DUP2 LT PUSH3 0x21F JUMPI POP POP JUMP JUMPDEST DUP1 PUSH3 0x22F PUSH1 0x0 PUSH1 0x1 SWAP4 PUSH3 0x205 JUMP JUMPDEST ADD PUSH3 0x213 JUMP JUMPDEST SWAP2 SWAP1 PUSH1 0x1F DUP2 GT PUSH3 0x246 JUMPI POP POP POP JUMP JUMPDEST PUSH3 0x25A PUSH3 0x8A SWAP4 PUSH1 0x0 MSTORE PUSH1 0x20 PUSH1 0x0 KECCAK256 SWAP1 JUMP JUMPDEST SWAP1 PUSH1 0x20 PUSH1 0x1F DUP5 ADD DUP2 SWAP1 DIV DUP4 ADD SWAP4 LT PUSH3 0x27E JUMPI JUMPDEST PUSH1 0x20 PUSH1 0x1F SWAP1 SWAP2 ADD DIV ADD SWAP1 PUSH3 0x213 JUMP JUMPDEST SWAP1 SWAP2 POP DUP2 SWAP1 PUSH3 0x26E JUMP JUMPDEST SWAP1 PUSH3 0x293 DUP2 MLOAD SWAP1 JUMP JUMPDEST SWAP1 PUSH1 0x1 PUSH1 0x1 PUSH1 0x40 SHL SUB DUP3 GT PUSH3 0x6D JUMPI PUSH3 0x2BB DUP3 PUSH3 0x2B4 DUP6 SLOAD PUSH3 0x196 JUMP JUMPDEST DUP6 PUSH3 0x236 JUMP JUMPDEST PUSH1 0x20 SWAP1 PUSH1 0x1F DUP4 GT PUSH1 0x1 EQ PUSH3 0x2FA JUMPI PUSH3 0x201 SWAP3 SWAP2 PUSH1 0x0 SWAP2 DUP4 PUSH3 0x2EE JUMPI JUMPDEST POP POP PUSH1 0x0 NOT PUSH1 0x8 DUP4 MUL SHR NOT AND SWAP1 PUSH1 0x2 MUL OR SWAP1 JUMP JUMPDEST ADD MLOAD SWAP1 POP CODESIZE DUP1 PUSH3 0x2DA JUMP JUMPDEST PUSH1 0x1F NOT DUP4 AND SWAP2 PUSH3 0x310 DUP6 PUSH1 0x0 MSTORE PUSH1 0x20 PUSH1 0x0 KECCAK256 SWAP1 JUMP JUMPDEST SWAP3 PUSH1 0x0 JUMPDEST DUP2 DUP2 LT PUSH3 0x351 JUMPI POP SWAP2 PUSH1 0x2 SWAP4 SWAP2 DUP6 PUSH1 0x1 SWAP7 SWAP5 LT PUSH3 0x337 JUMPI JUMPDEST POP POP POP MUL ADD SWAP1 SSTORE JUMP JUMPDEST ADD MLOAD PUSH1 0x0 NOT PUSH1 0x8 PUSH1 0x1F DUP6 AND MUL SHR NOT AND SWAP1 SSTORE CODESIZE DUP1 DUP1 PUSH3 0x32E JUMP JUMPDEST SWAP2 SWAP4 PUSH1 0x20 PUSH1 0x1 DUP2 SWAP3 DUP8 DUP8 ADD MLOAD DUP2 SSTORE ADD SWAP6 ADD SWAP3 ADD PUSH3 0x314 JUMP JUMPDEST SWAP1 PUSH3 0x8A SWAP2 PUSH3 0x289 JUMP JUMPDEST PUSH3 0x8A SWAP1 PUSH1 0x2 PUSH3 0x36A JUMP INVALID PUSH1 0x80 PUSH1 0x40 MSTORE PUSH1 0x4 CALLDATASIZE LT ISZERO PUSH2 0x12 JUMPI PUSH1 0x0 DUP1 REVERT JUMPDEST PUSH1 0x0 CALLDATALOAD PUSH1 0xE0 SHR DUP1 PUSH3 0xFDD58E EQ PUSH2 0xB1 JUMPI DUP1 PUSH4 0x1FFC9A7 EQ PUSH2 0xAC JUMPI DUP1 PUSH4 0xE89341C EQ PUSH2 0xA7 JUMPI DUP1 PUSH4 0x2EB2C2D6 EQ PUSH2 0xA2 JUMPI DUP1 PUSH4 0x4E1273F4 EQ PUSH2 0x9D JUMPI DUP1 PUSH4 0xA22CB465 EQ PUSH2 0x98 JUMPI DUP1 PUSH4 0xE985E9C5 EQ PUSH2 0x93 JUMPI DUP1 PUSH4 0xEFAA5018 EQ PUSH2 0x8E JUMPI DUP1 PUSH4 0xF242432A EQ PUSH2 0x89 JUMPI PUSH4 0xF737E496 SUB PUSH2 0xD7 JUMPI PUSH2 0x713 JUMP JUMPDEST PUSH2 0x6D4 JUMP JUMPDEST PUSH2 0x67A JUMP JUMPDEST PUSH2 0x5F6 JUMP JUMPDEST PUSH2 0x5BA JUMP JUMPDEST PUSH2 0x55A JUMP JUMPDEST PUSH2 0x421 JUMP JUMPDEST PUSH2 0x230 JUMP JUMPDEST PUSH2 0x182 JUMP JUMPDEST PUSH2 0x121 JUMP JUMPDEST PUSH1 0x1 PUSH1 0x1 PUSH1 0xA0 SHL SUB AND SWAP1 JUMP JUMPDEST SWAP1 JUMP JUMPDEST PUSH1 0x1 PUSH1 0x1 PUSH1 0xA0 SHL SUB DUP2 AND JUMPDEST SUB PUSH2 0xD7 JUMPI JUMP JUMPDEST PUSH1 0x0 DUP1 REVERT JUMPDEST SWAP1 POP CALLDATALOAD SWAP1 PUSH2 0xE9 DUP3 PUSH2 0xC5 JUMP JUMPDEST JUMP JUMPDEST DUP1 PUSH2 0xD0 JUMP JUMPDEST SWAP1 POP CALLDATALOAD SWAP1 PUSH2 0xE9 DUP3 PUSH2 0xEB JUMP JUMPDEST SWAP2 SWAP1 PUSH1 0x40 DUP4 DUP3 SUB SLT PUSH2 0xD7 JUMPI PUSH2 0xC2 SWAP1 PUSH1 0x20 PUSH2 0x11A DUP3 DUP7 PUSH2 0xDC JUMP JUMPDEST SWAP5 ADD PUSH2 0xF1 JUMP JUMPDEST CALLVALUE PUSH2 0xD7 JUMPI PUSH2 0x14D PUSH2 0x13D PUSH2 0x137 CALLDATASIZE PUSH1 0x4 PUSH2 0xFE JUMP JUMPDEST SWAP1 PUSH2 0x792 JUMP JUMPDEST PUSH1 0x40 MLOAD SWAP2 DUP3 SWAP2 DUP3 SWAP1 DUP2 MSTORE PUSH1 0x20 ADD SWAP1 JUMP JUMPDEST SUB SWAP1 RETURN JUMPDEST PUSH1 0x1 PUSH1 0x1 PUSH1 0xE0 SHL SUB NOT DUP2 AND PUSH2 0xD0 JUMP JUMPDEST SWAP1 POP CALLDATALOAD SWAP1 PUSH2 0xE9 DUP3 PUSH2 0x151 JUMP JUMPDEST SWAP1 PUSH1 0x20 DUP3 DUP3 SUB SLT PUSH2 0xD7 JUMPI PUSH2 0xC2 SWAP2 PUSH2 0x161 JUMP JUMPDEST CALLVALUE PUSH2 0xD7 JUMPI PUSH2 0x14D PUSH2 0x19D PUSH2 0x198 CALLDATASIZE PUSH1 0x4 PUSH2 0x16E JUMP JUMPDEST PUSH2 0x7B7 JUMP JUMPDEST PUSH1 0x40 MLOAD JUMPDEST SWAP2 DUP3 SWAP2 DUP3 SWAP1 ISZERO ISZERO DUP2 MSTORE PUSH1 0x20 ADD SWAP1 JUMP JUMPDEST SWAP1 PUSH1 0x20 DUP3 DUP3 SUB SLT PUSH2 0xD7 JUMPI PUSH2 0xC2 SWAP2 PUSH2 0xF1 JUMP JUMPDEST PUSH1 0x0 JUMPDEST DUP4 DUP2 LT PUSH2 0x1D7 JUMPI POP POP PUSH1 0x0 SWAP2 ADD MSTORE JUMP JUMPDEST DUP2 DUP2 ADD MLOAD DUP4 DUP3 ADD MSTORE PUSH1 0x20 ADD PUSH2 0x1C7 JUMP JUMPDEST PUSH2 0x208 PUSH2 0x211 PUSH1 0x20 SWAP4 PUSH2 0x21B SWAP4 PUSH2 0x1FC DUP2 MLOAD SWAP1 JUMP JUMPDEST DUP1 DUP4 MSTORE SWAP4 DUP5 SWAP3 PUSH1 0x20 ADD SWAP1 JUMP JUMPDEST SWAP6 DUP7 SWAP2 ADD PUSH2 0x1C4 JUMP JUMPDEST PUSH1 0x1F ADD PUSH1 0x1F NOT AND SWAP1 JUMP JUMPDEST ADD SWAP1 JUMP JUMPDEST PUSH1 0x20 DUP1 DUP3 MSTORE PUSH2 0xC2 SWAP3 SWAP2 ADD SWAP1 PUSH2 0x1E7 JUMP JUMPDEST CALLVALUE PUSH2 0xD7 JUMPI PUSH2 0x14D PUSH2 0x24B PUSH2 0x246 CALLDATASIZE PUSH1 0x4 PUSH2 0x1B0 JUMP JUMPDEST PUSH2 0x8FA JUMP JUMPDEST PUSH1 0x40 MLOAD SWAP2 DUP3 SWAP2 DUP3 PUSH2 0x21F JUMP JUMPDEST PUSH4 0x4E487B71 PUSH1 0xE0 SHL PUSH1 0x0 MSTORE PUSH1 0x41 PUSH1 0x4 MSTORE PUSH1 0x24 PUSH1 0x0 REVERT JUMPDEST SWAP1 PUSH1 0x1F ADD PUSH1 0x1F NOT AND DUP2 ADD SWAP1 DUP2 LT PUSH8 0xFFFFFFFFFFFFFFFF DUP3 GT OR PUSH2 0x28F JUMPI PUSH1 0x40 MSTORE JUMP JUMPDEST PUSH2 0x257 JUMP JUMPDEST SWAP1 PUSH2 0xE9 PUSH2 0x2A1 PUSH1 0x40 MLOAD SWAP1 JUMP JUMPDEST SWAP3 DUP4 PUSH2 0x26D JUMP JUMPDEST PUSH8 0xFFFFFFFFFFFFFFFF DUP2 GT PUSH2 0x28F JUMPI PUSH1 0x20 DUP1 SWAP2 MUL ADD SWAP1 JUMP JUMPDEST SWAP1 SWAP3 SWAP2 SWAP3 PUSH2 0x2D5 PUSH2 0x2D0 DUP3 PUSH2 0x2A8 JUMP JUMPDEST PUSH2 0x294 JUMP JUMPDEST SWAP4 DUP2 DUP6 MSTORE PUSH1 0x20 DUP1 DUP7 ADD SWAP3 MUL DUP4 ADD SWAP3 DUP2 DUP5 GT PUSH2 0xD7 JUMPI SWAP2 JUMPDEST DUP4 DUP4 LT PUSH2 0x2F9 JUMPI POP POP POP POP JUMP JUMPDEST PUSH1 0x20 DUP1 SWAP2 PUSH2 0x307 DUP5 DUP7 PUSH2 0xF1 JUMP JUMPDEST DUP2 MSTORE ADD SWAP3 ADD SWAP2 PUSH2 0x2EC JUMP JUMPDEST SWAP1 DUP1 PUSH1 0x1F DUP4 ADD SLT ISZERO PUSH2 0xD7 JUMPI DUP2 PUSH1 0x20 PUSH2 0xC2 SWAP4 CALLDATALOAD SWAP2 ADD PUSH2 0x2C0 JUMP JUMPDEST PUSH8 0xFFFFFFFFFFFFFFFF DUP2 GT PUSH2 0x28F JUMPI PUSH1 0x20 SWAP1 PUSH1 0x1F ADD PUSH1 0x1F NOT AND ADD SWAP1 JUMP JUMPDEST SWAP1 DUP3 PUSH1 0x0 SWAP4 SWAP3 DUP3 CALLDATACOPY ADD MSTORE JUMP JUMPDEST SWAP1 SWAP3 SWAP2 SWAP3 PUSH2 0x366 PUSH2 0x2D0 DUP3 PUSH2 0x32D JUMP JUMPDEST SWAP4 DUP2 DUP6 MSTORE DUP2 DUP4 ADD GT PUSH2 0xD7 JUMPI PUSH2 0xE9 SWAP2 PUSH1 0x20 DUP6 ADD SWAP1 PUSH2 0x34A JUMP JUMPDEST SWAP1 DUP1 PUSH1 0x1F DUP4 ADD SLT ISZERO PUSH2 0xD7 JUMPI DUP2 PUSH1 0x20 PUSH2 0xC2 SWAP4 CALLDATALOAD SWAP2 ADD PUSH2 0x356 JUMP JUMPDEST SWAP2 SWAP1 SWAP2 PUSH1 0xA0 DUP2 DUP5 SUB SLT PUSH2 0xD7 JUMPI PUSH2 0x3B2 DUP4 DUP3 PUSH2 0xDC JUMP JUMPDEST SWAP3 PUSH2 0x3C0 DUP2 PUSH1 0x20 DUP5 ADD PUSH2 0xDC JUMP JUMPDEST SWAP3 PUSH1 0x40 DUP4 ADD CALLDATALOAD PUSH8 0xFFFFFFFFFFFFFFFF DUP2 GT PUSH2 0xD7 JUMPI DUP3 PUSH2 0x3E1 SWAP2 DUP6 ADD PUSH2 0x312 JUMP JUMPDEST SWAP3 PUSH1 0x60 DUP2 ADD CALLDATALOAD PUSH8 0xFFFFFFFFFFFFFFFF DUP2 GT PUSH2 0xD7 JUMPI DUP4 PUSH2 0x402 SWAP2 DUP4 ADD PUSH2 0x312 JUMP JUMPDEST SWAP3 PUSH1 0x80 DUP3 ADD CALLDATALOAD PUSH8 0xFFFFFFFFFFFFFFFF DUP2 GT PUSH2 0xD7 JUMPI PUSH2 0xC2 SWAP3 ADD PUSH2 0x380 JUMP JUMPDEST CALLVALUE PUSH2 0xD7 JUMPI PUSH2 0x43D PUSH2 0x434 CALLDATASIZE PUSH1 0x4 PUSH2 0x39B JUMP JUMPDEST SWAP4 SWAP3 SWAP1 SWAP3 PUSH2 0x91F JUMP JUMPDEST PUSH1 0x40 MLOAD STOP JUMPDEST SWAP1 SWAP3 SWAP2 SWAP3 PUSH2 0x452 PUSH2 0x2D0 DUP3 PUSH2 0x2A8 JUMP JUMPDEST SWAP4 DUP2 DUP6 MSTORE PUSH1 0x20 DUP1 DUP7 ADD SWAP3 MUL DUP4 ADD SWAP3 DUP2 DUP5 GT PUSH2 0xD7 JUMPI SWAP2 JUMPDEST DUP4 DUP4 LT PUSH2 0x476 JUMPI POP POP POP POP JUMP JUMPDEST PUSH1 0x20 DUP1 SWAP2 PUSH2 0x484 DUP5 DUP7 PUSH2 0xDC JUMP JUMPDEST DUP2 MSTORE ADD SWAP3 ADD SWAP2 PUSH2 0x469 JUMP JUMPDEST SWAP1 DUP1 PUSH1 0x1F DUP4 ADD SLT ISZERO PUSH2 0xD7 JUMPI DUP2 PUSH1 0x20 PUSH2 0xC2 SWAP4 CALLDATALOAD SWAP2 ADD PUSH2 0x442 JUMP JUMPDEST SWAP2 SWAP1 SWAP2 PUSH1 0x40 DUP2 DUP5 SUB SLT PUSH2 0xD7 JUMPI DUP1 CALLDATALOAD PUSH8 0xFFFFFFFFFFFFFFFF DUP2 GT PUSH2 0xD7 JUMPI DUP4 PUSH2 0x4D4 SWAP2 DUP4 ADD PUSH2 0x48F JUMP JUMPDEST SWAP3 PUSH1 0x20 DUP3 ADD CALLDATALOAD PUSH8 0xFFFFFFFFFFFFFFFF DUP2 GT PUSH2 0xD7 JUMPI PUSH2 0xC2 SWAP3 ADD PUSH2 0x312 JUMP JUMPDEST SWAP1 PUSH2 0x513 PUSH2 0x50C PUSH2 0x502 DUP5 MLOAD SWAP1 JUMP JUMPDEST DUP1 DUP5 MSTORE SWAP3 PUSH1 0x20 ADD SWAP1 JUMP JUMPDEST SWAP3 PUSH1 0x20 ADD SWAP1 JUMP JUMPDEST SWAP1 PUSH1 0x0 JUMPDEST DUP2 DUP2 LT PUSH2 0x524 JUMPI POP POP POP SWAP1 JUMP JUMPDEST SWAP1 SWAP2 SWAP3 PUSH2 0x541 PUSH2 0x53A PUSH1 0x1 SWAP3 DUP7 MLOAD DUP2 MSTORE PUSH1 0x20 ADD SWAP1 JUMP JUMPDEST SWAP5 PUSH1 0x20 ADD SWAP1 JUMP JUMPDEST SWAP3 SWAP2 ADD PUSH2 0x517 JUMP JUMPDEST PUSH1 0x20 DUP1 DUP3 MSTORE PUSH2 0xC2 SWAP3 SWAP2 ADD SWAP1 PUSH2 0x4F3 JUMP JUMPDEST CALLVALUE PUSH2 0xD7 JUMPI PUSH2 0x14D PUSH2 0x576 PUSH2 0x570 CALLDATASIZE PUSH1 0x4 PUSH2 0x4AA JUMP JUMPDEST SWAP1 PUSH2 0xA0C JUMP JUMPDEST PUSH1 0x40 MLOAD SWAP2 DUP3 SWAP2 DUP3 PUSH2 0x549 JUMP JUMPDEST DUP1 ISZERO ISZERO PUSH2 0xD0 JUMP JUMPDEST SWAP1 POP CALLDATALOAD SWAP1 PUSH2 0xE9 DUP3 PUSH2 0x582 JUMP JUMPDEST SWAP2 SWAP1 PUSH1 0x40 DUP4 DUP3 SUB SLT PUSH2 0xD7 JUMPI PUSH2 0xC2 SWAP1 PUSH1 0x20 PUSH2 0x5B3 DUP3 DUP7 PUSH2 0xDC JUMP JUMPDEST SWAP5 ADD PUSH2 0x58A JUMP JUMPDEST CALLVALUE PUSH2 0xD7 JUMPI PUSH2 0x43D PUSH2 0x5CD CALLDATASIZE PUSH1 0x4 PUSH2 0x597 JUMP JUMPDEST SWAP1 PUSH2 0xABF JUMP JUMPDEST SWAP2 SWAP1 PUSH1 0x40 DUP4 DUP3 SUB SLT PUSH2 0xD7 JUMPI PUSH2 0xC2 SWAP1 PUSH1 0x20 PUSH2 0x5EF DUP3 DUP7 PUSH2 0xDC JUMP JUMPDEST SWAP5 ADD PUSH2 0xDC JUMP JUMPDEST CALLVALUE PUSH2 0xD7 JUMPI PUSH2 0x14D PUSH2 0x19D PUSH2 0x60C CALLDATASIZE PUSH1 0x4 PUSH2 0x5D3 JUMP JUMPDEST SWAP1 PUSH2 0xACA JUMP JUMPDEST SWAP2 PUSH1 0x60 DUP4 DUP4 SUB SLT PUSH2 0xD7 JUMPI DUP3 CALLDATALOAD PUSH8 0xFFFFFFFFFFFFFFFF DUP2 GT PUSH2 0xD7 JUMPI DUP3 PUSH2 0x63A SWAP2 DUP6 ADD PUSH2 0x312 JUMP JUMPDEST SWAP3 PUSH1 0x20 DUP2 ADD CALLDATALOAD PUSH8 0xFFFFFFFFFFFFFFFF DUP2 GT PUSH2 0xD7 JUMPI DUP4 PUSH2 0x65B SWAP2 DUP4 ADD PUSH2 0x312 JUMP JUMPDEST SWAP3 PUSH1 0x40 DUP3 ADD CALLDATALOAD PUSH8 0xFFFFFFFFFFFFFFFF DUP2 GT PUSH2 0xD7 JUMPI PUSH2 0xC2 SWAP3 ADD PUSH2 0x380 JUMP JUMPDEST CALLVALUE PUSH2 0xD7 JUMPI PUSH2 0x43D PUSH2 0x68D CALLDATASIZE PUSH1 0x4 PUSH2 0x612 JUMP JUMPDEST SWAP2 PUSH2 0xAEC JUMP JUMPDEST SWAP2 SWAP1 SWAP2 PUSH1 0xA0 DUP2 DUP5 SUB SLT PUSH2 0xD7 JUMPI PUSH2 0x6AA DUP4 DUP3 PUSH2 0xDC JUMP JUMPDEST SWAP3 PUSH2 0x6B8 DUP2 PUSH1 0x20 DUP5 ADD PUSH2 0xDC JUMP JUMPDEST SWAP3 PUSH2 0x6C6 DUP3 PUSH1 0x40 DUP6 ADD PUSH2 0xF1 JUMP JUMPDEST SWAP3 PUSH2 0x402 DUP4 PUSH1 0x60 DUP4 ADD PUSH2 0xF1 JUMP JUMPDEST CALLVALUE PUSH2 0xD7 JUMPI PUSH2 0x43D PUSH2 0x6E7 CALLDATASIZE PUSH1 0x4 PUSH2 0x693 JUMP JUMPDEST SWAP4 SWAP3 SWAP1 SWAP3 PUSH2 0xAF8 JUMP JUMPDEST SWAP2 PUSH1 0x60 DUP4 DUP4 SUB SLT PUSH2 0xD7 JUMPI PUSH2 0x705 DUP3 DUP5 PUSH2 0xF1 JUMP JUMPDEST SWAP3 PUSH2 0x65B DUP4 PUSH1 0x20 DUP4 ADD PUSH2 0xF1 JUMP JUMPDEST CALLVALUE PUSH2 0xD7 JUMPI PUSH2 0x43D PUSH2 0x726 CALLDATASIZE PUSH1 0x4 PUSH2 0x6F0 JUMP JUMPDEST SWAP2 PUSH2 0xB33 JUMP JUMPDEST PUSH2 0xC2 PUSH2 0xC2 PUSH2 0xC2 SWAP3 SWAP1 JUMP JUMPDEST SWAP1 PUSH2 0x743 SWAP1 PUSH2 0x72C JUMP JUMPDEST PUSH1 0x0 MSTORE PUSH1 0x20 MSTORE PUSH1 0x40 PUSH1 0x0 KECCAK256 SWAP1 JUMP JUMPDEST PUSH2 0xC2 SWAP1 PUSH2 0xB6 SWAP1 PUSH1 0x1 PUSH1 0x1 PUSH1 0xA0 SHL SUB AND DUP3 JUMP JUMPDEST PUSH2 0xC2 SWAP1 PUSH2 0x751 JUMP JUMPDEST PUSH2 0xC2 SWAP1 PUSH2 0x765 JUMP JUMPDEST SWAP1 PUSH2 0x743 SWAP1 PUSH2 0x76E JUMP JUMPDEST PUSH2 0xC2 SWAP1 DUP2 JUMP JUMPDEST PUSH2 0xC2 SWAP1 SLOAD PUSH2 0x781 JUMP JUMPDEST PUSH2 0x7B2 SWAP1 PUSH2 0x7AD PUSH2 0xC2 SWAP4 PUSH2 0x7A5 PUSH1 0x0 SWAP1 JUMP JUMPDEST POP PUSH1 0x0 PUSH2 0x739 JUMP JUMPDEST PUSH2 0x777 JUMP JUMPDEST PUSH2 0x788 JUMP JUMPDEST PUSH4 0x6CDB3D13 PUSH1 0xE1 SHL PUSH1 0x1 PUSH1 0x1 PUSH1 0xE0 SHL SUB NOT DUP3 AND EQ SWAP1 DUP2 ISZERO PUSH2 0x7E7 JUMPI JUMPDEST DUP2 ISZERO PUSH2 0x7DD JUMPI POP SWAP1 JUMP JUMPDEST PUSH2 0xC2 SWAP2 POP PUSH2 0xB3F JUMP JUMPDEST PUSH1 0x1 PUSH1 0x1 PUSH1 0xE0 SHL SUB NOT DUP2 AND PUSH4 0x3A24D07 PUSH1 0xE2 SHL EQ SWAP2 POP PUSH2 0x7D3 JUMP JUMPDEST PUSH4 0x4E487B71 PUSH1 0xE0 SHL PUSH1 0x0 MSTORE PUSH1 0x22 PUSH1 0x4 MSTORE PUSH1 0x24 PUSH1 0x0 REVERT JUMPDEST SWAP1 PUSH1 0x1 PUSH1 0x2 DUP4 DIV SWAP3 AND DUP1 ISZERO PUSH2 0x838 JUMPI JUMPDEST PUSH1 0x20 DUP4 LT EQ PUSH2 0x833 JUMPI JUMP JUMPDEST PUSH2 0x802 JUMP JUMPDEST SWAP2 PUSH1 0x7F AND SWAP2 PUSH2 0x828 JUMP JUMPDEST DUP1 SLOAD PUSH1 0x0 SWAP4 SWAP3 SWAP2 PUSH2 0x85F PUSH2 0x855 DUP4 PUSH2 0x818 JUMP JUMPDEST DUP1 DUP6 MSTORE SWAP4 PUSH1 0x20 ADD SWAP1 JUMP JUMPDEST SWAP2 PUSH1 0x1 DUP2 AND SWAP1 DUP2 ISZERO PUSH2 0x8B1 JUMPI POP PUSH1 0x1 EQ PUSH2 0x878 JUMPI POP POP POP JUMP JUMPDEST PUSH2 0x88B SWAP2 SWAP3 SWAP4 SWAP5 POP PUSH1 0x0 MSTORE PUSH1 0x20 PUSH1 0x0 KECCAK256 SWAP1 JUMP JUMPDEST SWAP2 PUSH1 0x0 SWAP3 JUMPDEST DUP2 DUP5 LT PUSH2 0x89D JUMPI POP POP ADD SWAP1 JUMP JUMPDEST DUP1 SLOAD DUP5 DUP5 ADD MSTORE PUSH1 0x20 SWAP1 SWAP4 ADD SWAP3 PUSH1 0x1 ADD PUSH2 0x890 JUMP JUMPDEST SWAP3 SWAP5 SWAP6 POP POP POP PUSH1 0xFF NOT AND DUP3 MSTORE ISZERO ISZERO PUSH1 0x20 MUL ADD SWAP1 JUMP JUMPDEST SWAP1 PUSH2 0xC2 SWAP2 PUSH2 0x842 JUMP JUMPDEST SWAP1 PUSH2 0xE9 PUSH2 0x8EA SWAP3 PUSH2 0x8E1 PUSH1 0x40 MLOAD SWAP1 JUMP JUMPDEST SWAP4 DUP5 DUP1 SWAP3 PUSH2 0x8C6 JUMP JUMPDEST SUB DUP4 PUSH2 0x26D JUMP JUMPDEST PUSH2 0xC2 SWAP1 PUSH2 0x8D0 JUMP JUMPDEST POP PUSH2 0xC2 PUSH1 0x2 PUSH2 0x8F1 JUMP JUMPDEST PUSH1 0x1 PUSH1 0x1 PUSH1 0xA0 SHL SUB SWAP2 DUP3 AND DUP2 MSTORE SWAP2 AND PUSH1 0x20 DUP3 ADD MSTORE PUSH1 0x40 ADD SWAP1 JUMP JUMPDEST SWAP5 SWAP4 SWAP3 SWAP2 SWAP1 CALLER PUSH1 0x1 PUSH1 0x1 PUSH1 0xA0 SHL SUB DUP8 AND DUP2 EQ ISZERO DUP1 PUSH2 0x96F JUMPI JUMPDEST PUSH2 0x947 JUMPI POP PUSH2 0xE9 SWAP5 SWAP6 PUSH2 0xB73 JUMP JUMPDEST DUP7 SWAP1 PUSH2 0x96B PUSH2 0x955 PUSH1 0x40 MLOAD SWAP1 JUMP JUMPDEST PUSH4 0x711BEC91 PUSH1 0xE1 SHL DUP2 MSTORE SWAP3 DUP4 SWAP3 PUSH1 0x4 DUP5 ADD PUSH2 0x905 JUMP JUMPDEST SUB SWAP1 REVERT JUMPDEST POP PUSH2 0x981 PUSH2 0x97D DUP3 DUP10 PUSH2 0xACA JUMP JUMPDEST ISZERO SWAP1 JUMP JUMPDEST PUSH2 0x938 JUMP JUMPDEST SWAP1 DUP2 MSTORE PUSH1 0x40 DUP2 ADD SWAP3 SWAP2 PUSH2 0xE9 SWAP2 PUSH1 0x20 ADD MSTORE JUMP JUMPDEST ADD MSTORE JUMP JUMPDEST SWAP1 PUSH2 0x9AA PUSH2 0x2D0 DUP4 PUSH2 0x2A8 JUMP JUMPDEST SWAP2 DUP3 MSTORE JUMP JUMPDEST CALLDATASIZE SWAP1 CALLDATACOPY JUMP JUMPDEST SWAP1 PUSH2 0xE9 PUSH2 0x9CA PUSH2 0x9C4 DUP5 PUSH2 0x99D JUMP JUMPDEST SWAP4 PUSH2 0x2A8 JUMP JUMPDEST PUSH1 0x1F NOT ADD PUSH1 0x20 DUP5 ADD PUSH2 0x9AF JUMP JUMPDEST PUSH4 0x4E487B71 PUSH1 0xE0 SHL PUSH1 0x0 MSTORE PUSH1 0x32 PUSH1 0x4 MSTORE PUSH1 0x24 PUSH1 0x0 REVERT JUMPDEST SWAP1 PUSH2 0x9F6 DUP3 MLOAD SWAP1 JUMP JUMPDEST DUP2 LT ISZERO PUSH2 0xA07 JUMPI PUSH1 0x20 DUP1 SWAP2 MUL ADD ADD SWAP1 JUMP JUMPDEST PUSH2 0x9D7 JUMP JUMPDEST SWAP1 DUP2 MLOAD PUSH2 0xA21 PUSH2 0xA1D PUSH2 0xC2 DUP5 MLOAD SWAP1 JUMP JUMPDEST SWAP2 SWAP1 JUMP JUMPDEST SUB PUSH2 0xA8F JUMPI PUSH2 0xA36 PUSH2 0xA31 DUP4 MLOAD SWAP1 JUMP JUMPDEST PUSH2 0x9B4 JUMP JUMPDEST SWAP2 PUSH2 0xA41 PUSH1 0x0 PUSH2 0x72C JUMP JUMPDEST PUSH2 0xA4C PUSH2 0xC2 DUP4 MLOAD SWAP1 JUMP JUMPDEST DUP2 LT ISZERO PUSH2 0xA89 JUMPI DUP1 PUSH2 0xA7E PUSH2 0xA71 PUSH2 0xA67 PUSH2 0xA84 SWAP5 DUP7 PUSH2 0xC21 JUMP JUMPDEST PUSH2 0x137 DUP5 DUP9 PUSH2 0xC21 JUMP JUMPDEST PUSH2 0xA7B DUP4 DUP9 PUSH2 0x9ED JUMP JUMPDEST MSTORE JUMP JUMPDEST PUSH1 0x1 ADD SWAP1 JUMP JUMPDEST PUSH2 0xA41 JUMP JUMPDEST POP POP POP SWAP1 JUMP JUMPDEST MLOAD SWAP1 MLOAD PUSH2 0xA9C JUMP JUMPDEST SWAP2 MLOAD SWAP1 JUMP JUMPDEST SWAP1 PUSH2 0x96B PUSH2 0xAA9 PUSH1 0x40 MLOAD SWAP1 JUMP JUMPDEST PUSH4 0x5B059991 PUSH1 0xE0 SHL DUP2 MSTORE SWAP3 DUP4 SWAP3 PUSH1 0x4 DUP5 ADD PUSH2 0x986 JUMP JUMPDEST PUSH2 0xE9 SWAP2 SWAP1 CALLER PUSH2 0xC61 JUMP JUMPDEST PUSH2 0xC2 SWAP2 PUSH2 0x7AD PUSH2 0xAE5 SWAP3 PUSH2 0xADD PUSH1 0x0 SWAP1 JUMP JUMPDEST POP PUSH1 0x1 PUSH2 0x777 JUMP JUMPDEST SLOAD PUSH1 0xFF AND SWAP1 JUMP JUMPDEST SWAP1 PUSH2 0xE9 SWAP3 SWAP2 CALLER PUSH2 0xD12 JUMP JUMPDEST SWAP5 SWAP4 SWAP3 SWAP2 SWAP1 CALLER PUSH1 0x1 PUSH1 0x1 PUSH1 0xA0 SHL SUB DUP8 AND DUP2 EQ ISZERO DUP1 PUSH2 0xB20 JUMPI JUMPDEST PUSH2 0x947 JUMPI POP PUSH2 0xE9 SWAP5 SWAP6 PUSH2 0xD51 JUMP JUMPDEST POP PUSH2 0xB2E PUSH2 0x97D DUP3 DUP10 PUSH2 0xACA JUMP JUMPDEST PUSH2 0xB11 JUMP JUMPDEST SWAP1 PUSH2 0xE9 SWAP3 SWAP2 CALLER PUSH2 0xDE2 JUMP JUMPDEST PUSH2 0xB59 PUSH4 0x1FFC9A7 PUSH1 0xE0 SHL JUMPDEST SWAP2 PUSH1 0x1 PUSH1 0x1 PUSH1 0xE0 SHL SUB NOT AND SWAP1 JUMP JUMPDEST EQ SWAP1 JUMP JUMPDEST PUSH2 0xB6 PUSH2 0xC2 PUSH2 0xC2 SWAP3 SWAP1 JUMP JUMPDEST PUSH2 0xC2 SWAP1 PUSH2 0xB5D JUMP JUMPDEST SWAP5 SWAP4 SWAP3 SWAP2 SWAP1 PUSH2 0xB82 PUSH1 0x0 PUSH2 0xB6A JUMP JUMPDEST SWAP6 PUSH1 0x1 PUSH1 0x1 PUSH1 0xA0 SHL SUB DUP8 AND PUSH1 0x1 PUSH1 0x1 PUSH1 0xA0 SHL SUB DUP4 AND EQ PUSH2 0xBF0 JUMPI PUSH1 0x1 PUSH1 0x1 PUSH1 0xA0 SHL SUB DUP8 AND PUSH1 0x1 PUSH1 0x1 PUSH1 0xA0 SHL SUB DUP3 AND EQ PUSH2 0xBC0 JUMPI PUSH2 0xE9 SWAP6 SWAP7 POP PUSH2 0xE37 JUMP JUMPDEST PUSH2 0x96B DUP8 PUSH2 0xBCD PUSH1 0x40 MLOAD SWAP1 JUMP JUMPDEST PUSH3 0x6A0D45 PUSH1 0xE2 SHL DUP2 MSTORE SWAP2 DUP3 SWAP2 PUSH1 0x4 DUP4 ADD PUSH1 0x1 PUSH1 0x1 PUSH1 0xA0 SHL SUB SWAP1 SWAP2 AND DUP2 MSTORE PUSH1 0x20 ADD SWAP1 JUMP JUMPDEST PUSH2 0x96B DUP8 PUSH2 0xBFD PUSH1 0x40 MLOAD SWAP1 JUMP JUMPDEST PUSH4 0x2BFA23E7 PUSH1 0xE1 SHL DUP2 MSTORE SWAP2 DUP3 SWAP2 PUSH1 0x4 DUP4 ADD PUSH1 0x1 PUSH1 0x1 PUSH1 0xA0 SHL SUB SWAP1 SWAP2 AND DUP2 MSTORE PUSH1 0x20 ADD SWAP1 JUMP JUMPDEST SWAP1 PUSH1 0x20 DUP1 SWAP2 PUSH2 0xC2E PUSH1 0x0 SWAP1 JUMP JUMPDEST POP MUL SWAP2 ADD ADD MLOAD SWAP1 JUMP JUMPDEST SWAP1 PUSH1 0xFF SWAP1 JUMPDEST SWAP2 DUP2 NOT AND SWAP2 AND OR SWAP1 JUMP JUMPDEST SWAP1 PUSH2 0xC56 PUSH2 0xC2 PUSH2 0xC5D SWAP3 ISZERO ISZERO SWAP1 JUMP JUMPDEST DUP3 SLOAD PUSH2 0xC37 JUMP JUMPDEST SWAP1 SSTORE JUMP JUMPDEST PUSH2 0xC6B PUSH1 0x0 PUSH2 0xB6A JUMP JUMPDEST PUSH1 0x1 PUSH1 0x1 PUSH1 0xA0 SHL SUB DUP2 AND PUSH1 0x1 PUSH1 0x1 PUSH1 0xA0 SHL SUB DUP5 AND EQ PUSH2 0xCE2 JUMPI POP PUSH2 0xCDD PUSH2 0xCD3 PUSH2 0xCCD DUP4 PUSH2 0xCC8 DUP8 PUSH2 0xCC3 DUP9 PUSH2 0x7AD PUSH32 0x17307EAB39AB6107E8899845AD3D59BD9653F200F220920489CA2B5937696C31 SWAP10 PUSH1 0x1 PUSH2 0x777 JUMP JUMPDEST PUSH2 0xC46 JUMP JUMPDEST PUSH2 0x76E JUMP JUMPDEST SWAP4 PUSH2 0x76E JUMP JUMPDEST SWAP4 PUSH2 0x1A1 PUSH1 0x40 MLOAD SWAP1 JUMP JUMPDEST SUB SWAP1 LOG3 JUMP JUMPDEST PUSH2 0x96B SWAP1 PUSH2 0xCEF PUSH1 0x40 MLOAD SWAP1 JUMP JUMPDEST PUSH3 0xCED3E1 PUSH1 0xE8 SHL DUP2 MSTORE SWAP2 DUP3 SWAP2 PUSH1 0x4 DUP4 ADD PUSH1 0x1 PUSH1 0x1 PUSH1 0xA0 SHL SUB SWAP1 SWAP2 AND DUP2 MSTORE PUSH1 0x20 ADD SWAP1 JUMP JUMPDEST SWAP4 SWAP3 SWAP2 SWAP1 PUSH2 0xD20 PUSH1 0x0 PUSH2 0xB6A JUMP JUMPDEST SWAP5 PUSH1 0x1 PUSH1 0x1 PUSH1 0xA0 SHL SUB DUP7 AND PUSH1 0x1 PUSH1 0x1 PUSH1 0xA0 SHL SUB DUP3 AND EQ PUSH2 0xD44 JUMPI PUSH2 0xE9 SWAP5 SWAP6 PUSH2 0xE37 JUMP JUMPDEST PUSH2 0x96B DUP7 PUSH2 0xBFD PUSH1 0x40 MLOAD SWAP1 JUMP JUMPDEST SWAP1 SWAP2 SWAP5 SWAP4 SWAP3 SWAP5 PUSH2 0xD61 PUSH1 0x0 PUSH2 0xB6A JUMP JUMPDEST PUSH1 0x1 PUSH1 0x1 PUSH1 0xA0 SHL SUB DUP2 AND PUSH1 0x1 PUSH1 0x1 PUSH1 0xA0 SHL SUB DUP6 AND EQ PUSH2 0xDD5 JUMPI PUSH1 0x1 PUSH1 0x1 PUSH1 0xA0 SHL SUB DUP2 AND PUSH1 0x1 PUSH1 0x1 PUSH1 0xA0 SHL SUB DUP5 AND EQ PUSH2 0xDC8 JUMPI POP PUSH2 0xE9 SWAP5 SWAP6 PUSH2 0xDC0 PUSH1 0x40 MLOAD SWAP3 PUSH1 0x1 DUP5 MSTORE PUSH1 0x20 DUP5 ADD MSTORE PUSH1 0x40 DUP4 ADD SWAP2 PUSH1 0x1 DUP4 MSTORE PUSH1 0x20 DUP4 ADD MSTORE PUSH1 0x40 DUP3 ADD PUSH1 0x40 MSTORE JUMP JUMPDEST SWAP3 SWAP1 SWAP2 PUSH2 0xE37 JUMP JUMPDEST PUSH2 0x96B SWAP1 PUSH2 0xBCD PUSH1 0x40 MLOAD SWAP1 JUMP JUMPDEST PUSH2 0x96B SWAP1 PUSH2 0xBFD PUSH1 0x40 MLOAD SWAP1 JUMP JUMPDEST SWAP1 SWAP4 SWAP3 SWAP2 PUSH2 0xDF0 PUSH1 0x0 PUSH2 0xB6A JUMP JUMPDEST SWAP5 PUSH1 0x1 PUSH1 0x1 PUSH1 0xA0 SHL SUB DUP7 AND PUSH1 0x1 PUSH1 0x1 PUSH1 0xA0 SHL SUB DUP5 AND EQ PUSH2 0xD44 JUMPI PUSH2 0xE9 SWAP5 SWAP6 SWAP2 PUSH2 0xDC0 PUSH1 0x40 MLOAD SWAP3 PUSH1 0x1 DUP5 MSTORE PUSH1 0x20 DUP5 ADD MSTORE PUSH1 0x40 DUP4 ADD SWAP2 PUSH1 0x1 DUP4 MSTORE PUSH1 0x20 DUP4 ADD MSTORE PUSH1 0x40 DUP3 ADD PUSH1 0x40 MSTORE JUMP JUMPDEST SWAP2 SWAP4 SWAP3 SWAP1 PUSH2 0xE47 DUP3 DUP7 DUP4 DUP7 PUSH2 0xF6E JUMP JUMPDEST PUSH2 0xE54 PUSH2 0xB6 PUSH1 0x0 PUSH2 0xB6A JUMP JUMPDEST PUSH1 0x1 PUSH1 0x1 PUSH1 0xA0 SHL SUB DUP3 AND SUB PUSH2 0xE6B JUMPI JUMPDEST POP POP POP POP POP JUMP JUMPDEST CALLER SWAP3 PUSH2 0xE75 DUP7 MLOAD SWAP1 JUMP JUMPDEST PUSH2 0xE82 PUSH2 0xA1D PUSH1 0x1 PUSH2 0x72C JUMP JUMPDEST SUB PUSH2 0xEB8 JUMPI PUSH2 0xEA8 PUSH2 0xEAE SWAP7 PUSH2 0xEA2 PUSH2 0xE9B PUSH1 0x0 PUSH2 0x72C JUMP JUMPDEST DUP1 SWAP3 PUSH2 0xC21 JUMP JUMPDEST SWAP5 PUSH2 0xC21 JUMP JUMPDEST SWAP4 PUSH2 0x139B JUMP JUMPDEST CODESIZE DUP1 DUP1 DUP1 DUP1 PUSH2 0xE64 JUMP JUMPDEST PUSH2 0xEC3 SWAP6 SWAP3 SWAP4 PUSH2 0x1243 JUMP JUMPDEST PUSH2 0xEAE JUMP JUMPDEST PUSH2 0x999 PUSH2 0xE9 SWAP5 PUSH2 0xEF9 PUSH1 0x60 SWAP5 SWAP9 SWAP8 SWAP6 PUSH2 0xEF2 PUSH1 0x80 DUP7 ADD SWAP11 PUSH1 0x0 DUP8 ADD SWAP1 PUSH1 0x1 PUSH1 0x1 PUSH1 0xA0 SHL SUB AND SWAP1 MSTORE JUMP JUMPDEST PUSH1 0x20 DUP6 ADD MSTORE JUMP JUMPDEST PUSH1 0x40 DUP4 ADD MSTORE JUMP JUMPDEST SWAP1 PUSH1 0x0 NOT SWAP1 PUSH2 0xC3C JUMP JUMPDEST SWAP1 PUSH2 0xF1A PUSH2 0xC2 PUSH2 0xC5D SWAP3 PUSH2 0x72C JUMP JUMPDEST DUP3 SLOAD PUSH2 0xF00 JUMP JUMPDEST PUSH4 0x4E487B71 PUSH1 0xE0 SHL PUSH1 0x0 MSTORE PUSH1 0x11 PUSH1 0x4 MSTORE PUSH1 0x24 PUSH1 0x0 REVERT JUMPDEST SWAP2 SWAP1 DUP3 ADD DUP1 SWAP3 GT PUSH2 0xF44 JUMPI JUMP JUMPDEST PUSH2 0xF21 JUMP JUMPDEST PUSH1 0x40 DUP1 DUP3 MSTORE PUSH2 0xC2 SWAP4 SWAP2 SWAP3 PUSH2 0xF60 SWAP2 DUP5 ADD SWAP1 PUSH2 0x4F3 JUMP JUMPDEST SWAP2 PUSH1 0x20 DUP2 DUP5 SUB SWAP2 ADD MSTORE PUSH2 0x4F3 JUMP JUMPDEST SWAP4 SWAP3 SWAP1 SWAP2 SWAP3 PUSH2 0xF7B DUP5 MLOAD SWAP1 JUMP JUMPDEST PUSH2 0xF89 PUSH2 0xA1D PUSH2 0xC2 DUP6 MLOAD SWAP1 JUMP JUMPDEST SUB PUSH2 0x1185 JUMPI CALLER SWAP4 PUSH1 0x0 SWAP2 PUSH2 0xF9C DUP4 PUSH2 0x72C JUMP JUMPDEST PUSH2 0xFA7 PUSH2 0xC2 DUP5 MLOAD SWAP1 JUMP JUMPDEST DUP2 LT ISZERO PUSH2 0x10BC JUMPI PUSH2 0xFB8 DUP2 DUP5 PUSH2 0xC21 JUMP JUMPDEST SWAP1 PUSH2 0xFC3 DUP2 DUP8 PUSH2 0xC21 JUMP JUMPDEST SWAP2 PUSH2 0xFCD DUP7 PUSH2 0xB6A JUMP JUMPDEST SWAP3 DUP9 PUSH1 0x1 PUSH1 0x1 PUSH1 0xA0 SHL SUB DUP6 AND PUSH1 0x1 PUSH1 0x1 PUSH1 0xA0 SHL SUB DUP14 AND SUB PUSH2 0x1046 JUMPI JUMPDEST PUSH2 0x1010 SWAP5 PUSH1 0x1 PUSH1 0x1 PUSH1 0xA0 SHL SUB AND JUMPDEST PUSH1 0x1 PUSH1 0x1 PUSH1 0xA0 SHL SUB DUP3 AND SUB PUSH2 0x1015 JUMPI JUMPDEST POP POP POP PUSH1 0x1 ADD SWAP1 JUMP JUMPDEST PUSH2 0xF9C JUMP JUMPDEST PUSH2 0x1029 PUSH2 0x1038 SWAP2 PUSH2 0x7AD PUSH2 0x103E SWAP6 DUP12 PUSH2 0x739 JUMP JUMPDEST SWAP2 PUSH2 0x1033 DUP4 PUSH2 0x788 JUMP JUMPDEST PUSH2 0xF37 JUMP JUMPDEST SWAP1 PUSH2 0xF0A JUMP JUMPDEST CODESIZE DUP1 DUP9 PUSH2 0x1007 JUMP JUMPDEST POP SWAP1 SWAP2 SWAP3 PUSH2 0x105B PUSH2 0x7B2 DUP13 PUSH2 0x7AD DUP7 DUP12 PUSH2 0x739 JUMP JUMPDEST DUP3 DUP2 LT PUSH2 0x1097 JUMPI PUSH2 0xFF7 DUP4 SWAP3 PUSH2 0x108F DUP11 DUP16 PUSH2 0x108A SWAP1 DUP16 SWAP7 DUP11 PUSH2 0x1084 PUSH2 0x1010 SWAP14 SWAP13 SWAP12 PUSH2 0x7AD SWAP4 SUB SWAP1 JUMP JUMPDEST SWAP5 PUSH2 0x739 JUMP JUMPDEST PUSH2 0xF0A JUMP JUMPDEST SWAP6 POP POP PUSH2 0xFE9 JUMP JUMPDEST DUP12 PUSH2 0x96B DUP6 DUP6 PUSH2 0x10A6 PUSH1 0x40 MLOAD SWAP1 JUMP JUMPDEST PUSH4 0x3DEE4C5 PUSH1 0xE0 SHL DUP2 MSTORE SWAP5 DUP6 SWAP5 PUSH1 0x4 DUP7 ADD PUSH2 0xEC8 JUMP JUMPDEST POP SWAP6 SWAP3 SWAP5 SWAP2 PUSH2 0x10C9 DUP3 MLOAD SWAP1 JUMP JUMPDEST PUSH2 0x10D6 PUSH2 0xA1D PUSH1 0x1 PUSH2 0x72C JUMP JUMPDEST SUB PUSH2 0x113D JUMPI PUSH2 0x111C PUSH2 0x111C PUSH2 0xCCD PUSH32 0xC3D58168C5AE7397731D063D5BBF3D657854427343F4C083240F7AACAA2D0F62 SWAP6 SWAP5 PUSH2 0x1116 PUSH2 0xE9B PUSH2 0x1122 SWAP7 PUSH2 0x72C JUMP JUMPDEST SWAP10 PUSH2 0xC21 JUMP JUMPDEST SWAP5 PUSH2 0x76E JUMP JUMPDEST SWAP5 PUSH2 0x1138 PUSH2 0x112F PUSH1 0x40 MLOAD SWAP1 JUMP JUMPDEST SWAP3 DUP4 SWAP3 DUP4 PUSH2 0x986 JUMP JUMPDEST SUB SWAP1 LOG4 JUMP JUMPDEST POP SWAP4 PUSH2 0x116F PUSH2 0x111C PUSH2 0x111C PUSH32 0x4A39DC06D4C0DBC64B70AF90FD698A233A518AA5D07E595D983B8C0526C8F7FB SWAP5 PUSH2 0x76E JUMP JUMPDEST SWAP5 PUSH2 0x1138 PUSH2 0x117C PUSH1 0x40 MLOAD SWAP1 JUMP JUMPDEST SWAP3 DUP4 SWAP3 DUP4 PUSH2 0xF49 JUMP JUMPDEST POP PUSH2 0xA9C PUSH2 0xA97 DUP5 MLOAD SWAP1 JUMP JUMPDEST SWAP1 POP MLOAD SWAP1 PUSH2 0xE9 DUP3 PUSH2 0x151 JUMP JUMPDEST SWAP1 PUSH1 0x20 DUP3 DUP3 SUB SLT PUSH2 0xD7 JUMPI PUSH2 0xC2 SWAP2 PUSH2 0x1191 JUMP JUMPDEST SWAP4 SWAP1 PUSH2 0x11FB SWAP1 PUSH2 0xC2 SWAP7 SWAP5 PUSH2 0x11EE PUSH2 0x1209 SWAP6 PUSH2 0x11DE PUSH1 0xA0 DUP11 ADD SWAP5 PUSH1 0x0 DUP12 ADD SWAP1 PUSH1 0x1 PUSH1 0x1 PUSH1 0xA0 SHL SUB AND SWAP1 MSTORE JUMP JUMPDEST PUSH1 0x1 PUSH1 0x1 PUSH1 0xA0 SHL SUB AND PUSH1 0x20 DUP10 ADD MSTORE JUMP JUMPDEST DUP7 DUP3 SUB PUSH1 0x40 DUP9 ADD MSTORE PUSH2 0x4F3 JUMP JUMPDEST SWAP1 DUP5 DUP3 SUB PUSH1 0x60 DUP7 ADD MSTORE PUSH2 0x4F3 JUMP JUMPDEST SWAP2 PUSH1 0x80 DUP2 DUP5 SUB SWAP2 ADD MSTORE PUSH2 0x1E7 JUMP JUMPDEST SWAP1 PUSH2 0x9AA PUSH2 0x2D0 DUP4 PUSH2 0x32D JUMP JUMPDEST RETURNDATASIZE ISZERO PUSH2 0x123E JUMPI PUSH2 0x1233 RETURNDATASIZE PUSH2 0x1217 JUMP JUMPDEST SWAP1 RETURNDATASIZE PUSH1 0x0 PUSH1 0x20 DUP5 ADD RETURNDATACOPY JUMP JUMPDEST PUSH1 0x60 SWAP1 JUMP JUMPDEST SWAP3 SWAP2 SWAP5 SWAP1 DUP6 EXTCODESIZE PUSH2 0x1256 PUSH2 0xA1D PUSH1 0x0 PUSH2 0x72C JUMP JUMPDEST GT PUSH2 0x1264 JUMPI JUMPDEST POP POP POP POP POP POP JUMP JUMPDEST PUSH1 0x0 PUSH1 0x20 SWAP5 PUSH2 0x129C PUSH2 0x1278 PUSH2 0xCC8 DUP11 PUSH2 0x76E JUMP JUMPDEST SWAP5 PUSH2 0x1282 PUSH1 0x40 MLOAD SWAP1 JUMP JUMPDEST SWAP9 DUP10 SWAP8 DUP9 SWAP7 DUP8 SWAP6 PUSH4 0xBC197C81 PUSH1 0xE0 SHL DUP8 MSTORE PUSH1 0x4 DUP8 ADD PUSH2 0x11B2 JUMP JUMPDEST SUB SWAP3 GAS CALL PUSH1 0x0 SWAP2 DUP2 PUSH2 0x1313 JUMPI JUMPDEST POP PUSH2 0x12F8 JUMPI POP PUSH2 0x12BF JUMP JUMPDEST CODESIZE DUP1 DUP1 DUP1 DUP1 DUP1 PUSH2 0x125C JUMP JUMPDEST PUSH2 0x12C7 PUSH2 0x1224 JUMP JUMPDEST SWAP1 PUSH2 0x12D0 DUP3 MLOAD SWAP1 JUMP JUMPDEST PUSH2 0x12DD PUSH2 0xA1D PUSH1 0x0 PUSH2 0x72C JUMP JUMPDEST SUB PUSH2 0x12EF JUMPI PUSH2 0x96B SWAP1 PUSH2 0xBFD PUSH1 0x40 MLOAD SWAP1 JUMP JUMPDEST POP DUP1 MLOAD SWAP1 PUSH1 0x20 ADD REVERT JUMPDEST PUSH2 0x1308 PUSH4 0xBC197C81 PUSH1 0xE0 SHL PUSH2 0xB4B JUMP JUMPDEST SUB PUSH2 0xDD5 JUMPI POP PUSH2 0x12B4 JUMP JUMPDEST PUSH2 0x1336 SWAP2 SWAP3 POP PUSH1 0x20 RETURNDATASIZE PUSH1 0x20 GT PUSH2 0x133D JUMPI JUMPDEST PUSH2 0x132E DUP2 DUP4 PUSH2 0x26D JUMP JUMPDEST DUP2 ADD SWAP1 PUSH2 0x119E JUMP JUMPDEST SWAP1 CODESIZE PUSH2 0x12A9 JUMP JUMPDEST POP RETURNDATASIZE PUSH2 0x1324 JUMP JUMPDEST SWAP2 SWAP4 PUSH2 0x1387 PUSH2 0xC2 SWAP7 SWAP5 PUSH2 0x1380 PUSH2 0x138E SWAP5 SWAP8 PUSH2 0x1370 PUSH1 0xA0 DUP9 ADD SWAP10 PUSH1 0x0 DUP10 ADD SWAP1 PUSH1 0x1 PUSH1 0x1 PUSH1 0xA0 SHL SUB AND SWAP1 MSTORE JUMP JUMPDEST PUSH1 0x1 PUSH1 0x1 PUSH1 0xA0 SHL SUB AND PUSH1 0x20 DUP8 ADD MSTORE JUMP JUMPDEST PUSH1 0x40 DUP6 ADD MSTORE JUMP JUMPDEST PUSH1 0x60 DUP4 ADD MSTORE JUMP JUMPDEST PUSH1 0x80 DUP2 DUP5 SUB SWAP2 ADD MSTORE PUSH2 0x1E7 JUMP JUMPDEST SWAP3 SWAP2 SWAP5 SWAP1 DUP6 EXTCODESIZE PUSH2 0x13AE PUSH2 0xA1D PUSH1 0x0 PUSH2 0x72C JUMP JUMPDEST GT PUSH2 0x13BB JUMPI POP POP POP POP POP POP JUMP JUMPDEST PUSH1 0x0 PUSH1 0x20 SWAP5 PUSH2 0x13F3 PUSH2 0x13CF PUSH2 0xCC8 DUP11 PUSH2 0x76E JUMP JUMPDEST SWAP5 PUSH2 0x13D9 PUSH1 0x40 MLOAD SWAP1 JUMP JUMPDEST SWAP9 DUP10 SWAP8 DUP9 SWAP7 DUP8 SWAP6 PUSH4 0xF23A6E61 PUSH1 0xE0 SHL DUP8 MSTORE PUSH1 0x4 DUP8 ADD PUSH2 0x1344 JUMP JUMPDEST SUB SWAP3 GAS CALL PUSH1 0x0 SWAP2 DUP2 PUSH2 0x141B JUMPI JUMPDEST POP PUSH2 0x140B JUMPI POP PUSH2 0x12BF JUMP JUMPDEST PUSH2 0x1308 PUSH4 0xF23A6E61 PUSH1 0xE0 SHL PUSH2 0xB4B JUMP JUMPDEST PUSH2 0x1435 SWAP2 SWAP3 POP PUSH1 0x20 RETURNDATASIZE PUSH1 0x20 GT PUSH2 0x133D JUMPI PUSH2 0x132E DUP2 DUP4 PUSH2 0x26D JUMP JUMPDEST SWAP1 CODESIZE PUSH2 0x1400 JUMP INVALID LOG2 PUSH5 0x6970667358 0x22 SLT KECCAK256 0xE4 SAR NOT STATICCALL 0xC3 0xDA 0xB6 EXTCODESIZE DUP14 0x21 PUSH0 0xA6 0xE7 0xA9 SWAP2 0xE8 BALANCE LOG1 0xC3 0x4D DELEGATECALL 0x26 0xD9 0xB5 ORIGIN 0xF8 0xE 0xC5 PUSH0 0xAA CHAINID SUB PUSH5 0x736F6C6343 STOP ADDMOD XOR STOP CALLER "},"methodIdentifiers":{"balanceOf(address,uint256)":"00fdd58e","balanceOfBatch(address[],uint256[])":"4e1273f4","isApprovedForAll(address,address)":"e985e9c5","recharge(uint256,uint256,bytes)":"f737e496","rechargeBatch(uint256[],uint256[],bytes)":"efaa5018","safeBatchTransferFrom(address,address,uint256[],uint256[],bytes)":"2eb2c2d6","safeTransferFrom(address,address,uint256,uint256,bytes)":"f242432a","setApprovalForAll(address,bool)":"a22cb465","supportsInterface(bytes4)":"01ffc9a7","uri(uint256)":"0e89341c"}}}}}