{"contracts/lib/TickMath.sol":{"TickMath":{"abi":[{"inputs":[{"internalType":"int24","name":"tick","type":"int24"}],"name":"getSqrtRatioAtTick","outputs":[{"internalType":"uint256","name":"sqrtPriceX96","type":"uint256"}],"stateMutability":"view","type":"function"},{"inputs":[{"internalType":"uint256","name":"sqrtPriceX96","type":"uint256"}],"name":"getTickAtSqrtRatio","outputs":[{"internalType":"int24","name":"tick","type":"int24"}],"stateMutability":"view","type":"function"}],"evm":{"bytecode":{"linkReferences":{},"object":"60806040523461001e57604051610d8d610024823930815050610d8d90f35b600080fdfe6080604052600436101561001257600080fd5b60003560e01c8063986cfba3146100325763ae93bdd203610048576100c4565b610073565b6100418160020b90565b0361004857565b600080fd5b9050359061005a82610037565b565b90602082820312610048576100709161004d565b90565b61009961008961008436600461005c565b6102b8565b6040519182918290815260200190565b0390f35b80610041565b9050359061005a8261009d565b9060208282031261004857610070916100a3565b6100996100da6100d53660046100b0565b610a88565b6040519182918260029190910b815260200190565b6100fc6100706100709290565b60020b90565b6100706100706100709260020b90565b6100706100706100709290565b634e487b7160e01b600052601160045260246000fd5b600160ff1b81146101465760000390565b61011f565b610070620d89e7196100ef565b60020b627fffff1981146101465760000390565b61007061017761014b565b610158565b61018c6100706100709260020b90565b62ffffff1690565b6100706100706100709262ffffff1690565b156101ad57565b60405162461bcd60e51b81526020600482015260016024820152601560fa1b6044820152606490fd5b6101e36100706100709290565b6001600160881b031690565b610070610070610070926001600160881b031690565b9190610210565b9290565b9180830292818404149015171561014657565b6102306100706100709290565b60ff1690565b6100709061024e61024a6100709460ff1690565b9190565b901c90565b634e487b7160e01b600052601260045260246000fd5b8115610273570490565b610253565b8115610273570690565b6100706100706100709260ff1690565b9190820180921161014657565b610070906102b361024a6100709460ff1690565b901b90565b610637610631610621610070936102cd600090565b5060006102d9816100ef565b6102e38360020b90565b1215610979576103026102fd6102f884610102565b610135565b610112565b915b61032a61032261007061031d61031861016c565b61017c565b610194565b8411156101a6565b6103346001610112565b831661034261024a84610112565b14610969576103686103636ffffcb933bd6fad37aa2d162d1a5940016101d6565b6101ef565b926103736002610112565b811661038161024a85610112565b03610942575b6103916004610112565b811661039f61024a85610112565b0361091b575b6103af6008610112565b81166103bd61024a85610112565b036108f4575b6103cd6010610112565b81166103db61024a85610112565b036108cd575b6103eb6020610112565b81166103f961024a85610112565b036108a6575b6104096040610112565b811661041761024a85610112565b03610875575b60809061042982610112565b811661043761024a86610112565b0361084e575b610448610100610112565b811661045661024a86610112565b03610827575b610467610200610112565b811661047561024a86610112565b03610800575b610486610400610112565b811661049461024a86610112565b036107d9575b6104a5610800610112565b81166104b361024a86610112565b036107b2575b6104c4611000610112565b81166104d261024a86610112565b0361078b575b6104e3612000610112565b81166104f161024a86610112565b03610764575b610502614000610112565b811661051061024a86610112565b0361073d575b610521618000610112565b811661052f61024a86610112565b03610716575b61054162010000610112565b811661054f61024a86610112565b036106ef575b61056162020000610112565b811661056f61024a86610112565b036106c9575b61058162040000610112565b811661058f61024a86610112565b0361069b575b6105a162080000610112565b166105ae61024a85610112565b03610668575b506105c86105c1836100ef565b9160020b90565b13610655575b6105f96105e46105de6020610223565b84610236565b926105f3640100000000610112565b90610278565b61060561024a83610112565b036106475761061661061b91610223565b610282565b90610292565b61062b6050610223565b90610236565b80610205565b6106416040610223565b9061029f565b5061061b6106166001610223565b9061066290600019610269565b906105ce565b61062b61068e61069493956106886b091f7dc42448a170344e8fa2610112565b90610205565b91610223565b91386105b4565b936106ba6106c3916106886d2216e584f5fa1ea926041bedfe98610112565b61062b83610223565b93610595565b936106ba6106e9916106886e5d6af8dedb81196699c329225ee604610112565b93610575565b936106ba610710916106886f09aa508b5b7a84e1c677de54f3e99bc9610112565b93610555565b936106ba610737916106886f31be135f97d08fd981231505542fcfa6610112565b93610535565b936106ba61075e916106886f70d869a156d2a1b890bb3df62baf32f7610112565b93610516565b936106ba610785916106886fa9f746462d870fdf8a65dc1f90e061e5610112565b936104f7565b936106ba6107ac916106886fd097f3bdfd2022b8845ad8f792aa5825610112565b936104d8565b936106ba6107d3916106886fe7159475a2c29b7443b29c7fa6e889d9610112565b936104b9565b936106ba6107fa916106886ff3392b0822b70005940c7a398e4b70f3610112565b9361049a565b936106ba610821916106886ff987a7253ac413176f2b074cf7815e54610112565b9361047b565b936106ba610848916106886ffcbe86c7900a88aedcffc83b479aa3a4610112565b9361045c565b936106ba61086f916106886ffe5dee046a99a2a811c461f1969c3053610112565b9361043d565b926108966108a0916106886fff2ea16466c96a3843ec78b326b52861610112565b61062b6080610223565b9261041d565b926108966108c7916106886fff973b41fa98c081472e6896dfb254c0610112565b926103ff565b926108966108ee916106886fffcb9843d60f6159c9db58835c926644610112565b926103e1565b92610896610915916106886fffe5caca7e10e4e61c3624eaa0941cd0610112565b926103c3565b9261089661093c916106886ffff2e50f5f656932ef12357cf3c7fdcc610112565b926103a5565b92610896610963916106886ffff97272373d413259a46990580e213a610112565b92610387565b610368610363600160801b6101d6565b6109856102fd83610102565b91610304565b6100706401000276a3610112565b61007073fffd8963efd1fc6a506488495d951d5263988d26610112565b156109bd57565b60405162461bcd60e51b81526020600482015260016024820152602960f91b6044820152606490fd5b9190820391821161014657565b610070906102b361024a6100709490565b6100709061024e61024a6100709490565b9190808303926000909112801582851316918412161761014657565b8181029291600160ff1b8114600083121661014657818405149015171561014657565b61007090610a6861024a6100709460ff1690565b901d90565b91908281019260001380159184129182169115161761014657565b610a9361007061098b565b81101580610d3f575b610aa5906109b6565b610ab8610ab26020610223565b8261029f565b610ce5610cbb610c7f610acb6000610112565b6001856fffffffffffffffffffffffffffffffff811160071b809317921c67ffffffffffffffff811160061b809317921c63ffffffff811160051b809317921c61ffff811160041b809317921c60ff811160031b809317921c600f811160021b809317921c60038111821b809317921c1117610b8a610637610b7b608097610b5289610112565b8510610d2257610b7590610b6f610b69607f610112565b876109e6565b90610a04565b93610112565b610b8488610112565b90610a15565b908002607f1c80861c9182603f1b17911c8002607f1c80861c9182603e1b17911c8002607f1c80861c9182603d1b17911c8002607f1c80861c9182603c1b17911c8002607f1c80861c9182603b1b17911c8002607f1c80861c9182603a1b17911c8002607f1c80861c918260391b17911c8002607f1c80861c918260381b17911c8002607f1c80861c918260371b17911c8002607f1c80861c918260361b17911c8002607f1c80861c918260351b17911c8002607f1c80861c918260341b17911c8002607f1c80861c918260331b17911c8002607f1c851c60321b17610c79693627a301d71055774c85610112565b90610a31565b92610ce0610cc0610cbb610cb4610cae610ca86f028f6481ab7f045a5af012a19d003aaa610112565b89610a15565b94610223565b8094610a54565b6100ef565b94610cda6fdb2df09e81959a81455e260799a0632f610112565b90610a6d565b610a54565b91610cf08360020b90565b610cfa8360020b90565b03610d055750905090565b610d1461024a61020c856102b8565b11610d1d575090565b905090565b610b7590610d3986610d34607f610112565b6109e6565b906109f3565b50610aa5610d4e610070610999565b82109050610a9c56fea2646970667358221220e50be66d03f953ce23e27b915cba93935d5fec74aa1a042c4281c95a60c7f32c64736f6c63430008180033","opcodes":"PUSH1 0x80 PUSH1 0x40 MSTORE CALLVALUE PUSH2 0x1E JUMPI PUSH1 0x40 MLOAD PUSH2 0xD8D PUSH2 0x24 DUP3 CODECOPY ADDRESS DUP2 POP POP PUSH2 0xD8D SWAP1 RETURN JUMPDEST PUSH1 0x0 DUP1 REVERT INVALID PUSH1 0x80 PUSH1 0x40 MSTORE PUSH1 0x4 CALLDATASIZE LT ISZERO PUSH2 0x12 JUMPI PUSH1 0x0 DUP1 REVERT JUMPDEST PUSH1 0x0 CALLDATALOAD PUSH1 0xE0 SHR DUP1 PUSH4 0x986CFBA3 EQ PUSH2 0x32 JUMPI PUSH4 0xAE93BDD2 SUB PUSH2 0x48 JUMPI PUSH2 0xC4 JUMP JUMPDEST PUSH2 0x73 JUMP JUMPDEST PUSH2 0x41 DUP2 PUSH1 0x2 SIGNEXTEND SWAP1 JUMP JUMPDEST SUB PUSH2 0x48 JUMPI JUMP JUMPDEST PUSH1 0x0 DUP1 REVERT JUMPDEST SWAP1 POP CALLDATALOAD SWAP1 PUSH2 0x5A DUP3 PUSH2 0x37 JUMP JUMPDEST JUMP JUMPDEST SWAP1 PUSH1 0x20 DUP3 DUP3 SUB SLT PUSH2 0x48 JUMPI PUSH2 0x70 SWAP2 PUSH2 0x4D JUMP JUMPDEST SWAP1 JUMP JUMPDEST PUSH2 0x99 PUSH2 0x89 PUSH2 0x84 CALLDATASIZE PUSH1 0x4 PUSH2 0x5C JUMP JUMPDEST PUSH2 0x2B8 JUMP JUMPDEST PUSH1 0x40 MLOAD SWAP2 DUP3 SWAP2 DUP3 SWAP1 DUP2 MSTORE PUSH1 0x20 ADD SWAP1 JUMP JUMPDEST SUB SWAP1 RETURN JUMPDEST DUP1 PUSH2 0x41 JUMP JUMPDEST SWAP1 POP CALLDATALOAD SWAP1 PUSH2 0x5A DUP3 PUSH2 0x9D JUMP JUMPDEST SWAP1 PUSH1 0x20 DUP3 DUP3 SUB SLT PUSH2 0x48 JUMPI PUSH2 0x70 SWAP2 PUSH2 0xA3 JUMP JUMPDEST PUSH2 0x99 PUSH2 0xDA PUSH2 0xD5 CALLDATASIZE PUSH1 0x4 PUSH2 0xB0 JUMP JUMPDEST PUSH2 0xA88 JUMP JUMPDEST PUSH1 0x40 MLOAD SWAP2 DUP3 SWAP2 DUP3 PUSH1 0x2 SWAP2 SWAP1 SWAP2 SIGNEXTEND DUP2 MSTORE PUSH1 0x20 ADD SWAP1 JUMP JUMPDEST PUSH2 0xFC PUSH2 0x70 PUSH2 0x70 SWAP3 SWAP1 JUMP JUMPDEST PUSH1 0x2 SIGNEXTEND SWAP1 JUMP JUMPDEST PUSH2 0x70 PUSH2 0x70 PUSH2 0x70 SWAP3 PUSH1 0x2 SIGNEXTEND SWAP1 JUMP JUMPDEST PUSH2 0x70 PUSH2 0x70 PUSH2 0x70 SWAP3 SWAP1 JUMP JUMPDEST PUSH4 0x4E487B71 PUSH1 0xE0 SHL PUSH1 0x0 MSTORE PUSH1 0x11 PUSH1 0x4 MSTORE PUSH1 0x24 PUSH1 0x0 REVERT JUMPDEST PUSH1 0x1 PUSH1 0xFF SHL DUP2 EQ PUSH2 0x146 JUMPI PUSH1 0x0 SUB SWAP1 JUMP JUMPDEST PUSH2 0x11F JUMP JUMPDEST PUSH2 0x70 PUSH3 0xD89E7 NOT PUSH2 0xEF JUMP JUMPDEST PUSH1 0x2 SIGNEXTEND PUSH3 0x7FFFFF NOT DUP2 EQ PUSH2 0x146 JUMPI PUSH1 0x0 SUB SWAP1 JUMP JUMPDEST PUSH2 0x70 PUSH2 0x177 PUSH2 0x14B JUMP JUMPDEST PUSH2 0x158 JUMP JUMPDEST PUSH2 0x18C PUSH2 0x70 PUSH2 0x70 SWAP3 PUSH1 0x2 SIGNEXTEND SWAP1 JUMP JUMPDEST PUSH3 0xFFFFFF AND SWAP1 JUMP JUMPDEST PUSH2 0x70 PUSH2 0x70 PUSH2 0x70 SWAP3 PUSH3 0xFFFFFF AND SWAP1 JUMP JUMPDEST ISZERO PUSH2 0x1AD JUMPI JUMP JUMPDEST PUSH1 0x40 MLOAD PUSH3 0x461BCD PUSH1 0xE5 SHL DUP2 MSTORE PUSH1 0x20 PUSH1 0x4 DUP3 ADD MSTORE PUSH1 0x1 PUSH1 0x24 DUP3 ADD MSTORE PUSH1 0x15 PUSH1 0xFA SHL PUSH1 0x44 DUP3 ADD MSTORE PUSH1 0x64 SWAP1 REVERT JUMPDEST PUSH2 0x1E3 PUSH2 0x70 PUSH2 0x70 SWAP3 SWAP1 JUMP JUMPDEST PUSH1 0x1 PUSH1 0x1 PUSH1 0x88 SHL SUB AND SWAP1 JUMP JUMPDEST PUSH2 0x70 PUSH2 0x70 PUSH2 0x70 SWAP3 PUSH1 0x1 PUSH1 0x1 PUSH1 0x88 SHL SUB AND SWAP1 JUMP JUMPDEST SWAP2 SWAP1 PUSH2 0x210 JUMP JUMPDEST SWAP3 SWAP1 JUMP JUMPDEST SWAP2 DUP1 DUP4 MUL SWAP3 DUP2 DUP5 DIV EQ SWAP1 ISZERO OR ISZERO PUSH2 0x146 JUMPI JUMP JUMPDEST PUSH2 0x230 PUSH2 0x70 PUSH2 0x70 SWAP3 SWAP1 JUMP JUMPDEST PUSH1 0xFF AND SWAP1 JUMP JUMPDEST PUSH2 0x70 SWAP1 PUSH2 0x24E PUSH2 0x24A PUSH2 0x70 SWAP5 PUSH1 0xFF AND SWAP1 JUMP JUMPDEST SWAP2 SWAP1 JUMP JUMPDEST SWAP1 SHR SWAP1 JUMP JUMPDEST PUSH4 0x4E487B71 PUSH1 0xE0 SHL PUSH1 0x0 MSTORE PUSH1 0x12 PUSH1 0x4 MSTORE PUSH1 0x24 PUSH1 0x0 REVERT JUMPDEST DUP2 ISZERO PUSH2 0x273 JUMPI DIV SWAP1 JUMP JUMPDEST PUSH2 0x253 JUMP JUMPDEST DUP2 ISZERO PUSH2 0x273 JUMPI MOD SWAP1 JUMP JUMPDEST PUSH2 0x70 PUSH2 0x70 PUSH2 0x70 SWAP3 PUSH1 0xFF AND SWAP1 JUMP JUMPDEST SWAP2 SWAP1 DUP3 ADD DUP1 SWAP3 GT PUSH2 0x146 JUMPI JUMP JUMPDEST PUSH2 0x70 SWAP1 PUSH2 0x2B3 PUSH2 0x24A PUSH2 0x70 SWAP5 PUSH1 0xFF AND SWAP1 JUMP JUMPDEST SWAP1 SHL SWAP1 JUMP JUMPDEST PUSH2 0x637 PUSH2 0x631 PUSH2 0x621 PUSH2 0x70 SWAP4 PUSH2 0x2CD PUSH1 0x0 SWAP1 JUMP JUMPDEST POP PUSH1 0x0 PUSH2 0x2D9 DUP2 PUSH2 0xEF JUMP JUMPDEST PUSH2 0x2E3 DUP4 PUSH1 0x2 SIGNEXTEND SWAP1 JUMP JUMPDEST SLT ISZERO PUSH2 0x979 JUMPI PUSH2 0x302 PUSH2 0x2FD PUSH2 0x2F8 DUP5 PUSH2 0x102 JUMP JUMPDEST PUSH2 0x135 JUMP JUMPDEST PUSH2 0x112 JUMP JUMPDEST SWAP2 JUMPDEST PUSH2 0x32A PUSH2 0x322 PUSH2 0x70 PUSH2 0x31D PUSH2 0x318 PUSH2 0x16C JUMP JUMPDEST PUSH2 0x17C JUMP JUMPDEST PUSH2 0x194 JUMP JUMPDEST DUP5 GT ISZERO PUSH2 0x1A6 JUMP JUMPDEST PUSH2 0x334 PUSH1 0x1 PUSH2 0x112 JUMP JUMPDEST DUP4 AND PUSH2 0x342 PUSH2 0x24A DUP5 PUSH2 0x112 JUMP JUMPDEST EQ PUSH2 0x969 JUMPI PUSH2 0x368 PUSH2 0x363 PUSH16 0xFFFCB933BD6FAD37AA2D162D1A594001 PUSH2 0x1D6 JUMP JUMPDEST PUSH2 0x1EF JUMP JUMPDEST SWAP3 PUSH2 0x373 PUSH1 0x2 PUSH2 0x112 JUMP JUMPDEST DUP2 AND PUSH2 0x381 PUSH2 0x24A DUP6 PUSH2 0x112 JUMP JUMPDEST SUB PUSH2 0x942 JUMPI JUMPDEST PUSH2 0x391 PUSH1 0x4 PUSH2 0x112 JUMP JUMPDEST DUP2 AND PUSH2 0x39F PUSH2 0x24A DUP6 PUSH2 0x112 JUMP JUMPDEST SUB PUSH2 0x91B JUMPI JUMPDEST PUSH2 0x3AF PUSH1 0x8 PUSH2 0x112 JUMP JUMPDEST DUP2 AND PUSH2 0x3BD PUSH2 0x24A DUP6 PUSH2 0x112 JUMP JUMPDEST SUB PUSH2 0x8F4 JUMPI JUMPDEST PUSH2 0x3CD PUSH1 0x10 PUSH2 0x112 JUMP JUMPDEST DUP2 AND PUSH2 0x3DB PUSH2 0x24A DUP6 PUSH2 0x112 JUMP JUMPDEST SUB PUSH2 0x8CD JUMPI JUMPDEST PUSH2 0x3EB PUSH1 0x20 PUSH2 0x112 JUMP JUMPDEST DUP2 AND PUSH2 0x3F9 PUSH2 0x24A DUP6 PUSH2 0x112 JUMP JUMPDEST SUB PUSH2 0x8A6 JUMPI JUMPDEST PUSH2 0x409 PUSH1 0x40 PUSH2 0x112 JUMP JUMPDEST DUP2 AND PUSH2 0x417 PUSH2 0x24A DUP6 PUSH2 0x112 JUMP JUMPDEST SUB PUSH2 0x875 JUMPI JUMPDEST PUSH1 0x80 SWAP1 PUSH2 0x429 DUP3 PUSH2 0x112 JUMP JUMPDEST DUP2 AND PUSH2 0x437 PUSH2 0x24A DUP7 PUSH2 0x112 JUMP JUMPDEST SUB PUSH2 0x84E JUMPI JUMPDEST PUSH2 0x448 PUSH2 0x100 PUSH2 0x112 JUMP JUMPDEST DUP2 AND PUSH2 0x456 PUSH2 0x24A DUP7 PUSH2 0x112 JUMP JUMPDEST SUB PUSH2 0x827 JUMPI JUMPDEST PUSH2 0x467 PUSH2 0x200 PUSH2 0x112 JUMP JUMPDEST DUP2 AND PUSH2 0x475 PUSH2 0x24A DUP7 PUSH2 0x112 JUMP JUMPDEST SUB PUSH2 0x800 JUMPI JUMPDEST PUSH2 0x486 PUSH2 0x400 PUSH2 0x112 JUMP JUMPDEST DUP2 AND PUSH2 0x494 PUSH2 0x24A DUP7 PUSH2 0x112 JUMP JUMPDEST SUB PUSH2 0x7D9 JUMPI JUMPDEST PUSH2 0x4A5 PUSH2 0x800 PUSH2 0x112 JUMP JUMPDEST DUP2 AND PUSH2 0x4B3 PUSH2 0x24A DUP7 PUSH2 0x112 JUMP JUMPDEST SUB PUSH2 0x7B2 JUMPI JUMPDEST PUSH2 0x4C4 PUSH2 0x1000 PUSH2 0x112 JUMP JUMPDEST DUP2 AND PUSH2 0x4D2 PUSH2 0x24A DUP7 PUSH2 0x112 JUMP JUMPDEST SUB PUSH2 0x78B JUMPI JUMPDEST PUSH2 0x4E3 PUSH2 0x2000 PUSH2 0x112 JUMP JUMPDEST DUP2 AND PUSH2 0x4F1 PUSH2 0x24A DUP7 PUSH2 0x112 JUMP JUMPDEST SUB PUSH2 0x764 JUMPI JUMPDEST PUSH2 0x502 PUSH2 0x4000 PUSH2 0x112 JUMP JUMPDEST DUP2 AND PUSH2 0x510 PUSH2 0x24A DUP7 PUSH2 0x112 JUMP JUMPDEST SUB PUSH2 0x73D JUMPI JUMPDEST PUSH2 0x521 PUSH2 0x8000 PUSH2 0x112 JUMP JUMPDEST DUP2 AND PUSH2 0x52F PUSH2 0x24A DUP7 PUSH2 0x112 JUMP JUMPDEST SUB PUSH2 0x716 JUMPI JUMPDEST PUSH2 0x541 PUSH3 0x10000 PUSH2 0x112 JUMP JUMPDEST DUP2 AND PUSH2 0x54F PUSH2 0x24A DUP7 PUSH2 0x112 JUMP JUMPDEST SUB PUSH2 0x6EF JUMPI JUMPDEST PUSH2 0x561 PUSH3 0x20000 PUSH2 0x112 JUMP JUMPDEST DUP2 AND PUSH2 0x56F PUSH2 0x24A DUP7 PUSH2 0x112 JUMP JUMPDEST SUB PUSH2 0x6C9 JUMPI JUMPDEST PUSH2 0x581 PUSH3 0x40000 PUSH2 0x112 JUMP JUMPDEST DUP2 AND PUSH2 0x58F PUSH2 0x24A DUP7 PUSH2 0x112 JUMP JUMPDEST SUB PUSH2 0x69B JUMPI JUMPDEST PUSH2 0x5A1 PUSH3 0x80000 PUSH2 0x112 JUMP JUMPDEST AND PUSH2 0x5AE PUSH2 0x24A DUP6 PUSH2 0x112 JUMP JUMPDEST SUB PUSH2 0x668 JUMPI JUMPDEST POP PUSH2 0x5C8 PUSH2 0x5C1 DUP4 PUSH2 0xEF JUMP JUMPDEST SWAP2 PUSH1 0x2 SIGNEXTEND SWAP1 JUMP JUMPDEST SGT PUSH2 0x655 JUMPI JUMPDEST PUSH2 0x5F9 PUSH2 0x5E4 PUSH2 0x5DE PUSH1 0x20 PUSH2 0x223 JUMP JUMPDEST DUP5 PUSH2 0x236 JUMP JUMPDEST SWAP3 PUSH2 0x5F3 PUSH5 0x100000000 PUSH2 0x112 JUMP JUMPDEST SWAP1 PUSH2 0x278 JUMP JUMPDEST PUSH2 0x605 PUSH2 0x24A DUP4 PUSH2 0x112 JUMP JUMPDEST SUB PUSH2 0x647 JUMPI PUSH2 0x616 PUSH2 0x61B SWAP2 PUSH2 0x223 JUMP JUMPDEST PUSH2 0x282 JUMP JUMPDEST SWAP1 PUSH2 0x292 JUMP JUMPDEST PUSH2 0x62B PUSH1 0x50 PUSH2 0x223 JUMP JUMPDEST SWAP1 PUSH2 0x236 JUMP JUMPDEST DUP1 PUSH2 0x205 JUMP JUMPDEST PUSH2 0x641 PUSH1 0x40 PUSH2 0x223 JUMP JUMPDEST SWAP1 PUSH2 0x29F JUMP JUMPDEST POP PUSH2 0x61B PUSH2 0x616 PUSH1 0x1 PUSH2 0x223 JUMP JUMPDEST SWAP1 PUSH2 0x662 SWAP1 PUSH1 0x0 NOT PUSH2 0x269 JUMP JUMPDEST SWAP1 PUSH2 0x5CE JUMP JUMPDEST PUSH2 0x62B PUSH2 0x68E PUSH2 0x694 SWAP4 SWAP6 PUSH2 0x688 PUSH12 0x91F7DC42448A170344E8FA2 PUSH2 0x112 JUMP JUMPDEST SWAP1 PUSH2 0x205 JUMP JUMPDEST SWAP2 PUSH2 0x223 JUMP JUMPDEST SWAP2 CODESIZE PUSH2 0x5B4 JUMP JUMPDEST SWAP4 PUSH2 0x6BA PUSH2 0x6C3 SWAP2 PUSH2 0x688 PUSH14 0x2216E584F5FA1EA926041BEDFE98 PUSH2 0x112 JUMP JUMPDEST PUSH2 0x62B DUP4 PUSH2 0x223 JUMP JUMPDEST SWAP4 PUSH2 0x595 JUMP JUMPDEST SWAP4 PUSH2 0x6BA PUSH2 0x6E9 SWAP2 PUSH2 0x688 PUSH15 0x5D6AF8DEDB81196699C329225EE604 PUSH2 0x112 JUMP JUMPDEST SWAP4 PUSH2 0x575 JUMP JUMPDEST SWAP4 PUSH2 0x6BA PUSH2 0x710 SWAP2 PUSH2 0x688 PUSH16 0x9AA508B5B7A84E1C677DE54F3E99BC9 PUSH2 0x112 JUMP JUMPDEST SWAP4 PUSH2 0x555 JUMP JUMPDEST SWAP4 PUSH2 0x6BA PUSH2 0x737 SWAP2 PUSH2 0x688 PUSH16 0x31BE135F97D08FD981231505542FCFA6 PUSH2 0x112 JUMP JUMPDEST SWAP4 PUSH2 0x535 JUMP JUMPDEST SWAP4 PUSH2 0x6BA PUSH2 0x75E SWAP2 PUSH2 0x688 PUSH16 0x70D869A156D2A1B890BB3DF62BAF32F7 PUSH2 0x112 JUMP JUMPDEST SWAP4 PUSH2 0x516 JUMP JUMPDEST SWAP4 PUSH2 0x6BA PUSH2 0x785 SWAP2 PUSH2 0x688 PUSH16 0xA9F746462D870FDF8A65DC1F90E061E5 PUSH2 0x112 JUMP JUMPDEST SWAP4 PUSH2 0x4F7 JUMP JUMPDEST SWAP4 PUSH2 0x6BA PUSH2 0x7AC SWAP2 PUSH2 0x688 PUSH16 0xD097F3BDFD2022B8845AD8F792AA5825 PUSH2 0x112 JUMP JUMPDEST SWAP4 PUSH2 0x4D8 JUMP JUMPDEST SWAP4 PUSH2 0x6BA PUSH2 0x7D3 SWAP2 PUSH2 0x688 PUSH16 0xE7159475A2C29B7443B29C7FA6E889D9 PUSH2 0x112 JUMP JUMPDEST SWAP4 PUSH2 0x4B9 JUMP JUMPDEST SWAP4 PUSH2 0x6BA PUSH2 0x7FA SWAP2 PUSH2 0x688 PUSH16 0xF3392B0822B70005940C7A398E4B70F3 PUSH2 0x112 JUMP JUMPDEST SWAP4 PUSH2 0x49A JUMP JUMPDEST SWAP4 PUSH2 0x6BA PUSH2 0x821 SWAP2 PUSH2 0x688 PUSH16 0xF987A7253AC413176F2B074CF7815E54 PUSH2 0x112 JUMP JUMPDEST SWAP4 PUSH2 0x47B JUMP JUMPDEST SWAP4 PUSH2 0x6BA PUSH2 0x848 SWAP2 PUSH2 0x688 PUSH16 0xFCBE86C7900A88AEDCFFC83B479AA3A4 PUSH2 0x112 JUMP JUMPDEST SWAP4 PUSH2 0x45C JUMP JUMPDEST SWAP4 PUSH2 0x6BA PUSH2 0x86F SWAP2 PUSH2 0x688 PUSH16 0xFE5DEE046A99A2A811C461F1969C3053 PUSH2 0x112 JUMP JUMPDEST SWAP4 PUSH2 0x43D JUMP JUMPDEST SWAP3 PUSH2 0x896 PUSH2 0x8A0 SWAP2 PUSH2 0x688 PUSH16 0xFF2EA16466C96A3843EC78B326B52861 PUSH2 0x112 JUMP JUMPDEST PUSH2 0x62B PUSH1 0x80 PUSH2 0x223 JUMP JUMPDEST SWAP3 PUSH2 0x41D JUMP JUMPDEST SWAP3 PUSH2 0x896 PUSH2 0x8C7 SWAP2 PUSH2 0x688 PUSH16 0xFF973B41FA98C081472E6896DFB254C0 PUSH2 0x112 JUMP JUMPDEST SWAP3 PUSH2 0x3FF JUMP JUMPDEST SWAP3 PUSH2 0x896 PUSH2 0x8EE SWAP2 PUSH2 0x688 PUSH16 0xFFCB9843D60F6159C9DB58835C926644 PUSH2 0x112 JUMP JUMPDEST SWAP3 PUSH2 0x3E1 JUMP JUMPDEST SWAP3 PUSH2 0x896 PUSH2 0x915 SWAP2 PUSH2 0x688 PUSH16 0xFFE5CACA7E10E4E61C3624EAA0941CD0 PUSH2 0x112 JUMP JUMPDEST SWAP3 PUSH2 0x3C3 JUMP JUMPDEST SWAP3 PUSH2 0x896 PUSH2 0x93C SWAP2 PUSH2 0x688 PUSH16 0xFFF2E50F5F656932EF12357CF3C7FDCC PUSH2 0x112 JUMP JUMPDEST SWAP3 PUSH2 0x3A5 JUMP JUMPDEST SWAP3 PUSH2 0x896 PUSH2 0x963 SWAP2 PUSH2 0x688 PUSH16 0xFFF97272373D413259A46990580E213A PUSH2 0x112 JUMP JUMPDEST SWAP3 PUSH2 0x387 JUMP JUMPDEST PUSH2 0x368 PUSH2 0x363 PUSH1 0x1 PUSH1 0x80 SHL PUSH2 0x1D6 JUMP JUMPDEST PUSH2 0x985 PUSH2 0x2FD DUP4 PUSH2 0x102 JUMP JUMPDEST SWAP2 PUSH2 0x304 JUMP JUMPDEST PUSH2 0x70 PUSH5 0x1000276A3 PUSH2 0x112 JUMP JUMPDEST PUSH2 0x70 PUSH20 0xFFFD8963EFD1FC6A506488495D951D5263988D26 PUSH2 0x112 JUMP JUMPDEST ISZERO PUSH2 0x9BD JUMPI JUMP JUMPDEST PUSH1 0x40 MLOAD PUSH3 0x461BCD PUSH1 0xE5 SHL DUP2 MSTORE PUSH1 0x20 PUSH1 0x4 DUP3 ADD MSTORE PUSH1 0x1 PUSH1 0x24 DUP3 ADD MSTORE PUSH1 0x29 PUSH1 0xF9 SHL PUSH1 0x44 DUP3 ADD MSTORE PUSH1 0x64 SWAP1 REVERT JUMPDEST SWAP2 SWAP1 DUP3 SUB SWAP2 DUP3 GT PUSH2 0x146 JUMPI JUMP JUMPDEST PUSH2 0x70 SWAP1 PUSH2 0x2B3 PUSH2 0x24A PUSH2 0x70 SWAP5 SWAP1 JUMP JUMPDEST PUSH2 0x70 SWAP1 PUSH2 0x24E PUSH2 0x24A PUSH2 0x70 SWAP5 SWAP1 JUMP JUMPDEST SWAP2 SWAP1 DUP1 DUP4 SUB SWAP3 PUSH1 0x0 SWAP1 SWAP2 SLT DUP1 ISZERO DUP3 DUP6 SGT AND SWAP2 DUP5 SLT AND OR PUSH2 0x146 JUMPI JUMP JUMPDEST DUP2 DUP2 MUL SWAP3 SWAP2 PUSH1 0x1 PUSH1 0xFF SHL DUP2 EQ PUSH1 0x0 DUP4 SLT AND PUSH2 0x146 JUMPI DUP2 DUP5 SDIV EQ SWAP1 ISZERO OR ISZERO PUSH2 0x146 JUMPI JUMP JUMPDEST PUSH2 0x70 SWAP1 PUSH2 0xA68 PUSH2 0x24A PUSH2 0x70 SWAP5 PUSH1 0xFF AND SWAP1 JUMP JUMPDEST SWAP1 SAR SWAP1 JUMP JUMPDEST SWAP2 SWAP1 DUP3 DUP2 ADD SWAP3 PUSH1 0x0 SGT DUP1 ISZERO SWAP2 DUP5 SLT SWAP2 DUP3 AND SWAP2 ISZERO AND OR PUSH2 0x146 JUMPI JUMP JUMPDEST PUSH2 0xA93 PUSH2 0x70 PUSH2 0x98B JUMP JUMPDEST DUP2 LT ISZERO DUP1 PUSH2 0xD3F JUMPI JUMPDEST PUSH2 0xAA5 SWAP1 PUSH2 0x9B6 JUMP JUMPDEST PUSH2 0xAB8 PUSH2 0xAB2 PUSH1 0x20 PUSH2 0x223 JUMP JUMPDEST DUP3 PUSH2 0x29F JUMP JUMPDEST PUSH2 0xCE5 PUSH2 0xCBB PUSH2 0xC7F PUSH2 0xACB PUSH1 0x0 PUSH2 0x112 JUMP JUMPDEST PUSH1 0x1 DUP6 PUSH16 0xFFFFFFFFFFFFFFFFFFFFFFFFFFFFFFFF DUP2 GT PUSH1 0x7 SHL DUP1 SWAP4 OR SWAP3 SHR PUSH8 0xFFFFFFFFFFFFFFFF DUP2 GT PUSH1 0x6 SHL DUP1 SWAP4 OR SWAP3 SHR PUSH4 0xFFFFFFFF DUP2 GT PUSH1 0x5 SHL DUP1 SWAP4 OR SWAP3 SHR PUSH2 0xFFFF DUP2 GT PUSH1 0x4 SHL DUP1 SWAP4 OR SWAP3 SHR PUSH1 0xFF DUP2 GT PUSH1 0x3 SHL DUP1 SWAP4 OR SWAP3 SHR PUSH1 0xF DUP2 GT PUSH1 0x2 SHL DUP1 SWAP4 OR SWAP3 SHR PUSH1 0x3 DUP2 GT DUP3 SHL DUP1 SWAP4 OR SWAP3 SHR GT OR PUSH2 0xB8A PUSH2 0x637 PUSH2 0xB7B PUSH1 0x80 SWAP8 PUSH2 0xB52 DUP10 PUSH2 0x112 JUMP JUMPDEST DUP6 LT PUSH2 0xD22 JUMPI PUSH2 0xB75 SWAP1 PUSH2 0xB6F PUSH2 0xB69 PUSH1 0x7F PUSH2 0x112 JUMP JUMPDEST DUP8 PUSH2 0x9E6 JUMP JUMPDEST SWAP1 PUSH2 0xA04 JUMP JUMPDEST SWAP4 PUSH2 0x112 JUMP JUMPDEST PUSH2 0xB84 DUP9 PUSH2 0x112 JUMP JUMPDEST SWAP1 PUSH2 0xA15 JUMP JUMPDEST SWAP1 DUP1 MUL PUSH1 0x7F SHR DUP1 DUP7 SHR SWAP2 DUP3 PUSH1 0x3F SHL OR SWAP2 SHR DUP1 MUL PUSH1 0x7F SHR DUP1 DUP7 SHR SWAP2 DUP3 PUSH1 0x3E SHL OR SWAP2 SHR DUP1 MUL PUSH1 0x7F SHR DUP1 DUP7 SHR SWAP2 DUP3 PUSH1 0x3D SHL OR SWAP2 SHR DUP1 MUL PUSH1 0x7F SHR DUP1 DUP7 SHR SWAP2 DUP3 PUSH1 0x3C SHL OR SWAP2 SHR DUP1 MUL PUSH1 0x7F SHR DUP1 DUP7 SHR SWAP2 DUP3 PUSH1 0x3B SHL OR SWAP2 SHR DUP1 MUL PUSH1 0x7F SHR DUP1 DUP7 SHR SWAP2 DUP3 PUSH1 0x3A SHL OR SWAP2 SHR DUP1 MUL PUSH1 0x7F SHR DUP1 DUP7 SHR SWAP2 DUP3 PUSH1 0x39 SHL OR SWAP2 SHR DUP1 MUL PUSH1 0x7F SHR DUP1 DUP7 SHR SWAP2 DUP3 PUSH1 0x38 SHL OR SWAP2 SHR DUP1 MUL PUSH1 0x7F SHR DUP1 DUP7 SHR SWAP2 DUP3 PUSH1 0x37 SHL OR SWAP2 SHR DUP1 MUL PUSH1 0x7F SHR DUP1 DUP7 SHR SWAP2 DUP3 PUSH1 0x36 SHL OR SWAP2 SHR DUP1 MUL PUSH1 0x7F SHR DUP1 DUP7 SHR SWAP2 DUP3 PUSH1 0x35 SHL OR SWAP2 SHR DUP1 MUL PUSH1 0x7F SHR DUP1 DUP7 SHR SWAP2 DUP3 PUSH1 0x34 SHL OR SWAP2 SHR DUP1 MUL PUSH1 0x7F SHR DUP1 DUP7 SHR SWAP2 DUP3 PUSH1 0x33 SHL OR SWAP2 SHR DUP1 MUL PUSH1 0x7F SHR DUP6 SHR PUSH1 0x32 SHL OR PUSH2 0xC79 PUSH10 0x3627A301D71055774C85 PUSH2 0x112 JUMP JUMPDEST SWAP1 PUSH2 0xA31 JUMP JUMPDEST SWAP3 PUSH2 0xCE0 PUSH2 0xCC0 PUSH2 0xCBB PUSH2 0xCB4 PUSH2 0xCAE PUSH2 0xCA8 PUSH16 0x28F6481AB7F045A5AF012A19D003AAA PUSH2 0x112 JUMP JUMPDEST DUP10 PUSH2 0xA15 JUMP JUMPDEST SWAP5 PUSH2 0x223 JUMP JUMPDEST DUP1 SWAP5 PUSH2 0xA54 JUMP JUMPDEST PUSH2 0xEF JUMP JUMPDEST SWAP5 PUSH2 0xCDA PUSH16 0xDB2DF09E81959A81455E260799A0632F PUSH2 0x112 JUMP JUMPDEST SWAP1 PUSH2 0xA6D JUMP JUMPDEST PUSH2 0xA54 JUMP JUMPDEST SWAP2 PUSH2 0xCF0 DUP4 PUSH1 0x2 SIGNEXTEND SWAP1 JUMP JUMPDEST PUSH2 0xCFA DUP4 PUSH1 0x2 SIGNEXTEND SWAP1 JUMP JUMPDEST SUB PUSH2 0xD05 JUMPI POP SWAP1 POP SWAP1 JUMP JUMPDEST PUSH2 0xD14 PUSH2 0x24A PUSH2 0x20C DUP6 PUSH2 0x2B8 JUMP JUMPDEST GT PUSH2 0xD1D JUMPI POP SWAP1 JUMP JUMPDEST SWAP1 POP SWAP1 JUMP JUMPDEST PUSH2 0xB75 SWAP1 PUSH2 0xD39 DUP7 PUSH2 0xD34 PUSH1 0x7F PUSH2 0x112 JUMP JUMPDEST PUSH2 0x9E6 JUMP JUMPDEST SWAP1 PUSH2 0x9F3 JUMP JUMPDEST POP PUSH2 0xAA5 PUSH2 0xD4E PUSH2 0x70 PUSH2 0x999 JUMP JUMPDEST DUP3 LT SWAP1 POP PUSH2 0xA9C JUMP INVALID LOG2 PUSH5 0x6970667358 0x22 SLT KECCAK256 0xE5 SIGNEXTEND 0xE6 PUSH14 0x3F953CE23E27B915CBA93935D5F 0xEC PUSH21 0xAA1A042C4281C95A60C7F32C64736F6C6343000818 STOP CALLER "},"methodIdentifiers":{"getSqrtRatioAtTick(int24)":"986cfba3","getTickAtSqrtRatio(uint256)":"ae93bdd2"}}}}}