{"contracts/lib/SwapMath.sol":{"SwapMath":{"abi":[{"inputs":[{"internalType":"uint256","name":"prod1","type":"uint256"},{"internalType":"uint256","name":"denominator","type":"uint256"}],"name":"PRBMath__MulDivOverflow","type":"error"},{"inputs":[{"internalType":"uint256","name":"currentPrice","type":"uint256"},{"internalType":"uint128","name":"activeLquidity","type":"uint128"},{"internalType":"uint160","name":"activeComposition","type":"uint160"},{"internalType":"uint256","name":"nextPrice","type":"uint256"},{"internalType":"bool","name":"zeroForOne","type":"bool"},{"internalType":"uint256","name":"amountRemain","type":"uint256"}],"name":"computeSwap","outputs":[{"internalType":"uint256","name":"_nextPice","type":"uint256"},{"internalType":"uint160","name":"compositionAfter","type":"uint160"},{"internalType":"uint256","name":"amountIn","type":"uint256"},{"internalType":"uint256","name":"amountOut","type":"uint256"}],"stateMutability":"pure","type":"function"}],"evm":{"bytecode":{"linkReferences":{},"object":"60806040523461001e5760405161069461002482393081505061069490f35b600080fdfe6080604052600436101561001257600080fd5b60003560e01c6393261d190361003057610128565b805b0361003057565b600080fd5b9050359061004282610027565b565b6001600160801b038116610029565b9050359061004282610044565b6001600160a01b038116610029565b9050359061004282610060565b801515610029565b905035906100428261007c565b909160c082840312610030576100a78383610035565b926100b58160208501610053565b926100c3826040830161006f565b926100eb6100d48460608501610035565b9360a06100e48260808701610084565b9401610035565b90565b6101246100429461011d60609498979561010d608086019a6000870152565b6001600160a01b03166020850152565b6040830152565b0152565b61015b610145610139366004610091565b9493909392919261022c565b9061015294929460405190565b948594856100ee565b0390f35b61016c6100eb6100eb9290565b60ff1690565b6100eb606061015f565b6100eb6100eb6100eb9290565b6100eb906101a161019d6100eb9460ff1690565b9190565b901b90565b6101b36100eb6100eb9290565b6001600160a01b031690565b634e487b7160e01b600052601160045260246000fd5b6101f0906001600160a01b03165b916001600160a01b031690565b9003906001600160a01b03821161020357565b6101bf565b61021a906001600160a01b03166101e3565b01906001600160a01b03821161020357565b949193600093811561032e5761024286846103be565b8410156102c1575085908394506000146102a3576102999061026761029f948461045e565b926102938461028e61028961027a610172565b610284600161017c565b610189565b6101a6565b6101d5565b90610366565b936101d5565b9293565b6102b461029f93836102bb93610423565b80926103be565b93610208565b959250909392506000146102ff576102f591906102ef906102e98361028e600160601b6101a6565b85610366565b926103be565b61029f60016101a6565b8161031e6103186103249461028e61028961027a610172565b856103be565b93610366565b61029f60006101a6565b610339878785610366565b610242565b6100eb6100eb6100eb926001600160801b031690565b6100eb9081906001600160a01b031681565b6103b86103b26100eb9493610379600090565b506103ac61039361038d600160601b6101a6565b9561033e565b916103a661039f610172565b8094610189565b956101d5565b94610189565b92610354565b906104b4565b906103d46100eb926103ce600090565b5061033e565b6103f06103b26103e561039f610172565b92610284600161017c565b90610521565b610417906101a161040a6100eb9460ff1690565b916001600160801b031690565b6001600160801b031690565b906100eb926104586104536102899461043a600090565b5061044d610446610172565b8092610189565b946103f6565b61033e565b916104b4565b6100eb9161028991610458610453610474610172565b61048281610284600161017c565b936103f6565b634e487b7160e01b600052601260045260246000fd5b1561003057565b60001981146102035760010190565b9192916104c2848383610521565b91829480156104ff576104de916104d9600061017c565b930990565b116104e65750565b9091506100eb906104fa600019821061049e565b6104a5565b610488565b81156104ff570490565b9081526040810192916100429160200152565b9192919060009060001981840992818102938480821091030392610545600061017c565b841461064f57868410156106275792866100eb969793610593936105a6965009808603951090036001610580841961057c8361017c565b0190565b8416808095049604938060000304010290565b17916105a66105aa826105a6600361017c565b0290565b6105db61062161061b61060c6105fd6105ee6105df6002976105cb8961017c565b186105a68b82026105db8b61017c565b0390565b6105a68a82026105db8a61017c565b6105a68982026105db8961017c565b6105a68882026105db8861017c565b6105a68782026105db8761017c565b80950290565b9161017c565b868461064b61063560405190565b631dcf306360e21b81529283926004840161050e565b0390fd5b50505050916100eb919261050456fea2646970667358221220cdd786dede11323ed4e57e4db3660eb6d9d9e19c392b38954cbb90d41d2bb84c64736f6c63430008180033","opcodes":"PUSH1 0x80 PUSH1 0x40 MSTORE CALLVALUE PUSH2 0x1E JUMPI PUSH1 0x40 MLOAD PUSH2 0x694 PUSH2 0x24 DUP3 CODECOPY ADDRESS DUP2 POP POP PUSH2 0x694 SWAP1 RETURN JUMPDEST PUSH1 0x0 DUP1 REVERT INVALID PUSH1 0x80 PUSH1 0x40 MSTORE PUSH1 0x4 CALLDATASIZE LT ISZERO PUSH2 0x12 JUMPI PUSH1 0x0 DUP1 REVERT JUMPDEST PUSH1 0x0 CALLDATALOAD PUSH1 0xE0 SHR PUSH4 0x93261D19 SUB PUSH2 0x30 JUMPI PUSH2 0x128 JUMP JUMPDEST DUP1 JUMPDEST SUB PUSH2 0x30 JUMPI JUMP JUMPDEST PUSH1 0x0 DUP1 REVERT JUMPDEST SWAP1 POP CALLDATALOAD SWAP1 PUSH2 0x42 DUP3 PUSH2 0x27 JUMP JUMPDEST JUMP JUMPDEST PUSH1 0x1 PUSH1 0x1 PUSH1 0x80 SHL SUB DUP2 AND PUSH2 0x29 JUMP JUMPDEST SWAP1 POP CALLDATALOAD SWAP1 PUSH2 0x42 DUP3 PUSH2 0x44 JUMP JUMPDEST PUSH1 0x1 PUSH1 0x1 PUSH1 0xA0 SHL SUB DUP2 AND PUSH2 0x29 JUMP JUMPDEST SWAP1 POP CALLDATALOAD SWAP1 PUSH2 0x42 DUP3 PUSH2 0x60 JUMP JUMPDEST DUP1 ISZERO ISZERO PUSH2 0x29 JUMP JUMPDEST SWAP1 POP CALLDATALOAD SWAP1 PUSH2 0x42 DUP3 PUSH2 0x7C JUMP JUMPDEST SWAP1 SWAP2 PUSH1 0xC0 DUP3 DUP5 SUB SLT PUSH2 0x30 JUMPI PUSH2 0xA7 DUP4 DUP4 PUSH2 0x35 JUMP JUMPDEST SWAP3 PUSH2 0xB5 DUP2 PUSH1 0x20 DUP6 ADD PUSH2 0x53 JUMP JUMPDEST SWAP3 PUSH2 0xC3 DUP3 PUSH1 0x40 DUP4 ADD PUSH2 0x6F JUMP JUMPDEST SWAP3 PUSH2 0xEB PUSH2 0xD4 DUP5 PUSH1 0x60 DUP6 ADD PUSH2 0x35 JUMP JUMPDEST SWAP4 PUSH1 0xA0 PUSH2 0xE4 DUP3 PUSH1 0x80 DUP8 ADD PUSH2 0x84 JUMP JUMPDEST SWAP5 ADD PUSH2 0x35 JUMP JUMPDEST SWAP1 JUMP JUMPDEST PUSH2 0x124 PUSH2 0x42 SWAP5 PUSH2 0x11D PUSH1 0x60 SWAP5 SWAP9 SWAP8 SWAP6 PUSH2 0x10D PUSH1 0x80 DUP7 ADD SWAP11 PUSH1 0x0 DUP8 ADD MSTORE JUMP JUMPDEST PUSH1 0x1 PUSH1 0x1 PUSH1 0xA0 SHL SUB AND PUSH1 0x20 DUP6 ADD MSTORE JUMP JUMPDEST PUSH1 0x40 DUP4 ADD MSTORE JUMP JUMPDEST ADD MSTORE JUMP JUMPDEST PUSH2 0x15B PUSH2 0x145 PUSH2 0x139 CALLDATASIZE PUSH1 0x4 PUSH2 0x91 JUMP JUMPDEST SWAP5 SWAP4 SWAP1 SWAP4 SWAP3 SWAP2 SWAP3 PUSH2 0x22C JUMP JUMPDEST SWAP1 PUSH2 0x152 SWAP5 SWAP3 SWAP5 PUSH1 0x40 MLOAD SWAP1 JUMP JUMPDEST SWAP5 DUP6 SWAP5 DUP6 PUSH2 0xEE JUMP JUMPDEST SUB SWAP1 RETURN JUMPDEST PUSH2 0x16C PUSH2 0xEB PUSH2 0xEB SWAP3 SWAP1 JUMP JUMPDEST PUSH1 0xFF AND SWAP1 JUMP JUMPDEST PUSH2 0xEB PUSH1 0x60 PUSH2 0x15F JUMP JUMPDEST PUSH2 0xEB PUSH2 0xEB PUSH2 0xEB SWAP3 SWAP1 JUMP JUMPDEST PUSH2 0xEB SWAP1 PUSH2 0x1A1 PUSH2 0x19D PUSH2 0xEB SWAP5 PUSH1 0xFF AND SWAP1 JUMP JUMPDEST SWAP2 SWAP1 JUMP JUMPDEST SWAP1 SHL SWAP1 JUMP JUMPDEST PUSH2 0x1B3 PUSH2 0xEB PUSH2 0xEB SWAP3 SWAP1 JUMP JUMPDEST PUSH1 0x1 PUSH1 0x1 PUSH1 0xA0 SHL SUB AND SWAP1 JUMP JUMPDEST PUSH4 0x4E487B71 PUSH1 0xE0 SHL PUSH1 0x0 MSTORE PUSH1 0x11 PUSH1 0x4 MSTORE PUSH1 0x24 PUSH1 0x0 REVERT JUMPDEST PUSH2 0x1F0 SWAP1 PUSH1 0x1 PUSH1 0x1 PUSH1 0xA0 SHL SUB AND JUMPDEST SWAP2 PUSH1 0x1 PUSH1 0x1 PUSH1 0xA0 SHL SUB AND SWAP1 JUMP JUMPDEST SWAP1 SUB SWAP1 PUSH1 0x1 PUSH1 0x1 PUSH1 0xA0 SHL SUB DUP3 GT PUSH2 0x203 JUMPI JUMP JUMPDEST PUSH2 0x1BF JUMP JUMPDEST PUSH2 0x21A SWAP1 PUSH1 0x1 PUSH1 0x1 PUSH1 0xA0 SHL SUB AND PUSH2 0x1E3 JUMP JUMPDEST ADD SWAP1 PUSH1 0x1 PUSH1 0x1 PUSH1 0xA0 SHL SUB DUP3 GT PUSH2 0x203 JUMPI JUMP JUMPDEST SWAP5 SWAP2 SWAP4 PUSH1 0x0 SWAP4 DUP2 ISZERO PUSH2 0x32E JUMPI PUSH2 0x242 DUP7 DUP5 PUSH2 0x3BE JUMP JUMPDEST DUP5 LT ISZERO PUSH2 0x2C1 JUMPI POP DUP6 SWAP1 DUP4 SWAP5 POP PUSH1 0x0 EQ PUSH2 0x2A3 JUMPI PUSH2 0x299 SWAP1 PUSH2 0x267 PUSH2 0x29F SWAP5 DUP5 PUSH2 0x45E JUMP JUMPDEST SWAP3 PUSH2 0x293 DUP5 PUSH2 0x28E PUSH2 0x289 PUSH2 0x27A PUSH2 0x172 JUMP JUMPDEST PUSH2 0x284 PUSH1 0x1 PUSH2 0x17C JUMP JUMPDEST PUSH2 0x189 JUMP JUMPDEST PUSH2 0x1A6 JUMP JUMPDEST PUSH2 0x1D5 JUMP JUMPDEST SWAP1 PUSH2 0x366 JUMP JUMPDEST SWAP4 PUSH2 0x1D5 JUMP JUMPDEST SWAP3 SWAP4 JUMP JUMPDEST PUSH2 0x2B4 PUSH2 0x29F SWAP4 DUP4 PUSH2 0x2BB SWAP4 PUSH2 0x423 JUMP JUMPDEST DUP1 SWAP3 PUSH2 0x3BE JUMP JUMPDEST SWAP4 PUSH2 0x208 JUMP JUMPDEST SWAP6 SWAP3 POP SWAP1 SWAP4 SWAP3 POP PUSH1 0x0 EQ PUSH2 0x2FF JUMPI PUSH2 0x2F5 SWAP2 SWAP1 PUSH2 0x2EF SWAP1 PUSH2 0x2E9 DUP4 PUSH2 0x28E PUSH1 0x1 PUSH1 0x60 SHL PUSH2 0x1A6 JUMP JUMPDEST DUP6 PUSH2 0x366 JUMP JUMPDEST SWAP3 PUSH2 0x3BE JUMP JUMPDEST PUSH2 0x29F PUSH1 0x1 PUSH2 0x1A6 JUMP JUMPDEST DUP2 PUSH2 0x31E PUSH2 0x318 PUSH2 0x324 SWAP5 PUSH2 0x28E PUSH2 0x289 PUSH2 0x27A PUSH2 0x172 JUMP JUMPDEST DUP6 PUSH2 0x3BE JUMP JUMPDEST SWAP4 PUSH2 0x366 JUMP JUMPDEST PUSH2 0x29F PUSH1 0x0 PUSH2 0x1A6 JUMP JUMPDEST PUSH2 0x339 DUP8 DUP8 DUP6 PUSH2 0x366 JUMP JUMPDEST PUSH2 0x242 JUMP JUMPDEST PUSH2 0xEB PUSH2 0xEB PUSH2 0xEB SWAP3 PUSH1 0x1 PUSH1 0x1 PUSH1 0x80 SHL SUB AND SWAP1 JUMP JUMPDEST PUSH2 0xEB SWAP1 DUP2 SWAP1 PUSH1 0x1 PUSH1 0x1 PUSH1 0xA0 SHL SUB AND DUP2 JUMP JUMPDEST PUSH2 0x3B8 PUSH2 0x3B2 PUSH2 0xEB SWAP5 SWAP4 PUSH2 0x379 PUSH1 0x0 SWAP1 JUMP JUMPDEST POP PUSH2 0x3AC PUSH2 0x393 PUSH2 0x38D PUSH1 0x1 PUSH1 0x60 SHL PUSH2 0x1A6 JUMP JUMPDEST SWAP6 PUSH2 0x33E JUMP JUMPDEST SWAP2 PUSH2 0x3A6 PUSH2 0x39F PUSH2 0x172 JUMP JUMPDEST DUP1 SWAP5 PUSH2 0x189 JUMP JUMPDEST SWAP6 PUSH2 0x1D5 JUMP JUMPDEST SWAP5 PUSH2 0x189 JUMP JUMPDEST SWAP3 PUSH2 0x354 JUMP JUMPDEST SWAP1 PUSH2 0x4B4 JUMP JUMPDEST SWAP1 PUSH2 0x3D4 PUSH2 0xEB SWAP3 PUSH2 0x3CE PUSH1 0x0 SWAP1 JUMP JUMPDEST POP PUSH2 0x33E JUMP JUMPDEST PUSH2 0x3F0 PUSH2 0x3B2 PUSH2 0x3E5 PUSH2 0x39F PUSH2 0x172 JUMP JUMPDEST SWAP3 PUSH2 0x284 PUSH1 0x1 PUSH2 0x17C JUMP JUMPDEST SWAP1 PUSH2 0x521 JUMP JUMPDEST PUSH2 0x417 SWAP1 PUSH2 0x1A1 PUSH2 0x40A PUSH2 0xEB SWAP5 PUSH1 0xFF AND SWAP1 JUMP JUMPDEST SWAP2 PUSH1 0x1 PUSH1 0x1 PUSH1 0x80 SHL SUB AND SWAP1 JUMP JUMPDEST PUSH1 0x1 PUSH1 0x1 PUSH1 0x80 SHL SUB AND SWAP1 JUMP JUMPDEST SWAP1 PUSH2 0xEB SWAP3 PUSH2 0x458 PUSH2 0x453 PUSH2 0x289 SWAP5 PUSH2 0x43A PUSH1 0x0 SWAP1 JUMP JUMPDEST POP PUSH2 0x44D PUSH2 0x446 PUSH2 0x172 JUMP JUMPDEST DUP1 SWAP3 PUSH2 0x189 JUMP JUMPDEST SWAP5 PUSH2 0x3F6 JUMP JUMPDEST PUSH2 0x33E JUMP JUMPDEST SWAP2 PUSH2 0x4B4 JUMP JUMPDEST PUSH2 0xEB SWAP2 PUSH2 0x289 SWAP2 PUSH2 0x458 PUSH2 0x453 PUSH2 0x474 PUSH2 0x172 JUMP JUMPDEST PUSH2 0x482 DUP2 PUSH2 0x284 PUSH1 0x1 PUSH2 0x17C JUMP JUMPDEST SWAP4 PUSH2 0x3F6 JUMP JUMPDEST PUSH4 0x4E487B71 PUSH1 0xE0 SHL PUSH1 0x0 MSTORE PUSH1 0x12 PUSH1 0x4 MSTORE PUSH1 0x24 PUSH1 0x0 REVERT JUMPDEST ISZERO PUSH2 0x30 JUMPI JUMP JUMPDEST PUSH1 0x0 NOT DUP2 EQ PUSH2 0x203 JUMPI PUSH1 0x1 ADD SWAP1 JUMP JUMPDEST SWAP2 SWAP3 SWAP2 PUSH2 0x4C2 DUP5 DUP4 DUP4 PUSH2 0x521 JUMP JUMPDEST SWAP2 DUP3 SWAP5 DUP1 ISZERO PUSH2 0x4FF JUMPI PUSH2 0x4DE SWAP2 PUSH2 0x4D9 PUSH1 0x0 PUSH2 0x17C JUMP JUMPDEST SWAP4 MULMOD SWAP1 JUMP JUMPDEST GT PUSH2 0x4E6 JUMPI POP JUMP JUMPDEST SWAP1 SWAP2 POP PUSH2 0xEB SWAP1 PUSH2 0x4FA PUSH1 0x0 NOT DUP3 LT PUSH2 0x49E JUMP JUMPDEST PUSH2 0x4A5 JUMP JUMPDEST PUSH2 0x488 JUMP JUMPDEST DUP2 ISZERO PUSH2 0x4FF JUMPI DIV SWAP1 JUMP JUMPDEST SWAP1 DUP2 MSTORE PUSH1 0x40 DUP2 ADD SWAP3 SWAP2 PUSH2 0x42 SWAP2 PUSH1 0x20 ADD MSTORE JUMP JUMPDEST SWAP2 SWAP3 SWAP2 SWAP1 PUSH1 0x0 SWAP1 PUSH1 0x0 NOT DUP2 DUP5 MULMOD SWAP3 DUP2 DUP2 MUL SWAP4 DUP5 DUP1 DUP3 LT SWAP2 SUB SUB SWAP3 PUSH2 0x545 PUSH1 0x0 PUSH2 0x17C JUMP JUMPDEST DUP5 EQ PUSH2 0x64F JUMPI DUP7 DUP5 LT ISZERO PUSH2 0x627 JUMPI SWAP3 DUP7 PUSH2 0xEB SWAP7 SWAP8 SWAP4 PUSH2 0x593 SWAP4 PUSH2 0x5A6 SWAP7 POP MULMOD DUP1 DUP7 SUB SWAP6 LT SWAP1 SUB PUSH1 0x1 PUSH2 0x580 DUP5 NOT PUSH2 0x57C DUP4 PUSH2 0x17C JUMP JUMPDEST ADD SWAP1 JUMP JUMPDEST DUP5 AND DUP1 DUP1 SWAP6 DIV SWAP7 DIV SWAP4 DUP1 PUSH1 0x0 SUB DIV ADD MUL SWAP1 JUMP JUMPDEST OR SWAP2 PUSH2 0x5A6 PUSH2 0x5AA DUP3 PUSH2 0x5A6 PUSH1 0x3 PUSH2 0x17C JUMP JUMPDEST MUL SWAP1 JUMP JUMPDEST PUSH2 0x5DB PUSH2 0x621 PUSH2 0x61B PUSH2 0x60C PUSH2 0x5FD PUSH2 0x5EE PUSH2 0x5DF PUSH1 0x2 SWAP8 PUSH2 0x5CB DUP10 PUSH2 0x17C JUMP JUMPDEST XOR PUSH2 0x5A6 DUP12 DUP3 MUL PUSH2 0x5DB DUP12 PUSH2 0x17C JUMP JUMPDEST SUB SWAP1 JUMP JUMPDEST PUSH2 0x5A6 DUP11 DUP3 MUL PUSH2 0x5DB DUP11 PUSH2 0x17C JUMP JUMPDEST PUSH2 0x5A6 DUP10 DUP3 MUL PUSH2 0x5DB DUP10 PUSH2 0x17C JUMP JUMPDEST PUSH2 0x5A6 DUP9 DUP3 MUL PUSH2 0x5DB DUP9 PUSH2 0x17C JUMP JUMPDEST PUSH2 0x5A6 DUP8 DUP3 MUL PUSH2 0x5DB DUP8 PUSH2 0x17C JUMP JUMPDEST DUP1 SWAP6 MUL SWAP1 JUMP JUMPDEST SWAP2 PUSH2 0x17C JUMP JUMPDEST DUP7 DUP5 PUSH2 0x64B PUSH2 0x635 PUSH1 0x40 MLOAD SWAP1 JUMP JUMPDEST PUSH4 0x1DCF3063 PUSH1 0xE2 SHL DUP2 MSTORE SWAP3 DUP4 SWAP3 PUSH1 0x4 DUP5 ADD PUSH2 0x50E JUMP JUMPDEST SUB SWAP1 REVERT JUMPDEST POP POP POP POP SWAP2 PUSH2 0xEB SWAP2 SWAP3 PUSH2 0x504 JUMP INVALID LOG2 PUSH5 0x6970667358 0x22 SLT KECCAK256 0xCD 0xD7 DUP7 0xDE 0xDE GT ORIGIN RETURNDATACOPY 0xD4 0xE5 PUSH31 0x4DB3660EB6D9D9E19C392B38954CBB90D41D2BB84C64736F6C634300081800 CALLER "},"methodIdentifiers":{"computeSwap(uint256,uint128,uint160,uint256,bool,uint256)":"93261d19"}}}}}