{"contracts/JoeSwapPool.sol":{"JoeSwapPool":{"abi":[{"inputs":[{"internalType":"address","name":"token0_","type":"address"},{"internalType":"address","name":"token1_","type":"address"},{"internalType":"uint256","name":"_pi","type":"uint256"},{"internalType":"int32","name":"_bin","type":"int32"}],"stateMutability":"nonpayable","type":"constructor"},{"inputs":[],"name":"Invalidbinposition","type":"error"},{"inputs":[{"internalType":"uint256","name":"prod1","type":"uint256"},{"internalType":"uint256","name":"denominator","type":"uint256"}],"name":"PRBMath__MulDivOverflow","type":"error"},{"inputs":[],"name":"ZeroLiquidity","type":"error"},{"inputs":[],"name":"composition","outputs":[{"internalType":"uint160","name":"","type":"uint160"}],"stateMutability":"view","type":"function"},{"inputs":[],"name":"liquidity","outputs":[{"internalType":"uint128","name":"","type":"uint128"}],"stateMutability":"view","type":"function"},{"inputs":[{"internalType":"address","name":"owner","type":"address"},{"internalType":"int32","name":"target_bin","type":"int32"},{"internalType":"uint128","name":"amount","type":"uint128"},{"internalType":"bytes","name":"data","type":"bytes"}],"name":"mint","outputs":[{"internalType":"uint256","name":"amount0","type":"uint256"},{"internalType":"uint256","name":"amount1","type":"uint256"}],"stateMutability":"nonpayable","type":"function"},{"inputs":[{"internalType":"address","name":"operator","type":"address"},{"internalType":"address","name":"from","type":"address"},{"internalType":"uint256[]","name":"ids","type":"uint256[]"},{"internalType":"uint256[]","name":"values","type":"uint256[]"},{"internalType":"bytes","name":"data","type":"bytes"}],"name":"onERC1155BatchReceived","outputs":[{"internalType":"bytes4","name":"","type":"bytes4"}],"stateMutability":"nonpayable","type":"function"},{"inputs":[{"internalType":"address","name":"operator","type":"address"},{"internalType":"address","name":"from","type":"address"},{"internalType":"uint256","name":"id","type":"uint256"},{"internalType":"uint256","name":"value","type":"uint256"},{"internalType":"bytes","name":"data","type":"bytes"}],"name":"onERC1155Received","outputs":[{"internalType":"bytes4","name":"","type":"bytes4"}],"stateMutability":"nonpayable","type":"function"},{"inputs":[],"name":"slot","outputs":[{"internalType":"uint256","name":"pi","type":"uint256"},{"internalType":"int32","name":"bin","type":"int32"}],"stateMutability":"view","type":"function"},{"inputs":[{"internalType":"address","name":"recipient","type":"address"},{"internalType":"uint256","name":"expectedAmount","type":"uint256"},{"internalType":"uint256","name":"limitPrice","type":"uint256"},{"internalType":"bool","name":"zeroforone","type":"bool"},{"internalType":"bytes","name":"data","type":"bytes"}],"name":"swap","outputs":[{"internalType":"uint256","name":"amount0","type":"uint256"},{"internalType":"uint256","name":"amount1","type":"uint256"}],"stateMutability":"nonpayable","type":"function"},{"inputs":[],"name":"token0","outputs":[{"internalType":"address","name":"","type":"address"}],"stateMutability":"view","type":"function"},{"inputs":[],"name":"token1","outputs":[{"internalType":"address","name":"","type":"address"}],"stateMutability":"view","type":"function"}],"evm":{"bytecode":{"linkReferences":{"contracts/lib/SwapMath.sol":{"SwapMath":[{"length":20,"start":3663}]},"contracts/lib/TickMath.sol":{"TickMath":[{"length":20,"start":3290},{"length":20,"start":4829}]}},"object":"60c060405234620000455762000022620000186200013b565b9291909162000232565b604051611f236200026882396080518160e1015260a051816104cb0152611f2390f35b600080fd5b634e487b7160e01b600052604160045260246000fd5b90601f01601f191681019081106001600160401b038211176200008257604052565b6200004a565b906200009f6200009760405190565b928362000060565b565b90565b6001600160a01b0381165b036200004557565b905051906200009f82620000a4565b80620000af565b905051906200009f82620000c6565b620000af8160030b90565b905051906200009f82620000dc565b60808183031262000045576200010d8282620000b7565b92620000a1620001218460208501620000b7565b936060620001338260408701620000cd565b9401620000e7565b6200015e6200218b80380380620001528162000088565b928339810190620000f6565b90919293565b620000a1604062000088565b90600019905b9181191691161790565b620000a1620000a1620000a19290565b90620001a4620000a1620001ac9262000180565b825462000170565b9055565b9063ffffffff9062000176565b620001d0620000a1620000a19260030b90565b60030b90565b90620001ea620000a1620001ac92620001bd565b8254620001b0565b60016200021e60206200009f94620002166200020f600083015190565b8662000190565b015160030b90565b9101620001d6565b906200009f91620001f2565b60805260a0526200009f916200025f90620002556200025062000164565b938452565b60030b6020830152565b60006200022656fe6080604052600436101561001257600080fd5b60003560e01c80630dfe1681146100a25780631a6865021461009d5780631a88bc66146100985780632ead224d1461009357806356b4b80d1461008e578063bc197c8114610089578063d21220a714610084578063d456b5dd1461007f5763f23a6e61036100b257610576565b61051a565b6104b6565b610476565b6103a2565b6102ea565b6101bb565b61014b565b6100cc565b60009103126100b257565b600080fd5b6001600160a01b031690565b90565b9052565b565b346100b2576100dc3660046100a7565b61011b7f00000000000000000000000000000000000000000000000000000000000000005b604051918291826001600160a01b03909116815260200190565b0390f35b6100c3916008021c5b6001600160801b031690565b906100c3915461011f565b6100c360006005610134565b346100b25761015b3660046100a7565b61011b61016661013f565b604051918291826001600160801b03909116815260200190565b6100c39081565b6100c39054610180565b6100c3905b60030b90565b6100c39054610191565b6101b06000610187565b906100c3600161019c565b346100b2576101cb3660046100a7565b6101d36101a6565b9061011b6101e060405190565b9283928390815260039190910b602082015260400190565b6001600160a01b0381165b036100b257565b905035906100ca826101f8565b80610203565b905035906100ca82610217565b801515610203565b905035906100ca8261022a565b909182601f830112156100b25781359167ffffffffffffffff83116100b25760200192600183028401116100b257565b91909160a0818403126100b257610286838261020a565b92610294816020840161021d565b926102a2826040850161021d565b926102b08360608301610232565b92608082013567ffffffffffffffff81116100b2576102cf920161023f565b9091565b9081526040810192916100ca9160200152565b0152565b346100b2576103096102fd36600461026f565b94939093929192610923565b9061011b61031660405190565b928392836102d3565b6102038160030b90565b905035906100ca8261031f565b6001600160801b038116610203565b905035906100ca82610336565b906080828203126100b257610367818361020a565b926103758260208501610329565b926103838360408301610345565b92606082013567ffffffffffffffff81116100b2576102cf920161023f565b346100b2576103096103b5366004610352565b93929092611021565b909182601f830112156100b25781359167ffffffffffffffff83116100b25760200192602083028401116100b257565b9160a0838303126100b257610403828461020a565b92610411836020830161020a565b92604082013567ffffffffffffffff81116100b257816104329184016103be565b929093606082013567ffffffffffffffff81116100b257836104559184016103be565b929093608082013567ffffffffffffffff81116100b2576102cf920161023f565b346100b25761011b61049b61048c3660046103ee565b96959095949194939293611319565b604051918291826001600160e01b0319909116815260200190565b346100b2576104c63660046100a7565b61011b7f0000000000000000000000000000000000000000000000000000000000000000610101565b6100c3916008021c6001600160a01b031690565b906100c391546104ef565b6100c360006006610503565b346100b25761052a3660046100a7565b61011b61010161050e565b91909160a0818403126100b25761054c838261020a565b9261055a816020840161020a565b92610568826040850161021d565b926102b0836060830161021d565b346100b25761011b61049b61058c366004610535565b94939093929192611335565b634e487b7160e01b600052604160045260246000fd5b90601f01601f1916810190811067ffffffffffffffff8211176105d057604052565b610598565b906100ca6105e260405190565b92836105ae565b6100c360406105d5565b906100ca61061b60016106046105e9565b9461061561061182610187565b8752565b0161019c565b60030b6020840152565b6100c3906105f3565b6100c390610128565b6100c3905461062e565b6100c36100c36100c39290565b6100c373fffd8963efd1fc6a506488495d951d5263988d26610641565b6100c36401000276a3610641565b0190565b1561068457565b60405162461bcd60e51b8152602060048201526013602482015272496e76616c6964204c696d697450726963652160681b6044820152606490fd5b0390fd5b6100c360a06105d5565b6100c360c06105d5565b6106df6106cd565b906000825260208080808080870160008152016000815201600081520160008152016000905250565b6100c36106d7565b6101966100c36100c39290565b6101966100c36100c39260030b90565b906107379061071d565b600052602052604060002090565b6100c3905b60ff1690565b6100c39054610745565b634e487b7160e01b600052601160045260246000fd5b61077f9060030b5b9160030b90565b900390637fffffff198212637fffffff83131761079857565b61075a565b6107ad6100c36100c39260030b90565b60020b90565b905051906100ca82610217565b906020828203126100b2576100c3916107b3565b6040513d6000823e3d90fd5b6100c3628d89e8610710565b6100c3906100b7565b6100c390546107ec565b6001600160a01b038116610203565b905051906100ca826107ff565b6080818303126100b25761082f82826107b3565b926100c3610840846020850161080e565b93606061085082604087016107b3565b94016107b3565b91946108a66102e69298979561089f60a09661088f6100ca9a61087f60c08a019e60008b0152565b6001600160801b03166020890152565b6001600160a01b03166040870152565b6060850152565b15156080830152565b906001600160a01b03905b9181191691161790565b6100c3906100b7906001600160a01b031682565b906108e86100c36108ef926108c4565b82546108af565b9055565b9190820391821161079857565b9190820180921161079857565b6100c39060081c610128565b6100c3905461090d565b509350915092610931600090565b5061093c6000610625565b906109476005610637565b918515610e87576109596100c3825190565b841080610e6e575b610971909691959693929361067d565b6109ba610982602087015160030b90565b926109aa61098e885190565b6109a36109996106c3565b96879060030b9052565b6020860152565b6001600160801b03166040840152565b6109c46000610641565b956109d0876060850152565b6109db876080850152565b86811180610e60575b15610dfe576109f1610708565b936109fd602085015190565b96610a0a60008701988952565b875198610a18865160030b90565b995b8890610a25565b9190565b11610def57610a65610a45866004809d610a3f6001610710565b91611404565b151560608a0190815260208a019291610a5f9060030b8452565b51151590565b8015610dce575b610bb65773__$09c5a29259139f1547af36d068cffd1c2f$__9a6020610ae0610ab3610aae610a9c865160030b90565b610aa862800000610710565b90610770565b61079d565b9d610abd60405190565b9e8f92839182919063986cfba360e01b835287830160029190910b815260200190565b03915af49b8c15610bb15760009c610b81575b50610b008c925160030b90565b809c610b0c610a218d90565b11908115610b6a575b50610b205750610a1a565b6106bf90610b2d60405190565b62461bcd60e51b815291829182016020808252601590820152746c6971756964697479206e6f7420656e6f7567682160581b604082015260600190565b9050610b7a6107786101966107e0565b1338610b15565b610ba3919c5060203d8111610baa575b610b9b81836105ae565b8101906107c0565b9a38610af3565b503d610b91565b6107d4565b50929093985096909394965b610bd6610bd260608a0151151590565b1590565b610d91576080888a93610c02610bfd73__$89f048fee344bc4d2c98692516b13b585e$__90565b915190565b60408a01516001600160801b031690610c4e86610c2a6040610c2460066107f5565b97015190565b98610c3460405190565b998a97889687966393261d1960e01b885260048801610857565b03915af48015610bb157610ca09289610c9592600080808092949193610d4d575b610c8e949550816102e660809260a0610c8796950152565b60066108d8565b6020880152565b60a0880151906108f3565b95610cc4610caf60a083015190565b6100c66060880191610cbf835190565b610900565b610ce2610cd2608083015190565b6100c66080880191610cbf835190565b6020850151610cf8610a216100c3604085015190565b14610d0a575b509590949291926109db565b6020015160030b8452610d47610d376000610d316002610d2b895160030b90565b9061072d565b01610919565b6001600160801b03166040860152565b38610cfe565b50915050610c8e9150610c876102e6610d7d608095863d8111610d8a575b610d7581836105ae565b81019061081b565b9296509350939150610c6f565b503d610d6b565b60405162461bcd60e51b81526020600482015260156024820152746c6971756964697479206e6f7420656e6f7567682160581b6044820152606490fd5b50610dea6000610de46002610d2b855160030b90565b01610750565b610a6c565b92909398509690939496610bc2565b50925092610e35919450610e23610e19600086015160030b90565b60030b6020830152565b6000610e30602086015190565b910152565b15610e50576102cf6060610e4a608084015190565b92015190565b6102cf6080610e4a606084015190565b5060208301518510156109e4565b50610971610e7d6100c361066b565b8510159050610961565b610e926100c3825190565b841180610ea957610971909691959693929361067d565b50610971610eb86100c361064e565b8511159050610961565b6100c362727618610710565b6101286100c36100c39290565b61074a6100c36100c39290565b6100c36060610edb565b6100c390610f06610a216100c39460ff1690565b901b90565b6100b76100c36100c39290565b610f279060ff165b9160ff1690565b90039060ff821161079857565b610f4f906001600160801b03165b916001600160801b031690565b01906001600160801b03821161079857565b906001600160801b03906108ba565b6101286100c36100c3926001600160801b031690565b90610f966100c36108ef92610f70565b8254610f61565b6100c3906108c4565b6100c390610f9d565b90826000939282370152565b9190610fd981610fd2816106799560209181520190565b8095610faf565b601f01601f191690565b9093916100c3959361100d611014926110066080860198600087019060030b9052565b6020850152565b6040830152565b6060818503910152610fbb565b9394929060009586936110356101966107e0565b61103f8460030b90565b1380156112fd575b6112eb5760009461105786610ece565b6001600160801b038316146112d9576110726001870161019c565b9873__$09c5a29259139f1547af36d068cffd1c2f$__9960206110d26110a6610aae6110a062800000610710565b8a610770565b9c6110b060405190565b63986cfba360e01b815260029e909e0b60048f01528d91829081906024820190565b03915af49a8b15610bb15760009b6112b8575b506110f08160030b90565b6110fa8760030b90565b03611254575050506111799061111586610de486600261072d565b1561120f576111748461113e61113761112e60066107f5565b9c5b8d8661160a565b9b84611662565b9961115c611155856111506005610637565b610f34565b6005610f86565b611168848360026116e1565b6111f5575b6003611845565b61188f565b61118a61118533610fa6565b610fa6565b803b156100b257878580946111bd8a956111a360405190565b9889978896879563196d73b760e21b875260048701610fe3565b03925af18015610bb1576111cf575050565b816100ca92903d106111ee575b6111e681836105ae565b8101906100a7565b503d6111dc565b61120a6112026001610710565b8360046117bd565b61116d565b6111748461113e61113761124e61124961123a61122a610ee8565b6112346001610edb565b90610f18565b6112446001610641565b610ef2565b610f0b565b9c611130565b9899919860030b6112658660030b90565b131561128e57509061117484611288611179946112818a610f0b565b50846115a2565b9a61115c565b98975050611179906112a461124961123a610ee8565b50611174846112b28361157f565b9961115c565b6112d2919b5060203d602011610baa57610b9b81836105ae565b99386110e5565b604051630200e8a960e31b8152600490fd5b604051633944550f60e21b8152600490fd5b50611309610196610ec2565b6113138460030b90565b12611047565b5050505050505050611329600090565b5063bc197c8160e01b90565b505050505050611343600090565b5063f23a6e6160e01b90565b634e487b7160e01b600052601260045260246000fd5b6113719060030b610778565b90811561138e57637fffffff198114600019831416610798570590565b61134f565b61139f9060030b610778565b0190637fffffff8213637fffffff1983121761079857565b6113c76100c36100c39260ff1690565b63ffffffff1690565b6101966100c36100c39263ffffffff1690565b6113ef9060030b610778565b02906113fb8260030b90565b91820361079857565b9291908161141a91611414600090565b50611365565b91156114b4576114599261145e611430846118e5565b959061145361143f6001610641565b610cbf61144c8a83610ef2565b91826108f3565b9361072d565b610187565b169261146a6000610641565b8414801594906114a05792610aa861149361148e6114989461123461149d98611bd0565b6113b7565b6113d0565b6113e3565b91565b5061149d92610aa8611493611498936113b7565b6114596001936114fb6114d76114d26114cc88610710565b87611393565b6118e5565b93906114536114f76114e88a610641565b6114f28882610ef2565b6108f3565b1990565b16906115076000610641565b8214801595906115435761149361148e611498949361153e61153861149d9961153261153297610710565b90611393565b95611982565b610f18565b611498925061149361148e61156161149d9761153261153295610710565b9360ff610f18565b6100c36100c36100c3926001600160801b031690565b6115946100c39161158e600090565b50611569565b61159c610ee8565b90610ef2565b906115b26100c39261158e600090565b6115d26115c76115c0610ee8565b8093610ef2565b916112446001610641565b90611d5e565b6001600160a01b0390811691169003906001600160a01b03821161079857565b6100c39081906001600160a01b031681565b61165c6116566100c3949361161d600090565b50611650611637611631600160601b610f0b565b95611569565b9161164a611643610ee8565b8094610ef2565b956115d8565b94610ef2565b926115f8565b90611ea2565b906116726100c39261158e600090565b6115d2611656611683611643610ee8565b926112446001610641565b9060ff906108ba565b906116a76100c36108ef92151590565b825461168e565b9070ffffffffffffffffffffffffffffffff009060081b6108ba565b906116da6100c36108ef92610f70565b82546116ae565b6100c36100ca926116fd929594956116f7600090565b5061072d565b9261170784610919565b6000948591611718610f4284610ece565b1461176c575b019361176461175e61173961173288610919565b9485610f34565b9361175a610f4261174986610ece565b6001600160801b0388161495610ece565b1490565b91151590565b1415936116ca565b6117796001838301611697565b61171e565b61178a9060030b610778565b90811561138e570790565b156100b257565b90600019906108ba565b906117b66100c36108ef92610641565b825461179c565b906117f86117eb6117fe926114d26117d86100ca978361177e565b6117e56107786000610710565b14611795565b6112446001939293610641565b9261072d565b9061180882610187565b18906117a6565b6100c6906001600160a01b031660601b90565b601481611835610679936004969561180f565b01809260e01b9052565b90610737565b61186a6118766100c3946100c39461185c60405190565b938492602084019283611822565b908103825203826105ae565b611888611881825190565b9160200190565b209061183f565b6100ca916118a09061115083610637565b90610f86565b610196906118ba6107786100c39460ff1690565b901d90565b6118cf6100c36100c39260030b90565b60000b90565b61074a6100c36100c39260000b90565b906100c36119196119146119026118fc6008610edb565b866118a6565b9461190e610100610710565b9061177e565b6118bf565b6118d5565b6100c390611932610a216100c39460ff1690565b901c90565b6100c36100c36100c39267ffffffffffffffff1690565b6100c36100c36100c39263ffffffff1690565b6100c36100c36100c39261ffff1690565b6100c36100c36100c39260ff1690565b90600061199961199182610641565b845b11611795565b6119a360ff610edb565b806119b46001600160801b03611569565b85166119c2610a2185610641565b1115611ba257506119d7906112346080610edb565b6119e867ffffffffffffffff611937565b84166119f6610a2184610641565b1115611b8d57611a0a906112346040610edb565b611a1763ffffffff61194e565b8416611a25610a2184610641565b1115611b7857611a39906112346020610edb565b611a4461ffff611961565b8416611a52610a2184610641565b1115611b6357611a66906112346010610edb565b611a7060ff611972565b8416611a7e610a2184610641565b1115611b4e57611a92906112346008610edb565b611a9c600f610641565b8416611aaa610a2184610641565b1115611b3957611abe906112346004610edb565b611ac86003610641565b8416611ad6610a2184610641565b1115611b1957610a21611af0611b03926112346002610edb565b945b611afc6001610641565b1692610641565b11611b0a57565b906100c3906112346001610edb565b92610a21611b34611b0392611b2e6002610edb565b9061191e565b611af2565b92611b4890611b2e6004610edb565b92611abe565b92611b5d90611b2e6008610edb565b92611a92565b92611b7290611b2e6010610edb565b92611a66565b92611b8790611b2e6020610edb565b92611a39565b92611b9c90611b2e6040610edb565b92611a0a565b93611bb29150611b2e6080610edb565b926119d7565b611bc49060ff16610f20565b019060ff821161079857565b9060009182611be8611be26000610641565b83611993565b611bf5600160801b610641565b821015611d3a575b50611c1068010000000000000000610641565b811015611d23575b611c26640100000000610641565b811015611d0c575b611c3a62010000610641565b811015611cf5575b611c4d610100610641565b811015611cde575b611c5f6010610641565b811015611cc7575b611c716004610641565b811015611ca3575b611c86610a216002610641565b1015611c8e57565b906100c390611c9d6001610edb565b90611bb8565b611cc190611cbb611cb46002610edb565b809261191e565b93611bb8565b91611c79565b611cd890611cbb611cb46004610edb565b91611c67565b611cef90611cbb611cb46008610edb565b91611c55565b611d0690611cbb611cb46010610edb565b91611c42565b611d1d90611cbb611cb46020610edb565b91611c2e565b611d3490611cbb611cb46040610edb565b91611c18565b9250611d4d90611cbb611cb46080610edb565b9138611bfd565b811561138e570490565b9192919060009060001981840992818102938480821091030392611d826000610641565b8414611e845786841015611e605792866100c3969793611dcc93611ddf965009808603951090036001611db9841961067983610641565b8416808095049604938060000304010290565b1791611ddf611de382611ddf6003610641565b0290565b611e14611e5a611e54611e45611e36611e27611e18600297611e0489610641565b18611ddf8b8202611e148b610641565b0390565b611ddf8a8202611e148a610641565b611ddf898202611e1489610641565b611ddf888202611e1488610641565b611ddf878202611e1487610641565b80950290565b91610641565b86846106bf611e6e60405190565b631dcf306360e21b8152928392600484016102d3565b50505050916100c39192611d54565b60001981146107985760010190565b919291611eb0848383611d5e565b918294801561138e57611ecc91611ec76000610641565b930990565b11611ed45750565b9091506100c390611ee86000198210611795565b611e9356fea2646970667358221220a9c4c38a88da756585589a6e2a9e44730aa3a75a3a0d79961268c00a0b70c8f464736f6c63430008180033","opcodes":"PUSH1 0xC0 PUSH1 0x40 MSTORE CALLVALUE PUSH3 0x45 JUMPI PUSH3 0x22 PUSH3 0x18 PUSH3 0x13B JUMP JUMPDEST SWAP3 SWAP2 SWAP1 SWAP2 PUSH3 0x232 JUMP JUMPDEST PUSH1 0x40 MLOAD PUSH2 0x1F23 PUSH3 0x268 DUP3 CODECOPY PUSH1 0x80 MLOAD DUP2 PUSH1 0xE1 ADD MSTORE PUSH1 0xA0 MLOAD DUP2 PUSH2 0x4CB ADD MSTORE PUSH2 0x1F23 SWAP1 RETURN JUMPDEST PUSH1 0x0 DUP1 REVERT JUMPDEST PUSH4 0x4E487B71 PUSH1 0xE0 SHL PUSH1 0x0 MSTORE PUSH1 0x41 PUSH1 0x4 MSTORE PUSH1 0x24 PUSH1 0x0 REVERT JUMPDEST SWAP1 PUSH1 0x1F ADD PUSH1 0x1F NOT AND DUP2 ADD SWAP1 DUP2 LT PUSH1 0x1 PUSH1 0x1 PUSH1 0x40 SHL SUB DUP3 GT OR PUSH3 0x82 JUMPI PUSH1 0x40 MSTORE JUMP JUMPDEST PUSH3 0x4A JUMP JUMPDEST SWAP1 PUSH3 0x9F PUSH3 0x97 PUSH1 0x40 MLOAD SWAP1 JUMP JUMPDEST SWAP3 DUP4 PUSH3 0x60 JUMP JUMPDEST JUMP JUMPDEST SWAP1 JUMP JUMPDEST PUSH1 0x1 PUSH1 0x1 PUSH1 0xA0 SHL SUB DUP2 AND JUMPDEST SUB PUSH3 0x45 JUMPI JUMP JUMPDEST SWAP1 POP MLOAD SWAP1 PUSH3 0x9F DUP3 PUSH3 0xA4 JUMP JUMPDEST DUP1 PUSH3 0xAF JUMP JUMPDEST SWAP1 POP MLOAD SWAP1 PUSH3 0x9F DUP3 PUSH3 0xC6 JUMP JUMPDEST PUSH3 0xAF DUP2 PUSH1 0x3 SIGNEXTEND SWAP1 JUMP JUMPDEST SWAP1 POP MLOAD SWAP1 PUSH3 0x9F DUP3 PUSH3 0xDC JUMP JUMPDEST PUSH1 0x80 DUP2 DUP4 SUB SLT PUSH3 0x45 JUMPI PUSH3 0x10D DUP3 DUP3 PUSH3 0xB7 JUMP JUMPDEST SWAP3 PUSH3 0xA1 PUSH3 0x121 DUP5 PUSH1 0x20 DUP6 ADD PUSH3 0xB7 JUMP JUMPDEST SWAP4 PUSH1 0x60 PUSH3 0x133 DUP3 PUSH1 0x40 DUP8 ADD PUSH3 0xCD JUMP JUMPDEST SWAP5 ADD PUSH3 0xE7 JUMP JUMPDEST PUSH3 0x15E PUSH3 0x218B DUP1 CODESIZE SUB DUP1 PUSH3 0x152 DUP2 PUSH3 0x88 JUMP JUMPDEST SWAP3 DUP4 CODECOPY DUP2 ADD SWAP1 PUSH3 0xF6 JUMP JUMPDEST SWAP1 SWAP2 SWAP3 SWAP4 JUMP JUMPDEST PUSH3 0xA1 PUSH1 0x40 PUSH3 0x88 JUMP JUMPDEST SWAP1 PUSH1 0x0 NOT SWAP1 JUMPDEST SWAP2 DUP2 NOT AND SWAP2 AND OR SWAP1 JUMP JUMPDEST PUSH3 0xA1 PUSH3 0xA1 PUSH3 0xA1 SWAP3 SWAP1 JUMP JUMPDEST SWAP1 PUSH3 0x1A4 PUSH3 0xA1 PUSH3 0x1AC SWAP3 PUSH3 0x180 JUMP JUMPDEST DUP3 SLOAD PUSH3 0x170 JUMP JUMPDEST SWAP1 SSTORE JUMP JUMPDEST SWAP1 PUSH4 0xFFFFFFFF SWAP1 PUSH3 0x176 JUMP JUMPDEST PUSH3 0x1D0 PUSH3 0xA1 PUSH3 0xA1 SWAP3 PUSH1 0x3 SIGNEXTEND SWAP1 JUMP JUMPDEST PUSH1 0x3 SIGNEXTEND SWAP1 JUMP JUMPDEST SWAP1 PUSH3 0x1EA PUSH3 0xA1 PUSH3 0x1AC SWAP3 PUSH3 0x1BD JUMP JUMPDEST DUP3 SLOAD PUSH3 0x1B0 JUMP JUMPDEST PUSH1 0x1 PUSH3 0x21E PUSH1 0x20 PUSH3 0x9F SWAP5 PUSH3 0x216 PUSH3 0x20F PUSH1 0x0 DUP4 ADD MLOAD SWAP1 JUMP JUMPDEST DUP7 PUSH3 0x190 JUMP JUMPDEST ADD MLOAD PUSH1 0x3 SIGNEXTEND SWAP1 JUMP JUMPDEST SWAP2 ADD PUSH3 0x1D6 JUMP JUMPDEST SWAP1 PUSH3 0x9F SWAP2 PUSH3 0x1F2 JUMP JUMPDEST PUSH1 0x80 MSTORE PUSH1 0xA0 MSTORE PUSH3 0x9F SWAP2 PUSH3 0x25F SWAP1 PUSH3 0x255 PUSH3 0x250 PUSH3 0x164 JUMP JUMPDEST SWAP4 DUP5 MSTORE JUMP JUMPDEST PUSH1 0x3 SIGNEXTEND PUSH1 0x20 DUP4 ADD MSTORE JUMP JUMPDEST PUSH1 0x0 PUSH3 0x226 JUMP INVALID PUSH1 0x80 PUSH1 0x40 MSTORE PUSH1 0x4 CALLDATASIZE LT ISZERO PUSH2 0x12 JUMPI PUSH1 0x0 DUP1 REVERT JUMPDEST PUSH1 0x0 CALLDATALOAD PUSH1 0xE0 SHR DUP1 PUSH4 0xDFE1681 EQ PUSH2 0xA2 JUMPI DUP1 PUSH4 0x1A686502 EQ PUSH2 0x9D JUMPI DUP1 PUSH4 0x1A88BC66 EQ PUSH2 0x98 JUMPI DUP1 PUSH4 0x2EAD224D EQ PUSH2 0x93 JUMPI DUP1 PUSH4 0x56B4B80D EQ PUSH2 0x8E JUMPI DUP1 PUSH4 0xBC197C81 EQ PUSH2 0x89 JUMPI DUP1 PUSH4 0xD21220A7 EQ PUSH2 0x84 JUMPI DUP1 PUSH4 0xD456B5DD EQ PUSH2 0x7F JUMPI PUSH4 0xF23A6E61 SUB PUSH2 0xB2 JUMPI PUSH2 0x576 JUMP JUMPDEST PUSH2 0x51A JUMP JUMPDEST PUSH2 0x4B6 JUMP JUMPDEST PUSH2 0x476 JUMP JUMPDEST PUSH2 0x3A2 JUMP JUMPDEST PUSH2 0x2EA JUMP JUMPDEST PUSH2 0x1BB JUMP JUMPDEST PUSH2 0x14B JUMP JUMPDEST PUSH2 0xCC JUMP JUMPDEST PUSH1 0x0 SWAP2 SUB SLT PUSH2 0xB2 JUMPI JUMP JUMPDEST PUSH1 0x0 DUP1 REVERT JUMPDEST PUSH1 0x1 PUSH1 0x1 PUSH1 0xA0 SHL SUB AND SWAP1 JUMP JUMPDEST SWAP1 JUMP JUMPDEST SWAP1 MSTORE JUMP JUMPDEST JUMP JUMPDEST CALLVALUE PUSH2 0xB2 JUMPI PUSH2 0xDC CALLDATASIZE PUSH1 0x4 PUSH2 0xA7 JUMP JUMPDEST PUSH2 0x11B PUSH32 0x0 JUMPDEST PUSH1 0x40 MLOAD SWAP2 DUP3 SWAP2 DUP3 PUSH1 0x1 PUSH1 0x1 PUSH1 0xA0 SHL SUB SWAP1 SWAP2 AND DUP2 MSTORE PUSH1 0x20 ADD SWAP1 JUMP JUMPDEST SUB SWAP1 RETURN JUMPDEST PUSH2 0xC3 SWAP2 PUSH1 0x8 MUL SHR JUMPDEST PUSH1 0x1 PUSH1 0x1 PUSH1 0x80 SHL SUB AND SWAP1 JUMP JUMPDEST SWAP1 PUSH2 0xC3 SWAP2 SLOAD PUSH2 0x11F JUMP JUMPDEST PUSH2 0xC3 PUSH1 0x0 PUSH1 0x5 PUSH2 0x134 JUMP JUMPDEST CALLVALUE PUSH2 0xB2 JUMPI PUSH2 0x15B CALLDATASIZE PUSH1 0x4 PUSH2 0xA7 JUMP JUMPDEST PUSH2 0x11B PUSH2 0x166 PUSH2 0x13F JUMP JUMPDEST PUSH1 0x40 MLOAD SWAP2 DUP3 SWAP2 DUP3 PUSH1 0x1 PUSH1 0x1 PUSH1 0x80 SHL SUB SWAP1 SWAP2 AND DUP2 MSTORE PUSH1 0x20 ADD SWAP1 JUMP JUMPDEST PUSH2 0xC3 SWAP1 DUP2 JUMP JUMPDEST PUSH2 0xC3 SWAP1 SLOAD PUSH2 0x180 JUMP JUMPDEST PUSH2 0xC3 SWAP1 JUMPDEST PUSH1 0x3 SIGNEXTEND SWAP1 JUMP JUMPDEST PUSH2 0xC3 SWAP1 SLOAD PUSH2 0x191 JUMP JUMPDEST PUSH2 0x1B0 PUSH1 0x0 PUSH2 0x187 JUMP JUMPDEST SWAP1 PUSH2 0xC3 PUSH1 0x1 PUSH2 0x19C JUMP JUMPDEST CALLVALUE PUSH2 0xB2 JUMPI PUSH2 0x1CB CALLDATASIZE PUSH1 0x4 PUSH2 0xA7 JUMP JUMPDEST PUSH2 0x1D3 PUSH2 0x1A6 JUMP JUMPDEST SWAP1 PUSH2 0x11B PUSH2 0x1E0 PUSH1 0x40 MLOAD SWAP1 JUMP JUMPDEST SWAP3 DUP4 SWAP3 DUP4 SWAP1 DUP2 MSTORE PUSH1 0x3 SWAP2 SWAP1 SWAP2 SIGNEXTEND PUSH1 0x20 DUP3 ADD MSTORE PUSH1 0x40 ADD SWAP1 JUMP JUMPDEST PUSH1 0x1 PUSH1 0x1 PUSH1 0xA0 SHL SUB DUP2 AND JUMPDEST SUB PUSH2 0xB2 JUMPI JUMP JUMPDEST SWAP1 POP CALLDATALOAD SWAP1 PUSH2 0xCA DUP3 PUSH2 0x1F8 JUMP JUMPDEST DUP1 PUSH2 0x203 JUMP JUMPDEST SWAP1 POP CALLDATALOAD SWAP1 PUSH2 0xCA DUP3 PUSH2 0x217 JUMP JUMPDEST DUP1 ISZERO ISZERO PUSH2 0x203 JUMP JUMPDEST SWAP1 POP CALLDATALOAD SWAP1 PUSH2 0xCA DUP3 PUSH2 0x22A JUMP JUMPDEST SWAP1 SWAP2 DUP3 PUSH1 0x1F DUP4 ADD SLT ISZERO PUSH2 0xB2 JUMPI DUP2 CALLDATALOAD SWAP2 PUSH8 0xFFFFFFFFFFFFFFFF DUP4 GT PUSH2 0xB2 JUMPI PUSH1 0x20 ADD SWAP3 PUSH1 0x1 DUP4 MUL DUP5 ADD GT PUSH2 0xB2 JUMPI JUMP JUMPDEST SWAP2 SWAP1 SWAP2 PUSH1 0xA0 DUP2 DUP5 SUB SLT PUSH2 0xB2 JUMPI PUSH2 0x286 DUP4 DUP3 PUSH2 0x20A JUMP JUMPDEST SWAP3 PUSH2 0x294 DUP2 PUSH1 0x20 DUP5 ADD PUSH2 0x21D JUMP JUMPDEST SWAP3 PUSH2 0x2A2 DUP3 PUSH1 0x40 DUP6 ADD PUSH2 0x21D JUMP JUMPDEST SWAP3 PUSH2 0x2B0 DUP4 PUSH1 0x60 DUP4 ADD PUSH2 0x232 JUMP JUMPDEST SWAP3 PUSH1 0x80 DUP3 ADD CALLDATALOAD PUSH8 0xFFFFFFFFFFFFFFFF DUP2 GT PUSH2 0xB2 JUMPI PUSH2 0x2CF SWAP3 ADD PUSH2 0x23F JUMP JUMPDEST SWAP1 SWAP2 JUMP JUMPDEST SWAP1 DUP2 MSTORE PUSH1 0x40 DUP2 ADD SWAP3 SWAP2 PUSH2 0xCA SWAP2 PUSH1 0x20 ADD MSTORE JUMP JUMPDEST ADD MSTORE JUMP JUMPDEST CALLVALUE PUSH2 0xB2 JUMPI PUSH2 0x309 PUSH2 0x2FD CALLDATASIZE PUSH1 0x4 PUSH2 0x26F JUMP JUMPDEST SWAP5 SWAP4 SWAP1 SWAP4 SWAP3 SWAP2 SWAP3 PUSH2 0x923 JUMP JUMPDEST SWAP1 PUSH2 0x11B PUSH2 0x316 PUSH1 0x40 MLOAD SWAP1 JUMP JUMPDEST SWAP3 DUP4 SWAP3 DUP4 PUSH2 0x2D3 JUMP JUMPDEST PUSH2 0x203 DUP2 PUSH1 0x3 SIGNEXTEND SWAP1 JUMP JUMPDEST SWAP1 POP CALLDATALOAD SWAP1 PUSH2 0xCA DUP3 PUSH2 0x31F JUMP JUMPDEST PUSH1 0x1 PUSH1 0x1 PUSH1 0x80 SHL SUB DUP2 AND PUSH2 0x203 JUMP JUMPDEST SWAP1 POP CALLDATALOAD SWAP1 PUSH2 0xCA DUP3 PUSH2 0x336 JUMP JUMPDEST SWAP1 PUSH1 0x80 DUP3 DUP3 SUB SLT PUSH2 0xB2 JUMPI PUSH2 0x367 DUP2 DUP4 PUSH2 0x20A JUMP JUMPDEST SWAP3 PUSH2 0x375 DUP3 PUSH1 0x20 DUP6 ADD PUSH2 0x329 JUMP JUMPDEST SWAP3 PUSH2 0x383 DUP4 PUSH1 0x40 DUP4 ADD PUSH2 0x345 JUMP JUMPDEST SWAP3 PUSH1 0x60 DUP3 ADD CALLDATALOAD PUSH8 0xFFFFFFFFFFFFFFFF DUP2 GT PUSH2 0xB2 JUMPI PUSH2 0x2CF SWAP3 ADD PUSH2 0x23F JUMP JUMPDEST CALLVALUE PUSH2 0xB2 JUMPI PUSH2 0x309 PUSH2 0x3B5 CALLDATASIZE PUSH1 0x4 PUSH2 0x352 JUMP JUMPDEST SWAP4 SWAP3 SWAP1 SWAP3 PUSH2 0x1021 JUMP JUMPDEST SWAP1 SWAP2 DUP3 PUSH1 0x1F DUP4 ADD SLT ISZERO PUSH2 0xB2 JUMPI DUP2 CALLDATALOAD SWAP2 PUSH8 0xFFFFFFFFFFFFFFFF DUP4 GT PUSH2 0xB2 JUMPI PUSH1 0x20 ADD SWAP3 PUSH1 0x20 DUP4 MUL DUP5 ADD GT PUSH2 0xB2 JUMPI JUMP JUMPDEST SWAP2 PUSH1 0xA0 DUP4 DUP4 SUB SLT PUSH2 0xB2 JUMPI PUSH2 0x403 DUP3 DUP5 PUSH2 0x20A JUMP JUMPDEST SWAP3 PUSH2 0x411 DUP4 PUSH1 0x20 DUP4 ADD PUSH2 0x20A JUMP JUMPDEST SWAP3 PUSH1 0x40 DUP3 ADD CALLDATALOAD PUSH8 0xFFFFFFFFFFFFFFFF DUP2 GT PUSH2 0xB2 JUMPI DUP2 PUSH2 0x432 SWAP2 DUP5 ADD PUSH2 0x3BE JUMP JUMPDEST SWAP3 SWAP1 SWAP4 PUSH1 0x60 DUP3 ADD CALLDATALOAD PUSH8 0xFFFFFFFFFFFFFFFF DUP2 GT PUSH2 0xB2 JUMPI DUP4 PUSH2 0x455 SWAP2 DUP5 ADD PUSH2 0x3BE JUMP JUMPDEST SWAP3 SWAP1 SWAP4 PUSH1 0x80 DUP3 ADD CALLDATALOAD PUSH8 0xFFFFFFFFFFFFFFFF DUP2 GT PUSH2 0xB2 JUMPI PUSH2 0x2CF SWAP3 ADD PUSH2 0x23F JUMP JUMPDEST CALLVALUE PUSH2 0xB2 JUMPI PUSH2 0x11B PUSH2 0x49B PUSH2 0x48C CALLDATASIZE PUSH1 0x4 PUSH2 0x3EE JUMP JUMPDEST SWAP7 SWAP6 SWAP1 SWAP6 SWAP5 SWAP2 SWAP5 SWAP4 SWAP3 SWAP4 PUSH2 0x1319 JUMP JUMPDEST PUSH1 0x40 MLOAD SWAP2 DUP3 SWAP2 DUP3 PUSH1 0x1 PUSH1 0x1 PUSH1 0xE0 SHL SUB NOT SWAP1 SWAP2 AND DUP2 MSTORE PUSH1 0x20 ADD SWAP1 JUMP JUMPDEST CALLVALUE PUSH2 0xB2 JUMPI PUSH2 0x4C6 CALLDATASIZE PUSH1 0x4 PUSH2 0xA7 JUMP JUMPDEST PUSH2 0x11B PUSH32 0x0 PUSH2 0x101 JUMP JUMPDEST PUSH2 0xC3 SWAP2 PUSH1 0x8 MUL SHR PUSH1 0x1 PUSH1 0x1 PUSH1 0xA0 SHL SUB AND SWAP1 JUMP JUMPDEST SWAP1 PUSH2 0xC3 SWAP2 SLOAD PUSH2 0x4EF JUMP JUMPDEST PUSH2 0xC3 PUSH1 0x0 PUSH1 0x6 PUSH2 0x503 JUMP JUMPDEST CALLVALUE PUSH2 0xB2 JUMPI PUSH2 0x52A CALLDATASIZE PUSH1 0x4 PUSH2 0xA7 JUMP JUMPDEST PUSH2 0x11B PUSH2 0x101 PUSH2 0x50E JUMP JUMPDEST SWAP2 SWAP1 SWAP2 PUSH1 0xA0 DUP2 DUP5 SUB SLT PUSH2 0xB2 JUMPI PUSH2 0x54C DUP4 DUP3 PUSH2 0x20A JUMP JUMPDEST SWAP3 PUSH2 0x55A DUP2 PUSH1 0x20 DUP5 ADD PUSH2 0x20A JUMP JUMPDEST SWAP3 PUSH2 0x568 DUP3 PUSH1 0x40 DUP6 ADD PUSH2 0x21D JUMP JUMPDEST SWAP3 PUSH2 0x2B0 DUP4 PUSH1 0x60 DUP4 ADD PUSH2 0x21D JUMP JUMPDEST CALLVALUE PUSH2 0xB2 JUMPI PUSH2 0x11B PUSH2 0x49B PUSH2 0x58C CALLDATASIZE PUSH1 0x4 PUSH2 0x535 JUMP JUMPDEST SWAP5 SWAP4 SWAP1 SWAP4 SWAP3 SWAP2 SWAP3 PUSH2 0x1335 JUMP JUMPDEST PUSH4 0x4E487B71 PUSH1 0xE0 SHL PUSH1 0x0 MSTORE PUSH1 0x41 PUSH1 0x4 MSTORE PUSH1 0x24 PUSH1 0x0 REVERT JUMPDEST SWAP1 PUSH1 0x1F ADD PUSH1 0x1F NOT AND DUP2 ADD SWAP1 DUP2 LT PUSH8 0xFFFFFFFFFFFFFFFF DUP3 GT OR PUSH2 0x5D0 JUMPI PUSH1 0x40 MSTORE JUMP JUMPDEST PUSH2 0x598 JUMP JUMPDEST SWAP1 PUSH2 0xCA PUSH2 0x5E2 PUSH1 0x40 MLOAD SWAP1 JUMP JUMPDEST SWAP3 DUP4 PUSH2 0x5AE JUMP JUMPDEST PUSH2 0xC3 PUSH1 0x40 PUSH2 0x5D5 JUMP JUMPDEST SWAP1 PUSH2 0xCA PUSH2 0x61B PUSH1 0x1 PUSH2 0x604 PUSH2 0x5E9 JUMP JUMPDEST SWAP5 PUSH2 0x615 PUSH2 0x611 DUP3 PUSH2 0x187 JUMP JUMPDEST DUP8 MSTORE JUMP JUMPDEST ADD PUSH2 0x19C JUMP JUMPDEST PUSH1 0x3 SIGNEXTEND PUSH1 0x20 DUP5 ADD MSTORE JUMP JUMPDEST PUSH2 0xC3 SWAP1 PUSH2 0x5F3 JUMP JUMPDEST PUSH2 0xC3 SWAP1 PUSH2 0x128 JUMP JUMPDEST PUSH2 0xC3 SWAP1 SLOAD PUSH2 0x62E JUMP JUMPDEST PUSH2 0xC3 PUSH2 0xC3 PUSH2 0xC3 SWAP3 SWAP1 JUMP JUMPDEST PUSH2 0xC3 PUSH20 0xFFFD8963EFD1FC6A506488495D951D5263988D26 PUSH2 0x641 JUMP JUMPDEST PUSH2 0xC3 PUSH5 0x1000276A3 PUSH2 0x641 JUMP JUMPDEST ADD SWAP1 JUMP JUMPDEST ISZERO PUSH2 0x684 JUMPI JUMP JUMPDEST PUSH1 0x40 MLOAD PUSH3 0x461BCD PUSH1 0xE5 SHL DUP2 MSTORE PUSH1 0x20 PUSH1 0x4 DUP3 ADD MSTORE PUSH1 0x13 PUSH1 0x24 DUP3 ADD MSTORE PUSH19 0x496E76616C6964204C696D6974507269636521 PUSH1 0x68 SHL PUSH1 0x44 DUP3 ADD MSTORE PUSH1 0x64 SWAP1 REVERT JUMPDEST SUB SWAP1 REVERT JUMPDEST PUSH2 0xC3 PUSH1 0xA0 PUSH2 0x5D5 JUMP JUMPDEST PUSH2 0xC3 PUSH1 0xC0 PUSH2 0x5D5 JUMP JUMPDEST PUSH2 0x6DF PUSH2 0x6CD JUMP JUMPDEST SWAP1 PUSH1 0x0 DUP3 MSTORE PUSH1 0x20 DUP1 DUP1 DUP1 DUP1 DUP1 DUP8 ADD PUSH1 0x0 DUP2 MSTORE ADD PUSH1 0x0 DUP2 MSTORE ADD PUSH1 0x0 DUP2 MSTORE ADD PUSH1 0x0 DUP2 MSTORE ADD PUSH1 0x0 SWAP1 MSTORE POP JUMP JUMPDEST PUSH2 0xC3 PUSH2 0x6D7 JUMP JUMPDEST PUSH2 0x196 PUSH2 0xC3 PUSH2 0xC3 SWAP3 SWAP1 JUMP JUMPDEST PUSH2 0x196 PUSH2 0xC3 PUSH2 0xC3 SWAP3 PUSH1 0x3 SIGNEXTEND SWAP1 JUMP JUMPDEST SWAP1 PUSH2 0x737 SWAP1 PUSH2 0x71D JUMP JUMPDEST PUSH1 0x0 MSTORE PUSH1 0x20 MSTORE PUSH1 0x40 PUSH1 0x0 KECCAK256 SWAP1 JUMP JUMPDEST PUSH2 0xC3 SWAP1 JUMPDEST PUSH1 0xFF AND SWAP1 JUMP JUMPDEST PUSH2 0xC3 SWAP1 SLOAD PUSH2 0x745 JUMP JUMPDEST PUSH4 0x4E487B71 PUSH1 0xE0 SHL PUSH1 0x0 MSTORE PUSH1 0x11 PUSH1 0x4 MSTORE PUSH1 0x24 PUSH1 0x0 REVERT JUMPDEST PUSH2 0x77F SWAP1 PUSH1 0x3 SIGNEXTEND JUMPDEST SWAP2 PUSH1 0x3 SIGNEXTEND SWAP1 JUMP JUMPDEST SWAP1 SUB SWAP1 PUSH4 0x7FFFFFFF NOT DUP3 SLT PUSH4 0x7FFFFFFF DUP4 SGT OR PUSH2 0x798 JUMPI JUMP JUMPDEST PUSH2 0x75A JUMP JUMPDEST PUSH2 0x7AD PUSH2 0xC3 PUSH2 0xC3 SWAP3 PUSH1 0x3 SIGNEXTEND SWAP1 JUMP JUMPDEST PUSH1 0x2 SIGNEXTEND SWAP1 JUMP JUMPDEST SWAP1 POP MLOAD SWAP1 PUSH2 0xCA DUP3 PUSH2 0x217 JUMP JUMPDEST SWAP1 PUSH1 0x20 DUP3 DUP3 SUB SLT PUSH2 0xB2 JUMPI PUSH2 0xC3 SWAP2 PUSH2 0x7B3 JUMP JUMPDEST PUSH1 0x40 MLOAD RETURNDATASIZE PUSH1 0x0 DUP3 RETURNDATACOPY RETURNDATASIZE SWAP1 REVERT JUMPDEST PUSH2 0xC3 PUSH3 0x8D89E8 PUSH2 0x710 JUMP JUMPDEST PUSH2 0xC3 SWAP1 PUSH2 0xB7 JUMP JUMPDEST PUSH2 0xC3 SWAP1 SLOAD PUSH2 0x7EC JUMP JUMPDEST PUSH1 0x1 PUSH1 0x1 PUSH1 0xA0 SHL SUB DUP2 AND PUSH2 0x203 JUMP JUMPDEST SWAP1 POP MLOAD SWAP1 PUSH2 0xCA DUP3 PUSH2 0x7FF JUMP JUMPDEST PUSH1 0x80 DUP2 DUP4 SUB SLT PUSH2 0xB2 JUMPI PUSH2 0x82F DUP3 DUP3 PUSH2 0x7B3 JUMP JUMPDEST SWAP3 PUSH2 0xC3 PUSH2 0x840 DUP5 PUSH1 0x20 DUP6 ADD PUSH2 0x80E JUMP JUMPDEST SWAP4 PUSH1 0x60 PUSH2 0x850 DUP3 PUSH1 0x40 DUP8 ADD PUSH2 0x7B3 JUMP JUMPDEST SWAP5 ADD PUSH2 0x7B3 JUMP JUMPDEST SWAP2 SWAP5 PUSH2 0x8A6 PUSH2 0x2E6 SWAP3 SWAP9 SWAP8 SWAP6 PUSH2 0x89F PUSH1 0xA0 SWAP7 PUSH2 0x88F PUSH2 0xCA SWAP11 PUSH2 0x87F PUSH1 0xC0 DUP11 ADD SWAP15 PUSH1 0x0 DUP12 ADD MSTORE JUMP JUMPDEST PUSH1 0x1 PUSH1 0x1 PUSH1 0x80 SHL SUB AND PUSH1 0x20 DUP10 ADD MSTORE JUMP JUMPDEST PUSH1 0x1 PUSH1 0x1 PUSH1 0xA0 SHL SUB AND PUSH1 0x40 DUP8 ADD MSTORE JUMP JUMPDEST PUSH1 0x60 DUP6 ADD MSTORE JUMP JUMPDEST ISZERO ISZERO PUSH1 0x80 DUP4 ADD MSTORE JUMP JUMPDEST SWAP1 PUSH1 0x1 PUSH1 0x1 PUSH1 0xA0 SHL SUB SWAP1 JUMPDEST SWAP2 DUP2 NOT AND SWAP2 AND OR SWAP1 JUMP JUMPDEST PUSH2 0xC3 SWAP1 PUSH2 0xB7 SWAP1 PUSH1 0x1 PUSH1 0x1 PUSH1 0xA0 SHL SUB AND DUP3 JUMP JUMPDEST SWAP1 PUSH2 0x8E8 PUSH2 0xC3 PUSH2 0x8EF SWAP3 PUSH2 0x8C4 JUMP JUMPDEST DUP3 SLOAD PUSH2 0x8AF JUMP JUMPDEST SWAP1 SSTORE JUMP JUMPDEST SWAP2 SWAP1 DUP3 SUB SWAP2 DUP3 GT PUSH2 0x798 JUMPI JUMP JUMPDEST SWAP2 SWAP1 DUP3 ADD DUP1 SWAP3 GT PUSH2 0x798 JUMPI JUMP JUMPDEST PUSH2 0xC3 SWAP1 PUSH1 0x8 SHR PUSH2 0x128 JUMP JUMPDEST PUSH2 0xC3 SWAP1 SLOAD PUSH2 0x90D JUMP JUMPDEST POP SWAP4 POP SWAP2 POP SWAP3 PUSH2 0x931 PUSH1 0x0 SWAP1 JUMP JUMPDEST POP PUSH2 0x93C PUSH1 0x0 PUSH2 0x625 JUMP JUMPDEST SWAP1 PUSH2 0x947 PUSH1 0x5 PUSH2 0x637 JUMP JUMPDEST SWAP2 DUP6 ISZERO PUSH2 0xE87 JUMPI PUSH2 0x959 PUSH2 0xC3 DUP3 MLOAD SWAP1 JUMP JUMPDEST DUP5 LT DUP1 PUSH2 0xE6E JUMPI JUMPDEST PUSH2 0x971 SWAP1 SWAP7 SWAP2 SWAP6 SWAP7 SWAP4 SWAP3 SWAP4 PUSH2 0x67D JUMP JUMPDEST PUSH2 0x9BA PUSH2 0x982 PUSH1 0x20 DUP8 ADD MLOAD PUSH1 0x3 SIGNEXTEND SWAP1 JUMP JUMPDEST SWAP3 PUSH2 0x9AA PUSH2 0x98E DUP9 MLOAD SWAP1 JUMP JUMPDEST PUSH2 0x9A3 PUSH2 0x999 PUSH2 0x6C3 JUMP JUMPDEST SWAP7 DUP8 SWAP1 PUSH1 0x3 SIGNEXTEND SWAP1 MSTORE JUMP JUMPDEST PUSH1 0x20 DUP7 ADD MSTORE JUMP JUMPDEST PUSH1 0x1 PUSH1 0x1 PUSH1 0x80 SHL SUB AND PUSH1 0x40 DUP5 ADD MSTORE JUMP JUMPDEST PUSH2 0x9C4 PUSH1 0x0 PUSH2 0x641 JUMP JUMPDEST SWAP6 PUSH2 0x9D0 DUP8 PUSH1 0x60 DUP6 ADD MSTORE JUMP JUMPDEST PUSH2 0x9DB DUP8 PUSH1 0x80 DUP6 ADD MSTORE JUMP JUMPDEST DUP7 DUP2 GT DUP1 PUSH2 0xE60 JUMPI JUMPDEST ISZERO PUSH2 0xDFE JUMPI PUSH2 0x9F1 PUSH2 0x708 JUMP JUMPDEST SWAP4 PUSH2 0x9FD PUSH1 0x20 DUP6 ADD MLOAD SWAP1 JUMP JUMPDEST SWAP7 PUSH2 0xA0A PUSH1 0x0 DUP8 ADD SWAP9 DUP10 MSTORE JUMP JUMPDEST DUP8 MLOAD SWAP9 PUSH2 0xA18 DUP7 MLOAD PUSH1 0x3 SIGNEXTEND SWAP1 JUMP JUMPDEST SWAP10 JUMPDEST DUP9 SWAP1 PUSH2 0xA25 JUMP JUMPDEST SWAP2 SWAP1 JUMP JUMPDEST GT PUSH2 0xDEF JUMPI PUSH2 0xA65 PUSH2 0xA45 DUP7 PUSH1 0x4 DUP1 SWAP14 PUSH2 0xA3F PUSH1 0x1 PUSH2 0x710 JUMP JUMPDEST SWAP2 PUSH2 0x1404 JUMP JUMPDEST ISZERO ISZERO PUSH1 0x60 DUP11 ADD SWAP1 DUP2 MSTORE PUSH1 0x20 DUP11 ADD SWAP3 SWAP2 PUSH2 0xA5F SWAP1 PUSH1 0x3 SIGNEXTEND DUP5 MSTORE JUMP JUMPDEST MLOAD ISZERO ISZERO SWAP1 JUMP JUMPDEST DUP1 ISZERO PUSH2 0xDCE JUMPI JUMPDEST PUSH2 0xBB6 JUMPI PUSH20 0x0 SWAP11 PUSH1 0x20 PUSH2 0xAE0 PUSH2 0xAB3 PUSH2 0xAAE PUSH2 0xA9C DUP7 MLOAD PUSH1 0x3 SIGNEXTEND SWAP1 JUMP JUMPDEST PUSH2 0xAA8 PUSH3 0x800000 PUSH2 0x710 JUMP JUMPDEST SWAP1 PUSH2 0x770 JUMP JUMPDEST PUSH2 0x79D JUMP JUMPDEST SWAP14 PUSH2 0xABD PUSH1 0x40 MLOAD SWAP1 JUMP JUMPDEST SWAP15 DUP16 SWAP3 DUP4 SWAP2 DUP3 SWAP2 SWAP1 PUSH4 0x986CFBA3 PUSH1 0xE0 SHL DUP4 MSTORE DUP8 DUP4 ADD PUSH1 0x2 SWAP2 SWAP1 SWAP2 SIGNEXTEND DUP2 MSTORE PUSH1 0x20 ADD SWAP1 JUMP JUMPDEST SUB SWAP2 GAS DELEGATECALL SWAP12 DUP13 ISZERO PUSH2 0xBB1 JUMPI PUSH1 0x0 SWAP13 PUSH2 0xB81 JUMPI JUMPDEST POP PUSH2 0xB00 DUP13 SWAP3 MLOAD PUSH1 0x3 SIGNEXTEND SWAP1 JUMP JUMPDEST DUP1 SWAP13 PUSH2 0xB0C PUSH2 0xA21 DUP14 SWAP1 JUMP JUMPDEST GT SWAP1 DUP2 ISZERO PUSH2 0xB6A JUMPI JUMPDEST POP PUSH2 0xB20 JUMPI POP PUSH2 0xA1A JUMP JUMPDEST PUSH2 0x6BF SWAP1 PUSH2 0xB2D PUSH1 0x40 MLOAD SWAP1 JUMP JUMPDEST PUSH3 0x461BCD PUSH1 0xE5 SHL DUP2 MSTORE SWAP2 DUP3 SWAP2 DUP3 ADD PUSH1 0x20 DUP1 DUP3 MSTORE PUSH1 0x15 SWAP1 DUP3 ADD MSTORE PUSH21 0x6C6971756964697479206E6F7420656E6F75676821 PUSH1 0x58 SHL PUSH1 0x40 DUP3 ADD MSTORE PUSH1 0x60 ADD SWAP1 JUMP JUMPDEST SWAP1 POP PUSH2 0xB7A PUSH2 0x778 PUSH2 0x196 PUSH2 0x7E0 JUMP JUMPDEST SGT CODESIZE PUSH2 0xB15 JUMP JUMPDEST PUSH2 0xBA3 SWAP2 SWAP13 POP PUSH1 0x20 RETURNDATASIZE DUP2 GT PUSH2 0xBAA JUMPI JUMPDEST PUSH2 0xB9B DUP2 DUP4 PUSH2 0x5AE JUMP JUMPDEST DUP2 ADD SWAP1 PUSH2 0x7C0 JUMP JUMPDEST SWAP11 CODESIZE PUSH2 0xAF3 JUMP JUMPDEST POP RETURNDATASIZE PUSH2 0xB91 JUMP JUMPDEST PUSH2 0x7D4 JUMP JUMPDEST POP SWAP3 SWAP1 SWAP4 SWAP9 POP SWAP7 SWAP1 SWAP4 SWAP5 SWAP7 JUMPDEST PUSH2 0xBD6 PUSH2 0xBD2 PUSH1 0x60 DUP11 ADD MLOAD ISZERO ISZERO SWAP1 JUMP JUMPDEST ISZERO SWAP1 JUMP JUMPDEST PUSH2 0xD91 JUMPI PUSH1 0x80 DUP9 DUP11 SWAP4 PUSH2 0xC02 PUSH2 0xBFD PUSH20 0x0 SWAP1 JUMP JUMPDEST SWAP2 MLOAD SWAP1 JUMP JUMPDEST PUSH1 0x40 DUP11 ADD MLOAD PUSH1 0x1 PUSH1 0x1 PUSH1 0x80 SHL SUB AND SWAP1 PUSH2 0xC4E DUP7 PUSH2 0xC2A PUSH1 0x40 PUSH2 0xC24 PUSH1 0x6 PUSH2 0x7F5 JUMP JUMPDEST SWAP8 ADD MLOAD SWAP1 JUMP JUMPDEST SWAP9 PUSH2 0xC34 PUSH1 0x40 MLOAD SWAP1 JUMP JUMPDEST SWAP10 DUP11 SWAP8 DUP9 SWAP7 DUP8 SWAP7 PUSH4 0x93261D19 PUSH1 0xE0 SHL DUP9 MSTORE PUSH1 0x4 DUP9 ADD PUSH2 0x857 JUMP JUMPDEST SUB SWAP2 GAS DELEGATECALL DUP1 ISZERO PUSH2 0xBB1 JUMPI PUSH2 0xCA0 SWAP3 DUP10 PUSH2 0xC95 SWAP3 PUSH1 0x0 DUP1 DUP1 DUP1 SWAP3 SWAP5 SWAP2 SWAP4 PUSH2 0xD4D JUMPI JUMPDEST PUSH2 0xC8E SWAP5 SWAP6 POP DUP2 PUSH2 0x2E6 PUSH1 0x80 SWAP3 PUSH1 0xA0 PUSH2 0xC87 SWAP7 SWAP6 ADD MSTORE JUMP JUMPDEST PUSH1 0x6 PUSH2 0x8D8 JUMP JUMPDEST PUSH1 0x20 DUP9 ADD MSTORE JUMP JUMPDEST PUSH1 0xA0 DUP9 ADD MLOAD SWAP1 PUSH2 0x8F3 JUMP JUMPDEST SWAP6 PUSH2 0xCC4 PUSH2 0xCAF PUSH1 0xA0 DUP4 ADD MLOAD SWAP1 JUMP JUMPDEST PUSH2 0xC6 PUSH1 0x60 DUP9 ADD SWAP2 PUSH2 0xCBF DUP4 MLOAD SWAP1 JUMP JUMPDEST PUSH2 0x900 JUMP JUMPDEST PUSH2 0xCE2 PUSH2 0xCD2 PUSH1 0x80 DUP4 ADD MLOAD SWAP1 JUMP JUMPDEST PUSH2 0xC6 PUSH1 0x80 DUP9 ADD SWAP2 PUSH2 0xCBF DUP4 MLOAD SWAP1 JUMP JUMPDEST PUSH1 0x20 DUP6 ADD MLOAD PUSH2 0xCF8 PUSH2 0xA21 PUSH2 0xC3 PUSH1 0x40 DUP6 ADD MLOAD SWAP1 JUMP JUMPDEST EQ PUSH2 0xD0A JUMPI JUMPDEST POP SWAP6 SWAP1 SWAP5 SWAP3 SWAP2 SWAP3 PUSH2 0x9DB JUMP JUMPDEST PUSH1 0x20 ADD MLOAD PUSH1 0x3 SIGNEXTEND DUP5 MSTORE PUSH2 0xD47 PUSH2 0xD37 PUSH1 0x0 PUSH2 0xD31 PUSH1 0x2 PUSH2 0xD2B DUP10 MLOAD PUSH1 0x3 SIGNEXTEND SWAP1 JUMP JUMPDEST SWAP1 PUSH2 0x72D JUMP JUMPDEST ADD PUSH2 0x919 JUMP JUMPDEST PUSH1 0x1 PUSH1 0x1 PUSH1 0x80 SHL SUB AND PUSH1 0x40 DUP7 ADD MSTORE JUMP JUMPDEST CODESIZE PUSH2 0xCFE JUMP JUMPDEST POP SWAP2 POP POP PUSH2 0xC8E SWAP2 POP PUSH2 0xC87 PUSH2 0x2E6 PUSH2 0xD7D PUSH1 0x80 SWAP6 DUP7 RETURNDATASIZE DUP2 GT PUSH2 0xD8A JUMPI JUMPDEST PUSH2 0xD75 DUP2 DUP4 PUSH2 0x5AE JUMP JUMPDEST DUP2 ADD SWAP1 PUSH2 0x81B JUMP JUMPDEST SWAP3 SWAP7 POP SWAP4 POP SWAP4 SWAP2 POP PUSH2 0xC6F JUMP JUMPDEST POP RETURNDATASIZE PUSH2 0xD6B JUMP JUMPDEST PUSH1 0x40 MLOAD PUSH3 0x461BCD PUSH1 0xE5 SHL DUP2 MSTORE PUSH1 0x20 PUSH1 0x4 DUP3 ADD MSTORE PUSH1 0x15 PUSH1 0x24 DUP3 ADD MSTORE PUSH21 0x6C6971756964697479206E6F7420656E6F75676821 PUSH1 0x58 SHL PUSH1 0x44 DUP3 ADD MSTORE PUSH1 0x64 SWAP1 REVERT JUMPDEST POP PUSH2 0xDEA PUSH1 0x0 PUSH2 0xDE4 PUSH1 0x2 PUSH2 0xD2B DUP6 MLOAD PUSH1 0x3 SIGNEXTEND SWAP1 JUMP JUMPDEST ADD PUSH2 0x750 JUMP JUMPDEST PUSH2 0xA6C JUMP JUMPDEST SWAP3 SWAP1 SWAP4 SWAP9 POP SWAP7 SWAP1 SWAP4 SWAP5 SWAP7 PUSH2 0xBC2 JUMP JUMPDEST POP SWAP3 POP SWAP3 PUSH2 0xE35 SWAP2 SWAP5 POP PUSH2 0xE23 PUSH2 0xE19 PUSH1 0x0 DUP7 ADD MLOAD PUSH1 0x3 SIGNEXTEND SWAP1 JUMP JUMPDEST PUSH1 0x3 SIGNEXTEND PUSH1 0x20 DUP4 ADD MSTORE JUMP JUMPDEST PUSH1 0x0 PUSH2 0xE30 PUSH1 0x20 DUP7 ADD MLOAD SWAP1 JUMP JUMPDEST SWAP2 ADD MSTORE JUMP JUMPDEST ISZERO PUSH2 0xE50 JUMPI PUSH2 0x2CF PUSH1 0x60 PUSH2 0xE4A PUSH1 0x80 DUP5 ADD MLOAD SWAP1 JUMP JUMPDEST SWAP3 ADD MLOAD SWAP1 JUMP JUMPDEST PUSH2 0x2CF PUSH1 0x80 PUSH2 0xE4A PUSH1 0x60 DUP5 ADD MLOAD SWAP1 JUMP JUMPDEST POP PUSH1 0x20 DUP4 ADD MLOAD DUP6 LT ISZERO PUSH2 0x9E4 JUMP JUMPDEST POP PUSH2 0x971 PUSH2 0xE7D PUSH2 0xC3 PUSH2 0x66B JUMP JUMPDEST DUP6 LT ISZERO SWAP1 POP PUSH2 0x961 JUMP JUMPDEST PUSH2 0xE92 PUSH2 0xC3 DUP3 MLOAD SWAP1 JUMP JUMPDEST DUP5 GT DUP1 PUSH2 0xEA9 JUMPI PUSH2 0x971 SWAP1 SWAP7 SWAP2 SWAP6 SWAP7 SWAP4 SWAP3 SWAP4 PUSH2 0x67D JUMP JUMPDEST POP PUSH2 0x971 PUSH2 0xEB8 PUSH2 0xC3 PUSH2 0x64E JUMP JUMPDEST DUP6 GT ISZERO SWAP1 POP PUSH2 0x961 JUMP JUMPDEST PUSH2 0xC3 PUSH3 0x727618 PUSH2 0x710 JUMP JUMPDEST PUSH2 0x128 PUSH2 0xC3 PUSH2 0xC3 SWAP3 SWAP1 JUMP JUMPDEST PUSH2 0x74A PUSH2 0xC3 PUSH2 0xC3 SWAP3 SWAP1 JUMP JUMPDEST PUSH2 0xC3 PUSH1 0x60 PUSH2 0xEDB JUMP JUMPDEST PUSH2 0xC3 SWAP1 PUSH2 0xF06 PUSH2 0xA21 PUSH2 0xC3 SWAP5 PUSH1 0xFF AND SWAP1 JUMP JUMPDEST SWAP1 SHL SWAP1 JUMP JUMPDEST PUSH2 0xB7 PUSH2 0xC3 PUSH2 0xC3 SWAP3 SWAP1 JUMP JUMPDEST PUSH2 0xF27 SWAP1 PUSH1 0xFF AND JUMPDEST SWAP2 PUSH1 0xFF AND SWAP1 JUMP JUMPDEST SWAP1 SUB SWAP1 PUSH1 0xFF DUP3 GT PUSH2 0x798 JUMPI JUMP JUMPDEST PUSH2 0xF4F SWAP1 PUSH1 0x1 PUSH1 0x1 PUSH1 0x80 SHL SUB AND JUMPDEST SWAP2 PUSH1 0x1 PUSH1 0x1 PUSH1 0x80 SHL SUB AND SWAP1 JUMP JUMPDEST ADD SWAP1 PUSH1 0x1 PUSH1 0x1 PUSH1 0x80 SHL SUB DUP3 GT PUSH2 0x798 JUMPI JUMP JUMPDEST SWAP1 PUSH1 0x1 PUSH1 0x1 PUSH1 0x80 SHL SUB SWAP1 PUSH2 0x8BA JUMP JUMPDEST PUSH2 0x128 PUSH2 0xC3 PUSH2 0xC3 SWAP3 PUSH1 0x1 PUSH1 0x1 PUSH1 0x80 SHL SUB AND SWAP1 JUMP JUMPDEST SWAP1 PUSH2 0xF96 PUSH2 0xC3 PUSH2 0x8EF SWAP3 PUSH2 0xF70 JUMP JUMPDEST DUP3 SLOAD PUSH2 0xF61 JUMP JUMPDEST PUSH2 0xC3 SWAP1 PUSH2 0x8C4 JUMP JUMPDEST PUSH2 0xC3 SWAP1 PUSH2 0xF9D JUMP JUMPDEST SWAP1 DUP3 PUSH1 0x0 SWAP4 SWAP3 DUP3 CALLDATACOPY ADD MSTORE JUMP JUMPDEST SWAP2 SWAP1 PUSH2 0xFD9 DUP2 PUSH2 0xFD2 DUP2 PUSH2 0x679 SWAP6 PUSH1 0x20 SWAP2 DUP2 MSTORE ADD SWAP1 JUMP JUMPDEST DUP1 SWAP6 PUSH2 0xFAF JUMP JUMPDEST PUSH1 0x1F ADD PUSH1 0x1F NOT AND SWAP1 JUMP JUMPDEST SWAP1 SWAP4 SWAP2 PUSH2 0xC3 SWAP6 SWAP4 PUSH2 0x100D PUSH2 0x1014 SWAP3 PUSH2 0x1006 PUSH1 0x80 DUP7 ADD SWAP9 PUSH1 0x0 DUP8 ADD SWAP1 PUSH1 0x3 SIGNEXTEND SWAP1 MSTORE JUMP JUMPDEST PUSH1 0x20 DUP6 ADD MSTORE JUMP JUMPDEST PUSH1 0x40 DUP4 ADD MSTORE JUMP JUMPDEST PUSH1 0x60 DUP2 DUP6 SUB SWAP2 ADD MSTORE PUSH2 0xFBB JUMP JUMPDEST SWAP4 SWAP5 SWAP3 SWAP1 PUSH1 0x0 SWAP6 DUP7 SWAP4 PUSH2 0x1035 PUSH2 0x196 PUSH2 0x7E0 JUMP JUMPDEST PUSH2 0x103F DUP5 PUSH1 0x3 SIGNEXTEND SWAP1 JUMP JUMPDEST SGT DUP1 ISZERO PUSH2 0x12FD JUMPI JUMPDEST PUSH2 0x12EB JUMPI PUSH1 0x0 SWAP5 PUSH2 0x1057 DUP7 PUSH2 0xECE JUMP JUMPDEST PUSH1 0x1 PUSH1 0x1 PUSH1 0x80 SHL SUB DUP4 AND EQ PUSH2 0x12D9 JUMPI PUSH2 0x1072 PUSH1 0x1 DUP8 ADD PUSH2 0x19C JUMP JUMPDEST SWAP9 PUSH20 0x0 SWAP10 PUSH1 0x20 PUSH2 0x10D2 PUSH2 0x10A6 PUSH2 0xAAE PUSH2 0x10A0 PUSH3 0x800000 PUSH2 0x710 JUMP JUMPDEST DUP11 PUSH2 0x770 JUMP JUMPDEST SWAP13 PUSH2 0x10B0 PUSH1 0x40 MLOAD SWAP1 JUMP JUMPDEST PUSH4 0x986CFBA3 PUSH1 0xE0 SHL DUP2 MSTORE PUSH1 0x2 SWAP15 SWAP1 SWAP15 SIGNEXTEND PUSH1 0x4 DUP16 ADD MSTORE DUP14 SWAP2 DUP3 SWAP1 DUP2 SWAP1 PUSH1 0x24 DUP3 ADD SWAP1 JUMP JUMPDEST SUB SWAP2 GAS DELEGATECALL SWAP11 DUP12 ISZERO PUSH2 0xBB1 JUMPI PUSH1 0x0 SWAP12 PUSH2 0x12B8 JUMPI JUMPDEST POP PUSH2 0x10F0 DUP2 PUSH1 0x3 SIGNEXTEND SWAP1 JUMP JUMPDEST PUSH2 0x10FA DUP8 PUSH1 0x3 SIGNEXTEND SWAP1 JUMP JUMPDEST SUB PUSH2 0x1254 JUMPI POP POP POP PUSH2 0x1179 SWAP1 PUSH2 0x1115 DUP7 PUSH2 0xDE4 DUP7 PUSH1 0x2 PUSH2 0x72D JUMP JUMPDEST ISZERO PUSH2 0x120F JUMPI PUSH2 0x1174 DUP5 PUSH2 0x113E PUSH2 0x1137 PUSH2 0x112E PUSH1 0x6 PUSH2 0x7F5 JUMP JUMPDEST SWAP13 JUMPDEST DUP14 DUP7 PUSH2 0x160A JUMP JUMPDEST SWAP12 DUP5 PUSH2 0x1662 JUMP JUMPDEST SWAP10 PUSH2 0x115C PUSH2 0x1155 DUP6 PUSH2 0x1150 PUSH1 0x5 PUSH2 0x637 JUMP JUMPDEST PUSH2 0xF34 JUMP JUMPDEST PUSH1 0x5 PUSH2 0xF86 JUMP JUMPDEST PUSH2 0x1168 DUP5 DUP4 PUSH1 0x2 PUSH2 0x16E1 JUMP JUMPDEST PUSH2 0x11F5 JUMPI JUMPDEST PUSH1 0x3 PUSH2 0x1845 JUMP JUMPDEST PUSH2 0x188F JUMP JUMPDEST PUSH2 0x118A PUSH2 0x1185 CALLER PUSH2 0xFA6 JUMP JUMPDEST PUSH2 0xFA6 JUMP JUMPDEST DUP1 EXTCODESIZE ISZERO PUSH2 0xB2 JUMPI DUP8 DUP6 DUP1 SWAP5 PUSH2 0x11BD DUP11 SWAP6 PUSH2 0x11A3 PUSH1 0x40 MLOAD SWAP1 JUMP JUMPDEST SWAP9 DUP10 SWAP8 DUP9 SWAP7 DUP8 SWAP6 PUSH4 0x196D73B7 PUSH1 0xE2 SHL DUP8 MSTORE PUSH1 0x4 DUP8 ADD PUSH2 0xFE3 JUMP JUMPDEST SUB SWAP3 GAS CALL DUP1 ISZERO PUSH2 0xBB1 JUMPI PUSH2 0x11CF JUMPI POP POP JUMP JUMPDEST DUP2 PUSH2 0xCA SWAP3 SWAP1 RETURNDATASIZE LT PUSH2 0x11EE JUMPI JUMPDEST PUSH2 0x11E6 DUP2 DUP4 PUSH2 0x5AE JUMP JUMPDEST DUP2 ADD SWAP1 PUSH2 0xA7 JUMP JUMPDEST POP RETURNDATASIZE PUSH2 0x11DC JUMP JUMPDEST PUSH2 0x120A PUSH2 0x1202 PUSH1 0x1 PUSH2 0x710 JUMP JUMPDEST DUP4 PUSH1 0x4 PUSH2 0x17BD JUMP JUMPDEST PUSH2 0x116D JUMP JUMPDEST PUSH2 0x1174 DUP5 PUSH2 0x113E PUSH2 0x1137 PUSH2 0x124E PUSH2 0x1249 PUSH2 0x123A PUSH2 0x122A PUSH2 0xEE8 JUMP JUMPDEST PUSH2 0x1234 PUSH1 0x1 PUSH2 0xEDB JUMP JUMPDEST SWAP1 PUSH2 0xF18 JUMP JUMPDEST PUSH2 0x1244 PUSH1 0x1 PUSH2 0x641 JUMP JUMPDEST PUSH2 0xEF2 JUMP JUMPDEST PUSH2 0xF0B JUMP JUMPDEST SWAP13 PUSH2 0x1130 JUMP JUMPDEST SWAP9 SWAP10 SWAP2 SWAP9 PUSH1 0x3 SIGNEXTEND PUSH2 0x1265 DUP7 PUSH1 0x3 SIGNEXTEND SWAP1 JUMP JUMPDEST SGT ISZERO PUSH2 0x128E JUMPI POP SWAP1 PUSH2 0x1174 DUP5 PUSH2 0x1288 PUSH2 0x1179 SWAP5 PUSH2 0x1281 DUP11 PUSH2 0xF0B JUMP JUMPDEST POP DUP5 PUSH2 0x15A2 JUMP JUMPDEST SWAP11 PUSH2 0x115C JUMP JUMPDEST SWAP9 SWAP8 POP POP PUSH2 0x1179 SWAP1 PUSH2 0x12A4 PUSH2 0x1249 PUSH2 0x123A PUSH2 0xEE8 JUMP JUMPDEST POP PUSH2 0x1174 DUP5 PUSH2 0x12B2 DUP4 PUSH2 0x157F JUMP JUMPDEST SWAP10 PUSH2 0x115C JUMP JUMPDEST PUSH2 0x12D2 SWAP2 SWAP12 POP PUSH1 0x20 RETURNDATASIZE PUSH1 0x20 GT PUSH2 0xBAA JUMPI PUSH2 0xB9B DUP2 DUP4 PUSH2 0x5AE JUMP JUMPDEST SWAP10 CODESIZE PUSH2 0x10E5 JUMP JUMPDEST PUSH1 0x40 MLOAD PUSH4 0x200E8A9 PUSH1 0xE3 SHL DUP2 MSTORE PUSH1 0x4 SWAP1 REVERT JUMPDEST PUSH1 0x40 MLOAD PUSH4 0x3944550F PUSH1 0xE2 SHL DUP2 MSTORE PUSH1 0x4 SWAP1 REVERT JUMPDEST POP PUSH2 0x1309 PUSH2 0x196 PUSH2 0xEC2 JUMP JUMPDEST PUSH2 0x1313 DUP5 PUSH1 0x3 SIGNEXTEND SWAP1 JUMP JUMPDEST SLT PUSH2 0x1047 JUMP JUMPDEST POP POP POP POP POP POP POP POP PUSH2 0x1329 PUSH1 0x0 SWAP1 JUMP JUMPDEST POP PUSH4 0xBC197C81 PUSH1 0xE0 SHL SWAP1 JUMP JUMPDEST POP POP POP POP POP POP PUSH2 0x1343 PUSH1 0x0 SWAP1 JUMP JUMPDEST POP PUSH4 0xF23A6E61 PUSH1 0xE0 SHL SWAP1 JUMP JUMPDEST PUSH4 0x4E487B71 PUSH1 0xE0 SHL PUSH1 0x0 MSTORE PUSH1 0x12 PUSH1 0x4 MSTORE PUSH1 0x24 PUSH1 0x0 REVERT JUMPDEST PUSH2 0x1371 SWAP1 PUSH1 0x3 SIGNEXTEND PUSH2 0x778 JUMP JUMPDEST SWAP1 DUP2 ISZERO PUSH2 0x138E JUMPI PUSH4 0x7FFFFFFF NOT DUP2 EQ PUSH1 0x0 NOT DUP4 EQ AND PUSH2 0x798 JUMPI SDIV SWAP1 JUMP JUMPDEST PUSH2 0x134F JUMP JUMPDEST PUSH2 0x139F SWAP1 PUSH1 0x3 SIGNEXTEND PUSH2 0x778 JUMP JUMPDEST ADD SWAP1 PUSH4 0x7FFFFFFF DUP3 SGT PUSH4 0x7FFFFFFF NOT DUP4 SLT OR PUSH2 0x798 JUMPI JUMP JUMPDEST PUSH2 0x13C7 PUSH2 0xC3 PUSH2 0xC3 SWAP3 PUSH1 0xFF AND SWAP1 JUMP JUMPDEST PUSH4 0xFFFFFFFF AND SWAP1 JUMP JUMPDEST PUSH2 0x196 PUSH2 0xC3 PUSH2 0xC3 SWAP3 PUSH4 0xFFFFFFFF AND SWAP1 JUMP JUMPDEST PUSH2 0x13EF SWAP1 PUSH1 0x3 SIGNEXTEND PUSH2 0x778 JUMP JUMPDEST MUL SWAP1 PUSH2 0x13FB DUP3 PUSH1 0x3 SIGNEXTEND SWAP1 JUMP JUMPDEST SWAP2 DUP3 SUB PUSH2 0x798 JUMPI JUMP JUMPDEST SWAP3 SWAP2 SWAP1 DUP2 PUSH2 0x141A SWAP2 PUSH2 0x1414 PUSH1 0x0 SWAP1 JUMP JUMPDEST POP PUSH2 0x1365 JUMP JUMPDEST SWAP2 ISZERO PUSH2 0x14B4 JUMPI PUSH2 0x1459 SWAP3 PUSH2 0x145E PUSH2 0x1430 DUP5 PUSH2 0x18E5 JUMP JUMPDEST SWAP6 SWAP1 PUSH2 0x1453 PUSH2 0x143F PUSH1 0x1 PUSH2 0x641 JUMP JUMPDEST PUSH2 0xCBF PUSH2 0x144C DUP11 DUP4 PUSH2 0xEF2 JUMP JUMPDEST SWAP2 DUP3 PUSH2 0x8F3 JUMP JUMPDEST SWAP4 PUSH2 0x72D JUMP JUMPDEST PUSH2 0x187 JUMP JUMPDEST AND SWAP3 PUSH2 0x146A PUSH1 0x0 PUSH2 0x641 JUMP JUMPDEST DUP5 EQ DUP1 ISZERO SWAP5 SWAP1 PUSH2 0x14A0 JUMPI SWAP3 PUSH2 0xAA8 PUSH2 0x1493 PUSH2 0x148E PUSH2 0x1498 SWAP5 PUSH2 0x1234 PUSH2 0x149D SWAP9 PUSH2 0x1BD0 JUMP JUMPDEST PUSH2 0x13B7 JUMP JUMPDEST PUSH2 0x13D0 JUMP JUMPDEST PUSH2 0x13E3 JUMP JUMPDEST SWAP2 JUMP JUMPDEST POP PUSH2 0x149D SWAP3 PUSH2 0xAA8 PUSH2 0x1493 PUSH2 0x1498 SWAP4 PUSH2 0x13B7 JUMP JUMPDEST PUSH2 0x1459 PUSH1 0x1 SWAP4 PUSH2 0x14FB PUSH2 0x14D7 PUSH2 0x14D2 PUSH2 0x14CC DUP9 PUSH2 0x710 JUMP JUMPDEST DUP8 PUSH2 0x1393 JUMP JUMPDEST PUSH2 0x18E5 JUMP JUMPDEST SWAP4 SWAP1 PUSH2 0x1453 PUSH2 0x14F7 PUSH2 0x14E8 DUP11 PUSH2 0x641 JUMP JUMPDEST PUSH2 0x14F2 DUP9 DUP3 PUSH2 0xEF2 JUMP JUMPDEST PUSH2 0x8F3 JUMP JUMPDEST NOT SWAP1 JUMP JUMPDEST AND SWAP1 PUSH2 0x1507 PUSH1 0x0 PUSH2 0x641 JUMP JUMPDEST DUP3 EQ DUP1 ISZERO SWAP6 SWAP1 PUSH2 0x1543 JUMPI PUSH2 0x1493 PUSH2 0x148E PUSH2 0x1498 SWAP5 SWAP4 PUSH2 0x153E PUSH2 0x1538 PUSH2 0x149D SWAP10 PUSH2 0x1532 PUSH2 0x1532 SWAP8 PUSH2 0x710 JUMP JUMPDEST SWAP1 PUSH2 0x1393 JUMP JUMPDEST SWAP6 PUSH2 0x1982 JUMP JUMPDEST PUSH2 0xF18 JUMP JUMPDEST PUSH2 0x1498 SWAP3 POP PUSH2 0x1493 PUSH2 0x148E PUSH2 0x1561 PUSH2 0x149D SWAP8 PUSH2 0x1532 PUSH2 0x1532 SWAP6 PUSH2 0x710 JUMP JUMPDEST SWAP4 PUSH1 0xFF PUSH2 0xF18 JUMP JUMPDEST PUSH2 0xC3 PUSH2 0xC3 PUSH2 0xC3 SWAP3 PUSH1 0x1 PUSH1 0x1 PUSH1 0x80 SHL SUB AND SWAP1 JUMP JUMPDEST PUSH2 0x1594 PUSH2 0xC3 SWAP2 PUSH2 0x158E PUSH1 0x0 SWAP1 JUMP JUMPDEST POP PUSH2 0x1569 JUMP JUMPDEST PUSH2 0x159C PUSH2 0xEE8 JUMP JUMPDEST SWAP1 PUSH2 0xEF2 JUMP JUMPDEST SWAP1 PUSH2 0x15B2 PUSH2 0xC3 SWAP3 PUSH2 0x158E PUSH1 0x0 SWAP1 JUMP JUMPDEST PUSH2 0x15D2 PUSH2 0x15C7 PUSH2 0x15C0 PUSH2 0xEE8 JUMP JUMPDEST DUP1 SWAP4 PUSH2 0xEF2 JUMP JUMPDEST SWAP2 PUSH2 0x1244 PUSH1 0x1 PUSH2 0x641 JUMP JUMPDEST SWAP1 PUSH2 0x1D5E JUMP JUMPDEST PUSH1 0x1 PUSH1 0x1 PUSH1 0xA0 SHL SUB SWAP1 DUP2 AND SWAP2 AND SWAP1 SUB SWAP1 PUSH1 0x1 PUSH1 0x1 PUSH1 0xA0 SHL SUB DUP3 GT PUSH2 0x798 JUMPI JUMP JUMPDEST PUSH2 0xC3 SWAP1 DUP2 SWAP1 PUSH1 0x1 PUSH1 0x1 PUSH1 0xA0 SHL SUB AND DUP2 JUMP JUMPDEST PUSH2 0x165C PUSH2 0x1656 PUSH2 0xC3 SWAP5 SWAP4 PUSH2 0x161D PUSH1 0x0 SWAP1 JUMP JUMPDEST POP PUSH2 0x1650 PUSH2 0x1637 PUSH2 0x1631 PUSH1 0x1 PUSH1 0x60 SHL PUSH2 0xF0B JUMP JUMPDEST SWAP6 PUSH2 0x1569 JUMP JUMPDEST SWAP2 PUSH2 0x164A PUSH2 0x1643 PUSH2 0xEE8 JUMP JUMPDEST DUP1 SWAP5 PUSH2 0xEF2 JUMP JUMPDEST SWAP6 PUSH2 0x15D8 JUMP JUMPDEST SWAP5 PUSH2 0xEF2 JUMP JUMPDEST SWAP3 PUSH2 0x15F8 JUMP JUMPDEST SWAP1 PUSH2 0x1EA2 JUMP JUMPDEST SWAP1 PUSH2 0x1672 PUSH2 0xC3 SWAP3 PUSH2 0x158E PUSH1 0x0 SWAP1 JUMP JUMPDEST PUSH2 0x15D2 PUSH2 0x1656 PUSH2 0x1683 PUSH2 0x1643 PUSH2 0xEE8 JUMP JUMPDEST SWAP3 PUSH2 0x1244 PUSH1 0x1 PUSH2 0x641 JUMP JUMPDEST SWAP1 PUSH1 0xFF SWAP1 PUSH2 0x8BA JUMP JUMPDEST SWAP1 PUSH2 0x16A7 PUSH2 0xC3 PUSH2 0x8EF SWAP3 ISZERO ISZERO SWAP1 JUMP JUMPDEST DUP3 SLOAD PUSH2 0x168E JUMP JUMPDEST SWAP1 PUSH17 0xFFFFFFFFFFFFFFFFFFFFFFFFFFFFFFFF00 SWAP1 PUSH1 0x8 SHL PUSH2 0x8BA JUMP JUMPDEST SWAP1 PUSH2 0x16DA PUSH2 0xC3 PUSH2 0x8EF SWAP3 PUSH2 0xF70 JUMP JUMPDEST DUP3 SLOAD PUSH2 0x16AE JUMP JUMPDEST PUSH2 0xC3 PUSH2 0xCA SWAP3 PUSH2 0x16FD SWAP3 SWAP6 SWAP5 SWAP6 PUSH2 0x16F7 PUSH1 0x0 SWAP1 JUMP JUMPDEST POP PUSH2 0x72D JUMP JUMPDEST SWAP3 PUSH2 0x1707 DUP5 PUSH2 0x919 JUMP JUMPDEST PUSH1 0x0 SWAP5 DUP6 SWAP2 PUSH2 0x1718 PUSH2 0xF42 DUP5 PUSH2 0xECE JUMP JUMPDEST EQ PUSH2 0x176C JUMPI JUMPDEST ADD SWAP4 PUSH2 0x1764 PUSH2 0x175E PUSH2 0x1739 PUSH2 0x1732 DUP9 PUSH2 0x919 JUMP JUMPDEST SWAP5 DUP6 PUSH2 0xF34 JUMP JUMPDEST SWAP4 PUSH2 0x175A PUSH2 0xF42 PUSH2 0x1749 DUP7 PUSH2 0xECE JUMP JUMPDEST PUSH1 0x1 PUSH1 0x1 PUSH1 0x80 SHL SUB DUP9 AND EQ SWAP6 PUSH2 0xECE JUMP JUMPDEST EQ SWAP1 JUMP JUMPDEST SWAP2 ISZERO ISZERO SWAP1 JUMP JUMPDEST EQ ISZERO SWAP4 PUSH2 0x16CA JUMP JUMPDEST PUSH2 0x1779 PUSH1 0x1 DUP4 DUP4 ADD PUSH2 0x1697 JUMP JUMPDEST PUSH2 0x171E JUMP JUMPDEST PUSH2 0x178A SWAP1 PUSH1 0x3 SIGNEXTEND PUSH2 0x778 JUMP JUMPDEST SWAP1 DUP2 ISZERO PUSH2 0x138E JUMPI SMOD SWAP1 JUMP JUMPDEST ISZERO PUSH2 0xB2 JUMPI JUMP JUMPDEST SWAP1 PUSH1 0x0 NOT SWAP1 PUSH2 0x8BA JUMP JUMPDEST SWAP1 PUSH2 0x17B6 PUSH2 0xC3 PUSH2 0x8EF SWAP3 PUSH2 0x641 JUMP JUMPDEST DUP3 SLOAD PUSH2 0x179C JUMP JUMPDEST SWAP1 PUSH2 0x17F8 PUSH2 0x17EB PUSH2 0x17FE SWAP3 PUSH2 0x14D2 PUSH2 0x17D8 PUSH2 0xCA SWAP8 DUP4 PUSH2 0x177E JUMP JUMPDEST PUSH2 0x17E5 PUSH2 0x778 PUSH1 0x0 PUSH2 0x710 JUMP JUMPDEST EQ PUSH2 0x1795 JUMP JUMPDEST PUSH2 0x1244 PUSH1 0x1 SWAP4 SWAP3 SWAP4 PUSH2 0x641 JUMP JUMPDEST SWAP3 PUSH2 0x72D JUMP JUMPDEST SWAP1 PUSH2 0x1808 DUP3 PUSH2 0x187 JUMP JUMPDEST XOR SWAP1 PUSH2 0x17A6 JUMP JUMPDEST PUSH2 0xC6 SWAP1 PUSH1 0x1 PUSH1 0x1 PUSH1 0xA0 SHL SUB AND PUSH1 0x60 SHL SWAP1 JUMP JUMPDEST PUSH1 0x14 DUP2 PUSH2 0x1835 PUSH2 0x679 SWAP4 PUSH1 0x4 SWAP7 SWAP6 PUSH2 0x180F JUMP JUMPDEST ADD DUP1 SWAP3 PUSH1 0xE0 SHL SWAP1 MSTORE JUMP JUMPDEST SWAP1 PUSH2 0x737 JUMP JUMPDEST PUSH2 0x186A PUSH2 0x1876 PUSH2 0xC3 SWAP5 PUSH2 0xC3 SWAP5 PUSH2 0x185C PUSH1 0x40 MLOAD SWAP1 JUMP JUMPDEST SWAP4 DUP5 SWAP3 PUSH1 0x20 DUP5 ADD SWAP3 DUP4 PUSH2 0x1822 JUMP JUMPDEST SWAP1 DUP2 SUB DUP3 MSTORE SUB DUP3 PUSH2 0x5AE JUMP JUMPDEST PUSH2 0x1888 PUSH2 0x1881 DUP3 MLOAD SWAP1 JUMP JUMPDEST SWAP2 PUSH1 0x20 ADD SWAP1 JUMP JUMPDEST KECCAK256 SWAP1 PUSH2 0x183F JUMP JUMPDEST PUSH2 0xCA SWAP2 PUSH2 0x18A0 SWAP1 PUSH2 0x1150 DUP4 PUSH2 0x637 JUMP JUMPDEST SWAP1 PUSH2 0xF86 JUMP JUMPDEST PUSH2 0x196 SWAP1 PUSH2 0x18BA PUSH2 0x778 PUSH2 0xC3 SWAP5 PUSH1 0xFF AND SWAP1 JUMP JUMPDEST SWAP1 SAR SWAP1 JUMP JUMPDEST PUSH2 0x18CF PUSH2 0xC3 PUSH2 0xC3 SWAP3 PUSH1 0x3 SIGNEXTEND SWAP1 JUMP JUMPDEST PUSH1 0x0 SIGNEXTEND SWAP1 JUMP JUMPDEST PUSH2 0x74A PUSH2 0xC3 PUSH2 0xC3 SWAP3 PUSH1 0x0 SIGNEXTEND SWAP1 JUMP JUMPDEST SWAP1 PUSH2 0xC3 PUSH2 0x1919 PUSH2 0x1914 PUSH2 0x1902 PUSH2 0x18FC PUSH1 0x8 PUSH2 0xEDB JUMP JUMPDEST DUP7 PUSH2 0x18A6 JUMP JUMPDEST SWAP5 PUSH2 0x190E PUSH2 0x100 PUSH2 0x710 JUMP JUMPDEST SWAP1 PUSH2 0x177E JUMP JUMPDEST PUSH2 0x18BF JUMP JUMPDEST PUSH2 0x18D5 JUMP JUMPDEST PUSH2 0xC3 SWAP1 PUSH2 0x1932 PUSH2 0xA21 PUSH2 0xC3 SWAP5 PUSH1 0xFF AND SWAP1 JUMP JUMPDEST SWAP1 SHR SWAP1 JUMP JUMPDEST PUSH2 0xC3 PUSH2 0xC3 PUSH2 0xC3 SWAP3 PUSH8 0xFFFFFFFFFFFFFFFF AND SWAP1 JUMP JUMPDEST PUSH2 0xC3 PUSH2 0xC3 PUSH2 0xC3 SWAP3 PUSH4 0xFFFFFFFF AND SWAP1 JUMP JUMPDEST PUSH2 0xC3 PUSH2 0xC3 PUSH2 0xC3 SWAP3 PUSH2 0xFFFF AND SWAP1 JUMP JUMPDEST PUSH2 0xC3 PUSH2 0xC3 PUSH2 0xC3 SWAP3 PUSH1 0xFF AND SWAP1 JUMP JUMPDEST SWAP1 PUSH1 0x0 PUSH2 0x1999 PUSH2 0x1991 DUP3 PUSH2 0x641 JUMP JUMPDEST DUP5 JUMPDEST GT PUSH2 0x1795 JUMP JUMPDEST PUSH2 0x19A3 PUSH1 0xFF PUSH2 0xEDB JUMP JUMPDEST DUP1 PUSH2 0x19B4 PUSH1 0x1 PUSH1 0x1 PUSH1 0x80 SHL SUB PUSH2 0x1569 JUMP JUMPDEST DUP6 AND PUSH2 0x19C2 PUSH2 0xA21 DUP6 PUSH2 0x641 JUMP JUMPDEST GT ISZERO PUSH2 0x1BA2 JUMPI POP PUSH2 0x19D7 SWAP1 PUSH2 0x1234 PUSH1 0x80 PUSH2 0xEDB JUMP JUMPDEST PUSH2 0x19E8 PUSH8 0xFFFFFFFFFFFFFFFF PUSH2 0x1937 JUMP JUMPDEST DUP5 AND PUSH2 0x19F6 PUSH2 0xA21 DUP5 PUSH2 0x641 JUMP JUMPDEST GT ISZERO PUSH2 0x1B8D JUMPI PUSH2 0x1A0A SWAP1 PUSH2 0x1234 PUSH1 0x40 PUSH2 0xEDB JUMP JUMPDEST PUSH2 0x1A17 PUSH4 0xFFFFFFFF PUSH2 0x194E JUMP JUMPDEST DUP5 AND PUSH2 0x1A25 PUSH2 0xA21 DUP5 PUSH2 0x641 JUMP JUMPDEST GT ISZERO PUSH2 0x1B78 JUMPI PUSH2 0x1A39 SWAP1 PUSH2 0x1234 PUSH1 0x20 PUSH2 0xEDB JUMP JUMPDEST PUSH2 0x1A44 PUSH2 0xFFFF PUSH2 0x1961 JUMP JUMPDEST DUP5 AND PUSH2 0x1A52 PUSH2 0xA21 DUP5 PUSH2 0x641 JUMP JUMPDEST GT ISZERO PUSH2 0x1B63 JUMPI PUSH2 0x1A66 SWAP1 PUSH2 0x1234 PUSH1 0x10 PUSH2 0xEDB JUMP JUMPDEST PUSH2 0x1A70 PUSH1 0xFF PUSH2 0x1972 JUMP JUMPDEST DUP5 AND PUSH2 0x1A7E PUSH2 0xA21 DUP5 PUSH2 0x641 JUMP JUMPDEST GT ISZERO PUSH2 0x1B4E JUMPI PUSH2 0x1A92 SWAP1 PUSH2 0x1234 PUSH1 0x8 PUSH2 0xEDB JUMP JUMPDEST PUSH2 0x1A9C PUSH1 0xF PUSH2 0x641 JUMP JUMPDEST DUP5 AND PUSH2 0x1AAA PUSH2 0xA21 DUP5 PUSH2 0x641 JUMP JUMPDEST GT ISZERO PUSH2 0x1B39 JUMPI PUSH2 0x1ABE SWAP1 PUSH2 0x1234 PUSH1 0x4 PUSH2 0xEDB JUMP JUMPDEST PUSH2 0x1AC8 PUSH1 0x3 PUSH2 0x641 JUMP JUMPDEST DUP5 AND PUSH2 0x1AD6 PUSH2 0xA21 DUP5 PUSH2 0x641 JUMP JUMPDEST GT ISZERO PUSH2 0x1B19 JUMPI PUSH2 0xA21 PUSH2 0x1AF0 PUSH2 0x1B03 SWAP3 PUSH2 0x1234 PUSH1 0x2 PUSH2 0xEDB JUMP JUMPDEST SWAP5 JUMPDEST PUSH2 0x1AFC PUSH1 0x1 PUSH2 0x641 JUMP JUMPDEST AND SWAP3 PUSH2 0x641 JUMP JUMPDEST GT PUSH2 0x1B0A JUMPI JUMP JUMPDEST SWAP1 PUSH2 0xC3 SWAP1 PUSH2 0x1234 PUSH1 0x1 PUSH2 0xEDB JUMP JUMPDEST SWAP3 PUSH2 0xA21 PUSH2 0x1B34 PUSH2 0x1B03 SWAP3 PUSH2 0x1B2E PUSH1 0x2 PUSH2 0xEDB JUMP JUMPDEST SWAP1 PUSH2 0x191E JUMP JUMPDEST PUSH2 0x1AF2 JUMP JUMPDEST SWAP3 PUSH2 0x1B48 SWAP1 PUSH2 0x1B2E PUSH1 0x4 PUSH2 0xEDB JUMP JUMPDEST SWAP3 PUSH2 0x1ABE JUMP JUMPDEST SWAP3 PUSH2 0x1B5D SWAP1 PUSH2 0x1B2E PUSH1 0x8 PUSH2 0xEDB JUMP JUMPDEST SWAP3 PUSH2 0x1A92 JUMP JUMPDEST SWAP3 PUSH2 0x1B72 SWAP1 PUSH2 0x1B2E PUSH1 0x10 PUSH2 0xEDB JUMP JUMPDEST SWAP3 PUSH2 0x1A66 JUMP JUMPDEST SWAP3 PUSH2 0x1B87 SWAP1 PUSH2 0x1B2E PUSH1 0x20 PUSH2 0xEDB JUMP JUMPDEST SWAP3 PUSH2 0x1A39 JUMP JUMPDEST SWAP3 PUSH2 0x1B9C SWAP1 PUSH2 0x1B2E PUSH1 0x40 PUSH2 0xEDB JUMP JUMPDEST SWAP3 PUSH2 0x1A0A JUMP JUMPDEST SWAP4 PUSH2 0x1BB2 SWAP2 POP PUSH2 0x1B2E PUSH1 0x80 PUSH2 0xEDB JUMP JUMPDEST SWAP3 PUSH2 0x19D7 JUMP JUMPDEST PUSH2 0x1BC4 SWAP1 PUSH1 0xFF AND PUSH2 0xF20 JUMP JUMPDEST ADD SWAP1 PUSH1 0xFF DUP3 GT PUSH2 0x798 JUMPI JUMP JUMPDEST SWAP1 PUSH1 0x0 SWAP2 DUP3 PUSH2 0x1BE8 PUSH2 0x1BE2 PUSH1 0x0 PUSH2 0x641 JUMP JUMPDEST DUP4 PUSH2 0x1993 JUMP JUMPDEST PUSH2 0x1BF5 PUSH1 0x1 PUSH1 0x80 SHL PUSH2 0x641 JUMP JUMPDEST DUP3 LT ISZERO PUSH2 0x1D3A JUMPI JUMPDEST POP PUSH2 0x1C10 PUSH9 0x10000000000000000 PUSH2 0x641 JUMP JUMPDEST DUP2 LT ISZERO PUSH2 0x1D23 JUMPI JUMPDEST PUSH2 0x1C26 PUSH5 0x100000000 PUSH2 0x641 JUMP JUMPDEST DUP2 LT ISZERO PUSH2 0x1D0C JUMPI JUMPDEST PUSH2 0x1C3A PUSH3 0x10000 PUSH2 0x641 JUMP JUMPDEST DUP2 LT ISZERO PUSH2 0x1CF5 JUMPI JUMPDEST PUSH2 0x1C4D PUSH2 0x100 PUSH2 0x641 JUMP JUMPDEST DUP2 LT ISZERO PUSH2 0x1CDE JUMPI JUMPDEST PUSH2 0x1C5F PUSH1 0x10 PUSH2 0x641 JUMP JUMPDEST DUP2 LT ISZERO PUSH2 0x1CC7 JUMPI JUMPDEST PUSH2 0x1C71 PUSH1 0x4 PUSH2 0x641 JUMP JUMPDEST DUP2 LT ISZERO PUSH2 0x1CA3 JUMPI JUMPDEST PUSH2 0x1C86 PUSH2 0xA21 PUSH1 0x2 PUSH2 0x641 JUMP JUMPDEST LT ISZERO PUSH2 0x1C8E JUMPI JUMP JUMPDEST SWAP1 PUSH2 0xC3 SWAP1 PUSH2 0x1C9D PUSH1 0x1 PUSH2 0xEDB JUMP JUMPDEST SWAP1 PUSH2 0x1BB8 JUMP JUMPDEST PUSH2 0x1CC1 SWAP1 PUSH2 0x1CBB PUSH2 0x1CB4 PUSH1 0x2 PUSH2 0xEDB JUMP JUMPDEST DUP1 SWAP3 PUSH2 0x191E JUMP JUMPDEST SWAP4 PUSH2 0x1BB8 JUMP JUMPDEST SWAP2 PUSH2 0x1C79 JUMP JUMPDEST PUSH2 0x1CD8 SWAP1 PUSH2 0x1CBB PUSH2 0x1CB4 PUSH1 0x4 PUSH2 0xEDB JUMP JUMPDEST SWAP2 PUSH2 0x1C67 JUMP JUMPDEST PUSH2 0x1CEF SWAP1 PUSH2 0x1CBB PUSH2 0x1CB4 PUSH1 0x8 PUSH2 0xEDB JUMP JUMPDEST SWAP2 PUSH2 0x1C55 JUMP JUMPDEST PUSH2 0x1D06 SWAP1 PUSH2 0x1CBB PUSH2 0x1CB4 PUSH1 0x10 PUSH2 0xEDB JUMP JUMPDEST SWAP2 PUSH2 0x1C42 JUMP JUMPDEST PUSH2 0x1D1D SWAP1 PUSH2 0x1CBB PUSH2 0x1CB4 PUSH1 0x20 PUSH2 0xEDB JUMP JUMPDEST SWAP2 PUSH2 0x1C2E JUMP JUMPDEST PUSH2 0x1D34 SWAP1 PUSH2 0x1CBB PUSH2 0x1CB4 PUSH1 0x40 PUSH2 0xEDB JUMP JUMPDEST SWAP2 PUSH2 0x1C18 JUMP JUMPDEST SWAP3 POP PUSH2 0x1D4D SWAP1 PUSH2 0x1CBB PUSH2 0x1CB4 PUSH1 0x80 PUSH2 0xEDB JUMP JUMPDEST SWAP2 CODESIZE PUSH2 0x1BFD JUMP JUMPDEST DUP2 ISZERO PUSH2 0x138E JUMPI DIV SWAP1 JUMP JUMPDEST SWAP2 SWAP3 SWAP2 SWAP1 PUSH1 0x0 SWAP1 PUSH1 0x0 NOT DUP2 DUP5 MULMOD SWAP3 DUP2 DUP2 MUL SWAP4 DUP5 DUP1 DUP3 LT SWAP2 SUB SUB SWAP3 PUSH2 0x1D82 PUSH1 0x0 PUSH2 0x641 JUMP JUMPDEST DUP5 EQ PUSH2 0x1E84 JUMPI DUP7 DUP5 LT ISZERO PUSH2 0x1E60 JUMPI SWAP3 DUP7 PUSH2 0xC3 SWAP7 SWAP8 SWAP4 PUSH2 0x1DCC SWAP4 PUSH2 0x1DDF SWAP7 POP MULMOD DUP1 DUP7 SUB SWAP6 LT SWAP1 SUB PUSH1 0x1 PUSH2 0x1DB9 DUP5 NOT PUSH2 0x679 DUP4 PUSH2 0x641 JUMP JUMPDEST DUP5 AND DUP1 DUP1 SWAP6 DIV SWAP7 DIV SWAP4 DUP1 PUSH1 0x0 SUB DIV ADD MUL SWAP1 JUMP JUMPDEST OR SWAP2 PUSH2 0x1DDF PUSH2 0x1DE3 DUP3 PUSH2 0x1DDF PUSH1 0x3 PUSH2 0x641 JUMP JUMPDEST MUL SWAP1 JUMP JUMPDEST PUSH2 0x1E14 PUSH2 0x1E5A PUSH2 0x1E54 PUSH2 0x1E45 PUSH2 0x1E36 PUSH2 0x1E27 PUSH2 0x1E18 PUSH1 0x2 SWAP8 PUSH2 0x1E04 DUP10 PUSH2 0x641 JUMP JUMPDEST XOR PUSH2 0x1DDF DUP12 DUP3 MUL PUSH2 0x1E14 DUP12 PUSH2 0x641 JUMP JUMPDEST SUB SWAP1 JUMP JUMPDEST PUSH2 0x1DDF DUP11 DUP3 MUL PUSH2 0x1E14 DUP11 PUSH2 0x641 JUMP JUMPDEST PUSH2 0x1DDF DUP10 DUP3 MUL PUSH2 0x1E14 DUP10 PUSH2 0x641 JUMP JUMPDEST PUSH2 0x1DDF DUP9 DUP3 MUL PUSH2 0x1E14 DUP9 PUSH2 0x641 JUMP JUMPDEST PUSH2 0x1DDF DUP8 DUP3 MUL PUSH2 0x1E14 DUP8 PUSH2 0x641 JUMP JUMPDEST DUP1 SWAP6 MUL SWAP1 JUMP JUMPDEST SWAP2 PUSH2 0x641 JUMP JUMPDEST DUP7 DUP5 PUSH2 0x6BF PUSH2 0x1E6E PUSH1 0x40 MLOAD SWAP1 JUMP JUMPDEST PUSH4 0x1DCF3063 PUSH1 0xE2 SHL DUP2 MSTORE SWAP3 DUP4 SWAP3 PUSH1 0x4 DUP5 ADD PUSH2 0x2D3 JUMP JUMPDEST POP POP POP POP SWAP2 PUSH2 0xC3 SWAP2 SWAP3 PUSH2 0x1D54 JUMP JUMPDEST PUSH1 0x0 NOT DUP2 EQ PUSH2 0x798 JUMPI PUSH1 0x1 ADD SWAP1 JUMP JUMPDEST SWAP2 SWAP3 SWAP2 PUSH2 0x1EB0 DUP5 DUP4 DUP4 PUSH2 0x1D5E JUMP JUMPDEST SWAP2 DUP3 SWAP5 DUP1 ISZERO PUSH2 0x138E JUMPI PUSH2 0x1ECC SWAP2 PUSH2 0x1EC7 PUSH1 0x0 PUSH2 0x641 JUMP JUMPDEST SWAP4 MULMOD SWAP1 JUMP JUMPDEST GT PUSH2 0x1ED4 JUMPI POP JUMP JUMPDEST SWAP1 SWAP2 POP PUSH2 0xC3 SWAP1 PUSH2 0x1EE8 PUSH1 0x0 NOT DUP3 LT PUSH2 0x1795 JUMP JUMPDEST PUSH2 0x1E93 JUMP INVALID LOG2 PUSH5 0x6970667358 0x22 SLT KECCAK256 0xA9 0xC4 0xC3 DUP11 DUP9 0xDA PUSH22 0x6585589A6E2A9E44730AA3A75A3A0D79961268C00A0B PUSH17 0xC8F464736F6C6343000818003300000000 "},"methodIdentifiers":{"composition()":"d456b5dd","liquidity()":"1a686502","mint(address,int32,uint128,bytes)":"56b4b80d","onERC1155BatchReceived(address,address,uint256[],uint256[],bytes)":"bc197c81","onERC1155Received(address,address,uint256,uint256,bytes)":"f23a6e61","slot()":"1a88bc66","swap(address,uint256,uint256,bool,bytes)":"2ead224d","token0()":"0dfe1681","token1()":"d21220a7"}}}}}