{"contracts/ERC1155/ERC1155.sol":{"ERC1155":{"abi":[{"inputs":[{"internalType":"string","name":"name_","type":"string"},{"internalType":"string","name":"symbol_","type":"string"}],"stateMutability":"nonpayable","type":"constructor"},{"anonymous":false,"inputs":[{"indexed":true,"internalType":"address","name":"account","type":"address"},{"indexed":true,"internalType":"address","name":"operator","type":"address"},{"indexed":false,"internalType":"bool","name":"approved","type":"bool"}],"name":"ApprovalForAll","type":"event"},{"anonymous":false,"inputs":[{"indexed":true,"internalType":"address","name":"operator","type":"address"},{"indexed":true,"internalType":"address","name":"from","type":"address"},{"indexed":true,"internalType":"address","name":"to","type":"address"},{"indexed":false,"internalType":"uint256[]","name":"ids","type":"uint256[]"},{"indexed":false,"internalType":"uint256[]","name":"values","type":"uint256[]"}],"name":"TransferBatch","type":"event"},{"anonymous":false,"inputs":[{"indexed":true,"internalType":"address","name":"operator","type":"address"},{"indexed":true,"internalType":"address","name":"from","type":"address"},{"indexed":true,"internalType":"address","name":"to","type":"address"},{"indexed":false,"internalType":"uint256","name":"id","type":"uint256"},{"indexed":false,"internalType":"uint256","name":"value","type":"uint256"}],"name":"TransferSingle","type":"event"},{"anonymous":false,"inputs":[{"indexed":false,"internalType":"string","name":"value","type":"string"},{"indexed":true,"internalType":"uint256","name":"id","type":"uint256"}],"name":"URI","type":"event"},{"inputs":[{"internalType":"uint256","name":"","type":"uint256"},{"internalType":"address","name":"","type":"address"}],"name":"_balances","outputs":[{"internalType":"uint256","name":"","type":"uint256"}],"stateMutability":"view","type":"function"},{"inputs":[{"internalType":"address","name":"to","type":"address"},{"internalType":"uint256","name":"id","type":"uint256"},{"internalType":"uint256","name":"amount","type":"uint256"},{"internalType":"bytes","name":"data","type":"bytes"}],"name":"_mint","outputs":[{"internalType":"uint256","name":"_balanceafter","type":"uint256"}],"stateMutability":"nonpayable","type":"function"},{"inputs":[{"internalType":"address","name":"","type":"address"},{"internalType":"address","name":"","type":"address"}],"name":"_operatorApprovals","outputs":[{"internalType":"bool","name":"","type":"bool"}],"stateMutability":"view","type":"function"},{"inputs":[{"internalType":"address","name":"account","type":"address"},{"internalType":"uint256","name":"id","type":"uint256"}],"name":"balanceOf","outputs":[{"internalType":"uint256","name":"","type":"uint256"}],"stateMutability":"view","type":"function"},{"inputs":[{"internalType":"address[]","name":"accounts","type":"address[]"},{"internalType":"uint256[]","name":"ids","type":"uint256[]"}],"name":"balanceOfBatch","outputs":[{"internalType":"uint256[]","name":"","type":"uint256[]"}],"stateMutability":"view","type":"function"},{"inputs":[{"internalType":"address","name":"account","type":"address"},{"internalType":"address","name":"operator","type":"address"}],"name":"isApprovedForAll","outputs":[{"internalType":"bool","name":"","type":"bool"}],"stateMutability":"view","type":"function"},{"inputs":[],"name":"name","outputs":[{"internalType":"string","name":"","type":"string"}],"stateMutability":"view","type":"function"},{"inputs":[{"internalType":"address","name":"from","type":"address"},{"internalType":"address","name":"to","type":"address"},{"internalType":"uint256[]","name":"ids","type":"uint256[]"},{"internalType":"uint256[]","name":"amounts","type":"uint256[]"},{"internalType":"bytes","name":"data","type":"bytes"}],"name":"safeBatchTransferFrom","outputs":[],"stateMutability":"nonpayable","type":"function"},{"inputs":[{"internalType":"address","name":"from","type":"address"},{"internalType":"address","name":"to","type":"address"},{"internalType":"uint256","name":"id","type":"uint256"},{"internalType":"uint256","name":"amount","type":"uint256"},{"internalType":"bytes","name":"data","type":"bytes"}],"name":"safeTransferFrom","outputs":[{"internalType":"uint256","name":"_id","type":"uint256"},{"internalType":"address","name":"_from","type":"address"},{"internalType":"uint256","name":"_frombalance","type":"uint256"}],"stateMutability":"nonpayable","type":"function"},{"inputs":[{"internalType":"address","name":"operator","type":"address"},{"internalType":"bool","name":"approved","type":"bool"}],"name":"setApprovalForAll","outputs":[],"stateMutability":"nonpayable","type":"function"},{"inputs":[{"internalType":"bytes4","name":"interfaceId","type":"bytes4"}],"name":"supportsInterface","outputs":[{"internalType":"bool","name":"","type":"bool"}],"stateMutability":"view","type":"function"},{"inputs":[],"name":"symbol","outputs":[{"internalType":"string","name":"","type":"string"}],"stateMutability":"view","type":"function"},{"inputs":[{"internalType":"uint256","name":"id","type":"uint256"}],"name":"uri","outputs":[{"internalType":"string","name":"","type":"string"}],"stateMutability":"view","type":"function"}],"evm":{"bytecode":{"linkReferences":{},"object":"60806040523462000031576200001f6200001862000175565b9062000392565b6040516119eb620003ad82396119eb90f35b600080fd5b634e487b7160e01b600052604160045260246000fd5b90601f01601f191681019081106001600160401b038211176200006e57604052565b62000036565b906200008b6200008360405190565b92836200004c565b565b6001600160401b0381116200006e57602090601f01601f19160190565b60005b838110620000be5750506000910152565b8181015183820152602001620000ad565b90929192620000e8620000e2826200008d565b62000074565b938185528183011162000031576200008b916020850190620000aa565b9080601f83011215620000315781516200012292602001620000cf565b90565b919091604081840312620000315780516001600160401b0381116200003157836200015291830162000105565b60208201519093906001600160401b038111620000315762000122920162000105565b6200019862001d98803803806200018c8162000074565b92833981019062000125565b9091565b634e487b7160e01b600052602260045260246000fd5b9060016002830492168015620001d5575b6020831014620001cf57565b6200019c565b91607f1691620001c3565b6200012262000122620001229290565b919062000205620001226200021d93620001e0565b90835460001960089290920291821b191691901b1790565b9055565b6200008b91600091620001f0565b8181106200023b575050565b806200024b600060019362000221565b016200022f565b9190601f81116200026257505050565b620002766200008b93600052602060002090565b906020601f8401819004830193106200029a575b6020601f9091010401906200022f565b90915081906200028a565b90620002af815190565b906001600160401b0382116200006e57620002d782620002d08554620001b2565b8562000252565b602090601f831160011462000316576200021d9291600091836200030a575b5050600019600883021c1916906002021790565b015190503880620002f6565b601f198316916200032c85600052602060002090565b9260005b8181106200036d5750916002939185600196941062000353575b50505002019055565b01516000196008601f8516021c191690553880806200034a565b9193602060018192878701518155019501920162000330565b906200008b91620002a5565b90620003a46200008b92600062000386565b60016200038656fe6080604052600436101561001257600080fd5b60003560e01c8062fdd58e146100e157806301ffc9a7146100dc57806306fdde03146100d75780630e89341c146100d25780632ca6f4da146100cd5780632eb2c2d6146100c85780634e1273f4146100c357806395d89b41146100be578063a22cb465146100b9578063e985e9c5146100b4578063edc3bc3f146100af578063f242432a146100aa5763fc25a4da03610107576109aa565b61091a565b61089a565b610808565b6107cc565b610779565b610745565b61060c565b6104e7565b6103f5565b6103ba565b6101b2565b610151565b6001600160a01b031690565b90565b6001600160a01b0381165b0361010757565b600080fd5b90503590610119826100f5565b565b80610100565b905035906101198261011b565b9190604083820312610107576100f290602061014a828661010c565b9401610121565b346101075761017d61016d61016736600461012e565b90610a50565b6040519182918290815260200190565b0390f35b6001600160e01b03198116610100565b9050359061011982610181565b90602082820312610107576100f291610191565b346101075761017d6101cd6101c836600461019e565b610a91565b6040515b91829182901515815260200190565b600091031261010757565b634e487b7160e01b600052600060045260246000fd5b634e487b7160e01b600052602260045260246000fd5b9060016002830492168015610237575b602083101461023257565b610201565b91607f1691610227565b8054600093929161025e61025483610217565b8085529360200190565b91600181169081156102b0575060011461027757505050565b61028a9192939450600052602060002090565b916000925b81841061029c5750500190565b80548484015260209093019260010161028f565b92949550505060ff1916825215156020020190565b906100f291610241565b634e487b7160e01b600052604160045260246000fd5b90601f01601f1916810190811067ffffffffffffffff82111761030757604052565b6102cf565b906101196103269261031d60405190565b938480926102c5565b03836102e5565b9060001061033e576100f29061030c565b6101eb565b6100f260008061032d565b60005b8381106103615750506000910152565b8181015183820152602001610351565b61039261039b6020936103a593610386815190565b80835293849260200190565b9586910161034e565b601f01601f191690565b0190565b60208082526100f292910190610371565b34610107576103ca3660046101e0565b61017d6103d5610343565b604051918291826103a9565b90602082820312610107576100f291610121565b346101075761017d6103d561040b3660046103e1565b610b4b565b9061011961041d60405190565b92836102e5565b67ffffffffffffffff811161030757602090601f01601f19160190565b90826000939282370152565b9092919261046261045d82610424565b610410565b938185528183011161010757610119916020850190610441565b9080601f83011215610107578160206100f29335910161044d565b90608082820312610107576104ac818361010c565b926104ba8260208501610121565b926104c88360408301610121565b92606082013567ffffffffffffffff8111610107576100f2920161047c565b346101075761017d61016d6104fd366004610497565b92919091610c69565b67ffffffffffffffff81116103075760208091020190565b9092919261052e61045d82610506565b938185526020808601920283019281841161010757915b8383106105525750505050565b602080916105608486610121565b815201920191610545565b9080601f83011215610107578160206100f29335910161051e565b91909160a0818403126101075761059d838261010c565b926105ab816020840161010c565b92604083013567ffffffffffffffff811161010757826105cc91850161056b565b92606081013567ffffffffffffffff811161010757836105ed91830161056b565b92608082013567ffffffffffffffff8111610107576100f2920161047c565b346101075761062861061f366004610586565b93929092610f06565b604051005b9092919261063d61045d82610506565b938185526020808601920283019281841161010757915b8383106106615750505050565b6020809161066f848661010c565b815201920191610654565b9080601f83011215610107578160206100f29335910161062d565b91909160408184031261010757803567ffffffffffffffff811161010757836106bf91830161067a565b92602082013567ffffffffffffffff8111610107576100f2920161056b565b906106fe6106f76106ed845190565b8084529260200190565b9260200190565b9060005b81811061070f5750505090565b90919261072c6107256001928651815260200190565b9460200190565b929101610702565b60208082526100f2929101906106de565b346101075761017d61076161075b366004610695565b90611119565b60405191829182610734565b6100f26000600161032d565b34610107576107893660046101e0565b61017d6103d561076d565b801515610100565b9050359061011982610794565b9190604083820312610107576100f29060206107c5828661010c565b940161079c565b34610107576106286107df3660046107a9565b9061122d565b9190604083820312610107576100f2906020610801828661010c565b940161010c565b346101075761017d6101cd61081e3660046107e5565b906112b2565b6100f2906100e6906001600160a01b031682565b6100f290610824565b6100f290610838565b9061085490610841565b600052602052604060002090565b6100f2916008021c5b60ff1690565b906100f29154610862565b6108956100f292610890600093600361084a565b61084a565b610871565b346101075761017d6101cd6108b03660046107e5565b9061087c565b91909160a081840312610107576108cd838261010c565b926108db816020840161010c565b926108e98260408501610121565b926105ed8360608301610121565b9081526001600160a01b0390911660208201526060810192916101199160400152565b346101075761017d6109396109303660046108b6565b939290926112d2565b604051919391938493846108f7565b9190604083820312610107576100f29060206108018286610121565b6100f26100f26100f29290565b9061085490610964565b6100f2916008021c81565b906100f2915461097b565b6109a56100f2926108906000936002610971565b610986565b346101075761017d61016d6109c0366004610948565b90610991565b6100e66100f26100f29290565b6100f2906109c6565b156109e357565b60405162461bcd60e51b815260206004820152602a60248201527f455243313135353a2061646472657373207a65726f206973206e6f742061207660448201526930b634b21037bbb732b960b11b6064820152608490fd5b0390fd5b6100f29081565b6100f29054610a3f565b610a8c906108906100f293610a63600090565b50610a85610a746100e660006109d3565b6001600160a01b03851614156109dc565b6002610971565b610a46565b636cdb3d1360e11b6001600160e01b0319821614908115610ad7575b8115610ab7575090565b9050610ad36301ffc9a760e01b5b916001600160e01b03191690565b1490565b6001600160e01b031981166303a24d0760e21b149150610aad565b90610aff61045d83610424565b918252565b6100f26000610af2565b6100f2610b04565b6103a5610b2e92602092610b28815190565b94859290565b9384910161034e565b610b45906100f29392610b16565b90610b16565b610b53611426565b8051610b66610b626000610964565b9190565b1115610ba3576100f2610b9791610b7f6100f2946114f5565b90610b8960405190565b938492602084019283610b37565b908103825203826102e5565b50506100f2610b0e565b15610bb457565b60405162461bcd60e51b815260206004820152602160248201527f455243313135353a206d696e7420746f20746865207a65726f206164647265736044820152607360f81b6064820152608490fd5b634e487b7160e01b600052601160045260246000fd5b91908201809211610c2657565b610c03565b90600019905b9181191691161790565b90610c4b6100f2610c5292610964565b8254610c2b565b9055565b9081526040810192916101199160200152565b9392610119929091610c7b60006109d3565b95610c9a6001600160a01b0388166001600160a01b0383161415610bad565b610cc4610cac82610890856002610971565b610cbe85610cb983610a46565b610c19565b90610c3b565b610cd6610a8c82610890856002610971565b96610ce033610841565b610ce982610841565b610cf284610841565b917fc3d58168c5ae7397731d063d5bbf3d657854427343f4c083240f7aacaa2d0f62610d1d60405190565b80610d298a8a83610c56565b0390a4336116df565b15610d3957565b60405162461bcd60e51b815260206004820152602f60248201527f455243313135353a2063616c6c6572206973206e6f7420746f6b656e206f776e60448201526e195c881b9bdc88185c1c1c9bdd9959608a1b6064820152608490fd5b15610d9d57565b60405162461bcd60e51b815260206004820152602860248201527f455243313135353a2069647320616e6420616d6f756e7473206c656e677468206044820152670dad2e6dac2e8c6d60c31b6064820152608490fd5b15610dfa57565b60405162461bcd60e51b815260206004820152602560248201527f455243313135353a207472616e7366657220746f20746865207a65726f206164604482015264647265737360d81b6064820152608490fd5b634e487b7160e01b600052603260045260246000fd5b90610e6c825190565b811015610e7d576020809102010190565b610e4d565b15610e8957565b60405162461bcd60e51b815260206004820152602a60248201527f455243313135353a20696e73756666696369656e742062616c616e636520666f60448201526939103a3930b739b332b960b11b6064820152608490fd5b60408082526100f2939192610ef8918401906106de565b9160208184039101526106de565b9490929190336001600160a01b038716148015611071575b610f2790610d32565b610f46610f32835190565b610f40610b626100f2875190565b14610d96565b610f67610f566100e660006109d3565b6001600160a01b0386161415610df3565b610f716000610964565b610f7c6100f2845190565b81101561100e578061100388610cbe610ff9896108908a610fb5610fab89610faf610fab8f9d6110099e610e63565b5190565b93610e63565b95610ff4600291610fef610fe48a610fd4610a8c856108908a8a610971565b610fe082821015610e82565b0390565b916108908686610971565b610c3b565b610971565b91610cb983610a46565b60010190565b610f71565b509492610119949361101f33610841565b61102882610841565b61103184610841565b917f4a39dc06d4c0dbc64b70af90fd698a233a518aa5d07e595d983b8c0526c8f7fb61105c60405190565b806110688a8a83610ee1565b0390a433611905565b50610f2761107f33886112b2565b9050610f1e565b1561108d57565b60405162461bcd60e51b815260206004820152602960248201527f455243313135353a206163636f756e747320616e6420696473206c656e677468604482015268040dad2e6dac2e8c6d60bb1b6064820152608490fd5b90610aff61045d83610506565b369037565b9061011961110c611106846110e4565b93610506565b601f1901602084016110f1565b90611139611125835190565b611133610b626100f2855190565b14611086565b611149611144835190565b6110f6565b916111546000610964565b61115f6100f2835190565b8110156111a9578061100361119761118a61117d6111a49587610e63565b516001600160a01b031690565b610167610fab8589610e63565b6111a18388610e63565b52565b611154565b50505090565b156111b657565b60405162461bcd60e51b815260206004820152602960248201527f455243313135353a2073657474696e6720617070726f76616c20737461747573604482015268103337b91039b2b63360b91b6064820152608490fd5b9060ff90610c31565b906112266100f2610c5292151590565b825461120d565b6112426001600160a01b0382163314156111af565b61125a826112558361089033600361084a565b611216565b7f17307eab39ab6107e8899845ad3d59bd9653f200f220920489ca2b5937696c3161129a61129061128a33610841565b93610841565b936101d160405190565b0390a3565b6100f29061086b565b6100f2905461129f565b6100f2916108906112cd926112c5600090565b50600361084a565b6112a8565b90949192936112df600090565b50336001600160a01b038316148015611411575b6112fc90610d32565b61130660006109d3565b6001600160a01b03166001600160a01b038716141561132490610df3565b600294826113328688610971565b9061133c9161084a565b61134590610a46565b9480978085988389866113558190565b82101561136190610e82565b90038861136e8385610971565b906113789161084a565b9061138291610c3b565b61138b91610971565b906113959161084a565b8361139f82610a46565b906113a991610c19565b6113b291610c3b565b6113bb33610841565b6113c486610841565b6113cd83610841565b916113d760405190565b806113e3888883610c56565b037fc3d58168c5ae7397731d063d5bbf3d657854427343f4c083240f7aacaa2d0f6291a461011994336116df565b506112fc61141f33846112b2565b90506112f3565b6100f2610b0e565b6114386001610af2565b600360fc1b602082015290565b6100f261142e565b6000198114610c265760010190565b634e487b7160e01b600052601260045260246000fd5b811561147c570490565b61145c565b9061011961110c61149184610af2565b93610424565b91908203918211610c2657565b811561147c570690565b61086b6100f26100f29290565b6114d16114cb6100f29260ff1690565b60f81b90565b6001600160f81b03191690565b906114e7825190565b811015610e7d570160200190565b90600061150181610964565b83146115ce579091908160005b61151783610964565b84146115405761152961153a9161144d565b93611534600a610964565b90611472565b9261150e565b9193925061154d82611481565b915b61155885610964565b82146115c3576115756115bd9161156f6001610964565b90611497565b91611534600a846115b76115ae6115a96115a461159a61159487610964565b896114a4565b610cb96030610964565b6114ae565b6114bb565b8a1a91886114de565b53610964565b9061154f565b50506100f291925090565b5090506100f2611445565b9050519061011982610181565b90602082820312610107576100f2916115d9565b919361163d6100f29694611636611644949761162660a088019960008901906001600160a01b03169052565b6001600160a01b03166020870152565b6040850152565b6060830152565b6080818403910152610371565b60009060033d1161165e57565b905060046000803e60005160e01c90565b60009060443d106101195760405160043d036004823e8051903d602483011167ffffffffffffffff8311176116db5781810191825167ffffffffffffffff81116116d55760043d038301816020860101116116d5576100f29394955060200101906102e5565b50505050565b5050565b9394916116eb816119a3565b6116f8575b505050505050565b60209461173561171161170c600094610841565b610841565b9461171b60405190565b9889978896879563f23a6e6160e01b8752600487016115fa565b03925af16000918161186f575b5061180457506001611752611651565b6308c379a0146117cf575b61176d575b3880808080806116f0565b60405162461bcd60e51b815260206004820152603460248201527f455243313135353a207472616e7366657220746f206e6f6e2d455243313135356044820152732932b1b2b4bb32b91034b6b83632b6b2b73a32b960611b6064820152608490fd5b6117d761166f565b806117e2575061175d565b610a3b906117ef60405190565b62461bcd60e51b8152918291600483016103a9565b61181463f23a6e6160e01b610ac5565b146117625760405162461bcd60e51b815260206004820152602860248201527f455243313135353a204552433131353552656365697665722072656a656374656044820152676420746f6b656e7360c01b6064820152608490fd5b61189291925060203d602011611899575b61188a81836102e5565b8101906115e6565b9038611742565b503d611880565b93906118e9906100f296946118dc6118f7956118cc60a08a019460008b01906001600160a01b03169052565b6001600160a01b03166020890152565b86820360408801526106de565b9084820360608601526106de565b916080818403910152610371565b939491611911816119a3565b61191d57505050505050565b60209461195561193161170c600094610841565b9461193b60405190565b9889978896879563bc197c8160e01b8752600487016118a0565b03925af160009181611982575b5061197257506001611752611651565b61181463bc197c8160e01b610ac5565b61199c91925060203d6020116118995761188a81836102e5565b9038611962565b3b6119b1610b626000610964565b119056fea2646970667358221220098a67f6afeacdde210a93415326312d57b43c0114fa5684a1f0b2d6986b57d264736f6c63430008180033","opcodes":"PUSH1 0x80 PUSH1 0x40 MSTORE CALLVALUE PUSH3 0x31 JUMPI PUSH3 0x1F PUSH3 0x18 PUSH3 0x175 JUMP JUMPDEST SWAP1 PUSH3 0x392 JUMP JUMPDEST PUSH1 0x40 MLOAD PUSH2 0x19EB PUSH3 0x3AD DUP3 CODECOPY PUSH2 0x19EB SWAP1 RETURN JUMPDEST PUSH1 0x0 DUP1 REVERT JUMPDEST PUSH4 0x4E487B71 PUSH1 0xE0 SHL PUSH1 0x0 MSTORE PUSH1 0x41 PUSH1 0x4 MSTORE PUSH1 0x24 PUSH1 0x0 REVERT JUMPDEST SWAP1 PUSH1 0x1F ADD PUSH1 0x1F NOT AND DUP2 ADD SWAP1 DUP2 LT PUSH1 0x1 PUSH1 0x1 PUSH1 0x40 SHL SUB DUP3 GT OR PUSH3 0x6E JUMPI PUSH1 0x40 MSTORE JUMP JUMPDEST PUSH3 0x36 JUMP JUMPDEST SWAP1 PUSH3 0x8B PUSH3 0x83 PUSH1 0x40 MLOAD SWAP1 JUMP JUMPDEST SWAP3 DUP4 PUSH3 0x4C JUMP JUMPDEST JUMP JUMPDEST PUSH1 0x1 PUSH1 0x1 PUSH1 0x40 SHL SUB DUP2 GT PUSH3 0x6E JUMPI PUSH1 0x20 SWAP1 PUSH1 0x1F ADD PUSH1 0x1F NOT AND ADD SWAP1 JUMP JUMPDEST PUSH1 0x0 JUMPDEST DUP4 DUP2 LT PUSH3 0xBE JUMPI POP POP PUSH1 0x0 SWAP2 ADD MSTORE JUMP JUMPDEST DUP2 DUP2 ADD MLOAD DUP4 DUP3 ADD MSTORE PUSH1 0x20 ADD PUSH3 0xAD JUMP JUMPDEST SWAP1 SWAP3 SWAP2 SWAP3 PUSH3 0xE8 PUSH3 0xE2 DUP3 PUSH3 0x8D JUMP JUMPDEST PUSH3 0x74 JUMP JUMPDEST SWAP4 DUP2 DUP6 MSTORE DUP2 DUP4 ADD GT PUSH3 0x31 JUMPI PUSH3 0x8B SWAP2 PUSH1 0x20 DUP6 ADD SWAP1 PUSH3 0xAA JUMP JUMPDEST SWAP1 DUP1 PUSH1 0x1F DUP4 ADD SLT ISZERO PUSH3 0x31 JUMPI DUP2 MLOAD PUSH3 0x122 SWAP3 PUSH1 0x20 ADD PUSH3 0xCF JUMP JUMPDEST SWAP1 JUMP JUMPDEST SWAP2 SWAP1 SWAP2 PUSH1 0x40 DUP2 DUP5 SUB SLT PUSH3 0x31 JUMPI DUP1 MLOAD PUSH1 0x1 PUSH1 0x1 PUSH1 0x40 SHL SUB DUP2 GT PUSH3 0x31 JUMPI DUP4 PUSH3 0x152 SWAP2 DUP4 ADD PUSH3 0x105 JUMP JUMPDEST PUSH1 0x20 DUP3 ADD MLOAD SWAP1 SWAP4 SWAP1 PUSH1 0x1 PUSH1 0x1 PUSH1 0x40 SHL SUB DUP2 GT PUSH3 0x31 JUMPI PUSH3 0x122 SWAP3 ADD PUSH3 0x105 JUMP JUMPDEST PUSH3 0x198 PUSH3 0x1D98 DUP1 CODESIZE SUB DUP1 PUSH3 0x18C DUP2 PUSH3 0x74 JUMP JUMPDEST SWAP3 DUP4 CODECOPY DUP2 ADD SWAP1 PUSH3 0x125 JUMP JUMPDEST SWAP1 SWAP2 JUMP JUMPDEST PUSH4 0x4E487B71 PUSH1 0xE0 SHL PUSH1 0x0 MSTORE PUSH1 0x22 PUSH1 0x4 MSTORE PUSH1 0x24 PUSH1 0x0 REVERT JUMPDEST SWAP1 PUSH1 0x1 PUSH1 0x2 DUP4 DIV SWAP3 AND DUP1 ISZERO PUSH3 0x1D5 JUMPI JUMPDEST PUSH1 0x20 DUP4 LT EQ PUSH3 0x1CF JUMPI JUMP JUMPDEST PUSH3 0x19C JUMP JUMPDEST SWAP2 PUSH1 0x7F AND SWAP2 PUSH3 0x1C3 JUMP JUMPDEST PUSH3 0x122 PUSH3 0x122 PUSH3 0x122 SWAP3 SWAP1 JUMP JUMPDEST SWAP2 SWAP1 PUSH3 0x205 PUSH3 0x122 PUSH3 0x21D SWAP4 PUSH3 0x1E0 JUMP JUMPDEST SWAP1 DUP4 SLOAD PUSH1 0x0 NOT PUSH1 0x8 SWAP3 SWAP1 SWAP3 MUL SWAP2 DUP3 SHL NOT AND SWAP2 SWAP1 SHL OR SWAP1 JUMP JUMPDEST SWAP1 SSTORE JUMP JUMPDEST PUSH3 0x8B SWAP2 PUSH1 0x0 SWAP2 PUSH3 0x1F0 JUMP JUMPDEST DUP2 DUP2 LT PUSH3 0x23B JUMPI POP POP JUMP JUMPDEST DUP1 PUSH3 0x24B PUSH1 0x0 PUSH1 0x1 SWAP4 PUSH3 0x221 JUMP JUMPDEST ADD PUSH3 0x22F JUMP JUMPDEST SWAP2 SWAP1 PUSH1 0x1F DUP2 GT PUSH3 0x262 JUMPI POP POP POP JUMP JUMPDEST PUSH3 0x276 PUSH3 0x8B SWAP4 PUSH1 0x0 MSTORE PUSH1 0x20 PUSH1 0x0 KECCAK256 SWAP1 JUMP JUMPDEST SWAP1 PUSH1 0x20 PUSH1 0x1F DUP5 ADD DUP2 SWAP1 DIV DUP4 ADD SWAP4 LT PUSH3 0x29A JUMPI JUMPDEST PUSH1 0x20 PUSH1 0x1F SWAP1 SWAP2 ADD DIV ADD SWAP1 PUSH3 0x22F JUMP JUMPDEST SWAP1 SWAP2 POP DUP2 SWAP1 PUSH3 0x28A JUMP JUMPDEST SWAP1 PUSH3 0x2AF DUP2 MLOAD SWAP1 JUMP JUMPDEST SWAP1 PUSH1 0x1 PUSH1 0x1 PUSH1 0x40 SHL SUB DUP3 GT PUSH3 0x6E JUMPI PUSH3 0x2D7 DUP3 PUSH3 0x2D0 DUP6 SLOAD PUSH3 0x1B2 JUMP JUMPDEST DUP6 PUSH3 0x252 JUMP JUMPDEST PUSH1 0x20 SWAP1 PUSH1 0x1F DUP4 GT PUSH1 0x1 EQ PUSH3 0x316 JUMPI PUSH3 0x21D SWAP3 SWAP2 PUSH1 0x0 SWAP2 DUP4 PUSH3 0x30A JUMPI JUMPDEST POP POP PUSH1 0x0 NOT PUSH1 0x8 DUP4 MUL SHR NOT AND SWAP1 PUSH1 0x2 MUL OR SWAP1 JUMP JUMPDEST ADD MLOAD SWAP1 POP CODESIZE DUP1 PUSH3 0x2F6 JUMP JUMPDEST PUSH1 0x1F NOT DUP4 AND SWAP2 PUSH3 0x32C DUP6 PUSH1 0x0 MSTORE PUSH1 0x20 PUSH1 0x0 KECCAK256 SWAP1 JUMP JUMPDEST SWAP3 PUSH1 0x0 JUMPDEST DUP2 DUP2 LT PUSH3 0x36D JUMPI POP SWAP2 PUSH1 0x2 SWAP4 SWAP2 DUP6 PUSH1 0x1 SWAP7 SWAP5 LT PUSH3 0x353 JUMPI JUMPDEST POP POP POP MUL ADD SWAP1 SSTORE JUMP JUMPDEST ADD MLOAD PUSH1 0x0 NOT PUSH1 0x8 PUSH1 0x1F DUP6 AND MUL SHR NOT AND SWAP1 SSTORE CODESIZE DUP1 DUP1 PUSH3 0x34A JUMP JUMPDEST SWAP2 SWAP4 PUSH1 0x20 PUSH1 0x1 DUP2 SWAP3 DUP8 DUP8 ADD MLOAD DUP2 SSTORE ADD SWAP6 ADD SWAP3 ADD PUSH3 0x330 JUMP JUMPDEST SWAP1 PUSH3 0x8B SWAP2 PUSH3 0x2A5 JUMP JUMPDEST SWAP1 PUSH3 0x3A4 PUSH3 0x8B SWAP3 PUSH1 0x0 PUSH3 0x386 JUMP JUMPDEST PUSH1 0x1 PUSH3 0x386 JUMP INVALID PUSH1 0x80 PUSH1 0x40 MSTORE PUSH1 0x4 CALLDATASIZE LT ISZERO PUSH2 0x12 JUMPI PUSH1 0x0 DUP1 REVERT JUMPDEST PUSH1 0x0 CALLDATALOAD PUSH1 0xE0 SHR DUP1 PUSH3 0xFDD58E EQ PUSH2 0xE1 JUMPI DUP1 PUSH4 0x1FFC9A7 EQ PUSH2 0xDC JUMPI DUP1 PUSH4 0x6FDDE03 EQ PUSH2 0xD7 JUMPI DUP1 PUSH4 0xE89341C EQ PUSH2 0xD2 JUMPI DUP1 PUSH4 0x2CA6F4DA EQ PUSH2 0xCD JUMPI DUP1 PUSH4 0x2EB2C2D6 EQ PUSH2 0xC8 JUMPI DUP1 PUSH4 0x4E1273F4 EQ PUSH2 0xC3 JUMPI DUP1 PUSH4 0x95D89B41 EQ PUSH2 0xBE JUMPI DUP1 PUSH4 0xA22CB465 EQ PUSH2 0xB9 JUMPI DUP1 PUSH4 0xE985E9C5 EQ PUSH2 0xB4 JUMPI DUP1 PUSH4 0xEDC3BC3F EQ PUSH2 0xAF JUMPI DUP1 PUSH4 0xF242432A EQ PUSH2 0xAA JUMPI PUSH4 0xFC25A4DA SUB PUSH2 0x107 JUMPI PUSH2 0x9AA JUMP JUMPDEST PUSH2 0x91A JUMP JUMPDEST PUSH2 0x89A JUMP JUMPDEST PUSH2 0x808 JUMP JUMPDEST PUSH2 0x7CC JUMP JUMPDEST PUSH2 0x779 JUMP JUMPDEST PUSH2 0x745 JUMP JUMPDEST PUSH2 0x60C JUMP JUMPDEST PUSH2 0x4E7 JUMP JUMPDEST PUSH2 0x3F5 JUMP JUMPDEST PUSH2 0x3BA JUMP JUMPDEST PUSH2 0x1B2 JUMP JUMPDEST PUSH2 0x151 JUMP JUMPDEST PUSH1 0x1 PUSH1 0x1 PUSH1 0xA0 SHL SUB AND SWAP1 JUMP JUMPDEST SWAP1 JUMP JUMPDEST PUSH1 0x1 PUSH1 0x1 PUSH1 0xA0 SHL SUB DUP2 AND JUMPDEST SUB PUSH2 0x107 JUMPI JUMP JUMPDEST PUSH1 0x0 DUP1 REVERT JUMPDEST SWAP1 POP CALLDATALOAD SWAP1 PUSH2 0x119 DUP3 PUSH2 0xF5 JUMP JUMPDEST JUMP JUMPDEST DUP1 PUSH2 0x100 JUMP JUMPDEST SWAP1 POP CALLDATALOAD SWAP1 PUSH2 0x119 DUP3 PUSH2 0x11B JUMP JUMPDEST SWAP2 SWAP1 PUSH1 0x40 DUP4 DUP3 SUB SLT PUSH2 0x107 JUMPI PUSH2 0xF2 SWAP1 PUSH1 0x20 PUSH2 0x14A DUP3 DUP7 PUSH2 0x10C JUMP JUMPDEST SWAP5 ADD PUSH2 0x121 JUMP JUMPDEST CALLVALUE PUSH2 0x107 JUMPI PUSH2 0x17D PUSH2 0x16D PUSH2 0x167 CALLDATASIZE PUSH1 0x4 PUSH2 0x12E JUMP JUMPDEST SWAP1 PUSH2 0xA50 JUMP JUMPDEST PUSH1 0x40 MLOAD SWAP2 DUP3 SWAP2 DUP3 SWAP1 DUP2 MSTORE PUSH1 0x20 ADD SWAP1 JUMP JUMPDEST SUB SWAP1 RETURN JUMPDEST PUSH1 0x1 PUSH1 0x1 PUSH1 0xE0 SHL SUB NOT DUP2 AND PUSH2 0x100 JUMP JUMPDEST SWAP1 POP CALLDATALOAD SWAP1 PUSH2 0x119 DUP3 PUSH2 0x181 JUMP JUMPDEST SWAP1 PUSH1 0x20 DUP3 DUP3 SUB SLT PUSH2 0x107 JUMPI PUSH2 0xF2 SWAP2 PUSH2 0x191 JUMP JUMPDEST CALLVALUE PUSH2 0x107 JUMPI PUSH2 0x17D PUSH2 0x1CD PUSH2 0x1C8 CALLDATASIZE PUSH1 0x4 PUSH2 0x19E JUMP JUMPDEST PUSH2 0xA91 JUMP JUMPDEST PUSH1 0x40 MLOAD JUMPDEST SWAP2 DUP3 SWAP2 DUP3 SWAP1 ISZERO ISZERO DUP2 MSTORE PUSH1 0x20 ADD SWAP1 JUMP JUMPDEST PUSH1 0x0 SWAP2 SUB SLT PUSH2 0x107 JUMPI JUMP JUMPDEST PUSH4 0x4E487B71 PUSH1 0xE0 SHL PUSH1 0x0 MSTORE PUSH1 0x0 PUSH1 0x4 MSTORE PUSH1 0x24 PUSH1 0x0 REVERT JUMPDEST PUSH4 0x4E487B71 PUSH1 0xE0 SHL PUSH1 0x0 MSTORE PUSH1 0x22 PUSH1 0x4 MSTORE PUSH1 0x24 PUSH1 0x0 REVERT JUMPDEST SWAP1 PUSH1 0x1 PUSH1 0x2 DUP4 DIV SWAP3 AND DUP1 ISZERO PUSH2 0x237 JUMPI JUMPDEST PUSH1 0x20 DUP4 LT EQ PUSH2 0x232 JUMPI JUMP JUMPDEST PUSH2 0x201 JUMP JUMPDEST SWAP2 PUSH1 0x7F AND SWAP2 PUSH2 0x227 JUMP JUMPDEST DUP1 SLOAD PUSH1 0x0 SWAP4 SWAP3 SWAP2 PUSH2 0x25E PUSH2 0x254 DUP4 PUSH2 0x217 JUMP JUMPDEST DUP1 DUP6 MSTORE SWAP4 PUSH1 0x20 ADD SWAP1 JUMP JUMPDEST SWAP2 PUSH1 0x1 DUP2 AND SWAP1 DUP2 ISZERO PUSH2 0x2B0 JUMPI POP PUSH1 0x1 EQ PUSH2 0x277 JUMPI POP POP POP JUMP JUMPDEST PUSH2 0x28A SWAP2 SWAP3 SWAP4 SWAP5 POP PUSH1 0x0 MSTORE PUSH1 0x20 PUSH1 0x0 KECCAK256 SWAP1 JUMP JUMPDEST SWAP2 PUSH1 0x0 SWAP3 JUMPDEST DUP2 DUP5 LT PUSH2 0x29C JUMPI POP POP ADD SWAP1 JUMP JUMPDEST DUP1 SLOAD DUP5 DUP5 ADD MSTORE PUSH1 0x20 SWAP1 SWAP4 ADD SWAP3 PUSH1 0x1 ADD PUSH2 0x28F JUMP JUMPDEST SWAP3 SWAP5 SWAP6 POP POP POP PUSH1 0xFF NOT AND DUP3 MSTORE ISZERO ISZERO PUSH1 0x20 MUL ADD SWAP1 JUMP JUMPDEST SWAP1 PUSH2 0xF2 SWAP2 PUSH2 0x241 JUMP JUMPDEST PUSH4 0x4E487B71 PUSH1 0xE0 SHL PUSH1 0x0 MSTORE PUSH1 0x41 PUSH1 0x4 MSTORE PUSH1 0x24 PUSH1 0x0 REVERT JUMPDEST SWAP1 PUSH1 0x1F ADD PUSH1 0x1F NOT AND DUP2 ADD SWAP1 DUP2 LT PUSH8 0xFFFFFFFFFFFFFFFF DUP3 GT OR PUSH2 0x307 JUMPI PUSH1 0x40 MSTORE JUMP JUMPDEST PUSH2 0x2CF JUMP JUMPDEST SWAP1 PUSH2 0x119 PUSH2 0x326 SWAP3 PUSH2 0x31D PUSH1 0x40 MLOAD SWAP1 JUMP JUMPDEST SWAP4 DUP5 DUP1 SWAP3 PUSH2 0x2C5 JUMP JUMPDEST SUB DUP4 PUSH2 0x2E5 JUMP JUMPDEST SWAP1 PUSH1 0x0 LT PUSH2 0x33E JUMPI PUSH2 0xF2 SWAP1 PUSH2 0x30C JUMP JUMPDEST PUSH2 0x1EB JUMP JUMPDEST PUSH2 0xF2 PUSH1 0x0 DUP1 PUSH2 0x32D JUMP JUMPDEST PUSH1 0x0 JUMPDEST DUP4 DUP2 LT PUSH2 0x361 JUMPI POP POP PUSH1 0x0 SWAP2 ADD MSTORE JUMP JUMPDEST DUP2 DUP2 ADD MLOAD DUP4 DUP3 ADD MSTORE PUSH1 0x20 ADD PUSH2 0x351 JUMP JUMPDEST PUSH2 0x392 PUSH2 0x39B PUSH1 0x20 SWAP4 PUSH2 0x3A5 SWAP4 PUSH2 0x386 DUP2 MLOAD SWAP1 JUMP JUMPDEST DUP1 DUP4 MSTORE SWAP4 DUP5 SWAP3 PUSH1 0x20 ADD SWAP1 JUMP JUMPDEST SWAP6 DUP7 SWAP2 ADD PUSH2 0x34E JUMP JUMPDEST PUSH1 0x1F ADD PUSH1 0x1F NOT AND SWAP1 JUMP JUMPDEST ADD SWAP1 JUMP JUMPDEST PUSH1 0x20 DUP1 DUP3 MSTORE PUSH2 0xF2 SWAP3 SWAP2 ADD SWAP1 PUSH2 0x371 JUMP JUMPDEST CALLVALUE PUSH2 0x107 JUMPI PUSH2 0x3CA CALLDATASIZE PUSH1 0x4 PUSH2 0x1E0 JUMP JUMPDEST PUSH2 0x17D PUSH2 0x3D5 PUSH2 0x343 JUMP JUMPDEST PUSH1 0x40 MLOAD SWAP2 DUP3 SWAP2 DUP3 PUSH2 0x3A9 JUMP JUMPDEST SWAP1 PUSH1 0x20 DUP3 DUP3 SUB SLT PUSH2 0x107 JUMPI PUSH2 0xF2 SWAP2 PUSH2 0x121 JUMP JUMPDEST CALLVALUE PUSH2 0x107 JUMPI PUSH2 0x17D PUSH2 0x3D5 PUSH2 0x40B CALLDATASIZE PUSH1 0x4 PUSH2 0x3E1 JUMP JUMPDEST PUSH2 0xB4B JUMP JUMPDEST SWAP1 PUSH2 0x119 PUSH2 0x41D PUSH1 0x40 MLOAD SWAP1 JUMP JUMPDEST SWAP3 DUP4 PUSH2 0x2E5 JUMP JUMPDEST PUSH8 0xFFFFFFFFFFFFFFFF DUP2 GT PUSH2 0x307 JUMPI PUSH1 0x20 SWAP1 PUSH1 0x1F ADD PUSH1 0x1F NOT AND ADD SWAP1 JUMP JUMPDEST SWAP1 DUP3 PUSH1 0x0 SWAP4 SWAP3 DUP3 CALLDATACOPY ADD MSTORE JUMP JUMPDEST SWAP1 SWAP3 SWAP2 SWAP3 PUSH2 0x462 PUSH2 0x45D DUP3 PUSH2 0x424 JUMP JUMPDEST PUSH2 0x410 JUMP JUMPDEST SWAP4 DUP2 DUP6 MSTORE DUP2 DUP4 ADD GT PUSH2 0x107 JUMPI PUSH2 0x119 SWAP2 PUSH1 0x20 DUP6 ADD SWAP1 PUSH2 0x441 JUMP JUMPDEST SWAP1 DUP1 PUSH1 0x1F DUP4 ADD SLT ISZERO PUSH2 0x107 JUMPI DUP2 PUSH1 0x20 PUSH2 0xF2 SWAP4 CALLDATALOAD SWAP2 ADD PUSH2 0x44D JUMP JUMPDEST SWAP1 PUSH1 0x80 DUP3 DUP3 SUB SLT PUSH2 0x107 JUMPI PUSH2 0x4AC DUP2 DUP4 PUSH2 0x10C JUMP JUMPDEST SWAP3 PUSH2 0x4BA DUP3 PUSH1 0x20 DUP6 ADD PUSH2 0x121 JUMP JUMPDEST SWAP3 PUSH2 0x4C8 DUP4 PUSH1 0x40 DUP4 ADD PUSH2 0x121 JUMP JUMPDEST SWAP3 PUSH1 0x60 DUP3 ADD CALLDATALOAD PUSH8 0xFFFFFFFFFFFFFFFF DUP2 GT PUSH2 0x107 JUMPI PUSH2 0xF2 SWAP3 ADD PUSH2 0x47C JUMP JUMPDEST CALLVALUE PUSH2 0x107 JUMPI PUSH2 0x17D PUSH2 0x16D PUSH2 0x4FD CALLDATASIZE PUSH1 0x4 PUSH2 0x497 JUMP JUMPDEST SWAP3 SWAP2 SWAP1 SWAP2 PUSH2 0xC69 JUMP JUMPDEST PUSH8 0xFFFFFFFFFFFFFFFF DUP2 GT PUSH2 0x307 JUMPI PUSH1 0x20 DUP1 SWAP2 MUL ADD SWAP1 JUMP JUMPDEST SWAP1 SWAP3 SWAP2 SWAP3 PUSH2 0x52E PUSH2 0x45D DUP3 PUSH2 0x506 JUMP JUMPDEST SWAP4 DUP2 DUP6 MSTORE PUSH1 0x20 DUP1 DUP7 ADD SWAP3 MUL DUP4 ADD SWAP3 DUP2 DUP5 GT PUSH2 0x107 JUMPI SWAP2 JUMPDEST DUP4 DUP4 LT PUSH2 0x552 JUMPI POP POP POP POP JUMP JUMPDEST PUSH1 0x20 DUP1 SWAP2 PUSH2 0x560 DUP5 DUP7 PUSH2 0x121 JUMP JUMPDEST DUP2 MSTORE ADD SWAP3 ADD SWAP2 PUSH2 0x545 JUMP JUMPDEST SWAP1 DUP1 PUSH1 0x1F DUP4 ADD SLT ISZERO PUSH2 0x107 JUMPI DUP2 PUSH1 0x20 PUSH2 0xF2 SWAP4 CALLDATALOAD SWAP2 ADD PUSH2 0x51E JUMP JUMPDEST SWAP2 SWAP1 SWAP2 PUSH1 0xA0 DUP2 DUP5 SUB SLT PUSH2 0x107 JUMPI PUSH2 0x59D DUP4 DUP3 PUSH2 0x10C JUMP JUMPDEST SWAP3 PUSH2 0x5AB DUP2 PUSH1 0x20 DUP5 ADD PUSH2 0x10C JUMP JUMPDEST SWAP3 PUSH1 0x40 DUP4 ADD CALLDATALOAD PUSH8 0xFFFFFFFFFFFFFFFF DUP2 GT PUSH2 0x107 JUMPI DUP3 PUSH2 0x5CC SWAP2 DUP6 ADD PUSH2 0x56B JUMP JUMPDEST SWAP3 PUSH1 0x60 DUP2 ADD CALLDATALOAD PUSH8 0xFFFFFFFFFFFFFFFF DUP2 GT PUSH2 0x107 JUMPI DUP4 PUSH2 0x5ED SWAP2 DUP4 ADD PUSH2 0x56B JUMP JUMPDEST SWAP3 PUSH1 0x80 DUP3 ADD CALLDATALOAD PUSH8 0xFFFFFFFFFFFFFFFF DUP2 GT PUSH2 0x107 JUMPI PUSH2 0xF2 SWAP3 ADD PUSH2 0x47C JUMP JUMPDEST CALLVALUE PUSH2 0x107 JUMPI PUSH2 0x628 PUSH2 0x61F CALLDATASIZE PUSH1 0x4 PUSH2 0x586 JUMP JUMPDEST SWAP4 SWAP3 SWAP1 SWAP3 PUSH2 0xF06 JUMP JUMPDEST PUSH1 0x40 MLOAD STOP JUMPDEST SWAP1 SWAP3 SWAP2 SWAP3 PUSH2 0x63D PUSH2 0x45D DUP3 PUSH2 0x506 JUMP JUMPDEST SWAP4 DUP2 DUP6 MSTORE PUSH1 0x20 DUP1 DUP7 ADD SWAP3 MUL DUP4 ADD SWAP3 DUP2 DUP5 GT PUSH2 0x107 JUMPI SWAP2 JUMPDEST DUP4 DUP4 LT PUSH2 0x661 JUMPI POP POP POP POP JUMP JUMPDEST PUSH1 0x20 DUP1 SWAP2 PUSH2 0x66F DUP5 DUP7 PUSH2 0x10C JUMP JUMPDEST DUP2 MSTORE ADD SWAP3 ADD SWAP2 PUSH2 0x654 JUMP JUMPDEST SWAP1 DUP1 PUSH1 0x1F DUP4 ADD SLT ISZERO PUSH2 0x107 JUMPI DUP2 PUSH1 0x20 PUSH2 0xF2 SWAP4 CALLDATALOAD SWAP2 ADD PUSH2 0x62D JUMP JUMPDEST SWAP2 SWAP1 SWAP2 PUSH1 0x40 DUP2 DUP5 SUB SLT PUSH2 0x107 JUMPI DUP1 CALLDATALOAD PUSH8 0xFFFFFFFFFFFFFFFF DUP2 GT PUSH2 0x107 JUMPI DUP4 PUSH2 0x6BF SWAP2 DUP4 ADD PUSH2 0x67A JUMP JUMPDEST SWAP3 PUSH1 0x20 DUP3 ADD CALLDATALOAD PUSH8 0xFFFFFFFFFFFFFFFF DUP2 GT PUSH2 0x107 JUMPI PUSH2 0xF2 SWAP3 ADD PUSH2 0x56B JUMP JUMPDEST SWAP1 PUSH2 0x6FE PUSH2 0x6F7 PUSH2 0x6ED DUP5 MLOAD SWAP1 JUMP JUMPDEST DUP1 DUP5 MSTORE SWAP3 PUSH1 0x20 ADD SWAP1 JUMP JUMPDEST SWAP3 PUSH1 0x20 ADD SWAP1 JUMP JUMPDEST SWAP1 PUSH1 0x0 JUMPDEST DUP2 DUP2 LT PUSH2 0x70F JUMPI POP POP POP SWAP1 JUMP JUMPDEST SWAP1 SWAP2 SWAP3 PUSH2 0x72C PUSH2 0x725 PUSH1 0x1 SWAP3 DUP7 MLOAD DUP2 MSTORE PUSH1 0x20 ADD SWAP1 JUMP JUMPDEST SWAP5 PUSH1 0x20 ADD SWAP1 JUMP JUMPDEST SWAP3 SWAP2 ADD PUSH2 0x702 JUMP JUMPDEST PUSH1 0x20 DUP1 DUP3 MSTORE PUSH2 0xF2 SWAP3 SWAP2 ADD SWAP1 PUSH2 0x6DE JUMP JUMPDEST CALLVALUE PUSH2 0x107 JUMPI PUSH2 0x17D PUSH2 0x761 PUSH2 0x75B CALLDATASIZE PUSH1 0x4 PUSH2 0x695 JUMP JUMPDEST SWAP1 PUSH2 0x1119 JUMP JUMPDEST PUSH1 0x40 MLOAD SWAP2 DUP3 SWAP2 DUP3 PUSH2 0x734 JUMP JUMPDEST PUSH2 0xF2 PUSH1 0x0 PUSH1 0x1 PUSH2 0x32D JUMP JUMPDEST CALLVALUE PUSH2 0x107 JUMPI PUSH2 0x789 CALLDATASIZE PUSH1 0x4 PUSH2 0x1E0 JUMP JUMPDEST PUSH2 0x17D PUSH2 0x3D5 PUSH2 0x76D JUMP JUMPDEST DUP1 ISZERO ISZERO PUSH2 0x100 JUMP JUMPDEST SWAP1 POP CALLDATALOAD SWAP1 PUSH2 0x119 DUP3 PUSH2 0x794 JUMP JUMPDEST SWAP2 SWAP1 PUSH1 0x40 DUP4 DUP3 SUB SLT PUSH2 0x107 JUMPI PUSH2 0xF2 SWAP1 PUSH1 0x20 PUSH2 0x7C5 DUP3 DUP7 PUSH2 0x10C JUMP JUMPDEST SWAP5 ADD PUSH2 0x79C JUMP JUMPDEST CALLVALUE PUSH2 0x107 JUMPI PUSH2 0x628 PUSH2 0x7DF CALLDATASIZE PUSH1 0x4 PUSH2 0x7A9 JUMP JUMPDEST SWAP1 PUSH2 0x122D JUMP JUMPDEST SWAP2 SWAP1 PUSH1 0x40 DUP4 DUP3 SUB SLT PUSH2 0x107 JUMPI PUSH2 0xF2 SWAP1 PUSH1 0x20 PUSH2 0x801 DUP3 DUP7 PUSH2 0x10C JUMP JUMPDEST SWAP5 ADD PUSH2 0x10C JUMP JUMPDEST CALLVALUE PUSH2 0x107 JUMPI PUSH2 0x17D PUSH2 0x1CD PUSH2 0x81E CALLDATASIZE PUSH1 0x4 PUSH2 0x7E5 JUMP JUMPDEST SWAP1 PUSH2 0x12B2 JUMP JUMPDEST PUSH2 0xF2 SWAP1 PUSH2 0xE6 SWAP1 PUSH1 0x1 PUSH1 0x1 PUSH1 0xA0 SHL SUB AND DUP3 JUMP JUMPDEST PUSH2 0xF2 SWAP1 PUSH2 0x824 JUMP JUMPDEST PUSH2 0xF2 SWAP1 PUSH2 0x838 JUMP JUMPDEST SWAP1 PUSH2 0x854 SWAP1 PUSH2 0x841 JUMP JUMPDEST PUSH1 0x0 MSTORE PUSH1 0x20 MSTORE PUSH1 0x40 PUSH1 0x0 KECCAK256 SWAP1 JUMP JUMPDEST PUSH2 0xF2 SWAP2 PUSH1 0x8 MUL SHR JUMPDEST PUSH1 0xFF AND SWAP1 JUMP JUMPDEST SWAP1 PUSH2 0xF2 SWAP2 SLOAD PUSH2 0x862 JUMP JUMPDEST PUSH2 0x895 PUSH2 0xF2 SWAP3 PUSH2 0x890 PUSH1 0x0 SWAP4 PUSH1 0x3 PUSH2 0x84A JUMP JUMPDEST PUSH2 0x84A JUMP JUMPDEST PUSH2 0x871 JUMP JUMPDEST CALLVALUE PUSH2 0x107 JUMPI PUSH2 0x17D PUSH2 0x1CD PUSH2 0x8B0 CALLDATASIZE PUSH1 0x4 PUSH2 0x7E5 JUMP JUMPDEST SWAP1 PUSH2 0x87C JUMP JUMPDEST SWAP2 SWAP1 SWAP2 PUSH1 0xA0 DUP2 DUP5 SUB SLT PUSH2 0x107 JUMPI PUSH2 0x8CD DUP4 DUP3 PUSH2 0x10C JUMP JUMPDEST SWAP3 PUSH2 0x8DB DUP2 PUSH1 0x20 DUP5 ADD PUSH2 0x10C JUMP JUMPDEST SWAP3 PUSH2 0x8E9 DUP3 PUSH1 0x40 DUP6 ADD PUSH2 0x121 JUMP JUMPDEST SWAP3 PUSH2 0x5ED DUP4 PUSH1 0x60 DUP4 ADD PUSH2 0x121 JUMP JUMPDEST SWAP1 DUP2 MSTORE PUSH1 0x1 PUSH1 0x1 PUSH1 0xA0 SHL SUB SWAP1 SWAP2 AND PUSH1 0x20 DUP3 ADD MSTORE PUSH1 0x60 DUP2 ADD SWAP3 SWAP2 PUSH2 0x119 SWAP2 PUSH1 0x40 ADD MSTORE JUMP JUMPDEST CALLVALUE PUSH2 0x107 JUMPI PUSH2 0x17D PUSH2 0x939 PUSH2 0x930 CALLDATASIZE PUSH1 0x4 PUSH2 0x8B6 JUMP JUMPDEST SWAP4 SWAP3 SWAP1 SWAP3 PUSH2 0x12D2 JUMP JUMPDEST PUSH1 0x40 MLOAD SWAP2 SWAP4 SWAP2 SWAP4 DUP5 SWAP4 DUP5 PUSH2 0x8F7 JUMP JUMPDEST SWAP2 SWAP1 PUSH1 0x40 DUP4 DUP3 SUB SLT PUSH2 0x107 JUMPI PUSH2 0xF2 SWAP1 PUSH1 0x20 PUSH2 0x801 DUP3 DUP7 PUSH2 0x121 JUMP JUMPDEST PUSH2 0xF2 PUSH2 0xF2 PUSH2 0xF2 SWAP3 SWAP1 JUMP JUMPDEST SWAP1 PUSH2 0x854 SWAP1 PUSH2 0x964 JUMP JUMPDEST PUSH2 0xF2 SWAP2 PUSH1 0x8 MUL SHR DUP2 JUMP JUMPDEST SWAP1 PUSH2 0xF2 SWAP2 SLOAD PUSH2 0x97B JUMP JUMPDEST PUSH2 0x9A5 PUSH2 0xF2 SWAP3 PUSH2 0x890 PUSH1 0x0 SWAP4 PUSH1 0x2 PUSH2 0x971 JUMP JUMPDEST PUSH2 0x986 JUMP JUMPDEST CALLVALUE PUSH2 0x107 JUMPI PUSH2 0x17D PUSH2 0x16D PUSH2 0x9C0 CALLDATASIZE PUSH1 0x4 PUSH2 0x948 JUMP JUMPDEST SWAP1 PUSH2 0x991 JUMP JUMPDEST PUSH2 0xE6 PUSH2 0xF2 PUSH2 0xF2 SWAP3 SWAP1 JUMP JUMPDEST PUSH2 0xF2 SWAP1 PUSH2 0x9C6 JUMP JUMPDEST ISZERO PUSH2 0x9E3 JUMPI JUMP JUMPDEST PUSH1 0x40 MLOAD PUSH3 0x461BCD PUSH1 0xE5 SHL DUP2 MSTORE PUSH1 0x20 PUSH1 0x4 DUP3 ADD MSTORE PUSH1 0x2A PUSH1 0x24 DUP3 ADD MSTORE PUSH32 0x455243313135353A2061646472657373207A65726F206973206E6F7420612076 PUSH1 0x44 DUP3 ADD MSTORE PUSH10 0x30B634B21037BBB732B9 PUSH1 0xB1 SHL PUSH1 0x64 DUP3 ADD MSTORE PUSH1 0x84 SWAP1 REVERT JUMPDEST SUB SWAP1 REVERT JUMPDEST PUSH2 0xF2 SWAP1 DUP2 JUMP JUMPDEST PUSH2 0xF2 SWAP1 SLOAD PUSH2 0xA3F JUMP JUMPDEST PUSH2 0xA8C SWAP1 PUSH2 0x890 PUSH2 0xF2 SWAP4 PUSH2 0xA63 PUSH1 0x0 SWAP1 JUMP JUMPDEST POP PUSH2 0xA85 PUSH2 0xA74 PUSH2 0xE6 PUSH1 0x0 PUSH2 0x9D3 JUMP JUMPDEST PUSH1 0x1 PUSH1 0x1 PUSH1 0xA0 SHL SUB DUP6 AND EQ ISZERO PUSH2 0x9DC JUMP JUMPDEST PUSH1 0x2 PUSH2 0x971 JUMP JUMPDEST PUSH2 0xA46 JUMP JUMPDEST PUSH4 0x6CDB3D13 PUSH1 0xE1 SHL PUSH1 0x1 PUSH1 0x1 PUSH1 0xE0 SHL SUB NOT DUP3 AND EQ SWAP1 DUP2 ISZERO PUSH2 0xAD7 JUMPI JUMPDEST DUP2 ISZERO PUSH2 0xAB7 JUMPI POP SWAP1 JUMP JUMPDEST SWAP1 POP PUSH2 0xAD3 PUSH4 0x1FFC9A7 PUSH1 0xE0 SHL JUMPDEST SWAP2 PUSH1 0x1 PUSH1 0x1 PUSH1 0xE0 SHL SUB NOT AND SWAP1 JUMP JUMPDEST EQ SWAP1 JUMP JUMPDEST PUSH1 0x1 PUSH1 0x1 PUSH1 0xE0 SHL SUB NOT DUP2 AND PUSH4 0x3A24D07 PUSH1 0xE2 SHL EQ SWAP2 POP PUSH2 0xAAD JUMP JUMPDEST SWAP1 PUSH2 0xAFF PUSH2 0x45D DUP4 PUSH2 0x424 JUMP JUMPDEST SWAP2 DUP3 MSTORE JUMP JUMPDEST PUSH2 0xF2 PUSH1 0x0 PUSH2 0xAF2 JUMP JUMPDEST PUSH2 0xF2 PUSH2 0xB04 JUMP JUMPDEST PUSH2 0x3A5 PUSH2 0xB2E SWAP3 PUSH1 0x20 SWAP3 PUSH2 0xB28 DUP2 MLOAD SWAP1 JUMP JUMPDEST SWAP5 DUP6 SWAP3 SWAP1 JUMP JUMPDEST SWAP4 DUP5 SWAP2 ADD PUSH2 0x34E JUMP JUMPDEST PUSH2 0xB45 SWAP1 PUSH2 0xF2 SWAP4 SWAP3 PUSH2 0xB16 JUMP JUMPDEST SWAP1 PUSH2 0xB16 JUMP JUMPDEST PUSH2 0xB53 PUSH2 0x1426 JUMP JUMPDEST DUP1 MLOAD PUSH2 0xB66 PUSH2 0xB62 PUSH1 0x0 PUSH2 0x964 JUMP JUMPDEST SWAP2 SWAP1 JUMP JUMPDEST GT ISZERO PUSH2 0xBA3 JUMPI PUSH2 0xF2 PUSH2 0xB97 SWAP2 PUSH2 0xB7F PUSH2 0xF2 SWAP5 PUSH2 0x14F5 JUMP JUMPDEST SWAP1 PUSH2 0xB89 PUSH1 0x40 MLOAD SWAP1 JUMP JUMPDEST SWAP4 DUP5 SWAP3 PUSH1 0x20 DUP5 ADD SWAP3 DUP4 PUSH2 0xB37 JUMP JUMPDEST SWAP1 DUP2 SUB DUP3 MSTORE SUB DUP3 PUSH2 0x2E5 JUMP JUMPDEST POP POP PUSH2 0xF2 PUSH2 0xB0E JUMP JUMPDEST ISZERO PUSH2 0xBB4 JUMPI JUMP JUMPDEST PUSH1 0x40 MLOAD PUSH3 0x461BCD PUSH1 0xE5 SHL DUP2 MSTORE PUSH1 0x20 PUSH1 0x4 DUP3 ADD MSTORE PUSH1 0x21 PUSH1 0x24 DUP3 ADD MSTORE PUSH32 0x455243313135353A206D696E7420746F20746865207A65726F20616464726573 PUSH1 0x44 DUP3 ADD MSTORE PUSH1 0x73 PUSH1 0xF8 SHL PUSH1 0x64 DUP3 ADD MSTORE PUSH1 0x84 SWAP1 REVERT JUMPDEST PUSH4 0x4E487B71 PUSH1 0xE0 SHL PUSH1 0x0 MSTORE PUSH1 0x11 PUSH1 0x4 MSTORE PUSH1 0x24 PUSH1 0x0 REVERT JUMPDEST SWAP2 SWAP1 DUP3 ADD DUP1 SWAP3 GT PUSH2 0xC26 JUMPI JUMP JUMPDEST PUSH2 0xC03 JUMP JUMPDEST SWAP1 PUSH1 0x0 NOT SWAP1 JUMPDEST SWAP2 DUP2 NOT AND SWAP2 AND OR SWAP1 JUMP JUMPDEST SWAP1 PUSH2 0xC4B PUSH2 0xF2 PUSH2 0xC52 SWAP3 PUSH2 0x964 JUMP JUMPDEST DUP3 SLOAD PUSH2 0xC2B JUMP JUMPDEST SWAP1 SSTORE JUMP JUMPDEST SWAP1 DUP2 MSTORE PUSH1 0x40 DUP2 ADD SWAP3 SWAP2 PUSH2 0x119 SWAP2 PUSH1 0x20 ADD MSTORE JUMP JUMPDEST SWAP4 SWAP3 PUSH2 0x119 SWAP3 SWAP1 SWAP2 PUSH2 0xC7B PUSH1 0x0 PUSH2 0x9D3 JUMP JUMPDEST SWAP6 PUSH2 0xC9A PUSH1 0x1 PUSH1 0x1 PUSH1 0xA0 SHL SUB DUP9 AND PUSH1 0x1 PUSH1 0x1 PUSH1 0xA0 SHL SUB DUP4 AND EQ ISZERO PUSH2 0xBAD JUMP JUMPDEST PUSH2 0xCC4 PUSH2 0xCAC DUP3 PUSH2 0x890 DUP6 PUSH1 0x2 PUSH2 0x971 JUMP JUMPDEST PUSH2 0xCBE DUP6 PUSH2 0xCB9 DUP4 PUSH2 0xA46 JUMP JUMPDEST PUSH2 0xC19 JUMP JUMPDEST SWAP1 PUSH2 0xC3B JUMP JUMPDEST PUSH2 0xCD6 PUSH2 0xA8C DUP3 PUSH2 0x890 DUP6 PUSH1 0x2 PUSH2 0x971 JUMP JUMPDEST SWAP7 PUSH2 0xCE0 CALLER PUSH2 0x841 JUMP JUMPDEST PUSH2 0xCE9 DUP3 PUSH2 0x841 JUMP JUMPDEST PUSH2 0xCF2 DUP5 PUSH2 0x841 JUMP JUMPDEST SWAP2 PUSH32 0xC3D58168C5AE7397731D063D5BBF3D657854427343F4C083240F7AACAA2D0F62 PUSH2 0xD1D PUSH1 0x40 MLOAD SWAP1 JUMP JUMPDEST DUP1 PUSH2 0xD29 DUP11 DUP11 DUP4 PUSH2 0xC56 JUMP JUMPDEST SUB SWAP1 LOG4 CALLER PUSH2 0x16DF JUMP JUMPDEST ISZERO PUSH2 0xD39 JUMPI JUMP JUMPDEST PUSH1 0x40 MLOAD PUSH3 0x461BCD PUSH1 0xE5 SHL DUP2 MSTORE PUSH1 0x20 PUSH1 0x4 DUP3 ADD MSTORE PUSH1 0x2F PUSH1 0x24 DUP3 ADD MSTORE PUSH32 0x455243313135353A2063616C6C6572206973206E6F7420746F6B656E206F776E PUSH1 0x44 DUP3 ADD MSTORE PUSH15 0x195C881B9BDC88185C1C1C9BDD9959 PUSH1 0x8A SHL PUSH1 0x64 DUP3 ADD MSTORE PUSH1 0x84 SWAP1 REVERT JUMPDEST ISZERO PUSH2 0xD9D JUMPI JUMP JUMPDEST PUSH1 0x40 MLOAD PUSH3 0x461BCD PUSH1 0xE5 SHL DUP2 MSTORE PUSH1 0x20 PUSH1 0x4 DUP3 ADD MSTORE PUSH1 0x28 PUSH1 0x24 DUP3 ADD MSTORE PUSH32 0x455243313135353A2069647320616E6420616D6F756E7473206C656E67746820 PUSH1 0x44 DUP3 ADD MSTORE PUSH8 0xDAD2E6DAC2E8C6D PUSH1 0xC3 SHL PUSH1 0x64 DUP3 ADD MSTORE PUSH1 0x84 SWAP1 REVERT JUMPDEST ISZERO PUSH2 0xDFA JUMPI JUMP JUMPDEST PUSH1 0x40 MLOAD PUSH3 0x461BCD PUSH1 0xE5 SHL DUP2 MSTORE PUSH1 0x20 PUSH1 0x4 DUP3 ADD MSTORE PUSH1 0x25 PUSH1 0x24 DUP3 ADD MSTORE PUSH32 0x455243313135353A207472616E7366657220746F20746865207A65726F206164 PUSH1 0x44 DUP3 ADD MSTORE PUSH5 0x6472657373 PUSH1 0xD8 SHL PUSH1 0x64 DUP3 ADD MSTORE PUSH1 0x84 SWAP1 REVERT JUMPDEST PUSH4 0x4E487B71 PUSH1 0xE0 SHL PUSH1 0x0 MSTORE PUSH1 0x32 PUSH1 0x4 MSTORE PUSH1 0x24 PUSH1 0x0 REVERT JUMPDEST SWAP1 PUSH2 0xE6C DUP3 MLOAD SWAP1 JUMP JUMPDEST DUP2 LT ISZERO PUSH2 0xE7D JUMPI PUSH1 0x20 DUP1 SWAP2 MUL ADD ADD SWAP1 JUMP JUMPDEST PUSH2 0xE4D JUMP JUMPDEST ISZERO PUSH2 0xE89 JUMPI JUMP JUMPDEST PUSH1 0x40 MLOAD PUSH3 0x461BCD PUSH1 0xE5 SHL DUP2 MSTORE PUSH1 0x20 PUSH1 0x4 DUP3 ADD MSTORE PUSH1 0x2A PUSH1 0x24 DUP3 ADD MSTORE PUSH32 0x455243313135353A20696E73756666696369656E742062616C616E636520666F PUSH1 0x44 DUP3 ADD MSTORE PUSH10 0x39103A3930B739B332B9 PUSH1 0xB1 SHL PUSH1 0x64 DUP3 ADD MSTORE PUSH1 0x84 SWAP1 REVERT JUMPDEST PUSH1 0x40 DUP1 DUP3 MSTORE PUSH2 0xF2 SWAP4 SWAP2 SWAP3 PUSH2 0xEF8 SWAP2 DUP5 ADD SWAP1 PUSH2 0x6DE JUMP JUMPDEST SWAP2 PUSH1 0x20 DUP2 DUP5 SUB SWAP2 ADD MSTORE PUSH2 0x6DE JUMP JUMPDEST SWAP5 SWAP1 SWAP3 SWAP2 SWAP1 CALLER PUSH1 0x1 PUSH1 0x1 PUSH1 0xA0 SHL SUB DUP8 AND EQ DUP1 ISZERO PUSH2 0x1071 JUMPI JUMPDEST PUSH2 0xF27 SWAP1 PUSH2 0xD32 JUMP JUMPDEST PUSH2 0xF46 PUSH2 0xF32 DUP4 MLOAD SWAP1 JUMP JUMPDEST PUSH2 0xF40 PUSH2 0xB62 PUSH2 0xF2 DUP8 MLOAD SWAP1 JUMP JUMPDEST EQ PUSH2 0xD96 JUMP JUMPDEST PUSH2 0xF67 PUSH2 0xF56 PUSH2 0xE6 PUSH1 0x0 PUSH2 0x9D3 JUMP JUMPDEST PUSH1 0x1 PUSH1 0x1 PUSH1 0xA0 SHL SUB DUP7 AND EQ ISZERO PUSH2 0xDF3 JUMP JUMPDEST PUSH2 0xF71 PUSH1 0x0 PUSH2 0x964 JUMP JUMPDEST PUSH2 0xF7C PUSH2 0xF2 DUP5 MLOAD SWAP1 JUMP JUMPDEST DUP2 LT ISZERO PUSH2 0x100E JUMPI DUP1 PUSH2 0x1003 DUP9 PUSH2 0xCBE PUSH2 0xFF9 DUP10 PUSH2 0x890 DUP11 PUSH2 0xFB5 PUSH2 0xFAB DUP10 PUSH2 0xFAF PUSH2 0xFAB DUP16 SWAP14 PUSH2 0x1009 SWAP15 PUSH2 0xE63 JUMP JUMPDEST MLOAD SWAP1 JUMP JUMPDEST SWAP4 PUSH2 0xE63 JUMP JUMPDEST SWAP6 PUSH2 0xFF4 PUSH1 0x2 SWAP2 PUSH2 0xFEF PUSH2 0xFE4 DUP11 PUSH2 0xFD4 PUSH2 0xA8C DUP6 PUSH2 0x890 DUP11 DUP11 PUSH2 0x971 JUMP JUMPDEST PUSH2 0xFE0 DUP3 DUP3 LT ISZERO PUSH2 0xE82 JUMP JUMPDEST SUB SWAP1 JUMP JUMPDEST SWAP2 PUSH2 0x890 DUP7 DUP7 PUSH2 0x971 JUMP JUMPDEST PUSH2 0xC3B JUMP JUMPDEST PUSH2 0x971 JUMP JUMPDEST SWAP2 PUSH2 0xCB9 DUP4 PUSH2 0xA46 JUMP JUMPDEST PUSH1 0x1 ADD SWAP1 JUMP JUMPDEST PUSH2 0xF71 JUMP JUMPDEST POP SWAP5 SWAP3 PUSH2 0x119 SWAP5 SWAP4 PUSH2 0x101F CALLER PUSH2 0x841 JUMP JUMPDEST PUSH2 0x1028 DUP3 PUSH2 0x841 JUMP JUMPDEST PUSH2 0x1031 DUP5 PUSH2 0x841 JUMP JUMPDEST SWAP2 PUSH32 0x4A39DC06D4C0DBC64B70AF90FD698A233A518AA5D07E595D983B8C0526C8F7FB PUSH2 0x105C PUSH1 0x40 MLOAD SWAP1 JUMP JUMPDEST DUP1 PUSH2 0x1068 DUP11 DUP11 DUP4 PUSH2 0xEE1 JUMP JUMPDEST SUB SWAP1 LOG4 CALLER PUSH2 0x1905 JUMP JUMPDEST POP PUSH2 0xF27 PUSH2 0x107F CALLER DUP9 PUSH2 0x12B2 JUMP JUMPDEST SWAP1 POP PUSH2 0xF1E JUMP JUMPDEST ISZERO PUSH2 0x108D JUMPI JUMP JUMPDEST PUSH1 0x40 MLOAD PUSH3 0x461BCD PUSH1 0xE5 SHL DUP2 MSTORE PUSH1 0x20 PUSH1 0x4 DUP3 ADD MSTORE PUSH1 0x29 PUSH1 0x24 DUP3 ADD MSTORE PUSH32 0x455243313135353A206163636F756E747320616E6420696473206C656E677468 PUSH1 0x44 DUP3 ADD MSTORE PUSH9 0x40DAD2E6DAC2E8C6D PUSH1 0xBB SHL PUSH1 0x64 DUP3 ADD MSTORE PUSH1 0x84 SWAP1 REVERT JUMPDEST SWAP1 PUSH2 0xAFF PUSH2 0x45D DUP4 PUSH2 0x506 JUMP JUMPDEST CALLDATASIZE SWAP1 CALLDATACOPY JUMP JUMPDEST SWAP1 PUSH2 0x119 PUSH2 0x110C PUSH2 0x1106 DUP5 PUSH2 0x10E4 JUMP JUMPDEST SWAP4 PUSH2 0x506 JUMP JUMPDEST PUSH1 0x1F NOT ADD PUSH1 0x20 DUP5 ADD PUSH2 0x10F1 JUMP JUMPDEST SWAP1 PUSH2 0x1139 PUSH2 0x1125 DUP4 MLOAD SWAP1 JUMP JUMPDEST PUSH2 0x1133 PUSH2 0xB62 PUSH2 0xF2 DUP6 MLOAD SWAP1 JUMP JUMPDEST EQ PUSH2 0x1086 JUMP JUMPDEST PUSH2 0x1149 PUSH2 0x1144 DUP4 MLOAD SWAP1 JUMP JUMPDEST PUSH2 0x10F6 JUMP JUMPDEST SWAP2 PUSH2 0x1154 PUSH1 0x0 PUSH2 0x964 JUMP JUMPDEST PUSH2 0x115F PUSH2 0xF2 DUP4 MLOAD SWAP1 JUMP JUMPDEST DUP2 LT ISZERO PUSH2 0x11A9 JUMPI DUP1 PUSH2 0x1003 PUSH2 0x1197 PUSH2 0x118A PUSH2 0x117D PUSH2 0x11A4 SWAP6 DUP8 PUSH2 0xE63 JUMP JUMPDEST MLOAD PUSH1 0x1 PUSH1 0x1 PUSH1 0xA0 SHL SUB AND SWAP1 JUMP JUMPDEST PUSH2 0x167 PUSH2 0xFAB DUP6 DUP10 PUSH2 0xE63 JUMP JUMPDEST PUSH2 0x11A1 DUP4 DUP9 PUSH2 0xE63 JUMP JUMPDEST MSTORE JUMP JUMPDEST PUSH2 0x1154 JUMP JUMPDEST POP POP POP SWAP1 JUMP JUMPDEST ISZERO PUSH2 0x11B6 JUMPI JUMP JUMPDEST PUSH1 0x40 MLOAD PUSH3 0x461BCD PUSH1 0xE5 SHL DUP2 MSTORE PUSH1 0x20 PUSH1 0x4 DUP3 ADD MSTORE PUSH1 0x29 PUSH1 0x24 DUP3 ADD MSTORE PUSH32 0x455243313135353A2073657474696E6720617070726F76616C20737461747573 PUSH1 0x44 DUP3 ADD MSTORE PUSH9 0x103337B91039B2B633 PUSH1 0xB9 SHL PUSH1 0x64 DUP3 ADD MSTORE PUSH1 0x84 SWAP1 REVERT JUMPDEST SWAP1 PUSH1 0xFF SWAP1 PUSH2 0xC31 JUMP JUMPDEST SWAP1 PUSH2 0x1226 PUSH2 0xF2 PUSH2 0xC52 SWAP3 ISZERO ISZERO SWAP1 JUMP JUMPDEST DUP3 SLOAD PUSH2 0x120D JUMP JUMPDEST PUSH2 0x1242 PUSH1 0x1 PUSH1 0x1 PUSH1 0xA0 SHL SUB DUP3 AND CALLER EQ ISZERO PUSH2 0x11AF JUMP JUMPDEST PUSH2 0x125A DUP3 PUSH2 0x1255 DUP4 PUSH2 0x890 CALLER PUSH1 0x3 PUSH2 0x84A JUMP JUMPDEST PUSH2 0x1216 JUMP JUMPDEST PUSH32 0x17307EAB39AB6107E8899845AD3D59BD9653F200F220920489CA2B5937696C31 PUSH2 0x129A PUSH2 0x1290 PUSH2 0x128A CALLER PUSH2 0x841 JUMP JUMPDEST SWAP4 PUSH2 0x841 JUMP JUMPDEST SWAP4 PUSH2 0x1D1 PUSH1 0x40 MLOAD SWAP1 JUMP JUMPDEST SUB SWAP1 LOG3 JUMP JUMPDEST PUSH2 0xF2 SWAP1 PUSH2 0x86B JUMP JUMPDEST PUSH2 0xF2 SWAP1 SLOAD PUSH2 0x129F JUMP JUMPDEST PUSH2 0xF2 SWAP2 PUSH2 0x890 PUSH2 0x12CD SWAP3 PUSH2 0x12C5 PUSH1 0x0 SWAP1 JUMP JUMPDEST POP PUSH1 0x3 PUSH2 0x84A JUMP JUMPDEST PUSH2 0x12A8 JUMP JUMPDEST SWAP1 SWAP5 SWAP2 SWAP3 SWAP4 PUSH2 0x12DF PUSH1 0x0 SWAP1 JUMP JUMPDEST POP CALLER PUSH1 0x1 PUSH1 0x1 PUSH1 0xA0 SHL SUB DUP4 AND EQ DUP1 ISZERO PUSH2 0x1411 JUMPI JUMPDEST PUSH2 0x12FC SWAP1 PUSH2 0xD32 JUMP JUMPDEST PUSH2 0x1306 PUSH1 0x0 PUSH2 0x9D3 JUMP JUMPDEST PUSH1 0x1 PUSH1 0x1 PUSH1 0xA0 SHL SUB AND PUSH1 0x1 PUSH1 0x1 PUSH1 0xA0 SHL SUB DUP8 AND EQ ISZERO PUSH2 0x1324 SWAP1 PUSH2 0xDF3 JUMP JUMPDEST PUSH1 0x2 SWAP5 DUP3 PUSH2 0x1332 DUP7 DUP9 PUSH2 0x971 JUMP JUMPDEST SWAP1 PUSH2 0x133C SWAP2 PUSH2 0x84A JUMP JUMPDEST PUSH2 0x1345 SWAP1 PUSH2 0xA46 JUMP JUMPDEST SWAP5 DUP1 SWAP8 DUP1 DUP6 SWAP9 DUP4 DUP10 DUP7 PUSH2 0x1355 DUP2 SWAP1 JUMP JUMPDEST DUP3 LT ISZERO PUSH2 0x1361 SWAP1 PUSH2 0xE82 JUMP JUMPDEST SWAP1 SUB DUP9 PUSH2 0x136E DUP4 DUP6 PUSH2 0x971 JUMP JUMPDEST SWAP1 PUSH2 0x1378 SWAP2 PUSH2 0x84A JUMP JUMPDEST SWAP1 PUSH2 0x1382 SWAP2 PUSH2 0xC3B JUMP JUMPDEST PUSH2 0x138B SWAP2 PUSH2 0x971 JUMP JUMPDEST SWAP1 PUSH2 0x1395 SWAP2 PUSH2 0x84A JUMP JUMPDEST DUP4 PUSH2 0x139F DUP3 PUSH2 0xA46 JUMP JUMPDEST SWAP1 PUSH2 0x13A9 SWAP2 PUSH2 0xC19 JUMP JUMPDEST PUSH2 0x13B2 SWAP2 PUSH2 0xC3B JUMP JUMPDEST PUSH2 0x13BB CALLER PUSH2 0x841 JUMP JUMPDEST PUSH2 0x13C4 DUP7 PUSH2 0x841 JUMP JUMPDEST PUSH2 0x13CD DUP4 PUSH2 0x841 JUMP JUMPDEST SWAP2 PUSH2 0x13D7 PUSH1 0x40 MLOAD SWAP1 JUMP JUMPDEST DUP1 PUSH2 0x13E3 DUP9 DUP9 DUP4 PUSH2 0xC56 JUMP JUMPDEST SUB PUSH32 0xC3D58168C5AE7397731D063D5BBF3D657854427343F4C083240F7AACAA2D0F62 SWAP2 LOG4 PUSH2 0x119 SWAP5 CALLER PUSH2 0x16DF JUMP JUMPDEST POP PUSH2 0x12FC PUSH2 0x141F CALLER DUP5 PUSH2 0x12B2 JUMP JUMPDEST SWAP1 POP PUSH2 0x12F3 JUMP JUMPDEST PUSH2 0xF2 PUSH2 0xB0E JUMP JUMPDEST PUSH2 0x1438 PUSH1 0x1 PUSH2 0xAF2 JUMP JUMPDEST PUSH1 0x3 PUSH1 0xFC SHL PUSH1 0x20 DUP3 ADD MSTORE SWAP1 JUMP JUMPDEST PUSH2 0xF2 PUSH2 0x142E JUMP JUMPDEST PUSH1 0x0 NOT DUP2 EQ PUSH2 0xC26 JUMPI PUSH1 0x1 ADD SWAP1 JUMP JUMPDEST PUSH4 0x4E487B71 PUSH1 0xE0 SHL PUSH1 0x0 MSTORE PUSH1 0x12 PUSH1 0x4 MSTORE PUSH1 0x24 PUSH1 0x0 REVERT JUMPDEST DUP2 ISZERO PUSH2 0x147C JUMPI DIV SWAP1 JUMP JUMPDEST PUSH2 0x145C JUMP JUMPDEST SWAP1 PUSH2 0x119 PUSH2 0x110C PUSH2 0x1491 DUP5 PUSH2 0xAF2 JUMP JUMPDEST SWAP4 PUSH2 0x424 JUMP JUMPDEST SWAP2 SWAP1 DUP3 SUB SWAP2 DUP3 GT PUSH2 0xC26 JUMPI JUMP JUMPDEST DUP2 ISZERO PUSH2 0x147C JUMPI MOD SWAP1 JUMP JUMPDEST PUSH2 0x86B PUSH2 0xF2 PUSH2 0xF2 SWAP3 SWAP1 JUMP JUMPDEST PUSH2 0x14D1 PUSH2 0x14CB PUSH2 0xF2 SWAP3 PUSH1 0xFF AND SWAP1 JUMP JUMPDEST PUSH1 0xF8 SHL SWAP1 JUMP JUMPDEST PUSH1 0x1 PUSH1 0x1 PUSH1 0xF8 SHL SUB NOT AND SWAP1 JUMP JUMPDEST SWAP1 PUSH2 0x14E7 DUP3 MLOAD SWAP1 JUMP JUMPDEST DUP2 LT ISZERO PUSH2 0xE7D JUMPI ADD PUSH1 0x20 ADD SWAP1 JUMP JUMPDEST SWAP1 PUSH1 0x0 PUSH2 0x1501 DUP2 PUSH2 0x964 JUMP JUMPDEST DUP4 EQ PUSH2 0x15CE JUMPI SWAP1 SWAP2 SWAP1 DUP2 PUSH1 0x0 JUMPDEST PUSH2 0x1517 DUP4 PUSH2 0x964 JUMP JUMPDEST DUP5 EQ PUSH2 0x1540 JUMPI PUSH2 0x1529 PUSH2 0x153A SWAP2 PUSH2 0x144D JUMP JUMPDEST SWAP4 PUSH2 0x1534 PUSH1 0xA PUSH2 0x964 JUMP JUMPDEST SWAP1 PUSH2 0x1472 JUMP JUMPDEST SWAP3 PUSH2 0x150E JUMP JUMPDEST SWAP2 SWAP4 SWAP3 POP PUSH2 0x154D DUP3 PUSH2 0x1481 JUMP JUMPDEST SWAP2 JUMPDEST PUSH2 0x1558 DUP6 PUSH2 0x964 JUMP JUMPDEST DUP3 EQ PUSH2 0x15C3 JUMPI PUSH2 0x1575 PUSH2 0x15BD SWAP2 PUSH2 0x156F PUSH1 0x1 PUSH2 0x964 JUMP JUMPDEST SWAP1 PUSH2 0x1497 JUMP JUMPDEST SWAP2 PUSH2 0x1534 PUSH1 0xA DUP5 PUSH2 0x15B7 PUSH2 0x15AE PUSH2 0x15A9 PUSH2 0x15A4 PUSH2 0x159A PUSH2 0x1594 DUP8 PUSH2 0x964 JUMP JUMPDEST DUP10 PUSH2 0x14A4 JUMP JUMPDEST PUSH2 0xCB9 PUSH1 0x30 PUSH2 0x964 JUMP JUMPDEST PUSH2 0x14AE JUMP JUMPDEST PUSH2 0x14BB JUMP JUMPDEST DUP11 BYTE SWAP2 DUP9 PUSH2 0x14DE JUMP JUMPDEST MSTORE8 PUSH2 0x964 JUMP JUMPDEST SWAP1 PUSH2 0x154F JUMP JUMPDEST POP POP PUSH2 0xF2 SWAP2 SWAP3 POP SWAP1 JUMP JUMPDEST POP SWAP1 POP PUSH2 0xF2 PUSH2 0x1445 JUMP JUMPDEST SWAP1 POP MLOAD SWAP1 PUSH2 0x119 DUP3 PUSH2 0x181 JUMP JUMPDEST SWAP1 PUSH1 0x20 DUP3 DUP3 SUB SLT PUSH2 0x107 JUMPI PUSH2 0xF2 SWAP2 PUSH2 0x15D9 JUMP JUMPDEST SWAP2 SWAP4 PUSH2 0x163D PUSH2 0xF2 SWAP7 SWAP5 PUSH2 0x1636 PUSH2 0x1644 SWAP5 SWAP8 PUSH2 0x1626 PUSH1 0xA0 DUP9 ADD SWAP10 PUSH1 0x0 DUP10 ADD SWAP1 PUSH1 0x1 PUSH1 0x1 PUSH1 0xA0 SHL SUB AND SWAP1 MSTORE JUMP JUMPDEST PUSH1 0x1 PUSH1 0x1 PUSH1 0xA0 SHL SUB AND PUSH1 0x20 DUP8 ADD MSTORE JUMP JUMPDEST PUSH1 0x40 DUP6 ADD MSTORE JUMP JUMPDEST PUSH1 0x60 DUP4 ADD MSTORE JUMP JUMPDEST PUSH1 0x80 DUP2 DUP5 SUB SWAP2 ADD MSTORE PUSH2 0x371 JUMP JUMPDEST PUSH1 0x0 SWAP1 PUSH1 0x3 RETURNDATASIZE GT PUSH2 0x165E JUMPI JUMP JUMPDEST SWAP1 POP PUSH1 0x4 PUSH1 0x0 DUP1 RETURNDATACOPY PUSH1 0x0 MLOAD PUSH1 0xE0 SHR SWAP1 JUMP JUMPDEST PUSH1 0x0 SWAP1 PUSH1 0x44 RETURNDATASIZE LT PUSH2 0x119 JUMPI PUSH1 0x40 MLOAD PUSH1 0x4 RETURNDATASIZE SUB PUSH1 0x4 DUP3 RETURNDATACOPY DUP1 MLOAD SWAP1 RETURNDATASIZE PUSH1 0x24 DUP4 ADD GT PUSH8 0xFFFFFFFFFFFFFFFF DUP4 GT OR PUSH2 0x16DB JUMPI DUP2 DUP2 ADD SWAP2 DUP3 MLOAD PUSH8 0xFFFFFFFFFFFFFFFF DUP2 GT PUSH2 0x16D5 JUMPI PUSH1 0x4 RETURNDATASIZE SUB DUP4 ADD DUP2 PUSH1 0x20 DUP7 ADD ADD GT PUSH2 0x16D5 JUMPI PUSH2 0xF2 SWAP4 SWAP5 SWAP6 POP PUSH1 0x20 ADD ADD SWAP1 PUSH2 0x2E5 JUMP JUMPDEST POP POP POP POP JUMP JUMPDEST POP POP JUMP JUMPDEST SWAP4 SWAP5 SWAP2 PUSH2 0x16EB DUP2 PUSH2 0x19A3 JUMP JUMPDEST PUSH2 0x16F8 JUMPI JUMPDEST POP POP POP POP POP POP JUMP JUMPDEST PUSH1 0x20 SWAP5 PUSH2 0x1735 PUSH2 0x1711 PUSH2 0x170C PUSH1 0x0 SWAP5 PUSH2 0x841 JUMP JUMPDEST PUSH2 0x841 JUMP JUMPDEST SWAP5 PUSH2 0x171B PUSH1 0x40 MLOAD SWAP1 JUMP JUMPDEST SWAP9 DUP10 SWAP8 DUP9 SWAP7 DUP8 SWAP6 PUSH4 0xF23A6E61 PUSH1 0xE0 SHL DUP8 MSTORE PUSH1 0x4 DUP8 ADD PUSH2 0x15FA JUMP JUMPDEST SUB SWAP3 GAS CALL PUSH1 0x0 SWAP2 DUP2 PUSH2 0x186F JUMPI JUMPDEST POP PUSH2 0x1804 JUMPI POP PUSH1 0x1 PUSH2 0x1752 PUSH2 0x1651 JUMP JUMPDEST PUSH4 0x8C379A0 EQ PUSH2 0x17CF JUMPI JUMPDEST PUSH2 0x176D JUMPI JUMPDEST CODESIZE DUP1 DUP1 DUP1 DUP1 DUP1 PUSH2 0x16F0 JUMP JUMPDEST PUSH1 0x40 MLOAD PUSH3 0x461BCD PUSH1 0xE5 SHL DUP2 MSTORE PUSH1 0x20 PUSH1 0x4 DUP3 ADD MSTORE PUSH1 0x34 PUSH1 0x24 DUP3 ADD MSTORE PUSH32 0x455243313135353A207472616E7366657220746F206E6F6E2D45524331313535 PUSH1 0x44 DUP3 ADD MSTORE PUSH20 0x2932B1B2B4BB32B91034B6B83632B6B2B73A32B9 PUSH1 0x61 SHL PUSH1 0x64 DUP3 ADD MSTORE PUSH1 0x84 SWAP1 REVERT JUMPDEST PUSH2 0x17D7 PUSH2 0x166F JUMP JUMPDEST DUP1 PUSH2 0x17E2 JUMPI POP PUSH2 0x175D JUMP JUMPDEST PUSH2 0xA3B SWAP1 PUSH2 0x17EF PUSH1 0x40 MLOAD SWAP1 JUMP JUMPDEST PUSH3 0x461BCD PUSH1 0xE5 SHL DUP2 MSTORE SWAP2 DUP3 SWAP2 PUSH1 0x4 DUP4 ADD PUSH2 0x3A9 JUMP JUMPDEST PUSH2 0x1814 PUSH4 0xF23A6E61 PUSH1 0xE0 SHL PUSH2 0xAC5 JUMP JUMPDEST EQ PUSH2 0x1762 JUMPI PUSH1 0x40 MLOAD PUSH3 0x461BCD PUSH1 0xE5 SHL DUP2 MSTORE PUSH1 0x20 PUSH1 0x4 DUP3 ADD MSTORE PUSH1 0x28 PUSH1 0x24 DUP3 ADD MSTORE PUSH32 0x455243313135353A204552433131353552656365697665722072656A65637465 PUSH1 0x44 DUP3 ADD MSTORE PUSH8 0x6420746F6B656E73 PUSH1 0xC0 SHL PUSH1 0x64 DUP3 ADD MSTORE PUSH1 0x84 SWAP1 REVERT JUMPDEST PUSH2 0x1892 SWAP2 SWAP3 POP PUSH1 0x20 RETURNDATASIZE PUSH1 0x20 GT PUSH2 0x1899 JUMPI JUMPDEST PUSH2 0x188A DUP2 DUP4 PUSH2 0x2E5 JUMP JUMPDEST DUP2 ADD SWAP1 PUSH2 0x15E6 JUMP JUMPDEST SWAP1 CODESIZE PUSH2 0x1742 JUMP JUMPDEST POP RETURNDATASIZE PUSH2 0x1880 JUMP JUMPDEST SWAP4 SWAP1 PUSH2 0x18E9 SWAP1 PUSH2 0xF2 SWAP7 SWAP5 PUSH2 0x18DC PUSH2 0x18F7 SWAP6 PUSH2 0x18CC PUSH1 0xA0 DUP11 ADD SWAP5 PUSH1 0x0 DUP12 ADD SWAP1 PUSH1 0x1 PUSH1 0x1 PUSH1 0xA0 SHL SUB AND SWAP1 MSTORE JUMP JUMPDEST PUSH1 0x1 PUSH1 0x1 PUSH1 0xA0 SHL SUB AND PUSH1 0x20 DUP10 ADD MSTORE JUMP JUMPDEST DUP7 DUP3 SUB PUSH1 0x40 DUP9 ADD MSTORE PUSH2 0x6DE JUMP JUMPDEST SWAP1 DUP5 DUP3 SUB PUSH1 0x60 DUP7 ADD MSTORE PUSH2 0x6DE JUMP JUMPDEST SWAP2 PUSH1 0x80 DUP2 DUP5 SUB SWAP2 ADD MSTORE PUSH2 0x371 JUMP JUMPDEST SWAP4 SWAP5 SWAP2 PUSH2 0x1911 DUP2 PUSH2 0x19A3 JUMP JUMPDEST PUSH2 0x191D JUMPI POP POP POP POP POP POP JUMP JUMPDEST PUSH1 0x20 SWAP5 PUSH2 0x1955 PUSH2 0x1931 PUSH2 0x170C PUSH1 0x0 SWAP5 PUSH2 0x841 JUMP JUMPDEST SWAP5 PUSH2 0x193B PUSH1 0x40 MLOAD SWAP1 JUMP JUMPDEST SWAP9 DUP10 SWAP8 DUP9 SWAP7 DUP8 SWAP6 PUSH4 0xBC197C81 PUSH1 0xE0 SHL DUP8 MSTORE PUSH1 0x4 DUP8 ADD PUSH2 0x18A0 JUMP JUMPDEST SUB SWAP3 GAS CALL PUSH1 0x0 SWAP2 DUP2 PUSH2 0x1982 JUMPI JUMPDEST POP PUSH2 0x1972 JUMPI POP PUSH1 0x1 PUSH2 0x1752 PUSH2 0x1651 JUMP JUMPDEST PUSH2 0x1814 PUSH4 0xBC197C81 PUSH1 0xE0 SHL PUSH2 0xAC5 JUMP JUMPDEST PUSH2 0x199C SWAP2 SWAP3 POP PUSH1 0x20 RETURNDATASIZE PUSH1 0x20 GT PUSH2 0x1899 JUMPI PUSH2 0x188A DUP2 DUP4 PUSH2 0x2E5 JUMP JUMPDEST SWAP1 CODESIZE PUSH2 0x1962 JUMP JUMPDEST EXTCODESIZE PUSH2 0x19B1 PUSH2 0xB62 PUSH1 0x0 PUSH2 0x964 JUMP JUMPDEST GT SWAP1 JUMP INVALID LOG2 PUSH5 0x6970667358 0x22 SLT KECCAK256 MULMOD DUP11 PUSH8 0xF6AFEACDDE210A93 COINBASE MSTORE8 0x26 BALANCE 0x2D JUMPI 0xB4 EXTCODECOPY ADD EQ STATICCALL JUMP DUP5 LOG1 CREATE 0xB2 0xD6 SWAP9 PUSH12 0x57D264736F6C634300081800 CALLER "},"methodIdentifiers":{"_balances(uint256,address)":"fc25a4da","_mint(address,uint256,uint256,bytes)":"2ca6f4da","_operatorApprovals(address,address)":"edc3bc3f","balanceOf(address,uint256)":"00fdd58e","balanceOfBatch(address[],uint256[])":"4e1273f4","isApprovedForAll(address,address)":"e985e9c5","name()":"06fdde03","safeBatchTransferFrom(address,address,uint256[],uint256[],bytes)":"2eb2c2d6","safeTransferFrom(address,address,uint256,uint256,bytes)":"f242432a","setApprovalForAll(address,bool)":"a22cb465","supportsInterface(bytes4)":"01ffc9a7","symbol()":"95d89b41","uri(uint256)":"0e89341c"}}}}}