{"contracts/CalcuEncode.sol":{"CalcuEncode":{"abi":[{"inputs":[],"name":"before","outputs":[{"internalType":"bytes","name":"","type":"bytes"}],"stateMutability":"nonpayable","type":"function"},{"inputs":[],"name":"before1","outputs":[{"internalType":"bytes","name":"","type":"bytes"}],"stateMutability":"nonpayable","type":"function"},{"inputs":[],"name":"intChange","outputs":[{"internalType":"uint256","name":"res","type":"uint256"}],"stateMutability":"nonpayable","type":"function"},{"inputs":[{"internalType":"bytes","name":"extra","type":"bytes"}],"name":"res","outputs":[{"components":[{"internalType":"address","name":"token0","type":"address"},{"internalType":"address","name":"token1","type":"address"},{"internalType":"address","name":"payer","type":"address"}],"internalType":"struct CalcuEncode.CallBackData","name":"","type":"tuple"}],"stateMutability":"nonpayable","type":"function"}],"evm":{"bytecode":{"linkReferences":{},"object":"60806040523462000026576200001462000189565b60405161052e62000278823961052e90f35b600080fd5b906001600160a01b03905b9181191691161790565b620000569062000059906001600160a01b031682565b90565b6001600160a01b031690565b620000569062000040565b620000569062000065565b906200008f62000056620000979262000070565b82546200002b565b9055565b9063ffffffff60a01b9060a01b62000036565b620000be62000056620000569290565b60030b90565b90620000d8620000566200009792620000ae565b82546200009b565b9062ffffff60a01b9060a01b62000036565b6200010262000056620000569290565b60020b90565b906200011c620000566200009792620000f2565b8254620000e0565b9062ffffff60b81b9060b81b62000036565b906200014a620000566200009792620000f2565b825462000124565b906000199062000036565b6200005662000056620000569290565b90620001816200005662000097926200015d565b825462000152565b620001aa73d9145cce52d386f254917e481eb44e9943f3913860006200007b565b620001cb73d8b934580fce35a11b58c6d73adee468a2833fa860016200007b565b620001ec735b38da6a701c568545dcfcb03fcb875f56beddc460026200007b565b620001fc62814cb86002620000c4565b6200021d737ef2e0048f5baede046f6bf797943daf4ed8cb4760036200007b565b6200022d620148fe600362000108565b6200023d62015071600362000136565b6200024b606460046200016d565b62000259606460056200016d565b62000267600060066200016d565b62000275600060076200016d565b56fe6080604052600436101561001257600080fd5b60003560e01c8063b766938f14610052578063d79df6291461004d578063d7be03ba146100485763fdd240320361006257610265565b61012e565b610107565b610069565b600091031261006257565b600080fd5b565b3461006257610079366004610057565b6100946100846102a9565b6040519182918290815260200190565b0390f35b60005b8381106100ab5750506000910152565b818101518382015260200161009b565b6100dc6100e56020936100ef936100d0815190565b80835293849260200190565b95869101610098565b601f01601f191690565b0190565b6020808252610104929101906100bb565b90565b3461006257610117366004610057565b6100946101226102ec565b604051918291826100f3565b346100625761013e366004610057565b6100946101226103c6565b634e487b7160e01b600052604160045260246000fd5b90601f01601f1916810190811067ffffffffffffffff82111761018157604052565b610149565b9061006761019360405190565b928361015f565b67ffffffffffffffff811161018157602090601f01601f19160190565b90826000939282370152565b909291926101d86101d38261019a565b610186565b9381855281830111610062576100679160208501906101b7565b9080601f8301121561006257816020610104933591016101c3565b9060208282031261006257813567ffffffffffffffff81116100625761010492016101f2565b606081019291610067919080516001600160a01b03908116835260208083015182169084015260409182015116910152565b346100625761009461028061027b36600461020d565b6104d6565b60405191829182610233565b6101046101046101049260030b90565b6101046101046101049290565b6101046102c36102be60025460a01c60030b90565b61028c565b61029c565b6001600160a01b039182168152918116602083015291909116604082015260600190565b6000546001600160a01b031661010461030d6001546001600160a01b031690565b6002546001600160a01b03169261033461032660405190565b9485936020850193846102c8565b9081038252038261015f565b6101049060a01c5b60020b90565b6101049054610340565b6101049060b81c610348565b6101049054610358565b6101049081565b610104905461036e565b949290979695939160e0860198600087016103a1916001600160a01b03169052565b60020b602086015260020b60408501526060840152608083015260a082015260c00152565b6003546001600160a01b03166101046103df600361034e565b6103e96003610364565b926103346103f76004610375565b6104016005610375565b61040b6006610375565b906104166007610375565b9261042060405190565b98899760208901978861037f565b6101046060610186565b61044061042e565b600080825260208201819052604082015290565b610104610438565b6001600160a01b0381160361006257565b905051906100678261045c565b9190606083820312610062576104bb9060406104966060610186565b946104a1838261046d565b86526104b0836020830161046d565b60208701520161046d565b6040830152565b90606082820312610062576101049161047a565b610104906104e2610454565b5060206104ed825190565b8183010191016104c256fea264697066735822122061b321d26108f623732022342f9306fc0f995962350b30a0ecf1a00e145e8e4364736f6c63430008180033","opcodes":"PUSH1 0x80 PUSH1 0x40 MSTORE CALLVALUE PUSH3 0x26 JUMPI PUSH3 0x14 PUSH3 0x189 JUMP JUMPDEST PUSH1 0x40 MLOAD PUSH2 0x52E PUSH3 0x278 DUP3 CODECOPY PUSH2 0x52E SWAP1 RETURN JUMPDEST PUSH1 0x0 DUP1 REVERT JUMPDEST SWAP1 PUSH1 0x1 PUSH1 0x1 PUSH1 0xA0 SHL SUB SWAP1 JUMPDEST SWAP2 DUP2 NOT AND SWAP2 AND OR SWAP1 JUMP JUMPDEST PUSH3 0x56 SWAP1 PUSH3 0x59 SWAP1 PUSH1 0x1 PUSH1 0x1 PUSH1 0xA0 SHL SUB AND DUP3 JUMP JUMPDEST SWAP1 JUMP JUMPDEST PUSH1 0x1 PUSH1 0x1 PUSH1 0xA0 SHL SUB AND SWAP1 JUMP JUMPDEST PUSH3 0x56 SWAP1 PUSH3 0x40 JUMP JUMPDEST PUSH3 0x56 SWAP1 PUSH3 0x65 JUMP JUMPDEST SWAP1 PUSH3 0x8F PUSH3 0x56 PUSH3 0x97 SWAP3 PUSH3 0x70 JUMP JUMPDEST DUP3 SLOAD PUSH3 0x2B JUMP JUMPDEST SWAP1 SSTORE JUMP JUMPDEST SWAP1 PUSH4 0xFFFFFFFF PUSH1 0xA0 SHL SWAP1 PUSH1 0xA0 SHL PUSH3 0x36 JUMP JUMPDEST PUSH3 0xBE PUSH3 0x56 PUSH3 0x56 SWAP3 SWAP1 JUMP JUMPDEST PUSH1 0x3 SIGNEXTEND SWAP1 JUMP JUMPDEST SWAP1 PUSH3 0xD8 PUSH3 0x56 PUSH3 0x97 SWAP3 PUSH3 0xAE JUMP JUMPDEST DUP3 SLOAD PUSH3 0x9B JUMP JUMPDEST SWAP1 PUSH3 0xFFFFFF PUSH1 0xA0 SHL SWAP1 PUSH1 0xA0 SHL PUSH3 0x36 JUMP JUMPDEST PUSH3 0x102 PUSH3 0x56 PUSH3 0x56 SWAP3 SWAP1 JUMP JUMPDEST PUSH1 0x2 SIGNEXTEND SWAP1 JUMP JUMPDEST SWAP1 PUSH3 0x11C PUSH3 0x56 PUSH3 0x97 SWAP3 PUSH3 0xF2 JUMP JUMPDEST DUP3 SLOAD PUSH3 0xE0 JUMP JUMPDEST SWAP1 PUSH3 0xFFFFFF PUSH1 0xB8 SHL SWAP1 PUSH1 0xB8 SHL PUSH3 0x36 JUMP JUMPDEST SWAP1 PUSH3 0x14A PUSH3 0x56 PUSH3 0x97 SWAP3 PUSH3 0xF2 JUMP JUMPDEST DUP3 SLOAD PUSH3 0x124 JUMP JUMPDEST SWAP1 PUSH1 0x0 NOT SWAP1 PUSH3 0x36 JUMP JUMPDEST PUSH3 0x56 PUSH3 0x56 PUSH3 0x56 SWAP3 SWAP1 JUMP JUMPDEST SWAP1 PUSH3 0x181 PUSH3 0x56 PUSH3 0x97 SWAP3 PUSH3 0x15D JUMP JUMPDEST DUP3 SLOAD PUSH3 0x152 JUMP JUMPDEST PUSH3 0x1AA PUSH20 0xD9145CCE52D386F254917E481EB44E9943F39138 PUSH1 0x0 PUSH3 0x7B JUMP JUMPDEST PUSH3 0x1CB PUSH20 0xD8B934580FCE35A11B58C6D73ADEE468A2833FA8 PUSH1 0x1 PUSH3 0x7B JUMP JUMPDEST PUSH3 0x1EC PUSH20 0x5B38DA6A701C568545DCFCB03FCB875F56BEDDC4 PUSH1 0x2 PUSH3 0x7B JUMP JUMPDEST PUSH3 0x1FC PUSH3 0x814CB8 PUSH1 0x2 PUSH3 0xC4 JUMP JUMPDEST PUSH3 0x21D PUSH20 0x7EF2E0048F5BAEDE046F6BF797943DAF4ED8CB47 PUSH1 0x3 PUSH3 0x7B JUMP JUMPDEST PUSH3 0x22D PUSH3 0x148FE PUSH1 0x3 PUSH3 0x108 JUMP JUMPDEST PUSH3 0x23D PUSH3 0x15071 PUSH1 0x3 PUSH3 0x136 JUMP JUMPDEST PUSH3 0x24B PUSH1 0x64 PUSH1 0x4 PUSH3 0x16D JUMP JUMPDEST PUSH3 0x259 PUSH1 0x64 PUSH1 0x5 PUSH3 0x16D JUMP JUMPDEST PUSH3 0x267 PUSH1 0x0 PUSH1 0x6 PUSH3 0x16D JUMP JUMPDEST PUSH3 0x275 PUSH1 0x0 PUSH1 0x7 PUSH3 0x16D JUMP JUMPDEST JUMP INVALID PUSH1 0x80 PUSH1 0x40 MSTORE PUSH1 0x4 CALLDATASIZE LT ISZERO PUSH2 0x12 JUMPI PUSH1 0x0 DUP1 REVERT JUMPDEST PUSH1 0x0 CALLDATALOAD PUSH1 0xE0 SHR DUP1 PUSH4 0xB766938F EQ PUSH2 0x52 JUMPI DUP1 PUSH4 0xD79DF629 EQ PUSH2 0x4D JUMPI DUP1 PUSH4 0xD7BE03BA EQ PUSH2 0x48 JUMPI PUSH4 0xFDD24032 SUB PUSH2 0x62 JUMPI PUSH2 0x265 JUMP JUMPDEST PUSH2 0x12E JUMP JUMPDEST PUSH2 0x107 JUMP JUMPDEST PUSH2 0x69 JUMP JUMPDEST PUSH1 0x0 SWAP2 SUB SLT PUSH2 0x62 JUMPI JUMP JUMPDEST PUSH1 0x0 DUP1 REVERT JUMPDEST JUMP JUMPDEST CALLVALUE PUSH2 0x62 JUMPI PUSH2 0x79 CALLDATASIZE PUSH1 0x4 PUSH2 0x57 JUMP JUMPDEST PUSH2 0x94 PUSH2 0x84 PUSH2 0x2A9 JUMP JUMPDEST PUSH1 0x40 MLOAD SWAP2 DUP3 SWAP2 DUP3 SWAP1 DUP2 MSTORE PUSH1 0x20 ADD SWAP1 JUMP JUMPDEST SUB SWAP1 RETURN JUMPDEST PUSH1 0x0 JUMPDEST DUP4 DUP2 LT PUSH2 0xAB JUMPI POP POP PUSH1 0x0 SWAP2 ADD MSTORE JUMP JUMPDEST DUP2 DUP2 ADD MLOAD DUP4 DUP3 ADD MSTORE PUSH1 0x20 ADD PUSH2 0x9B JUMP JUMPDEST PUSH2 0xDC PUSH2 0xE5 PUSH1 0x20 SWAP4 PUSH2 0xEF SWAP4 PUSH2 0xD0 DUP2 MLOAD SWAP1 JUMP JUMPDEST DUP1 DUP4 MSTORE SWAP4 DUP5 SWAP3 PUSH1 0x20 ADD SWAP1 JUMP JUMPDEST SWAP6 DUP7 SWAP2 ADD PUSH2 0x98 JUMP JUMPDEST PUSH1 0x1F ADD PUSH1 0x1F NOT AND SWAP1 JUMP JUMPDEST ADD SWAP1 JUMP JUMPDEST PUSH1 0x20 DUP1 DUP3 MSTORE PUSH2 0x104 SWAP3 SWAP2 ADD SWAP1 PUSH2 0xBB JUMP JUMPDEST SWAP1 JUMP JUMPDEST CALLVALUE PUSH2 0x62 JUMPI PUSH2 0x117 CALLDATASIZE PUSH1 0x4 PUSH2 0x57 JUMP JUMPDEST PUSH2 0x94 PUSH2 0x122 PUSH2 0x2EC JUMP JUMPDEST PUSH1 0x40 MLOAD SWAP2 DUP3 SWAP2 DUP3 PUSH2 0xF3 JUMP JUMPDEST CALLVALUE PUSH2 0x62 JUMPI PUSH2 0x13E CALLDATASIZE PUSH1 0x4 PUSH2 0x57 JUMP JUMPDEST PUSH2 0x94 PUSH2 0x122 PUSH2 0x3C6 JUMP JUMPDEST PUSH4 0x4E487B71 PUSH1 0xE0 SHL PUSH1 0x0 MSTORE PUSH1 0x41 PUSH1 0x4 MSTORE PUSH1 0x24 PUSH1 0x0 REVERT JUMPDEST SWAP1 PUSH1 0x1F ADD PUSH1 0x1F NOT AND DUP2 ADD SWAP1 DUP2 LT PUSH8 0xFFFFFFFFFFFFFFFF DUP3 GT OR PUSH2 0x181 JUMPI PUSH1 0x40 MSTORE JUMP JUMPDEST PUSH2 0x149 JUMP JUMPDEST SWAP1 PUSH2 0x67 PUSH2 0x193 PUSH1 0x40 MLOAD SWAP1 JUMP JUMPDEST SWAP3 DUP4 PUSH2 0x15F JUMP JUMPDEST PUSH8 0xFFFFFFFFFFFFFFFF DUP2 GT PUSH2 0x181 JUMPI PUSH1 0x20 SWAP1 PUSH1 0x1F ADD PUSH1 0x1F NOT AND ADD SWAP1 JUMP JUMPDEST SWAP1 DUP3 PUSH1 0x0 SWAP4 SWAP3 DUP3 CALLDATACOPY ADD MSTORE JUMP JUMPDEST SWAP1 SWAP3 SWAP2 SWAP3 PUSH2 0x1D8 PUSH2 0x1D3 DUP3 PUSH2 0x19A JUMP JUMPDEST PUSH2 0x186 JUMP JUMPDEST SWAP4 DUP2 DUP6 MSTORE DUP2 DUP4 ADD GT PUSH2 0x62 JUMPI PUSH2 0x67 SWAP2 PUSH1 0x20 DUP6 ADD SWAP1 PUSH2 0x1B7 JUMP JUMPDEST SWAP1 DUP1 PUSH1 0x1F DUP4 ADD SLT ISZERO PUSH2 0x62 JUMPI DUP2 PUSH1 0x20 PUSH2 0x104 SWAP4 CALLDATALOAD SWAP2 ADD PUSH2 0x1C3 JUMP JUMPDEST SWAP1 PUSH1 0x20 DUP3 DUP3 SUB SLT PUSH2 0x62 JUMPI DUP2 CALLDATALOAD PUSH8 0xFFFFFFFFFFFFFFFF DUP2 GT PUSH2 0x62 JUMPI PUSH2 0x104 SWAP3 ADD PUSH2 0x1F2 JUMP JUMPDEST PUSH1 0x60 DUP2 ADD SWAP3 SWAP2 PUSH2 0x67 SWAP2 SWAP1 DUP1 MLOAD PUSH1 0x1 PUSH1 0x1 PUSH1 0xA0 SHL SUB SWAP1 DUP2 AND DUP4 MSTORE PUSH1 0x20 DUP1 DUP4 ADD MLOAD DUP3 AND SWAP1 DUP5 ADD MSTORE PUSH1 0x40 SWAP2 DUP3 ADD MLOAD AND SWAP2 ADD MSTORE JUMP JUMPDEST CALLVALUE PUSH2 0x62 JUMPI PUSH2 0x94 PUSH2 0x280 PUSH2 0x27B CALLDATASIZE PUSH1 0x4 PUSH2 0x20D JUMP JUMPDEST PUSH2 0x4D6 JUMP JUMPDEST PUSH1 0x40 MLOAD SWAP2 DUP3 SWAP2 DUP3 PUSH2 0x233 JUMP JUMPDEST PUSH2 0x104 PUSH2 0x104 PUSH2 0x104 SWAP3 PUSH1 0x3 SIGNEXTEND SWAP1 JUMP JUMPDEST PUSH2 0x104 PUSH2 0x104 PUSH2 0x104 SWAP3 SWAP1 JUMP JUMPDEST PUSH2 0x104 PUSH2 0x2C3 PUSH2 0x2BE PUSH1 0x2 SLOAD PUSH1 0xA0 SHR PUSH1 0x3 SIGNEXTEND SWAP1 JUMP JUMPDEST PUSH2 0x28C JUMP JUMPDEST PUSH2 0x29C JUMP JUMPDEST PUSH1 0x1 PUSH1 0x1 PUSH1 0xA0 SHL SUB SWAP2 DUP3 AND DUP2 MSTORE SWAP2 DUP2 AND PUSH1 0x20 DUP4 ADD MSTORE SWAP2 SWAP1 SWAP2 AND PUSH1 0x40 DUP3 ADD MSTORE PUSH1 0x60 ADD SWAP1 JUMP JUMPDEST PUSH1 0x0 SLOAD PUSH1 0x1 PUSH1 0x1 PUSH1 0xA0 SHL SUB AND PUSH2 0x104 PUSH2 0x30D PUSH1 0x1 SLOAD PUSH1 0x1 PUSH1 0x1 PUSH1 0xA0 SHL SUB AND SWAP1 JUMP JUMPDEST PUSH1 0x2 SLOAD PUSH1 0x1 PUSH1 0x1 PUSH1 0xA0 SHL SUB AND SWAP3 PUSH2 0x334 PUSH2 0x326 PUSH1 0x40 MLOAD SWAP1 JUMP JUMPDEST SWAP5 DUP6 SWAP4 PUSH1 0x20 DUP6 ADD SWAP4 DUP5 PUSH2 0x2C8 JUMP JUMPDEST SWAP1 DUP2 SUB DUP3 MSTORE SUB DUP3 PUSH2 0x15F JUMP JUMPDEST PUSH2 0x104 SWAP1 PUSH1 0xA0 SHR JUMPDEST PUSH1 0x2 SIGNEXTEND SWAP1 JUMP JUMPDEST PUSH2 0x104 SWAP1 SLOAD PUSH2 0x340 JUMP JUMPDEST PUSH2 0x104 SWAP1 PUSH1 0xB8 SHR PUSH2 0x348 JUMP JUMPDEST PUSH2 0x104 SWAP1 SLOAD PUSH2 0x358 JUMP JUMPDEST PUSH2 0x104 SWAP1 DUP2 JUMP JUMPDEST PUSH2 0x104 SWAP1 SLOAD PUSH2 0x36E JUMP JUMPDEST SWAP5 SWAP3 SWAP1 SWAP8 SWAP7 SWAP6 SWAP4 SWAP2 PUSH1 0xE0 DUP7 ADD SWAP9 PUSH1 0x0 DUP8 ADD PUSH2 0x3A1 SWAP2 PUSH1 0x1 PUSH1 0x1 PUSH1 0xA0 SHL SUB AND SWAP1 MSTORE JUMP JUMPDEST PUSH1 0x2 SIGNEXTEND PUSH1 0x20 DUP7 ADD MSTORE PUSH1 0x2 SIGNEXTEND PUSH1 0x40 DUP6 ADD MSTORE PUSH1 0x60 DUP5 ADD MSTORE PUSH1 0x80 DUP4 ADD MSTORE PUSH1 0xA0 DUP3 ADD MSTORE PUSH1 0xC0 ADD MSTORE JUMP JUMPDEST PUSH1 0x3 SLOAD PUSH1 0x1 PUSH1 0x1 PUSH1 0xA0 SHL SUB AND PUSH2 0x104 PUSH2 0x3DF PUSH1 0x3 PUSH2 0x34E JUMP JUMPDEST PUSH2 0x3E9 PUSH1 0x3 PUSH2 0x364 JUMP JUMPDEST SWAP3 PUSH2 0x334 PUSH2 0x3F7 PUSH1 0x4 PUSH2 0x375 JUMP JUMPDEST PUSH2 0x401 PUSH1 0x5 PUSH2 0x375 JUMP JUMPDEST PUSH2 0x40B PUSH1 0x6 PUSH2 0x375 JUMP JUMPDEST SWAP1 PUSH2 0x416 PUSH1 0x7 PUSH2 0x375 JUMP JUMPDEST SWAP3 PUSH2 0x420 PUSH1 0x40 MLOAD SWAP1 JUMP JUMPDEST SWAP9 DUP10 SWAP8 PUSH1 0x20 DUP10 ADD SWAP8 DUP9 PUSH2 0x37F JUMP JUMPDEST PUSH2 0x104 PUSH1 0x60 PUSH2 0x186 JUMP JUMPDEST PUSH2 0x440 PUSH2 0x42E JUMP JUMPDEST PUSH1 0x0 DUP1 DUP3 MSTORE PUSH1 0x20 DUP3 ADD DUP2 SWAP1 MSTORE PUSH1 0x40 DUP3 ADD MSTORE SWAP1 JUMP JUMPDEST PUSH2 0x104 PUSH2 0x438 JUMP JUMPDEST PUSH1 0x1 PUSH1 0x1 PUSH1 0xA0 SHL SUB DUP2 AND SUB PUSH2 0x62 JUMPI JUMP JUMPDEST SWAP1 POP MLOAD SWAP1 PUSH2 0x67 DUP3 PUSH2 0x45C JUMP JUMPDEST SWAP2 SWAP1 PUSH1 0x60 DUP4 DUP3 SUB SLT PUSH2 0x62 JUMPI PUSH2 0x4BB SWAP1 PUSH1 0x40 PUSH2 0x496 PUSH1 0x60 PUSH2 0x186 JUMP JUMPDEST SWAP5 PUSH2 0x4A1 DUP4 DUP3 PUSH2 0x46D JUMP JUMPDEST DUP7 MSTORE PUSH2 0x4B0 DUP4 PUSH1 0x20 DUP4 ADD PUSH2 0x46D JUMP JUMPDEST PUSH1 0x20 DUP8 ADD MSTORE ADD PUSH2 0x46D JUMP JUMPDEST PUSH1 0x40 DUP4 ADD MSTORE JUMP JUMPDEST SWAP1 PUSH1 0x60 DUP3 DUP3 SUB SLT PUSH2 0x62 JUMPI PUSH2 0x104 SWAP2 PUSH2 0x47A JUMP JUMPDEST PUSH2 0x104 SWAP1 PUSH2 0x4E2 PUSH2 0x454 JUMP JUMPDEST POP PUSH1 0x20 PUSH2 0x4ED DUP3 MLOAD SWAP1 JUMP JUMPDEST DUP2 DUP4 ADD ADD SWAP2 ADD PUSH2 0x4C2 JUMP INVALID LOG2 PUSH5 0x6970667358 0x22 SLT KECCAK256 PUSH2 0xB321 0xD2 PUSH2 0x8F6 0x23 PUSH20 0x2022342F9306FC0F995962350B30A0ECF1A00E14 MCOPY DUP15 NUMBER PUSH5 0x736F6C6343 STOP ADDMOD XOR STOP CALLER "},"methodIdentifiers":{"before()":"d79df629","before1()":"d7be03ba","intChange()":"b766938f","res(bytes)":"fdd24032"}}}}}