{"contracts/JoeSwapManager.sol":{"JoeSwapManager":{"abi":[{"inputs":[{"internalType":"int32","name":"target_bin","type":"int32"},{"internalType":"uint256","name":"amount0","type":"uint256"},{"internalType":"uint256","name":"amount1","type":"uint256"},{"internalType":"bytes","name":"data","type":"bytes"}],"name":"JoeSwapMintCallback","outputs":[],"stateMutability":"nonpayable","type":"function"},{"inputs":[{"internalType":"address","name":"pool_address","type":"address"},{"internalType":"int32","name":"target_bin","type":"int32"},{"internalType":"uint128","name":"amount","type":"uint128"},{"internalType":"bytes","name":"data","type":"bytes"}],"name":"mint","outputs":[{"internalType":"uint256","name":"amount0","type":"uint256"},{"internalType":"uint256","name":"amount1","type":"uint256"}],"stateMutability":"nonpayable","type":"function"}],"evm":{"bytecode":{"linkReferences":{},"object":"60806040523461001a5760405161063d610020823961063d90f35b600080fdfe6080604052600436101561001257600080fd5b60003560e01c806356b4b80d14610032576365b5cedc03610058576101b0565b610136565b6001600160a01b031690565b90565b6001600160a01b0381165b0361005857565b600080fd5b9050359061006a82610046565b565b6100518160030b90565b9050359061006a8261006c565b6001600160801b038116610051565b9050359061006a82610083565b909182601f830112156100585781359167ffffffffffffffff831161005857602001926001830284011161005857565b90608082820312610058576100e4818361005d565b926100f28260208501610076565b926101008360408301610092565b92606082013567ffffffffffffffff81116100585761011f920161009f565b9091565b90815260408101929161006a9160200152565b34610058576101526101493660046100cf565b939290926102f8565b9061016861015f60405190565b92839283610123565b0390f35b80610051565b9050359061006a8261016c565b90608082820312610058576101948183610076565b926101a28260208501610172565b926101008360408301610172565b34610058576101cc6101c336600461017f565b939290926104b6565b604051005b61004390610037906001600160a01b031682565b610043906101d1565b610043906101e5565b634e487b7160e01b600052604160045260246000fd5b90601f01601f1916810190811067ffffffffffffffff82111761022f57604052565b6101f7565b9050519061006a8261016c565b91906040838203126100585761004390602061025d8286610234565b9401610234565b90826000939282370152565b919061028e81610287816102989560209181520190565b8095610264565b601f01601f191690565b0190565b90939161004395936102cf6102df926102c5608086019860008701906001600160a01b03169052565b60030b6020850152565b6001600160801b03166040830152565b6060818503910152610270565b6040513d6000823e3d90fd5b91600061031b61031660409695989798610310600090565b506101ee565b6101ee565b9261034361032860405190565b988996879586946356b4b80d60e01b8652336004870161029c565b03925af1801561038757600092839161035b57509190565b905061011f91925060403d604011610380575b610378818361020d565b810190610241565b503d61036e565b6102ec565b9061006a61039960405190565b928361020d565b9190606083820312610058576103e19060406103bc606061038c565b946103c7838261005d565b86526103d6836020830161005d565b60208701520161005d565b6040830152565b9060608282031261005857610043916103a0565b6104096100436100439290565b60ff1690565b61004360606103fc565b6100439061043161042d6100439460ff1690565b9190565b901c90565b6100436100436100439260030b90565b6100436100436100439290565b600091031261005857565b91936104a26104a992969461049b610043999761048b60a088019a60008901906001600160a01b03169052565b6001600160a01b03166020870152565b6040850152565b6060830152565b6080818503910152610270565b939190916104e26104c9828601866103e8565b936104dc6104d561040f565b8092610419565b93610419565b936104f86103168086516001600160a01b031690565b63f242432a94604081019461052561052061051a88516001600160a01b031690565b9a610436565b610446565b98833b1561005857899361055260008a61055f8a8a849861054560405190565b9b8c998a98899760e01b90565b875233906004880161045e565b03925af19081156103875761031660206103169261059d9561058f956105f1575b5001516001600160a01b031690565b93516001600160a01b031690565b93833b15610058576105c8610552936000979388946105bb60405190565b9a8b998a98899760e01b90565b03925af18015610387576105d95750565b61006a9060006105e9818361020d565b810190610453565b6106019060006105e9818361020d565b3861058056fea2646970667358221220d97d9c9ec6e88937fbf52c260ab0206006ea58ee2611e442ae02d640635fab0564736f6c63430008180033","opcodes":"PUSH1 0x80 PUSH1 0x40 MSTORE CALLVALUE PUSH2 0x1A JUMPI PUSH1 0x40 MLOAD PUSH2 0x63D PUSH2 0x20 DUP3 CODECOPY PUSH2 0x63D SWAP1 RETURN JUMPDEST PUSH1 0x0 DUP1 REVERT INVALID PUSH1 0x80 PUSH1 0x40 MSTORE PUSH1 0x4 CALLDATASIZE LT ISZERO PUSH2 0x12 JUMPI PUSH1 0x0 DUP1 REVERT JUMPDEST PUSH1 0x0 CALLDATALOAD PUSH1 0xE0 SHR DUP1 PUSH4 0x56B4B80D EQ PUSH2 0x32 JUMPI PUSH4 0x65B5CEDC SUB PUSH2 0x58 JUMPI PUSH2 0x1B0 JUMP JUMPDEST PUSH2 0x136 JUMP JUMPDEST PUSH1 0x1 PUSH1 0x1 PUSH1 0xA0 SHL SUB AND SWAP1 JUMP JUMPDEST SWAP1 JUMP JUMPDEST PUSH1 0x1 PUSH1 0x1 PUSH1 0xA0 SHL SUB DUP2 AND JUMPDEST SUB PUSH2 0x58 JUMPI JUMP JUMPDEST PUSH1 0x0 DUP1 REVERT JUMPDEST SWAP1 POP CALLDATALOAD SWAP1 PUSH2 0x6A DUP3 PUSH2 0x46 JUMP JUMPDEST JUMP JUMPDEST PUSH2 0x51 DUP2 PUSH1 0x3 SIGNEXTEND SWAP1 JUMP JUMPDEST SWAP1 POP CALLDATALOAD SWAP1 PUSH2 0x6A DUP3 PUSH2 0x6C JUMP JUMPDEST PUSH1 0x1 PUSH1 0x1 PUSH1 0x80 SHL SUB DUP2 AND PUSH2 0x51 JUMP JUMPDEST SWAP1 POP CALLDATALOAD SWAP1 PUSH2 0x6A DUP3 PUSH2 0x83 JUMP JUMPDEST SWAP1 SWAP2 DUP3 PUSH1 0x1F DUP4 ADD SLT ISZERO PUSH2 0x58 JUMPI DUP2 CALLDATALOAD SWAP2 PUSH8 0xFFFFFFFFFFFFFFFF DUP4 GT PUSH2 0x58 JUMPI PUSH1 0x20 ADD SWAP3 PUSH1 0x1 DUP4 MUL DUP5 ADD GT PUSH2 0x58 JUMPI JUMP JUMPDEST SWAP1 PUSH1 0x80 DUP3 DUP3 SUB SLT PUSH2 0x58 JUMPI PUSH2 0xE4 DUP2 DUP4 PUSH2 0x5D JUMP JUMPDEST SWAP3 PUSH2 0xF2 DUP3 PUSH1 0x20 DUP6 ADD PUSH2 0x76 JUMP JUMPDEST SWAP3 PUSH2 0x100 DUP4 PUSH1 0x40 DUP4 ADD PUSH2 0x92 JUMP JUMPDEST SWAP3 PUSH1 0x60 DUP3 ADD CALLDATALOAD PUSH8 0xFFFFFFFFFFFFFFFF DUP2 GT PUSH2 0x58 JUMPI PUSH2 0x11F SWAP3 ADD PUSH2 0x9F JUMP JUMPDEST SWAP1 SWAP2 JUMP JUMPDEST SWAP1 DUP2 MSTORE PUSH1 0x40 DUP2 ADD SWAP3 SWAP2 PUSH2 0x6A SWAP2 PUSH1 0x20 ADD MSTORE JUMP JUMPDEST CALLVALUE PUSH2 0x58 JUMPI PUSH2 0x152 PUSH2 0x149 CALLDATASIZE PUSH1 0x4 PUSH2 0xCF JUMP JUMPDEST SWAP4 SWAP3 SWAP1 SWAP3 PUSH2 0x2F8 JUMP JUMPDEST SWAP1 PUSH2 0x168 PUSH2 0x15F PUSH1 0x40 MLOAD SWAP1 JUMP JUMPDEST SWAP3 DUP4 SWAP3 DUP4 PUSH2 0x123 JUMP JUMPDEST SUB SWAP1 RETURN JUMPDEST DUP1 PUSH2 0x51 JUMP JUMPDEST SWAP1 POP CALLDATALOAD SWAP1 PUSH2 0x6A DUP3 PUSH2 0x16C JUMP JUMPDEST SWAP1 PUSH1 0x80 DUP3 DUP3 SUB SLT PUSH2 0x58 JUMPI PUSH2 0x194 DUP2 DUP4 PUSH2 0x76 JUMP JUMPDEST SWAP3 PUSH2 0x1A2 DUP3 PUSH1 0x20 DUP6 ADD PUSH2 0x172 JUMP JUMPDEST SWAP3 PUSH2 0x100 DUP4 PUSH1 0x40 DUP4 ADD PUSH2 0x172 JUMP JUMPDEST CALLVALUE PUSH2 0x58 JUMPI PUSH2 0x1CC PUSH2 0x1C3 CALLDATASIZE PUSH1 0x4 PUSH2 0x17F JUMP JUMPDEST SWAP4 SWAP3 SWAP1 SWAP3 PUSH2 0x4B6 JUMP JUMPDEST PUSH1 0x40 MLOAD STOP JUMPDEST PUSH2 0x43 SWAP1 PUSH2 0x37 SWAP1 PUSH1 0x1 PUSH1 0x1 PUSH1 0xA0 SHL SUB AND DUP3 JUMP JUMPDEST PUSH2 0x43 SWAP1 PUSH2 0x1D1 JUMP JUMPDEST PUSH2 0x43 SWAP1 PUSH2 0x1E5 JUMP JUMPDEST PUSH4 0x4E487B71 PUSH1 0xE0 SHL PUSH1 0x0 MSTORE PUSH1 0x41 PUSH1 0x4 MSTORE PUSH1 0x24 PUSH1 0x0 REVERT JUMPDEST SWAP1 PUSH1 0x1F ADD PUSH1 0x1F NOT AND DUP2 ADD SWAP1 DUP2 LT PUSH8 0xFFFFFFFFFFFFFFFF DUP3 GT OR PUSH2 0x22F JUMPI PUSH1 0x40 MSTORE JUMP JUMPDEST PUSH2 0x1F7 JUMP JUMPDEST SWAP1 POP MLOAD SWAP1 PUSH2 0x6A DUP3 PUSH2 0x16C JUMP JUMPDEST SWAP2 SWAP1 PUSH1 0x40 DUP4 DUP3 SUB SLT PUSH2 0x58 JUMPI PUSH2 0x43 SWAP1 PUSH1 0x20 PUSH2 0x25D DUP3 DUP7 PUSH2 0x234 JUMP JUMPDEST SWAP5 ADD PUSH2 0x234 JUMP JUMPDEST SWAP1 DUP3 PUSH1 0x0 SWAP4 SWAP3 DUP3 CALLDATACOPY ADD MSTORE JUMP JUMPDEST SWAP2 SWAP1 PUSH2 0x28E DUP2 PUSH2 0x287 DUP2 PUSH2 0x298 SWAP6 PUSH1 0x20 SWAP2 DUP2 MSTORE ADD SWAP1 JUMP JUMPDEST DUP1 SWAP6 PUSH2 0x264 JUMP JUMPDEST PUSH1 0x1F ADD PUSH1 0x1F NOT AND SWAP1 JUMP JUMPDEST ADD SWAP1 JUMP JUMPDEST SWAP1 SWAP4 SWAP2 PUSH2 0x43 SWAP6 SWAP4 PUSH2 0x2CF PUSH2 0x2DF SWAP3 PUSH2 0x2C5 PUSH1 0x80 DUP7 ADD SWAP9 PUSH1 0x0 DUP8 ADD SWAP1 PUSH1 0x1 PUSH1 0x1 PUSH1 0xA0 SHL SUB AND SWAP1 MSTORE JUMP JUMPDEST PUSH1 0x3 SIGNEXTEND PUSH1 0x20 DUP6 ADD MSTORE JUMP JUMPDEST PUSH1 0x1 PUSH1 0x1 PUSH1 0x80 SHL SUB AND PUSH1 0x40 DUP4 ADD MSTORE JUMP JUMPDEST PUSH1 0x60 DUP2 DUP6 SUB SWAP2 ADD MSTORE PUSH2 0x270 JUMP JUMPDEST PUSH1 0x40 MLOAD RETURNDATASIZE PUSH1 0x0 DUP3 RETURNDATACOPY RETURNDATASIZE SWAP1 REVERT JUMPDEST SWAP2 PUSH1 0x0 PUSH2 0x31B PUSH2 0x316 PUSH1 0x40 SWAP7 SWAP6 SWAP9 SWAP8 SWAP9 PUSH2 0x310 PUSH1 0x0 SWAP1 JUMP JUMPDEST POP PUSH2 0x1EE JUMP JUMPDEST PUSH2 0x1EE JUMP JUMPDEST SWAP3 PUSH2 0x343 PUSH2 0x328 PUSH1 0x40 MLOAD SWAP1 JUMP JUMPDEST SWAP9 DUP10 SWAP7 DUP8 SWAP6 DUP7 SWAP5 PUSH4 0x56B4B80D PUSH1 0xE0 SHL DUP7 MSTORE CALLER PUSH1 0x4 DUP8 ADD PUSH2 0x29C JUMP JUMPDEST SUB SWAP3 GAS CALL DUP1 ISZERO PUSH2 0x387 JUMPI PUSH1 0x0 SWAP3 DUP4 SWAP2 PUSH2 0x35B JUMPI POP SWAP2 SWAP1 JUMP JUMPDEST SWAP1 POP PUSH2 0x11F SWAP2 SWAP3 POP PUSH1 0x40 RETURNDATASIZE PUSH1 0x40 GT PUSH2 0x380 JUMPI JUMPDEST PUSH2 0x378 DUP2 DUP4 PUSH2 0x20D JUMP JUMPDEST DUP2 ADD SWAP1 PUSH2 0x241 JUMP JUMPDEST POP RETURNDATASIZE PUSH2 0x36E JUMP JUMPDEST PUSH2 0x2EC JUMP JUMPDEST SWAP1 PUSH2 0x6A PUSH2 0x399 PUSH1 0x40 MLOAD SWAP1 JUMP JUMPDEST SWAP3 DUP4 PUSH2 0x20D JUMP JUMPDEST SWAP2 SWAP1 PUSH1 0x60 DUP4 DUP3 SUB SLT PUSH2 0x58 JUMPI PUSH2 0x3E1 SWAP1 PUSH1 0x40 PUSH2 0x3BC PUSH1 0x60 PUSH2 0x38C JUMP JUMPDEST SWAP5 PUSH2 0x3C7 DUP4 DUP3 PUSH2 0x5D JUMP JUMPDEST DUP7 MSTORE PUSH2 0x3D6 DUP4 PUSH1 0x20 DUP4 ADD PUSH2 0x5D JUMP JUMPDEST PUSH1 0x20 DUP8 ADD MSTORE ADD PUSH2 0x5D JUMP JUMPDEST PUSH1 0x40 DUP4 ADD MSTORE JUMP JUMPDEST SWAP1 PUSH1 0x60 DUP3 DUP3 SUB SLT PUSH2 0x58 JUMPI PUSH2 0x43 SWAP2 PUSH2 0x3A0 JUMP JUMPDEST PUSH2 0x409 PUSH2 0x43 PUSH2 0x43 SWAP3 SWAP1 JUMP JUMPDEST PUSH1 0xFF AND SWAP1 JUMP JUMPDEST PUSH2 0x43 PUSH1 0x60 PUSH2 0x3FC JUMP JUMPDEST PUSH2 0x43 SWAP1 PUSH2 0x431 PUSH2 0x42D PUSH2 0x43 SWAP5 PUSH1 0xFF AND SWAP1 JUMP JUMPDEST SWAP2 SWAP1 JUMP JUMPDEST SWAP1 SHR SWAP1 JUMP JUMPDEST PUSH2 0x43 PUSH2 0x43 PUSH2 0x43 SWAP3 PUSH1 0x3 SIGNEXTEND SWAP1 JUMP JUMPDEST PUSH2 0x43 PUSH2 0x43 PUSH2 0x43 SWAP3 SWAP1 JUMP JUMPDEST PUSH1 0x0 SWAP2 SUB SLT PUSH2 0x58 JUMPI JUMP JUMPDEST SWAP2 SWAP4 PUSH2 0x4A2 PUSH2 0x4A9 SWAP3 SWAP7 SWAP5 PUSH2 0x49B PUSH2 0x43 SWAP10 SWAP8 PUSH2 0x48B PUSH1 0xA0 DUP9 ADD SWAP11 PUSH1 0x0 DUP10 ADD SWAP1 PUSH1 0x1 PUSH1 0x1 PUSH1 0xA0 SHL SUB AND SWAP1 MSTORE JUMP JUMPDEST PUSH1 0x1 PUSH1 0x1 PUSH1 0xA0 SHL SUB AND PUSH1 0x20 DUP8 ADD MSTORE JUMP JUMPDEST PUSH1 0x40 DUP6 ADD MSTORE JUMP JUMPDEST PUSH1 0x60 DUP4 ADD MSTORE JUMP JUMPDEST PUSH1 0x80 DUP2 DUP6 SUB SWAP2 ADD MSTORE PUSH2 0x270 JUMP JUMPDEST SWAP4 SWAP2 SWAP1 SWAP2 PUSH2 0x4E2 PUSH2 0x4C9 DUP3 DUP7 ADD DUP7 PUSH2 0x3E8 JUMP JUMPDEST SWAP4 PUSH2 0x4DC PUSH2 0x4D5 PUSH2 0x40F JUMP JUMPDEST DUP1 SWAP3 PUSH2 0x419 JUMP JUMPDEST SWAP4 PUSH2 0x419 JUMP JUMPDEST SWAP4 PUSH2 0x4F8 PUSH2 0x316 DUP1 DUP7 MLOAD PUSH1 0x1 PUSH1 0x1 PUSH1 0xA0 SHL SUB AND SWAP1 JUMP JUMPDEST PUSH4 0xF242432A SWAP5 PUSH1 0x40 DUP2 ADD SWAP5 PUSH2 0x525 PUSH2 0x520 PUSH2 0x51A DUP9 MLOAD PUSH1 0x1 PUSH1 0x1 PUSH1 0xA0 SHL SUB AND SWAP1 JUMP JUMPDEST SWAP11 PUSH2 0x436 JUMP JUMPDEST PUSH2 0x446 JUMP JUMPDEST SWAP9 DUP4 EXTCODESIZE ISZERO PUSH2 0x58 JUMPI DUP10 SWAP4 PUSH2 0x552 PUSH1 0x0 DUP11 PUSH2 0x55F DUP11 DUP11 DUP5 SWAP9 PUSH2 0x545 PUSH1 0x40 MLOAD SWAP1 JUMP JUMPDEST SWAP12 DUP13 SWAP10 DUP11 SWAP9 DUP10 SWAP8 PUSH1 0xE0 SHL SWAP1 JUMP JUMPDEST DUP8 MSTORE CALLER SWAP1 PUSH1 0x4 DUP9 ADD PUSH2 0x45E JUMP JUMPDEST SUB SWAP3 GAS CALL SWAP1 DUP2 ISZERO PUSH2 0x387 JUMPI PUSH2 0x316 PUSH1 0x20 PUSH2 0x316 SWAP3 PUSH2 0x59D SWAP6 PUSH2 0x58F SWAP6 PUSH2 0x5F1 JUMPI JUMPDEST POP ADD MLOAD PUSH1 0x1 PUSH1 0x1 PUSH1 0xA0 SHL SUB AND SWAP1 JUMP JUMPDEST SWAP4 MLOAD PUSH1 0x1 PUSH1 0x1 PUSH1 0xA0 SHL SUB AND SWAP1 JUMP JUMPDEST SWAP4 DUP4 EXTCODESIZE ISZERO PUSH2 0x58 JUMPI PUSH2 0x5C8 PUSH2 0x552 SWAP4 PUSH1 0x0 SWAP8 SWAP4 DUP9 SWAP5 PUSH2 0x5BB PUSH1 0x40 MLOAD SWAP1 JUMP JUMPDEST SWAP11 DUP12 SWAP10 DUP11 SWAP9 DUP10 SWAP8 PUSH1 0xE0 SHL SWAP1 JUMP JUMPDEST SUB SWAP3 GAS CALL DUP1 ISZERO PUSH2 0x387 JUMPI PUSH2 0x5D9 JUMPI POP JUMP JUMPDEST PUSH2 0x6A SWAP1 PUSH1 0x0 PUSH2 0x5E9 DUP2 DUP4 PUSH2 0x20D JUMP JUMPDEST DUP2 ADD SWAP1 PUSH2 0x453 JUMP JUMPDEST PUSH2 0x601 SWAP1 PUSH1 0x0 PUSH2 0x5E9 DUP2 DUP4 PUSH2 0x20D JUMP JUMPDEST CODESIZE PUSH2 0x580 JUMP INVALID LOG2 PUSH5 0x6970667358 0x22 SLT KECCAK256 0xD9 PUSH30 0x9C9EC6E88937FBF52C260AB0206006EA58EE2611E442AE02D640635FAB05 PUSH5 0x736F6C6343 STOP ADDMOD XOR STOP CALLER "},"methodIdentifiers":{"JoeSwapMintCallback(int32,uint256,uint256,bytes)":"65b5cedc","mint(address,int32,uint128,bytes)":"56b4b80d"}}}}}