{"contracts/JoeSwapPool.sol":{"JoeSwapPool":{"abi":[{"inputs":[{"internalType":"address","name":"token0_","type":"address"},{"internalType":"address","name":"token1_","type":"address"},{"internalType":"uint256","name":"_pi","type":"uint256"},{"internalType":"int32","name":"_bin","type":"int32"}],"stateMutability":"nonpayable","type":"constructor"},{"inputs":[],"name":"Invalidbinposition","type":"error"},{"inputs":[],"name":"LiquidityNotEnough","type":"error"},{"inputs":[{"internalType":"uint256","name":"prod1","type":"uint256"},{"internalType":"uint256","name":"denominator","type":"uint256"}],"name":"PRBMath__MulDivOverflow","type":"error"},{"inputs":[],"name":"ZeroLiquidity","type":"error"},{"inputs":[],"name":"composition","outputs":[{"internalType":"uint160","name":"","type":"uint160"}],"stateMutability":"view","type":"function"},{"inputs":[],"name":"liquidity","outputs":[{"internalType":"uint128","name":"","type":"uint128"}],"stateMutability":"view","type":"function"},{"inputs":[{"internalType":"address","name":"owner","type":"address"},{"internalType":"int32","name":"target_bin","type":"int32"},{"internalType":"uint128","name":"amount","type":"uint128"},{"internalType":"bytes","name":"data","type":"bytes"}],"name":"mint","outputs":[{"internalType":"uint256","name":"amount0","type":"uint256"},{"internalType":"uint256","name":"amount1","type":"uint256"}],"stateMutability":"nonpayable","type":"function"},{"inputs":[{"internalType":"address","name":"operator","type":"address"},{"internalType":"address","name":"from","type":"address"},{"internalType":"uint256[]","name":"ids","type":"uint256[]"},{"internalType":"uint256[]","name":"values","type":"uint256[]"},{"internalType":"bytes","name":"data","type":"bytes"}],"name":"onERC1155BatchReceived","outputs":[{"internalType":"bytes4","name":"","type":"bytes4"}],"stateMutability":"nonpayable","type":"function"},{"inputs":[{"internalType":"address","name":"operator","type":"address"},{"internalType":"address","name":"from","type":"address"},{"internalType":"uint256","name":"id","type":"uint256"},{"internalType":"uint256","name":"value","type":"uint256"},{"internalType":"bytes","name":"data","type":"bytes"}],"name":"onERC1155Received","outputs":[{"internalType":"bytes4","name":"","type":"bytes4"}],"stateMutability":"nonpayable","type":"function"},{"inputs":[],"name":"slot","outputs":[{"internalType":"uint256","name":"pi","type":"uint256"},{"internalType":"int32","name":"bin","type":"int32"}],"stateMutability":"view","type":"function"},{"inputs":[{"internalType":"uint256","name":"expectedAmount","type":"uint256"},{"internalType":"uint256","name":"limitPrice","type":"uint256"},{"internalType":"bool","name":"zeroforone","type":"bool"},{"internalType":"bytes","name":"data","type":"bytes"}],"name":"swap","outputs":[{"internalType":"uint256","name":"amount0","type":"uint256"},{"internalType":"uint256","name":"amount1","type":"uint256"}],"stateMutability":"nonpayable","type":"function"},{"inputs":[],"name":"token0","outputs":[{"internalType":"address","name":"","type":"address"}],"stateMutability":"view","type":"function"},{"inputs":[],"name":"token1","outputs":[{"internalType":"address","name":"","type":"address"}],"stateMutability":"view","type":"function"}],"evm":{"bytecode":{"linkReferences":{},"object":"60c060405234620000455762000022620000186200013b565b9291909162000232565b6040516139096200026882396080518160e1015260a05181610424015261390990f35b600080fd5b634e487b7160e01b600052604160045260246000fd5b90601f01601f191681019081106001600160401b038211176200008257604052565b6200004a565b906200009f6200009760405190565b928362000060565b565b90565b6001600160a01b0381165b036200004557565b905051906200009f82620000a4565b80620000af565b905051906200009f82620000c6565b620000af8160030b90565b905051906200009f82620000dc565b60808183031262000045576200010d8282620000b7565b92620000a1620001218460208501620000b7565b936060620001338260408701620000cd565b9401620000e7565b6200015e62003b7180380380620001528162000088565b928339810190620000f6565b90919293565b620000a1604062000088565b90600019905b9181191691161790565b620000a1620000a1620000a19290565b90620001a4620000a1620001ac9262000180565b825462000170565b9055565b9063ffffffff9062000176565b620001d0620000a1620000a19260030b90565b60030b90565b90620001ea620000a1620001ac92620001bd565b8254620001b0565b60016200021e60206200009f94620002166200020f600083015190565b8662000190565b015160030b90565b9101620001d6565b906200009f91620001f2565b60805260a0526200009f916200025f90620002556200025062000164565b938452565b60030b6020830152565b60006200022656fe6080604052600436101561001257600080fd5b60003560e01c80630dfe1681146100a25780631a6865021461009d5780631a88bc661461009857806356b4b80d14610093578063bc197c811461008e578063d21220a714610089578063d456b5dd14610084578063dd42d4c61461007f5763f23a6e61036100b257610563565b6104e7565b610473565b61040f565b6103cf565b6102e5565b6101bb565b61014b565b6100cc565b60009103126100b257565b600080fd5b6001600160a01b031690565b90565b9052565b565b346100b2576100dc3660046100a7565b61011b7f00000000000000000000000000000000000000000000000000000000000000005b604051918291826001600160a01b03909116815260200190565b0390f35b6100c3916008021c5b6001600160801b031690565b906100c3915461011f565b6100c360006005610134565b346100b25761015b3660046100a7565b61011b61016661013f565b604051918291826001600160801b03909116815260200190565b6100c39081565b6100c39054610180565b6100c3905b60030b90565b6100c39054610191565b6101b06000610187565b906100c3600161019c565b346100b2576101cb3660046100a7565b6101d36101a6565b9061011b6101e060405190565b9283928390815260039190910b602082015260400190565b6001600160a01b0381165b036100b257565b905035906100ca826101f8565b6102038160030b90565b905035906100ca82610217565b6001600160801b038116610203565b905035906100ca8261022e565b909182601f830112156100b25781359167ffffffffffffffff83116100b25760200192600183028401116100b257565b906080828203126100b25761028f818361020a565b9261029d8260208501610221565b926102ab836040830161023d565b92606082013567ffffffffffffffff81116100b2576102ca920161024a565b9091565b9081526040810192916100ca9160200152565b0152565b346100b2576103016102f836600461027a565b9392909261085f565b9061011b61030e60405190565b928392836102ce565b909182601f830112156100b25781359167ffffffffffffffff83116100b25760200192602083028401116100b257565b9160a0838303126100b25761035c828461020a565b9261036a836020830161020a565b92604082013567ffffffffffffffff81116100b2578161038b918401610317565b929093606082013567ffffffffffffffff81116100b257836103ae918401610317565b929093608082013567ffffffffffffffff81116100b2576102ca920161024a565b346100b25761011b6103f46103e5366004610347565b96959095949194939293610b08565b604051918291826001600160e01b0319909116815260200190565b346100b25761041f3660046100a7565b61011b7f0000000000000000000000000000000000000000000000000000000000000000610101565b6100c3916008021c6001600160a01b031690565b906100c39154610448565b6100c36000600661045c565b346100b2576104833660046100a7565b61011b610101610467565b80610203565b905035906100ca8261048e565b801515610203565b905035906100ca826104a1565b906080828203126100b2576104cb8183610494565b926104d98260208501610494565b926102ab83604083016104a9565b346100b2576103016104fa3660046104b6565b93929092611760565b91909160a0818403126100b25761051a838261020a565b92610528816020840161020a565b926105368260408501610494565b926105448360608301610494565b92608082013567ffffffffffffffff81116100b2576102ca920161024a565b346100b25761011b6103f4610579366004610503565b949390939291926121d5565b6101966100c36100c39290565b6100c3628d89e8610585565b6100c362727618610585565b6101286100c36100c39290565b634e487b7160e01b600052601160045260246000fd5b6105dc9060030b5b9160030b90565b900390637fffffff198212637fffffff8313176105f557565b6105b7565b61060a6100c36100c39260030b90565b60020b90565b61061d6100c36100c39290565b60ff1690565b6100c36060610610565b6100c36100c36100c39290565b6100c39061065261064e6100c39460ff1690565b9190565b901b90565b6100b76100c36100c39290565b6101966100c36100c39260030b90565b9061067e90610664565b600052602052604060002090565b6100c39061061d565b6100c3905461068c565b6106ae9060ff165b9160ff1690565b90039060ff82116105f557565b906001600160a01b03905b9181191691161790565b6100c3906100b7906001600160a01b031682565b906106f46100c36106fb926106d0565b82546106bb565b9055565b6100c3906100b7565b6100c390546106ff565b6100c390610128565b6100c39054610712565b610740906001600160801b03165b916001600160801b031690565b01906001600160801b0382116105f557565b906001600160801b03906106c6565b6101286100c36100c3926001600160801b031690565b906107876100c36106fb92610761565b8254610752565b6100c3906106d0565b6100c39061078e565b634e487b7160e01b600052604160045260246000fd5b90601f01601f1916810190811067ffffffffffffffff8211176107d857604052565b6107a0565b90826000939282370152565b919061080781610800816108119560209181520190565b80956107dd565b601f01601f191690565b0190565b9093916100c3959361083f610846926108386080860198600087019060030b9052565b6020850152565b6040830152565b60608185039101526107e9565b6040513d6000823e3d90fd5b939492906000958693610873610196610592565b61087d8460030b90565b138015610aec575b610ada57600094610895866105aa565b6001600160801b03831614610ac4576108b06001870161019c565b986108d66108d16108cc6108c662800000610585565b886105cd565b6105fa565b612316565b996108e18160030b90565b6108eb8760030b90565b03610a605750505061090885610902856002610674565b01610695565b15610a0b576109709061096b8461093561092e6109256006610708565b9c5b8d86612a65565b9b84612aa3565b9961095361094c85610947600561071b565b610725565b6005610777565b61095f84836002612b29565b6109f1575b6003612c71565b612cbb565b61098161097c33610797565b610797565b803b156100b257878580946109b48a9561099a60405190565b9889978896879563196d73b760e21b875260048701610815565b03925af180156109ec576109c6575050565b816100ca92903d106109e5575b6109dd81836107b6565b8101906100a7565b503d6109d3565b610853565b610a066109fe6001610585565b836004612be4565b610964565b6109709061096b8461093561092e610a5b9c610a52610a4d610a3e610a2e610623565b610a386001610610565b9061069f565b610a48600161062d565b61063a565b610657565b9d8e60066106e4565b610927565b9899919860030b610a718660030b90565b1315610a9a57509061096b84610a9461097094610a8d8a610657565b5084612a01565b9a610953565b9897505061097090610ab0610a4d610a3e610623565b5061096b84610abe836129e4565b99610953565b604051630200e8a960e31b8152600490fd5b0390fd5b604051633944550f60e21b8152600490fd5b50610af861019661059e565b610b028460030b90565b12610885565b5050505050505050610b18600090565b5063bc197c8160e01b90565b818102929181159184041417156105f557565b9160001960089290920291821b911b6106c6565b9190610b5c6100c36106fb9361062d565b908354610b37565b6100ca91600091610b4b565b818110610b7b575050565b80610b896000600193610b64565b01610b70565b919091828210610b9e57505050565b6100ca9291610bb39091600052602060002090565b9182019101610b70565b90600160401b81116107d85781610bd56100ca935490565b90828155610b8f565b60006100ca91610bbd565b634e487b7160e01b600052600060045260246000fd5b90600003610c10576100ca90610bde565b610be9565b906100ca610c2260405190565b92836107b6565b6100c36040610c15565b906100ca610c5b6001610c44610c29565b94610c55610c5182610187565b8752565b0161019c565b60030b6020840152565b6100c390610c33565b6100c373fffd8963efd1fc6a506488495d951d5263988d2661062d565b6100c36401000276a361062d565b15610ca057565b60405162461bcd60e51b8152602060048201526013602482015272496e76616c6964204c696d697450726963652160681b6044820152606490fd5b6100c360a0610c15565b67ffffffffffffffff81116107d857602090601f01601f19160190565b90610d14610d0f83610ce5565b610c15565b918252565b610d236081610d02565b7f20202020202020202020205b44454255475d3a202a2a2a2a2a2a2a2a2a2a2a2a60208201527f2a2a2a2a2a2a2a2a2a2a2a2a2a2a2a2a2a2a2a2a2a2a2a2a2a2a2a2a2a2a2a2a604082018190527f2a2a2a2a2a2a2a2a20526f756e64202a2a2a2a2a2a2a2a2a2a2a2a2a2a2a2a2a60608301526080820152601560f91b60a082015290565b6100c3610d19565b6100c360c0610c15565b610dc3610db1565b906000825260208080808080870160008152016000815201600081520160008152016000905250565b6100c3610dbb565b610dfe6033610d02565b7f20202020202020202020205b44454255475d3a202a2a2a2a2a2a2a2a205365616020820152723931b41022bc32b1baba32901515151515151560691b604082015290565b6100c3610df4565b6100c36100c36100c39260030b90565b610e656013610d02565b7210101010101010101010102da222a12aa3ae9d60691b602082015290565b6100c3610e5b565b610e966034610d02565b7f20202020202020202020205b44454255475d3a204e6f7420537572653a207072602082015273696365506f696e743e3d6c696d6974507269636560601b604082015290565b6100c3610e8c565b610ef09060030b6105d5565b0190637fffffff8213637fffffff198312176105f557565b610f126030610d02565b6000805160206138b483398151915260208201526f6f696e743c3d6c696d6974507269636560801b604082015290565b6100c3610f08565b610f54602f610d02565b6000805160206138b483398151915260208201526e6f696e743e6c696d6974507269636560881b604082015290565b6100c3610f4a565b610f95601e610d02565b7f20202020202020202020205b44454255475d3a206e65787442696e203d200000602082015290565b6100c3610f8b565b610fd06025610d02565b7f20202020202020202020205b44454255475d3a206e6578745072696365506f696020820152640373a101e960dd1b604082015290565b6100c3610fc6565b6110196033610d02565b7f20202020202020202020205b44454255475d3a204e6f7420537572653a207072602082015272696365506f696e743c6c696d6974507269636560681b604082015290565b6100c361100f565b6110706030610d02565b6000805160206138b483398151915260208201526f6f696e743e3d6c696d6974507269636560801b604082015290565b6100c3611066565b6110b2602f610d02565b6000805160206138b483398151915260208201526e6f696e743c6c696d6974507269636560881b604082015290565b6100c36110a8565b6110f36033610d02565b7f20202020202020202020205b44454255475d3a202a2a2a2a2a2a2a2a2a204f756020820152723a1027b31029b2b0b931b4101515151515151560691b604082015290565b6100c36110e9565b61114a603f610d02565b7f20202020202020202020205b44454255475d3a20737465702e7374617274507260208201527f696365207c2073746174652e6163746976655f6c6971756964697479203a2000604082015290565b6100c3611140565b6100c36100c36100c3926001600160801b031690565b6111c16044610d02565b7f20202020202020202020205b44454255475d3a20636f6d706f736974696f6e2060208201527f7c20737465702e6e6578745072696365207c206578706563746564416d6f756e60408201526303a101d160e51b606082015290565b6100c36111b7565b6100c39081906001600160a01b031681565b6100c39060081c610128565b6100c39054611237565b919082039182116105f557565b919082018092116105f557565b634e487b7160e01b600052603260045260246000fd5b80548210156112a057611297600191600052602060002090565b91020190600090565b611267565b90815491600160401b8310156107d857826112c89160016100ca9501815561127d565b90610b4b565b6100c3906112e261064e6100c39460ff1690565b901c90565b6112f16035610d02565b7f20202020202020202020205b44454255475d3a20737465702e616d6f756e744f60208201527403aba103e1039ba32b81730b6b7bab73a24b7101d1605d1b604082015290565b6100c36112e7565b61134a601f610d02565b7f20202020202020202020205b44454255475d3a2073746174652e7069203d2000602082015290565b6100c3611340565b611385600e610d02565b6d031b7b6b837b9b4ba34b7b7101e960951b602082015290565b6100c361137b565b6113b16081610d02565b7f20202020202020202020205b44454255475d3a202a2a2a2a2a2a2a2a2a2a2a2a60208201527f2a2a2a2a2a2a2a2a2a2a2a2a2a2a2a2a2a2a2a2a2a2a2a2a2a2a2a2a2a2a2a2a604082018190527f2a2a2a2a204f7574204f6620526f756e64202a2a2a2a2a2a2a2a2a2a2a2a2a2a60608301526080820152601560f91b60a082015290565b6100c36113a7565b67ffffffffffffffff81116107d85760208091020190565b90610d14610d0f8361143f565b369037565b906100ca61147f61147984611457565b9361143f565b601f190160208401611464565b6100c3916008021c81565b906100c3915461148c565b6114ac6053610d02565b7f20202020202020202020205b44454255475d3a2074656d704964735b695d207c60208201527f2074656d70416d6f756e74734f66546f6b656e305b695d207c2074656d70416d604082015272037bab73a39a7b32a37b5b2b718adb4ae901e9606d1b606082015290565b6100c36114a2565b90611528825190565b8110156112a0576020809102010190565b91906060838203126100b25761083f9060406115556060610c15565b94611560838261020a565b865261156f836020830161020a565b60208701520161020a565b906060828203126100b2576100c391611539565b906115ae6115a761159d845190565b8084529260200190565b9260200190565b9060005b8181106115bf5750505090565b9091926115dc6115d56001928651815260200190565b9460200190565b9291016115b2565b969593909461162c60809461161e61163a956116108c6100ca9b60a0820191600081840391015261158e565b8c810360208e01529061158e565b908a820360408c015261158e565b9188830360608a01526107e9565b94019015159052565b9063ffffffff906106c6565b9061165f6100c36106fb92610664565b8254611643565b90600019906106c6565b906116806100c36106fb9261062d565b8254611666565b611691601e610d02565b7f20202020202020202020205b44454255475d3a20736c6f742e7069203d200000602082015290565b6100c3611687565b6116cc601f610d02565b7f20202020202020202020205b44454255475d3a20736c6f742e62696e203d2000602082015290565b6100c36116c2565b611707601e610d02565b7f20202020202020202020205b44454255475d3a20616d6f756e7430203d200000602082015290565b6100c36116fd565b611742600a610d02565b69030b6b7bab73a18901e960b51b602082015290565b6100c3611738565b9092949161176c600090565b9361177960006007610bff565b61178560006008610bff565b61179160006009610bff565b8161179c6000610c65565b936118176117aa600561071b565b600084156121a957506117be6100c3885190565b851080612190575b6117cf90610c99565b6118076117eb60006117e560208b015160030b90565b99015190565b6118006117f6610cdb565b998a9060030b9052565b6020890152565b6001600160801b03166040870152565b611821600061062d565b9661182d886060880152565b611838886080880152565b8782118061216f575b156121665761184e612cd2565b61185e611859610da9565b612d66565b85611867610dec565b611879611875602084015190565b8252565b805193611887835160030b90565b8060009660008915612056575b8a821061204f57506118a4612cd2565b6118af611859610e43565b6118d06118c36118be84610e4b565b61062d565b6118cb610e84565b612db4565b6118dc816118cb610e84565b6118f48960046118ec6001610585565b948591612e57565b90819362800000908d6119156108d16108cc61190f86610585565b876105cd565b9461192d6119256118be87610e4b565b6118cb610fbe565b611939866118cb611007565b15611fbe5791506119479050565b821015611fa957505061195b6118596110e1565b611963612cd2565b61196b611138565b61197490612d66565b600383900b602086015260408501521515606084015286611993845190565b9160408601926119aa84516001600160801b031690565b906119b3611199565b916119bd906111a1565b906119c792612fd7565b6119d16006610708565b846119dd604088015190565b6119e561121d565b926119ef90611225565b6119f893613032565b855160030b97611a06865190565b8584611a1987516001600160801b031690565b611a236006610708565b60408b015191611a3295613084565b60a08a01526080890152611a479060066106e4565b60208801526020870151604087015114600014611bb46020611c0599611baf6108d19a611b3e611ae86108cc9c611bf29c611bde99611f9257611add90611a98611a92604088015190565b8a8a0152565b611aaf611aa88a88015160030b90565b60030b8952565b611ad06000611aca6002611ac48c5160030b90565b90610674565b01611243565b6001600160801b03169052565b60a08401519061124d565b9f611b0c611af760a085015190565b6100c66060880191611b07835190565b61125a565b611b2a611b1a608085015190565b6100c66080880191611b07835190565b611b386118be600792610e4b565b906112a5565b8815611f6157611b8b611b52608083015190565b611b84611b7b611b6a611b63610623565b80946112ce565b92611b7660a087015190565b6112ce565b915b60086112a5565b60096112a5565b611ba16080611b9b60a084015190565b92015190565b90611baa611338565b612fd7565b015190565b611bbe6006610708565b611bc6611373565b91611bd8611bd261139f565b92611225565b926131bb565b50600490611bec6001610585565b91612e57565b50611bff62800000610585565b906105cd565b8315611f5a5784115b1561183857505050505b611c20612cd2565b611c2b611859611437565b600791611c3e611c39845490565b611469565b93611c4a611c39855490565b97611c56611c39865490565b965b611c636100c3875490565b811015611d2357611c74818761127d565b611c7d91611497565b81808c600882808d8d82611c91818761127d565b611c9a91611497565b9960099a611ca8838d61127d565b611cb191611497565b90611cba611517565b92611cc493613032565b611ccd9161127d565b611cd691611497565b91611ce09161151f565b52611cea9161127d565b611cf391611497565b91611cfd9161151f565b52611d079161127d565b611d1091611497565b611d1a828a61151f565b52600101611c58565b50949350949196959095611d398286018661157a565b611d4e61097c8083516001600160a01b031690565b63a22cb46591813b156100b2576000611d6660405190565b8093611d728660e01b90565b825233600483015260016024830152604490829084905af19182156109ec57602061097c9261097c92611db395611f44575b5001516001600160a01b031690565b803b156100b257611dd391600091611dca60405190565b93849260e01b90565b825233600483015260016024830152604490829084905af180156109ec57611f2e575b50611e0361097c33610797565b91823b156100b257600094611e378a8793611e1d60405190565b998a9889978896635138d53760e11b8852600488016115e4565b03925af180156109ec57611f18575b506100ca6020830192611e5a611bb4855190565b611e7161094c60408301516001600160801b031690565b611e91611e7f825160030b90565b60019590611e8d908761164f565b5190565b60009590611e9f9087611670565b15611f0257611eb46060611b9b608084015190565b905b611eeb611ee36118be611ede8598611ed9611ed1879c610187565b6118cb6116ba565b61019c565b610e4b565b6118cb6116f5565b611ef3611730565b90611efc611758565b916131bb565b611f126080611b9b606084015190565b90611eb6565b611f289060006109dd81836107b6565b38611e46565b611f3e9060006109dd81836107b6565b38611df6565b611f549060006109dd81836107b6565b38611da4565b8410611c0e565b611b8b611f6f60a083015190565b611b84611f8c611f80611b63610623565b92611b76608087015190565b91611b7d565b50611fa4611f9e855190565b88880152565b611add565b91509250611fb86118596110a0565b9161195b565b61064e611fd19198949896939695929590565b1061203f57505083611fe96000610902836002610674565b1561200d5750506108d16108cc61200261200893610585565b856105cd565b61195b565b61203292999896979594506120286108d1926108cc926105cd565b611bff819b610585565b8792939594969791611894565b925093505061200861185961105e565b915061195b565b8a821161204f5750612066612cd2565b612071611859610e43565b6120806118c36118be84610e4b565b61208c816118cb610e84565b61209c8960046118ec6001610585565b90819362800000908d6120b76108d16108cc61190f86610585565b94156120e95791506120c69050565b8211156120da575050612008611859610f83565b91509250611fb8611859610f42565b61064e6120fc9198949896939695929590565b1015612156575050836121156000610902836002610674565b1561212e5750506108d16108cc61200261200893610585565b61214992999896979594506120286108d1926108cc92610ee4565b8792939594969791612056565b9250935050612008611859610edc565b50505050611c18565b508215612183576020860151841115611841565b6020860151841015611841565b506117cf61219f6100c3610c8b565b86101590506117c6565b8701518511806121bc576117cf90610c99565b506117cf6121cb6100c3610c6e565b86111590506117c6565b5050505050506121e3600090565b5063f23a6e6160e01b90565b61060a6100c36100c39290565b6100c36100c36100c39260020b90565b600160ff1b81146105f55760000390565b6100c3620d89e7196121ef565b60020b627fffff1981146105f55760000390565b6100c361224961221d565b61222a565b61225e6100c36100c39260020b90565b62ffffff1690565b6100c36100c36100c39262ffffff1690565b1561227f57565b60405162461bcd60e51b81526020600482015260016024820152601560fa1b6044820152606490fd5b6122b56100c36100c39290565b6001600160881b031690565b6100c36100c36100c3926001600160881b031690565b634e487b7160e01b600052601260045260246000fd5b81156122f7570490565b6122d7565b81156122f7570690565b6100c36100c36100c39260ff1690565b61269061268a61267a6100c39361232b600090565b506000612337816121ef565b6123418360020b90565b12156129d25761235b6118be612356846121fc565b61220c565b915b61238361237b6100c361237661237161223e565b61224e565b612266565b841115612278565b61238d600161062d565b831661239b61064e8461062d565b146129c2576123c16123bc6ffffcb933bd6fad37aa2d162d1a5940016122a8565b6122c1565b926123cc600261062d565b81166123da61064e8561062d565b0361299b575b6123ea600461062d565b81166123f861064e8561062d565b03612974575b612408600861062d565b811661241661064e8561062d565b0361294d575b612426601061062d565b811661243461064e8561062d565b03612926575b612444602061062d565b811661245261064e8561062d565b036128ff575b612462604061062d565b811661247061064e8561062d565b036128ce575b6080906124828261062d565b811661249061064e8661062d565b036128a7575b6124a161010061062d565b81166124af61064e8661062d565b03612880575b6124c061020061062d565b81166124ce61064e8661062d565b03612859575b6124df61040061062d565b81166124ed61064e8661062d565b03612832575b6124fe61080061062d565b811661250c61064e8661062d565b0361280b575b61251d61100061062d565b811661252b61064e8661062d565b036127e4575b61253c61200061062d565b811661254a61064e8661062d565b036127bd575b61255b61400061062d565b811661256961064e8661062d565b03612796575b61257a61800061062d565b811661258861064e8661062d565b0361276f575b61259a6201000061062d565b81166125a861064e8661062d565b03612748575b6125ba6202000061062d565b81166125c861064e8661062d565b03612722575b6125da6204000061062d565b81166125e861064e8661062d565b036126f4575b6125fa6208000061062d565b1661260761064e8561062d565b036126c1575b5061262161261a836121ef565b9160020b90565b136126ae575b61265261263d6126376020610610565b846112ce565b9261264c64010000000061062d565b906122fc565b61265e61064e8361062d565b036126a05761266f61267491610610565b612306565b9061125a565b6126846050610610565b906112ce565b80610b24565b61269a6040610610565b9061063a565b5061267461266f6001610610565b906126bb906000196122ed565b90612627565b6126846126e76126ed93956126e16b048a170391f7dc42444e8fa261062d565b90610b24565b91610610565b913861260d565b9361271361271c916126e16d2216e584f5fa1ea926041bedfe9861062d565b61268483610610565b936125ee565b93612713612742916126e16e5d6af8dedb81196699c329225ee60461062d565b936125ce565b93612713612769916126e16f09aa508b5b7a84e1c677de54f3e99bc961062d565b936125ae565b93612713612790916126e16f31be135f97d08fd981231505542fcfa661062d565b9361258e565b936127136127b7916126e16f70d869a156d2a1b890bb3df62baf32f761062d565b9361256f565b936127136127de916126e16fa9f746462d870fdf8a65dc1f90e061e561062d565b93612550565b93612713612805916126e16fd097f3bdfd2022b8845ad8f792aa582561062d565b93612531565b9361271361282c916126e16fe7159475a2c29b7443b29c7fa6e889d961062d565b93612512565b93612713612853916126e16ff3392b0822b70005940c7a398e4b70f361062d565b936124f3565b9361271361287a916126e16ff987a7253ac413176f2b074cf7815e5461062d565b936124d4565b936127136128a1916126e16ffcbe86c7900a88aedcffc83b479aa3a461062d565b936124b5565b936127136128c8916126e16ffe5dee046a99a2a811c461f1969c305361062d565b93612496565b926128ef6128f9916126e16fff2ea16466c96a3843ec78b326b5286161062d565b6126846080610610565b92612476565b926128ef612920916126e16fff973b41fa98c081472e6896dfb254c061062d565b92612458565b926128ef612947916126e16fffcb9843d60f6159c9db58835c92664461062d565b9261243a565b926128ef61296e916126e16fffe5caca7e10e4e61c3624eaa0941cd061062d565b9261241c565b926128ef612995916126e16ffff2e50f5f656932ef12357cf3c7fdcc61062d565b926123fe565b926128ef6129bc916126e16ffff97272373d413259a46990580e213a61062d565b926123e0565b6123c16123bc600160801b6122a8565b6129de6118be836121fc565b9161235d565b6129f96100c3916129f3600090565b506111a1565b61269a610623565b90612a116100c3926129f3600090565b612a31612a26612a1f610623565b809361063a565b91610a48600161062d565b906131e9565b612a52906001600160a01b03165b916001600160a01b031690565b9003906001600160a01b0382116105f557565b612a9d612a986100c39493612a78600090565b50612a926129f9612a8c600160601b610657565b956111a1565b93612a37565b611225565b9061332d565b90612ab36100c3926129f3600090565b612a31611bd2612acb612ac4610623565b809461063a565b92610a48600161062d565b9060ff906106c6565b90612aef6100c36106fb92151590565b8254612ad6565b9070ffffffffffffffffffffffffffffffff009060081b6106c6565b90612b226100c36106fb92610761565b8254612af6565b6100c36100ca92612b4592959495612b3f600090565b50610674565b92612b4f84611243565b6000948591612b60610733846105aa565b14612bb4575b0193612bac612ba6612b81612b7a88611243565b9485610725565b93612ba2610733612b91866105aa565b6001600160801b03881614956105aa565b1490565b91151590565b141593612b12565b612bc16001838301612adf565b612b66565b612bd29060030b6105d5565b9081156122f7570790565b156100b257565b90612c24612c17612c2a92612c12612bff6100ca9783612bc6565b612c0c6105d56000610585565b14612bdd565b6133b7565b610a48600193929361062d565b92610674565b90612c3482610187565b1890611670565b6100c6906001600160a01b031660601b90565b601481612c616108119360049695612c3b565b01809260e01b9052565b9061067e565b612c96612ca26100c3946100c394612c8860405190565b938492602084019283612c4e565b908103825203826107b6565b612cb4612cad825190565b9160200190565b2090612c6b565b6100ca91612ccc906109478361071b565b90610777565b6100ca612cde60405190565b6351973ec960e01b6020820152612d0381602481015b602082018103825203826107b6565b6133f0565b60005b838110612d1b5750506000910152565b8181015183820152602001612d0b565b612d4c61080760209361081193612d40815190565b80835293849260200190565b95869101612d08565b60208082526100c392910190612d2b565b612cf4612d036100ca92612d7960405190565b63104c13eb60e21b602082015292839160248301612d55565b92916020612daf6100ca9360408701908782036000890152612d2b565b940152565b90612d036100ca92612cf4612dc860405190565b632d839cb360e21b602082015293849260248401612d92565b612ded9060030b6105d5565b9081156122f757637fffffff1981146000198314166105f5570590565b612e1a6100c36100c39260ff1690565b63ffffffff1690565b6101966100c36100c39263ffffffff1690565b612e429060030b6105d5565b0290612e4e8260030b90565b9182036105f557565b92919081612e6d91612e67600090565b50612de1565b9115612f0257612ea792612eac612e83846133b7565b9590612ea1612e92600161062d565b612e9c898261063a565b61124d565b93610674565b610187565b1692612eb8600061062d565b841480159490612eee5792611bff612ee1612edc612ee694610a38612eeb9861367e565b612e0a565b612e23565b612e36565b91565b50612eeb92611bff612ee1612ee693612e0a565b612ea7600193612f3f612f20612c12612f1a88610585565b87610ee4565b9390612ea1612f3b612f318a61062d565b612e9c888261063a565b1990565b1690612f4b600061062d565b821480159590612f8757612ee1612edc612ee69493612f82612f7c612eeb99612f76612f7697610585565b90610ee4565b95613436565b61069f565b612ee69250612ee1612edc612fa5612eeb97612f76612f7695610585565b9360ff61069f565b6040906102e1612fcf6100ca9597969460608401908482036000860152612d2b565b966020830152565b612d0390612cf46100ca94612feb60405190565b63ca47c4eb60e01b602082015294859360248501612fad565b6102e16100ca9461083f61302a6060959998969960808601908682036000880152612d2b565b986020850152565b612cf46100ca94612d03939461304760405190565b63a7a8785360e01b602082015295869460248601613004565b613072906001600160a01b0316612a45565b01906001600160a01b0382116105f557565b94919360009381156131705761309a8684612aa3565b8410156130ff575085908394506000146130e157612a92906130bf6130dd9484613841565b926130d7846130d2610a4d610a3e610623565b612a37565b90612a65565b9293565b6130f26130dd93836130f993613811565b8092612aa3565b93613060565b9592509093925060001461314157613133919061312d90613127836130d2600160601b610657565b85612a65565b92612aa3565b6130dd610a4d610a3e610623565b8161316061315a613166946130d2610a4d610a3e610623565b85612aa3565b93612a65565b6130dd6000610657565b61317b878785612a65565b61309a565b949391612daf906100ca946131ae6131a660609560808b01908b820360008d0152612d2b565b9260208a0152565b8782036040890152612d2b565b612cf46100ca94612d0393946131d060405190565b63c67ea9d160e01b602082015295869460248601613180565b919291906000906000198184099281810293848082109103039261320d600061062d565b841461330f57868410156132eb5792866100c39697936132579361326a96500980860395109003600161324484196108118361062d565b8416808095049604938060000304010290565b179161326a61326e8261326a600361062d565b0290565b61329f6132e56132df6132d06132c16132b26132a360029761328f8961062d565b1861326a8b820261329f8b61062d565b0390565b61326a8a820261329f8a61062d565b61326a89820261329f8961062d565b61326a88820261329f8861062d565b61326a87820261329f8761062d565b80950290565b9161062d565b8684610ad66132f960405190565b631dcf306360e21b8152928392600484016102ce565b50505050916100c391926122ed565b60001981146105f55760010190565b91929161333b8483836131e9565b91829480156122f75761335791613352600061062d565b930990565b1161335f5750565b9091506100c3906133736000198210612bdd565b61331e565b6101969061338c6105d56100c39460ff1690565b901d90565b6133a16100c36100c39260030b90565b60000b90565b61061d6100c36100c39260000b90565b906100c36133eb6133e66133d46133ce6008610610565b86613378565b946133e0610100610585565b90612bc6565b613391565b6133a7565b6100ca9060016138a3565b6100c36100c36100c39267ffffffffffffffff1690565b6100c36100c36100c39263ffffffff1690565b6100c36100c36100c39261ffff1690565b90600061344d6134458261062d565b845b11612bdd565b61345760ff610610565b806134686001600160801b036111a1565b851661347661064e8561062d565b1115613650575061348b90610a386080610610565b61349c67ffffffffffffffff6133fb565b84166134aa61064e8461062d565b111561363b576134be90610a386040610610565b6134cb63ffffffff613412565b84166134d961064e8461062d565b1115613626576134ed90610a386020610610565b6134f861ffff613425565b841661350661064e8461062d565b11156136115761351a90610a386010610610565b61352460ff612306565b841661353261064e8461062d565b11156135fc5761354690610a386008610610565b613550600f61062d565b841661355e61064e8461062d565b11156135e75761357290610a386004610610565b61357c600361062d565b841661358a61064e8461062d565b11156135cd5761064e6135a46135b792610a386002610610565b945b6135b0600161062d565b169261062d565b116135be57565b906100c390610a386001610610565b9261064e6135e26135b7926126846002610610565b6135a6565b926135f6906126846004610610565b92613572565b9261360b906126846008610610565b92613546565b92613620906126846010610610565b9261351a565b92613635906126846020610610565b926134ed565b9261364a906126846040610610565b926134be565b9361366091506126846080610610565b9261348b565b6136729060ff166106a7565b019060ff82116105f557565b9060009182613696613690600061062d565b83613447565b6136a3600160801b61062d565b8210156137e3575b506136b9600160401b61062d565b8110156137cc575b6136cf64010000000061062d565b8110156137b5575b6136e36201000061062d565b81101561379e575b6136f661010061062d565b811015613787575b613708601061062d565b811015613770575b61371a600461062d565b81101561374c575b61372f61064e600261062d565b101561373757565b906100c3906137466001610610565b90613666565b61376a9061376461375d6002610610565b80926112ce565b93613666565b91613722565b6137819061376461375d6004610610565b91613710565b6137989061376461375d6008610610565b916136fe565b6137af9061376461375d6010610610565b916136eb565b6137c69061376461375d6020610610565b916136d7565b6137dd9061376461375d6040610610565b916136c1565b92506137f69061376461375d6080610610565b91386136ab565b610128906106526107336100c39460ff1690565b6100c39261383b613836610a4d94613827600090565b50613830610623565b906137fd565b6111a1565b9161332d565b6100c391610a4d9161383b613836613857610623565b61386581610a48600161062d565b936137fd565b600080916138816a636f6e736f6c652e6c6f6790565b602082519201905afa50565b634e487b7160e01b600052605160045260246000fd5b60010361388d576100ca9061386b56fe20202020202020202020205b44454255475d3a20537572653a20707269636550a26469706673582212206b310da5df28853bbdc43e4878c8e0754fcddce5aaae3052a4ca8eb01954496864736f6c63430008180033","opcodes":"PUSH1 0xC0 PUSH1 0x40 MSTORE CALLVALUE PUSH3 0x45 JUMPI PUSH3 0x22 PUSH3 0x18 PUSH3 0x13B JUMP JUMPDEST SWAP3 SWAP2 SWAP1 SWAP2 PUSH3 0x232 JUMP JUMPDEST PUSH1 0x40 MLOAD PUSH2 0x3909 PUSH3 0x268 DUP3 CODECOPY PUSH1 0x80 MLOAD DUP2 PUSH1 0xE1 ADD MSTORE PUSH1 0xA0 MLOAD DUP2 PUSH2 0x424 ADD MSTORE PUSH2 0x3909 SWAP1 RETURN JUMPDEST PUSH1 0x0 DUP1 REVERT JUMPDEST PUSH4 0x4E487B71 PUSH1 0xE0 SHL PUSH1 0x0 MSTORE PUSH1 0x41 PUSH1 0x4 MSTORE PUSH1 0x24 PUSH1 0x0 REVERT JUMPDEST SWAP1 PUSH1 0x1F ADD PUSH1 0x1F NOT AND DUP2 ADD SWAP1 DUP2 LT PUSH1 0x1 PUSH1 0x1 PUSH1 0x40 SHL SUB DUP3 GT OR PUSH3 0x82 JUMPI PUSH1 0x40 MSTORE JUMP JUMPDEST PUSH3 0x4A JUMP JUMPDEST SWAP1 PUSH3 0x9F PUSH3 0x97 PUSH1 0x40 MLOAD SWAP1 JUMP JUMPDEST SWAP3 DUP4 PUSH3 0x60 JUMP JUMPDEST JUMP JUMPDEST SWAP1 JUMP JUMPDEST PUSH1 0x1 PUSH1 0x1 PUSH1 0xA0 SHL SUB DUP2 AND JUMPDEST SUB PUSH3 0x45 JUMPI JUMP JUMPDEST SWAP1 POP MLOAD SWAP1 PUSH3 0x9F DUP3 PUSH3 0xA4 JUMP JUMPDEST DUP1 PUSH3 0xAF JUMP JUMPDEST SWAP1 POP MLOAD SWAP1 PUSH3 0x9F DUP3 PUSH3 0xC6 JUMP JUMPDEST PUSH3 0xAF DUP2 PUSH1 0x3 SIGNEXTEND SWAP1 JUMP JUMPDEST SWAP1 POP MLOAD SWAP1 PUSH3 0x9F DUP3 PUSH3 0xDC JUMP JUMPDEST PUSH1 0x80 DUP2 DUP4 SUB SLT PUSH3 0x45 JUMPI PUSH3 0x10D DUP3 DUP3 PUSH3 0xB7 JUMP JUMPDEST SWAP3 PUSH3 0xA1 PUSH3 0x121 DUP5 PUSH1 0x20 DUP6 ADD PUSH3 0xB7 JUMP JUMPDEST SWAP4 PUSH1 0x60 PUSH3 0x133 DUP3 PUSH1 0x40 DUP8 ADD PUSH3 0xCD JUMP JUMPDEST SWAP5 ADD PUSH3 0xE7 JUMP JUMPDEST PUSH3 0x15E PUSH3 0x3B71 DUP1 CODESIZE SUB DUP1 PUSH3 0x152 DUP2 PUSH3 0x88 JUMP JUMPDEST SWAP3 DUP4 CODECOPY DUP2 ADD SWAP1 PUSH3 0xF6 JUMP JUMPDEST SWAP1 SWAP2 SWAP3 SWAP4 JUMP JUMPDEST PUSH3 0xA1 PUSH1 0x40 PUSH3 0x88 JUMP JUMPDEST SWAP1 PUSH1 0x0 NOT SWAP1 JUMPDEST SWAP2 DUP2 NOT AND SWAP2 AND OR SWAP1 JUMP JUMPDEST PUSH3 0xA1 PUSH3 0xA1 PUSH3 0xA1 SWAP3 SWAP1 JUMP JUMPDEST SWAP1 PUSH3 0x1A4 PUSH3 0xA1 PUSH3 0x1AC SWAP3 PUSH3 0x180 JUMP JUMPDEST DUP3 SLOAD PUSH3 0x170 JUMP JUMPDEST SWAP1 SSTORE JUMP JUMPDEST SWAP1 PUSH4 0xFFFFFFFF SWAP1 PUSH3 0x176 JUMP JUMPDEST PUSH3 0x1D0 PUSH3 0xA1 PUSH3 0xA1 SWAP3 PUSH1 0x3 SIGNEXTEND SWAP1 JUMP JUMPDEST PUSH1 0x3 SIGNEXTEND SWAP1 JUMP JUMPDEST SWAP1 PUSH3 0x1EA PUSH3 0xA1 PUSH3 0x1AC SWAP3 PUSH3 0x1BD JUMP JUMPDEST DUP3 SLOAD PUSH3 0x1B0 JUMP JUMPDEST PUSH1 0x1 PUSH3 0x21E PUSH1 0x20 PUSH3 0x9F SWAP5 PUSH3 0x216 PUSH3 0x20F PUSH1 0x0 DUP4 ADD MLOAD SWAP1 JUMP JUMPDEST DUP7 PUSH3 0x190 JUMP JUMPDEST ADD MLOAD PUSH1 0x3 SIGNEXTEND SWAP1 JUMP JUMPDEST SWAP2 ADD PUSH3 0x1D6 JUMP JUMPDEST SWAP1 PUSH3 0x9F SWAP2 PUSH3 0x1F2 JUMP JUMPDEST PUSH1 0x80 MSTORE PUSH1 0xA0 MSTORE PUSH3 0x9F SWAP2 PUSH3 0x25F SWAP1 PUSH3 0x255 PUSH3 0x250 PUSH3 0x164 JUMP JUMPDEST SWAP4 DUP5 MSTORE JUMP JUMPDEST PUSH1 0x3 SIGNEXTEND PUSH1 0x20 DUP4 ADD MSTORE JUMP JUMPDEST PUSH1 0x0 PUSH3 0x226 JUMP INVALID PUSH1 0x80 PUSH1 0x40 MSTORE PUSH1 0x4 CALLDATASIZE LT ISZERO PUSH2 0x12 JUMPI PUSH1 0x0 DUP1 REVERT JUMPDEST PUSH1 0x0 CALLDATALOAD PUSH1 0xE0 SHR DUP1 PUSH4 0xDFE1681 EQ PUSH2 0xA2 JUMPI DUP1 PUSH4 0x1A686502 EQ PUSH2 0x9D JUMPI DUP1 PUSH4 0x1A88BC66 EQ PUSH2 0x98 JUMPI DUP1 PUSH4 0x56B4B80D EQ PUSH2 0x93 JUMPI DUP1 PUSH4 0xBC197C81 EQ PUSH2 0x8E JUMPI DUP1 PUSH4 0xD21220A7 EQ PUSH2 0x89 JUMPI DUP1 PUSH4 0xD456B5DD EQ PUSH2 0x84 JUMPI DUP1 PUSH4 0xDD42D4C6 EQ PUSH2 0x7F JUMPI PUSH4 0xF23A6E61 SUB PUSH2 0xB2 JUMPI PUSH2 0x563 JUMP JUMPDEST PUSH2 0x4E7 JUMP JUMPDEST PUSH2 0x473 JUMP JUMPDEST PUSH2 0x40F JUMP JUMPDEST PUSH2 0x3CF JUMP JUMPDEST PUSH2 0x2E5 JUMP JUMPDEST PUSH2 0x1BB JUMP JUMPDEST PUSH2 0x14B JUMP JUMPDEST PUSH2 0xCC JUMP JUMPDEST PUSH1 0x0 SWAP2 SUB SLT PUSH2 0xB2 JUMPI JUMP JUMPDEST PUSH1 0x0 DUP1 REVERT JUMPDEST PUSH1 0x1 PUSH1 0x1 PUSH1 0xA0 SHL SUB AND SWAP1 JUMP JUMPDEST SWAP1 JUMP JUMPDEST SWAP1 MSTORE JUMP JUMPDEST JUMP JUMPDEST CALLVALUE PUSH2 0xB2 JUMPI PUSH2 0xDC CALLDATASIZE PUSH1 0x4 PUSH2 0xA7 JUMP JUMPDEST PUSH2 0x11B PUSH32 0x0 JUMPDEST PUSH1 0x40 MLOAD SWAP2 DUP3 SWAP2 DUP3 PUSH1 0x1 PUSH1 0x1 PUSH1 0xA0 SHL SUB SWAP1 SWAP2 AND DUP2 MSTORE PUSH1 0x20 ADD SWAP1 JUMP JUMPDEST SUB SWAP1 RETURN JUMPDEST PUSH2 0xC3 SWAP2 PUSH1 0x8 MUL SHR JUMPDEST PUSH1 0x1 PUSH1 0x1 PUSH1 0x80 SHL SUB AND SWAP1 JUMP JUMPDEST SWAP1 PUSH2 0xC3 SWAP2 SLOAD PUSH2 0x11F JUMP JUMPDEST PUSH2 0xC3 PUSH1 0x0 PUSH1 0x5 PUSH2 0x134 JUMP JUMPDEST CALLVALUE PUSH2 0xB2 JUMPI PUSH2 0x15B CALLDATASIZE PUSH1 0x4 PUSH2 0xA7 JUMP JUMPDEST PUSH2 0x11B PUSH2 0x166 PUSH2 0x13F JUMP JUMPDEST PUSH1 0x40 MLOAD SWAP2 DUP3 SWAP2 DUP3 PUSH1 0x1 PUSH1 0x1 PUSH1 0x80 SHL SUB SWAP1 SWAP2 AND DUP2 MSTORE PUSH1 0x20 ADD SWAP1 JUMP JUMPDEST PUSH2 0xC3 SWAP1 DUP2 JUMP JUMPDEST PUSH2 0xC3 SWAP1 SLOAD PUSH2 0x180 JUMP JUMPDEST PUSH2 0xC3 SWAP1 JUMPDEST PUSH1 0x3 SIGNEXTEND SWAP1 JUMP JUMPDEST PUSH2 0xC3 SWAP1 SLOAD PUSH2 0x191 JUMP JUMPDEST PUSH2 0x1B0 PUSH1 0x0 PUSH2 0x187 JUMP JUMPDEST SWAP1 PUSH2 0xC3 PUSH1 0x1 PUSH2 0x19C JUMP JUMPDEST CALLVALUE PUSH2 0xB2 JUMPI PUSH2 0x1CB CALLDATASIZE PUSH1 0x4 PUSH2 0xA7 JUMP JUMPDEST PUSH2 0x1D3 PUSH2 0x1A6 JUMP JUMPDEST SWAP1 PUSH2 0x11B PUSH2 0x1E0 PUSH1 0x40 MLOAD SWAP1 JUMP JUMPDEST SWAP3 DUP4 SWAP3 DUP4 SWAP1 DUP2 MSTORE PUSH1 0x3 SWAP2 SWAP1 SWAP2 SIGNEXTEND PUSH1 0x20 DUP3 ADD MSTORE PUSH1 0x40 ADD SWAP1 JUMP JUMPDEST PUSH1 0x1 PUSH1 0x1 PUSH1 0xA0 SHL SUB DUP2 AND JUMPDEST SUB PUSH2 0xB2 JUMPI JUMP JUMPDEST SWAP1 POP CALLDATALOAD SWAP1 PUSH2 0xCA DUP3 PUSH2 0x1F8 JUMP JUMPDEST PUSH2 0x203 DUP2 PUSH1 0x3 SIGNEXTEND SWAP1 JUMP JUMPDEST SWAP1 POP CALLDATALOAD SWAP1 PUSH2 0xCA DUP3 PUSH2 0x217 JUMP JUMPDEST PUSH1 0x1 PUSH1 0x1 PUSH1 0x80 SHL SUB DUP2 AND PUSH2 0x203 JUMP JUMPDEST SWAP1 POP CALLDATALOAD SWAP1 PUSH2 0xCA DUP3 PUSH2 0x22E JUMP JUMPDEST SWAP1 SWAP2 DUP3 PUSH1 0x1F DUP4 ADD SLT ISZERO PUSH2 0xB2 JUMPI DUP2 CALLDATALOAD SWAP2 PUSH8 0xFFFFFFFFFFFFFFFF DUP4 GT PUSH2 0xB2 JUMPI PUSH1 0x20 ADD SWAP3 PUSH1 0x1 DUP4 MUL DUP5 ADD GT PUSH2 0xB2 JUMPI JUMP JUMPDEST SWAP1 PUSH1 0x80 DUP3 DUP3 SUB SLT PUSH2 0xB2 JUMPI PUSH2 0x28F DUP2 DUP4 PUSH2 0x20A JUMP JUMPDEST SWAP3 PUSH2 0x29D DUP3 PUSH1 0x20 DUP6 ADD PUSH2 0x221 JUMP JUMPDEST SWAP3 PUSH2 0x2AB DUP4 PUSH1 0x40 DUP4 ADD PUSH2 0x23D JUMP JUMPDEST SWAP3 PUSH1 0x60 DUP3 ADD CALLDATALOAD PUSH8 0xFFFFFFFFFFFFFFFF DUP2 GT PUSH2 0xB2 JUMPI PUSH2 0x2CA SWAP3 ADD PUSH2 0x24A JUMP JUMPDEST SWAP1 SWAP2 JUMP JUMPDEST SWAP1 DUP2 MSTORE PUSH1 0x40 DUP2 ADD SWAP3 SWAP2 PUSH2 0xCA SWAP2 PUSH1 0x20 ADD MSTORE JUMP JUMPDEST ADD MSTORE JUMP JUMPDEST CALLVALUE PUSH2 0xB2 JUMPI PUSH2 0x301 PUSH2 0x2F8 CALLDATASIZE PUSH1 0x4 PUSH2 0x27A JUMP JUMPDEST SWAP4 SWAP3 SWAP1 SWAP3 PUSH2 0x85F JUMP JUMPDEST SWAP1 PUSH2 0x11B PUSH2 0x30E PUSH1 0x40 MLOAD SWAP1 JUMP JUMPDEST SWAP3 DUP4 SWAP3 DUP4 PUSH2 0x2CE JUMP JUMPDEST SWAP1 SWAP2 DUP3 PUSH1 0x1F DUP4 ADD SLT ISZERO PUSH2 0xB2 JUMPI DUP2 CALLDATALOAD SWAP2 PUSH8 0xFFFFFFFFFFFFFFFF DUP4 GT PUSH2 0xB2 JUMPI PUSH1 0x20 ADD SWAP3 PUSH1 0x20 DUP4 MUL DUP5 ADD GT PUSH2 0xB2 JUMPI JUMP JUMPDEST SWAP2 PUSH1 0xA0 DUP4 DUP4 SUB SLT PUSH2 0xB2 JUMPI PUSH2 0x35C DUP3 DUP5 PUSH2 0x20A JUMP JUMPDEST SWAP3 PUSH2 0x36A DUP4 PUSH1 0x20 DUP4 ADD PUSH2 0x20A JUMP JUMPDEST SWAP3 PUSH1 0x40 DUP3 ADD CALLDATALOAD PUSH8 0xFFFFFFFFFFFFFFFF DUP2 GT PUSH2 0xB2 JUMPI DUP2 PUSH2 0x38B SWAP2 DUP5 ADD PUSH2 0x317 JUMP JUMPDEST SWAP3 SWAP1 SWAP4 PUSH1 0x60 DUP3 ADD CALLDATALOAD PUSH8 0xFFFFFFFFFFFFFFFF DUP2 GT PUSH2 0xB2 JUMPI DUP4 PUSH2 0x3AE SWAP2 DUP5 ADD PUSH2 0x317 JUMP JUMPDEST SWAP3 SWAP1 SWAP4 PUSH1 0x80 DUP3 ADD CALLDATALOAD PUSH8 0xFFFFFFFFFFFFFFFF DUP2 GT PUSH2 0xB2 JUMPI PUSH2 0x2CA SWAP3 ADD PUSH2 0x24A JUMP JUMPDEST CALLVALUE PUSH2 0xB2 JUMPI PUSH2 0x11B PUSH2 0x3F4 PUSH2 0x3E5 CALLDATASIZE PUSH1 0x4 PUSH2 0x347 JUMP JUMPDEST SWAP7 SWAP6 SWAP1 SWAP6 SWAP5 SWAP2 SWAP5 SWAP4 SWAP3 SWAP4 PUSH2 0xB08 JUMP JUMPDEST PUSH1 0x40 MLOAD SWAP2 DUP3 SWAP2 DUP3 PUSH1 0x1 PUSH1 0x1 PUSH1 0xE0 SHL SUB NOT SWAP1 SWAP2 AND DUP2 MSTORE PUSH1 0x20 ADD SWAP1 JUMP JUMPDEST CALLVALUE PUSH2 0xB2 JUMPI PUSH2 0x41F CALLDATASIZE PUSH1 0x4 PUSH2 0xA7 JUMP JUMPDEST PUSH2 0x11B PUSH32 0x0 PUSH2 0x101 JUMP JUMPDEST PUSH2 0xC3 SWAP2 PUSH1 0x8 MUL SHR PUSH1 0x1 PUSH1 0x1 PUSH1 0xA0 SHL SUB AND SWAP1 JUMP JUMPDEST SWAP1 PUSH2 0xC3 SWAP2 SLOAD PUSH2 0x448 JUMP JUMPDEST PUSH2 0xC3 PUSH1 0x0 PUSH1 0x6 PUSH2 0x45C JUMP JUMPDEST CALLVALUE PUSH2 0xB2 JUMPI PUSH2 0x483 CALLDATASIZE PUSH1 0x4 PUSH2 0xA7 JUMP JUMPDEST PUSH2 0x11B PUSH2 0x101 PUSH2 0x467 JUMP JUMPDEST DUP1 PUSH2 0x203 JUMP JUMPDEST SWAP1 POP CALLDATALOAD SWAP1 PUSH2 0xCA DUP3 PUSH2 0x48E JUMP JUMPDEST DUP1 ISZERO ISZERO PUSH2 0x203 JUMP JUMPDEST SWAP1 POP CALLDATALOAD SWAP1 PUSH2 0xCA DUP3 PUSH2 0x4A1 JUMP JUMPDEST SWAP1 PUSH1 0x80 DUP3 DUP3 SUB SLT PUSH2 0xB2 JUMPI PUSH2 0x4CB DUP2 DUP4 PUSH2 0x494 JUMP JUMPDEST SWAP3 PUSH2 0x4D9 DUP3 PUSH1 0x20 DUP6 ADD PUSH2 0x494 JUMP JUMPDEST SWAP3 PUSH2 0x2AB DUP4 PUSH1 0x40 DUP4 ADD PUSH2 0x4A9 JUMP JUMPDEST CALLVALUE PUSH2 0xB2 JUMPI PUSH2 0x301 PUSH2 0x4FA CALLDATASIZE PUSH1 0x4 PUSH2 0x4B6 JUMP JUMPDEST SWAP4 SWAP3 SWAP1 SWAP3 PUSH2 0x1760 JUMP JUMPDEST SWAP2 SWAP1 SWAP2 PUSH1 0xA0 DUP2 DUP5 SUB SLT PUSH2 0xB2 JUMPI PUSH2 0x51A DUP4 DUP3 PUSH2 0x20A JUMP JUMPDEST SWAP3 PUSH2 0x528 DUP2 PUSH1 0x20 DUP5 ADD PUSH2 0x20A JUMP JUMPDEST SWAP3 PUSH2 0x536 DUP3 PUSH1 0x40 DUP6 ADD PUSH2 0x494 JUMP JUMPDEST SWAP3 PUSH2 0x544 DUP4 PUSH1 0x60 DUP4 ADD PUSH2 0x494 JUMP JUMPDEST SWAP3 PUSH1 0x80 DUP3 ADD CALLDATALOAD PUSH8 0xFFFFFFFFFFFFFFFF DUP2 GT PUSH2 0xB2 JUMPI PUSH2 0x2CA SWAP3 ADD PUSH2 0x24A JUMP JUMPDEST CALLVALUE PUSH2 0xB2 JUMPI PUSH2 0x11B PUSH2 0x3F4 PUSH2 0x579 CALLDATASIZE PUSH1 0x4 PUSH2 0x503 JUMP JUMPDEST SWAP5 SWAP4 SWAP1 SWAP4 SWAP3 SWAP2 SWAP3 PUSH2 0x21D5 JUMP JUMPDEST PUSH2 0x196 PUSH2 0xC3 PUSH2 0xC3 SWAP3 SWAP1 JUMP JUMPDEST PUSH2 0xC3 PUSH3 0x8D89E8 PUSH2 0x585 JUMP JUMPDEST PUSH2 0xC3 PUSH3 0x727618 PUSH2 0x585 JUMP JUMPDEST PUSH2 0x128 PUSH2 0xC3 PUSH2 0xC3 SWAP3 SWAP1 JUMP JUMPDEST PUSH4 0x4E487B71 PUSH1 0xE0 SHL PUSH1 0x0 MSTORE PUSH1 0x11 PUSH1 0x4 MSTORE PUSH1 0x24 PUSH1 0x0 REVERT JUMPDEST PUSH2 0x5DC SWAP1 PUSH1 0x3 SIGNEXTEND JUMPDEST SWAP2 PUSH1 0x3 SIGNEXTEND SWAP1 JUMP JUMPDEST SWAP1 SUB SWAP1 PUSH4 0x7FFFFFFF NOT DUP3 SLT PUSH4 0x7FFFFFFF DUP4 SGT OR PUSH2 0x5F5 JUMPI JUMP JUMPDEST PUSH2 0x5B7 JUMP JUMPDEST PUSH2 0x60A PUSH2 0xC3 PUSH2 0xC3 SWAP3 PUSH1 0x3 SIGNEXTEND SWAP1 JUMP JUMPDEST PUSH1 0x2 SIGNEXTEND SWAP1 JUMP JUMPDEST PUSH2 0x61D PUSH2 0xC3 PUSH2 0xC3 SWAP3 SWAP1 JUMP JUMPDEST PUSH1 0xFF AND SWAP1 JUMP JUMPDEST PUSH2 0xC3 PUSH1 0x60 PUSH2 0x610 JUMP JUMPDEST PUSH2 0xC3 PUSH2 0xC3 PUSH2 0xC3 SWAP3 SWAP1 JUMP JUMPDEST PUSH2 0xC3 SWAP1 PUSH2 0x652 PUSH2 0x64E PUSH2 0xC3 SWAP5 PUSH1 0xFF AND SWAP1 JUMP JUMPDEST SWAP2 SWAP1 JUMP JUMPDEST SWAP1 SHL SWAP1 JUMP JUMPDEST PUSH2 0xB7 PUSH2 0xC3 PUSH2 0xC3 SWAP3 SWAP1 JUMP JUMPDEST PUSH2 0x196 PUSH2 0xC3 PUSH2 0xC3 SWAP3 PUSH1 0x3 SIGNEXTEND SWAP1 JUMP JUMPDEST SWAP1 PUSH2 0x67E SWAP1 PUSH2 0x664 JUMP JUMPDEST PUSH1 0x0 MSTORE PUSH1 0x20 MSTORE PUSH1 0x40 PUSH1 0x0 KECCAK256 SWAP1 JUMP JUMPDEST PUSH2 0xC3 SWAP1 PUSH2 0x61D JUMP JUMPDEST PUSH2 0xC3 SWAP1 SLOAD PUSH2 0x68C JUMP JUMPDEST PUSH2 0x6AE SWAP1 PUSH1 0xFF AND JUMPDEST SWAP2 PUSH1 0xFF AND SWAP1 JUMP JUMPDEST SWAP1 SUB SWAP1 PUSH1 0xFF DUP3 GT PUSH2 0x5F5 JUMPI JUMP JUMPDEST SWAP1 PUSH1 0x1 PUSH1 0x1 PUSH1 0xA0 SHL SUB SWAP1 JUMPDEST SWAP2 DUP2 NOT AND SWAP2 AND OR SWAP1 JUMP JUMPDEST PUSH2 0xC3 SWAP1 PUSH2 0xB7 SWAP1 PUSH1 0x1 PUSH1 0x1 PUSH1 0xA0 SHL SUB AND DUP3 JUMP JUMPDEST SWAP1 PUSH2 0x6F4 PUSH2 0xC3 PUSH2 0x6FB SWAP3 PUSH2 0x6D0 JUMP JUMPDEST DUP3 SLOAD PUSH2 0x6BB JUMP JUMPDEST SWAP1 SSTORE JUMP JUMPDEST PUSH2 0xC3 SWAP1 PUSH2 0xB7 JUMP JUMPDEST PUSH2 0xC3 SWAP1 SLOAD PUSH2 0x6FF JUMP JUMPDEST PUSH2 0xC3 SWAP1 PUSH2 0x128 JUMP JUMPDEST PUSH2 0xC3 SWAP1 SLOAD PUSH2 0x712 JUMP JUMPDEST PUSH2 0x740 SWAP1 PUSH1 0x1 PUSH1 0x1 PUSH1 0x80 SHL SUB AND JUMPDEST SWAP2 PUSH1 0x1 PUSH1 0x1 PUSH1 0x80 SHL SUB AND SWAP1 JUMP JUMPDEST ADD SWAP1 PUSH1 0x1 PUSH1 0x1 PUSH1 0x80 SHL SUB DUP3 GT PUSH2 0x5F5 JUMPI JUMP JUMPDEST SWAP1 PUSH1 0x1 PUSH1 0x1 PUSH1 0x80 SHL SUB SWAP1 PUSH2 0x6C6 JUMP JUMPDEST PUSH2 0x128 PUSH2 0xC3 PUSH2 0xC3 SWAP3 PUSH1 0x1 PUSH1 0x1 PUSH1 0x80 SHL SUB AND SWAP1 JUMP JUMPDEST SWAP1 PUSH2 0x787 PUSH2 0xC3 PUSH2 0x6FB SWAP3 PUSH2 0x761 JUMP JUMPDEST DUP3 SLOAD PUSH2 0x752 JUMP JUMPDEST PUSH2 0xC3 SWAP1 PUSH2 0x6D0 JUMP JUMPDEST PUSH2 0xC3 SWAP1 PUSH2 0x78E JUMP JUMPDEST PUSH4 0x4E487B71 PUSH1 0xE0 SHL PUSH1 0x0 MSTORE PUSH1 0x41 PUSH1 0x4 MSTORE PUSH1 0x24 PUSH1 0x0 REVERT JUMPDEST SWAP1 PUSH1 0x1F ADD PUSH1 0x1F NOT AND DUP2 ADD SWAP1 DUP2 LT PUSH8 0xFFFFFFFFFFFFFFFF DUP3 GT OR PUSH2 0x7D8 JUMPI PUSH1 0x40 MSTORE JUMP JUMPDEST PUSH2 0x7A0 JUMP JUMPDEST SWAP1 DUP3 PUSH1 0x0 SWAP4 SWAP3 DUP3 CALLDATACOPY ADD MSTORE JUMP JUMPDEST SWAP2 SWAP1 PUSH2 0x807 DUP2 PUSH2 0x800 DUP2 PUSH2 0x811 SWAP6 PUSH1 0x20 SWAP2 DUP2 MSTORE ADD SWAP1 JUMP JUMPDEST DUP1 SWAP6 PUSH2 0x7DD JUMP JUMPDEST PUSH1 0x1F ADD PUSH1 0x1F NOT AND SWAP1 JUMP JUMPDEST ADD SWAP1 JUMP JUMPDEST SWAP1 SWAP4 SWAP2 PUSH2 0xC3 SWAP6 SWAP4 PUSH2 0x83F PUSH2 0x846 SWAP3 PUSH2 0x838 PUSH1 0x80 DUP7 ADD SWAP9 PUSH1 0x0 DUP8 ADD SWAP1 PUSH1 0x3 SIGNEXTEND SWAP1 MSTORE JUMP JUMPDEST PUSH1 0x20 DUP6 ADD MSTORE JUMP JUMPDEST PUSH1 0x40 DUP4 ADD MSTORE JUMP JUMPDEST PUSH1 0x60 DUP2 DUP6 SUB SWAP2 ADD MSTORE PUSH2 0x7E9 JUMP JUMPDEST PUSH1 0x40 MLOAD RETURNDATASIZE PUSH1 0x0 DUP3 RETURNDATACOPY RETURNDATASIZE SWAP1 REVERT JUMPDEST SWAP4 SWAP5 SWAP3 SWAP1 PUSH1 0x0 SWAP6 DUP7 SWAP4 PUSH2 0x873 PUSH2 0x196 PUSH2 0x592 JUMP JUMPDEST PUSH2 0x87D DUP5 PUSH1 0x3 SIGNEXTEND SWAP1 JUMP JUMPDEST SGT DUP1 ISZERO PUSH2 0xAEC JUMPI JUMPDEST PUSH2 0xADA JUMPI PUSH1 0x0 SWAP5 PUSH2 0x895 DUP7 PUSH2 0x5AA JUMP JUMPDEST PUSH1 0x1 PUSH1 0x1 PUSH1 0x80 SHL SUB DUP4 AND EQ PUSH2 0xAC4 JUMPI PUSH2 0x8B0 PUSH1 0x1 DUP8 ADD PUSH2 0x19C JUMP JUMPDEST SWAP9 PUSH2 0x8D6 PUSH2 0x8D1 PUSH2 0x8CC PUSH2 0x8C6 PUSH3 0x800000 PUSH2 0x585 JUMP JUMPDEST DUP9 PUSH2 0x5CD JUMP JUMPDEST PUSH2 0x5FA JUMP JUMPDEST PUSH2 0x2316 JUMP JUMPDEST SWAP10 PUSH2 0x8E1 DUP2 PUSH1 0x3 SIGNEXTEND SWAP1 JUMP JUMPDEST PUSH2 0x8EB DUP8 PUSH1 0x3 SIGNEXTEND SWAP1 JUMP JUMPDEST SUB PUSH2 0xA60 JUMPI POP POP POP PUSH2 0x908 DUP6 PUSH2 0x902 DUP6 PUSH1 0x2 PUSH2 0x674 JUMP JUMPDEST ADD PUSH2 0x695 JUMP JUMPDEST ISZERO PUSH2 0xA0B JUMPI PUSH2 0x970 SWAP1 PUSH2 0x96B DUP5 PUSH2 0x935 PUSH2 0x92E PUSH2 0x925 PUSH1 0x6 PUSH2 0x708 JUMP JUMPDEST SWAP13 JUMPDEST DUP14 DUP7 PUSH2 0x2A65 JUMP JUMPDEST SWAP12 DUP5 PUSH2 0x2AA3 JUMP JUMPDEST SWAP10 PUSH2 0x953 PUSH2 0x94C DUP6 PUSH2 0x947 PUSH1 0x5 PUSH2 0x71B JUMP JUMPDEST PUSH2 0x725 JUMP JUMPDEST PUSH1 0x5 PUSH2 0x777 JUMP JUMPDEST PUSH2 0x95F DUP5 DUP4 PUSH1 0x2 PUSH2 0x2B29 JUMP JUMPDEST PUSH2 0x9F1 JUMPI JUMPDEST PUSH1 0x3 PUSH2 0x2C71 JUMP JUMPDEST PUSH2 0x2CBB JUMP JUMPDEST PUSH2 0x981 PUSH2 0x97C CALLER PUSH2 0x797 JUMP JUMPDEST PUSH2 0x797 JUMP JUMPDEST DUP1 EXTCODESIZE ISZERO PUSH2 0xB2 JUMPI DUP8 DUP6 DUP1 SWAP5 PUSH2 0x9B4 DUP11 SWAP6 PUSH2 0x99A PUSH1 0x40 MLOAD SWAP1 JUMP JUMPDEST SWAP9 DUP10 SWAP8 DUP9 SWAP7 DUP8 SWAP6 PUSH4 0x196D73B7 PUSH1 0xE2 SHL DUP8 MSTORE PUSH1 0x4 DUP8 ADD PUSH2 0x815 JUMP JUMPDEST SUB SWAP3 GAS CALL DUP1 ISZERO PUSH2 0x9EC JUMPI PUSH2 0x9C6 JUMPI POP POP JUMP JUMPDEST DUP2 PUSH2 0xCA SWAP3 SWAP1 RETURNDATASIZE LT PUSH2 0x9E5 JUMPI JUMPDEST PUSH2 0x9DD DUP2 DUP4 PUSH2 0x7B6 JUMP JUMPDEST DUP2 ADD SWAP1 PUSH2 0xA7 JUMP JUMPDEST POP RETURNDATASIZE PUSH2 0x9D3 JUMP JUMPDEST PUSH2 0x853 JUMP JUMPDEST PUSH2 0xA06 PUSH2 0x9FE PUSH1 0x1 PUSH2 0x585 JUMP JUMPDEST DUP4 PUSH1 0x4 PUSH2 0x2BE4 JUMP JUMPDEST PUSH2 0x964 JUMP JUMPDEST PUSH2 0x970 SWAP1 PUSH2 0x96B DUP5 PUSH2 0x935 PUSH2 0x92E PUSH2 0xA5B SWAP13 PUSH2 0xA52 PUSH2 0xA4D PUSH2 0xA3E PUSH2 0xA2E PUSH2 0x623 JUMP JUMPDEST PUSH2 0xA38 PUSH1 0x1 PUSH2 0x610 JUMP JUMPDEST SWAP1 PUSH2 0x69F JUMP JUMPDEST PUSH2 0xA48 PUSH1 0x1 PUSH2 0x62D JUMP JUMPDEST PUSH2 0x63A JUMP JUMPDEST PUSH2 0x657 JUMP JUMPDEST SWAP14 DUP15 PUSH1 0x6 PUSH2 0x6E4 JUMP JUMPDEST PUSH2 0x927 JUMP JUMPDEST SWAP9 SWAP10 SWAP2 SWAP9 PUSH1 0x3 SIGNEXTEND PUSH2 0xA71 DUP7 PUSH1 0x3 SIGNEXTEND SWAP1 JUMP JUMPDEST SGT ISZERO PUSH2 0xA9A JUMPI POP SWAP1 PUSH2 0x96B DUP5 PUSH2 0xA94 PUSH2 0x970 SWAP5 PUSH2 0xA8D DUP11 PUSH2 0x657 JUMP JUMPDEST POP DUP5 PUSH2 0x2A01 JUMP JUMPDEST SWAP11 PUSH2 0x953 JUMP JUMPDEST SWAP9 SWAP8 POP POP PUSH2 0x970 SWAP1 PUSH2 0xAB0 PUSH2 0xA4D PUSH2 0xA3E PUSH2 0x623 JUMP JUMPDEST POP PUSH2 0x96B DUP5 PUSH2 0xABE DUP4 PUSH2 0x29E4 JUMP JUMPDEST SWAP10 PUSH2 0x953 JUMP JUMPDEST PUSH1 0x40 MLOAD PUSH4 0x200E8A9 PUSH1 0xE3 SHL DUP2 MSTORE PUSH1 0x4 SWAP1 REVERT JUMPDEST SUB SWAP1 REVERT JUMPDEST PUSH1 0x40 MLOAD PUSH4 0x3944550F PUSH1 0xE2 SHL DUP2 MSTORE PUSH1 0x4 SWAP1 REVERT JUMPDEST POP PUSH2 0xAF8 PUSH2 0x196 PUSH2 0x59E JUMP JUMPDEST PUSH2 0xB02 DUP5 PUSH1 0x3 SIGNEXTEND SWAP1 JUMP JUMPDEST SLT PUSH2 0x885 JUMP JUMPDEST POP POP POP POP POP POP POP POP PUSH2 0xB18 PUSH1 0x0 SWAP1 JUMP JUMPDEST POP PUSH4 0xBC197C81 PUSH1 0xE0 SHL SWAP1 JUMP JUMPDEST DUP2 DUP2 MUL SWAP3 SWAP2 DUP2 ISZERO SWAP2 DUP5 DIV EQ OR ISZERO PUSH2 0x5F5 JUMPI JUMP JUMPDEST SWAP2 PUSH1 0x0 NOT PUSH1 0x8 SWAP3 SWAP1 SWAP3 MUL SWAP2 DUP3 SHL SWAP2 SHL PUSH2 0x6C6 JUMP JUMPDEST SWAP2 SWAP1 PUSH2 0xB5C PUSH2 0xC3 PUSH2 0x6FB SWAP4 PUSH2 0x62D JUMP JUMPDEST SWAP1 DUP4 SLOAD PUSH2 0xB37 JUMP JUMPDEST PUSH2 0xCA SWAP2 PUSH1 0x0 SWAP2 PUSH2 0xB4B JUMP JUMPDEST DUP2 DUP2 LT PUSH2 0xB7B JUMPI POP POP JUMP JUMPDEST DUP1 PUSH2 0xB89 PUSH1 0x0 PUSH1 0x1 SWAP4 PUSH2 0xB64 JUMP JUMPDEST ADD PUSH2 0xB70 JUMP JUMPDEST SWAP2 SWAP1 SWAP2 DUP3 DUP3 LT PUSH2 0xB9E JUMPI POP POP POP JUMP JUMPDEST PUSH2 0xCA SWAP3 SWAP2 PUSH2 0xBB3 SWAP1 SWAP2 PUSH1 0x0 MSTORE PUSH1 0x20 PUSH1 0x0 KECCAK256 SWAP1 JUMP JUMPDEST SWAP2 DUP3 ADD SWAP2 ADD PUSH2 0xB70 JUMP JUMPDEST SWAP1 PUSH1 0x1 PUSH1 0x40 SHL DUP2 GT PUSH2 0x7D8 JUMPI DUP2 PUSH2 0xBD5 PUSH2 0xCA SWAP4 SLOAD SWAP1 JUMP JUMPDEST SWAP1 DUP3 DUP2 SSTORE PUSH2 0xB8F JUMP JUMPDEST PUSH1 0x0 PUSH2 0xCA SWAP2 PUSH2 0xBBD JUMP JUMPDEST PUSH4 0x4E487B71 PUSH1 0xE0 SHL PUSH1 0x0 MSTORE PUSH1 0x0 PUSH1 0x4 MSTORE PUSH1 0x24 PUSH1 0x0 REVERT JUMPDEST SWAP1 PUSH1 0x0 SUB PUSH2 0xC10 JUMPI PUSH2 0xCA SWAP1 PUSH2 0xBDE JUMP JUMPDEST PUSH2 0xBE9 JUMP JUMPDEST SWAP1 PUSH2 0xCA PUSH2 0xC22 PUSH1 0x40 MLOAD SWAP1 JUMP JUMPDEST SWAP3 DUP4 PUSH2 0x7B6 JUMP JUMPDEST PUSH2 0xC3 PUSH1 0x40 PUSH2 0xC15 JUMP JUMPDEST SWAP1 PUSH2 0xCA PUSH2 0xC5B PUSH1 0x1 PUSH2 0xC44 PUSH2 0xC29 JUMP JUMPDEST SWAP5 PUSH2 0xC55 PUSH2 0xC51 DUP3 PUSH2 0x187 JUMP JUMPDEST DUP8 MSTORE JUMP JUMPDEST ADD PUSH2 0x19C JUMP JUMPDEST PUSH1 0x3 SIGNEXTEND PUSH1 0x20 DUP5 ADD MSTORE JUMP JUMPDEST PUSH2 0xC3 SWAP1 PUSH2 0xC33 JUMP JUMPDEST PUSH2 0xC3 PUSH20 0xFFFD8963EFD1FC6A506488495D951D5263988D26 PUSH2 0x62D JUMP JUMPDEST PUSH2 0xC3 PUSH5 0x1000276A3 PUSH2 0x62D JUMP JUMPDEST ISZERO PUSH2 0xCA0 JUMPI JUMP JUMPDEST PUSH1 0x40 MLOAD PUSH3 0x461BCD PUSH1 0xE5 SHL DUP2 MSTORE PUSH1 0x20 PUSH1 0x4 DUP3 ADD MSTORE PUSH1 0x13 PUSH1 0x24 DUP3 ADD MSTORE PUSH19 0x496E76616C6964204C696D6974507269636521 PUSH1 0x68 SHL PUSH1 0x44 DUP3 ADD MSTORE PUSH1 0x64 SWAP1 REVERT JUMPDEST PUSH2 0xC3 PUSH1 0xA0 PUSH2 0xC15 JUMP JUMPDEST PUSH8 0xFFFFFFFFFFFFFFFF DUP2 GT PUSH2 0x7D8 JUMPI PUSH1 0x20 SWAP1 PUSH1 0x1F ADD PUSH1 0x1F NOT AND ADD SWAP1 JUMP JUMPDEST SWAP1 PUSH2 0xD14 PUSH2 0xD0F DUP4 PUSH2 0xCE5 JUMP JUMPDEST PUSH2 0xC15 JUMP JUMPDEST SWAP2 DUP3 MSTORE JUMP JUMPDEST PUSH2 0xD23 PUSH1 0x81 PUSH2 0xD02 JUMP JUMPDEST PUSH32 0x20202020202020202020205B44454255475D3A202A2A2A2A2A2A2A2A2A2A2A2A PUSH1 0x20 DUP3 ADD MSTORE PUSH32 0x2A2A2A2A2A2A2A2A2A2A2A2A2A2A2A2A2A2A2A2A2A2A2A2A2A2A2A2A2A2A2A2A PUSH1 0x40 DUP3 ADD DUP2 SWAP1 MSTORE PUSH32 0x2A2A2A2A2A2A2A2A20526F756E64202A2A2A2A2A2A2A2A2A2A2A2A2A2A2A2A2A PUSH1 0x60 DUP4 ADD MSTORE PUSH1 0x80 DUP3 ADD MSTORE PUSH1 0x15 PUSH1 0xF9 SHL PUSH1 0xA0 DUP3 ADD MSTORE SWAP1 JUMP JUMPDEST PUSH2 0xC3 PUSH2 0xD19 JUMP JUMPDEST PUSH2 0xC3 PUSH1 0xC0 PUSH2 0xC15 JUMP JUMPDEST PUSH2 0xDC3 PUSH2 0xDB1 JUMP JUMPDEST SWAP1 PUSH1 0x0 DUP3 MSTORE PUSH1 0x20 DUP1 DUP1 DUP1 DUP1 DUP1 DUP8 ADD PUSH1 0x0 DUP2 MSTORE ADD PUSH1 0x0 DUP2 MSTORE ADD PUSH1 0x0 DUP2 MSTORE ADD PUSH1 0x0 DUP2 MSTORE ADD PUSH1 0x0 SWAP1 MSTORE POP JUMP JUMPDEST PUSH2 0xC3 PUSH2 0xDBB JUMP JUMPDEST PUSH2 0xDFE PUSH1 0x33 PUSH2 0xD02 JUMP JUMPDEST PUSH32 0x20202020202020202020205B44454255475D3A202A2A2A2A2A2A2A2A20536561 PUSH1 0x20 DUP3 ADD MSTORE PUSH19 0x3931B41022BC32B1BABA329015151515151515 PUSH1 0x69 SHL PUSH1 0x40 DUP3 ADD MSTORE SWAP1 JUMP JUMPDEST PUSH2 0xC3 PUSH2 0xDF4 JUMP JUMPDEST PUSH2 0xC3 PUSH2 0xC3 PUSH2 0xC3 SWAP3 PUSH1 0x3 SIGNEXTEND SWAP1 JUMP JUMPDEST PUSH2 0xE65 PUSH1 0x13 PUSH2 0xD02 JUMP JUMPDEST PUSH19 0x10101010101010101010102DA222A12AA3AE9D PUSH1 0x69 SHL PUSH1 0x20 DUP3 ADD MSTORE SWAP1 JUMP JUMPDEST PUSH2 0xC3 PUSH2 0xE5B JUMP JUMPDEST PUSH2 0xE96 PUSH1 0x34 PUSH2 0xD02 JUMP JUMPDEST PUSH32 0x20202020202020202020205B44454255475D3A204E6F7420537572653A207072 PUSH1 0x20 DUP3 ADD MSTORE PUSH20 0x696365506F696E743E3D6C696D69745072696365 PUSH1 0x60 SHL PUSH1 0x40 DUP3 ADD MSTORE SWAP1 JUMP JUMPDEST PUSH2 0xC3 PUSH2 0xE8C JUMP JUMPDEST PUSH2 0xEF0 SWAP1 PUSH1 0x3 SIGNEXTEND PUSH2 0x5D5 JUMP JUMPDEST ADD SWAP1 PUSH4 0x7FFFFFFF DUP3 SGT PUSH4 0x7FFFFFFF NOT DUP4 SLT OR PUSH2 0x5F5 JUMPI JUMP JUMPDEST PUSH2 0xF12 PUSH1 0x30 PUSH2 0xD02 JUMP JUMPDEST PUSH1 0x0 DUP1 MLOAD PUSH1 0x20 PUSH2 0x38B4 DUP4 CODECOPY DUP2 MLOAD SWAP2 MSTORE PUSH1 0x20 DUP3 ADD MSTORE PUSH16 0x6F696E743C3D6C696D69745072696365 PUSH1 0x80 SHL PUSH1 0x40 DUP3 ADD MSTORE SWAP1 JUMP JUMPDEST PUSH2 0xC3 PUSH2 0xF08 JUMP JUMPDEST PUSH2 0xF54 PUSH1 0x2F PUSH2 0xD02 JUMP JUMPDEST PUSH1 0x0 DUP1 MLOAD PUSH1 0x20 PUSH2 0x38B4 DUP4 CODECOPY DUP2 MLOAD SWAP2 MSTORE PUSH1 0x20 DUP3 ADD MSTORE PUSH15 0x6F696E743E6C696D69745072696365 PUSH1 0x88 SHL PUSH1 0x40 DUP3 ADD MSTORE SWAP1 JUMP JUMPDEST PUSH2 0xC3 PUSH2 0xF4A JUMP JUMPDEST PUSH2 0xF95 PUSH1 0x1E PUSH2 0xD02 JUMP JUMPDEST PUSH32 0x20202020202020202020205B44454255475D3A206E65787442696E203D200000 PUSH1 0x20 DUP3 ADD MSTORE SWAP1 JUMP JUMPDEST PUSH2 0xC3 PUSH2 0xF8B JUMP JUMPDEST PUSH2 0xFD0 PUSH1 0x25 PUSH2 0xD02 JUMP JUMPDEST PUSH32 0x20202020202020202020205B44454255475D3A206E6578745072696365506F69 PUSH1 0x20 DUP3 ADD MSTORE PUSH5 0x373A101E9 PUSH1 0xDD SHL PUSH1 0x40 DUP3 ADD MSTORE SWAP1 JUMP JUMPDEST PUSH2 0xC3 PUSH2 0xFC6 JUMP JUMPDEST PUSH2 0x1019 PUSH1 0x33 PUSH2 0xD02 JUMP JUMPDEST PUSH32 0x20202020202020202020205B44454255475D3A204E6F7420537572653A207072 PUSH1 0x20 DUP3 ADD MSTORE PUSH19 0x696365506F696E743C6C696D69745072696365 PUSH1 0x68 SHL PUSH1 0x40 DUP3 ADD MSTORE SWAP1 JUMP JUMPDEST PUSH2 0xC3 PUSH2 0x100F JUMP JUMPDEST PUSH2 0x1070 PUSH1 0x30 PUSH2 0xD02 JUMP JUMPDEST PUSH1 0x0 DUP1 MLOAD PUSH1 0x20 PUSH2 0x38B4 DUP4 CODECOPY DUP2 MLOAD SWAP2 MSTORE PUSH1 0x20 DUP3 ADD MSTORE PUSH16 0x6F696E743E3D6C696D69745072696365 PUSH1 0x80 SHL PUSH1 0x40 DUP3 ADD MSTORE SWAP1 JUMP JUMPDEST PUSH2 0xC3 PUSH2 0x1066 JUMP JUMPDEST PUSH2 0x10B2 PUSH1 0x2F PUSH2 0xD02 JUMP JUMPDEST PUSH1 0x0 DUP1 MLOAD PUSH1 0x20 PUSH2 0x38B4 DUP4 CODECOPY DUP2 MLOAD SWAP2 MSTORE PUSH1 0x20 DUP3 ADD MSTORE PUSH15 0x6F696E743C6C696D69745072696365 PUSH1 0x88 SHL PUSH1 0x40 DUP3 ADD MSTORE SWAP1 JUMP JUMPDEST PUSH2 0xC3 PUSH2 0x10A8 JUMP JUMPDEST PUSH2 0x10F3 PUSH1 0x33 PUSH2 0xD02 JUMP JUMPDEST PUSH32 0x20202020202020202020205B44454255475D3A202A2A2A2A2A2A2A2A2A204F75 PUSH1 0x20 DUP3 ADD MSTORE PUSH19 0x3A1027B31029B2B0B931B41015151515151515 PUSH1 0x69 SHL PUSH1 0x40 DUP3 ADD MSTORE SWAP1 JUMP JUMPDEST PUSH2 0xC3 PUSH2 0x10E9 JUMP JUMPDEST PUSH2 0x114A PUSH1 0x3F PUSH2 0xD02 JUMP JUMPDEST PUSH32 0x20202020202020202020205B44454255475D3A20737465702E73746172745072 PUSH1 0x20 DUP3 ADD MSTORE PUSH32 0x696365207C2073746174652E6163746976655F6C6971756964697479203A2000 PUSH1 0x40 DUP3 ADD MSTORE SWAP1 JUMP JUMPDEST PUSH2 0xC3 PUSH2 0x1140 JUMP JUMPDEST PUSH2 0xC3 PUSH2 0xC3 PUSH2 0xC3 SWAP3 PUSH1 0x1 PUSH1 0x1 PUSH1 0x80 SHL SUB AND SWAP1 JUMP JUMPDEST PUSH2 0x11C1 PUSH1 0x44 PUSH2 0xD02 JUMP JUMPDEST PUSH32 0x20202020202020202020205B44454255475D3A20636F6D706F736974696F6E20 PUSH1 0x20 DUP3 ADD MSTORE PUSH32 0x7C20737465702E6E6578745072696365207C206578706563746564416D6F756E PUSH1 0x40 DUP3 ADD MSTORE PUSH4 0x3A101D1 PUSH1 0xE5 SHL PUSH1 0x60 DUP3 ADD MSTORE SWAP1 JUMP JUMPDEST PUSH2 0xC3 PUSH2 0x11B7 JUMP JUMPDEST PUSH2 0xC3 SWAP1 DUP2 SWAP1 PUSH1 0x1 PUSH1 0x1 PUSH1 0xA0 SHL SUB AND DUP2 JUMP JUMPDEST PUSH2 0xC3 SWAP1 PUSH1 0x8 SHR PUSH2 0x128 JUMP JUMPDEST PUSH2 0xC3 SWAP1 SLOAD PUSH2 0x1237 JUMP JUMPDEST SWAP2 SWAP1 DUP3 SUB SWAP2 DUP3 GT PUSH2 0x5F5 JUMPI JUMP JUMPDEST SWAP2 SWAP1 DUP3 ADD DUP1 SWAP3 GT PUSH2 0x5F5 JUMPI JUMP JUMPDEST PUSH4 0x4E487B71 PUSH1 0xE0 SHL PUSH1 0x0 MSTORE PUSH1 0x32 PUSH1 0x4 MSTORE PUSH1 0x24 PUSH1 0x0 REVERT JUMPDEST DUP1 SLOAD DUP3 LT ISZERO PUSH2 0x12A0 JUMPI PUSH2 0x1297 PUSH1 0x1 SWAP2 PUSH1 0x0 MSTORE PUSH1 0x20 PUSH1 0x0 KECCAK256 SWAP1 JUMP JUMPDEST SWAP2 MUL ADD SWAP1 PUSH1 0x0 SWAP1 JUMP JUMPDEST PUSH2 0x1267 JUMP JUMPDEST SWAP1 DUP2 SLOAD SWAP2 PUSH1 0x1 PUSH1 0x40 SHL DUP4 LT ISZERO PUSH2 0x7D8 JUMPI DUP3 PUSH2 0x12C8 SWAP2 PUSH1 0x1 PUSH2 0xCA SWAP6 ADD DUP2 SSTORE PUSH2 0x127D JUMP JUMPDEST SWAP1 PUSH2 0xB4B JUMP JUMPDEST PUSH2 0xC3 SWAP1 PUSH2 0x12E2 PUSH2 0x64E PUSH2 0xC3 SWAP5 PUSH1 0xFF AND SWAP1 JUMP JUMPDEST SWAP1 SHR SWAP1 JUMP JUMPDEST PUSH2 0x12F1 PUSH1 0x35 PUSH2 0xD02 JUMP JUMPDEST PUSH32 0x20202020202020202020205B44454255475D3A20737465702E616D6F756E744F PUSH1 0x20 DUP3 ADD MSTORE PUSH21 0x3ABA103E1039BA32B81730B6B7BAB73A24B7101D1 PUSH1 0x5D SHL PUSH1 0x40 DUP3 ADD MSTORE SWAP1 JUMP JUMPDEST PUSH2 0xC3 PUSH2 0x12E7 JUMP JUMPDEST PUSH2 0x134A PUSH1 0x1F PUSH2 0xD02 JUMP JUMPDEST PUSH32 0x20202020202020202020205B44454255475D3A2073746174652E7069203D2000 PUSH1 0x20 DUP3 ADD MSTORE SWAP1 JUMP JUMPDEST PUSH2 0xC3 PUSH2 0x1340 JUMP JUMPDEST PUSH2 0x1385 PUSH1 0xE PUSH2 0xD02 JUMP JUMPDEST PUSH14 0x31B7B6B837B9B4BA34B7B7101E9 PUSH1 0x95 SHL PUSH1 0x20 DUP3 ADD MSTORE SWAP1 JUMP JUMPDEST PUSH2 0xC3 PUSH2 0x137B JUMP JUMPDEST PUSH2 0x13B1 PUSH1 0x81 PUSH2 0xD02 JUMP JUMPDEST PUSH32 0x20202020202020202020205B44454255475D3A202A2A2A2A2A2A2A2A2A2A2A2A PUSH1 0x20 DUP3 ADD MSTORE PUSH32 0x2A2A2A2A2A2A2A2A2A2A2A2A2A2A2A2A2A2A2A2A2A2A2A2A2A2A2A2A2A2A2A2A PUSH1 0x40 DUP3 ADD DUP2 SWAP1 MSTORE PUSH32 0x2A2A2A2A204F7574204F6620526F756E64202A2A2A2A2A2A2A2A2A2A2A2A2A2A PUSH1 0x60 DUP4 ADD MSTORE PUSH1 0x80 DUP3 ADD MSTORE PUSH1 0x15 PUSH1 0xF9 SHL PUSH1 0xA0 DUP3 ADD MSTORE SWAP1 JUMP JUMPDEST PUSH2 0xC3 PUSH2 0x13A7 JUMP JUMPDEST PUSH8 0xFFFFFFFFFFFFFFFF DUP2 GT PUSH2 0x7D8 JUMPI PUSH1 0x20 DUP1 SWAP2 MUL ADD SWAP1 JUMP JUMPDEST SWAP1 PUSH2 0xD14 PUSH2 0xD0F DUP4 PUSH2 0x143F JUMP JUMPDEST CALLDATASIZE SWAP1 CALLDATACOPY JUMP JUMPDEST SWAP1 PUSH2 0xCA PUSH2 0x147F PUSH2 0x1479 DUP5 PUSH2 0x1457 JUMP JUMPDEST SWAP4 PUSH2 0x143F JUMP JUMPDEST PUSH1 0x1F NOT ADD PUSH1 0x20 DUP5 ADD PUSH2 0x1464 JUMP JUMPDEST PUSH2 0xC3 SWAP2 PUSH1 0x8 MUL SHR DUP2 JUMP JUMPDEST SWAP1 PUSH2 0xC3 SWAP2 SLOAD PUSH2 0x148C JUMP JUMPDEST PUSH2 0x14AC PUSH1 0x53 PUSH2 0xD02 JUMP JUMPDEST PUSH32 0x20202020202020202020205B44454255475D3A2074656D704964735B695D207C PUSH1 0x20 DUP3 ADD MSTORE PUSH32 0x2074656D70416D6F756E74734F66546F6B656E305B695D207C2074656D70416D PUSH1 0x40 DUP3 ADD MSTORE PUSH19 0x37BAB73A39A7B32A37B5B2B718ADB4AE901E9 PUSH1 0x6D SHL PUSH1 0x60 DUP3 ADD MSTORE SWAP1 JUMP JUMPDEST PUSH2 0xC3 PUSH2 0x14A2 JUMP JUMPDEST SWAP1 PUSH2 0x1528 DUP3 MLOAD SWAP1 JUMP JUMPDEST DUP2 LT ISZERO PUSH2 0x12A0 JUMPI PUSH1 0x20 DUP1 SWAP2 MUL ADD ADD SWAP1 JUMP JUMPDEST SWAP2 SWAP1 PUSH1 0x60 DUP4 DUP3 SUB SLT PUSH2 0xB2 JUMPI PUSH2 0x83F SWAP1 PUSH1 0x40 PUSH2 0x1555 PUSH1 0x60 PUSH2 0xC15 JUMP JUMPDEST SWAP5 PUSH2 0x1560 DUP4 DUP3 PUSH2 0x20A JUMP JUMPDEST DUP7 MSTORE PUSH2 0x156F DUP4 PUSH1 0x20 DUP4 ADD PUSH2 0x20A JUMP JUMPDEST PUSH1 0x20 DUP8 ADD MSTORE ADD PUSH2 0x20A JUMP JUMPDEST SWAP1 PUSH1 0x60 DUP3 DUP3 SUB SLT PUSH2 0xB2 JUMPI PUSH2 0xC3 SWAP2 PUSH2 0x1539 JUMP JUMPDEST SWAP1 PUSH2 0x15AE PUSH2 0x15A7 PUSH2 0x159D DUP5 MLOAD SWAP1 JUMP JUMPDEST DUP1 DUP5 MSTORE SWAP3 PUSH1 0x20 ADD SWAP1 JUMP JUMPDEST SWAP3 PUSH1 0x20 ADD SWAP1 JUMP JUMPDEST SWAP1 PUSH1 0x0 JUMPDEST DUP2 DUP2 LT PUSH2 0x15BF JUMPI POP POP POP SWAP1 JUMP JUMPDEST SWAP1 SWAP2 SWAP3 PUSH2 0x15DC PUSH2 0x15D5 PUSH1 0x1 SWAP3 DUP7 MLOAD DUP2 MSTORE PUSH1 0x20 ADD SWAP1 JUMP JUMPDEST SWAP5 PUSH1 0x20 ADD SWAP1 JUMP JUMPDEST SWAP3 SWAP2 ADD PUSH2 0x15B2 JUMP JUMPDEST SWAP7 SWAP6 SWAP4 SWAP1 SWAP5 PUSH2 0x162C PUSH1 0x80 SWAP5 PUSH2 0x161E PUSH2 0x163A SWAP6 PUSH2 0x1610 DUP13 PUSH2 0xCA SWAP12 PUSH1 0xA0 DUP3 ADD SWAP2 PUSH1 0x0 DUP2 DUP5 SUB SWAP2 ADD MSTORE PUSH2 0x158E JUMP JUMPDEST DUP13 DUP2 SUB PUSH1 0x20 DUP15 ADD MSTORE SWAP1 PUSH2 0x158E JUMP JUMPDEST SWAP1 DUP11 DUP3 SUB PUSH1 0x40 DUP13 ADD MSTORE PUSH2 0x158E JUMP JUMPDEST SWAP2 DUP9 DUP4 SUB PUSH1 0x60 DUP11 ADD MSTORE PUSH2 0x7E9 JUMP JUMPDEST SWAP5 ADD SWAP1 ISZERO ISZERO SWAP1 MSTORE JUMP JUMPDEST SWAP1 PUSH4 0xFFFFFFFF SWAP1 PUSH2 0x6C6 JUMP JUMPDEST SWAP1 PUSH2 0x165F PUSH2 0xC3 PUSH2 0x6FB SWAP3 PUSH2 0x664 JUMP JUMPDEST DUP3 SLOAD PUSH2 0x1643 JUMP JUMPDEST SWAP1 PUSH1 0x0 NOT SWAP1 PUSH2 0x6C6 JUMP JUMPDEST SWAP1 PUSH2 0x1680 PUSH2 0xC3 PUSH2 0x6FB SWAP3 PUSH2 0x62D JUMP JUMPDEST DUP3 SLOAD PUSH2 0x1666 JUMP JUMPDEST PUSH2 0x1691 PUSH1 0x1E PUSH2 0xD02 JUMP JUMPDEST PUSH32 0x20202020202020202020205B44454255475D3A20736C6F742E7069203D200000 PUSH1 0x20 DUP3 ADD MSTORE SWAP1 JUMP JUMPDEST PUSH2 0xC3 PUSH2 0x1687 JUMP JUMPDEST PUSH2 0x16CC PUSH1 0x1F PUSH2 0xD02 JUMP JUMPDEST PUSH32 0x20202020202020202020205B44454255475D3A20736C6F742E62696E203D2000 PUSH1 0x20 DUP3 ADD MSTORE SWAP1 JUMP JUMPDEST PUSH2 0xC3 PUSH2 0x16C2 JUMP JUMPDEST PUSH2 0x1707 PUSH1 0x1E PUSH2 0xD02 JUMP JUMPDEST PUSH32 0x20202020202020202020205B44454255475D3A20616D6F756E7430203D200000 PUSH1 0x20 DUP3 ADD MSTORE SWAP1 JUMP JUMPDEST PUSH2 0xC3 PUSH2 0x16FD JUMP JUMPDEST PUSH2 0x1742 PUSH1 0xA PUSH2 0xD02 JUMP JUMPDEST PUSH10 0x30B6B7BAB73A18901E9 PUSH1 0xB5 SHL PUSH1 0x20 DUP3 ADD MSTORE SWAP1 JUMP JUMPDEST PUSH2 0xC3 PUSH2 0x1738 JUMP JUMPDEST SWAP1 SWAP3 SWAP5 SWAP2 PUSH2 0x176C PUSH1 0x0 SWAP1 JUMP JUMPDEST SWAP4 PUSH2 0x1779 PUSH1 0x0 PUSH1 0x7 PUSH2 0xBFF JUMP JUMPDEST PUSH2 0x1785 PUSH1 0x0 PUSH1 0x8 PUSH2 0xBFF JUMP JUMPDEST PUSH2 0x1791 PUSH1 0x0 PUSH1 0x9 PUSH2 0xBFF JUMP JUMPDEST DUP2 PUSH2 0x179C PUSH1 0x0 PUSH2 0xC65 JUMP JUMPDEST SWAP4 PUSH2 0x1817 PUSH2 0x17AA PUSH1 0x5 PUSH2 0x71B JUMP JUMPDEST PUSH1 0x0 DUP5 ISZERO PUSH2 0x21A9 JUMPI POP PUSH2 0x17BE PUSH2 0xC3 DUP9 MLOAD SWAP1 JUMP JUMPDEST DUP6 LT DUP1 PUSH2 0x2190 JUMPI JUMPDEST PUSH2 0x17CF SWAP1 PUSH2 0xC99 JUMP JUMPDEST PUSH2 0x1807 PUSH2 0x17EB PUSH1 0x0 PUSH2 0x17E5 PUSH1 0x20 DUP12 ADD MLOAD PUSH1 0x3 SIGNEXTEND SWAP1 JUMP JUMPDEST SWAP10 ADD MLOAD SWAP1 JUMP JUMPDEST PUSH2 0x1800 PUSH2 0x17F6 PUSH2 0xCDB JUMP JUMPDEST SWAP10 DUP11 SWAP1 PUSH1 0x3 SIGNEXTEND SWAP1 MSTORE JUMP JUMPDEST PUSH1 0x20 DUP10 ADD MSTORE JUMP JUMPDEST PUSH1 0x1 PUSH1 0x1 PUSH1 0x80 SHL SUB AND PUSH1 0x40 DUP8 ADD MSTORE JUMP JUMPDEST PUSH2 0x1821 PUSH1 0x0 PUSH2 0x62D JUMP JUMPDEST SWAP7 PUSH2 0x182D DUP9 PUSH1 0x60 DUP9 ADD MSTORE JUMP JUMPDEST PUSH2 0x1838 DUP9 PUSH1 0x80 DUP9 ADD MSTORE JUMP JUMPDEST DUP8 DUP3 GT DUP1 PUSH2 0x216F JUMPI JUMPDEST ISZERO PUSH2 0x2166 JUMPI PUSH2 0x184E PUSH2 0x2CD2 JUMP JUMPDEST PUSH2 0x185E PUSH2 0x1859 PUSH2 0xDA9 JUMP JUMPDEST PUSH2 0x2D66 JUMP JUMPDEST DUP6 PUSH2 0x1867 PUSH2 0xDEC JUMP JUMPDEST PUSH2 0x1879 PUSH2 0x1875 PUSH1 0x20 DUP5 ADD MLOAD SWAP1 JUMP JUMPDEST DUP3 MSTORE JUMP JUMPDEST DUP1 MLOAD SWAP4 PUSH2 0x1887 DUP4 MLOAD PUSH1 0x3 SIGNEXTEND SWAP1 JUMP JUMPDEST DUP1 PUSH1 0x0 SWAP7 PUSH1 0x0 DUP10 ISZERO PUSH2 0x2056 JUMPI JUMPDEST DUP11 DUP3 LT PUSH2 0x204F JUMPI POP PUSH2 0x18A4 PUSH2 0x2CD2 JUMP JUMPDEST PUSH2 0x18AF PUSH2 0x1859 PUSH2 0xE43 JUMP JUMPDEST PUSH2 0x18D0 PUSH2 0x18C3 PUSH2 0x18BE DUP5 PUSH2 0xE4B JUMP JUMPDEST PUSH2 0x62D JUMP JUMPDEST PUSH2 0x18CB PUSH2 0xE84 JUMP JUMPDEST PUSH2 0x2DB4 JUMP JUMPDEST PUSH2 0x18DC DUP2 PUSH2 0x18CB PUSH2 0xE84 JUMP JUMPDEST PUSH2 0x18F4 DUP10 PUSH1 0x4 PUSH2 0x18EC PUSH1 0x1 PUSH2 0x585 JUMP JUMPDEST SWAP5 DUP6 SWAP2 PUSH2 0x2E57 JUMP JUMPDEST SWAP1 DUP2 SWAP4 PUSH3 0x800000 SWAP1 DUP14 PUSH2 0x1915 PUSH2 0x8D1 PUSH2 0x8CC PUSH2 0x190F DUP7 PUSH2 0x585 JUMP JUMPDEST DUP8 PUSH2 0x5CD JUMP JUMPDEST SWAP5 PUSH2 0x192D PUSH2 0x1925 PUSH2 0x18BE DUP8 PUSH2 0xE4B JUMP JUMPDEST PUSH2 0x18CB PUSH2 0xFBE JUMP JUMPDEST PUSH2 0x1939 DUP7 PUSH2 0x18CB PUSH2 0x1007 JUMP JUMPDEST ISZERO PUSH2 0x1FBE JUMPI SWAP2 POP PUSH2 0x1947 SWAP1 POP JUMP JUMPDEST DUP3 LT ISZERO PUSH2 0x1FA9 JUMPI POP POP PUSH2 0x195B PUSH2 0x1859 PUSH2 0x10E1 JUMP JUMPDEST PUSH2 0x1963 PUSH2 0x2CD2 JUMP JUMPDEST PUSH2 0x196B PUSH2 0x1138 JUMP JUMPDEST PUSH2 0x1974 SWAP1 PUSH2 0x2D66 JUMP JUMPDEST PUSH1 0x3 DUP4 SWAP1 SIGNEXTEND PUSH1 0x20 DUP7 ADD MSTORE PUSH1 0x40 DUP6 ADD MSTORE ISZERO ISZERO PUSH1 0x60 DUP5 ADD MSTORE DUP7 PUSH2 0x1993 DUP5 MLOAD SWAP1 JUMP JUMPDEST SWAP2 PUSH1 0x40 DUP7 ADD SWAP3 PUSH2 0x19AA DUP5 MLOAD PUSH1 0x1 PUSH1 0x1 PUSH1 0x80 SHL SUB AND SWAP1 JUMP JUMPDEST SWAP1 PUSH2 0x19B3 PUSH2 0x1199 JUMP JUMPDEST SWAP2 PUSH2 0x19BD SWAP1 PUSH2 0x11A1 JUMP JUMPDEST SWAP1 PUSH2 0x19C7 SWAP3 PUSH2 0x2FD7 JUMP JUMPDEST PUSH2 0x19D1 PUSH1 0x6 PUSH2 0x708 JUMP JUMPDEST DUP5 PUSH2 0x19DD PUSH1 0x40 DUP9 ADD MLOAD SWAP1 JUMP JUMPDEST PUSH2 0x19E5 PUSH2 0x121D JUMP JUMPDEST SWAP3 PUSH2 0x19EF SWAP1 PUSH2 0x1225 JUMP JUMPDEST PUSH2 0x19F8 SWAP4 PUSH2 0x3032 JUMP JUMPDEST DUP6 MLOAD PUSH1 0x3 SIGNEXTEND SWAP8 PUSH2 0x1A06 DUP7 MLOAD SWAP1 JUMP JUMPDEST DUP6 DUP5 PUSH2 0x1A19 DUP8 MLOAD PUSH1 0x1 PUSH1 0x1 PUSH1 0x80 SHL SUB AND SWAP1 JUMP JUMPDEST PUSH2 0x1A23 PUSH1 0x6 PUSH2 0x708 JUMP JUMPDEST PUSH1 0x40 DUP12 ADD MLOAD SWAP2 PUSH2 0x1A32 SWAP6 PUSH2 0x3084 JUMP JUMPDEST PUSH1 0xA0 DUP11 ADD MSTORE PUSH1 0x80 DUP10 ADD MSTORE PUSH2 0x1A47 SWAP1 PUSH1 0x6 PUSH2 0x6E4 JUMP JUMPDEST PUSH1 0x20 DUP9 ADD MSTORE PUSH1 0x20 DUP8 ADD MLOAD PUSH1 0x40 DUP8 ADD MLOAD EQ PUSH1 0x0 EQ PUSH2 0x1BB4 PUSH1 0x20 PUSH2 0x1C05 SWAP10 PUSH2 0x1BAF PUSH2 0x8D1 SWAP11 PUSH2 0x1B3E PUSH2 0x1AE8 PUSH2 0x8CC SWAP13 PUSH2 0x1BF2 SWAP13 PUSH2 0x1BDE SWAP10 PUSH2 0x1F92 JUMPI PUSH2 0x1ADD SWAP1 PUSH2 0x1A98 PUSH2 0x1A92 PUSH1 0x40 DUP9 ADD MLOAD SWAP1 JUMP JUMPDEST DUP11 DUP11 ADD MSTORE JUMP JUMPDEST PUSH2 0x1AAF PUSH2 0x1AA8 DUP11 DUP9 ADD MLOAD PUSH1 0x3 SIGNEXTEND SWAP1 JUMP JUMPDEST PUSH1 0x3 SIGNEXTEND DUP10 MSTORE JUMP JUMPDEST PUSH2 0x1AD0 PUSH1 0x0 PUSH2 0x1ACA PUSH1 0x2 PUSH2 0x1AC4 DUP13 MLOAD PUSH1 0x3 SIGNEXTEND SWAP1 JUMP JUMPDEST SWAP1 PUSH2 0x674 JUMP JUMPDEST ADD PUSH2 0x1243 JUMP JUMPDEST PUSH1 0x1 PUSH1 0x1 PUSH1 0x80 SHL SUB AND SWAP1 MSTORE JUMP JUMPDEST PUSH1 0xA0 DUP5 ADD MLOAD SWAP1 PUSH2 0x124D JUMP JUMPDEST SWAP16 PUSH2 0x1B0C PUSH2 0x1AF7 PUSH1 0xA0 DUP6 ADD MLOAD SWAP1 JUMP JUMPDEST PUSH2 0xC6 PUSH1 0x60 DUP9 ADD SWAP2 PUSH2 0x1B07 DUP4 MLOAD SWAP1 JUMP JUMPDEST PUSH2 0x125A JUMP JUMPDEST PUSH2 0x1B2A PUSH2 0x1B1A PUSH1 0x80 DUP6 ADD MLOAD SWAP1 JUMP JUMPDEST PUSH2 0xC6 PUSH1 0x80 DUP9 ADD SWAP2 PUSH2 0x1B07 DUP4 MLOAD SWAP1 JUMP JUMPDEST PUSH2 0x1B38 PUSH2 0x18BE PUSH1 0x7 SWAP3 PUSH2 0xE4B JUMP JUMPDEST SWAP1 PUSH2 0x12A5 JUMP JUMPDEST DUP9 ISZERO PUSH2 0x1F61 JUMPI PUSH2 0x1B8B PUSH2 0x1B52 PUSH1 0x80 DUP4 ADD MLOAD SWAP1 JUMP JUMPDEST PUSH2 0x1B84 PUSH2 0x1B7B PUSH2 0x1B6A PUSH2 0x1B63 PUSH2 0x623 JUMP JUMPDEST DUP1 SWAP5 PUSH2 0x12CE JUMP JUMPDEST SWAP3 PUSH2 0x1B76 PUSH1 0xA0 DUP8 ADD MLOAD SWAP1 JUMP JUMPDEST PUSH2 0x12CE JUMP JUMPDEST SWAP2 JUMPDEST PUSH1 0x8 PUSH2 0x12A5 JUMP JUMPDEST PUSH1 0x9 PUSH2 0x12A5 JUMP JUMPDEST PUSH2 0x1BA1 PUSH1 0x80 PUSH2 0x1B9B PUSH1 0xA0 DUP5 ADD MLOAD SWAP1 JUMP JUMPDEST SWAP3 ADD MLOAD SWAP1 JUMP JUMPDEST SWAP1 PUSH2 0x1BAA PUSH2 0x1338 JUMP JUMPDEST PUSH2 0x2FD7 JUMP JUMPDEST ADD MLOAD SWAP1 JUMP JUMPDEST PUSH2 0x1BBE PUSH1 0x6 PUSH2 0x708 JUMP JUMPDEST PUSH2 0x1BC6 PUSH2 0x1373 JUMP JUMPDEST SWAP2 PUSH2 0x1BD8 PUSH2 0x1BD2 PUSH2 0x139F JUMP JUMPDEST SWAP3 PUSH2 0x1225 JUMP JUMPDEST SWAP3 PUSH2 0x31BB JUMP JUMPDEST POP PUSH1 0x4 SWAP1 PUSH2 0x1BEC PUSH1 0x1 PUSH2 0x585 JUMP JUMPDEST SWAP2 PUSH2 0x2E57 JUMP JUMPDEST POP PUSH2 0x1BFF PUSH3 0x800000 PUSH2 0x585 JUMP JUMPDEST SWAP1 PUSH2 0x5CD JUMP JUMPDEST DUP4 ISZERO PUSH2 0x1F5A JUMPI DUP5 GT JUMPDEST ISZERO PUSH2 0x1838 JUMPI POP POP POP POP JUMPDEST PUSH2 0x1C20 PUSH2 0x2CD2 JUMP JUMPDEST PUSH2 0x1C2B PUSH2 0x1859 PUSH2 0x1437 JUMP JUMPDEST PUSH1 0x7 SWAP2 PUSH2 0x1C3E PUSH2 0x1C39 DUP5 SLOAD SWAP1 JUMP JUMPDEST PUSH2 0x1469 JUMP JUMPDEST SWAP4 PUSH2 0x1C4A PUSH2 0x1C39 DUP6 SLOAD SWAP1 JUMP JUMPDEST SWAP8 PUSH2 0x1C56 PUSH2 0x1C39 DUP7 SLOAD SWAP1 JUMP JUMPDEST SWAP7 JUMPDEST PUSH2 0x1C63 PUSH2 0xC3 DUP8 SLOAD SWAP1 JUMP JUMPDEST DUP2 LT ISZERO PUSH2 0x1D23 JUMPI PUSH2 0x1C74 DUP2 DUP8 PUSH2 0x127D JUMP JUMPDEST PUSH2 0x1C7D SWAP2 PUSH2 0x1497 JUMP JUMPDEST DUP2 DUP1 DUP13 PUSH1 0x8 DUP3 DUP1 DUP14 DUP14 DUP3 PUSH2 0x1C91 DUP2 DUP8 PUSH2 0x127D JUMP JUMPDEST PUSH2 0x1C9A SWAP2 PUSH2 0x1497 JUMP JUMPDEST SWAP10 PUSH1 0x9 SWAP11 PUSH2 0x1CA8 DUP4 DUP14 PUSH2 0x127D JUMP JUMPDEST PUSH2 0x1CB1 SWAP2 PUSH2 0x1497 JUMP JUMPDEST SWAP1 PUSH2 0x1CBA PUSH2 0x1517 JUMP JUMPDEST SWAP3 PUSH2 0x1CC4 SWAP4 PUSH2 0x3032 JUMP JUMPDEST PUSH2 0x1CCD SWAP2 PUSH2 0x127D JUMP JUMPDEST PUSH2 0x1CD6 SWAP2 PUSH2 0x1497 JUMP JUMPDEST SWAP2 PUSH2 0x1CE0 SWAP2 PUSH2 0x151F JUMP JUMPDEST MSTORE PUSH2 0x1CEA SWAP2 PUSH2 0x127D JUMP JUMPDEST PUSH2 0x1CF3 SWAP2 PUSH2 0x1497 JUMP JUMPDEST SWAP2 PUSH2 0x1CFD SWAP2 PUSH2 0x151F JUMP JUMPDEST MSTORE PUSH2 0x1D07 SWAP2 PUSH2 0x127D JUMP JUMPDEST PUSH2 0x1D10 SWAP2 PUSH2 0x1497 JUMP JUMPDEST PUSH2 0x1D1A DUP3 DUP11 PUSH2 0x151F JUMP JUMPDEST MSTORE PUSH1 0x1 ADD PUSH2 0x1C58 JUMP JUMPDEST POP SWAP5 SWAP4 POP SWAP5 SWAP2 SWAP7 SWAP6 SWAP1 SWAP6 PUSH2 0x1D39 DUP3 DUP7 ADD DUP7 PUSH2 0x157A JUMP JUMPDEST PUSH2 0x1D4E PUSH2 0x97C DUP1 DUP4 MLOAD PUSH1 0x1 PUSH1 0x1 PUSH1 0xA0 SHL SUB AND SWAP1 JUMP JUMPDEST PUSH4 0xA22CB465 SWAP2 DUP2 EXTCODESIZE ISZERO PUSH2 0xB2 JUMPI PUSH1 0x0 PUSH2 0x1D66 PUSH1 0x40 MLOAD SWAP1 JUMP JUMPDEST DUP1 SWAP4 PUSH2 0x1D72 DUP7 PUSH1 0xE0 SHL SWAP1 JUMP JUMPDEST DUP3 MSTORE CALLER PUSH1 0x4 DUP4 ADD MSTORE PUSH1 0x1 PUSH1 0x24 DUP4 ADD MSTORE PUSH1 0x44 SWAP1 DUP3 SWAP1 DUP5 SWAP1 GAS CALL SWAP2 DUP3 ISZERO PUSH2 0x9EC JUMPI PUSH1 0x20 PUSH2 0x97C SWAP3 PUSH2 0x97C SWAP3 PUSH2 0x1DB3 SWAP6 PUSH2 0x1F44 JUMPI JUMPDEST POP ADD MLOAD PUSH1 0x1 PUSH1 0x1 PUSH1 0xA0 SHL SUB AND SWAP1 JUMP JUMPDEST DUP1 EXTCODESIZE ISZERO PUSH2 0xB2 JUMPI PUSH2 0x1DD3 SWAP2 PUSH1 0x0 SWAP2 PUSH2 0x1DCA PUSH1 0x40 MLOAD SWAP1 JUMP JUMPDEST SWAP4 DUP5 SWAP3 PUSH1 0xE0 SHL SWAP1 JUMP JUMPDEST DUP3 MSTORE CALLER PUSH1 0x4 DUP4 ADD MSTORE PUSH1 0x1 PUSH1 0x24 DUP4 ADD MSTORE PUSH1 0x44 SWAP1 DUP3 SWAP1 DUP5 SWAP1 GAS CALL DUP1 ISZERO PUSH2 0x9EC JUMPI PUSH2 0x1F2E JUMPI JUMPDEST POP PUSH2 0x1E03 PUSH2 0x97C CALLER PUSH2 0x797 JUMP JUMPDEST SWAP2 DUP3 EXTCODESIZE ISZERO PUSH2 0xB2 JUMPI PUSH1 0x0 SWAP5 PUSH2 0x1E37 DUP11 DUP8 SWAP4 PUSH2 0x1E1D PUSH1 0x40 MLOAD SWAP1 JUMP JUMPDEST SWAP10 DUP11 SWAP9 DUP10 SWAP8 DUP9 SWAP7 PUSH4 0x5138D537 PUSH1 0xE1 SHL DUP9 MSTORE PUSH1 0x4 DUP9 ADD PUSH2 0x15E4 JUMP JUMPDEST SUB SWAP3 GAS CALL DUP1 ISZERO PUSH2 0x9EC JUMPI PUSH2 0x1F18 JUMPI JUMPDEST POP PUSH2 0xCA PUSH1 0x20 DUP4 ADD SWAP3 PUSH2 0x1E5A PUSH2 0x1BB4 DUP6 MLOAD SWAP1 JUMP JUMPDEST PUSH2 0x1E71 PUSH2 0x94C PUSH1 0x40 DUP4 ADD MLOAD PUSH1 0x1 PUSH1 0x1 PUSH1 0x80 SHL SUB AND SWAP1 JUMP JUMPDEST PUSH2 0x1E91 PUSH2 0x1E7F DUP3 MLOAD PUSH1 0x3 SIGNEXTEND SWAP1 JUMP JUMPDEST PUSH1 0x1 SWAP6 SWAP1 PUSH2 0x1E8D SWAP1 DUP8 PUSH2 0x164F JUMP JUMPDEST MLOAD SWAP1 JUMP JUMPDEST PUSH1 0x0 SWAP6 SWAP1 PUSH2 0x1E9F SWAP1 DUP8 PUSH2 0x1670 JUMP JUMPDEST ISZERO PUSH2 0x1F02 JUMPI PUSH2 0x1EB4 PUSH1 0x60 PUSH2 0x1B9B PUSH1 0x80 DUP5 ADD MLOAD SWAP1 JUMP JUMPDEST SWAP1 JUMPDEST PUSH2 0x1EEB PUSH2 0x1EE3 PUSH2 0x18BE PUSH2 0x1EDE DUP6 SWAP9 PUSH2 0x1ED9 PUSH2 0x1ED1 DUP8 SWAP13 PUSH2 0x187 JUMP JUMPDEST PUSH2 0x18CB PUSH2 0x16BA JUMP JUMPDEST PUSH2 0x19C JUMP JUMPDEST PUSH2 0xE4B JUMP JUMPDEST PUSH2 0x18CB PUSH2 0x16F5 JUMP JUMPDEST PUSH2 0x1EF3 PUSH2 0x1730 JUMP JUMPDEST SWAP1 PUSH2 0x1EFC PUSH2 0x1758 JUMP JUMPDEST SWAP2 PUSH2 0x31BB JUMP JUMPDEST PUSH2 0x1F12 PUSH1 0x80 PUSH2 0x1B9B PUSH1 0x60 DUP5 ADD MLOAD SWAP1 JUMP JUMPDEST SWAP1 PUSH2 0x1EB6 JUMP JUMPDEST PUSH2 0x1F28 SWAP1 PUSH1 0x0 PUSH2 0x9DD DUP2 DUP4 PUSH2 0x7B6 JUMP JUMPDEST CODESIZE PUSH2 0x1E46 JUMP JUMPDEST PUSH2 0x1F3E SWAP1 PUSH1 0x0 PUSH2 0x9DD DUP2 DUP4 PUSH2 0x7B6 JUMP JUMPDEST CODESIZE PUSH2 0x1DF6 JUMP JUMPDEST PUSH2 0x1F54 SWAP1 PUSH1 0x0 PUSH2 0x9DD DUP2 DUP4 PUSH2 0x7B6 JUMP JUMPDEST CODESIZE PUSH2 0x1DA4 JUMP JUMPDEST DUP5 LT PUSH2 0x1C0E JUMP JUMPDEST PUSH2 0x1B8B PUSH2 0x1F6F PUSH1 0xA0 DUP4 ADD MLOAD SWAP1 JUMP JUMPDEST PUSH2 0x1B84 PUSH2 0x1F8C PUSH2 0x1F80 PUSH2 0x1B63 PUSH2 0x623 JUMP JUMPDEST SWAP3 PUSH2 0x1B76 PUSH1 0x80 DUP8 ADD MLOAD SWAP1 JUMP JUMPDEST SWAP2 PUSH2 0x1B7D JUMP JUMPDEST POP PUSH2 0x1FA4 PUSH2 0x1F9E DUP6 MLOAD SWAP1 JUMP JUMPDEST DUP9 DUP9 ADD MSTORE JUMP JUMPDEST PUSH2 0x1ADD JUMP JUMPDEST SWAP2 POP SWAP3 POP PUSH2 0x1FB8 PUSH2 0x1859 PUSH2 0x10A0 JUMP JUMPDEST SWAP2 PUSH2 0x195B JUMP JUMPDEST PUSH2 0x64E PUSH2 0x1FD1 SWAP2 SWAP9 SWAP5 SWAP9 SWAP7 SWAP4 SWAP7 SWAP6 SWAP3 SWAP6 SWAP1 JUMP JUMPDEST LT PUSH2 0x203F JUMPI POP POP DUP4 PUSH2 0x1FE9 PUSH1 0x0 PUSH2 0x902 DUP4 PUSH1 0x2 PUSH2 0x674 JUMP JUMPDEST ISZERO PUSH2 0x200D JUMPI POP POP PUSH2 0x8D1 PUSH2 0x8CC PUSH2 0x2002 PUSH2 0x2008 SWAP4 PUSH2 0x585 JUMP JUMPDEST DUP6 PUSH2 0x5CD JUMP JUMPDEST PUSH2 0x195B JUMP JUMPDEST PUSH2 0x2032 SWAP3 SWAP10 SWAP9 SWAP7 SWAP8 SWAP6 SWAP5 POP PUSH2 0x2028 PUSH2 0x8D1 SWAP3 PUSH2 0x8CC SWAP3 PUSH2 0x5CD JUMP JUMPDEST PUSH2 0x1BFF DUP2 SWAP12 PUSH2 0x585 JUMP JUMPDEST DUP8 SWAP3 SWAP4 SWAP6 SWAP5 SWAP7 SWAP8 SWAP2 PUSH2 0x1894 JUMP JUMPDEST SWAP3 POP SWAP4 POP POP PUSH2 0x2008 PUSH2 0x1859 PUSH2 0x105E JUMP JUMPDEST SWAP2 POP PUSH2 0x195B JUMP JUMPDEST DUP11 DUP3 GT PUSH2 0x204F JUMPI POP PUSH2 0x2066 PUSH2 0x2CD2 JUMP JUMPDEST PUSH2 0x2071 PUSH2 0x1859 PUSH2 0xE43 JUMP JUMPDEST PUSH2 0x2080 PUSH2 0x18C3 PUSH2 0x18BE DUP5 PUSH2 0xE4B JUMP JUMPDEST PUSH2 0x208C DUP2 PUSH2 0x18CB PUSH2 0xE84 JUMP JUMPDEST PUSH2 0x209C DUP10 PUSH1 0x4 PUSH2 0x18EC PUSH1 0x1 PUSH2 0x585 JUMP JUMPDEST SWAP1 DUP2 SWAP4 PUSH3 0x800000 SWAP1 DUP14 PUSH2 0x20B7 PUSH2 0x8D1 PUSH2 0x8CC PUSH2 0x190F DUP7 PUSH2 0x585 JUMP JUMPDEST SWAP5 ISZERO PUSH2 0x20E9 JUMPI SWAP2 POP PUSH2 0x20C6 SWAP1 POP JUMP JUMPDEST DUP3 GT ISZERO PUSH2 0x20DA JUMPI POP POP PUSH2 0x2008 PUSH2 0x1859 PUSH2 0xF83 JUMP JUMPDEST SWAP2 POP SWAP3 POP PUSH2 0x1FB8 PUSH2 0x1859 PUSH2 0xF42 JUMP JUMPDEST PUSH2 0x64E PUSH2 0x20FC SWAP2 SWAP9 SWAP5 SWAP9 SWAP7 SWAP4 SWAP7 SWAP6 SWAP3 SWAP6 SWAP1 JUMP JUMPDEST LT ISZERO PUSH2 0x2156 JUMPI POP POP DUP4 PUSH2 0x2115 PUSH1 0x0 PUSH2 0x902 DUP4 PUSH1 0x2 PUSH2 0x674 JUMP JUMPDEST ISZERO PUSH2 0x212E JUMPI POP POP PUSH2 0x8D1 PUSH2 0x8CC PUSH2 0x2002 PUSH2 0x2008 SWAP4 PUSH2 0x585 JUMP JUMPDEST PUSH2 0x2149 SWAP3 SWAP10 SWAP9 SWAP7 SWAP8 SWAP6 SWAP5 POP PUSH2 0x2028 PUSH2 0x8D1 SWAP3 PUSH2 0x8CC SWAP3 PUSH2 0xEE4 JUMP JUMPDEST DUP8 SWAP3 SWAP4 SWAP6 SWAP5 SWAP7 SWAP8 SWAP2 PUSH2 0x2056 JUMP JUMPDEST SWAP3 POP SWAP4 POP POP PUSH2 0x2008 PUSH2 0x1859 PUSH2 0xEDC JUMP JUMPDEST POP POP POP POP PUSH2 0x1C18 JUMP JUMPDEST POP DUP3 ISZERO PUSH2 0x2183 JUMPI PUSH1 0x20 DUP7 ADD MLOAD DUP5 GT ISZERO PUSH2 0x1841 JUMP JUMPDEST PUSH1 0x20 DUP7 ADD MLOAD DUP5 LT ISZERO PUSH2 0x1841 JUMP JUMPDEST POP PUSH2 0x17CF PUSH2 0x219F PUSH2 0xC3 PUSH2 0xC8B JUMP JUMPDEST DUP7 LT ISZERO SWAP1 POP PUSH2 0x17C6 JUMP JUMPDEST DUP8 ADD MLOAD DUP6 GT DUP1 PUSH2 0x21BC JUMPI PUSH2 0x17CF SWAP1 PUSH2 0xC99 JUMP JUMPDEST POP PUSH2 0x17CF PUSH2 0x21CB PUSH2 0xC3 PUSH2 0xC6E JUMP JUMPDEST DUP7 GT ISZERO SWAP1 POP PUSH2 0x17C6 JUMP JUMPDEST POP POP POP POP POP POP PUSH2 0x21E3 PUSH1 0x0 SWAP1 JUMP JUMPDEST POP PUSH4 0xF23A6E61 PUSH1 0xE0 SHL SWAP1 JUMP JUMPDEST PUSH2 0x60A PUSH2 0xC3 PUSH2 0xC3 SWAP3 SWAP1 JUMP JUMPDEST PUSH2 0xC3 PUSH2 0xC3 PUSH2 0xC3 SWAP3 PUSH1 0x2 SIGNEXTEND SWAP1 JUMP JUMPDEST PUSH1 0x1 PUSH1 0xFF SHL DUP2 EQ PUSH2 0x5F5 JUMPI PUSH1 0x0 SUB SWAP1 JUMP JUMPDEST PUSH2 0xC3 PUSH3 0xD89E7 NOT PUSH2 0x21EF JUMP JUMPDEST PUSH1 0x2 SIGNEXTEND PUSH3 0x7FFFFF NOT DUP2 EQ PUSH2 0x5F5 JUMPI PUSH1 0x0 SUB SWAP1 JUMP JUMPDEST PUSH2 0xC3 PUSH2 0x2249 PUSH2 0x221D JUMP JUMPDEST PUSH2 0x222A JUMP JUMPDEST PUSH2 0x225E PUSH2 0xC3 PUSH2 0xC3 SWAP3 PUSH1 0x2 SIGNEXTEND SWAP1 JUMP JUMPDEST PUSH3 0xFFFFFF AND SWAP1 JUMP JUMPDEST PUSH2 0xC3 PUSH2 0xC3 PUSH2 0xC3 SWAP3 PUSH3 0xFFFFFF AND SWAP1 JUMP JUMPDEST ISZERO PUSH2 0x227F JUMPI JUMP JUMPDEST PUSH1 0x40 MLOAD PUSH3 0x461BCD PUSH1 0xE5 SHL DUP2 MSTORE PUSH1 0x20 PUSH1 0x4 DUP3 ADD MSTORE PUSH1 0x1 PUSH1 0x24 DUP3 ADD MSTORE PUSH1 0x15 PUSH1 0xFA SHL PUSH1 0x44 DUP3 ADD MSTORE PUSH1 0x64 SWAP1 REVERT JUMPDEST PUSH2 0x22B5 PUSH2 0xC3 PUSH2 0xC3 SWAP3 SWAP1 JUMP JUMPDEST PUSH1 0x1 PUSH1 0x1 PUSH1 0x88 SHL SUB AND SWAP1 JUMP JUMPDEST PUSH2 0xC3 PUSH2 0xC3 PUSH2 0xC3 SWAP3 PUSH1 0x1 PUSH1 0x1 PUSH1 0x88 SHL SUB AND SWAP1 JUMP JUMPDEST PUSH4 0x4E487B71 PUSH1 0xE0 SHL PUSH1 0x0 MSTORE PUSH1 0x12 PUSH1 0x4 MSTORE PUSH1 0x24 PUSH1 0x0 REVERT JUMPDEST DUP2 ISZERO PUSH2 0x22F7 JUMPI DIV SWAP1 JUMP JUMPDEST PUSH2 0x22D7 JUMP JUMPDEST DUP2 ISZERO PUSH2 0x22F7 JUMPI MOD SWAP1 JUMP JUMPDEST PUSH2 0xC3 PUSH2 0xC3 PUSH2 0xC3 SWAP3 PUSH1 0xFF AND SWAP1 JUMP JUMPDEST PUSH2 0x2690 PUSH2 0x268A PUSH2 0x267A PUSH2 0xC3 SWAP4 PUSH2 0x232B PUSH1 0x0 SWAP1 JUMP JUMPDEST POP PUSH1 0x0 PUSH2 0x2337 DUP2 PUSH2 0x21EF JUMP JUMPDEST PUSH2 0x2341 DUP4 PUSH1 0x2 SIGNEXTEND SWAP1 JUMP JUMPDEST SLT ISZERO PUSH2 0x29D2 JUMPI PUSH2 0x235B PUSH2 0x18BE PUSH2 0x2356 DUP5 PUSH2 0x21FC JUMP JUMPDEST PUSH2 0x220C JUMP JUMPDEST SWAP2 JUMPDEST PUSH2 0x2383 PUSH2 0x237B PUSH2 0xC3 PUSH2 0x2376 PUSH2 0x2371 PUSH2 0x223E JUMP JUMPDEST PUSH2 0x224E JUMP JUMPDEST PUSH2 0x2266 JUMP JUMPDEST DUP5 GT ISZERO PUSH2 0x2278 JUMP JUMPDEST PUSH2 0x238D PUSH1 0x1 PUSH2 0x62D JUMP JUMPDEST DUP4 AND PUSH2 0x239B PUSH2 0x64E DUP5 PUSH2 0x62D JUMP JUMPDEST EQ PUSH2 0x29C2 JUMPI PUSH2 0x23C1 PUSH2 0x23BC PUSH16 0xFFFCB933BD6FAD37AA2D162D1A594001 PUSH2 0x22A8 JUMP JUMPDEST PUSH2 0x22C1 JUMP JUMPDEST SWAP3 PUSH2 0x23CC PUSH1 0x2 PUSH2 0x62D JUMP JUMPDEST DUP2 AND PUSH2 0x23DA PUSH2 0x64E DUP6 PUSH2 0x62D JUMP JUMPDEST SUB PUSH2 0x299B JUMPI JUMPDEST PUSH2 0x23EA PUSH1 0x4 PUSH2 0x62D JUMP JUMPDEST DUP2 AND PUSH2 0x23F8 PUSH2 0x64E DUP6 PUSH2 0x62D JUMP JUMPDEST SUB PUSH2 0x2974 JUMPI JUMPDEST PUSH2 0x2408 PUSH1 0x8 PUSH2 0x62D JUMP JUMPDEST DUP2 AND PUSH2 0x2416 PUSH2 0x64E DUP6 PUSH2 0x62D JUMP JUMPDEST SUB PUSH2 0x294D JUMPI JUMPDEST PUSH2 0x2426 PUSH1 0x10 PUSH2 0x62D JUMP JUMPDEST DUP2 AND PUSH2 0x2434 PUSH2 0x64E DUP6 PUSH2 0x62D JUMP JUMPDEST SUB PUSH2 0x2926 JUMPI JUMPDEST PUSH2 0x2444 PUSH1 0x20 PUSH2 0x62D JUMP JUMPDEST DUP2 AND PUSH2 0x2452 PUSH2 0x64E DUP6 PUSH2 0x62D JUMP JUMPDEST SUB PUSH2 0x28FF JUMPI JUMPDEST PUSH2 0x2462 PUSH1 0x40 PUSH2 0x62D JUMP JUMPDEST DUP2 AND PUSH2 0x2470 PUSH2 0x64E DUP6 PUSH2 0x62D JUMP JUMPDEST SUB PUSH2 0x28CE JUMPI JUMPDEST PUSH1 0x80 SWAP1 PUSH2 0x2482 DUP3 PUSH2 0x62D JUMP JUMPDEST DUP2 AND PUSH2 0x2490 PUSH2 0x64E DUP7 PUSH2 0x62D JUMP JUMPDEST SUB PUSH2 0x28A7 JUMPI JUMPDEST PUSH2 0x24A1 PUSH2 0x100 PUSH2 0x62D JUMP JUMPDEST DUP2 AND PUSH2 0x24AF PUSH2 0x64E DUP7 PUSH2 0x62D JUMP JUMPDEST SUB PUSH2 0x2880 JUMPI JUMPDEST PUSH2 0x24C0 PUSH2 0x200 PUSH2 0x62D JUMP JUMPDEST DUP2 AND PUSH2 0x24CE PUSH2 0x64E DUP7 PUSH2 0x62D JUMP JUMPDEST SUB PUSH2 0x2859 JUMPI JUMPDEST PUSH2 0x24DF PUSH2 0x400 PUSH2 0x62D JUMP JUMPDEST DUP2 AND PUSH2 0x24ED PUSH2 0x64E DUP7 PUSH2 0x62D JUMP JUMPDEST SUB PUSH2 0x2832 JUMPI JUMPDEST PUSH2 0x24FE PUSH2 0x800 PUSH2 0x62D JUMP JUMPDEST DUP2 AND PUSH2 0x250C PUSH2 0x64E DUP7 PUSH2 0x62D JUMP JUMPDEST SUB PUSH2 0x280B JUMPI JUMPDEST PUSH2 0x251D PUSH2 0x1000 PUSH2 0x62D JUMP JUMPDEST DUP2 AND PUSH2 0x252B PUSH2 0x64E DUP7 PUSH2 0x62D JUMP JUMPDEST SUB PUSH2 0x27E4 JUMPI JUMPDEST PUSH2 0x253C PUSH2 0x2000 PUSH2 0x62D JUMP JUMPDEST DUP2 AND PUSH2 0x254A PUSH2 0x64E DUP7 PUSH2 0x62D JUMP JUMPDEST SUB PUSH2 0x27BD JUMPI JUMPDEST PUSH2 0x255B PUSH2 0x4000 PUSH2 0x62D JUMP JUMPDEST DUP2 AND PUSH2 0x2569 PUSH2 0x64E DUP7 PUSH2 0x62D JUMP JUMPDEST SUB PUSH2 0x2796 JUMPI JUMPDEST PUSH2 0x257A PUSH2 0x8000 PUSH2 0x62D JUMP JUMPDEST DUP2 AND PUSH2 0x2588 PUSH2 0x64E DUP7 PUSH2 0x62D JUMP JUMPDEST SUB PUSH2 0x276F JUMPI JUMPDEST PUSH2 0x259A PUSH3 0x10000 PUSH2 0x62D JUMP JUMPDEST DUP2 AND PUSH2 0x25A8 PUSH2 0x64E DUP7 PUSH2 0x62D JUMP JUMPDEST SUB PUSH2 0x2748 JUMPI JUMPDEST PUSH2 0x25BA PUSH3 0x20000 PUSH2 0x62D JUMP JUMPDEST DUP2 AND PUSH2 0x25C8 PUSH2 0x64E DUP7 PUSH2 0x62D JUMP JUMPDEST SUB PUSH2 0x2722 JUMPI JUMPDEST PUSH2 0x25DA PUSH3 0x40000 PUSH2 0x62D JUMP JUMPDEST DUP2 AND PUSH2 0x25E8 PUSH2 0x64E DUP7 PUSH2 0x62D JUMP JUMPDEST SUB PUSH2 0x26F4 JUMPI JUMPDEST PUSH2 0x25FA PUSH3 0x80000 PUSH2 0x62D JUMP JUMPDEST AND PUSH2 0x2607 PUSH2 0x64E DUP6 PUSH2 0x62D JUMP JUMPDEST SUB PUSH2 0x26C1 JUMPI JUMPDEST POP PUSH2 0x2621 PUSH2 0x261A DUP4 PUSH2 0x21EF JUMP JUMPDEST SWAP2 PUSH1 0x2 SIGNEXTEND SWAP1 JUMP JUMPDEST SGT PUSH2 0x26AE JUMPI JUMPDEST PUSH2 0x2652 PUSH2 0x263D PUSH2 0x2637 PUSH1 0x20 PUSH2 0x610 JUMP JUMPDEST DUP5 PUSH2 0x12CE JUMP JUMPDEST SWAP3 PUSH2 0x264C PUSH5 0x100000000 PUSH2 0x62D JUMP JUMPDEST SWAP1 PUSH2 0x22FC JUMP JUMPDEST PUSH2 0x265E PUSH2 0x64E DUP4 PUSH2 0x62D JUMP JUMPDEST SUB PUSH2 0x26A0 JUMPI PUSH2 0x266F PUSH2 0x2674 SWAP2 PUSH2 0x610 JUMP JUMPDEST PUSH2 0x2306 JUMP JUMPDEST SWAP1 PUSH2 0x125A JUMP JUMPDEST PUSH2 0x2684 PUSH1 0x50 PUSH2 0x610 JUMP JUMPDEST SWAP1 PUSH2 0x12CE JUMP JUMPDEST DUP1 PUSH2 0xB24 JUMP JUMPDEST PUSH2 0x269A PUSH1 0x40 PUSH2 0x610 JUMP JUMPDEST SWAP1 PUSH2 0x63A JUMP JUMPDEST POP PUSH2 0x2674 PUSH2 0x266F PUSH1 0x1 PUSH2 0x610 JUMP JUMPDEST SWAP1 PUSH2 0x26BB SWAP1 PUSH1 0x0 NOT PUSH2 0x22ED JUMP JUMPDEST SWAP1 PUSH2 0x2627 JUMP JUMPDEST PUSH2 0x2684 PUSH2 0x26E7 PUSH2 0x26ED SWAP4 SWAP6 PUSH2 0x26E1 PUSH12 0x48A170391F7DC42444E8FA2 PUSH2 0x62D JUMP JUMPDEST SWAP1 PUSH2 0xB24 JUMP JUMPDEST SWAP2 PUSH2 0x610 JUMP JUMPDEST SWAP2 CODESIZE PUSH2 0x260D JUMP JUMPDEST SWAP4 PUSH2 0x2713 PUSH2 0x271C SWAP2 PUSH2 0x26E1 PUSH14 0x2216E584F5FA1EA926041BEDFE98 PUSH2 0x62D JUMP JUMPDEST PUSH2 0x2684 DUP4 PUSH2 0x610 JUMP JUMPDEST SWAP4 PUSH2 0x25EE JUMP JUMPDEST SWAP4 PUSH2 0x2713 PUSH2 0x2742 SWAP2 PUSH2 0x26E1 PUSH15 0x5D6AF8DEDB81196699C329225EE604 PUSH2 0x62D JUMP JUMPDEST SWAP4 PUSH2 0x25CE JUMP JUMPDEST SWAP4 PUSH2 0x2713 PUSH2 0x2769 SWAP2 PUSH2 0x26E1 PUSH16 0x9AA508B5B7A84E1C677DE54F3E99BC9 PUSH2 0x62D JUMP JUMPDEST SWAP4 PUSH2 0x25AE JUMP JUMPDEST SWAP4 PUSH2 0x2713 PUSH2 0x2790 SWAP2 PUSH2 0x26E1 PUSH16 0x31BE135F97D08FD981231505542FCFA6 PUSH2 0x62D JUMP JUMPDEST SWAP4 PUSH2 0x258E JUMP JUMPDEST SWAP4 PUSH2 0x2713 PUSH2 0x27B7 SWAP2 PUSH2 0x26E1 PUSH16 0x70D869A156D2A1B890BB3DF62BAF32F7 PUSH2 0x62D JUMP JUMPDEST SWAP4 PUSH2 0x256F JUMP JUMPDEST SWAP4 PUSH2 0x2713 PUSH2 0x27DE SWAP2 PUSH2 0x26E1 PUSH16 0xA9F746462D870FDF8A65DC1F90E061E5 PUSH2 0x62D JUMP JUMPDEST SWAP4 PUSH2 0x2550 JUMP JUMPDEST SWAP4 PUSH2 0x2713 PUSH2 0x2805 SWAP2 PUSH2 0x26E1 PUSH16 0xD097F3BDFD2022B8845AD8F792AA5825 PUSH2 0x62D JUMP JUMPDEST SWAP4 PUSH2 0x2531 JUMP JUMPDEST SWAP4 PUSH2 0x2713 PUSH2 0x282C SWAP2 PUSH2 0x26E1 PUSH16 0xE7159475A2C29B7443B29C7FA6E889D9 PUSH2 0x62D JUMP JUMPDEST SWAP4 PUSH2 0x2512 JUMP JUMPDEST SWAP4 PUSH2 0x2713 PUSH2 0x2853 SWAP2 PUSH2 0x26E1 PUSH16 0xF3392B0822B70005940C7A398E4B70F3 PUSH2 0x62D JUMP JUMPDEST SWAP4 PUSH2 0x24F3 JUMP JUMPDEST SWAP4 PUSH2 0x2713 PUSH2 0x287A SWAP2 PUSH2 0x26E1 PUSH16 0xF987A7253AC413176F2B074CF7815E54 PUSH2 0x62D JUMP JUMPDEST SWAP4 PUSH2 0x24D4 JUMP JUMPDEST SWAP4 PUSH2 0x2713 PUSH2 0x28A1 SWAP2 PUSH2 0x26E1 PUSH16 0xFCBE86C7900A88AEDCFFC83B479AA3A4 PUSH2 0x62D JUMP JUMPDEST SWAP4 PUSH2 0x24B5 JUMP JUMPDEST SWAP4 PUSH2 0x2713 PUSH2 0x28C8 SWAP2 PUSH2 0x26E1 PUSH16 0xFE5DEE046A99A2A811C461F1969C3053 PUSH2 0x62D JUMP JUMPDEST SWAP4 PUSH2 0x2496 JUMP JUMPDEST SWAP3 PUSH2 0x28EF PUSH2 0x28F9 SWAP2 PUSH2 0x26E1 PUSH16 0xFF2EA16466C96A3843EC78B326B52861 PUSH2 0x62D JUMP JUMPDEST PUSH2 0x2684 PUSH1 0x80 PUSH2 0x610 JUMP JUMPDEST SWAP3 PUSH2 0x2476 JUMP JUMPDEST SWAP3 PUSH2 0x28EF PUSH2 0x2920 SWAP2 PUSH2 0x26E1 PUSH16 0xFF973B41FA98C081472E6896DFB254C0 PUSH2 0x62D JUMP JUMPDEST SWAP3 PUSH2 0x2458 JUMP JUMPDEST SWAP3 PUSH2 0x28EF PUSH2 0x2947 SWAP2 PUSH2 0x26E1 PUSH16 0xFFCB9843D60F6159C9DB58835C926644 PUSH2 0x62D JUMP JUMPDEST SWAP3 PUSH2 0x243A JUMP JUMPDEST SWAP3 PUSH2 0x28EF PUSH2 0x296E SWAP2 PUSH2 0x26E1 PUSH16 0xFFE5CACA7E10E4E61C3624EAA0941CD0 PUSH2 0x62D JUMP JUMPDEST SWAP3 PUSH2 0x241C JUMP JUMPDEST SWAP3 PUSH2 0x28EF PUSH2 0x2995 SWAP2 PUSH2 0x26E1 PUSH16 0xFFF2E50F5F656932EF12357CF3C7FDCC PUSH2 0x62D JUMP JUMPDEST SWAP3 PUSH2 0x23FE JUMP JUMPDEST SWAP3 PUSH2 0x28EF PUSH2 0x29BC SWAP2 PUSH2 0x26E1 PUSH16 0xFFF97272373D413259A46990580E213A PUSH2 0x62D JUMP JUMPDEST SWAP3 PUSH2 0x23E0 JUMP JUMPDEST PUSH2 0x23C1 PUSH2 0x23BC PUSH1 0x1 PUSH1 0x80 SHL PUSH2 0x22A8 JUMP JUMPDEST PUSH2 0x29DE PUSH2 0x18BE DUP4 PUSH2 0x21FC JUMP JUMPDEST SWAP2 PUSH2 0x235D JUMP JUMPDEST PUSH2 0x29F9 PUSH2 0xC3 SWAP2 PUSH2 0x29F3 PUSH1 0x0 SWAP1 JUMP JUMPDEST POP PUSH2 0x11A1 JUMP JUMPDEST PUSH2 0x269A PUSH2 0x623 JUMP JUMPDEST SWAP1 PUSH2 0x2A11 PUSH2 0xC3 SWAP3 PUSH2 0x29F3 PUSH1 0x0 SWAP1 JUMP JUMPDEST PUSH2 0x2A31 PUSH2 0x2A26 PUSH2 0x2A1F PUSH2 0x623 JUMP JUMPDEST DUP1 SWAP4 PUSH2 0x63A JUMP JUMPDEST SWAP2 PUSH2 0xA48 PUSH1 0x1 PUSH2 0x62D JUMP JUMPDEST SWAP1 PUSH2 0x31E9 JUMP JUMPDEST PUSH2 0x2A52 SWAP1 PUSH1 0x1 PUSH1 0x1 PUSH1 0xA0 SHL SUB AND JUMPDEST SWAP2 PUSH1 0x1 PUSH1 0x1 PUSH1 0xA0 SHL SUB AND SWAP1 JUMP JUMPDEST SWAP1 SUB SWAP1 PUSH1 0x1 PUSH1 0x1 PUSH1 0xA0 SHL SUB DUP3 GT PUSH2 0x5F5 JUMPI JUMP JUMPDEST PUSH2 0x2A9D PUSH2 0x2A98 PUSH2 0xC3 SWAP5 SWAP4 PUSH2 0x2A78 PUSH1 0x0 SWAP1 JUMP JUMPDEST POP PUSH2 0x2A92 PUSH2 0x29F9 PUSH2 0x2A8C PUSH1 0x1 PUSH1 0x60 SHL PUSH2 0x657 JUMP JUMPDEST SWAP6 PUSH2 0x11A1 JUMP JUMPDEST SWAP4 PUSH2 0x2A37 JUMP JUMPDEST PUSH2 0x1225 JUMP JUMPDEST SWAP1 PUSH2 0x332D JUMP JUMPDEST SWAP1 PUSH2 0x2AB3 PUSH2 0xC3 SWAP3 PUSH2 0x29F3 PUSH1 0x0 SWAP1 JUMP JUMPDEST PUSH2 0x2A31 PUSH2 0x1BD2 PUSH2 0x2ACB PUSH2 0x2AC4 PUSH2 0x623 JUMP JUMPDEST DUP1 SWAP5 PUSH2 0x63A JUMP JUMPDEST SWAP3 PUSH2 0xA48 PUSH1 0x1 PUSH2 0x62D JUMP JUMPDEST SWAP1 PUSH1 0xFF SWAP1 PUSH2 0x6C6 JUMP JUMPDEST SWAP1 PUSH2 0x2AEF PUSH2 0xC3 PUSH2 0x6FB SWAP3 ISZERO ISZERO SWAP1 JUMP JUMPDEST DUP3 SLOAD PUSH2 0x2AD6 JUMP JUMPDEST SWAP1 PUSH17 0xFFFFFFFFFFFFFFFFFFFFFFFFFFFFFFFF00 SWAP1 PUSH1 0x8 SHL PUSH2 0x6C6 JUMP JUMPDEST SWAP1 PUSH2 0x2B22 PUSH2 0xC3 PUSH2 0x6FB SWAP3 PUSH2 0x761 JUMP JUMPDEST DUP3 SLOAD PUSH2 0x2AF6 JUMP JUMPDEST PUSH2 0xC3 PUSH2 0xCA SWAP3 PUSH2 0x2B45 SWAP3 SWAP6 SWAP5 SWAP6 PUSH2 0x2B3F PUSH1 0x0 SWAP1 JUMP JUMPDEST POP PUSH2 0x674 JUMP JUMPDEST SWAP3 PUSH2 0x2B4F DUP5 PUSH2 0x1243 JUMP JUMPDEST PUSH1 0x0 SWAP5 DUP6 SWAP2 PUSH2 0x2B60 PUSH2 0x733 DUP5 PUSH2 0x5AA JUMP JUMPDEST EQ PUSH2 0x2BB4 JUMPI JUMPDEST ADD SWAP4 PUSH2 0x2BAC PUSH2 0x2BA6 PUSH2 0x2B81 PUSH2 0x2B7A DUP9 PUSH2 0x1243 JUMP JUMPDEST SWAP5 DUP6 PUSH2 0x725 JUMP JUMPDEST SWAP4 PUSH2 0x2BA2 PUSH2 0x733 PUSH2 0x2B91 DUP7 PUSH2 0x5AA JUMP JUMPDEST PUSH1 0x1 PUSH1 0x1 PUSH1 0x80 SHL SUB DUP9 AND EQ SWAP6 PUSH2 0x5AA JUMP JUMPDEST EQ SWAP1 JUMP JUMPDEST SWAP2 ISZERO ISZERO SWAP1 JUMP JUMPDEST EQ ISZERO SWAP4 PUSH2 0x2B12 JUMP JUMPDEST PUSH2 0x2BC1 PUSH1 0x1 DUP4 DUP4 ADD PUSH2 0x2ADF JUMP JUMPDEST PUSH2 0x2B66 JUMP JUMPDEST PUSH2 0x2BD2 SWAP1 PUSH1 0x3 SIGNEXTEND PUSH2 0x5D5 JUMP JUMPDEST SWAP1 DUP2 ISZERO PUSH2 0x22F7 JUMPI SMOD SWAP1 JUMP JUMPDEST ISZERO PUSH2 0xB2 JUMPI JUMP JUMPDEST SWAP1 PUSH2 0x2C24 PUSH2 0x2C17 PUSH2 0x2C2A SWAP3 PUSH2 0x2C12 PUSH2 0x2BFF PUSH2 0xCA SWAP8 DUP4 PUSH2 0x2BC6 JUMP JUMPDEST PUSH2 0x2C0C PUSH2 0x5D5 PUSH1 0x0 PUSH2 0x585 JUMP JUMPDEST EQ PUSH2 0x2BDD JUMP JUMPDEST PUSH2 0x33B7 JUMP JUMPDEST PUSH2 0xA48 PUSH1 0x1 SWAP4 SWAP3 SWAP4 PUSH2 0x62D JUMP JUMPDEST SWAP3 PUSH2 0x674 JUMP JUMPDEST SWAP1 PUSH2 0x2C34 DUP3 PUSH2 0x187 JUMP JUMPDEST XOR SWAP1 PUSH2 0x1670 JUMP JUMPDEST PUSH2 0xC6 SWAP1 PUSH1 0x1 PUSH1 0x1 PUSH1 0xA0 SHL SUB AND PUSH1 0x60 SHL SWAP1 JUMP JUMPDEST PUSH1 0x14 DUP2 PUSH2 0x2C61 PUSH2 0x811 SWAP4 PUSH1 0x4 SWAP7 SWAP6 PUSH2 0x2C3B JUMP JUMPDEST ADD DUP1 SWAP3 PUSH1 0xE0 SHL SWAP1 MSTORE JUMP JUMPDEST SWAP1 PUSH2 0x67E JUMP JUMPDEST PUSH2 0x2C96 PUSH2 0x2CA2 PUSH2 0xC3 SWAP5 PUSH2 0xC3 SWAP5 PUSH2 0x2C88 PUSH1 0x40 MLOAD SWAP1 JUMP JUMPDEST SWAP4 DUP5 SWAP3 PUSH1 0x20 DUP5 ADD SWAP3 DUP4 PUSH2 0x2C4E JUMP JUMPDEST SWAP1 DUP2 SUB DUP3 MSTORE SUB DUP3 PUSH2 0x7B6 JUMP JUMPDEST PUSH2 0x2CB4 PUSH2 0x2CAD DUP3 MLOAD SWAP1 JUMP JUMPDEST SWAP2 PUSH1 0x20 ADD SWAP1 JUMP JUMPDEST KECCAK256 SWAP1 PUSH2 0x2C6B JUMP JUMPDEST PUSH2 0xCA SWAP2 PUSH2 0x2CCC SWAP1 PUSH2 0x947 DUP4 PUSH2 0x71B JUMP JUMPDEST SWAP1 PUSH2 0x777 JUMP JUMPDEST PUSH2 0xCA PUSH2 0x2CDE PUSH1 0x40 MLOAD SWAP1 JUMP JUMPDEST PUSH4 0x51973EC9 PUSH1 0xE0 SHL PUSH1 0x20 DUP3 ADD MSTORE PUSH2 0x2D03 DUP2 PUSH1 0x24 DUP2 ADD JUMPDEST PUSH1 0x20 DUP3 ADD DUP2 SUB DUP3 MSTORE SUB DUP3 PUSH2 0x7B6 JUMP JUMPDEST PUSH2 0x33F0 JUMP JUMPDEST PUSH1 0x0 JUMPDEST DUP4 DUP2 LT PUSH2 0x2D1B JUMPI POP POP PUSH1 0x0 SWAP2 ADD MSTORE JUMP JUMPDEST DUP2 DUP2 ADD MLOAD DUP4 DUP3 ADD MSTORE PUSH1 0x20 ADD PUSH2 0x2D0B JUMP JUMPDEST PUSH2 0x2D4C PUSH2 0x807 PUSH1 0x20 SWAP4 PUSH2 0x811 SWAP4 PUSH2 0x2D40 DUP2 MLOAD SWAP1 JUMP JUMPDEST DUP1 DUP4 MSTORE SWAP4 DUP5 SWAP3 PUSH1 0x20 ADD SWAP1 JUMP JUMPDEST SWAP6 DUP7 SWAP2 ADD PUSH2 0x2D08 JUMP JUMPDEST PUSH1 0x20 DUP1 DUP3 MSTORE PUSH2 0xC3 SWAP3 SWAP2 ADD SWAP1 PUSH2 0x2D2B JUMP JUMPDEST PUSH2 0x2CF4 PUSH2 0x2D03 PUSH2 0xCA SWAP3 PUSH2 0x2D79 PUSH1 0x40 MLOAD SWAP1 JUMP JUMPDEST PUSH4 0x104C13EB PUSH1 0xE2 SHL PUSH1 0x20 DUP3 ADD MSTORE SWAP3 DUP4 SWAP2 PUSH1 0x24 DUP4 ADD PUSH2 0x2D55 JUMP JUMPDEST SWAP3 SWAP2 PUSH1 0x20 PUSH2 0x2DAF PUSH2 0xCA SWAP4 PUSH1 0x40 DUP8 ADD SWAP1 DUP8 DUP3 SUB PUSH1 0x0 DUP10 ADD MSTORE PUSH2 0x2D2B JUMP JUMPDEST SWAP5 ADD MSTORE JUMP JUMPDEST SWAP1 PUSH2 0x2D03 PUSH2 0xCA SWAP3 PUSH2 0x2CF4 PUSH2 0x2DC8 PUSH1 0x40 MLOAD SWAP1 JUMP JUMPDEST PUSH4 0x2D839CB3 PUSH1 0xE2 SHL PUSH1 0x20 DUP3 ADD MSTORE SWAP4 DUP5 SWAP3 PUSH1 0x24 DUP5 ADD PUSH2 0x2D92 JUMP JUMPDEST PUSH2 0x2DED SWAP1 PUSH1 0x3 SIGNEXTEND PUSH2 0x5D5 JUMP JUMPDEST SWAP1 DUP2 ISZERO PUSH2 0x22F7 JUMPI PUSH4 0x7FFFFFFF NOT DUP2 EQ PUSH1 0x0 NOT DUP4 EQ AND PUSH2 0x5F5 JUMPI SDIV SWAP1 JUMP JUMPDEST PUSH2 0x2E1A PUSH2 0xC3 PUSH2 0xC3 SWAP3 PUSH1 0xFF AND SWAP1 JUMP JUMPDEST PUSH4 0xFFFFFFFF AND SWAP1 JUMP JUMPDEST PUSH2 0x196 PUSH2 0xC3 PUSH2 0xC3 SWAP3 PUSH4 0xFFFFFFFF AND SWAP1 JUMP JUMPDEST PUSH2 0x2E42 SWAP1 PUSH1 0x3 SIGNEXTEND PUSH2 0x5D5 JUMP JUMPDEST MUL SWAP1 PUSH2 0x2E4E DUP3 PUSH1 0x3 SIGNEXTEND SWAP1 JUMP JUMPDEST SWAP2 DUP3 SUB PUSH2 0x5F5 JUMPI JUMP JUMPDEST SWAP3 SWAP2 SWAP1 DUP2 PUSH2 0x2E6D SWAP2 PUSH2 0x2E67 PUSH1 0x0 SWAP1 JUMP JUMPDEST POP PUSH2 0x2DE1 JUMP JUMPDEST SWAP2 ISZERO PUSH2 0x2F02 JUMPI PUSH2 0x2EA7 SWAP3 PUSH2 0x2EAC PUSH2 0x2E83 DUP5 PUSH2 0x33B7 JUMP JUMPDEST SWAP6 SWAP1 PUSH2 0x2EA1 PUSH2 0x2E92 PUSH1 0x1 PUSH2 0x62D JUMP JUMPDEST PUSH2 0x2E9C DUP10 DUP3 PUSH2 0x63A JUMP JUMPDEST PUSH2 0x124D JUMP JUMPDEST SWAP4 PUSH2 0x674 JUMP JUMPDEST PUSH2 0x187 JUMP JUMPDEST AND SWAP3 PUSH2 0x2EB8 PUSH1 0x0 PUSH2 0x62D JUMP JUMPDEST DUP5 EQ DUP1 ISZERO SWAP5 SWAP1 PUSH2 0x2EEE JUMPI SWAP3 PUSH2 0x1BFF PUSH2 0x2EE1 PUSH2 0x2EDC PUSH2 0x2EE6 SWAP5 PUSH2 0xA38 PUSH2 0x2EEB SWAP9 PUSH2 0x367E JUMP JUMPDEST PUSH2 0x2E0A JUMP JUMPDEST PUSH2 0x2E23 JUMP JUMPDEST PUSH2 0x2E36 JUMP JUMPDEST SWAP2 JUMP JUMPDEST POP PUSH2 0x2EEB SWAP3 PUSH2 0x1BFF PUSH2 0x2EE1 PUSH2 0x2EE6 SWAP4 PUSH2 0x2E0A JUMP JUMPDEST PUSH2 0x2EA7 PUSH1 0x1 SWAP4 PUSH2 0x2F3F PUSH2 0x2F20 PUSH2 0x2C12 PUSH2 0x2F1A DUP9 PUSH2 0x585 JUMP JUMPDEST DUP8 PUSH2 0xEE4 JUMP JUMPDEST SWAP4 SWAP1 PUSH2 0x2EA1 PUSH2 0x2F3B PUSH2 0x2F31 DUP11 PUSH2 0x62D JUMP JUMPDEST PUSH2 0x2E9C DUP9 DUP3 PUSH2 0x63A JUMP JUMPDEST NOT SWAP1 JUMP JUMPDEST AND SWAP1 PUSH2 0x2F4B PUSH1 0x0 PUSH2 0x62D JUMP JUMPDEST DUP3 EQ DUP1 ISZERO SWAP6 SWAP1 PUSH2 0x2F87 JUMPI PUSH2 0x2EE1 PUSH2 0x2EDC PUSH2 0x2EE6 SWAP5 SWAP4 PUSH2 0x2F82 PUSH2 0x2F7C PUSH2 0x2EEB SWAP10 PUSH2 0x2F76 PUSH2 0x2F76 SWAP8 PUSH2 0x585 JUMP JUMPDEST SWAP1 PUSH2 0xEE4 JUMP JUMPDEST SWAP6 PUSH2 0x3436 JUMP JUMPDEST PUSH2 0x69F JUMP JUMPDEST PUSH2 0x2EE6 SWAP3 POP PUSH2 0x2EE1 PUSH2 0x2EDC PUSH2 0x2FA5 PUSH2 0x2EEB SWAP8 PUSH2 0x2F76 PUSH2 0x2F76 SWAP6 PUSH2 0x585 JUMP JUMPDEST SWAP4 PUSH1 0xFF PUSH2 0x69F JUMP JUMPDEST PUSH1 0x40 SWAP1 PUSH2 0x2E1 PUSH2 0x2FCF PUSH2 0xCA SWAP6 SWAP8 SWAP7 SWAP5 PUSH1 0x60 DUP5 ADD SWAP1 DUP5 DUP3 SUB PUSH1 0x0 DUP7 ADD MSTORE PUSH2 0x2D2B JUMP JUMPDEST SWAP7 PUSH1 0x20 DUP4 ADD MSTORE JUMP JUMPDEST PUSH2 0x2D03 SWAP1 PUSH2 0x2CF4 PUSH2 0xCA SWAP5 PUSH2 0x2FEB PUSH1 0x40 MLOAD SWAP1 JUMP JUMPDEST PUSH4 0xCA47C4EB PUSH1 0xE0 SHL PUSH1 0x20 DUP3 ADD MSTORE SWAP5 DUP6 SWAP4 PUSH1 0x24 DUP6 ADD PUSH2 0x2FAD JUMP JUMPDEST PUSH2 0x2E1 PUSH2 0xCA SWAP5 PUSH2 0x83F PUSH2 0x302A PUSH1 0x60 SWAP6 SWAP10 SWAP9 SWAP7 SWAP10 PUSH1 0x80 DUP7 ADD SWAP1 DUP7 DUP3 SUB PUSH1 0x0 DUP9 ADD MSTORE PUSH2 0x2D2B JUMP JUMPDEST SWAP9 PUSH1 0x20 DUP6 ADD MSTORE JUMP JUMPDEST PUSH2 0x2CF4 PUSH2 0xCA SWAP5 PUSH2 0x2D03 SWAP4 SWAP5 PUSH2 0x3047 PUSH1 0x40 MLOAD SWAP1 JUMP JUMPDEST PUSH4 0xA7A87853 PUSH1 0xE0 SHL PUSH1 0x20 DUP3 ADD MSTORE SWAP6 DUP7 SWAP5 PUSH1 0x24 DUP7 ADD PUSH2 0x3004 JUMP JUMPDEST PUSH2 0x3072 SWAP1 PUSH1 0x1 PUSH1 0x1 PUSH1 0xA0 SHL SUB AND PUSH2 0x2A45 JUMP JUMPDEST ADD SWAP1 PUSH1 0x1 PUSH1 0x1 PUSH1 0xA0 SHL SUB DUP3 GT PUSH2 0x5F5 JUMPI JUMP JUMPDEST SWAP5 SWAP2 SWAP4 PUSH1 0x0 SWAP4 DUP2 ISZERO PUSH2 0x3170 JUMPI PUSH2 0x309A DUP7 DUP5 PUSH2 0x2AA3 JUMP JUMPDEST DUP5 LT ISZERO PUSH2 0x30FF JUMPI POP DUP6 SWAP1 DUP4 SWAP5 POP PUSH1 0x0 EQ PUSH2 0x30E1 JUMPI PUSH2 0x2A92 SWAP1 PUSH2 0x30BF PUSH2 0x30DD SWAP5 DUP5 PUSH2 0x3841 JUMP JUMPDEST SWAP3 PUSH2 0x30D7 DUP5 PUSH2 0x30D2 PUSH2 0xA4D PUSH2 0xA3E PUSH2 0x623 JUMP JUMPDEST PUSH2 0x2A37 JUMP JUMPDEST SWAP1 PUSH2 0x2A65 JUMP JUMPDEST SWAP3 SWAP4 JUMP JUMPDEST PUSH2 0x30F2 PUSH2 0x30DD SWAP4 DUP4 PUSH2 0x30F9 SWAP4 PUSH2 0x3811 JUMP JUMPDEST DUP1 SWAP3 PUSH2 0x2AA3 JUMP JUMPDEST SWAP4 PUSH2 0x3060 JUMP JUMPDEST SWAP6 SWAP3 POP SWAP1 SWAP4 SWAP3 POP PUSH1 0x0 EQ PUSH2 0x3141 JUMPI PUSH2 0x3133 SWAP2 SWAP1 PUSH2 0x312D SWAP1 PUSH2 0x3127 DUP4 PUSH2 0x30D2 PUSH1 0x1 PUSH1 0x60 SHL PUSH2 0x657 JUMP JUMPDEST DUP6 PUSH2 0x2A65 JUMP JUMPDEST SWAP3 PUSH2 0x2AA3 JUMP JUMPDEST PUSH2 0x30DD PUSH2 0xA4D PUSH2 0xA3E PUSH2 0x623 JUMP JUMPDEST DUP2 PUSH2 0x3160 PUSH2 0x315A PUSH2 0x3166 SWAP5 PUSH2 0x30D2 PUSH2 0xA4D PUSH2 0xA3E PUSH2 0x623 JUMP JUMPDEST DUP6 PUSH2 0x2AA3 JUMP JUMPDEST SWAP4 PUSH2 0x2A65 JUMP JUMPDEST PUSH2 0x30DD PUSH1 0x0 PUSH2 0x657 JUMP JUMPDEST PUSH2 0x317B DUP8 DUP8 DUP6 PUSH2 0x2A65 JUMP JUMPDEST PUSH2 0x309A JUMP JUMPDEST SWAP5 SWAP4 SWAP2 PUSH2 0x2DAF SWAP1 PUSH2 0xCA SWAP5 PUSH2 0x31AE PUSH2 0x31A6 PUSH1 0x60 SWAP6 PUSH1 0x80 DUP12 ADD SWAP1 DUP12 DUP3 SUB PUSH1 0x0 DUP14 ADD MSTORE PUSH2 0x2D2B JUMP JUMPDEST SWAP3 PUSH1 0x20 DUP11 ADD MSTORE JUMP JUMPDEST DUP8 DUP3 SUB PUSH1 0x40 DUP10 ADD MSTORE PUSH2 0x2D2B JUMP JUMPDEST PUSH2 0x2CF4 PUSH2 0xCA SWAP5 PUSH2 0x2D03 SWAP4 SWAP5 PUSH2 0x31D0 PUSH1 0x40 MLOAD SWAP1 JUMP JUMPDEST PUSH4 0xC67EA9D1 PUSH1 0xE0 SHL PUSH1 0x20 DUP3 ADD MSTORE SWAP6 DUP7 SWAP5 PUSH1 0x24 DUP7 ADD PUSH2 0x3180 JUMP JUMPDEST SWAP2 SWAP3 SWAP2 SWAP1 PUSH1 0x0 SWAP1 PUSH1 0x0 NOT DUP2 DUP5 MULMOD SWAP3 DUP2 DUP2 MUL SWAP4 DUP5 DUP1 DUP3 LT SWAP2 SUB SUB SWAP3 PUSH2 0x320D PUSH1 0x0 PUSH2 0x62D JUMP JUMPDEST DUP5 EQ PUSH2 0x330F JUMPI DUP7 DUP5 LT ISZERO PUSH2 0x32EB JUMPI SWAP3 DUP7 PUSH2 0xC3 SWAP7 SWAP8 SWAP4 PUSH2 0x3257 SWAP4 PUSH2 0x326A SWAP7 POP MULMOD DUP1 DUP7 SUB SWAP6 LT SWAP1 SUB PUSH1 0x1 PUSH2 0x3244 DUP5 NOT PUSH2 0x811 DUP4 PUSH2 0x62D JUMP JUMPDEST DUP5 AND DUP1 DUP1 SWAP6 DIV SWAP7 DIV SWAP4 DUP1 PUSH1 0x0 SUB DIV ADD MUL SWAP1 JUMP JUMPDEST OR SWAP2 PUSH2 0x326A PUSH2 0x326E DUP3 PUSH2 0x326A PUSH1 0x3 PUSH2 0x62D JUMP JUMPDEST MUL SWAP1 JUMP JUMPDEST PUSH2 0x329F PUSH2 0x32E5 PUSH2 0x32DF PUSH2 0x32D0 PUSH2 0x32C1 PUSH2 0x32B2 PUSH2 0x32A3 PUSH1 0x2 SWAP8 PUSH2 0x328F DUP10 PUSH2 0x62D JUMP JUMPDEST XOR PUSH2 0x326A DUP12 DUP3 MUL PUSH2 0x329F DUP12 PUSH2 0x62D JUMP JUMPDEST SUB SWAP1 JUMP JUMPDEST PUSH2 0x326A DUP11 DUP3 MUL PUSH2 0x329F DUP11 PUSH2 0x62D JUMP JUMPDEST PUSH2 0x326A DUP10 DUP3 MUL PUSH2 0x329F DUP10 PUSH2 0x62D JUMP JUMPDEST PUSH2 0x326A DUP9 DUP3 MUL PUSH2 0x329F DUP9 PUSH2 0x62D JUMP JUMPDEST PUSH2 0x326A DUP8 DUP3 MUL PUSH2 0x329F DUP8 PUSH2 0x62D JUMP JUMPDEST DUP1 SWAP6 MUL SWAP1 JUMP JUMPDEST SWAP2 PUSH2 0x62D JUMP JUMPDEST DUP7 DUP5 PUSH2 0xAD6 PUSH2 0x32F9 PUSH1 0x40 MLOAD SWAP1 JUMP JUMPDEST PUSH4 0x1DCF3063 PUSH1 0xE2 SHL DUP2 MSTORE SWAP3 DUP4 SWAP3 PUSH1 0x4 DUP5 ADD PUSH2 0x2CE JUMP JUMPDEST POP POP POP POP SWAP2 PUSH2 0xC3 SWAP2 SWAP3 PUSH2 0x22ED JUMP JUMPDEST PUSH1 0x0 NOT DUP2 EQ PUSH2 0x5F5 JUMPI PUSH1 0x1 ADD SWAP1 JUMP JUMPDEST SWAP2 SWAP3 SWAP2 PUSH2 0x333B DUP5 DUP4 DUP4 PUSH2 0x31E9 JUMP JUMPDEST SWAP2 DUP3 SWAP5 DUP1 ISZERO PUSH2 0x22F7 JUMPI PUSH2 0x3357 SWAP2 PUSH2 0x3352 PUSH1 0x0 PUSH2 0x62D JUMP JUMPDEST SWAP4 MULMOD SWAP1 JUMP JUMPDEST GT PUSH2 0x335F JUMPI POP JUMP JUMPDEST SWAP1 SWAP2 POP PUSH2 0xC3 SWAP1 PUSH2 0x3373 PUSH1 0x0 NOT DUP3 LT PUSH2 0x2BDD JUMP JUMPDEST PUSH2 0x331E JUMP JUMPDEST PUSH2 0x196 SWAP1 PUSH2 0x338C PUSH2 0x5D5 PUSH2 0xC3 SWAP5 PUSH1 0xFF AND SWAP1 JUMP JUMPDEST SWAP1 SAR SWAP1 JUMP JUMPDEST PUSH2 0x33A1 PUSH2 0xC3 PUSH2 0xC3 SWAP3 PUSH1 0x3 SIGNEXTEND SWAP1 JUMP JUMPDEST PUSH1 0x0 SIGNEXTEND SWAP1 JUMP JUMPDEST PUSH2 0x61D PUSH2 0xC3 PUSH2 0xC3 SWAP3 PUSH1 0x0 SIGNEXTEND SWAP1 JUMP JUMPDEST SWAP1 PUSH2 0xC3 PUSH2 0x33EB PUSH2 0x33E6 PUSH2 0x33D4 PUSH2 0x33CE PUSH1 0x8 PUSH2 0x610 JUMP JUMPDEST DUP7 PUSH2 0x3378 JUMP JUMPDEST SWAP5 PUSH2 0x33E0 PUSH2 0x100 PUSH2 0x585 JUMP JUMPDEST SWAP1 PUSH2 0x2BC6 JUMP JUMPDEST PUSH2 0x3391 JUMP JUMPDEST PUSH2 0x33A7 JUMP JUMPDEST PUSH2 0xCA SWAP1 PUSH1 0x1 PUSH2 0x38A3 JUMP JUMPDEST PUSH2 0xC3 PUSH2 0xC3 PUSH2 0xC3 SWAP3 PUSH8 0xFFFFFFFFFFFFFFFF AND SWAP1 JUMP JUMPDEST PUSH2 0xC3 PUSH2 0xC3 PUSH2 0xC3 SWAP3 PUSH4 0xFFFFFFFF AND SWAP1 JUMP JUMPDEST PUSH2 0xC3 PUSH2 0xC3 PUSH2 0xC3 SWAP3 PUSH2 0xFFFF AND SWAP1 JUMP JUMPDEST SWAP1 PUSH1 0x0 PUSH2 0x344D PUSH2 0x3445 DUP3 PUSH2 0x62D JUMP JUMPDEST DUP5 JUMPDEST GT PUSH2 0x2BDD JUMP JUMPDEST PUSH2 0x3457 PUSH1 0xFF PUSH2 0x610 JUMP JUMPDEST DUP1 PUSH2 0x3468 PUSH1 0x1 PUSH1 0x1 PUSH1 0x80 SHL SUB PUSH2 0x11A1 JUMP JUMPDEST DUP6 AND PUSH2 0x3476 PUSH2 0x64E DUP6 PUSH2 0x62D JUMP JUMPDEST GT ISZERO PUSH2 0x3650 JUMPI POP PUSH2 0x348B SWAP1 PUSH2 0xA38 PUSH1 0x80 PUSH2 0x610 JUMP JUMPDEST PUSH2 0x349C PUSH8 0xFFFFFFFFFFFFFFFF PUSH2 0x33FB JUMP JUMPDEST DUP5 AND PUSH2 0x34AA PUSH2 0x64E DUP5 PUSH2 0x62D JUMP JUMPDEST GT ISZERO PUSH2 0x363B JUMPI PUSH2 0x34BE SWAP1 PUSH2 0xA38 PUSH1 0x40 PUSH2 0x610 JUMP JUMPDEST PUSH2 0x34CB PUSH4 0xFFFFFFFF PUSH2 0x3412 JUMP JUMPDEST DUP5 AND PUSH2 0x34D9 PUSH2 0x64E DUP5 PUSH2 0x62D JUMP JUMPDEST GT ISZERO PUSH2 0x3626 JUMPI PUSH2 0x34ED SWAP1 PUSH2 0xA38 PUSH1 0x20 PUSH2 0x610 JUMP JUMPDEST PUSH2 0x34F8 PUSH2 0xFFFF PUSH2 0x3425 JUMP JUMPDEST DUP5 AND PUSH2 0x3506 PUSH2 0x64E DUP5 PUSH2 0x62D JUMP JUMPDEST GT ISZERO PUSH2 0x3611 JUMPI PUSH2 0x351A SWAP1 PUSH2 0xA38 PUSH1 0x10 PUSH2 0x610 JUMP JUMPDEST PUSH2 0x3524 PUSH1 0xFF PUSH2 0x2306 JUMP JUMPDEST DUP5 AND PUSH2 0x3532 PUSH2 0x64E DUP5 PUSH2 0x62D JUMP JUMPDEST GT ISZERO PUSH2 0x35FC JUMPI PUSH2 0x3546 SWAP1 PUSH2 0xA38 PUSH1 0x8 PUSH2 0x610 JUMP JUMPDEST PUSH2 0x3550 PUSH1 0xF PUSH2 0x62D JUMP JUMPDEST DUP5 AND PUSH2 0x355E PUSH2 0x64E DUP5 PUSH2 0x62D JUMP JUMPDEST GT ISZERO PUSH2 0x35E7 JUMPI PUSH2 0x3572 SWAP1 PUSH2 0xA38 PUSH1 0x4 PUSH2 0x610 JUMP JUMPDEST PUSH2 0x357C PUSH1 0x3 PUSH2 0x62D JUMP JUMPDEST DUP5 AND PUSH2 0x358A PUSH2 0x64E DUP5 PUSH2 0x62D JUMP JUMPDEST GT ISZERO PUSH2 0x35CD JUMPI PUSH2 0x64E PUSH2 0x35A4 PUSH2 0x35B7 SWAP3 PUSH2 0xA38 PUSH1 0x2 PUSH2 0x610 JUMP JUMPDEST SWAP5 JUMPDEST PUSH2 0x35B0 PUSH1 0x1 PUSH2 0x62D JUMP JUMPDEST AND SWAP3 PUSH2 0x62D JUMP JUMPDEST GT PUSH2 0x35BE JUMPI JUMP JUMPDEST SWAP1 PUSH2 0xC3 SWAP1 PUSH2 0xA38 PUSH1 0x1 PUSH2 0x610 JUMP JUMPDEST SWAP3 PUSH2 0x64E PUSH2 0x35E2 PUSH2 0x35B7 SWAP3 PUSH2 0x2684 PUSH1 0x2 PUSH2 0x610 JUMP JUMPDEST PUSH2 0x35A6 JUMP JUMPDEST SWAP3 PUSH2 0x35F6 SWAP1 PUSH2 0x2684 PUSH1 0x4 PUSH2 0x610 JUMP JUMPDEST SWAP3 PUSH2 0x3572 JUMP JUMPDEST SWAP3 PUSH2 0x360B SWAP1 PUSH2 0x2684 PUSH1 0x8 PUSH2 0x610 JUMP JUMPDEST SWAP3 PUSH2 0x3546 JUMP JUMPDEST SWAP3 PUSH2 0x3620 SWAP1 PUSH2 0x2684 PUSH1 0x10 PUSH2 0x610 JUMP JUMPDEST SWAP3 PUSH2 0x351A JUMP JUMPDEST SWAP3 PUSH2 0x3635 SWAP1 PUSH2 0x2684 PUSH1 0x20 PUSH2 0x610 JUMP JUMPDEST SWAP3 PUSH2 0x34ED JUMP JUMPDEST SWAP3 PUSH2 0x364A SWAP1 PUSH2 0x2684 PUSH1 0x40 PUSH2 0x610 JUMP JUMPDEST SWAP3 PUSH2 0x34BE JUMP JUMPDEST SWAP4 PUSH2 0x3660 SWAP2 POP PUSH2 0x2684 PUSH1 0x80 PUSH2 0x610 JUMP JUMPDEST SWAP3 PUSH2 0x348B JUMP JUMPDEST PUSH2 0x3672 SWAP1 PUSH1 0xFF AND PUSH2 0x6A7 JUMP JUMPDEST ADD SWAP1 PUSH1 0xFF DUP3 GT PUSH2 0x5F5 JUMPI JUMP JUMPDEST SWAP1 PUSH1 0x0 SWAP2 DUP3 PUSH2 0x3696 PUSH2 0x3690 PUSH1 0x0 PUSH2 0x62D JUMP JUMPDEST DUP4 PUSH2 0x3447 JUMP JUMPDEST PUSH2 0x36A3 PUSH1 0x1 PUSH1 0x80 SHL PUSH2 0x62D JUMP JUMPDEST DUP3 LT ISZERO PUSH2 0x37E3 JUMPI JUMPDEST POP PUSH2 0x36B9 PUSH1 0x1 PUSH1 0x40 SHL PUSH2 0x62D JUMP JUMPDEST DUP2 LT ISZERO PUSH2 0x37CC JUMPI JUMPDEST PUSH2 0x36CF PUSH5 0x100000000 PUSH2 0x62D JUMP JUMPDEST DUP2 LT ISZERO PUSH2 0x37B5 JUMPI JUMPDEST PUSH2 0x36E3 PUSH3 0x10000 PUSH2 0x62D JUMP JUMPDEST DUP2 LT ISZERO PUSH2 0x379E JUMPI JUMPDEST PUSH2 0x36F6 PUSH2 0x100 PUSH2 0x62D JUMP JUMPDEST DUP2 LT ISZERO PUSH2 0x3787 JUMPI JUMPDEST PUSH2 0x3708 PUSH1 0x10 PUSH2 0x62D JUMP JUMPDEST DUP2 LT ISZERO PUSH2 0x3770 JUMPI JUMPDEST PUSH2 0x371A PUSH1 0x4 PUSH2 0x62D JUMP JUMPDEST DUP2 LT ISZERO PUSH2 0x374C JUMPI JUMPDEST PUSH2 0x372F PUSH2 0x64E PUSH1 0x2 PUSH2 0x62D JUMP JUMPDEST LT ISZERO PUSH2 0x3737 JUMPI JUMP JUMPDEST SWAP1 PUSH2 0xC3 SWAP1 PUSH2 0x3746 PUSH1 0x1 PUSH2 0x610 JUMP JUMPDEST SWAP1 PUSH2 0x3666 JUMP JUMPDEST PUSH2 0x376A SWAP1 PUSH2 0x3764 PUSH2 0x375D PUSH1 0x2 PUSH2 0x610 JUMP JUMPDEST DUP1 SWAP3 PUSH2 0x12CE JUMP JUMPDEST SWAP4 PUSH2 0x3666 JUMP JUMPDEST SWAP2 PUSH2 0x3722 JUMP JUMPDEST PUSH2 0x3781 SWAP1 PUSH2 0x3764 PUSH2 0x375D PUSH1 0x4 PUSH2 0x610 JUMP JUMPDEST SWAP2 PUSH2 0x3710 JUMP JUMPDEST PUSH2 0x3798 SWAP1 PUSH2 0x3764 PUSH2 0x375D PUSH1 0x8 PUSH2 0x610 JUMP JUMPDEST SWAP2 PUSH2 0x36FE JUMP JUMPDEST PUSH2 0x37AF SWAP1 PUSH2 0x3764 PUSH2 0x375D PUSH1 0x10 PUSH2 0x610 JUMP JUMPDEST SWAP2 PUSH2 0x36EB JUMP JUMPDEST PUSH2 0x37C6 SWAP1 PUSH2 0x3764 PUSH2 0x375D PUSH1 0x20 PUSH2 0x610 JUMP JUMPDEST SWAP2 PUSH2 0x36D7 JUMP JUMPDEST PUSH2 0x37DD SWAP1 PUSH2 0x3764 PUSH2 0x375D PUSH1 0x40 PUSH2 0x610 JUMP JUMPDEST SWAP2 PUSH2 0x36C1 JUMP JUMPDEST SWAP3 POP PUSH2 0x37F6 SWAP1 PUSH2 0x3764 PUSH2 0x375D PUSH1 0x80 PUSH2 0x610 JUMP JUMPDEST SWAP2 CODESIZE PUSH2 0x36AB JUMP JUMPDEST PUSH2 0x128 SWAP1 PUSH2 0x652 PUSH2 0x733 PUSH2 0xC3 SWAP5 PUSH1 0xFF AND SWAP1 JUMP JUMPDEST PUSH2 0xC3 SWAP3 PUSH2 0x383B PUSH2 0x3836 PUSH2 0xA4D SWAP5 PUSH2 0x3827 PUSH1 0x0 SWAP1 JUMP JUMPDEST POP PUSH2 0x3830 PUSH2 0x623 JUMP JUMPDEST SWAP1 PUSH2 0x37FD JUMP JUMPDEST PUSH2 0x11A1 JUMP JUMPDEST SWAP2 PUSH2 0x332D JUMP JUMPDEST PUSH2 0xC3 SWAP2 PUSH2 0xA4D SWAP2 PUSH2 0x383B PUSH2 0x3836 PUSH2 0x3857 PUSH2 0x623 JUMP JUMPDEST PUSH2 0x3865 DUP2 PUSH2 0xA48 PUSH1 0x1 PUSH2 0x62D JUMP JUMPDEST SWAP4 PUSH2 0x37FD JUMP JUMPDEST PUSH1 0x0 DUP1 SWAP2 PUSH2 0x3881 PUSH11 0x636F6E736F6C652E6C6F67 SWAP1 JUMP JUMPDEST PUSH1 0x20 DUP3 MLOAD SWAP3 ADD SWAP1 GAS STATICCALL POP JUMP JUMPDEST PUSH4 0x4E487B71 PUSH1 0xE0 SHL PUSH1 0x0 MSTORE PUSH1 0x51 PUSH1 0x4 MSTORE PUSH1 0x24 PUSH1 0x0 REVERT JUMPDEST PUSH1 0x1 SUB PUSH2 0x388D JUMPI PUSH2 0xCA SWAP1 PUSH2 0x386B JUMP INVALID KECCAK256 KECCAK256 KECCAK256 KECCAK256 KECCAK256 KECCAK256 KECCAK256 KECCAK256 KECCAK256 KECCAK256 KECCAK256 JUMPDEST PREVRANDAO GASLIMIT TIMESTAMP SSTORE SELFBALANCE TSTORE GASPRICE KECCAK256 MSTORE8 PUSH22 0x72653A20707269636550A26469706673582212206B31 0xD 0xA5 0xDF 0x28 DUP6 EXTCODESIZE 0xBD 0xC4 RETURNDATACOPY BASEFEE PUSH25 0xC8E0754FCDDCE5AAAE3052A4CA8EB01954496864736F6C6343 STOP ADDMOD XOR STOP CALLER "},"methodIdentifiers":{"composition()":"d456b5dd","liquidity()":"1a686502","mint(address,int32,uint128,bytes)":"56b4b80d","onERC1155BatchReceived(address,address,uint256[],uint256[],bytes)":"bc197c81","onERC1155Received(address,address,uint256,uint256,bytes)":"f23a6e61","slot()":"1a88bc66","swap(uint256,uint256,bool,bytes)":"dd42d4c6","token0()":"0dfe1681","token1()":"d21220a7"}}}}}