{"contracts/lib/TestTree.sol":{"TestTree":{"abi":[{"inputs":[{"internalType":"uint32","name":"bin","type":"uint32"}],"name":"flipbin","outputs":[],"stateMutability":"nonpayable","type":"function"}],"evm":{"bytecode":{"linkReferences":{},"object":"60806040523461001a576040516103e761002082396103e790f35b600080fdfe6080604052600436101561001257600080fd5b60003560e01c634da4e3c70361003557610060565b63ffffffff81160361003557565b600080fd5b9050359061004782610027565b565b906020828203126100355761005d9161003a565b90565b3461003557610078610073366004610049565b610110565b604051005b61008a61005d61005d9290565b60ff1690565b6100b3906100ae6100a461005d9460ff1690565b9163ffffffff1690565b901c90565b63ffffffff1690565b6100cf61005d61005d9263ffffffff1690565b61ffff1690565b61005d61005d61005d9261ffff1690565b906100f1906100d6565b600052602052604060002090565b61005d9081565b61005d90546100ff565b6100479060006101208282610215565b61017d6101756101546101596101546002860161014e610149610143600861007d565b8a610090565b6100bc565b906100e7565b610106565b9461014e610149600187019261016f601061007d565b90610090565b918001610106565b610322565b61008a61005d61005d9263ffffffff1690565b61005d61005d61005d9290565b61005d906101ba6101b661005d9460ff1690565b9190565b901b90565b9061005d61005d6101cf92610195565b9055565b6100cf906100ae6101e761005d9460ff1690565b9161ffff1690565b61008a61005d61005d9261ffff1690565b61005d906101ba6101b661005d9461ffff1690565b60006102b161004793610228600861007d565b6102ac61028c6102866102476102416101498688610090565b95610182565b9361028060028a0161027b8861026061015482856100e7565b61027461026d6001610195565b9a8b6101a2565b17926100e7565b6101bf565b856101d3565b936101ef565b61027b8460018901926102746102a561015484876100e7565b91876101a2565b610200565b9101906102bd82610106565b17906101bf565b9081526060810193926100479290916040916102e1906020830152565b0152565b634e487b7160e01b600052604160045260246000fd5b90601f01601f1916810190811067ffffffffffffffff82111761031d57604052565b6102e5565b61035e9061034f6100479461033660405190565b63347b5e8f60e21b6020820152948593602485016102c4565b602082018103825203826102fb565b6100479060016103a1565b6000809161037f6a636f6e736f6c652e6c6f6790565b602082519201905afa50565b634e487b7160e01b600052605160045260246000fd5b60010361038b576100479061036956fea2646970667358221220b7d4eb207ff547f40ca095556ebcf9639b65fa6e9c09fbe17f116058da57fa2e64736f6c63430008180033","opcodes":"PUSH1 0x80 PUSH1 0x40 MSTORE CALLVALUE PUSH2 0x1A JUMPI PUSH1 0x40 MLOAD PUSH2 0x3E7 PUSH2 0x20 DUP3 CODECOPY PUSH2 0x3E7 SWAP1 RETURN JUMPDEST PUSH1 0x0 DUP1 REVERT INVALID PUSH1 0x80 PUSH1 0x40 MSTORE PUSH1 0x4 CALLDATASIZE LT ISZERO PUSH2 0x12 JUMPI PUSH1 0x0 DUP1 REVERT JUMPDEST PUSH1 0x0 CALLDATALOAD PUSH1 0xE0 SHR PUSH4 0x4DA4E3C7 SUB PUSH2 0x35 JUMPI PUSH2 0x60 JUMP JUMPDEST PUSH4 0xFFFFFFFF DUP2 AND SUB PUSH2 0x35 JUMPI JUMP JUMPDEST PUSH1 0x0 DUP1 REVERT JUMPDEST SWAP1 POP CALLDATALOAD SWAP1 PUSH2 0x47 DUP3 PUSH2 0x27 JUMP JUMPDEST JUMP JUMPDEST SWAP1 PUSH1 0x20 DUP3 DUP3 SUB SLT PUSH2 0x35 JUMPI PUSH2 0x5D SWAP2 PUSH2 0x3A JUMP JUMPDEST SWAP1 JUMP JUMPDEST CALLVALUE PUSH2 0x35 JUMPI PUSH2 0x78 PUSH2 0x73 CALLDATASIZE PUSH1 0x4 PUSH2 0x49 JUMP JUMPDEST PUSH2 0x110 JUMP JUMPDEST PUSH1 0x40 MLOAD STOP JUMPDEST PUSH2 0x8A PUSH2 0x5D PUSH2 0x5D SWAP3 SWAP1 JUMP JUMPDEST PUSH1 0xFF AND SWAP1 JUMP JUMPDEST PUSH2 0xB3 SWAP1 PUSH2 0xAE PUSH2 0xA4 PUSH2 0x5D SWAP5 PUSH1 0xFF AND SWAP1 JUMP JUMPDEST SWAP2 PUSH4 0xFFFFFFFF AND SWAP1 JUMP JUMPDEST SWAP1 SHR SWAP1 JUMP JUMPDEST PUSH4 0xFFFFFFFF AND SWAP1 JUMP JUMPDEST PUSH2 0xCF PUSH2 0x5D PUSH2 0x5D SWAP3 PUSH4 0xFFFFFFFF AND SWAP1 JUMP JUMPDEST PUSH2 0xFFFF AND SWAP1 JUMP JUMPDEST PUSH2 0x5D PUSH2 0x5D PUSH2 0x5D SWAP3 PUSH2 0xFFFF AND SWAP1 JUMP JUMPDEST SWAP1 PUSH2 0xF1 SWAP1 PUSH2 0xD6 JUMP JUMPDEST PUSH1 0x0 MSTORE PUSH1 0x20 MSTORE PUSH1 0x40 PUSH1 0x0 KECCAK256 SWAP1 JUMP JUMPDEST PUSH2 0x5D SWAP1 DUP2 JUMP JUMPDEST PUSH2 0x5D SWAP1 SLOAD PUSH2 0xFF JUMP JUMPDEST PUSH2 0x47 SWAP1 PUSH1 0x0 PUSH2 0x120 DUP3 DUP3 PUSH2 0x215 JUMP JUMPDEST PUSH2 0x17D PUSH2 0x175 PUSH2 0x154 PUSH2 0x159 PUSH2 0x154 PUSH1 0x2 DUP7 ADD PUSH2 0x14E PUSH2 0x149 PUSH2 0x143 PUSH1 0x8 PUSH2 0x7D JUMP JUMPDEST DUP11 PUSH2 0x90 JUMP JUMPDEST PUSH2 0xBC JUMP JUMPDEST SWAP1 PUSH2 0xE7 JUMP JUMPDEST PUSH2 0x106 JUMP JUMPDEST SWAP5 PUSH2 0x14E PUSH2 0x149 PUSH1 0x1 DUP8 ADD SWAP3 PUSH2 0x16F PUSH1 0x10 PUSH2 0x7D JUMP JUMPDEST SWAP1 PUSH2 0x90 JUMP JUMPDEST SWAP2 DUP1 ADD PUSH2 0x106 JUMP JUMPDEST PUSH2 0x322 JUMP JUMPDEST PUSH2 0x8A PUSH2 0x5D PUSH2 0x5D SWAP3 PUSH4 0xFFFFFFFF AND SWAP1 JUMP JUMPDEST PUSH2 0x5D PUSH2 0x5D PUSH2 0x5D SWAP3 SWAP1 JUMP JUMPDEST PUSH2 0x5D SWAP1 PUSH2 0x1BA PUSH2 0x1B6 PUSH2 0x5D SWAP5 PUSH1 0xFF AND SWAP1 JUMP JUMPDEST SWAP2 SWAP1 JUMP JUMPDEST SWAP1 SHL SWAP1 JUMP JUMPDEST SWAP1 PUSH2 0x5D PUSH2 0x5D PUSH2 0x1CF SWAP3 PUSH2 0x195 JUMP JUMPDEST SWAP1 SSTORE JUMP JUMPDEST PUSH2 0xCF SWAP1 PUSH2 0xAE PUSH2 0x1E7 PUSH2 0x5D SWAP5 PUSH1 0xFF AND SWAP1 JUMP JUMPDEST SWAP2 PUSH2 0xFFFF AND SWAP1 JUMP JUMPDEST PUSH2 0x8A PUSH2 0x5D PUSH2 0x5D SWAP3 PUSH2 0xFFFF AND SWAP1 JUMP JUMPDEST PUSH2 0x5D SWAP1 PUSH2 0x1BA PUSH2 0x1B6 PUSH2 0x5D SWAP5 PUSH2 0xFFFF AND SWAP1 JUMP JUMPDEST PUSH1 0x0 PUSH2 0x2B1 PUSH2 0x47 SWAP4 PUSH2 0x228 PUSH1 0x8 PUSH2 0x7D JUMP JUMPDEST PUSH2 0x2AC PUSH2 0x28C PUSH2 0x286 PUSH2 0x247 PUSH2 0x241 PUSH2 0x149 DUP7 DUP9 PUSH2 0x90 JUMP JUMPDEST SWAP6 PUSH2 0x182 JUMP JUMPDEST SWAP4 PUSH2 0x280 PUSH1 0x2 DUP11 ADD PUSH2 0x27B DUP9 PUSH2 0x260 PUSH2 0x154 DUP3 DUP6 PUSH2 0xE7 JUMP JUMPDEST PUSH2 0x274 PUSH2 0x26D PUSH1 0x1 PUSH2 0x195 JUMP JUMPDEST SWAP11 DUP12 PUSH2 0x1A2 JUMP JUMPDEST OR SWAP3 PUSH2 0xE7 JUMP JUMPDEST PUSH2 0x1BF JUMP JUMPDEST DUP6 PUSH2 0x1D3 JUMP JUMPDEST SWAP4 PUSH2 0x1EF JUMP JUMPDEST PUSH2 0x27B DUP5 PUSH1 0x1 DUP10 ADD SWAP3 PUSH2 0x274 PUSH2 0x2A5 PUSH2 0x154 DUP5 DUP8 PUSH2 0xE7 JUMP JUMPDEST SWAP2 DUP8 PUSH2 0x1A2 JUMP JUMPDEST PUSH2 0x200 JUMP JUMPDEST SWAP2 ADD SWAP1 PUSH2 0x2BD DUP3 PUSH2 0x106 JUMP JUMPDEST OR SWAP1 PUSH2 0x1BF JUMP JUMPDEST SWAP1 DUP2 MSTORE PUSH1 0x60 DUP2 ADD SWAP4 SWAP3 PUSH2 0x47 SWAP3 SWAP1 SWAP2 PUSH1 0x40 SWAP2 PUSH2 0x2E1 SWAP1 PUSH1 0x20 DUP4 ADD MSTORE JUMP JUMPDEST ADD MSTORE JUMP JUMPDEST PUSH4 0x4E487B71 PUSH1 0xE0 SHL PUSH1 0x0 MSTORE PUSH1 0x41 PUSH1 0x4 MSTORE PUSH1 0x24 PUSH1 0x0 REVERT JUMPDEST SWAP1 PUSH1 0x1F ADD PUSH1 0x1F NOT AND DUP2 ADD SWAP1 DUP2 LT PUSH8 0xFFFFFFFFFFFFFFFF DUP3 GT OR PUSH2 0x31D JUMPI PUSH1 0x40 MSTORE JUMP JUMPDEST PUSH2 0x2E5 JUMP JUMPDEST PUSH2 0x35E SWAP1 PUSH2 0x34F PUSH2 0x47 SWAP5 PUSH2 0x336 PUSH1 0x40 MLOAD SWAP1 JUMP JUMPDEST PUSH4 0x347B5E8F PUSH1 0xE2 SHL PUSH1 0x20 DUP3 ADD MSTORE SWAP5 DUP6 SWAP4 PUSH1 0x24 DUP6 ADD PUSH2 0x2C4 JUMP JUMPDEST PUSH1 0x20 DUP3 ADD DUP2 SUB DUP3 MSTORE SUB DUP3 PUSH2 0x2FB JUMP JUMPDEST PUSH2 0x47 SWAP1 PUSH1 0x1 PUSH2 0x3A1 JUMP JUMPDEST PUSH1 0x0 DUP1 SWAP2 PUSH2 0x37F PUSH11 0x636F6E736F6C652E6C6F67 SWAP1 JUMP JUMPDEST PUSH1 0x20 DUP3 MLOAD SWAP3 ADD SWAP1 GAS STATICCALL POP JUMP JUMPDEST PUSH4 0x4E487B71 PUSH1 0xE0 SHL PUSH1 0x0 MSTORE PUSH1 0x51 PUSH1 0x4 MSTORE PUSH1 0x24 PUSH1 0x0 REVERT JUMPDEST PUSH1 0x1 SUB PUSH2 0x38B JUMPI PUSH2 0x47 SWAP1 PUSH2 0x369 JUMP INVALID LOG2 PUSH5 0x6970667358 0x22 SLT KECCAK256 0xB7 0xD4 0xEB KECCAK256 PUSH32 0xF547F40CA095556EBCF9639B65FA6E9C09FBE17F116058DA57FA2E64736F6C63 NUMBER STOP ADDMOD XOR STOP CALLER "},"methodIdentifiers":{"flipbin(uint32)":"4da4e3c7"}}}}}