{"contracts/lib/Newbitmath.sol":{"Newbitmath":{"abi":[{"inputs":[{"internalType":"uint256","name":"value","type":"uint256"}],"name":"mostSignificantBit","outputs":[{"internalType":"uint256","name":"res","type":"uint256"}],"stateMutability":"nonpayable","type":"function"}],"evm":{"bytecode":{"linkReferences":{},"object":"60806040523461001a57604051610411610020823961041190f35b600080fdfe6080604052600436101561001257600080fd5b63e6bcbc6560003560e01c14610046575b600080fd5b905035905b565b906020828203126100235761004391610028565b90565b346100235761007161006161005c36600461002f565b6100da565b6040519182918290815260200190565b0390f35b6100826100436100439290565b60ff1690565b610043906100a061009c6100439460ff1690565b9190565b901c90565b6100436100436100439290565b634e487b7160e01b600052601160045260246000fd5b919082018092116100d557565b6100b2565b90600080926100f26100ec607f610075565b82610088565b9160009261010261009c856100a5565b036102e7575b506101166100ec603f610075565b61012261009c846100a5565b036102c5575b6101356100ec601f610075565b61014161009c846100a5565b036102a3575b6101546100ec600f610075565b61016061009c846100a5565b03610281575b6101736100ec6007610075565b61017f61009c846100a5565b0361025f575b6101926100ec6003610075565b61019e61009c846100a5565b0361023d575b6101ae6001610075565b916101b98383610088565b6101c561009c836100a5565b0361020e575b6101d4906100a5565b81036101e6575b505061002d82610349565b6102069293916101f591610088565b5061020060016100a5565b906100c8565b9038806101db565b939061023561022a6101d4926102246002610075565b90610088565b9261020060026100a5565b9490506101cb565b61024e610259916102246004610075565b9361020060046100a5565b926101a4565b61027061027b916102246008610075565b9361020060086100a5565b92610185565b61029261029d916102246010610075565b9361020060106100a5565b92610166565b6102b46102bf916102246020610075565b9361020060206100a5565b92610147565b6102d66102e1916102246040610075565b9361020060406100a5565b92610128565b93506102fa610305916102246080610075565b9361020060806100a5565b9238610108565b634e487b7160e01b600052604160045260246000fd5b90601f01601f1916810190811067ffffffffffffffff82111761034457604052565b61030c565b61037961038861002d9261035c60405190565b63f82c50f160e01b60208201529283916024830190815260200190565b60208201810382520382610322565b61002d9060016103cb565b600080916103a96a636f6e736f6c652e6c6f6790565b602082519201905afa50565b634e487b7160e01b600052605160045260246000fd5b6001036103b55761002d9061039356fea2646970667358221220e7d4bad026ceff619364781c3d94df6f5273d9a2f4a7a15b5eb674822f846a0e64736f6c63430008180033","opcodes":"PUSH1 0x80 PUSH1 0x40 MSTORE CALLVALUE PUSH2 0x1A JUMPI PUSH1 0x40 MLOAD PUSH2 0x411 PUSH2 0x20 DUP3 CODECOPY PUSH2 0x411 SWAP1 RETURN JUMPDEST PUSH1 0x0 DUP1 REVERT INVALID PUSH1 0x80 PUSH1 0x40 MSTORE PUSH1 0x4 CALLDATASIZE LT ISZERO PUSH2 0x12 JUMPI PUSH1 0x0 DUP1 REVERT JUMPDEST PUSH4 0xE6BCBC65 PUSH1 0x0 CALLDATALOAD PUSH1 0xE0 SHR EQ PUSH2 0x46 JUMPI JUMPDEST PUSH1 0x0 DUP1 REVERT JUMPDEST SWAP1 POP CALLDATALOAD SWAP1 JUMPDEST JUMP JUMPDEST SWAP1 PUSH1 0x20 DUP3 DUP3 SUB SLT PUSH2 0x23 JUMPI PUSH2 0x43 SWAP2 PUSH2 0x28 JUMP JUMPDEST SWAP1 JUMP JUMPDEST CALLVALUE PUSH2 0x23 JUMPI PUSH2 0x71 PUSH2 0x61 PUSH2 0x5C CALLDATASIZE PUSH1 0x4 PUSH2 0x2F JUMP JUMPDEST PUSH2 0xDA JUMP JUMPDEST PUSH1 0x40 MLOAD SWAP2 DUP3 SWAP2 DUP3 SWAP1 DUP2 MSTORE PUSH1 0x20 ADD SWAP1 JUMP JUMPDEST SUB SWAP1 RETURN JUMPDEST PUSH2 0x82 PUSH2 0x43 PUSH2 0x43 SWAP3 SWAP1 JUMP JUMPDEST PUSH1 0xFF AND SWAP1 JUMP JUMPDEST PUSH2 0x43 SWAP1 PUSH2 0xA0 PUSH2 0x9C PUSH2 0x43 SWAP5 PUSH1 0xFF AND SWAP1 JUMP JUMPDEST SWAP2 SWAP1 JUMP JUMPDEST SWAP1 SHR SWAP1 JUMP JUMPDEST PUSH2 0x43 PUSH2 0x43 PUSH2 0x43 SWAP3 SWAP1 JUMP JUMPDEST PUSH4 0x4E487B71 PUSH1 0xE0 SHL PUSH1 0x0 MSTORE PUSH1 0x11 PUSH1 0x4 MSTORE PUSH1 0x24 PUSH1 0x0 REVERT JUMPDEST SWAP2 SWAP1 DUP3 ADD DUP1 SWAP3 GT PUSH2 0xD5 JUMPI JUMP JUMPDEST PUSH2 0xB2 JUMP JUMPDEST SWAP1 PUSH1 0x0 DUP1 SWAP3 PUSH2 0xF2 PUSH2 0xEC PUSH1 0x7F PUSH2 0x75 JUMP JUMPDEST DUP3 PUSH2 0x88 JUMP JUMPDEST SWAP2 PUSH1 0x0 SWAP3 PUSH2 0x102 PUSH2 0x9C DUP6 PUSH2 0xA5 JUMP JUMPDEST SUB PUSH2 0x2E7 JUMPI JUMPDEST POP PUSH2 0x116 PUSH2 0xEC PUSH1 0x3F PUSH2 0x75 JUMP JUMPDEST PUSH2 0x122 PUSH2 0x9C DUP5 PUSH2 0xA5 JUMP JUMPDEST SUB PUSH2 0x2C5 JUMPI JUMPDEST PUSH2 0x135 PUSH2 0xEC PUSH1 0x1F PUSH2 0x75 JUMP JUMPDEST PUSH2 0x141 PUSH2 0x9C DUP5 PUSH2 0xA5 JUMP JUMPDEST SUB PUSH2 0x2A3 JUMPI JUMPDEST PUSH2 0x154 PUSH2 0xEC PUSH1 0xF PUSH2 0x75 JUMP JUMPDEST PUSH2 0x160 PUSH2 0x9C DUP5 PUSH2 0xA5 JUMP JUMPDEST SUB PUSH2 0x281 JUMPI JUMPDEST PUSH2 0x173 PUSH2 0xEC PUSH1 0x7 PUSH2 0x75 JUMP JUMPDEST PUSH2 0x17F PUSH2 0x9C DUP5 PUSH2 0xA5 JUMP JUMPDEST SUB PUSH2 0x25F JUMPI JUMPDEST PUSH2 0x192 PUSH2 0xEC PUSH1 0x3 PUSH2 0x75 JUMP JUMPDEST PUSH2 0x19E PUSH2 0x9C DUP5 PUSH2 0xA5 JUMP JUMPDEST SUB PUSH2 0x23D JUMPI JUMPDEST PUSH2 0x1AE PUSH1 0x1 PUSH2 0x75 JUMP JUMPDEST SWAP2 PUSH2 0x1B9 DUP4 DUP4 PUSH2 0x88 JUMP JUMPDEST PUSH2 0x1C5 PUSH2 0x9C DUP4 PUSH2 0xA5 JUMP JUMPDEST SUB PUSH2 0x20E JUMPI JUMPDEST PUSH2 0x1D4 SWAP1 PUSH2 0xA5 JUMP JUMPDEST DUP2 SUB PUSH2 0x1E6 JUMPI JUMPDEST POP POP PUSH2 0x2D DUP3 PUSH2 0x349 JUMP JUMPDEST PUSH2 0x206 SWAP3 SWAP4 SWAP2 PUSH2 0x1F5 SWAP2 PUSH2 0x88 JUMP JUMPDEST POP PUSH2 0x200 PUSH1 0x1 PUSH2 0xA5 JUMP JUMPDEST SWAP1 PUSH2 0xC8 JUMP JUMPDEST SWAP1 CODESIZE DUP1 PUSH2 0x1DB JUMP JUMPDEST SWAP4 SWAP1 PUSH2 0x235 PUSH2 0x22A PUSH2 0x1D4 SWAP3 PUSH2 0x224 PUSH1 0x2 PUSH2 0x75 JUMP JUMPDEST SWAP1 PUSH2 0x88 JUMP JUMPDEST SWAP3 PUSH2 0x200 PUSH1 0x2 PUSH2 0xA5 JUMP JUMPDEST SWAP5 SWAP1 POP PUSH2 0x1CB JUMP JUMPDEST PUSH2 0x24E PUSH2 0x259 SWAP2 PUSH2 0x224 PUSH1 0x4 PUSH2 0x75 JUMP JUMPDEST SWAP4 PUSH2 0x200 PUSH1 0x4 PUSH2 0xA5 JUMP JUMPDEST SWAP3 PUSH2 0x1A4 JUMP JUMPDEST PUSH2 0x270 PUSH2 0x27B SWAP2 PUSH2 0x224 PUSH1 0x8 PUSH2 0x75 JUMP JUMPDEST SWAP4 PUSH2 0x200 PUSH1 0x8 PUSH2 0xA5 JUMP JUMPDEST SWAP3 PUSH2 0x185 JUMP JUMPDEST PUSH2 0x292 PUSH2 0x29D SWAP2 PUSH2 0x224 PUSH1 0x10 PUSH2 0x75 JUMP JUMPDEST SWAP4 PUSH2 0x200 PUSH1 0x10 PUSH2 0xA5 JUMP JUMPDEST SWAP3 PUSH2 0x166 JUMP JUMPDEST PUSH2 0x2B4 PUSH2 0x2BF SWAP2 PUSH2 0x224 PUSH1 0x20 PUSH2 0x75 JUMP JUMPDEST SWAP4 PUSH2 0x200 PUSH1 0x20 PUSH2 0xA5 JUMP JUMPDEST SWAP3 PUSH2 0x147 JUMP JUMPDEST PUSH2 0x2D6 PUSH2 0x2E1 SWAP2 PUSH2 0x224 PUSH1 0x40 PUSH2 0x75 JUMP JUMPDEST SWAP4 PUSH2 0x200 PUSH1 0x40 PUSH2 0xA5 JUMP JUMPDEST SWAP3 PUSH2 0x128 JUMP JUMPDEST SWAP4 POP PUSH2 0x2FA PUSH2 0x305 SWAP2 PUSH2 0x224 PUSH1 0x80 PUSH2 0x75 JUMP JUMPDEST SWAP4 PUSH2 0x200 PUSH1 0x80 PUSH2 0xA5 JUMP JUMPDEST SWAP3 CODESIZE PUSH2 0x108 JUMP JUMPDEST PUSH4 0x4E487B71 PUSH1 0xE0 SHL PUSH1 0x0 MSTORE PUSH1 0x41 PUSH1 0x4 MSTORE PUSH1 0x24 PUSH1 0x0 REVERT JUMPDEST SWAP1 PUSH1 0x1F ADD PUSH1 0x1F NOT AND DUP2 ADD SWAP1 DUP2 LT PUSH8 0xFFFFFFFFFFFFFFFF DUP3 GT OR PUSH2 0x344 JUMPI PUSH1 0x40 MSTORE JUMP JUMPDEST PUSH2 0x30C JUMP JUMPDEST PUSH2 0x379 PUSH2 0x388 PUSH2 0x2D SWAP3 PUSH2 0x35C PUSH1 0x40 MLOAD SWAP1 JUMP JUMPDEST PUSH4 0xF82C50F1 PUSH1 0xE0 SHL PUSH1 0x20 DUP3 ADD MSTORE SWAP3 DUP4 SWAP2 PUSH1 0x24 DUP4 ADD SWAP1 DUP2 MSTORE PUSH1 0x20 ADD SWAP1 JUMP JUMPDEST PUSH1 0x20 DUP3 ADD DUP2 SUB DUP3 MSTORE SUB DUP3 PUSH2 0x322 JUMP JUMPDEST PUSH2 0x2D SWAP1 PUSH1 0x1 PUSH2 0x3CB JUMP JUMPDEST PUSH1 0x0 DUP1 SWAP2 PUSH2 0x3A9 PUSH11 0x636F6E736F6C652E6C6F67 SWAP1 JUMP JUMPDEST PUSH1 0x20 DUP3 MLOAD SWAP3 ADD SWAP1 GAS STATICCALL POP JUMP JUMPDEST PUSH4 0x4E487B71 PUSH1 0xE0 SHL PUSH1 0x0 MSTORE PUSH1 0x51 PUSH1 0x4 MSTORE PUSH1 0x24 PUSH1 0x0 REVERT JUMPDEST PUSH1 0x1 SUB PUSH2 0x3B5 JUMPI PUSH2 0x2D SWAP1 PUSH2 0x393 JUMP INVALID LOG2 PUSH5 0x6970667358 0x22 SLT KECCAK256 0xE7 0xD4 0xBA 0xD0 0x26 0xCE SELFDESTRUCT PUSH2 0x9364 PUSH25 0x1C3D94DF6F5273D9A2F4A7A15B5EB674822F846A0E64736F6C PUSH4 0x43000818 STOP CALLER "},"methodIdentifiers":{"mostSignificantBit(uint256)":"e6bcbc65"}}}}}