{"contracts/test/TestIndexTree.sol":{"TestIndexTree":{"abi":[{"inputs":[{"internalType":"uint32","name":"bin","type":"uint32"}],"name":"findbigbin","outputs":[{"internalType":"uint32","name":"nextBin","type":"uint32"}],"stateMutability":"view","type":"function"},{"inputs":[{"internalType":"uint32","name":"bin","type":"uint32"}],"name":"findsmallbin","outputs":[{"internalType":"uint32","name":"nextBin","type":"uint32"}],"stateMutability":"view","type":"function"},{"inputs":[{"internalType":"uint32","name":"bin","type":"uint32"}],"name":"flipbin","outputs":[],"stateMutability":"nonpayable","type":"function"}],"evm":{"bytecode":{"linkReferences":{},"object":"60806040523461001a5760405161105d610020823961105d90f35b600080fdfe6080604052600436101561001257600080fd5b60003560e01c80634da4e3c7146100425780637291e6ef1461003d57639e8fa2e103610055576100d3565b6100a1565b610080565b63ffffffff81160361005557565b600080fd5b9050359061006782610047565b565b906020828203126100555761007d9161005a565b90565b3461005557610098610093366004610069565b6101c1565b604051005b0390f35b346100555761009d6100bc6100b7366004610069565b6102f7565b6040519182918263ffffffff909116815260200190565b346100555761009d6100bc6100e9366004610069565b610318565b6100fb61007d61007d9290565b60ff1690565b6101249061011f61011561007d9460ff1690565b9163ffffffff1690565b901c90565b63ffffffff1690565b61014061007d61007d9263ffffffff1690565b61ffff1690565b61014061007d61007d9261ffff1690565b9061016290610147565b600052602052604060002090565b61007d9081565b61007d9054610170565b6100fb61007d61007d9263ffffffff1690565b6100fb61007d61007d9260ff1690565b9061016290610194565b61007d61007d61007d9263ffffffff1690565b6100679060006101d1828261038e565b6102016101fc600283016101f66101f16101eb60086100ee565b87610101565b61012d565b90610158565b610177565b9161024161023b6102336101fc6001860161022d61022861022260106100ee565b88610101565b610181565b906101a4565b938001610177565b916101ae565b61047d565b634e487b7160e01b600052604160045260246000fd5b90601f01601f1916810190811067ffffffffffffffff82111761027e57604052565b610246565b9061006761029060405190565b928361025c565b67ffffffffffffffff811161027e57602090601f01601f19160190565b0190565b906102ca6102c583610297565b610283565b918252565b6102d9600a6102b8565b6903732bc3a2134b7101e960b51b602082015290565b61007d6102cf565b6103029060006105ff565b906100678261031261023b6102ef565b90610928565b610302906000610955565b61007d61007d61007d9290565b61007d9061034861034461007d9460ff1690565b9190565b901b90565b9061007d61007d61035d92610323565b9055565b6101409061011f61037561007d9460ff1690565b9161ffff1690565b6100fb61007d61007d9261ffff1690565b6000610439610067936103a160086100ee565b61043461040d6104076104026103c36103bd6101f18789610101565b96610181565b946103fc60028b016103f7896103dc6101fc8285610158565b6103f06103e96001610323565b9b8c610330565b1792610158565b61034d565b86610361565b61037d565b9361037d565b6103f784600189019261042d6104266101fc84876101a4565b9187610330565b17926101a4565b610330565b91019061044582610177565b179061034d565b6104796100679461047260609498979561046b608086019a6000870152565b6020850152565b6040830152565b0152565b6104aa610067946104b9939461049260405190565b620327f760eb1b60208201529586946024860161044c565b6020820181038252038261025c565b610b0e565b634e487b7160e01b600052601160045260246000fd5b6104e39060ff165b9160ff1690565b019060ff82116104ef57565b6104be565b919082039182116104ef57565b61014061007d61007d9260ff1690565b61051d9060ff166104dc565b90039060ff82116104ef57565b6101409061034861037561007d9460ff1690565b61014061007d61007d9290565b6105589061ffff16610375565b019061ffff82116104ef57565b6105729061ffff16610375565b90039061ffff82116104ef57565b61012461007d61007d9261ffff1690565b6101249061034861011561007d9460ff1690565b61012461007d61007d9290565b6105c19063ffffffff16610115565b019063ffffffff82116104ef57565b6105df9063ffffffff16610115565b90039063ffffffff82116104ef57565b61012461007d61007d9260ff1690565b9061060a60086100ee565b916106186101f18484610101565b906106678261062685610181565b9560028401916106396101fc8785610158565b9560019661067061066c61065561064f8b6100ee565b8d6104d4565b61065e8b610323565b98899182610330565b6104f4565b1990565b169560008761068161034483610323565b11156106cc575050505050505061007d936106bc6106c6936106b66106b06106ab6106c196610b88565b6100ee565b916100ee565b90610511565b610511565b6105ef565b906105b2565b9295995092816106e29295989950819750610361565b6106eb9061037d565b926106f660ff610501565b166107009061037d565b928783019861070f828b6101a4565b61071890610177565b816107228b6100ee565b61072c90886104d4565b6107369082610330565b90610740916104f4565b1916938461074d85610323565b10156107c3575050505061007d96506107b7936107b26107ac6107a76101fc6107a06107bd9a9861079a6107956106c69a8f6106bc906106b66106b06106ab6107b79f610b88565b610501565b9061054b565b8098610158565b610b88565b94610580565b610591565b916105a5565b906105d0565b839650610802955061066c9294506107f56107e56107fb956106679301610177565b956107ef8c6100ee565b906104d4565b82610330565b1691610323565b8111156108a2576106c66107b7836107b261089d61088d6107a76101fc6107bd9a6101f661088761007d9f8f61079a6107b79f829f90610876610795610881966106b66108706107a76101fc61085d6106ab61087b9a610b88565b9461022d61086a8d6100ee565b87610511565b976100ee565b61052a565b9161053e565b9b61053e565b8b610565565b956108978a61053e565b90610565565b610580565b505050505063ffffffff90565b60005b8381106108c25750506000910152565b81810151838201526020016108b2565b6108f36108fc6020936102b4936108e7815190565b80835293849260200190565b958691016108af565b601f01601f191690565b9291602061092361006793604087019087820360008901526108d2565b940152565b906104b9610067926104aa61093c60405190565b632d839cb360e21b602082015293849260248401610906565b61095f60086100ee565b61096c6101f18285610101565b809261097785610181565b92600282019061098a6101fc8584610158565b9560019661099788610323565b906109a6826106678a82610330565b169081966000926109b961034485610323565b11156109ea575050505050505061007d93926106b66106b06107bd946107ef6109e46106c196610dc9565b946100ee565b92959950929550929550610a15610a046104028784610361565b91610a0f60ff610501565b1661037d565b9287890191610a276101fc82856101a4565b610a35856106678882610330565b169384610a4461034485610323565b1115610a90575050505061007d96506107b7936107b26107ac610a8b6101fc6107a06107bd9a986108976107958e6106b66106b06106c69d6107ef6109e46107b79f610dc9565b610dc9565b9195509250610ab39350610667610aac866107fb949b01610177565b9382610330565b8111156108a2576106c66107b7836107b261089d61088d610a8b6101fc6107bd9a6101f661088761007d9f8f61079a6107b79f829f90610876610795610881966106b6610870610a8b6101fc61085d6106ab61087b9a610dc9565b610067906001611017565b61007d61007d61007d926001600160801b031690565b61007d9061011f61034461007d9460ff1690565b919082018092116104ef57565b61007d61007d61007d9267ffffffffffffffff1690565b61007d61007d61007d9261ffff1690565b61007d61007d61007d9260ff1690565b61007d9060009081610ba06001600160801b03610b19565b821692600093610bb261034486610323565b1115610db35750610bcd90610bc76080610323565b90610b43565b610bde67ffffffffffffffff610b50565b8216610bec61034485610323565b1115610d9e57610c0090610bc76040610323565b610c0d63ffffffff6101ae565b8216610c1b61034485610323565b1115610d8957610c2f90610bc76020610323565b610c3a61ffff610b67565b8216610c4861034485610323565b1115610d7457610c5c90610bc76010610323565b610c6660ff610b78565b8216610c7461034485610323565b1115610d5f57610c8890610bc76008610323565b610c92600f610323565b8216610ca061034485610323565b1115610d4a57610cb490610bc76004610323565b610cbe6003610323565b8216610ccc61034485610323565b1115610d3457610ce090610bc76002610323565b915b610cfa610344610cf26001610323565b841692610323565b1115610d1a5750610d0f90610bc76001610323565b610667610100610323565b610d2e90610d2860016100ee565b90610b2f565b50610d0f565b9190610d4490610d2860026100ee565b90610ce2565b90610d5990610d2860046100ee565b90610cb4565b90610d6e90610d2860086100ee565b90610c88565b90610d8390610d2860106100ee565b90610c5c565b90610d9890610d2860206100ee565b90610c2f565b90610dad90610d2860406100ee565b90610c00565b91610dc39150610d2860806100ee565b90610bcd565b9060008092610de1610ddb607f6100ee565b82610b2f565b91600092610df161034485610323565b03610fba575b50610e05610ddb603f6100ee565b610e1161034484610323565b03610f98575b610e24610ddb601f6100ee565b610e3061034484610323565b03610f76575b610e43610ddb600f6100ee565b610e4f61034484610323565b03610f54575b610e62610ddb60076100ee565b610e6e61034484610323565b03610f32575b610e81610ddb60036100ee565b610e8d61034484610323565b03610f10575b610e9d60016100ee565b91610ea88383610b2f565b610eb461034483610323565b03610ee7575b610ec390610323565b8103610ecd575050565b61007d929391610edc91610b2f565b50610bc76001610323565b9390610f08610efd610ec392610d2860026100ee565b92610bc76002610323565b949050610eba565b610f21610f2c91610d2860046100ee565b93610bc76004610323565b92610e93565b610f43610f4e91610d2860086100ee565b93610bc76008610323565b92610e74565b610f65610f7091610d2860106100ee565b93610bc76010610323565b92610e55565b610f87610f9291610d2860206100ee565b93610bc76020610323565b92610e36565b610fa9610fb491610d2860406100ee565b93610bc76040610323565b92610e17565b9350610fcd610fd891610d2860806100ee565b93610bc76080610323565b9238610df7565b60008091610ff56a636f6e736f6c652e6c6f6790565b602082519201905afa50565b634e487b7160e01b600052605160045260246000fd5b6001036110015761006790610fdf56fea264697066735822122009c01a58ae863406af97f6ae697f1eb6acdbf23c5be03d1730dfceed8d29af0e64736f6c63430008180033","opcodes":"PUSH1 0x80 PUSH1 0x40 MSTORE CALLVALUE PUSH2 0x1A JUMPI PUSH1 0x40 MLOAD PUSH2 0x105D PUSH2 0x20 DUP3 CODECOPY PUSH2 0x105D SWAP1 RETURN JUMPDEST PUSH1 0x0 DUP1 REVERT INVALID PUSH1 0x80 PUSH1 0x40 MSTORE PUSH1 0x4 CALLDATASIZE LT ISZERO PUSH2 0x12 JUMPI PUSH1 0x0 DUP1 REVERT JUMPDEST PUSH1 0x0 CALLDATALOAD PUSH1 0xE0 SHR DUP1 PUSH4 0x4DA4E3C7 EQ PUSH2 0x42 JUMPI DUP1 PUSH4 0x7291E6EF EQ PUSH2 0x3D JUMPI PUSH4 0x9E8FA2E1 SUB PUSH2 0x55 JUMPI PUSH2 0xD3 JUMP JUMPDEST PUSH2 0xA1 JUMP JUMPDEST PUSH2 0x80 JUMP JUMPDEST PUSH4 0xFFFFFFFF DUP2 AND SUB PUSH2 0x55 JUMPI JUMP JUMPDEST PUSH1 0x0 DUP1 REVERT JUMPDEST SWAP1 POP CALLDATALOAD SWAP1 PUSH2 0x67 DUP3 PUSH2 0x47 JUMP JUMPDEST JUMP JUMPDEST SWAP1 PUSH1 0x20 DUP3 DUP3 SUB SLT PUSH2 0x55 JUMPI PUSH2 0x7D SWAP2 PUSH2 0x5A JUMP JUMPDEST SWAP1 JUMP JUMPDEST CALLVALUE PUSH2 0x55 JUMPI PUSH2 0x98 PUSH2 0x93 CALLDATASIZE PUSH1 0x4 PUSH2 0x69 JUMP JUMPDEST PUSH2 0x1C1 JUMP JUMPDEST PUSH1 0x40 MLOAD STOP JUMPDEST SUB SWAP1 RETURN JUMPDEST CALLVALUE PUSH2 0x55 JUMPI PUSH2 0x9D PUSH2 0xBC PUSH2 0xB7 CALLDATASIZE PUSH1 0x4 PUSH2 0x69 JUMP JUMPDEST PUSH2 0x2F7 JUMP JUMPDEST PUSH1 0x40 MLOAD SWAP2 DUP3 SWAP2 DUP3 PUSH4 0xFFFFFFFF SWAP1 SWAP2 AND DUP2 MSTORE PUSH1 0x20 ADD SWAP1 JUMP JUMPDEST CALLVALUE PUSH2 0x55 JUMPI PUSH2 0x9D PUSH2 0xBC PUSH2 0xE9 CALLDATASIZE PUSH1 0x4 PUSH2 0x69 JUMP JUMPDEST PUSH2 0x318 JUMP JUMPDEST PUSH2 0xFB PUSH2 0x7D PUSH2 0x7D SWAP3 SWAP1 JUMP JUMPDEST PUSH1 0xFF AND SWAP1 JUMP JUMPDEST PUSH2 0x124 SWAP1 PUSH2 0x11F PUSH2 0x115 PUSH2 0x7D SWAP5 PUSH1 0xFF AND SWAP1 JUMP JUMPDEST SWAP2 PUSH4 0xFFFFFFFF AND SWAP1 JUMP JUMPDEST SWAP1 SHR SWAP1 JUMP JUMPDEST PUSH4 0xFFFFFFFF AND SWAP1 JUMP JUMPDEST PUSH2 0x140 PUSH2 0x7D PUSH2 0x7D SWAP3 PUSH4 0xFFFFFFFF AND SWAP1 JUMP JUMPDEST PUSH2 0xFFFF AND SWAP1 JUMP JUMPDEST PUSH2 0x140 PUSH2 0x7D PUSH2 0x7D SWAP3 PUSH2 0xFFFF AND SWAP1 JUMP JUMPDEST SWAP1 PUSH2 0x162 SWAP1 PUSH2 0x147 JUMP JUMPDEST PUSH1 0x0 MSTORE PUSH1 0x20 MSTORE PUSH1 0x40 PUSH1 0x0 KECCAK256 SWAP1 JUMP JUMPDEST PUSH2 0x7D SWAP1 DUP2 JUMP JUMPDEST PUSH2 0x7D SWAP1 SLOAD PUSH2 0x170 JUMP JUMPDEST PUSH2 0xFB PUSH2 0x7D PUSH2 0x7D SWAP3 PUSH4 0xFFFFFFFF AND SWAP1 JUMP JUMPDEST PUSH2 0xFB PUSH2 0x7D PUSH2 0x7D SWAP3 PUSH1 0xFF AND SWAP1 JUMP JUMPDEST SWAP1 PUSH2 0x162 SWAP1 PUSH2 0x194 JUMP JUMPDEST PUSH2 0x7D PUSH2 0x7D PUSH2 0x7D SWAP3 PUSH4 0xFFFFFFFF AND SWAP1 JUMP JUMPDEST PUSH2 0x67 SWAP1 PUSH1 0x0 PUSH2 0x1D1 DUP3 DUP3 PUSH2 0x38E JUMP JUMPDEST PUSH2 0x201 PUSH2 0x1FC PUSH1 0x2 DUP4 ADD PUSH2 0x1F6 PUSH2 0x1F1 PUSH2 0x1EB PUSH1 0x8 PUSH2 0xEE JUMP JUMPDEST DUP8 PUSH2 0x101 JUMP JUMPDEST PUSH2 0x12D JUMP JUMPDEST SWAP1 PUSH2 0x158 JUMP JUMPDEST PUSH2 0x177 JUMP JUMPDEST SWAP2 PUSH2 0x241 PUSH2 0x23B PUSH2 0x233 PUSH2 0x1FC PUSH1 0x1 DUP7 ADD PUSH2 0x22D PUSH2 0x228 PUSH2 0x222 PUSH1 0x10 PUSH2 0xEE JUMP JUMPDEST DUP9 PUSH2 0x101 JUMP JUMPDEST PUSH2 0x181 JUMP JUMPDEST SWAP1 PUSH2 0x1A4 JUMP JUMPDEST SWAP4 DUP1 ADD PUSH2 0x177 JUMP JUMPDEST SWAP2 PUSH2 0x1AE JUMP JUMPDEST PUSH2 0x47D JUMP JUMPDEST PUSH4 0x4E487B71 PUSH1 0xE0 SHL PUSH1 0x0 MSTORE PUSH1 0x41 PUSH1 0x4 MSTORE PUSH1 0x24 PUSH1 0x0 REVERT JUMPDEST SWAP1 PUSH1 0x1F ADD PUSH1 0x1F NOT AND DUP2 ADD SWAP1 DUP2 LT PUSH8 0xFFFFFFFFFFFFFFFF DUP3 GT OR PUSH2 0x27E JUMPI PUSH1 0x40 MSTORE JUMP JUMPDEST PUSH2 0x246 JUMP JUMPDEST SWAP1 PUSH2 0x67 PUSH2 0x290 PUSH1 0x40 MLOAD SWAP1 JUMP JUMPDEST SWAP3 DUP4 PUSH2 0x25C JUMP JUMPDEST PUSH8 0xFFFFFFFFFFFFFFFF DUP2 GT PUSH2 0x27E JUMPI PUSH1 0x20 SWAP1 PUSH1 0x1F ADD PUSH1 0x1F NOT AND ADD SWAP1 JUMP JUMPDEST ADD SWAP1 JUMP JUMPDEST SWAP1 PUSH2 0x2CA PUSH2 0x2C5 DUP4 PUSH2 0x297 JUMP JUMPDEST PUSH2 0x283 JUMP JUMPDEST SWAP2 DUP3 MSTORE JUMP JUMPDEST PUSH2 0x2D9 PUSH1 0xA PUSH2 0x2B8 JUMP JUMPDEST PUSH10 0x3732BC3A2134B7101E9 PUSH1 0xB5 SHL PUSH1 0x20 DUP3 ADD MSTORE SWAP1 JUMP JUMPDEST PUSH2 0x7D PUSH2 0x2CF JUMP JUMPDEST PUSH2 0x302 SWAP1 PUSH1 0x0 PUSH2 0x5FF JUMP JUMPDEST SWAP1 PUSH2 0x67 DUP3 PUSH2 0x312 PUSH2 0x23B PUSH2 0x2EF JUMP JUMPDEST SWAP1 PUSH2 0x928 JUMP JUMPDEST PUSH2 0x302 SWAP1 PUSH1 0x0 PUSH2 0x955 JUMP JUMPDEST PUSH2 0x7D PUSH2 0x7D PUSH2 0x7D SWAP3 SWAP1 JUMP JUMPDEST PUSH2 0x7D SWAP1 PUSH2 0x348 PUSH2 0x344 PUSH2 0x7D SWAP5 PUSH1 0xFF AND SWAP1 JUMP JUMPDEST SWAP2 SWAP1 JUMP JUMPDEST SWAP1 SHL SWAP1 JUMP JUMPDEST SWAP1 PUSH2 0x7D PUSH2 0x7D PUSH2 0x35D SWAP3 PUSH2 0x323 JUMP JUMPDEST SWAP1 SSTORE JUMP JUMPDEST PUSH2 0x140 SWAP1 PUSH2 0x11F PUSH2 0x375 PUSH2 0x7D SWAP5 PUSH1 0xFF AND SWAP1 JUMP JUMPDEST SWAP2 PUSH2 0xFFFF AND SWAP1 JUMP JUMPDEST PUSH2 0xFB PUSH2 0x7D PUSH2 0x7D SWAP3 PUSH2 0xFFFF AND SWAP1 JUMP JUMPDEST PUSH1 0x0 PUSH2 0x439 PUSH2 0x67 SWAP4 PUSH2 0x3A1 PUSH1 0x8 PUSH2 0xEE JUMP JUMPDEST PUSH2 0x434 PUSH2 0x40D PUSH2 0x407 PUSH2 0x402 PUSH2 0x3C3 PUSH2 0x3BD PUSH2 0x1F1 DUP8 DUP10 PUSH2 0x101 JUMP JUMPDEST SWAP7 PUSH2 0x181 JUMP JUMPDEST SWAP5 PUSH2 0x3FC PUSH1 0x2 DUP12 ADD PUSH2 0x3F7 DUP10 PUSH2 0x3DC PUSH2 0x1FC DUP3 DUP6 PUSH2 0x158 JUMP JUMPDEST PUSH2 0x3F0 PUSH2 0x3E9 PUSH1 0x1 PUSH2 0x323 JUMP JUMPDEST SWAP12 DUP13 PUSH2 0x330 JUMP JUMPDEST OR SWAP3 PUSH2 0x158 JUMP JUMPDEST PUSH2 0x34D JUMP JUMPDEST DUP7 PUSH2 0x361 JUMP JUMPDEST PUSH2 0x37D JUMP JUMPDEST SWAP4 PUSH2 0x37D JUMP JUMPDEST PUSH2 0x3F7 DUP5 PUSH1 0x1 DUP10 ADD SWAP3 PUSH2 0x42D PUSH2 0x426 PUSH2 0x1FC DUP5 DUP8 PUSH2 0x1A4 JUMP JUMPDEST SWAP2 DUP8 PUSH2 0x330 JUMP JUMPDEST OR SWAP3 PUSH2 0x1A4 JUMP JUMPDEST PUSH2 0x330 JUMP JUMPDEST SWAP2 ADD SWAP1 PUSH2 0x445 DUP3 PUSH2 0x177 JUMP JUMPDEST OR SWAP1 PUSH2 0x34D JUMP JUMPDEST PUSH2 0x479 PUSH2 0x67 SWAP5 PUSH2 0x472 PUSH1 0x60 SWAP5 SWAP9 SWAP8 SWAP6 PUSH2 0x46B PUSH1 0x80 DUP7 ADD SWAP11 PUSH1 0x0 DUP8 ADD MSTORE JUMP JUMPDEST PUSH1 0x20 DUP6 ADD MSTORE JUMP JUMPDEST PUSH1 0x40 DUP4 ADD MSTORE JUMP JUMPDEST ADD MSTORE JUMP JUMPDEST PUSH2 0x4AA PUSH2 0x67 SWAP5 PUSH2 0x4B9 SWAP4 SWAP5 PUSH2 0x492 PUSH1 0x40 MLOAD SWAP1 JUMP JUMPDEST PUSH3 0x327F7 PUSH1 0xEB SHL PUSH1 0x20 DUP3 ADD MSTORE SWAP6 DUP7 SWAP5 PUSH1 0x24 DUP7 ADD PUSH2 0x44C JUMP JUMPDEST PUSH1 0x20 DUP3 ADD DUP2 SUB DUP3 MSTORE SUB DUP3 PUSH2 0x25C JUMP JUMPDEST PUSH2 0xB0E JUMP JUMPDEST PUSH4 0x4E487B71 PUSH1 0xE0 SHL PUSH1 0x0 MSTORE PUSH1 0x11 PUSH1 0x4 MSTORE PUSH1 0x24 PUSH1 0x0 REVERT JUMPDEST PUSH2 0x4E3 SWAP1 PUSH1 0xFF AND JUMPDEST SWAP2 PUSH1 0xFF AND SWAP1 JUMP JUMPDEST ADD SWAP1 PUSH1 0xFF DUP3 GT PUSH2 0x4EF JUMPI JUMP JUMPDEST PUSH2 0x4BE JUMP JUMPDEST SWAP2 SWAP1 DUP3 SUB SWAP2 DUP3 GT PUSH2 0x4EF JUMPI JUMP JUMPDEST PUSH2 0x140 PUSH2 0x7D PUSH2 0x7D SWAP3 PUSH1 0xFF AND SWAP1 JUMP JUMPDEST PUSH2 0x51D SWAP1 PUSH1 0xFF AND PUSH2 0x4DC JUMP JUMPDEST SWAP1 SUB SWAP1 PUSH1 0xFF DUP3 GT PUSH2 0x4EF JUMPI JUMP JUMPDEST PUSH2 0x140 SWAP1 PUSH2 0x348 PUSH2 0x375 PUSH2 0x7D SWAP5 PUSH1 0xFF AND SWAP1 JUMP JUMPDEST PUSH2 0x140 PUSH2 0x7D PUSH2 0x7D SWAP3 SWAP1 JUMP JUMPDEST PUSH2 0x558 SWAP1 PUSH2 0xFFFF AND PUSH2 0x375 JUMP JUMPDEST ADD SWAP1 PUSH2 0xFFFF DUP3 GT PUSH2 0x4EF JUMPI JUMP JUMPDEST PUSH2 0x572 SWAP1 PUSH2 0xFFFF AND PUSH2 0x375 JUMP JUMPDEST SWAP1 SUB SWAP1 PUSH2 0xFFFF DUP3 GT PUSH2 0x4EF JUMPI JUMP JUMPDEST PUSH2 0x124 PUSH2 0x7D PUSH2 0x7D SWAP3 PUSH2 0xFFFF AND SWAP1 JUMP JUMPDEST PUSH2 0x124 SWAP1 PUSH2 0x348 PUSH2 0x115 PUSH2 0x7D SWAP5 PUSH1 0xFF AND SWAP1 JUMP JUMPDEST PUSH2 0x124 PUSH2 0x7D PUSH2 0x7D SWAP3 SWAP1 JUMP JUMPDEST PUSH2 0x5C1 SWAP1 PUSH4 0xFFFFFFFF AND PUSH2 0x115 JUMP JUMPDEST ADD SWAP1 PUSH4 0xFFFFFFFF DUP3 GT PUSH2 0x4EF JUMPI JUMP JUMPDEST PUSH2 0x5DF SWAP1 PUSH4 0xFFFFFFFF AND PUSH2 0x115 JUMP JUMPDEST SWAP1 SUB SWAP1 PUSH4 0xFFFFFFFF DUP3 GT PUSH2 0x4EF JUMPI JUMP JUMPDEST PUSH2 0x124 PUSH2 0x7D PUSH2 0x7D SWAP3 PUSH1 0xFF AND SWAP1 JUMP JUMPDEST SWAP1 PUSH2 0x60A PUSH1 0x8 PUSH2 0xEE JUMP JUMPDEST SWAP2 PUSH2 0x618 PUSH2 0x1F1 DUP5 DUP5 PUSH2 0x101 JUMP JUMPDEST SWAP1 PUSH2 0x667 DUP3 PUSH2 0x626 DUP6 PUSH2 0x181 JUMP JUMPDEST SWAP6 PUSH1 0x2 DUP5 ADD SWAP2 PUSH2 0x639 PUSH2 0x1FC DUP8 DUP6 PUSH2 0x158 JUMP JUMPDEST SWAP6 PUSH1 0x1 SWAP7 PUSH2 0x670 PUSH2 0x66C PUSH2 0x655 PUSH2 0x64F DUP12 PUSH2 0xEE JUMP JUMPDEST DUP14 PUSH2 0x4D4 JUMP JUMPDEST PUSH2 0x65E DUP12 PUSH2 0x323 JUMP JUMPDEST SWAP9 DUP10 SWAP2 DUP3 PUSH2 0x330 JUMP JUMPDEST PUSH2 0x4F4 JUMP JUMPDEST NOT SWAP1 JUMP JUMPDEST AND SWAP6 PUSH1 0x0 DUP8 PUSH2 0x681 PUSH2 0x344 DUP4 PUSH2 0x323 JUMP JUMPDEST GT ISZERO PUSH2 0x6CC JUMPI POP POP POP POP POP POP POP PUSH2 0x7D SWAP4 PUSH2 0x6BC PUSH2 0x6C6 SWAP4 PUSH2 0x6B6 PUSH2 0x6B0 PUSH2 0x6AB PUSH2 0x6C1 SWAP7 PUSH2 0xB88 JUMP JUMPDEST PUSH2 0xEE JUMP JUMPDEST SWAP2 PUSH2 0xEE JUMP JUMPDEST SWAP1 PUSH2 0x511 JUMP JUMPDEST PUSH2 0x511 JUMP JUMPDEST PUSH2 0x5EF JUMP JUMPDEST SWAP1 PUSH2 0x5B2 JUMP JUMPDEST SWAP3 SWAP6 SWAP10 POP SWAP3 DUP2 PUSH2 0x6E2 SWAP3 SWAP6 SWAP9 SWAP10 POP DUP2 SWAP8 POP PUSH2 0x361 JUMP JUMPDEST PUSH2 0x6EB SWAP1 PUSH2 0x37D JUMP JUMPDEST SWAP3 PUSH2 0x6F6 PUSH1 0xFF PUSH2 0x501 JUMP JUMPDEST AND PUSH2 0x700 SWAP1 PUSH2 0x37D JUMP JUMPDEST SWAP3 DUP8 DUP4 ADD SWAP9 PUSH2 0x70F DUP3 DUP12 PUSH2 0x1A4 JUMP JUMPDEST PUSH2 0x718 SWAP1 PUSH2 0x177 JUMP JUMPDEST DUP2 PUSH2 0x722 DUP12 PUSH2 0xEE JUMP JUMPDEST PUSH2 0x72C SWAP1 DUP9 PUSH2 0x4D4 JUMP JUMPDEST PUSH2 0x736 SWAP1 DUP3 PUSH2 0x330 JUMP JUMPDEST SWAP1 PUSH2 0x740 SWAP2 PUSH2 0x4F4 JUMP JUMPDEST NOT AND SWAP4 DUP5 PUSH2 0x74D DUP6 PUSH2 0x323 JUMP JUMPDEST LT ISZERO PUSH2 0x7C3 JUMPI POP POP POP POP PUSH2 0x7D SWAP7 POP PUSH2 0x7B7 SWAP4 PUSH2 0x7B2 PUSH2 0x7AC PUSH2 0x7A7 PUSH2 0x1FC PUSH2 0x7A0 PUSH2 0x7BD SWAP11 SWAP9 PUSH2 0x79A PUSH2 0x795 PUSH2 0x6C6 SWAP11 DUP16 PUSH2 0x6BC SWAP1 PUSH2 0x6B6 PUSH2 0x6B0 PUSH2 0x6AB PUSH2 0x7B7 SWAP16 PUSH2 0xB88 JUMP JUMPDEST PUSH2 0x501 JUMP JUMPDEST SWAP1 PUSH2 0x54B JUMP JUMPDEST DUP1 SWAP9 PUSH2 0x158 JUMP JUMPDEST PUSH2 0xB88 JUMP JUMPDEST SWAP5 PUSH2 0x580 JUMP JUMPDEST PUSH2 0x591 JUMP JUMPDEST SWAP2 PUSH2 0x5A5 JUMP JUMPDEST SWAP1 PUSH2 0x5D0 JUMP JUMPDEST DUP4 SWAP7 POP PUSH2 0x802 SWAP6 POP PUSH2 0x66C SWAP3 SWAP5 POP PUSH2 0x7F5 PUSH2 0x7E5 PUSH2 0x7FB SWAP6 PUSH2 0x667 SWAP4 ADD PUSH2 0x177 JUMP JUMPDEST SWAP6 PUSH2 0x7EF DUP13 PUSH2 0xEE JUMP JUMPDEST SWAP1 PUSH2 0x4D4 JUMP JUMPDEST DUP3 PUSH2 0x330 JUMP JUMPDEST AND SWAP2 PUSH2 0x323 JUMP JUMPDEST DUP2 GT ISZERO PUSH2 0x8A2 JUMPI PUSH2 0x6C6 PUSH2 0x7B7 DUP4 PUSH2 0x7B2 PUSH2 0x89D PUSH2 0x88D PUSH2 0x7A7 PUSH2 0x1FC PUSH2 0x7BD SWAP11 PUSH2 0x1F6 PUSH2 0x887 PUSH2 0x7D SWAP16 DUP16 PUSH2 0x79A PUSH2 0x7B7 SWAP16 DUP3 SWAP16 SWAP1 PUSH2 0x876 PUSH2 0x795 PUSH2 0x881 SWAP7 PUSH2 0x6B6 PUSH2 0x870 PUSH2 0x7A7 PUSH2 0x1FC PUSH2 0x85D PUSH2 0x6AB PUSH2 0x87B SWAP11 PUSH2 0xB88 JUMP JUMPDEST SWAP5 PUSH2 0x22D PUSH2 0x86A DUP14 PUSH2 0xEE JUMP JUMPDEST DUP8 PUSH2 0x511 JUMP JUMPDEST SWAP8 PUSH2 0xEE JUMP JUMPDEST PUSH2 0x52A JUMP JUMPDEST SWAP2 PUSH2 0x53E JUMP JUMPDEST SWAP12 PUSH2 0x53E JUMP JUMPDEST DUP12 PUSH2 0x565 JUMP JUMPDEST SWAP6 PUSH2 0x897 DUP11 PUSH2 0x53E JUMP JUMPDEST SWAP1 PUSH2 0x565 JUMP JUMPDEST PUSH2 0x580 JUMP JUMPDEST POP POP POP POP POP PUSH4 0xFFFFFFFF SWAP1 JUMP JUMPDEST PUSH1 0x0 JUMPDEST DUP4 DUP2 LT PUSH2 0x8C2 JUMPI POP POP PUSH1 0x0 SWAP2 ADD MSTORE JUMP JUMPDEST DUP2 DUP2 ADD MLOAD DUP4 DUP3 ADD MSTORE PUSH1 0x20 ADD PUSH2 0x8B2 JUMP JUMPDEST PUSH2 0x8F3 PUSH2 0x8FC PUSH1 0x20 SWAP4 PUSH2 0x2B4 SWAP4 PUSH2 0x8E7 DUP2 MLOAD SWAP1 JUMP JUMPDEST DUP1 DUP4 MSTORE SWAP4 DUP5 SWAP3 PUSH1 0x20 ADD SWAP1 JUMP JUMPDEST SWAP6 DUP7 SWAP2 ADD PUSH2 0x8AF JUMP JUMPDEST PUSH1 0x1F ADD PUSH1 0x1F NOT AND SWAP1 JUMP JUMPDEST SWAP3 SWAP2 PUSH1 0x20 PUSH2 0x923 PUSH2 0x67 SWAP4 PUSH1 0x40 DUP8 ADD SWAP1 DUP8 DUP3 SUB PUSH1 0x0 DUP10 ADD MSTORE PUSH2 0x8D2 JUMP JUMPDEST SWAP5 ADD MSTORE JUMP JUMPDEST SWAP1 PUSH2 0x4B9 PUSH2 0x67 SWAP3 PUSH2 0x4AA PUSH2 0x93C PUSH1 0x40 MLOAD SWAP1 JUMP JUMPDEST PUSH4 0x2D839CB3 PUSH1 0xE2 SHL PUSH1 0x20 DUP3 ADD MSTORE SWAP4 DUP5 SWAP3 PUSH1 0x24 DUP5 ADD PUSH2 0x906 JUMP JUMPDEST PUSH2 0x95F PUSH1 0x8 PUSH2 0xEE JUMP JUMPDEST PUSH2 0x96C PUSH2 0x1F1 DUP3 DUP6 PUSH2 0x101 JUMP JUMPDEST DUP1 SWAP3 PUSH2 0x977 DUP6 PUSH2 0x181 JUMP JUMPDEST SWAP3 PUSH1 0x2 DUP3 ADD SWAP1 PUSH2 0x98A PUSH2 0x1FC DUP6 DUP5 PUSH2 0x158 JUMP JUMPDEST SWAP6 PUSH1 0x1 SWAP7 PUSH2 0x997 DUP9 PUSH2 0x323 JUMP JUMPDEST SWAP1 PUSH2 0x9A6 DUP3 PUSH2 0x667 DUP11 DUP3 PUSH2 0x330 JUMP JUMPDEST AND SWAP1 DUP2 SWAP7 PUSH1 0x0 SWAP3 PUSH2 0x9B9 PUSH2 0x344 DUP6 PUSH2 0x323 JUMP JUMPDEST GT ISZERO PUSH2 0x9EA JUMPI POP POP POP POP POP POP POP PUSH2 0x7D SWAP4 SWAP3 PUSH2 0x6B6 PUSH2 0x6B0 PUSH2 0x7BD SWAP5 PUSH2 0x7EF PUSH2 0x9E4 PUSH2 0x6C1 SWAP7 PUSH2 0xDC9 JUMP JUMPDEST SWAP5 PUSH2 0xEE JUMP JUMPDEST SWAP3 SWAP6 SWAP10 POP SWAP3 SWAP6 POP SWAP3 SWAP6 POP PUSH2 0xA15 PUSH2 0xA04 PUSH2 0x402 DUP8 DUP5 PUSH2 0x361 JUMP JUMPDEST SWAP2 PUSH2 0xA0F PUSH1 0xFF PUSH2 0x501 JUMP JUMPDEST AND PUSH2 0x37D JUMP JUMPDEST SWAP3 DUP8 DUP10 ADD SWAP2 PUSH2 0xA27 PUSH2 0x1FC DUP3 DUP6 PUSH2 0x1A4 JUMP JUMPDEST PUSH2 0xA35 DUP6 PUSH2 0x667 DUP9 DUP3 PUSH2 0x330 JUMP JUMPDEST AND SWAP4 DUP5 PUSH2 0xA44 PUSH2 0x344 DUP6 PUSH2 0x323 JUMP JUMPDEST GT ISZERO PUSH2 0xA90 JUMPI POP POP POP POP PUSH2 0x7D SWAP7 POP PUSH2 0x7B7 SWAP4 PUSH2 0x7B2 PUSH2 0x7AC PUSH2 0xA8B PUSH2 0x1FC PUSH2 0x7A0 PUSH2 0x7BD SWAP11 SWAP9 PUSH2 0x897 PUSH2 0x795 DUP15 PUSH2 0x6B6 PUSH2 0x6B0 PUSH2 0x6C6 SWAP14 PUSH2 0x7EF PUSH2 0x9E4 PUSH2 0x7B7 SWAP16 PUSH2 0xDC9 JUMP JUMPDEST PUSH2 0xDC9 JUMP JUMPDEST SWAP2 SWAP6 POP SWAP3 POP PUSH2 0xAB3 SWAP4 POP PUSH2 0x667 PUSH2 0xAAC DUP7 PUSH2 0x7FB SWAP5 SWAP12 ADD PUSH2 0x177 JUMP JUMPDEST SWAP4 DUP3 PUSH2 0x330 JUMP JUMPDEST DUP2 GT ISZERO PUSH2 0x8A2 JUMPI PUSH2 0x6C6 PUSH2 0x7B7 DUP4 PUSH2 0x7B2 PUSH2 0x89D PUSH2 0x88D PUSH2 0xA8B PUSH2 0x1FC PUSH2 0x7BD SWAP11 PUSH2 0x1F6 PUSH2 0x887 PUSH2 0x7D SWAP16 DUP16 PUSH2 0x79A PUSH2 0x7B7 SWAP16 DUP3 SWAP16 SWAP1 PUSH2 0x876 PUSH2 0x795 PUSH2 0x881 SWAP7 PUSH2 0x6B6 PUSH2 0x870 PUSH2 0xA8B PUSH2 0x1FC PUSH2 0x85D PUSH2 0x6AB PUSH2 0x87B SWAP11 PUSH2 0xDC9 JUMP JUMPDEST PUSH2 0x67 SWAP1 PUSH1 0x1 PUSH2 0x1017 JUMP JUMPDEST PUSH2 0x7D PUSH2 0x7D PUSH2 0x7D SWAP3 PUSH1 0x1 PUSH1 0x1 PUSH1 0x80 SHL SUB AND SWAP1 JUMP JUMPDEST PUSH2 0x7D SWAP1 PUSH2 0x11F PUSH2 0x344 PUSH2 0x7D SWAP5 PUSH1 0xFF AND SWAP1 JUMP JUMPDEST SWAP2 SWAP1 DUP3 ADD DUP1 SWAP3 GT PUSH2 0x4EF JUMPI JUMP JUMPDEST PUSH2 0x7D PUSH2 0x7D PUSH2 0x7D SWAP3 PUSH8 0xFFFFFFFFFFFFFFFF AND SWAP1 JUMP JUMPDEST PUSH2 0x7D PUSH2 0x7D PUSH2 0x7D SWAP3 PUSH2 0xFFFF AND SWAP1 JUMP JUMPDEST PUSH2 0x7D PUSH2 0x7D PUSH2 0x7D SWAP3 PUSH1 0xFF AND SWAP1 JUMP JUMPDEST PUSH2 0x7D SWAP1 PUSH1 0x0 SWAP1 DUP2 PUSH2 0xBA0 PUSH1 0x1 PUSH1 0x1 PUSH1 0x80 SHL SUB PUSH2 0xB19 JUMP JUMPDEST DUP3 AND SWAP3 PUSH1 0x0 SWAP4 PUSH2 0xBB2 PUSH2 0x344 DUP7 PUSH2 0x323 JUMP JUMPDEST GT ISZERO PUSH2 0xDB3 JUMPI POP PUSH2 0xBCD SWAP1 PUSH2 0xBC7 PUSH1 0x80 PUSH2 0x323 JUMP JUMPDEST SWAP1 PUSH2 0xB43 JUMP JUMPDEST PUSH2 0xBDE PUSH8 0xFFFFFFFFFFFFFFFF PUSH2 0xB50 JUMP JUMPDEST DUP3 AND PUSH2 0xBEC PUSH2 0x344 DUP6 PUSH2 0x323 JUMP JUMPDEST GT ISZERO PUSH2 0xD9E JUMPI PUSH2 0xC00 SWAP1 PUSH2 0xBC7 PUSH1 0x40 PUSH2 0x323 JUMP JUMPDEST PUSH2 0xC0D PUSH4 0xFFFFFFFF PUSH2 0x1AE JUMP JUMPDEST DUP3 AND PUSH2 0xC1B PUSH2 0x344 DUP6 PUSH2 0x323 JUMP JUMPDEST GT ISZERO PUSH2 0xD89 JUMPI PUSH2 0xC2F SWAP1 PUSH2 0xBC7 PUSH1 0x20 PUSH2 0x323 JUMP JUMPDEST PUSH2 0xC3A PUSH2 0xFFFF PUSH2 0xB67 JUMP JUMPDEST DUP3 AND PUSH2 0xC48 PUSH2 0x344 DUP6 PUSH2 0x323 JUMP JUMPDEST GT ISZERO PUSH2 0xD74 JUMPI PUSH2 0xC5C SWAP1 PUSH2 0xBC7 PUSH1 0x10 PUSH2 0x323 JUMP JUMPDEST PUSH2 0xC66 PUSH1 0xFF PUSH2 0xB78 JUMP JUMPDEST DUP3 AND PUSH2 0xC74 PUSH2 0x344 DUP6 PUSH2 0x323 JUMP JUMPDEST GT ISZERO PUSH2 0xD5F JUMPI PUSH2 0xC88 SWAP1 PUSH2 0xBC7 PUSH1 0x8 PUSH2 0x323 JUMP JUMPDEST PUSH2 0xC92 PUSH1 0xF PUSH2 0x323 JUMP JUMPDEST DUP3 AND PUSH2 0xCA0 PUSH2 0x344 DUP6 PUSH2 0x323 JUMP JUMPDEST GT ISZERO PUSH2 0xD4A JUMPI PUSH2 0xCB4 SWAP1 PUSH2 0xBC7 PUSH1 0x4 PUSH2 0x323 JUMP JUMPDEST PUSH2 0xCBE PUSH1 0x3 PUSH2 0x323 JUMP JUMPDEST DUP3 AND PUSH2 0xCCC PUSH2 0x344 DUP6 PUSH2 0x323 JUMP JUMPDEST GT ISZERO PUSH2 0xD34 JUMPI PUSH2 0xCE0 SWAP1 PUSH2 0xBC7 PUSH1 0x2 PUSH2 0x323 JUMP JUMPDEST SWAP2 JUMPDEST PUSH2 0xCFA PUSH2 0x344 PUSH2 0xCF2 PUSH1 0x1 PUSH2 0x323 JUMP JUMPDEST DUP5 AND SWAP3 PUSH2 0x323 JUMP JUMPDEST GT ISZERO PUSH2 0xD1A JUMPI POP PUSH2 0xD0F SWAP1 PUSH2 0xBC7 PUSH1 0x1 PUSH2 0x323 JUMP JUMPDEST PUSH2 0x667 PUSH2 0x100 PUSH2 0x323 JUMP JUMPDEST PUSH2 0xD2E SWAP1 PUSH2 0xD28 PUSH1 0x1 PUSH2 0xEE JUMP JUMPDEST SWAP1 PUSH2 0xB2F JUMP JUMPDEST POP PUSH2 0xD0F JUMP JUMPDEST SWAP2 SWAP1 PUSH2 0xD44 SWAP1 PUSH2 0xD28 PUSH1 0x2 PUSH2 0xEE JUMP JUMPDEST SWAP1 PUSH2 0xCE2 JUMP JUMPDEST SWAP1 PUSH2 0xD59 SWAP1 PUSH2 0xD28 PUSH1 0x4 PUSH2 0xEE JUMP JUMPDEST SWAP1 PUSH2 0xCB4 JUMP JUMPDEST SWAP1 PUSH2 0xD6E SWAP1 PUSH2 0xD28 PUSH1 0x8 PUSH2 0xEE JUMP JUMPDEST SWAP1 PUSH2 0xC88 JUMP JUMPDEST SWAP1 PUSH2 0xD83 SWAP1 PUSH2 0xD28 PUSH1 0x10 PUSH2 0xEE JUMP JUMPDEST SWAP1 PUSH2 0xC5C JUMP JUMPDEST SWAP1 PUSH2 0xD98 SWAP1 PUSH2 0xD28 PUSH1 0x20 PUSH2 0xEE JUMP JUMPDEST SWAP1 PUSH2 0xC2F JUMP JUMPDEST SWAP1 PUSH2 0xDAD SWAP1 PUSH2 0xD28 PUSH1 0x40 PUSH2 0xEE JUMP JUMPDEST SWAP1 PUSH2 0xC00 JUMP JUMPDEST SWAP2 PUSH2 0xDC3 SWAP2 POP PUSH2 0xD28 PUSH1 0x80 PUSH2 0xEE JUMP JUMPDEST SWAP1 PUSH2 0xBCD JUMP JUMPDEST SWAP1 PUSH1 0x0 DUP1 SWAP3 PUSH2 0xDE1 PUSH2 0xDDB PUSH1 0x7F PUSH2 0xEE JUMP JUMPDEST DUP3 PUSH2 0xB2F JUMP JUMPDEST SWAP2 PUSH1 0x0 SWAP3 PUSH2 0xDF1 PUSH2 0x344 DUP6 PUSH2 0x323 JUMP JUMPDEST SUB PUSH2 0xFBA JUMPI JUMPDEST POP PUSH2 0xE05 PUSH2 0xDDB PUSH1 0x3F PUSH2 0xEE JUMP JUMPDEST PUSH2 0xE11 PUSH2 0x344 DUP5 PUSH2 0x323 JUMP JUMPDEST SUB PUSH2 0xF98 JUMPI JUMPDEST PUSH2 0xE24 PUSH2 0xDDB PUSH1 0x1F PUSH2 0xEE JUMP JUMPDEST PUSH2 0xE30 PUSH2 0x344 DUP5 PUSH2 0x323 JUMP JUMPDEST SUB PUSH2 0xF76 JUMPI JUMPDEST PUSH2 0xE43 PUSH2 0xDDB PUSH1 0xF PUSH2 0xEE JUMP JUMPDEST PUSH2 0xE4F PUSH2 0x344 DUP5 PUSH2 0x323 JUMP JUMPDEST SUB PUSH2 0xF54 JUMPI JUMPDEST PUSH2 0xE62 PUSH2 0xDDB PUSH1 0x7 PUSH2 0xEE JUMP JUMPDEST PUSH2 0xE6E PUSH2 0x344 DUP5 PUSH2 0x323 JUMP JUMPDEST SUB PUSH2 0xF32 JUMPI JUMPDEST PUSH2 0xE81 PUSH2 0xDDB PUSH1 0x3 PUSH2 0xEE JUMP JUMPDEST PUSH2 0xE8D PUSH2 0x344 DUP5 PUSH2 0x323 JUMP JUMPDEST SUB PUSH2 0xF10 JUMPI JUMPDEST PUSH2 0xE9D PUSH1 0x1 PUSH2 0xEE JUMP JUMPDEST SWAP2 PUSH2 0xEA8 DUP4 DUP4 PUSH2 0xB2F JUMP JUMPDEST PUSH2 0xEB4 PUSH2 0x344 DUP4 PUSH2 0x323 JUMP JUMPDEST SUB PUSH2 0xEE7 JUMPI JUMPDEST PUSH2 0xEC3 SWAP1 PUSH2 0x323 JUMP JUMPDEST DUP2 SUB PUSH2 0xECD JUMPI POP POP JUMP JUMPDEST PUSH2 0x7D SWAP3 SWAP4 SWAP2 PUSH2 0xEDC SWAP2 PUSH2 0xB2F JUMP JUMPDEST POP PUSH2 0xBC7 PUSH1 0x1 PUSH2 0x323 JUMP JUMPDEST SWAP4 SWAP1 PUSH2 0xF08 PUSH2 0xEFD PUSH2 0xEC3 SWAP3 PUSH2 0xD28 PUSH1 0x2 PUSH2 0xEE JUMP JUMPDEST SWAP3 PUSH2 0xBC7 PUSH1 0x2 PUSH2 0x323 JUMP JUMPDEST SWAP5 SWAP1 POP PUSH2 0xEBA JUMP JUMPDEST PUSH2 0xF21 PUSH2 0xF2C SWAP2 PUSH2 0xD28 PUSH1 0x4 PUSH2 0xEE JUMP JUMPDEST SWAP4 PUSH2 0xBC7 PUSH1 0x4 PUSH2 0x323 JUMP JUMPDEST SWAP3 PUSH2 0xE93 JUMP JUMPDEST PUSH2 0xF43 PUSH2 0xF4E SWAP2 PUSH2 0xD28 PUSH1 0x8 PUSH2 0xEE JUMP JUMPDEST SWAP4 PUSH2 0xBC7 PUSH1 0x8 PUSH2 0x323 JUMP JUMPDEST SWAP3 PUSH2 0xE74 JUMP JUMPDEST PUSH2 0xF65 PUSH2 0xF70 SWAP2 PUSH2 0xD28 PUSH1 0x10 PUSH2 0xEE JUMP JUMPDEST SWAP4 PUSH2 0xBC7 PUSH1 0x10 PUSH2 0x323 JUMP JUMPDEST SWAP3 PUSH2 0xE55 JUMP JUMPDEST PUSH2 0xF87 PUSH2 0xF92 SWAP2 PUSH2 0xD28 PUSH1 0x20 PUSH2 0xEE JUMP JUMPDEST SWAP4 PUSH2 0xBC7 PUSH1 0x20 PUSH2 0x323 JUMP JUMPDEST SWAP3 PUSH2 0xE36 JUMP JUMPDEST PUSH2 0xFA9 PUSH2 0xFB4 SWAP2 PUSH2 0xD28 PUSH1 0x40 PUSH2 0xEE JUMP JUMPDEST SWAP4 PUSH2 0xBC7 PUSH1 0x40 PUSH2 0x323 JUMP JUMPDEST SWAP3 PUSH2 0xE17 JUMP JUMPDEST SWAP4 POP PUSH2 0xFCD PUSH2 0xFD8 SWAP2 PUSH2 0xD28 PUSH1 0x80 PUSH2 0xEE JUMP JUMPDEST SWAP4 PUSH2 0xBC7 PUSH1 0x80 PUSH2 0x323 JUMP JUMPDEST SWAP3 CODESIZE PUSH2 0xDF7 JUMP JUMPDEST PUSH1 0x0 DUP1 SWAP2 PUSH2 0xFF5 PUSH11 0x636F6E736F6C652E6C6F67 SWAP1 JUMP JUMPDEST PUSH1 0x20 DUP3 MLOAD SWAP3 ADD SWAP1 GAS STATICCALL POP JUMP JUMPDEST PUSH4 0x4E487B71 PUSH1 0xE0 SHL PUSH1 0x0 MSTORE PUSH1 0x51 PUSH1 0x4 MSTORE PUSH1 0x24 PUSH1 0x0 REVERT JUMPDEST PUSH1 0x1 SUB PUSH2 0x1001 JUMPI PUSH2 0x67 SWAP1 PUSH2 0xFDF JUMP INVALID LOG2 PUSH5 0x6970667358 0x22 SLT KECCAK256 MULMOD 0xC0 BYTE PC 0xAE DUP7 CALLVALUE MOD 0xAF SWAP8 0xF6 0xAE PUSH10 0x7F1EB6ACDBF23C5BE03D OR ADDRESS 0xDF 0xCE 0xED DUP14 0x29 0xAF 0xE PUSH5 0x736F6C6343 STOP ADDMOD XOR STOP CALLER "},"methodIdentifiers":{"findbigbin(uint32)":"7291e6ef","findsmallbin(uint32)":"9e8fa2e1","flipbin(uint32)":"4da4e3c7"}}}}}