{"contracts/Pool.sol":{"Pool":{"abi":[{"inputs":[{"internalType":"address","name":"token0_","type":"address"},{"internalType":"address","name":"token1_","type":"address"},{"internalType":"uint256","name":"_pi","type":"uint256"},{"internalType":"uint32","name":"_bin","type":"uint32"}],"stateMutability":"nonpayable","type":"constructor"},{"inputs":[],"name":"InvalidLimitPrice","type":"error"},{"inputs":[],"name":"Invalidbinposition","type":"error"},{"inputs":[],"name":"LiquidityNotEnough","type":"error"},{"inputs":[{"internalType":"uint256","name":"prod1","type":"uint256"},{"internalType":"uint256","name":"denominator","type":"uint256"}],"name":"PRBMath__MulDivOverflow","type":"error"},{"inputs":[],"name":"ZeroLiquidity","type":"error"},{"inputs":[],"name":"composition","outputs":[{"internalType":"uint160","name":"","type":"uint160"}],"stateMutability":"view","type":"function"},{"inputs":[],"name":"liquidity","outputs":[{"internalType":"uint128","name":"","type":"uint128"}],"stateMutability":"view","type":"function"},{"inputs":[{"internalType":"address","name":"owner","type":"address"},{"internalType":"uint32","name":"target_bin","type":"uint32"},{"internalType":"uint128","name":"amount","type":"uint128"},{"internalType":"bytes","name":"data","type":"bytes"}],"name":"mint","outputs":[{"internalType":"uint256","name":"amount0","type":"uint256"},{"internalType":"uint256","name":"amount1","type":"uint256"}],"stateMutability":"nonpayable","type":"function"},{"inputs":[{"internalType":"address","name":"","type":"address"},{"internalType":"address","name":"","type":"address"},{"internalType":"uint256[]","name":"","type":"uint256[]"},{"internalType":"uint256[]","name":"","type":"uint256[]"},{"internalType":"bytes","name":"","type":"bytes"}],"name":"onERC1155BatchReceived","outputs":[{"internalType":"bytes4","name":"","type":"bytes4"}],"stateMutability":"nonpayable","type":"function"},{"inputs":[{"internalType":"address","name":"","type":"address"},{"internalType":"address","name":"","type":"address"},{"internalType":"uint256","name":"","type":"uint256"},{"internalType":"uint256","name":"","type":"uint256"},{"internalType":"bytes","name":"","type":"bytes"}],"name":"onERC1155Received","outputs":[{"internalType":"bytes4","name":"","type":"bytes4"}],"stateMutability":"nonpayable","type":"function"},{"inputs":[],"name":"slot","outputs":[{"internalType":"uint256","name":"pi","type":"uint256"},{"internalType":"uint32","name":"bin","type":"uint32"}],"stateMutability":"view","type":"function"},{"inputs":[{"internalType":"bytes4","name":"interfaceId","type":"bytes4"}],"name":"supportsInterface","outputs":[{"internalType":"bool","name":"","type":"bool"}],"stateMutability":"view","type":"function"},{"inputs":[{"internalType":"uint256","name":"expectedAmount","type":"uint256"},{"internalType":"uint256","name":"limitPrice","type":"uint256"},{"internalType":"bool","name":"zeroforone","type":"bool"},{"internalType":"bytes","name":"data","type":"bytes"}],"name":"swap","outputs":[{"internalType":"uint256","name":"amount0","type":"uint256"},{"internalType":"uint256","name":"amount1","type":"uint256"}],"stateMutability":"nonpayable","type":"function"},{"inputs":[],"name":"token0","outputs":[{"internalType":"address","name":"","type":"address"}],"stateMutability":"view","type":"function"},{"inputs":[],"name":"token1","outputs":[{"internalType":"address","name":"","type":"address"}],"stateMutability":"view","type":"function"}],"evm":{"bytecode":{"linkReferences":{},"object":"60c060405234620000465762000022620000186200013e565b929190916200023e565b60405161347362000277823960805181610156015260a051816105bc015261347390f35b600080fd5b634e487b7160e01b600052604160045260246000fd5b90601f01601f191681019081106001600160401b038211176200008357604052565b6200004b565b90620000a06200009860405190565b928362000061565b565b90565b6001600160a01b0381165b036200004657565b90505190620000a082620000a5565b80620000b0565b90505190620000a082620000c7565b63ffffffff8116620000b0565b90505190620000a082620000dd565b6080818303126200004657620001108282620000b8565b92620000a2620001248460208501620000b8565b936060620001368260408701620000ce565b9401620000ea565b62000161620036ea80380380620001558162000089565b928339810190620000f9565b90919293565b620000a2604062000089565b90600019905b9181191691161790565b620000a2620000a2620000a29290565b90620001a7620000a2620001af9262000183565b825462000173565b9055565b9063ffffffff9062000179565b620001d6620000a2620000a29263ffffffff1690565b63ffffffff1690565b90620001f3620000a2620001af92620001c0565b8254620001b3565b60016200022a6020620000a0946200021f62000218600083015190565b8662000193565b015163ffffffff1690565b9101620001df565b90620000a091620001fb565b60805260a052620000a0916200026e90620002616200025c62000167565b938452565b63ffffffff166020830152565b60076200023256fe6080604052600436101561001257600080fd5b60003560e01c806301ffc9a7146100b25780630dfe1681146100ad5780631a686502146100a85780631a88bc66146100a3578063428716f81461009e578063bc197c8114610099578063d21220a714610094578063d456b5dd1461008f578063dd42d4c61461008a5763f23a6e61036100ca576106c9565b61066c565b61060b565b6105a7565b61056d565b61035a565b61022f565b6101bc565b610141565b6100f9565b6001600160e01b031981165b036100ca57565b600080fd5b905035906100dc826100b7565b565b906020828203126100ca576100f2916100cf565b90565b9052565b346100ca5761012661011461010f3660046100de565b6106e8565b60405191829182901515815260200190565b0390f35b60009103126100ca57565b6001600160a01b031690565b346100ca5761015136600461012a565b6101267f00000000000000000000000000000000000000000000000000000000000000005b604051918291826001600160a01b03909116815260200190565b6100f2916008021c5b6001600160801b031690565b906100f29154610190565b6100f2600060056101a5565b346100ca576101cc36600461012a565b6101266101d76101b0565b604051918291826001600160801b03909116815260200190565b6100f29081565b6100f290546101f1565b6100f2905b63ffffffff1690565b6100f29054610202565b61022460076101f8565b906100f26008610210565b346100ca5761023f36600461012a565b61024761021a565b9061012661025460405190565b9283928390815263ffffffff909116602082015260400190565b6001600160a01b0381166100c3565b905035906100dc8261026e565b63ffffffff81166100c3565b905035906100dc8261028a565b6001600160801b0381166100c3565b905035906100dc826102a3565b909182601f830112156100ca5781359167ffffffffffffffff83116100ca5760200192600183028401116100ca57565b906080828203126100ca57610304818361027d565b926103128260208501610296565b9261032083604083016102b2565b92606082013567ffffffffffffffff81116100ca5761033f92016102bf565b9091565b9081526040810192916100dc9160200152565b0152565b346100ca5761037661036d3660046102ef565b93929092610977565b9061012661038360405190565b92839283610343565b634e487b7160e01b600052604160045260246000fd5b90601f01601f1916810190811067ffffffffffffffff8211176103c457604052565b61038c565b906100dc6103d660405190565b92836103a2565b67ffffffffffffffff81116103c45760208091020190565b806100c3565b905035906100dc826103f5565b9092919261041d610418826103dd565b6103c9565b93818552602080860192028301928184116100ca57915b8383106104415750505050565b6020809161044f84866103fb565b815201920191610434565b9080601f830112156100ca578160206100f293359101610408565b67ffffffffffffffff81116103c457602090601f01601f19160190565b0190565b90826000939282370152565b909291926104b261041882610475565b93818552818301116100ca576100dc916020850190610496565b9080601f830112156100ca578160206100f2933591016104a2565b91909160a0818403126100ca576104fe838261027d565b9261050c816020840161027d565b92604083013567ffffffffffffffff81116100ca578261052d91850161045a565b92606081013567ffffffffffffffff81116100ca578361054e91830161045a565b92608082013567ffffffffffffffff81116100ca576100f292016104cc565b346100ca5761012661058c6105833660046104e7565b93929092610c10565b604051918291826001600160e01b0319909116815260200190565b346100ca576105b736600461012a565b6101267f0000000000000000000000000000000000000000000000000000000000000000610176565b6100f2916008021c6001600160a01b031690565b906100f291546105e0565b6100f2600060066105f4565b346100ca5761061b36600461012a565b6101266101766105ff565b8015156100c3565b905035906100dc82610626565b906080828203126100ca5761065081836103fb565b9261065e82602085016103fb565b92610320836040830161062e565b346100ca5761037661067f36600461063b565b9392909261119c565b91909160a0818403126100ca5761069f838261027d565b926106ad816020840161027d565b926106bb82604085016103fb565b9261054e83606083016103fb565b346100ca5761012661058c6106df366004610688565b9392909261196e565b630271189760e51b6001600160e01b0319821614908115610707575090565b6100f291506001600160e01b0319166301ffc9a760e01b1490565b6102076100f26100f29290565b6100f2628d89e8610722565b6100f262727618610722565b6101996100f26100f29290565b6107616100f26100f29290565b60ff1690565b6100f26060610754565b6100f26100f26100f29290565b6100f2906107966107926100f29460ff1690565b9190565b901b90565b6101356100f26100f29290565b6102076100f26100f29263ffffffff1690565b906107c5906107a8565b600052602052604060002090565b6100f290610761565b6100f290546107d3565b634e487b7160e01b600052601160045260246000fd5b61080b9060ff165b9160ff1690565b90039060ff821161081857565b6107e6565b906001600160a01b03905b9181191691161790565b6100f290610135906001600160a01b031682565b906108566100f261085d92610832565b825461081d565b9055565b6100f290610135565b6100f29054610861565b6100f290610199565b6100f29054610874565b6108a2906001600160801b03165b916001600160801b031690565b01906001600160801b03821161081857565b906001600160801b0390610828565b6101996100f26100f2926001600160801b031690565b906108e96100f261085d926108c3565b82546108b4565b6100f290610832565b6100f2906108f0565b919061092081610919816104929560209181520190565b8095610496565b601f01601f191690565b9093916100f2959361095761095e926109506080860198600087019063ffffffff169052565b6020850152565b6040830152565b6060818503910152610902565b6040513d6000823e3d90fd5b93949290600095869361098b61020761072f565b63ffffffff8416118015610bd1575b610bbf576000946109aa86610747565b6001600160801b03831614610ba9576109c36008610210565b986109cd85611b2b565b9963ffffffff811663ffffffff871603610b45575050506109f8856109f285826107bb565b016107dc565b15610af057610a5f90610a5a84610a25610a1e610a15600661086a565b9c5b8d8661229c565b9b846122d4565b99610a43610a3c85610a37600561087d565b610887565b60056108d9565b610a4e84838b612360565b610ae0575b60016125a2565b6125ec565b610a70610a6b336108f9565b6108f9565b803b156100ca5787858094610aa38a95610a8960405190565b988997889687956363439a5560e01b87526004870161092a565b03925af18015610adb57610ab5575050565b816100dc92903d10610ad4575b610acc81836103a2565b81019061012a565b503d610ac2565b61096b565b610aeb82600261249c565b610a53565b610a5f90610a5a84610a25610a1e610b409c610b37610b32610b23610b13610767565b610b1d6001610754565b906107fc565b610b2d6001610771565b61077e565b61079b565b9d8e6006610846565b610a17565b9899919863ffffffff1663ffffffff86161115610b7f575090610a5a84610b79610a5f94610b728a61079b565b5084612226565b9a610a43565b98975050610a5f90610b95610b32610b23610767565b50610a5a84610ba383612203565b99610a43565b604051630200e8a960e31b8152600490fd5b0390fd5b604051633944550f60e21b8152600490fd5b50610bdd61020761073b565b63ffffffff84161061099a565b610c03610bfd6100f29263ffffffff1690565b60e01b90565b6001600160e01b03191690565b5050505050610c1d600090565b506100f263bc197c81610bea565b8181029291811591840414171561081857565b9160001960089290920291821b911b610828565b9190610c636100f261085d93610771565b908354610c3e565b6100dc91600091610c52565b818110610c82575050565b80610c906000600193610c6b565b01610c77565b919091828210610ca557505050565b6100dc9291610cba9091600052602060002090565b9182019101610c77565b90600160401b81116103c45781610cdc6100dc935490565b90828155610c96565b60006100dc91610cc4565b634e487b7160e01b600052600060045260246000fd5b90600003610d17576100dc90610ce5565b610cf0565b6100f260406103c9565b906100dc610d4e6001610d37610d1c565b94610d48610d44826101f8565b8752565b01610210565b63ffffffff166020840152565b6100f290610d26565b6100f26401000276a3610771565b6100f273fffd8963efd1fc6a506488495d951d5263988d26610771565b6100f260a06103c9565b90610da661041883610475565b918252565b610db56005610d99565b6462696e203d60d81b602082015290565b6100f2610dab565b6100f26100f26100f29263ffffffff1690565b6100f260c06103c9565b610df3610de1565b906000825260208080808080870160008152016000815201600081520160008152016000905250565b6100f2610deb565b9190820391821161081857565b9190820180921161081857565b634e487b7160e01b600052603260045260246000fd5b8054821015610e7757610e6e600191600052602060002090565b91020190600090565b610e3e565b90815491600160401b8310156103c45782610e9f9160016100dc95018155610e54565b90610c52565b610eaf6018610d99565b7f446f6e6520506172746c793a206e6f206d6f72652062696e0000000000000000602082015290565b6100f2610ea5565b610eea601e610d99565b7f446f6e6520506172746c793a206f7574206f66206c696d697470726963650000602082015290565b6100f2610ee0565b610f25601d610d99565b7f446f6e653a2066756c6c206f6620657870656374656420616d6f756e74000000602082015290565b6100f2610f1b565b6100f29060081c610199565b6100f29054610f56565b90610da6610418836103dd565b369037565b906100dc610f94610f8e84610f6c565b936103dd565b601f190160208401610f79565b6100f2916008021c81565b906100f29154610fa1565b610fc16053610d99565b7f20202020202020202020205b44454255475d3a2074656d704964735b695d207c60208201527f2074656d70416d6f756e74734f66546f6b656e305b695d207c2074656d70416d604082015272037bab73a39a7b32a37b5b2b718adb4ae901e9606d1b606082015290565b6100f2610fb7565b9061103d825190565b811015610e77576020809102010190565b91906060838203126100ca5761095790604061106a60606103c9565b94611075838261027d565b8652611084836020830161027d565b60208701520161027d565b906060828203126100ca576100f29161104e565b906110c36110bc6110b2845190565b8084529260200190565b9260200190565b9060005b8181106110d45750505090565b9091926110f16110ea6001928651815260200190565b9460200190565b9291016110c7565b969593909461114160809461113361114f956111258c6100dc9b60a082019160008184039101526110a3565b8c810360208e0152906110a3565b908a820360408c01526110a3565b9188830360608a0152610902565b94019015159052565b9063ffffffff90610828565b906111746100f261085d926107a8565b8254611158565b9060001990610828565b906111956100f261085d92610771565b825461117b565b92949392906000936111b060006009610d06565b6111bc6000600a610d06565b6111c86000600b610d06565b6111d26007610d5b565b936111dd600561087d565b976000821561194557506111f26100f2875190565b84118061192c575b155b61191a5761125d6112469961124d61122b600061122560208c9b989e9d9c015163ffffffff1690565b99015190565b60009c8d99611238610d8f565b9a8b019063ffffffff169052565b6020890152565b6001600160801b03166040870152565b61126689610771565b91611272836060880152565b61127d836080880152565b828111806118f9575b156118ec5797859697986112ba6112a38c89015163ffffffff1690565b6112b46112ae610dc6565b91610dce565b90612672565b6112c2610e1c565b602088016112d88d6112d2835190565b90840152565b8c6112e9818b015163ffffffff1690565b80916112f3845190565b91871561189e5750611306836002612a05565b63ffffffff80821603611876575b50610207611329915b8d015163ffffffff1690565b63ffffffff8316146118585761134b61135292602086019063ffffffff169052565b6040840152565b8c61135d8382015190565b8c60408c019561137487516001600160801b031690565b928189611381600661086a565b9560408a019661138f885190565b9161139995612c30565b9160808a949a959295019460a08501936113b1908552565b85526113be906006610846565b81516113c991610e24565b93849f6113d4835190565b60608201906113e1825190565b906113eb91610e31565b6113f29152565b84516080820190611401825190565b9061140b91610e31565b6114129152565b87015160099063ffffffff1661142790610dce565b61143091610e7c565b50602092611461918b156118435761145161144c61145a925190565b925190565b915b600a610e7c565b600b610e7c565b0191611471835163ffffffff1690565b61148463ffffffff5b9163ffffffff1690565b1461182857871561182057518b105b61180157881461150057916114c48c6114f79695936114b96114c7965163ffffffff1690565b63ffffffff16910152565b52565b6114ea8c6114e46114de828d015163ffffffff1690565b826107bb565b01610f62565b6001600160801b03169052565b9796959461127d565b505050505094509491969250945061151e611519610f4e565b612d2f565b60099261153161152c855490565b610f7e565b9461153d61152c865490565b9861154961152c875490565b975b6115566100f2885490565b811015611618578781808d8a828061156e8184610e54565b61157791610fac565b96600a93826115868187610e54565b61158f91610fac565b99600b9a61159d838d610e54565b6115a691610fac565b906115af61102c565b926115b993612d89565b6115c291610e54565b6115cb91610fac565b916115d591611034565b526115df91610e54565b6115e891610fac565b916115f291611034565b526115fc91610e54565b61160591610fac565b61160f828b611034565b5260010161154b565b509450949297969095919661162f8287018761108f565b611648610a6b610a6b888401516001600160a01b031690565b63a22cb46591813b156100ca578761165f60405190565b809361166b8660e01b90565b825233600483015260016024830152604490829084905af1918215610adb576020610a6b92610a6b926116ac956117e5575b5001516001600160a01b031690565b803b156100ca576116cb9187916116c260405190565b93849260e01b90565b825233600483015260016024830152604490829084905af18015610adb576117c9575b506116fb610a6b336108f9565b91823b156100ca57859461172e89879361171460405190565b9a8b988997889663859e32a760e01b8852600488016110f9565b03925af1918215610adb57611782926117ad575b5061175a610a3c60408601516001600160801b031690565b61177461176d8286015163ffffffff1690565b6008611164565b602084015190600701611185565b1561179d5761033f6080611797606084015190565b92015190565b61033f6060611797608084015190565b6117c390823d8411610ad457610acc81836103a2565b38611742565b6117df90863d8811610ad457610acc81836103a2565b386116ee565b6117fb908c8d3d10610ad457610acc81836103a2565b3861169d565b50505050505094509491969250945061181b611519610f13565b61151e565b518b11611493565b5050505050505094509491969250945061181b611519610ed8565b9061185261144c61145a925190565b91611453565b505063ffffffff60208301526118716000196040840152565b611352565b61187f81611b2b565b908c82111561188f575b50611314565b93509150610207611329611889565b6118a99060026127a3565b63ffffffff808216036118c4575b506102076113299161131d565b6118cd81611b2b565b908c8210156118dd575b506118b7565b935091506102076113296118d7565b509450949150949161151e565b50881561190d576020860151851015611286565b6020860151851115611286565b604051632e6cde9d60e11b8152600490fd5b506111fc61193b6100f2610d72565b85111590506111fa565b86015184108061195557156111fc565b506111fc6119646100f2610d64565b85101590506111fa565b505050505061197b600090565b506100f263f23a6e61610bea565b1490565b6119a06100f26100f29263ffffffff1690565b60030b90565b6119a06100f26100f29290565b6100f2628000006119a6565b6119cd9060030b9160030b90565b900390637fffffff198212637fffffff83131761081857565b6119f66100f26100f29260030b90565b60020b90565b6119f66100f26100f29290565b6100f26100f26100f29260020b90565b600160ff1b81146108185760000390565b6100f2620800006119fc565b611a466100f26100f29260020b90565b62ffffff1690565b6100f26100f26100f29262ffffff1690565b15611a6757565b60405162461bcd60e51b815260206004820152601560248201527462696e206973206f7574206f662072616e6765202160581b6044820152606490fd5b611ab16100f26100f29290565b6001600160881b031690565b6100f26100f26100f2926001600160881b031690565b6100f290611ae76107926100f29460ff1690565b901c90565b634e487b7160e01b600052601260045260246000fd5b8115611b0c570490565b611aec565b8115611b0c570690565b6100f26100f26100f29260ff1690565b611b59611b54611b466100f293611b40600090565b5061198d565b611b4e6119b3565b906119bf565b6119e6565b6000611b64816119fc565b611b6e8360020b90565b12156121db57611b8d611b88611b8384611a09565b611a19565b610771565b915b611bb5611bad6100f2611ba8611ba3611a2a565b611a36565b611a4e565b841115611a60565b611bbf6001610771565b8316611bcd61079284610771565b146121cb57611bf3611bee6ffff97272373d40000000000000000000611aa4565b611abd565b92611bfe6002610771565b8116611c0c61079285610771565b036121a4575b611c1c6004610771565b8116611c2a61079285610771565b0361217d575b611c3a6008610771565b8116611c4861079285610771565b03612156575b611c586010610771565b8116611c6661079285610771565b0361212f575b611c766020610771565b8116611c8461079285610771565b03612108575b611c946040610771565b8116611ca261079285610771565b036120d7575b608090611cb482610771565b8116611cc261079286610771565b036120b0575b611cd3610100610771565b8116611ce161079286610771565b03612089575b611cf2610200610771565b8116611d0061079286610771565b03612062575b611d11610400610771565b8116611d1f61079286610771565b0361203b575b611d30610800610771565b8116611d3e61079286610771565b03612014575b611d4f611000610771565b8116611d5d61079286610771565b03611fed575b611d6e612000610771565b8116611d7c61079286610771565b03611fc6575b611d8d614000610771565b8116611d9b61079286610771565b03611f9f575b611dac618000610771565b8116611dba61079286610771565b03611f78575b611dcc62010000610771565b8116611dda61079286610771565b03611f52575b611dec62020000610771565b8116611dfa61079286610771565b03611f2d575b611e0c62040000610771565b8116611e1a61079286610771565b03611f01575b611e2c62080000610771565b16611e3961079285610771565b03611ecd575b50611e53611e4c836119fc565b9160020b90565b13611eba575b611e84611e6f611e696020610754565b84611ad3565b92611e7e640100000000610771565b90611b11565b611e9061079283610771565b03611eac57611ea1611ea691610754565b611b1b565b90610e31565b50611ea6611ea16001610754565b90611ec790600019611b02565b90611e59565b611ef4611eee611efa9395611ee866149b34ee7b4533610771565b90610c2b565b91610754565b90611ad3565b9138611e3f565b93611f1e611f2791611ee86b048a1703920644c000000000610771565b611ef483610754565b93611e20565b93611f1e611f4c91611ee86d2216e584f6303800000000000000610771565b93611e00565b93611f1e611f7291611ee86e5d6af8dedbcb380000000000000000610771565b93611de0565b93611f1e611f9991611ee86f09aa508b5b7e5a800000000000000000610771565b93611dc0565b93611f1e611fc091611ee86f31be135f97da6e000000000000000000610771565b93611da1565b93611f1e611fe791611ee86f70d869a156ddd4000000000000000000610771565b93611d82565b93611f1e61200e91611ee86fa9f746462d8f78000000000000000000610771565b93611d63565b93611f1e61203591611ee86fd097f3bdfd2550000000000000000000610771565b93611d44565b93611f1e61205c91611ee86fe7159475a2c578000000000000000000610771565b93611d25565b93611f1e61208391611ee86ff3392b0822b880000000000000000000610771565b93611d06565b93611f1e6120aa91611ee86ff987a7253ac4d8000000000000000000610771565b93611ce7565b93611f1e6120d191611ee86ffcbe86c7900ae8000000000000000000610771565b93611cc8565b926120f861210291611ee86ffe5dee046a99d8000000000000000000610771565b611ef46080610754565b92611ca8565b926120f861212991611ee86fff2ea16466c980000000000000000000610771565b92611c8a565b926120f861215091611ee86fff973b41fa98d8000000000000000000610771565b92611c6c565b926120f861217791611ee86fffcb9843d60f68000000000000000000610771565b92611c4e565b926120f861219e91611ee86fffe5caca7e10f0000000000000000000610771565b92611c30565b926120f86121c591611ee86ffff2e50f5f6570000000000000000000610771565b92611c12565b611bf3611bee600160801b611aa4565b6121e7611b8883611a09565b91611b8f565b6100f26100f26100f2926001600160801b031690565b6122186100f291612212600090565b506121ed565b612220610767565b9061077e565b906122366100f292612212600090565b61225661224b612244610767565b809361077e565b91610b2d6001610771565b90612db7565b612277906001600160a01b03165b916001600160a01b031690565b9003906001600160a01b03821161081857565b6100f29081906001600160a01b031681565b6122566122cf6100f294936122af600090565b506122c96122186122c3600160601b61079b565b956121ed565b9361225c565b61228a565b906122e46100f292612212600090565b6122566123076122fc6122f5610767565b809461077e565b92610b2d6001610771565b9261228a565b9060ff90610828565b906123266100f261085d92151590565b825461230d565b9070ffffffffffffffffffffffffffffffff009060081b610828565b906123596100f261085d926108c3565b825461232d565b6100f26100dc9261237c92959495612376600090565b506107bb565b9261238684610f62565b600094859161239761089584610747565b146123e7575b01936123df6123d96123b86123b188610f62565b9485610887565b936119896108956123c886610747565b6001600160801b0388161495610747565b91151590565b141593612349565b6123f46001838301612316565b61239d565b61020790611ae761147a6100f29460ff1690565b6124206100f26100f29263ffffffff1690565b61ffff1690565b6107616100f26100f29263ffffffff1690565b6124206100f26100f29261ffff1690565b906107c59061243a565b61242090611ae76124696100f29460ff1690565b9161ffff1690565b6107616100f26100f29261ffff1690565b6107616100f26100f29260ff1690565b906107c590612482565b600061254c6100dc936124af6008610754565b610b2d61252561251f61251a6124d66124d06124cb87896123f9565b61240d565b96612427565b9461251460028b0161250f896124f46124ef828561244b565b6101f8565b6125086125016001610771565b9b8c61077e565b179261244b565b611185565b86612455565b612471565b93612471565b61250f84600189019261254561253e6124ef8487612492565b918761077e565b1792612492565b910190612558826101f8565b1790611185565b6100f5906001600160a01b031660601b90565b6100f59063ffffffff16610bfd565b601481612594610492936004969561255f565b018092612572565b906107c5565b6125c76125d36100f2946100f2946125b960405190565b938492602084019283612581565b908103825203826103a2565b6125e56125de825190565b9160200190565b209061259c565b6100dc916125fd90610a378361087d565b906108d9565b60005b8381106126165750506000910152565b8181015183820152602001612606565b6126476109206020936104929361263b815190565b80835293849260200190565b95869101612603565b9291602061266d6100dc9360408701908782036000890152612626565b940152565b906126ae6100dc9261269f61268660405190565b632d839cb360e21b602082015293849260248401612650565b602082018103825203826103a2565b612eec565b6124206100f26100f29260ff1690565b612420906107966124696100f29460ff1690565b6124206100f26100f29290565b6126f19061ffff16612469565b019061ffff821161081857565b61270b9061ffff16612469565b90039061ffff821161081857565b6102076100f26100f29261ffff1690565b6102079061079661147a6100f29460ff1690565b61274d9063ffffffff1661147a565b019063ffffffff821161081857565b61276b9063ffffffff1661147a565b90039063ffffffff821161081857565b6127879060ff16610804565b019060ff821161081857565b6102076100f26100f29260ff1690565b6127ad6008610754565b6127ba6124cb82856123f9565b80926127c585612427565b9260028201906127d86124ef858461244b565b956001966127e588610771565b906127f9826127f48a8261077e565b610e24565b1690819660009261280c61079285610771565b111561284e57505050505050506100f29392610b1d611eee6128489461283d61283761284396612ef7565b94610754565b9061277b565b612793565b9061275c565b9295995092955092955061287961286861251a8784612455565b9161287360ff6126b3565b16612471565b928789019161288b6124ef8285612492565b612899856127f4888261077e565b1693846128a861079285610771565b111561291d57505050506100f296506129119361290c6129066129016124ef6128fa6128489a986128f46128ef8e610b1d611eee6129179d61283d6128376129119f612ef7565b6126b3565b906126fe565b809861244b565b612ef7565b94612719565b61272a565b91610722565b9061273e565b919550925061294793506127f461293986612940949b016101f8565b938261077e565b1691610771565b8111156129f8576129176129118361290c6129f36129e96129016124ef6128489a6129e36129dd6100f29f8f6129d16129119f829f906129c66128ef6129d796610b1d6129c06129016124ef6129a76129a26129cb9a612ef7565b610754565b946129ba6129b48d610754565b876107fc565b90612492565b97610754565b6126c3565b916126d7565b906126e4565b9b6126d7565b8b6126fe565b9061244b565b956128f48a6126d7565b612719565b505050505063ffffffff90565b90612a106008610754565b91612a1e6124cb84846123f9565b906127f482612a2c85612427565b956002840191612a3f6124ef878561244b565b95600196612a71612a6d612a5b612a558b610754565b8d61277b565b612a648b610771565b9889918261077e565b1990565b1695600087612a8261079283610771565b1115612ab157505050505050506100f293612aac61291793610b1d611eee6129a261284396613135565b6107fc565b929599509281612ac79295989950819750612455565b612ad090612471565b92612adb60ff6126b3565b16612ae590612471565b9287830198612af4828b612492565b612afd906101f8565b81612b078b610754565b612b11908861277b565b612b1b908261077e565b90612b2591610e24565b19169384612b3285610771565b1015612b7f57505050506100f296506129119361290c612906612b7a6124ef6128fa6128489a986129d16128ef6129179a8f612aac90610b1d611eee6129a26129119f613135565b613135565b839650612bb19550612a6d929450612bab612ba1612940956127f493016101f8565b9561283d8c610754565b8261077e565b8111156129f8576129176129118361290c6129f36129e9612b7a6124ef6128489a6129e36129dd6100f29f8f6129d16129119f829f906129c66128ef6129d796610b1d6129c0612b7a6124ef6129a76129a26129cb9a613135565b612c1e906001600160a01b031661226a565b01906001600160a01b03821161081857565b949293909193612c3e600090565b506000908215612d0f57612c6887612c6288612c5d600160601b61079b565b61225c565b8661336a565b851015612cb257505015612c9957612c9590612c8f612c888483886133d0565b80926122d4565b93612c0c565b9293565b612c95906122c985612cab858461339b565b809361336a565b95929493505015612ced57612cdc612cd4612ce293612c5d600160601b61079b565b91828561336a565b926122d4565b90612c95600061079b565b612d0191612cfb81856122d4565b9361336a565b90612c95600160601b61079b565b612d1986856122d4565b612c68565b60208082526100f292910190612626565b61269f6126ae6100dc92612d4260405190565b63104c13eb60e21b602082015292839160248301612d1e565b6103566100dc94610957612d816060959998969960808601908682036000880152612626565b986020850152565b61269f6100dc946126ae9394612d9e60405190565b63a7a8785360e01b602082015295869460248601612d5b565b9192919060009060001981840992818102938480821091030392612ddb6000610771565b8414612edd5786841015612eb95792866100f2969793612e2593612e38965009808603951090036001612e12841961049283610771565b8416808095049604938060000304010290565b1791612e38612e3c82612e386003610771565b0290565b612e6d612eb3612ead612e9e612e8f612e80612e71600297612e5d89610771565b18612e388b8202612e6d8b610771565b0390565b612e388a8202612e6d8a610771565b612e38898202612e6d89610771565b612e38888202612e6d88610771565b612e38878202612e6d87610771565b80950290565b91610771565b8684610bbb612ec760405190565b631dcf306360e21b815292839260048401610343565b50505050916100f29192611b02565b6100dc90600161342d565b9060008092612f0f612f09607f610754565b82611ad3565b91600092612f1f61079285610771565b036130e8575b50612f33612f09603f610754565b612f3f61079284610771565b036130c6575b612f52612f09601f610754565b612f5e61079284610771565b036130a4575b612f71612f09600f610754565b612f7d61079284610771565b03613082575b612f90612f096007610754565b612f9c61079284610771565b03613060575b612faf612f096003610754565b612fbb61079284610771565b0361303e575b612fcb6001610754565b91612fd68383611ad3565b612fe261079283610771565b03613015575b612ff190610771565b8103612ffb575050565b6100f292939161300a91611ad3565b50611ea66001610771565b939061303661302b612ff192611ef46002610754565b92611ea66002610771565b949050612fe8565b61304f61305a91611ef46004610754565b93611ea66004610771565b92612fc1565b61307161307c91611ef46008610754565b93611ea66008610771565b92612fa2565b61309361309e91611ef46010610754565b93611ea66010610771565b92612f83565b6130b56130c091611ef46020610754565b93611ea66020610771565b92612f64565b6130d76130e291611ef46040610754565b93611ea66040610771565b92612f45565b93506130fb61310691611ef46080610754565b93611ea66080610771565b9238612f25565b6100f26100f26100f29267ffffffffffffffff1690565b6100f26100f26100f29261ffff1690565b6100f2906000908161314d6001600160801b036121ed565b82169260009361315f61079286610771565b1115613354575061317490611ea66080610771565b61318567ffffffffffffffff61310d565b821661319361079285610771565b111561333f576131a790611ea66040610771565b6131b463ffffffff610dce565b82166131c261079285610771565b111561332a576131d690611ea66020610771565b6131e161ffff613124565b82166131ef61079285610771565b11156133155761320390611ea66010610771565b61320d60ff611b1b565b821661321b61079285610771565b11156133005761322f90611ea66008610771565b613239600f610771565b821661324761079285610771565b11156132eb5761325b90611ea66004610771565b6132656003610771565b821661327361079285610771565b11156132d55761328790611ea66002610771565b915b6132a16107926132996001610771565b841692610771565b11156132c157506132b690611ea66001610771565b6127f4610100610771565b6132cf90611ef46001610754565b506132b6565b91906132e590611ef46002610754565b90613289565b906132fa90611ef46004610754565b9061325b565b9061330f90611ef46008610754565b9061322f565b9061332490611ef46010610754565b90613203565b9061333990611ef46020610754565b906131d6565b9061334e90611ef46040610754565b906131a7565b916133649150611ef46080610754565b90613174565b906122566133816122186100f29594612212600090565b9161228a565b610199906107966108956100f29460ff1690565b6100f291610b32916133ca6133c56133b1610767565b6133bf81610b2d6001610771565b93613387565b6121ed565b91612db7565b6100f2926133ca6133c5610b32946133e6600090565b506133ef610767565b90613387565b6000809161340b6a636f6e736f6c652e6c6f6790565b602082519201905afa50565b634e487b7160e01b600052605160045260246000fd5b600103613417576100dc906133f556fea26469706673582212205ea90d84e4fbe7ff731efbe530ba5429b4d63f1e20ee25ecc0a72b1300f735c164736f6c63430008180033","opcodes":"PUSH1 0xC0 PUSH1 0x40 MSTORE CALLVALUE PUSH3 0x46 JUMPI PUSH3 0x22 PUSH3 0x18 PUSH3 0x13E JUMP JUMPDEST SWAP3 SWAP2 SWAP1 SWAP2 PUSH3 0x23E JUMP JUMPDEST PUSH1 0x40 MLOAD PUSH2 0x3473 PUSH3 0x277 DUP3 CODECOPY PUSH1 0x80 MLOAD DUP2 PUSH2 0x156 ADD MSTORE PUSH1 0xA0 MLOAD DUP2 PUSH2 0x5BC ADD MSTORE PUSH2 0x3473 SWAP1 RETURN JUMPDEST PUSH1 0x0 DUP1 REVERT JUMPDEST PUSH4 0x4E487B71 PUSH1 0xE0 SHL PUSH1 0x0 MSTORE PUSH1 0x41 PUSH1 0x4 MSTORE PUSH1 0x24 PUSH1 0x0 REVERT JUMPDEST SWAP1 PUSH1 0x1F ADD PUSH1 0x1F NOT AND DUP2 ADD SWAP1 DUP2 LT PUSH1 0x1 PUSH1 0x1 PUSH1 0x40 SHL SUB DUP3 GT OR PUSH3 0x83 JUMPI PUSH1 0x40 MSTORE JUMP JUMPDEST PUSH3 0x4B JUMP JUMPDEST SWAP1 PUSH3 0xA0 PUSH3 0x98 PUSH1 0x40 MLOAD SWAP1 JUMP JUMPDEST SWAP3 DUP4 PUSH3 0x61 JUMP JUMPDEST JUMP JUMPDEST SWAP1 JUMP JUMPDEST PUSH1 0x1 PUSH1 0x1 PUSH1 0xA0 SHL SUB DUP2 AND JUMPDEST SUB PUSH3 0x46 JUMPI JUMP JUMPDEST SWAP1 POP MLOAD SWAP1 PUSH3 0xA0 DUP3 PUSH3 0xA5 JUMP JUMPDEST DUP1 PUSH3 0xB0 JUMP JUMPDEST SWAP1 POP MLOAD SWAP1 PUSH3 0xA0 DUP3 PUSH3 0xC7 JUMP JUMPDEST PUSH4 0xFFFFFFFF DUP2 AND PUSH3 0xB0 JUMP JUMPDEST SWAP1 POP MLOAD SWAP1 PUSH3 0xA0 DUP3 PUSH3 0xDD JUMP JUMPDEST PUSH1 0x80 DUP2 DUP4 SUB SLT PUSH3 0x46 JUMPI PUSH3 0x110 DUP3 DUP3 PUSH3 0xB8 JUMP JUMPDEST SWAP3 PUSH3 0xA2 PUSH3 0x124 DUP5 PUSH1 0x20 DUP6 ADD PUSH3 0xB8 JUMP JUMPDEST SWAP4 PUSH1 0x60 PUSH3 0x136 DUP3 PUSH1 0x40 DUP8 ADD PUSH3 0xCE JUMP JUMPDEST SWAP5 ADD PUSH3 0xEA JUMP JUMPDEST PUSH3 0x161 PUSH3 0x36EA DUP1 CODESIZE SUB DUP1 PUSH3 0x155 DUP2 PUSH3 0x89 JUMP JUMPDEST SWAP3 DUP4 CODECOPY DUP2 ADD SWAP1 PUSH3 0xF9 JUMP JUMPDEST SWAP1 SWAP2 SWAP3 SWAP4 JUMP JUMPDEST PUSH3 0xA2 PUSH1 0x40 PUSH3 0x89 JUMP JUMPDEST SWAP1 PUSH1 0x0 NOT SWAP1 JUMPDEST SWAP2 DUP2 NOT AND SWAP2 AND OR SWAP1 JUMP JUMPDEST PUSH3 0xA2 PUSH3 0xA2 PUSH3 0xA2 SWAP3 SWAP1 JUMP JUMPDEST SWAP1 PUSH3 0x1A7 PUSH3 0xA2 PUSH3 0x1AF SWAP3 PUSH3 0x183 JUMP JUMPDEST DUP3 SLOAD PUSH3 0x173 JUMP JUMPDEST SWAP1 SSTORE JUMP JUMPDEST SWAP1 PUSH4 0xFFFFFFFF SWAP1 PUSH3 0x179 JUMP JUMPDEST PUSH3 0x1D6 PUSH3 0xA2 PUSH3 0xA2 SWAP3 PUSH4 0xFFFFFFFF AND SWAP1 JUMP JUMPDEST PUSH4 0xFFFFFFFF AND SWAP1 JUMP JUMPDEST SWAP1 PUSH3 0x1F3 PUSH3 0xA2 PUSH3 0x1AF SWAP3 PUSH3 0x1C0 JUMP JUMPDEST DUP3 SLOAD PUSH3 0x1B3 JUMP JUMPDEST PUSH1 0x1 PUSH3 0x22A PUSH1 0x20 PUSH3 0xA0 SWAP5 PUSH3 0x21F PUSH3 0x218 PUSH1 0x0 DUP4 ADD MLOAD SWAP1 JUMP JUMPDEST DUP7 PUSH3 0x193 JUMP JUMPDEST ADD MLOAD PUSH4 0xFFFFFFFF AND SWAP1 JUMP JUMPDEST SWAP2 ADD PUSH3 0x1DF JUMP JUMPDEST SWAP1 PUSH3 0xA0 SWAP2 PUSH3 0x1FB JUMP JUMPDEST PUSH1 0x80 MSTORE PUSH1 0xA0 MSTORE PUSH3 0xA0 SWAP2 PUSH3 0x26E SWAP1 PUSH3 0x261 PUSH3 0x25C PUSH3 0x167 JUMP JUMPDEST SWAP4 DUP5 MSTORE JUMP JUMPDEST PUSH4 0xFFFFFFFF AND PUSH1 0x20 DUP4 ADD MSTORE JUMP JUMPDEST PUSH1 0x7 PUSH3 0x232 JUMP INVALID PUSH1 0x80 PUSH1 0x40 MSTORE PUSH1 0x4 CALLDATASIZE LT ISZERO PUSH2 0x12 JUMPI PUSH1 0x0 DUP1 REVERT JUMPDEST PUSH1 0x0 CALLDATALOAD PUSH1 0xE0 SHR DUP1 PUSH4 0x1FFC9A7 EQ PUSH2 0xB2 JUMPI DUP1 PUSH4 0xDFE1681 EQ PUSH2 0xAD JUMPI DUP1 PUSH4 0x1A686502 EQ PUSH2 0xA8 JUMPI DUP1 PUSH4 0x1A88BC66 EQ PUSH2 0xA3 JUMPI DUP1 PUSH4 0x428716F8 EQ PUSH2 0x9E JUMPI DUP1 PUSH4 0xBC197C81 EQ PUSH2 0x99 JUMPI DUP1 PUSH4 0xD21220A7 EQ PUSH2 0x94 JUMPI DUP1 PUSH4 0xD456B5DD EQ PUSH2 0x8F JUMPI DUP1 PUSH4 0xDD42D4C6 EQ PUSH2 0x8A JUMPI PUSH4 0xF23A6E61 SUB PUSH2 0xCA JUMPI PUSH2 0x6C9 JUMP JUMPDEST PUSH2 0x66C JUMP JUMPDEST PUSH2 0x60B JUMP JUMPDEST PUSH2 0x5A7 JUMP JUMPDEST PUSH2 0x56D JUMP JUMPDEST PUSH2 0x35A JUMP JUMPDEST PUSH2 0x22F JUMP JUMPDEST PUSH2 0x1BC JUMP JUMPDEST PUSH2 0x141 JUMP JUMPDEST PUSH2 0xF9 JUMP JUMPDEST PUSH1 0x1 PUSH1 0x1 PUSH1 0xE0 SHL SUB NOT DUP2 AND JUMPDEST SUB PUSH2 0xCA JUMPI JUMP JUMPDEST PUSH1 0x0 DUP1 REVERT JUMPDEST SWAP1 POP CALLDATALOAD SWAP1 PUSH2 0xDC DUP3 PUSH2 0xB7 JUMP JUMPDEST JUMP JUMPDEST SWAP1 PUSH1 0x20 DUP3 DUP3 SUB SLT PUSH2 0xCA JUMPI PUSH2 0xF2 SWAP2 PUSH2 0xCF JUMP JUMPDEST SWAP1 JUMP JUMPDEST SWAP1 MSTORE JUMP JUMPDEST CALLVALUE PUSH2 0xCA JUMPI PUSH2 0x126 PUSH2 0x114 PUSH2 0x10F CALLDATASIZE PUSH1 0x4 PUSH2 0xDE JUMP JUMPDEST PUSH2 0x6E8 JUMP JUMPDEST PUSH1 0x40 MLOAD SWAP2 DUP3 SWAP2 DUP3 SWAP1 ISZERO ISZERO DUP2 MSTORE PUSH1 0x20 ADD SWAP1 JUMP JUMPDEST SUB SWAP1 RETURN JUMPDEST PUSH1 0x0 SWAP2 SUB SLT PUSH2 0xCA JUMPI JUMP JUMPDEST PUSH1 0x1 PUSH1 0x1 PUSH1 0xA0 SHL SUB AND SWAP1 JUMP JUMPDEST CALLVALUE PUSH2 0xCA JUMPI PUSH2 0x151 CALLDATASIZE PUSH1 0x4 PUSH2 0x12A JUMP JUMPDEST PUSH2 0x126 PUSH32 0x0 JUMPDEST PUSH1 0x40 MLOAD SWAP2 DUP3 SWAP2 DUP3 PUSH1 0x1 PUSH1 0x1 PUSH1 0xA0 SHL SUB SWAP1 SWAP2 AND DUP2 MSTORE PUSH1 0x20 ADD SWAP1 JUMP JUMPDEST PUSH2 0xF2 SWAP2 PUSH1 0x8 MUL SHR JUMPDEST PUSH1 0x1 PUSH1 0x1 PUSH1 0x80 SHL SUB AND SWAP1 JUMP JUMPDEST SWAP1 PUSH2 0xF2 SWAP2 SLOAD PUSH2 0x190 JUMP JUMPDEST PUSH2 0xF2 PUSH1 0x0 PUSH1 0x5 PUSH2 0x1A5 JUMP JUMPDEST CALLVALUE PUSH2 0xCA JUMPI PUSH2 0x1CC CALLDATASIZE PUSH1 0x4 PUSH2 0x12A JUMP JUMPDEST PUSH2 0x126 PUSH2 0x1D7 PUSH2 0x1B0 JUMP JUMPDEST PUSH1 0x40 MLOAD SWAP2 DUP3 SWAP2 DUP3 PUSH1 0x1 PUSH1 0x1 PUSH1 0x80 SHL SUB SWAP1 SWAP2 AND DUP2 MSTORE PUSH1 0x20 ADD SWAP1 JUMP JUMPDEST PUSH2 0xF2 SWAP1 DUP2 JUMP JUMPDEST PUSH2 0xF2 SWAP1 SLOAD PUSH2 0x1F1 JUMP JUMPDEST PUSH2 0xF2 SWAP1 JUMPDEST PUSH4 0xFFFFFFFF AND SWAP1 JUMP JUMPDEST PUSH2 0xF2 SWAP1 SLOAD PUSH2 0x202 JUMP JUMPDEST PUSH2 0x224 PUSH1 0x7 PUSH2 0x1F8 JUMP JUMPDEST SWAP1 PUSH2 0xF2 PUSH1 0x8 PUSH2 0x210 JUMP JUMPDEST CALLVALUE PUSH2 0xCA JUMPI PUSH2 0x23F CALLDATASIZE PUSH1 0x4 PUSH2 0x12A JUMP JUMPDEST PUSH2 0x247 PUSH2 0x21A JUMP JUMPDEST SWAP1 PUSH2 0x126 PUSH2 0x254 PUSH1 0x40 MLOAD SWAP1 JUMP JUMPDEST SWAP3 DUP4 SWAP3 DUP4 SWAP1 DUP2 MSTORE PUSH4 0xFFFFFFFF SWAP1 SWAP2 AND PUSH1 0x20 DUP3 ADD MSTORE PUSH1 0x40 ADD SWAP1 JUMP JUMPDEST PUSH1 0x1 PUSH1 0x1 PUSH1 0xA0 SHL SUB DUP2 AND PUSH2 0xC3 JUMP JUMPDEST SWAP1 POP CALLDATALOAD SWAP1 PUSH2 0xDC DUP3 PUSH2 0x26E JUMP JUMPDEST PUSH4 0xFFFFFFFF DUP2 AND PUSH2 0xC3 JUMP JUMPDEST SWAP1 POP CALLDATALOAD SWAP1 PUSH2 0xDC DUP3 PUSH2 0x28A JUMP JUMPDEST PUSH1 0x1 PUSH1 0x1 PUSH1 0x80 SHL SUB DUP2 AND PUSH2 0xC3 JUMP JUMPDEST SWAP1 POP CALLDATALOAD SWAP1 PUSH2 0xDC DUP3 PUSH2 0x2A3 JUMP JUMPDEST SWAP1 SWAP2 DUP3 PUSH1 0x1F DUP4 ADD SLT ISZERO PUSH2 0xCA JUMPI DUP2 CALLDATALOAD SWAP2 PUSH8 0xFFFFFFFFFFFFFFFF DUP4 GT PUSH2 0xCA JUMPI PUSH1 0x20 ADD SWAP3 PUSH1 0x1 DUP4 MUL DUP5 ADD GT PUSH2 0xCA JUMPI JUMP JUMPDEST SWAP1 PUSH1 0x80 DUP3 DUP3 SUB SLT PUSH2 0xCA JUMPI PUSH2 0x304 DUP2 DUP4 PUSH2 0x27D JUMP JUMPDEST SWAP3 PUSH2 0x312 DUP3 PUSH1 0x20 DUP6 ADD PUSH2 0x296 JUMP JUMPDEST SWAP3 PUSH2 0x320 DUP4 PUSH1 0x40 DUP4 ADD PUSH2 0x2B2 JUMP JUMPDEST SWAP3 PUSH1 0x60 DUP3 ADD CALLDATALOAD PUSH8 0xFFFFFFFFFFFFFFFF DUP2 GT PUSH2 0xCA JUMPI PUSH2 0x33F SWAP3 ADD PUSH2 0x2BF JUMP JUMPDEST SWAP1 SWAP2 JUMP JUMPDEST SWAP1 DUP2 MSTORE PUSH1 0x40 DUP2 ADD SWAP3 SWAP2 PUSH2 0xDC SWAP2 PUSH1 0x20 ADD MSTORE JUMP JUMPDEST ADD MSTORE JUMP JUMPDEST CALLVALUE PUSH2 0xCA JUMPI PUSH2 0x376 PUSH2 0x36D CALLDATASIZE PUSH1 0x4 PUSH2 0x2EF JUMP JUMPDEST SWAP4 SWAP3 SWAP1 SWAP3 PUSH2 0x977 JUMP JUMPDEST SWAP1 PUSH2 0x126 PUSH2 0x383 PUSH1 0x40 MLOAD SWAP1 JUMP JUMPDEST SWAP3 DUP4 SWAP3 DUP4 PUSH2 0x343 JUMP JUMPDEST PUSH4 0x4E487B71 PUSH1 0xE0 SHL PUSH1 0x0 MSTORE PUSH1 0x41 PUSH1 0x4 MSTORE PUSH1 0x24 PUSH1 0x0 REVERT JUMPDEST SWAP1 PUSH1 0x1F ADD PUSH1 0x1F NOT AND DUP2 ADD SWAP1 DUP2 LT PUSH8 0xFFFFFFFFFFFFFFFF DUP3 GT OR PUSH2 0x3C4 JUMPI PUSH1 0x40 MSTORE JUMP JUMPDEST PUSH2 0x38C JUMP JUMPDEST SWAP1 PUSH2 0xDC PUSH2 0x3D6 PUSH1 0x40 MLOAD SWAP1 JUMP JUMPDEST SWAP3 DUP4 PUSH2 0x3A2 JUMP JUMPDEST PUSH8 0xFFFFFFFFFFFFFFFF DUP2 GT PUSH2 0x3C4 JUMPI PUSH1 0x20 DUP1 SWAP2 MUL ADD SWAP1 JUMP JUMPDEST DUP1 PUSH2 0xC3 JUMP JUMPDEST SWAP1 POP CALLDATALOAD SWAP1 PUSH2 0xDC DUP3 PUSH2 0x3F5 JUMP JUMPDEST SWAP1 SWAP3 SWAP2 SWAP3 PUSH2 0x41D PUSH2 0x418 DUP3 PUSH2 0x3DD JUMP JUMPDEST PUSH2 0x3C9 JUMP JUMPDEST SWAP4 DUP2 DUP6 MSTORE PUSH1 0x20 DUP1 DUP7 ADD SWAP3 MUL DUP4 ADD SWAP3 DUP2 DUP5 GT PUSH2 0xCA JUMPI SWAP2 JUMPDEST DUP4 DUP4 LT PUSH2 0x441 JUMPI POP POP POP POP JUMP JUMPDEST PUSH1 0x20 DUP1 SWAP2 PUSH2 0x44F DUP5 DUP7 PUSH2 0x3FB JUMP JUMPDEST DUP2 MSTORE ADD SWAP3 ADD SWAP2 PUSH2 0x434 JUMP JUMPDEST SWAP1 DUP1 PUSH1 0x1F DUP4 ADD SLT ISZERO PUSH2 0xCA JUMPI DUP2 PUSH1 0x20 PUSH2 0xF2 SWAP4 CALLDATALOAD SWAP2 ADD PUSH2 0x408 JUMP JUMPDEST PUSH8 0xFFFFFFFFFFFFFFFF DUP2 GT PUSH2 0x3C4 JUMPI PUSH1 0x20 SWAP1 PUSH1 0x1F ADD PUSH1 0x1F NOT AND ADD SWAP1 JUMP JUMPDEST ADD SWAP1 JUMP JUMPDEST SWAP1 DUP3 PUSH1 0x0 SWAP4 SWAP3 DUP3 CALLDATACOPY ADD MSTORE JUMP JUMPDEST SWAP1 SWAP3 SWAP2 SWAP3 PUSH2 0x4B2 PUSH2 0x418 DUP3 PUSH2 0x475 JUMP JUMPDEST SWAP4 DUP2 DUP6 MSTORE DUP2 DUP4 ADD GT PUSH2 0xCA JUMPI PUSH2 0xDC SWAP2 PUSH1 0x20 DUP6 ADD SWAP1 PUSH2 0x496 JUMP JUMPDEST SWAP1 DUP1 PUSH1 0x1F DUP4 ADD SLT ISZERO PUSH2 0xCA JUMPI DUP2 PUSH1 0x20 PUSH2 0xF2 SWAP4 CALLDATALOAD SWAP2 ADD PUSH2 0x4A2 JUMP JUMPDEST SWAP2 SWAP1 SWAP2 PUSH1 0xA0 DUP2 DUP5 SUB SLT PUSH2 0xCA JUMPI PUSH2 0x4FE DUP4 DUP3 PUSH2 0x27D JUMP JUMPDEST SWAP3 PUSH2 0x50C DUP2 PUSH1 0x20 DUP5 ADD PUSH2 0x27D JUMP JUMPDEST SWAP3 PUSH1 0x40 DUP4 ADD CALLDATALOAD PUSH8 0xFFFFFFFFFFFFFFFF DUP2 GT PUSH2 0xCA JUMPI DUP3 PUSH2 0x52D SWAP2 DUP6 ADD PUSH2 0x45A JUMP JUMPDEST SWAP3 PUSH1 0x60 DUP2 ADD CALLDATALOAD PUSH8 0xFFFFFFFFFFFFFFFF DUP2 GT PUSH2 0xCA JUMPI DUP4 PUSH2 0x54E SWAP2 DUP4 ADD PUSH2 0x45A JUMP JUMPDEST SWAP3 PUSH1 0x80 DUP3 ADD CALLDATALOAD PUSH8 0xFFFFFFFFFFFFFFFF DUP2 GT PUSH2 0xCA JUMPI PUSH2 0xF2 SWAP3 ADD PUSH2 0x4CC JUMP JUMPDEST CALLVALUE PUSH2 0xCA JUMPI PUSH2 0x126 PUSH2 0x58C PUSH2 0x583 CALLDATASIZE PUSH1 0x4 PUSH2 0x4E7 JUMP JUMPDEST SWAP4 SWAP3 SWAP1 SWAP3 PUSH2 0xC10 JUMP JUMPDEST PUSH1 0x40 MLOAD SWAP2 DUP3 SWAP2 DUP3 PUSH1 0x1 PUSH1 0x1 PUSH1 0xE0 SHL SUB NOT SWAP1 SWAP2 AND DUP2 MSTORE PUSH1 0x20 ADD SWAP1 JUMP JUMPDEST CALLVALUE PUSH2 0xCA JUMPI PUSH2 0x5B7 CALLDATASIZE PUSH1 0x4 PUSH2 0x12A JUMP JUMPDEST PUSH2 0x126 PUSH32 0x0 PUSH2 0x176 JUMP JUMPDEST PUSH2 0xF2 SWAP2 PUSH1 0x8 MUL SHR PUSH1 0x1 PUSH1 0x1 PUSH1 0xA0 SHL SUB AND SWAP1 JUMP JUMPDEST SWAP1 PUSH2 0xF2 SWAP2 SLOAD PUSH2 0x5E0 JUMP JUMPDEST PUSH2 0xF2 PUSH1 0x0 PUSH1 0x6 PUSH2 0x5F4 JUMP JUMPDEST CALLVALUE PUSH2 0xCA JUMPI PUSH2 0x61B CALLDATASIZE PUSH1 0x4 PUSH2 0x12A JUMP JUMPDEST PUSH2 0x126 PUSH2 0x176 PUSH2 0x5FF JUMP JUMPDEST DUP1 ISZERO ISZERO PUSH2 0xC3 JUMP JUMPDEST SWAP1 POP CALLDATALOAD SWAP1 PUSH2 0xDC DUP3 PUSH2 0x626 JUMP JUMPDEST SWAP1 PUSH1 0x80 DUP3 DUP3 SUB SLT PUSH2 0xCA JUMPI PUSH2 0x650 DUP2 DUP4 PUSH2 0x3FB JUMP JUMPDEST SWAP3 PUSH2 0x65E DUP3 PUSH1 0x20 DUP6 ADD PUSH2 0x3FB JUMP JUMPDEST SWAP3 PUSH2 0x320 DUP4 PUSH1 0x40 DUP4 ADD PUSH2 0x62E JUMP JUMPDEST CALLVALUE PUSH2 0xCA JUMPI PUSH2 0x376 PUSH2 0x67F CALLDATASIZE PUSH1 0x4 PUSH2 0x63B JUMP JUMPDEST SWAP4 SWAP3 SWAP1 SWAP3 PUSH2 0x119C JUMP JUMPDEST SWAP2 SWAP1 SWAP2 PUSH1 0xA0 DUP2 DUP5 SUB SLT PUSH2 0xCA JUMPI PUSH2 0x69F DUP4 DUP3 PUSH2 0x27D JUMP JUMPDEST SWAP3 PUSH2 0x6AD DUP2 PUSH1 0x20 DUP5 ADD PUSH2 0x27D JUMP JUMPDEST SWAP3 PUSH2 0x6BB DUP3 PUSH1 0x40 DUP6 ADD PUSH2 0x3FB JUMP JUMPDEST SWAP3 PUSH2 0x54E DUP4 PUSH1 0x60 DUP4 ADD PUSH2 0x3FB JUMP JUMPDEST CALLVALUE PUSH2 0xCA JUMPI PUSH2 0x126 PUSH2 0x58C PUSH2 0x6DF CALLDATASIZE PUSH1 0x4 PUSH2 0x688 JUMP JUMPDEST SWAP4 SWAP3 SWAP1 SWAP3 PUSH2 0x196E JUMP JUMPDEST PUSH4 0x2711897 PUSH1 0xE5 SHL PUSH1 0x1 PUSH1 0x1 PUSH1 0xE0 SHL SUB NOT DUP3 AND EQ SWAP1 DUP2 ISZERO PUSH2 0x707 JUMPI POP SWAP1 JUMP JUMPDEST PUSH2 0xF2 SWAP2 POP PUSH1 0x1 PUSH1 0x1 PUSH1 0xE0 SHL SUB NOT AND PUSH4 0x1FFC9A7 PUSH1 0xE0 SHL EQ SWAP1 JUMP JUMPDEST PUSH2 0x207 PUSH2 0xF2 PUSH2 0xF2 SWAP3 SWAP1 JUMP JUMPDEST PUSH2 0xF2 PUSH3 0x8D89E8 PUSH2 0x722 JUMP JUMPDEST PUSH2 0xF2 PUSH3 0x727618 PUSH2 0x722 JUMP JUMPDEST PUSH2 0x199 PUSH2 0xF2 PUSH2 0xF2 SWAP3 SWAP1 JUMP JUMPDEST PUSH2 0x761 PUSH2 0xF2 PUSH2 0xF2 SWAP3 SWAP1 JUMP JUMPDEST PUSH1 0xFF AND SWAP1 JUMP JUMPDEST PUSH2 0xF2 PUSH1 0x60 PUSH2 0x754 JUMP JUMPDEST PUSH2 0xF2 PUSH2 0xF2 PUSH2 0xF2 SWAP3 SWAP1 JUMP JUMPDEST PUSH2 0xF2 SWAP1 PUSH2 0x796 PUSH2 0x792 PUSH2 0xF2 SWAP5 PUSH1 0xFF AND SWAP1 JUMP JUMPDEST SWAP2 SWAP1 JUMP JUMPDEST SWAP1 SHL SWAP1 JUMP JUMPDEST PUSH2 0x135 PUSH2 0xF2 PUSH2 0xF2 SWAP3 SWAP1 JUMP JUMPDEST PUSH2 0x207 PUSH2 0xF2 PUSH2 0xF2 SWAP3 PUSH4 0xFFFFFFFF AND SWAP1 JUMP JUMPDEST SWAP1 PUSH2 0x7C5 SWAP1 PUSH2 0x7A8 JUMP JUMPDEST PUSH1 0x0 MSTORE PUSH1 0x20 MSTORE PUSH1 0x40 PUSH1 0x0 KECCAK256 SWAP1 JUMP JUMPDEST PUSH2 0xF2 SWAP1 PUSH2 0x761 JUMP JUMPDEST PUSH2 0xF2 SWAP1 SLOAD PUSH2 0x7D3 JUMP JUMPDEST PUSH4 0x4E487B71 PUSH1 0xE0 SHL PUSH1 0x0 MSTORE PUSH1 0x11 PUSH1 0x4 MSTORE PUSH1 0x24 PUSH1 0x0 REVERT JUMPDEST PUSH2 0x80B SWAP1 PUSH1 0xFF AND JUMPDEST SWAP2 PUSH1 0xFF AND SWAP1 JUMP JUMPDEST SWAP1 SUB SWAP1 PUSH1 0xFF DUP3 GT PUSH2 0x818 JUMPI JUMP JUMPDEST PUSH2 0x7E6 JUMP JUMPDEST SWAP1 PUSH1 0x1 PUSH1 0x1 PUSH1 0xA0 SHL SUB SWAP1 JUMPDEST SWAP2 DUP2 NOT AND SWAP2 AND OR SWAP1 JUMP JUMPDEST PUSH2 0xF2 SWAP1 PUSH2 0x135 SWAP1 PUSH1 0x1 PUSH1 0x1 PUSH1 0xA0 SHL SUB AND DUP3 JUMP JUMPDEST SWAP1 PUSH2 0x856 PUSH2 0xF2 PUSH2 0x85D SWAP3 PUSH2 0x832 JUMP JUMPDEST DUP3 SLOAD PUSH2 0x81D JUMP JUMPDEST SWAP1 SSTORE JUMP JUMPDEST PUSH2 0xF2 SWAP1 PUSH2 0x135 JUMP JUMPDEST PUSH2 0xF2 SWAP1 SLOAD PUSH2 0x861 JUMP JUMPDEST PUSH2 0xF2 SWAP1 PUSH2 0x199 JUMP JUMPDEST PUSH2 0xF2 SWAP1 SLOAD PUSH2 0x874 JUMP JUMPDEST PUSH2 0x8A2 SWAP1 PUSH1 0x1 PUSH1 0x1 PUSH1 0x80 SHL SUB AND JUMPDEST SWAP2 PUSH1 0x1 PUSH1 0x1 PUSH1 0x80 SHL SUB AND SWAP1 JUMP JUMPDEST ADD SWAP1 PUSH1 0x1 PUSH1 0x1 PUSH1 0x80 SHL SUB DUP3 GT PUSH2 0x818 JUMPI JUMP JUMPDEST SWAP1 PUSH1 0x1 PUSH1 0x1 PUSH1 0x80 SHL SUB SWAP1 PUSH2 0x828 JUMP JUMPDEST PUSH2 0x199 PUSH2 0xF2 PUSH2 0xF2 SWAP3 PUSH1 0x1 PUSH1 0x1 PUSH1 0x80 SHL SUB AND SWAP1 JUMP JUMPDEST SWAP1 PUSH2 0x8E9 PUSH2 0xF2 PUSH2 0x85D SWAP3 PUSH2 0x8C3 JUMP JUMPDEST DUP3 SLOAD PUSH2 0x8B4 JUMP JUMPDEST PUSH2 0xF2 SWAP1 PUSH2 0x832 JUMP JUMPDEST PUSH2 0xF2 SWAP1 PUSH2 0x8F0 JUMP JUMPDEST SWAP2 SWAP1 PUSH2 0x920 DUP2 PUSH2 0x919 DUP2 PUSH2 0x492 SWAP6 PUSH1 0x20 SWAP2 DUP2 MSTORE ADD SWAP1 JUMP JUMPDEST DUP1 SWAP6 PUSH2 0x496 JUMP JUMPDEST PUSH1 0x1F ADD PUSH1 0x1F NOT AND SWAP1 JUMP JUMPDEST SWAP1 SWAP4 SWAP2 PUSH2 0xF2 SWAP6 SWAP4 PUSH2 0x957 PUSH2 0x95E SWAP3 PUSH2 0x950 PUSH1 0x80 DUP7 ADD SWAP9 PUSH1 0x0 DUP8 ADD SWAP1 PUSH4 0xFFFFFFFF AND SWAP1 MSTORE JUMP JUMPDEST PUSH1 0x20 DUP6 ADD MSTORE JUMP JUMPDEST PUSH1 0x40 DUP4 ADD MSTORE JUMP JUMPDEST PUSH1 0x60 DUP2 DUP6 SUB SWAP2 ADD MSTORE PUSH2 0x902 JUMP JUMPDEST PUSH1 0x40 MLOAD RETURNDATASIZE PUSH1 0x0 DUP3 RETURNDATACOPY RETURNDATASIZE SWAP1 REVERT JUMPDEST SWAP4 SWAP5 SWAP3 SWAP1 PUSH1 0x0 SWAP6 DUP7 SWAP4 PUSH2 0x98B PUSH2 0x207 PUSH2 0x72F JUMP JUMPDEST PUSH4 0xFFFFFFFF DUP5 AND GT DUP1 ISZERO PUSH2 0xBD1 JUMPI JUMPDEST PUSH2 0xBBF JUMPI PUSH1 0x0 SWAP5 PUSH2 0x9AA DUP7 PUSH2 0x747 JUMP JUMPDEST PUSH1 0x1 PUSH1 0x1 PUSH1 0x80 SHL SUB DUP4 AND EQ PUSH2 0xBA9 JUMPI PUSH2 0x9C3 PUSH1 0x8 PUSH2 0x210 JUMP JUMPDEST SWAP9 PUSH2 0x9CD DUP6 PUSH2 0x1B2B JUMP JUMPDEST SWAP10 PUSH4 0xFFFFFFFF DUP2 AND PUSH4 0xFFFFFFFF DUP8 AND SUB PUSH2 0xB45 JUMPI POP POP POP PUSH2 0x9F8 DUP6 PUSH2 0x9F2 DUP6 DUP3 PUSH2 0x7BB JUMP JUMPDEST ADD PUSH2 0x7DC JUMP JUMPDEST ISZERO PUSH2 0xAF0 JUMPI PUSH2 0xA5F SWAP1 PUSH2 0xA5A DUP5 PUSH2 0xA25 PUSH2 0xA1E PUSH2 0xA15 PUSH1 0x6 PUSH2 0x86A JUMP JUMPDEST SWAP13 JUMPDEST DUP14 DUP7 PUSH2 0x229C JUMP JUMPDEST SWAP12 DUP5 PUSH2 0x22D4 JUMP JUMPDEST SWAP10 PUSH2 0xA43 PUSH2 0xA3C DUP6 PUSH2 0xA37 PUSH1 0x5 PUSH2 0x87D JUMP JUMPDEST PUSH2 0x887 JUMP JUMPDEST PUSH1 0x5 PUSH2 0x8D9 JUMP JUMPDEST PUSH2 0xA4E DUP5 DUP4 DUP12 PUSH2 0x2360 JUMP JUMPDEST PUSH2 0xAE0 JUMPI JUMPDEST PUSH1 0x1 PUSH2 0x25A2 JUMP JUMPDEST PUSH2 0x25EC JUMP JUMPDEST PUSH2 0xA70 PUSH2 0xA6B CALLER PUSH2 0x8F9 JUMP JUMPDEST PUSH2 0x8F9 JUMP JUMPDEST DUP1 EXTCODESIZE ISZERO PUSH2 0xCA JUMPI DUP8 DUP6 DUP1 SWAP5 PUSH2 0xAA3 DUP11 SWAP6 PUSH2 0xA89 PUSH1 0x40 MLOAD SWAP1 JUMP JUMPDEST SWAP9 DUP10 SWAP8 DUP9 SWAP7 DUP8 SWAP6 PUSH4 0x63439A55 PUSH1 0xE0 SHL DUP8 MSTORE PUSH1 0x4 DUP8 ADD PUSH2 0x92A JUMP JUMPDEST SUB SWAP3 GAS CALL DUP1 ISZERO PUSH2 0xADB JUMPI PUSH2 0xAB5 JUMPI POP POP JUMP JUMPDEST DUP2 PUSH2 0xDC SWAP3 SWAP1 RETURNDATASIZE LT PUSH2 0xAD4 JUMPI JUMPDEST PUSH2 0xACC DUP2 DUP4 PUSH2 0x3A2 JUMP JUMPDEST DUP2 ADD SWAP1 PUSH2 0x12A JUMP JUMPDEST POP RETURNDATASIZE PUSH2 0xAC2 JUMP JUMPDEST PUSH2 0x96B JUMP JUMPDEST PUSH2 0xAEB DUP3 PUSH1 0x2 PUSH2 0x249C JUMP JUMPDEST PUSH2 0xA53 JUMP JUMPDEST PUSH2 0xA5F SWAP1 PUSH2 0xA5A DUP5 PUSH2 0xA25 PUSH2 0xA1E PUSH2 0xB40 SWAP13 PUSH2 0xB37 PUSH2 0xB32 PUSH2 0xB23 PUSH2 0xB13 PUSH2 0x767 JUMP JUMPDEST PUSH2 0xB1D PUSH1 0x1 PUSH2 0x754 JUMP JUMPDEST SWAP1 PUSH2 0x7FC JUMP JUMPDEST PUSH2 0xB2D PUSH1 0x1 PUSH2 0x771 JUMP JUMPDEST PUSH2 0x77E JUMP JUMPDEST PUSH2 0x79B JUMP JUMPDEST SWAP14 DUP15 PUSH1 0x6 PUSH2 0x846 JUMP JUMPDEST PUSH2 0xA17 JUMP JUMPDEST SWAP9 SWAP10 SWAP2 SWAP9 PUSH4 0xFFFFFFFF AND PUSH4 0xFFFFFFFF DUP7 AND GT ISZERO PUSH2 0xB7F JUMPI POP SWAP1 PUSH2 0xA5A DUP5 PUSH2 0xB79 PUSH2 0xA5F SWAP5 PUSH2 0xB72 DUP11 PUSH2 0x79B JUMP JUMPDEST POP DUP5 PUSH2 0x2226 JUMP JUMPDEST SWAP11 PUSH2 0xA43 JUMP JUMPDEST SWAP9 SWAP8 POP POP PUSH2 0xA5F SWAP1 PUSH2 0xB95 PUSH2 0xB32 PUSH2 0xB23 PUSH2 0x767 JUMP JUMPDEST POP PUSH2 0xA5A DUP5 PUSH2 0xBA3 DUP4 PUSH2 0x2203 JUMP JUMPDEST SWAP10 PUSH2 0xA43 JUMP JUMPDEST PUSH1 0x40 MLOAD PUSH4 0x200E8A9 PUSH1 0xE3 SHL DUP2 MSTORE PUSH1 0x4 SWAP1 REVERT JUMPDEST SUB SWAP1 REVERT JUMPDEST PUSH1 0x40 MLOAD PUSH4 0x3944550F PUSH1 0xE2 SHL DUP2 MSTORE PUSH1 0x4 SWAP1 REVERT JUMPDEST POP PUSH2 0xBDD PUSH2 0x207 PUSH2 0x73B JUMP JUMPDEST PUSH4 0xFFFFFFFF DUP5 AND LT PUSH2 0x99A JUMP JUMPDEST PUSH2 0xC03 PUSH2 0xBFD PUSH2 0xF2 SWAP3 PUSH4 0xFFFFFFFF AND SWAP1 JUMP JUMPDEST PUSH1 0xE0 SHL SWAP1 JUMP JUMPDEST PUSH1 0x1 PUSH1 0x1 PUSH1 0xE0 SHL SUB NOT AND SWAP1 JUMP JUMPDEST POP POP POP POP POP PUSH2 0xC1D PUSH1 0x0 SWAP1 JUMP JUMPDEST POP PUSH2 0xF2 PUSH4 0xBC197C81 PUSH2 0xBEA JUMP JUMPDEST DUP2 DUP2 MUL SWAP3 SWAP2 DUP2 ISZERO SWAP2 DUP5 DIV EQ OR ISZERO PUSH2 0x818 JUMPI JUMP JUMPDEST SWAP2 PUSH1 0x0 NOT PUSH1 0x8 SWAP3 SWAP1 SWAP3 MUL SWAP2 DUP3 SHL SWAP2 SHL PUSH2 0x828 JUMP JUMPDEST SWAP2 SWAP1 PUSH2 0xC63 PUSH2 0xF2 PUSH2 0x85D SWAP4 PUSH2 0x771 JUMP JUMPDEST SWAP1 DUP4 SLOAD PUSH2 0xC3E JUMP JUMPDEST PUSH2 0xDC SWAP2 PUSH1 0x0 SWAP2 PUSH2 0xC52 JUMP JUMPDEST DUP2 DUP2 LT PUSH2 0xC82 JUMPI POP POP JUMP JUMPDEST DUP1 PUSH2 0xC90 PUSH1 0x0 PUSH1 0x1 SWAP4 PUSH2 0xC6B JUMP JUMPDEST ADD PUSH2 0xC77 JUMP JUMPDEST SWAP2 SWAP1 SWAP2 DUP3 DUP3 LT PUSH2 0xCA5 JUMPI POP POP POP JUMP JUMPDEST PUSH2 0xDC SWAP3 SWAP2 PUSH2 0xCBA SWAP1 SWAP2 PUSH1 0x0 MSTORE PUSH1 0x20 PUSH1 0x0 KECCAK256 SWAP1 JUMP JUMPDEST SWAP2 DUP3 ADD SWAP2 ADD PUSH2 0xC77 JUMP JUMPDEST SWAP1 PUSH1 0x1 PUSH1 0x40 SHL DUP2 GT PUSH2 0x3C4 JUMPI DUP2 PUSH2 0xCDC PUSH2 0xDC SWAP4 SLOAD SWAP1 JUMP JUMPDEST SWAP1 DUP3 DUP2 SSTORE PUSH2 0xC96 JUMP JUMPDEST PUSH1 0x0 PUSH2 0xDC SWAP2 PUSH2 0xCC4 JUMP JUMPDEST PUSH4 0x4E487B71 PUSH1 0xE0 SHL PUSH1 0x0 MSTORE PUSH1 0x0 PUSH1 0x4 MSTORE PUSH1 0x24 PUSH1 0x0 REVERT JUMPDEST SWAP1 PUSH1 0x0 SUB PUSH2 0xD17 JUMPI PUSH2 0xDC SWAP1 PUSH2 0xCE5 JUMP JUMPDEST PUSH2 0xCF0 JUMP JUMPDEST PUSH2 0xF2 PUSH1 0x40 PUSH2 0x3C9 JUMP JUMPDEST SWAP1 PUSH2 0xDC PUSH2 0xD4E PUSH1 0x1 PUSH2 0xD37 PUSH2 0xD1C JUMP JUMPDEST SWAP5 PUSH2 0xD48 PUSH2 0xD44 DUP3 PUSH2 0x1F8 JUMP JUMPDEST DUP8 MSTORE JUMP JUMPDEST ADD PUSH2 0x210 JUMP JUMPDEST PUSH4 0xFFFFFFFF AND PUSH1 0x20 DUP5 ADD MSTORE JUMP JUMPDEST PUSH2 0xF2 SWAP1 PUSH2 0xD26 JUMP JUMPDEST PUSH2 0xF2 PUSH5 0x1000276A3 PUSH2 0x771 JUMP JUMPDEST PUSH2 0xF2 PUSH20 0xFFFD8963EFD1FC6A506488495D951D5263988D26 PUSH2 0x771 JUMP JUMPDEST PUSH2 0xF2 PUSH1 0xA0 PUSH2 0x3C9 JUMP JUMPDEST SWAP1 PUSH2 0xDA6 PUSH2 0x418 DUP4 PUSH2 0x475 JUMP JUMPDEST SWAP2 DUP3 MSTORE JUMP JUMPDEST PUSH2 0xDB5 PUSH1 0x5 PUSH2 0xD99 JUMP JUMPDEST PUSH5 0x62696E203D PUSH1 0xD8 SHL PUSH1 0x20 DUP3 ADD MSTORE SWAP1 JUMP JUMPDEST PUSH2 0xF2 PUSH2 0xDAB JUMP JUMPDEST PUSH2 0xF2 PUSH2 0xF2 PUSH2 0xF2 SWAP3 PUSH4 0xFFFFFFFF AND SWAP1 JUMP JUMPDEST PUSH2 0xF2 PUSH1 0xC0 PUSH2 0x3C9 JUMP JUMPDEST PUSH2 0xDF3 PUSH2 0xDE1 JUMP JUMPDEST SWAP1 PUSH1 0x0 DUP3 MSTORE PUSH1 0x20 DUP1 DUP1 DUP1 DUP1 DUP1 DUP8 ADD PUSH1 0x0 DUP2 MSTORE ADD PUSH1 0x0 DUP2 MSTORE ADD PUSH1 0x0 DUP2 MSTORE ADD PUSH1 0x0 DUP2 MSTORE ADD PUSH1 0x0 SWAP1 MSTORE POP JUMP JUMPDEST PUSH2 0xF2 PUSH2 0xDEB JUMP JUMPDEST SWAP2 SWAP1 DUP3 SUB SWAP2 DUP3 GT PUSH2 0x818 JUMPI JUMP JUMPDEST SWAP2 SWAP1 DUP3 ADD DUP1 SWAP3 GT PUSH2 0x818 JUMPI JUMP JUMPDEST PUSH4 0x4E487B71 PUSH1 0xE0 SHL PUSH1 0x0 MSTORE PUSH1 0x32 PUSH1 0x4 MSTORE PUSH1 0x24 PUSH1 0x0 REVERT JUMPDEST DUP1 SLOAD DUP3 LT ISZERO PUSH2 0xE77 JUMPI PUSH2 0xE6E PUSH1 0x1 SWAP2 PUSH1 0x0 MSTORE PUSH1 0x20 PUSH1 0x0 KECCAK256 SWAP1 JUMP JUMPDEST SWAP2 MUL ADD SWAP1 PUSH1 0x0 SWAP1 JUMP JUMPDEST PUSH2 0xE3E JUMP JUMPDEST SWAP1 DUP2 SLOAD SWAP2 PUSH1 0x1 PUSH1 0x40 SHL DUP4 LT ISZERO PUSH2 0x3C4 JUMPI DUP3 PUSH2 0xE9F SWAP2 PUSH1 0x1 PUSH2 0xDC SWAP6 ADD DUP2 SSTORE PUSH2 0xE54 JUMP JUMPDEST SWAP1 PUSH2 0xC52 JUMP JUMPDEST PUSH2 0xEAF PUSH1 0x18 PUSH2 0xD99 JUMP JUMPDEST PUSH32 0x446F6E6520506172746C793A206E6F206D6F72652062696E0000000000000000 PUSH1 0x20 DUP3 ADD MSTORE SWAP1 JUMP JUMPDEST PUSH2 0xF2 PUSH2 0xEA5 JUMP JUMPDEST PUSH2 0xEEA PUSH1 0x1E PUSH2 0xD99 JUMP JUMPDEST PUSH32 0x446F6E6520506172746C793A206F7574206F66206C696D697470726963650000 PUSH1 0x20 DUP3 ADD MSTORE SWAP1 JUMP JUMPDEST PUSH2 0xF2 PUSH2 0xEE0 JUMP JUMPDEST PUSH2 0xF25 PUSH1 0x1D PUSH2 0xD99 JUMP JUMPDEST PUSH32 0x446F6E653A2066756C6C206F6620657870656374656420616D6F756E74000000 PUSH1 0x20 DUP3 ADD MSTORE SWAP1 JUMP JUMPDEST PUSH2 0xF2 PUSH2 0xF1B JUMP JUMPDEST PUSH2 0xF2 SWAP1 PUSH1 0x8 SHR PUSH2 0x199 JUMP JUMPDEST PUSH2 0xF2 SWAP1 SLOAD PUSH2 0xF56 JUMP JUMPDEST SWAP1 PUSH2 0xDA6 PUSH2 0x418 DUP4 PUSH2 0x3DD JUMP JUMPDEST CALLDATASIZE SWAP1 CALLDATACOPY JUMP JUMPDEST SWAP1 PUSH2 0xDC PUSH2 0xF94 PUSH2 0xF8E DUP5 PUSH2 0xF6C JUMP JUMPDEST SWAP4 PUSH2 0x3DD JUMP JUMPDEST PUSH1 0x1F NOT ADD PUSH1 0x20 DUP5 ADD PUSH2 0xF79 JUMP JUMPDEST PUSH2 0xF2 SWAP2 PUSH1 0x8 MUL SHR DUP2 JUMP JUMPDEST SWAP1 PUSH2 0xF2 SWAP2 SLOAD PUSH2 0xFA1 JUMP JUMPDEST PUSH2 0xFC1 PUSH1 0x53 PUSH2 0xD99 JUMP JUMPDEST PUSH32 0x20202020202020202020205B44454255475D3A2074656D704964735B695D207C PUSH1 0x20 DUP3 ADD MSTORE PUSH32 0x2074656D70416D6F756E74734F66546F6B656E305B695D207C2074656D70416D PUSH1 0x40 DUP3 ADD MSTORE PUSH19 0x37BAB73A39A7B32A37B5B2B718ADB4AE901E9 PUSH1 0x6D SHL PUSH1 0x60 DUP3 ADD MSTORE SWAP1 JUMP JUMPDEST PUSH2 0xF2 PUSH2 0xFB7 JUMP JUMPDEST SWAP1 PUSH2 0x103D DUP3 MLOAD SWAP1 JUMP JUMPDEST DUP2 LT ISZERO PUSH2 0xE77 JUMPI PUSH1 0x20 DUP1 SWAP2 MUL ADD ADD SWAP1 JUMP JUMPDEST SWAP2 SWAP1 PUSH1 0x60 DUP4 DUP3 SUB SLT PUSH2 0xCA JUMPI PUSH2 0x957 SWAP1 PUSH1 0x40 PUSH2 0x106A PUSH1 0x60 PUSH2 0x3C9 JUMP JUMPDEST SWAP5 PUSH2 0x1075 DUP4 DUP3 PUSH2 0x27D JUMP JUMPDEST DUP7 MSTORE PUSH2 0x1084 DUP4 PUSH1 0x20 DUP4 ADD PUSH2 0x27D JUMP JUMPDEST PUSH1 0x20 DUP8 ADD MSTORE ADD PUSH2 0x27D JUMP JUMPDEST SWAP1 PUSH1 0x60 DUP3 DUP3 SUB SLT PUSH2 0xCA JUMPI PUSH2 0xF2 SWAP2 PUSH2 0x104E JUMP JUMPDEST SWAP1 PUSH2 0x10C3 PUSH2 0x10BC PUSH2 0x10B2 DUP5 MLOAD SWAP1 JUMP JUMPDEST DUP1 DUP5 MSTORE SWAP3 PUSH1 0x20 ADD SWAP1 JUMP JUMPDEST SWAP3 PUSH1 0x20 ADD SWAP1 JUMP JUMPDEST SWAP1 PUSH1 0x0 JUMPDEST DUP2 DUP2 LT PUSH2 0x10D4 JUMPI POP POP POP SWAP1 JUMP JUMPDEST SWAP1 SWAP2 SWAP3 PUSH2 0x10F1 PUSH2 0x10EA PUSH1 0x1 SWAP3 DUP7 MLOAD DUP2 MSTORE PUSH1 0x20 ADD SWAP1 JUMP JUMPDEST SWAP5 PUSH1 0x20 ADD SWAP1 JUMP JUMPDEST SWAP3 SWAP2 ADD PUSH2 0x10C7 JUMP JUMPDEST SWAP7 SWAP6 SWAP4 SWAP1 SWAP5 PUSH2 0x1141 PUSH1 0x80 SWAP5 PUSH2 0x1133 PUSH2 0x114F SWAP6 PUSH2 0x1125 DUP13 PUSH2 0xDC SWAP12 PUSH1 0xA0 DUP3 ADD SWAP2 PUSH1 0x0 DUP2 DUP5 SUB SWAP2 ADD MSTORE PUSH2 0x10A3 JUMP JUMPDEST DUP13 DUP2 SUB PUSH1 0x20 DUP15 ADD MSTORE SWAP1 PUSH2 0x10A3 JUMP JUMPDEST SWAP1 DUP11 DUP3 SUB PUSH1 0x40 DUP13 ADD MSTORE PUSH2 0x10A3 JUMP JUMPDEST SWAP2 DUP9 DUP4 SUB PUSH1 0x60 DUP11 ADD MSTORE PUSH2 0x902 JUMP JUMPDEST SWAP5 ADD SWAP1 ISZERO ISZERO SWAP1 MSTORE JUMP JUMPDEST SWAP1 PUSH4 0xFFFFFFFF SWAP1 PUSH2 0x828 JUMP JUMPDEST SWAP1 PUSH2 0x1174 PUSH2 0xF2 PUSH2 0x85D SWAP3 PUSH2 0x7A8 JUMP JUMPDEST DUP3 SLOAD PUSH2 0x1158 JUMP JUMPDEST SWAP1 PUSH1 0x0 NOT SWAP1 PUSH2 0x828 JUMP JUMPDEST SWAP1 PUSH2 0x1195 PUSH2 0xF2 PUSH2 0x85D SWAP3 PUSH2 0x771 JUMP JUMPDEST DUP3 SLOAD PUSH2 0x117B JUMP JUMPDEST SWAP3 SWAP5 SWAP4 SWAP3 SWAP1 PUSH1 0x0 SWAP4 PUSH2 0x11B0 PUSH1 0x0 PUSH1 0x9 PUSH2 0xD06 JUMP JUMPDEST PUSH2 0x11BC PUSH1 0x0 PUSH1 0xA PUSH2 0xD06 JUMP JUMPDEST PUSH2 0x11C8 PUSH1 0x0 PUSH1 0xB PUSH2 0xD06 JUMP JUMPDEST PUSH2 0x11D2 PUSH1 0x7 PUSH2 0xD5B JUMP JUMPDEST SWAP4 PUSH2 0x11DD PUSH1 0x5 PUSH2 0x87D JUMP JUMPDEST SWAP8 PUSH1 0x0 DUP3 ISZERO PUSH2 0x1945 JUMPI POP PUSH2 0x11F2 PUSH2 0xF2 DUP8 MLOAD SWAP1 JUMP JUMPDEST DUP5 GT DUP1 PUSH2 0x192C JUMPI JUMPDEST ISZERO JUMPDEST PUSH2 0x191A JUMPI PUSH2 0x125D PUSH2 0x1246 SWAP10 PUSH2 0x124D PUSH2 0x122B PUSH1 0x0 PUSH2 0x1225 PUSH1 0x20 DUP13 SWAP12 SWAP9 SWAP15 SWAP14 SWAP13 ADD MLOAD PUSH4 0xFFFFFFFF AND SWAP1 JUMP JUMPDEST SWAP10 ADD MLOAD SWAP1 JUMP JUMPDEST PUSH1 0x0 SWAP13 DUP14 SWAP10 PUSH2 0x1238 PUSH2 0xD8F JUMP JUMPDEST SWAP11 DUP12 ADD SWAP1 PUSH4 0xFFFFFFFF AND SWAP1 MSTORE JUMP JUMPDEST PUSH1 0x20 DUP10 ADD MSTORE JUMP JUMPDEST PUSH1 0x1 PUSH1 0x1 PUSH1 0x80 SHL SUB AND PUSH1 0x40 DUP8 ADD MSTORE JUMP JUMPDEST PUSH2 0x1266 DUP10 PUSH2 0x771 JUMP JUMPDEST SWAP2 PUSH2 0x1272 DUP4 PUSH1 0x60 DUP9 ADD MSTORE JUMP JUMPDEST PUSH2 0x127D DUP4 PUSH1 0x80 DUP9 ADD MSTORE JUMP JUMPDEST DUP3 DUP2 GT DUP1 PUSH2 0x18F9 JUMPI JUMPDEST ISZERO PUSH2 0x18EC JUMPI SWAP8 DUP6 SWAP7 SWAP8 SWAP9 PUSH2 0x12BA PUSH2 0x12A3 DUP13 DUP10 ADD MLOAD PUSH4 0xFFFFFFFF AND SWAP1 JUMP JUMPDEST PUSH2 0x12B4 PUSH2 0x12AE PUSH2 0xDC6 JUMP JUMPDEST SWAP2 PUSH2 0xDCE JUMP JUMPDEST SWAP1 PUSH2 0x2672 JUMP JUMPDEST PUSH2 0x12C2 PUSH2 0xE1C JUMP JUMPDEST PUSH1 0x20 DUP9 ADD PUSH2 0x12D8 DUP14 PUSH2 0x12D2 DUP4 MLOAD SWAP1 JUMP JUMPDEST SWAP1 DUP5 ADD MSTORE JUMP JUMPDEST DUP13 PUSH2 0x12E9 DUP2 DUP12 ADD MLOAD PUSH4 0xFFFFFFFF AND SWAP1 JUMP JUMPDEST DUP1 SWAP2 PUSH2 0x12F3 DUP5 MLOAD SWAP1 JUMP JUMPDEST SWAP2 DUP8 ISZERO PUSH2 0x189E JUMPI POP PUSH2 0x1306 DUP4 PUSH1 0x2 PUSH2 0x2A05 JUMP JUMPDEST PUSH4 0xFFFFFFFF DUP1 DUP3 AND SUB PUSH2 0x1876 JUMPI JUMPDEST POP PUSH2 0x207 PUSH2 0x1329 SWAP2 JUMPDEST DUP14 ADD MLOAD PUSH4 0xFFFFFFFF AND SWAP1 JUMP JUMPDEST PUSH4 0xFFFFFFFF DUP4 AND EQ PUSH2 0x1858 JUMPI PUSH2 0x134B PUSH2 0x1352 SWAP3 PUSH1 0x20 DUP7 ADD SWAP1 PUSH4 0xFFFFFFFF AND SWAP1 MSTORE JUMP JUMPDEST PUSH1 0x40 DUP5 ADD MSTORE JUMP JUMPDEST DUP13 PUSH2 0x135D DUP4 DUP3 ADD MLOAD SWAP1 JUMP JUMPDEST DUP13 PUSH1 0x40 DUP13 ADD SWAP6 PUSH2 0x1374 DUP8 MLOAD PUSH1 0x1 PUSH1 0x1 PUSH1 0x80 SHL SUB AND SWAP1 JUMP JUMPDEST SWAP3 DUP2 DUP10 PUSH2 0x1381 PUSH1 0x6 PUSH2 0x86A JUMP JUMPDEST SWAP6 PUSH1 0x40 DUP11 ADD SWAP7 PUSH2 0x138F DUP9 MLOAD SWAP1 JUMP JUMPDEST SWAP2 PUSH2 0x1399 SWAP6 PUSH2 0x2C30 JUMP JUMPDEST SWAP2 PUSH1 0x80 DUP11 SWAP5 SWAP11 SWAP6 SWAP3 SWAP6 ADD SWAP5 PUSH1 0xA0 DUP6 ADD SWAP4 PUSH2 0x13B1 SWAP1 DUP6 MSTORE JUMP JUMPDEST DUP6 MSTORE PUSH2 0x13BE SWAP1 PUSH1 0x6 PUSH2 0x846 JUMP JUMPDEST DUP2 MLOAD PUSH2 0x13C9 SWAP2 PUSH2 0xE24 JUMP JUMPDEST SWAP4 DUP5 SWAP16 PUSH2 0x13D4 DUP4 MLOAD SWAP1 JUMP JUMPDEST PUSH1 0x60 DUP3 ADD SWAP1 PUSH2 0x13E1 DUP3 MLOAD SWAP1 JUMP JUMPDEST SWAP1 PUSH2 0x13EB SWAP2 PUSH2 0xE31 JUMP JUMPDEST PUSH2 0x13F2 SWAP2 MSTORE JUMP JUMPDEST DUP5 MLOAD PUSH1 0x80 DUP3 ADD SWAP1 PUSH2 0x1401 DUP3 MLOAD SWAP1 JUMP JUMPDEST SWAP1 PUSH2 0x140B SWAP2 PUSH2 0xE31 JUMP JUMPDEST PUSH2 0x1412 SWAP2 MSTORE JUMP JUMPDEST DUP8 ADD MLOAD PUSH1 0x9 SWAP1 PUSH4 0xFFFFFFFF AND PUSH2 0x1427 SWAP1 PUSH2 0xDCE JUMP JUMPDEST PUSH2 0x1430 SWAP2 PUSH2 0xE7C JUMP JUMPDEST POP PUSH1 0x20 SWAP3 PUSH2 0x1461 SWAP2 DUP12 ISZERO PUSH2 0x1843 JUMPI PUSH2 0x1451 PUSH2 0x144C PUSH2 0x145A SWAP3 MLOAD SWAP1 JUMP JUMPDEST SWAP3 MLOAD SWAP1 JUMP JUMPDEST SWAP2 JUMPDEST PUSH1 0xA PUSH2 0xE7C JUMP JUMPDEST PUSH1 0xB PUSH2 0xE7C JUMP JUMPDEST ADD SWAP2 PUSH2 0x1471 DUP4 MLOAD PUSH4 0xFFFFFFFF AND SWAP1 JUMP JUMPDEST PUSH2 0x1484 PUSH4 0xFFFFFFFF JUMPDEST SWAP2 PUSH4 0xFFFFFFFF AND SWAP1 JUMP JUMPDEST EQ PUSH2 0x1828 JUMPI DUP8 ISZERO PUSH2 0x1820 JUMPI MLOAD DUP12 LT JUMPDEST PUSH2 0x1801 JUMPI DUP9 EQ PUSH2 0x1500 JUMPI SWAP2 PUSH2 0x14C4 DUP13 PUSH2 0x14F7 SWAP7 SWAP6 SWAP4 PUSH2 0x14B9 PUSH2 0x14C7 SWAP7 MLOAD PUSH4 0xFFFFFFFF AND SWAP1 JUMP JUMPDEST PUSH4 0xFFFFFFFF AND SWAP2 ADD MSTORE JUMP JUMPDEST MSTORE JUMP JUMPDEST PUSH2 0x14EA DUP13 PUSH2 0x14E4 PUSH2 0x14DE DUP3 DUP14 ADD MLOAD PUSH4 0xFFFFFFFF AND SWAP1 JUMP JUMPDEST DUP3 PUSH2 0x7BB JUMP JUMPDEST ADD PUSH2 0xF62 JUMP JUMPDEST PUSH1 0x1 PUSH1 0x1 PUSH1 0x80 SHL SUB AND SWAP1 MSTORE JUMP JUMPDEST SWAP8 SWAP7 SWAP6 SWAP5 PUSH2 0x127D JUMP JUMPDEST POP POP POP POP POP SWAP5 POP SWAP5 SWAP2 SWAP7 SWAP3 POP SWAP5 POP PUSH2 0x151E PUSH2 0x1519 PUSH2 0xF4E JUMP JUMPDEST PUSH2 0x2D2F JUMP JUMPDEST PUSH1 0x9 SWAP3 PUSH2 0x1531 PUSH2 0x152C DUP6 SLOAD SWAP1 JUMP JUMPDEST PUSH2 0xF7E JUMP JUMPDEST SWAP5 PUSH2 0x153D PUSH2 0x152C DUP7 SLOAD SWAP1 JUMP JUMPDEST SWAP9 PUSH2 0x1549 PUSH2 0x152C DUP8 SLOAD SWAP1 JUMP JUMPDEST SWAP8 JUMPDEST PUSH2 0x1556 PUSH2 0xF2 DUP9 SLOAD SWAP1 JUMP JUMPDEST DUP2 LT ISZERO PUSH2 0x1618 JUMPI DUP8 DUP2 DUP1 DUP14 DUP11 DUP3 DUP1 PUSH2 0x156E DUP2 DUP5 PUSH2 0xE54 JUMP JUMPDEST PUSH2 0x1577 SWAP2 PUSH2 0xFAC JUMP JUMPDEST SWAP7 PUSH1 0xA SWAP4 DUP3 PUSH2 0x1586 DUP2 DUP8 PUSH2 0xE54 JUMP JUMPDEST PUSH2 0x158F SWAP2 PUSH2 0xFAC JUMP JUMPDEST SWAP10 PUSH1 0xB SWAP11 PUSH2 0x159D DUP4 DUP14 PUSH2 0xE54 JUMP JUMPDEST PUSH2 0x15A6 SWAP2 PUSH2 0xFAC JUMP JUMPDEST SWAP1 PUSH2 0x15AF PUSH2 0x102C JUMP JUMPDEST SWAP3 PUSH2 0x15B9 SWAP4 PUSH2 0x2D89 JUMP JUMPDEST PUSH2 0x15C2 SWAP2 PUSH2 0xE54 JUMP JUMPDEST PUSH2 0x15CB SWAP2 PUSH2 0xFAC JUMP JUMPDEST SWAP2 PUSH2 0x15D5 SWAP2 PUSH2 0x1034 JUMP JUMPDEST MSTORE PUSH2 0x15DF SWAP2 PUSH2 0xE54 JUMP JUMPDEST PUSH2 0x15E8 SWAP2 PUSH2 0xFAC JUMP JUMPDEST SWAP2 PUSH2 0x15F2 SWAP2 PUSH2 0x1034 JUMP JUMPDEST MSTORE PUSH2 0x15FC SWAP2 PUSH2 0xE54 JUMP JUMPDEST PUSH2 0x1605 SWAP2 PUSH2 0xFAC JUMP JUMPDEST PUSH2 0x160F DUP3 DUP12 PUSH2 0x1034 JUMP JUMPDEST MSTORE PUSH1 0x1 ADD PUSH2 0x154B JUMP JUMPDEST POP SWAP5 POP SWAP5 SWAP3 SWAP8 SWAP7 SWAP1 SWAP6 SWAP2 SWAP7 PUSH2 0x162F DUP3 DUP8 ADD DUP8 PUSH2 0x108F JUMP JUMPDEST PUSH2 0x1648 PUSH2 0xA6B PUSH2 0xA6B DUP9 DUP5 ADD MLOAD PUSH1 0x1 PUSH1 0x1 PUSH1 0xA0 SHL SUB AND SWAP1 JUMP JUMPDEST PUSH4 0xA22CB465 SWAP2 DUP2 EXTCODESIZE ISZERO PUSH2 0xCA JUMPI DUP8 PUSH2 0x165F PUSH1 0x40 MLOAD SWAP1 JUMP JUMPDEST DUP1 SWAP4 PUSH2 0x166B DUP7 PUSH1 0xE0 SHL SWAP1 JUMP JUMPDEST DUP3 MSTORE CALLER PUSH1 0x4 DUP4 ADD MSTORE PUSH1 0x1 PUSH1 0x24 DUP4 ADD MSTORE PUSH1 0x44 SWAP1 DUP3 SWAP1 DUP5 SWAP1 GAS CALL SWAP2 DUP3 ISZERO PUSH2 0xADB JUMPI PUSH1 0x20 PUSH2 0xA6B SWAP3 PUSH2 0xA6B SWAP3 PUSH2 0x16AC SWAP6 PUSH2 0x17E5 JUMPI JUMPDEST POP ADD MLOAD PUSH1 0x1 PUSH1 0x1 PUSH1 0xA0 SHL SUB AND SWAP1 JUMP JUMPDEST DUP1 EXTCODESIZE ISZERO PUSH2 0xCA JUMPI PUSH2 0x16CB SWAP2 DUP8 SWAP2 PUSH2 0x16C2 PUSH1 0x40 MLOAD SWAP1 JUMP JUMPDEST SWAP4 DUP5 SWAP3 PUSH1 0xE0 SHL SWAP1 JUMP JUMPDEST DUP3 MSTORE CALLER PUSH1 0x4 DUP4 ADD MSTORE PUSH1 0x1 PUSH1 0x24 DUP4 ADD MSTORE PUSH1 0x44 SWAP1 DUP3 SWAP1 DUP5 SWAP1 GAS CALL DUP1 ISZERO PUSH2 0xADB JUMPI PUSH2 0x17C9 JUMPI JUMPDEST POP PUSH2 0x16FB PUSH2 0xA6B CALLER PUSH2 0x8F9 JUMP JUMPDEST SWAP2 DUP3 EXTCODESIZE ISZERO PUSH2 0xCA JUMPI DUP6 SWAP5 PUSH2 0x172E DUP10 DUP8 SWAP4 PUSH2 0x1714 PUSH1 0x40 MLOAD SWAP1 JUMP JUMPDEST SWAP11 DUP12 SWAP9 DUP10 SWAP8 DUP9 SWAP7 PUSH4 0x859E32A7 PUSH1 0xE0 SHL DUP9 MSTORE PUSH1 0x4 DUP9 ADD PUSH2 0x10F9 JUMP JUMPDEST SUB SWAP3 GAS CALL SWAP2 DUP3 ISZERO PUSH2 0xADB JUMPI PUSH2 0x1782 SWAP3 PUSH2 0x17AD JUMPI JUMPDEST POP PUSH2 0x175A PUSH2 0xA3C PUSH1 0x40 DUP7 ADD MLOAD PUSH1 0x1 PUSH1 0x1 PUSH1 0x80 SHL SUB AND SWAP1 JUMP JUMPDEST PUSH2 0x1774 PUSH2 0x176D DUP3 DUP7 ADD MLOAD PUSH4 0xFFFFFFFF AND SWAP1 JUMP JUMPDEST PUSH1 0x8 PUSH2 0x1164 JUMP JUMPDEST PUSH1 0x20 DUP5 ADD MLOAD SWAP1 PUSH1 0x7 ADD PUSH2 0x1185 JUMP JUMPDEST ISZERO PUSH2 0x179D JUMPI PUSH2 0x33F PUSH1 0x80 PUSH2 0x1797 PUSH1 0x60 DUP5 ADD MLOAD SWAP1 JUMP JUMPDEST SWAP3 ADD MLOAD SWAP1 JUMP JUMPDEST PUSH2 0x33F PUSH1 0x60 PUSH2 0x1797 PUSH1 0x80 DUP5 ADD MLOAD SWAP1 JUMP JUMPDEST PUSH2 0x17C3 SWAP1 DUP3 RETURNDATASIZE DUP5 GT PUSH2 0xAD4 JUMPI PUSH2 0xACC DUP2 DUP4 PUSH2 0x3A2 JUMP JUMPDEST CODESIZE PUSH2 0x1742 JUMP JUMPDEST PUSH2 0x17DF SWAP1 DUP7 RETURNDATASIZE DUP9 GT PUSH2 0xAD4 JUMPI PUSH2 0xACC DUP2 DUP4 PUSH2 0x3A2 JUMP JUMPDEST CODESIZE PUSH2 0x16EE JUMP JUMPDEST PUSH2 0x17FB SWAP1 DUP13 DUP14 RETURNDATASIZE LT PUSH2 0xAD4 JUMPI PUSH2 0xACC DUP2 DUP4 PUSH2 0x3A2 JUMP JUMPDEST CODESIZE PUSH2 0x169D JUMP JUMPDEST POP POP POP POP POP POP SWAP5 POP SWAP5 SWAP2 SWAP7 SWAP3 POP SWAP5 POP PUSH2 0x181B PUSH2 0x1519 PUSH2 0xF13 JUMP JUMPDEST PUSH2 0x151E JUMP JUMPDEST MLOAD DUP12 GT PUSH2 0x1493 JUMP JUMPDEST POP POP POP POP POP POP POP SWAP5 POP SWAP5 SWAP2 SWAP7 SWAP3 POP SWAP5 POP PUSH2 0x181B PUSH2 0x1519 PUSH2 0xED8 JUMP JUMPDEST SWAP1 PUSH2 0x1852 PUSH2 0x144C PUSH2 0x145A SWAP3 MLOAD SWAP1 JUMP JUMPDEST SWAP2 PUSH2 0x1453 JUMP JUMPDEST POP POP PUSH4 0xFFFFFFFF PUSH1 0x20 DUP4 ADD MSTORE PUSH2 0x1871 PUSH1 0x0 NOT PUSH1 0x40 DUP5 ADD MSTORE JUMP JUMPDEST PUSH2 0x1352 JUMP JUMPDEST PUSH2 0x187F DUP2 PUSH2 0x1B2B JUMP JUMPDEST SWAP1 DUP13 DUP3 GT ISZERO PUSH2 0x188F JUMPI JUMPDEST POP PUSH2 0x1314 JUMP JUMPDEST SWAP4 POP SWAP2 POP PUSH2 0x207 PUSH2 0x1329 PUSH2 0x1889 JUMP JUMPDEST PUSH2 0x18A9 SWAP1 PUSH1 0x2 PUSH2 0x27A3 JUMP JUMPDEST PUSH4 0xFFFFFFFF DUP1 DUP3 AND SUB PUSH2 0x18C4 JUMPI JUMPDEST POP PUSH2 0x207 PUSH2 0x1329 SWAP2 PUSH2 0x131D JUMP JUMPDEST PUSH2 0x18CD DUP2 PUSH2 0x1B2B JUMP JUMPDEST SWAP1 DUP13 DUP3 LT ISZERO PUSH2 0x18DD JUMPI JUMPDEST POP PUSH2 0x18B7 JUMP JUMPDEST SWAP4 POP SWAP2 POP PUSH2 0x207 PUSH2 0x1329 PUSH2 0x18D7 JUMP JUMPDEST POP SWAP5 POP SWAP5 SWAP2 POP SWAP5 SWAP2 PUSH2 0x151E JUMP JUMPDEST POP DUP9 ISZERO PUSH2 0x190D JUMPI PUSH1 0x20 DUP7 ADD MLOAD DUP6 LT ISZERO PUSH2 0x1286 JUMP JUMPDEST PUSH1 0x20 DUP7 ADD MLOAD DUP6 GT ISZERO PUSH2 0x1286 JUMP JUMPDEST PUSH1 0x40 MLOAD PUSH4 0x2E6CDE9D PUSH1 0xE1 SHL DUP2 MSTORE PUSH1 0x4 SWAP1 REVERT JUMPDEST POP PUSH2 0x11FC PUSH2 0x193B PUSH2 0xF2 PUSH2 0xD72 JUMP JUMPDEST DUP6 GT ISZERO SWAP1 POP PUSH2 0x11FA JUMP JUMPDEST DUP7 ADD MLOAD DUP5 LT DUP1 PUSH2 0x1955 JUMPI ISZERO PUSH2 0x11FC JUMP JUMPDEST POP PUSH2 0x11FC PUSH2 0x1964 PUSH2 0xF2 PUSH2 0xD64 JUMP JUMPDEST DUP6 LT ISZERO SWAP1 POP PUSH2 0x11FA JUMP JUMPDEST POP POP POP POP POP PUSH2 0x197B PUSH1 0x0 SWAP1 JUMP JUMPDEST POP PUSH2 0xF2 PUSH4 0xF23A6E61 PUSH2 0xBEA JUMP JUMPDEST EQ SWAP1 JUMP JUMPDEST PUSH2 0x19A0 PUSH2 0xF2 PUSH2 0xF2 SWAP3 PUSH4 0xFFFFFFFF AND SWAP1 JUMP JUMPDEST PUSH1 0x3 SIGNEXTEND SWAP1 JUMP JUMPDEST PUSH2 0x19A0 PUSH2 0xF2 PUSH2 0xF2 SWAP3 SWAP1 JUMP JUMPDEST PUSH2 0xF2 PUSH3 0x800000 PUSH2 0x19A6 JUMP JUMPDEST PUSH2 0x19CD SWAP1 PUSH1 0x3 SIGNEXTEND SWAP2 PUSH1 0x3 SIGNEXTEND SWAP1 JUMP JUMPDEST SWAP1 SUB SWAP1 PUSH4 0x7FFFFFFF NOT DUP3 SLT PUSH4 0x7FFFFFFF DUP4 SGT OR PUSH2 0x818 JUMPI JUMP JUMPDEST PUSH2 0x19F6 PUSH2 0xF2 PUSH2 0xF2 SWAP3 PUSH1 0x3 SIGNEXTEND SWAP1 JUMP JUMPDEST PUSH1 0x2 SIGNEXTEND SWAP1 JUMP JUMPDEST PUSH2 0x19F6 PUSH2 0xF2 PUSH2 0xF2 SWAP3 SWAP1 JUMP JUMPDEST PUSH2 0xF2 PUSH2 0xF2 PUSH2 0xF2 SWAP3 PUSH1 0x2 SIGNEXTEND SWAP1 JUMP JUMPDEST PUSH1 0x1 PUSH1 0xFF SHL DUP2 EQ PUSH2 0x818 JUMPI PUSH1 0x0 SUB SWAP1 JUMP JUMPDEST PUSH2 0xF2 PUSH3 0x80000 PUSH2 0x19FC JUMP JUMPDEST PUSH2 0x1A46 PUSH2 0xF2 PUSH2 0xF2 SWAP3 PUSH1 0x2 SIGNEXTEND SWAP1 JUMP JUMPDEST PUSH3 0xFFFFFF AND SWAP1 JUMP JUMPDEST PUSH2 0xF2 PUSH2 0xF2 PUSH2 0xF2 SWAP3 PUSH3 0xFFFFFF AND SWAP1 JUMP JUMPDEST ISZERO PUSH2 0x1A67 JUMPI JUMP JUMPDEST PUSH1 0x40 MLOAD PUSH3 0x461BCD PUSH1 0xE5 SHL DUP2 MSTORE PUSH1 0x20 PUSH1 0x4 DUP3 ADD MSTORE PUSH1 0x15 PUSH1 0x24 DUP3 ADD MSTORE PUSH21 0x62696E206973206F7574206F662072616E67652021 PUSH1 0x58 SHL PUSH1 0x44 DUP3 ADD MSTORE PUSH1 0x64 SWAP1 REVERT JUMPDEST PUSH2 0x1AB1 PUSH2 0xF2 PUSH2 0xF2 SWAP3 SWAP1 JUMP JUMPDEST PUSH1 0x1 PUSH1 0x1 PUSH1 0x88 SHL SUB AND SWAP1 JUMP JUMPDEST PUSH2 0xF2 PUSH2 0xF2 PUSH2 0xF2 SWAP3 PUSH1 0x1 PUSH1 0x1 PUSH1 0x88 SHL SUB AND SWAP1 JUMP JUMPDEST PUSH2 0xF2 SWAP1 PUSH2 0x1AE7 PUSH2 0x792 PUSH2 0xF2 SWAP5 PUSH1 0xFF AND SWAP1 JUMP JUMPDEST SWAP1 SHR SWAP1 JUMP JUMPDEST PUSH4 0x4E487B71 PUSH1 0xE0 SHL PUSH1 0x0 MSTORE PUSH1 0x12 PUSH1 0x4 MSTORE PUSH1 0x24 PUSH1 0x0 REVERT JUMPDEST DUP2 ISZERO PUSH2 0x1B0C JUMPI DIV SWAP1 JUMP JUMPDEST PUSH2 0x1AEC JUMP JUMPDEST DUP2 ISZERO PUSH2 0x1B0C JUMPI MOD SWAP1 JUMP JUMPDEST PUSH2 0xF2 PUSH2 0xF2 PUSH2 0xF2 SWAP3 PUSH1 0xFF AND SWAP1 JUMP JUMPDEST PUSH2 0x1B59 PUSH2 0x1B54 PUSH2 0x1B46 PUSH2 0xF2 SWAP4 PUSH2 0x1B40 PUSH1 0x0 SWAP1 JUMP JUMPDEST POP PUSH2 0x198D JUMP JUMPDEST PUSH2 0x1B4E PUSH2 0x19B3 JUMP JUMPDEST SWAP1 PUSH2 0x19BF JUMP JUMPDEST PUSH2 0x19E6 JUMP JUMPDEST PUSH1 0x0 PUSH2 0x1B64 DUP2 PUSH2 0x19FC JUMP JUMPDEST PUSH2 0x1B6E DUP4 PUSH1 0x2 SIGNEXTEND SWAP1 JUMP JUMPDEST SLT ISZERO PUSH2 0x21DB JUMPI PUSH2 0x1B8D PUSH2 0x1B88 PUSH2 0x1B83 DUP5 PUSH2 0x1A09 JUMP JUMPDEST PUSH2 0x1A19 JUMP JUMPDEST PUSH2 0x771 JUMP JUMPDEST SWAP2 JUMPDEST PUSH2 0x1BB5 PUSH2 0x1BAD PUSH2 0xF2 PUSH2 0x1BA8 PUSH2 0x1BA3 PUSH2 0x1A2A JUMP JUMPDEST PUSH2 0x1A36 JUMP JUMPDEST PUSH2 0x1A4E JUMP JUMPDEST DUP5 GT ISZERO PUSH2 0x1A60 JUMP JUMPDEST PUSH2 0x1BBF PUSH1 0x1 PUSH2 0x771 JUMP JUMPDEST DUP4 AND PUSH2 0x1BCD PUSH2 0x792 DUP5 PUSH2 0x771 JUMP JUMPDEST EQ PUSH2 0x21CB JUMPI PUSH2 0x1BF3 PUSH2 0x1BEE PUSH16 0xFFF97272373D40000000000000000000 PUSH2 0x1AA4 JUMP JUMPDEST PUSH2 0x1ABD JUMP JUMPDEST SWAP3 PUSH2 0x1BFE PUSH1 0x2 PUSH2 0x771 JUMP JUMPDEST DUP2 AND PUSH2 0x1C0C PUSH2 0x792 DUP6 PUSH2 0x771 JUMP JUMPDEST SUB PUSH2 0x21A4 JUMPI JUMPDEST PUSH2 0x1C1C PUSH1 0x4 PUSH2 0x771 JUMP JUMPDEST DUP2 AND PUSH2 0x1C2A PUSH2 0x792 DUP6 PUSH2 0x771 JUMP JUMPDEST SUB PUSH2 0x217D JUMPI JUMPDEST PUSH2 0x1C3A PUSH1 0x8 PUSH2 0x771 JUMP JUMPDEST DUP2 AND PUSH2 0x1C48 PUSH2 0x792 DUP6 PUSH2 0x771 JUMP JUMPDEST SUB PUSH2 0x2156 JUMPI JUMPDEST PUSH2 0x1C58 PUSH1 0x10 PUSH2 0x771 JUMP JUMPDEST DUP2 AND PUSH2 0x1C66 PUSH2 0x792 DUP6 PUSH2 0x771 JUMP JUMPDEST SUB PUSH2 0x212F JUMPI JUMPDEST PUSH2 0x1C76 PUSH1 0x20 PUSH2 0x771 JUMP JUMPDEST DUP2 AND PUSH2 0x1C84 PUSH2 0x792 DUP6 PUSH2 0x771 JUMP JUMPDEST SUB PUSH2 0x2108 JUMPI JUMPDEST PUSH2 0x1C94 PUSH1 0x40 PUSH2 0x771 JUMP JUMPDEST DUP2 AND PUSH2 0x1CA2 PUSH2 0x792 DUP6 PUSH2 0x771 JUMP JUMPDEST SUB PUSH2 0x20D7 JUMPI JUMPDEST PUSH1 0x80 SWAP1 PUSH2 0x1CB4 DUP3 PUSH2 0x771 JUMP JUMPDEST DUP2 AND PUSH2 0x1CC2 PUSH2 0x792 DUP7 PUSH2 0x771 JUMP JUMPDEST SUB PUSH2 0x20B0 JUMPI JUMPDEST PUSH2 0x1CD3 PUSH2 0x100 PUSH2 0x771 JUMP JUMPDEST DUP2 AND PUSH2 0x1CE1 PUSH2 0x792 DUP7 PUSH2 0x771 JUMP JUMPDEST SUB PUSH2 0x2089 JUMPI JUMPDEST PUSH2 0x1CF2 PUSH2 0x200 PUSH2 0x771 JUMP JUMPDEST DUP2 AND PUSH2 0x1D00 PUSH2 0x792 DUP7 PUSH2 0x771 JUMP JUMPDEST SUB PUSH2 0x2062 JUMPI JUMPDEST PUSH2 0x1D11 PUSH2 0x400 PUSH2 0x771 JUMP JUMPDEST DUP2 AND PUSH2 0x1D1F PUSH2 0x792 DUP7 PUSH2 0x771 JUMP JUMPDEST SUB PUSH2 0x203B JUMPI JUMPDEST PUSH2 0x1D30 PUSH2 0x800 PUSH2 0x771 JUMP JUMPDEST DUP2 AND PUSH2 0x1D3E PUSH2 0x792 DUP7 PUSH2 0x771 JUMP JUMPDEST SUB PUSH2 0x2014 JUMPI JUMPDEST PUSH2 0x1D4F PUSH2 0x1000 PUSH2 0x771 JUMP JUMPDEST DUP2 AND PUSH2 0x1D5D PUSH2 0x792 DUP7 PUSH2 0x771 JUMP JUMPDEST SUB PUSH2 0x1FED JUMPI JUMPDEST PUSH2 0x1D6E PUSH2 0x2000 PUSH2 0x771 JUMP JUMPDEST DUP2 AND PUSH2 0x1D7C PUSH2 0x792 DUP7 PUSH2 0x771 JUMP JUMPDEST SUB PUSH2 0x1FC6 JUMPI JUMPDEST PUSH2 0x1D8D PUSH2 0x4000 PUSH2 0x771 JUMP JUMPDEST DUP2 AND PUSH2 0x1D9B PUSH2 0x792 DUP7 PUSH2 0x771 JUMP JUMPDEST SUB PUSH2 0x1F9F JUMPI JUMPDEST PUSH2 0x1DAC PUSH2 0x8000 PUSH2 0x771 JUMP JUMPDEST DUP2 AND PUSH2 0x1DBA PUSH2 0x792 DUP7 PUSH2 0x771 JUMP JUMPDEST SUB PUSH2 0x1F78 JUMPI JUMPDEST PUSH2 0x1DCC PUSH3 0x10000 PUSH2 0x771 JUMP JUMPDEST DUP2 AND PUSH2 0x1DDA PUSH2 0x792 DUP7 PUSH2 0x771 JUMP JUMPDEST SUB PUSH2 0x1F52 JUMPI JUMPDEST PUSH2 0x1DEC PUSH3 0x20000 PUSH2 0x771 JUMP JUMPDEST DUP2 AND PUSH2 0x1DFA PUSH2 0x792 DUP7 PUSH2 0x771 JUMP JUMPDEST SUB PUSH2 0x1F2D JUMPI JUMPDEST PUSH2 0x1E0C PUSH3 0x40000 PUSH2 0x771 JUMP JUMPDEST DUP2 AND PUSH2 0x1E1A PUSH2 0x792 DUP7 PUSH2 0x771 JUMP JUMPDEST SUB PUSH2 0x1F01 JUMPI JUMPDEST PUSH2 0x1E2C PUSH3 0x80000 PUSH2 0x771 JUMP JUMPDEST AND PUSH2 0x1E39 PUSH2 0x792 DUP6 PUSH2 0x771 JUMP JUMPDEST SUB PUSH2 0x1ECD JUMPI JUMPDEST POP PUSH2 0x1E53 PUSH2 0x1E4C DUP4 PUSH2 0x19FC JUMP JUMPDEST SWAP2 PUSH1 0x2 SIGNEXTEND SWAP1 JUMP JUMPDEST SGT PUSH2 0x1EBA JUMPI JUMPDEST PUSH2 0x1E84 PUSH2 0x1E6F PUSH2 0x1E69 PUSH1 0x20 PUSH2 0x754 JUMP JUMPDEST DUP5 PUSH2 0x1AD3 JUMP JUMPDEST SWAP3 PUSH2 0x1E7E PUSH5 0x100000000 PUSH2 0x771 JUMP JUMPDEST SWAP1 PUSH2 0x1B11 JUMP JUMPDEST PUSH2 0x1E90 PUSH2 0x792 DUP4 PUSH2 0x771 JUMP JUMPDEST SUB PUSH2 0x1EAC JUMPI PUSH2 0x1EA1 PUSH2 0x1EA6 SWAP2 PUSH2 0x754 JUMP JUMPDEST PUSH2 0x1B1B JUMP JUMPDEST SWAP1 PUSH2 0xE31 JUMP JUMPDEST POP PUSH2 0x1EA6 PUSH2 0x1EA1 PUSH1 0x1 PUSH2 0x754 JUMP JUMPDEST SWAP1 PUSH2 0x1EC7 SWAP1 PUSH1 0x0 NOT PUSH2 0x1B02 JUMP JUMPDEST SWAP1 PUSH2 0x1E59 JUMP JUMPDEST PUSH2 0x1EF4 PUSH2 0x1EEE PUSH2 0x1EFA SWAP4 SWAP6 PUSH2 0x1EE8 PUSH7 0x149B34EE7B4533 PUSH2 0x771 JUMP JUMPDEST SWAP1 PUSH2 0xC2B JUMP JUMPDEST SWAP2 PUSH2 0x754 JUMP JUMPDEST SWAP1 PUSH2 0x1AD3 JUMP JUMPDEST SWAP2 CODESIZE PUSH2 0x1E3F JUMP JUMPDEST SWAP4 PUSH2 0x1F1E PUSH2 0x1F27 SWAP2 PUSH2 0x1EE8 PUSH12 0x48A1703920644C000000000 PUSH2 0x771 JUMP JUMPDEST PUSH2 0x1EF4 DUP4 PUSH2 0x754 JUMP JUMPDEST SWAP4 PUSH2 0x1E20 JUMP JUMPDEST SWAP4 PUSH2 0x1F1E PUSH2 0x1F4C SWAP2 PUSH2 0x1EE8 PUSH14 0x2216E584F6303800000000000000 PUSH2 0x771 JUMP JUMPDEST SWAP4 PUSH2 0x1E00 JUMP JUMPDEST SWAP4 PUSH2 0x1F1E PUSH2 0x1F72 SWAP2 PUSH2 0x1EE8 PUSH15 0x5D6AF8DEDBCB380000000000000000 PUSH2 0x771 JUMP JUMPDEST SWAP4 PUSH2 0x1DE0 JUMP JUMPDEST SWAP4 PUSH2 0x1F1E PUSH2 0x1F99 SWAP2 PUSH2 0x1EE8 PUSH16 0x9AA508B5B7E5A800000000000000000 PUSH2 0x771 JUMP JUMPDEST SWAP4 PUSH2 0x1DC0 JUMP JUMPDEST SWAP4 PUSH2 0x1F1E PUSH2 0x1FC0 SWAP2 PUSH2 0x1EE8 PUSH16 0x31BE135F97DA6E000000000000000000 PUSH2 0x771 JUMP JUMPDEST SWAP4 PUSH2 0x1DA1 JUMP JUMPDEST SWAP4 PUSH2 0x1F1E PUSH2 0x1FE7 SWAP2 PUSH2 0x1EE8 PUSH16 0x70D869A156DDD4000000000000000000 PUSH2 0x771 JUMP JUMPDEST SWAP4 PUSH2 0x1D82 JUMP JUMPDEST SWAP4 PUSH2 0x1F1E PUSH2 0x200E SWAP2 PUSH2 0x1EE8 PUSH16 0xA9F746462D8F78000000000000000000 PUSH2 0x771 JUMP JUMPDEST SWAP4 PUSH2 0x1D63 JUMP JUMPDEST SWAP4 PUSH2 0x1F1E PUSH2 0x2035 SWAP2 PUSH2 0x1EE8 PUSH16 0xD097F3BDFD2550000000000000000000 PUSH2 0x771 JUMP JUMPDEST SWAP4 PUSH2 0x1D44 JUMP JUMPDEST SWAP4 PUSH2 0x1F1E PUSH2 0x205C SWAP2 PUSH2 0x1EE8 PUSH16 0xE7159475A2C578000000000000000000 PUSH2 0x771 JUMP JUMPDEST SWAP4 PUSH2 0x1D25 JUMP JUMPDEST SWAP4 PUSH2 0x1F1E PUSH2 0x2083 SWAP2 PUSH2 0x1EE8 PUSH16 0xF3392B0822B880000000000000000000 PUSH2 0x771 JUMP JUMPDEST SWAP4 PUSH2 0x1D06 JUMP JUMPDEST SWAP4 PUSH2 0x1F1E PUSH2 0x20AA SWAP2 PUSH2 0x1EE8 PUSH16 0xF987A7253AC4D8000000000000000000 PUSH2 0x771 JUMP JUMPDEST SWAP4 PUSH2 0x1CE7 JUMP JUMPDEST SWAP4 PUSH2 0x1F1E PUSH2 0x20D1 SWAP2 PUSH2 0x1EE8 PUSH16 0xFCBE86C7900AE8000000000000000000 PUSH2 0x771 JUMP JUMPDEST SWAP4 PUSH2 0x1CC8 JUMP JUMPDEST SWAP3 PUSH2 0x20F8 PUSH2 0x2102 SWAP2 PUSH2 0x1EE8 PUSH16 0xFE5DEE046A99D8000000000000000000 PUSH2 0x771 JUMP JUMPDEST PUSH2 0x1EF4 PUSH1 0x80 PUSH2 0x754 JUMP JUMPDEST SWAP3 PUSH2 0x1CA8 JUMP JUMPDEST SWAP3 PUSH2 0x20F8 PUSH2 0x2129 SWAP2 PUSH2 0x1EE8 PUSH16 0xFF2EA16466C980000000000000000000 PUSH2 0x771 JUMP JUMPDEST SWAP3 PUSH2 0x1C8A JUMP JUMPDEST SWAP3 PUSH2 0x20F8 PUSH2 0x2150 SWAP2 PUSH2 0x1EE8 PUSH16 0xFF973B41FA98D8000000000000000000 PUSH2 0x771 JUMP JUMPDEST SWAP3 PUSH2 0x1C6C JUMP JUMPDEST SWAP3 PUSH2 0x20F8 PUSH2 0x2177 SWAP2 PUSH2 0x1EE8 PUSH16 0xFFCB9843D60F68000000000000000000 PUSH2 0x771 JUMP JUMPDEST SWAP3 PUSH2 0x1C4E JUMP JUMPDEST SWAP3 PUSH2 0x20F8 PUSH2 0x219E SWAP2 PUSH2 0x1EE8 PUSH16 0xFFE5CACA7E10F0000000000000000000 PUSH2 0x771 JUMP JUMPDEST SWAP3 PUSH2 0x1C30 JUMP JUMPDEST SWAP3 PUSH2 0x20F8 PUSH2 0x21C5 SWAP2 PUSH2 0x1EE8 PUSH16 0xFFF2E50F5F6570000000000000000000 PUSH2 0x771 JUMP JUMPDEST SWAP3 PUSH2 0x1C12 JUMP JUMPDEST PUSH2 0x1BF3 PUSH2 0x1BEE PUSH1 0x1 PUSH1 0x80 SHL PUSH2 0x1AA4 JUMP JUMPDEST PUSH2 0x21E7 PUSH2 0x1B88 DUP4 PUSH2 0x1A09 JUMP JUMPDEST SWAP2 PUSH2 0x1B8F JUMP JUMPDEST PUSH2 0xF2 PUSH2 0xF2 PUSH2 0xF2 SWAP3 PUSH1 0x1 PUSH1 0x1 PUSH1 0x80 SHL SUB AND SWAP1 JUMP JUMPDEST PUSH2 0x2218 PUSH2 0xF2 SWAP2 PUSH2 0x2212 PUSH1 0x0 SWAP1 JUMP JUMPDEST POP PUSH2 0x21ED JUMP JUMPDEST PUSH2 0x2220 PUSH2 0x767 JUMP JUMPDEST SWAP1 PUSH2 0x77E JUMP JUMPDEST SWAP1 PUSH2 0x2236 PUSH2 0xF2 SWAP3 PUSH2 0x2212 PUSH1 0x0 SWAP1 JUMP JUMPDEST PUSH2 0x2256 PUSH2 0x224B PUSH2 0x2244 PUSH2 0x767 JUMP JUMPDEST DUP1 SWAP4 PUSH2 0x77E JUMP JUMPDEST SWAP2 PUSH2 0xB2D PUSH1 0x1 PUSH2 0x771 JUMP JUMPDEST SWAP1 PUSH2 0x2DB7 JUMP JUMPDEST PUSH2 0x2277 SWAP1 PUSH1 0x1 PUSH1 0x1 PUSH1 0xA0 SHL SUB AND JUMPDEST SWAP2 PUSH1 0x1 PUSH1 0x1 PUSH1 0xA0 SHL SUB AND SWAP1 JUMP JUMPDEST SWAP1 SUB SWAP1 PUSH1 0x1 PUSH1 0x1 PUSH1 0xA0 SHL SUB DUP3 GT PUSH2 0x818 JUMPI JUMP JUMPDEST PUSH2 0xF2 SWAP1 DUP2 SWAP1 PUSH1 0x1 PUSH1 0x1 PUSH1 0xA0 SHL SUB AND DUP2 JUMP JUMPDEST PUSH2 0x2256 PUSH2 0x22CF PUSH2 0xF2 SWAP5 SWAP4 PUSH2 0x22AF PUSH1 0x0 SWAP1 JUMP JUMPDEST POP PUSH2 0x22C9 PUSH2 0x2218 PUSH2 0x22C3 PUSH1 0x1 PUSH1 0x60 SHL PUSH2 0x79B JUMP JUMPDEST SWAP6 PUSH2 0x21ED JUMP JUMPDEST SWAP4 PUSH2 0x225C JUMP JUMPDEST PUSH2 0x228A JUMP JUMPDEST SWAP1 PUSH2 0x22E4 PUSH2 0xF2 SWAP3 PUSH2 0x2212 PUSH1 0x0 SWAP1 JUMP JUMPDEST PUSH2 0x2256 PUSH2 0x2307 PUSH2 0x22FC PUSH2 0x22F5 PUSH2 0x767 JUMP JUMPDEST DUP1 SWAP5 PUSH2 0x77E JUMP JUMPDEST SWAP3 PUSH2 0xB2D PUSH1 0x1 PUSH2 0x771 JUMP JUMPDEST SWAP3 PUSH2 0x228A JUMP JUMPDEST SWAP1 PUSH1 0xFF SWAP1 PUSH2 0x828 JUMP JUMPDEST SWAP1 PUSH2 0x2326 PUSH2 0xF2 PUSH2 0x85D SWAP3 ISZERO ISZERO SWAP1 JUMP JUMPDEST DUP3 SLOAD PUSH2 0x230D JUMP JUMPDEST SWAP1 PUSH17 0xFFFFFFFFFFFFFFFFFFFFFFFFFFFFFFFF00 SWAP1 PUSH1 0x8 SHL PUSH2 0x828 JUMP JUMPDEST SWAP1 PUSH2 0x2359 PUSH2 0xF2 PUSH2 0x85D SWAP3 PUSH2 0x8C3 JUMP JUMPDEST DUP3 SLOAD PUSH2 0x232D JUMP JUMPDEST PUSH2 0xF2 PUSH2 0xDC SWAP3 PUSH2 0x237C SWAP3 SWAP6 SWAP5 SWAP6 PUSH2 0x2376 PUSH1 0x0 SWAP1 JUMP JUMPDEST POP PUSH2 0x7BB JUMP JUMPDEST SWAP3 PUSH2 0x2386 DUP5 PUSH2 0xF62 JUMP JUMPDEST PUSH1 0x0 SWAP5 DUP6 SWAP2 PUSH2 0x2397 PUSH2 0x895 DUP5 PUSH2 0x747 JUMP JUMPDEST EQ PUSH2 0x23E7 JUMPI JUMPDEST ADD SWAP4 PUSH2 0x23DF PUSH2 0x23D9 PUSH2 0x23B8 PUSH2 0x23B1 DUP9 PUSH2 0xF62 JUMP JUMPDEST SWAP5 DUP6 PUSH2 0x887 JUMP JUMPDEST SWAP4 PUSH2 0x1989 PUSH2 0x895 PUSH2 0x23C8 DUP7 PUSH2 0x747 JUMP JUMPDEST PUSH1 0x1 PUSH1 0x1 PUSH1 0x80 SHL SUB DUP9 AND EQ SWAP6 PUSH2 0x747 JUMP JUMPDEST SWAP2 ISZERO ISZERO SWAP1 JUMP JUMPDEST EQ ISZERO SWAP4 PUSH2 0x2349 JUMP JUMPDEST PUSH2 0x23F4 PUSH1 0x1 DUP4 DUP4 ADD PUSH2 0x2316 JUMP JUMPDEST PUSH2 0x239D JUMP JUMPDEST PUSH2 0x207 SWAP1 PUSH2 0x1AE7 PUSH2 0x147A PUSH2 0xF2 SWAP5 PUSH1 0xFF AND SWAP1 JUMP JUMPDEST PUSH2 0x2420 PUSH2 0xF2 PUSH2 0xF2 SWAP3 PUSH4 0xFFFFFFFF AND SWAP1 JUMP JUMPDEST PUSH2 0xFFFF AND SWAP1 JUMP JUMPDEST PUSH2 0x761 PUSH2 0xF2 PUSH2 0xF2 SWAP3 PUSH4 0xFFFFFFFF AND SWAP1 JUMP JUMPDEST PUSH2 0x2420 PUSH2 0xF2 PUSH2 0xF2 SWAP3 PUSH2 0xFFFF AND SWAP1 JUMP JUMPDEST SWAP1 PUSH2 0x7C5 SWAP1 PUSH2 0x243A JUMP JUMPDEST PUSH2 0x2420 SWAP1 PUSH2 0x1AE7 PUSH2 0x2469 PUSH2 0xF2 SWAP5 PUSH1 0xFF AND SWAP1 JUMP JUMPDEST SWAP2 PUSH2 0xFFFF AND SWAP1 JUMP JUMPDEST PUSH2 0x761 PUSH2 0xF2 PUSH2 0xF2 SWAP3 PUSH2 0xFFFF AND SWAP1 JUMP JUMPDEST PUSH2 0x761 PUSH2 0xF2 PUSH2 0xF2 SWAP3 PUSH1 0xFF AND SWAP1 JUMP JUMPDEST SWAP1 PUSH2 0x7C5 SWAP1 PUSH2 0x2482 JUMP JUMPDEST PUSH1 0x0 PUSH2 0x254C PUSH2 0xDC SWAP4 PUSH2 0x24AF PUSH1 0x8 PUSH2 0x754 JUMP JUMPDEST PUSH2 0xB2D PUSH2 0x2525 PUSH2 0x251F PUSH2 0x251A PUSH2 0x24D6 PUSH2 0x24D0 PUSH2 0x24CB DUP8 DUP10 PUSH2 0x23F9 JUMP JUMPDEST PUSH2 0x240D JUMP JUMPDEST SWAP7 PUSH2 0x2427 JUMP JUMPDEST SWAP5 PUSH2 0x2514 PUSH1 0x2 DUP12 ADD PUSH2 0x250F DUP10 PUSH2 0x24F4 PUSH2 0x24EF DUP3 DUP6 PUSH2 0x244B JUMP JUMPDEST PUSH2 0x1F8 JUMP JUMPDEST PUSH2 0x2508 PUSH2 0x2501 PUSH1 0x1 PUSH2 0x771 JUMP JUMPDEST SWAP12 DUP13 PUSH2 0x77E JUMP JUMPDEST OR SWAP3 PUSH2 0x244B JUMP JUMPDEST PUSH2 0x1185 JUMP JUMPDEST DUP7 PUSH2 0x2455 JUMP JUMPDEST PUSH2 0x2471 JUMP JUMPDEST SWAP4 PUSH2 0x2471 JUMP JUMPDEST PUSH2 0x250F DUP5 PUSH1 0x1 DUP10 ADD SWAP3 PUSH2 0x2545 PUSH2 0x253E PUSH2 0x24EF DUP5 DUP8 PUSH2 0x2492 JUMP JUMPDEST SWAP2 DUP8 PUSH2 0x77E JUMP JUMPDEST OR SWAP3 PUSH2 0x2492 JUMP JUMPDEST SWAP2 ADD SWAP1 PUSH2 0x2558 DUP3 PUSH2 0x1F8 JUMP JUMPDEST OR SWAP1 PUSH2 0x1185 JUMP JUMPDEST PUSH2 0xF5 SWAP1 PUSH1 0x1 PUSH1 0x1 PUSH1 0xA0 SHL SUB AND PUSH1 0x60 SHL SWAP1 JUMP JUMPDEST PUSH2 0xF5 SWAP1 PUSH4 0xFFFFFFFF AND PUSH2 0xBFD JUMP JUMPDEST PUSH1 0x14 DUP2 PUSH2 0x2594 PUSH2 0x492 SWAP4 PUSH1 0x4 SWAP7 SWAP6 PUSH2 0x255F JUMP JUMPDEST ADD DUP1 SWAP3 PUSH2 0x2572 JUMP JUMPDEST SWAP1 PUSH2 0x7C5 JUMP JUMPDEST PUSH2 0x25C7 PUSH2 0x25D3 PUSH2 0xF2 SWAP5 PUSH2 0xF2 SWAP5 PUSH2 0x25B9 PUSH1 0x40 MLOAD SWAP1 JUMP JUMPDEST SWAP4 DUP5 SWAP3 PUSH1 0x20 DUP5 ADD SWAP3 DUP4 PUSH2 0x2581 JUMP JUMPDEST SWAP1 DUP2 SUB DUP3 MSTORE SUB DUP3 PUSH2 0x3A2 JUMP JUMPDEST PUSH2 0x25E5 PUSH2 0x25DE DUP3 MLOAD SWAP1 JUMP JUMPDEST SWAP2 PUSH1 0x20 ADD SWAP1 JUMP JUMPDEST KECCAK256 SWAP1 PUSH2 0x259C JUMP JUMPDEST PUSH2 0xDC SWAP2 PUSH2 0x25FD SWAP1 PUSH2 0xA37 DUP4 PUSH2 0x87D JUMP JUMPDEST SWAP1 PUSH2 0x8D9 JUMP JUMPDEST PUSH1 0x0 JUMPDEST DUP4 DUP2 LT PUSH2 0x2616 JUMPI POP POP PUSH1 0x0 SWAP2 ADD MSTORE JUMP JUMPDEST DUP2 DUP2 ADD MLOAD DUP4 DUP3 ADD MSTORE PUSH1 0x20 ADD PUSH2 0x2606 JUMP JUMPDEST PUSH2 0x2647 PUSH2 0x920 PUSH1 0x20 SWAP4 PUSH2 0x492 SWAP4 PUSH2 0x263B DUP2 MLOAD SWAP1 JUMP JUMPDEST DUP1 DUP4 MSTORE SWAP4 DUP5 SWAP3 PUSH1 0x20 ADD SWAP1 JUMP JUMPDEST SWAP6 DUP7 SWAP2 ADD PUSH2 0x2603 JUMP JUMPDEST SWAP3 SWAP2 PUSH1 0x20 PUSH2 0x266D PUSH2 0xDC SWAP4 PUSH1 0x40 DUP8 ADD SWAP1 DUP8 DUP3 SUB PUSH1 0x0 DUP10 ADD MSTORE PUSH2 0x2626 JUMP JUMPDEST SWAP5 ADD MSTORE JUMP JUMPDEST SWAP1 PUSH2 0x26AE PUSH2 0xDC SWAP3 PUSH2 0x269F PUSH2 0x2686 PUSH1 0x40 MLOAD SWAP1 JUMP JUMPDEST PUSH4 0x2D839CB3 PUSH1 0xE2 SHL PUSH1 0x20 DUP3 ADD MSTORE SWAP4 DUP5 SWAP3 PUSH1 0x24 DUP5 ADD PUSH2 0x2650 JUMP JUMPDEST PUSH1 0x20 DUP3 ADD DUP2 SUB DUP3 MSTORE SUB DUP3 PUSH2 0x3A2 JUMP JUMPDEST PUSH2 0x2EEC JUMP JUMPDEST PUSH2 0x2420 PUSH2 0xF2 PUSH2 0xF2 SWAP3 PUSH1 0xFF AND SWAP1 JUMP JUMPDEST PUSH2 0x2420 SWAP1 PUSH2 0x796 PUSH2 0x2469 PUSH2 0xF2 SWAP5 PUSH1 0xFF AND SWAP1 JUMP JUMPDEST PUSH2 0x2420 PUSH2 0xF2 PUSH2 0xF2 SWAP3 SWAP1 JUMP JUMPDEST PUSH2 0x26F1 SWAP1 PUSH2 0xFFFF AND PUSH2 0x2469 JUMP JUMPDEST ADD SWAP1 PUSH2 0xFFFF DUP3 GT PUSH2 0x818 JUMPI JUMP JUMPDEST PUSH2 0x270B SWAP1 PUSH2 0xFFFF AND PUSH2 0x2469 JUMP JUMPDEST SWAP1 SUB SWAP1 PUSH2 0xFFFF DUP3 GT PUSH2 0x818 JUMPI JUMP JUMPDEST PUSH2 0x207 PUSH2 0xF2 PUSH2 0xF2 SWAP3 PUSH2 0xFFFF AND SWAP1 JUMP JUMPDEST PUSH2 0x207 SWAP1 PUSH2 0x796 PUSH2 0x147A PUSH2 0xF2 SWAP5 PUSH1 0xFF AND SWAP1 JUMP JUMPDEST PUSH2 0x274D SWAP1 PUSH4 0xFFFFFFFF AND PUSH2 0x147A JUMP JUMPDEST ADD SWAP1 PUSH4 0xFFFFFFFF DUP3 GT PUSH2 0x818 JUMPI JUMP JUMPDEST PUSH2 0x276B SWAP1 PUSH4 0xFFFFFFFF AND PUSH2 0x147A JUMP JUMPDEST SWAP1 SUB SWAP1 PUSH4 0xFFFFFFFF DUP3 GT PUSH2 0x818 JUMPI JUMP JUMPDEST PUSH2 0x2787 SWAP1 PUSH1 0xFF AND PUSH2 0x804 JUMP JUMPDEST ADD SWAP1 PUSH1 0xFF DUP3 GT PUSH2 0x818 JUMPI JUMP JUMPDEST PUSH2 0x207 PUSH2 0xF2 PUSH2 0xF2 SWAP3 PUSH1 0xFF AND SWAP1 JUMP JUMPDEST PUSH2 0x27AD PUSH1 0x8 PUSH2 0x754 JUMP JUMPDEST PUSH2 0x27BA PUSH2 0x24CB DUP3 DUP6 PUSH2 0x23F9 JUMP JUMPDEST DUP1 SWAP3 PUSH2 0x27C5 DUP6 PUSH2 0x2427 JUMP JUMPDEST SWAP3 PUSH1 0x2 DUP3 ADD SWAP1 PUSH2 0x27D8 PUSH2 0x24EF DUP6 DUP5 PUSH2 0x244B JUMP JUMPDEST SWAP6 PUSH1 0x1 SWAP7 PUSH2 0x27E5 DUP9 PUSH2 0x771 JUMP JUMPDEST SWAP1 PUSH2 0x27F9 DUP3 PUSH2 0x27F4 DUP11 DUP3 PUSH2 0x77E JUMP JUMPDEST PUSH2 0xE24 JUMP JUMPDEST AND SWAP1 DUP2 SWAP7 PUSH1 0x0 SWAP3 PUSH2 0x280C PUSH2 0x792 DUP6 PUSH2 0x771 JUMP JUMPDEST GT ISZERO PUSH2 0x284E JUMPI POP POP POP POP POP POP POP PUSH2 0xF2 SWAP4 SWAP3 PUSH2 0xB1D PUSH2 0x1EEE PUSH2 0x2848 SWAP5 PUSH2 0x283D PUSH2 0x2837 PUSH2 0x2843 SWAP7 PUSH2 0x2EF7 JUMP JUMPDEST SWAP5 PUSH2 0x754 JUMP JUMPDEST SWAP1 PUSH2 0x277B JUMP JUMPDEST PUSH2 0x2793 JUMP JUMPDEST SWAP1 PUSH2 0x275C JUMP JUMPDEST SWAP3 SWAP6 SWAP10 POP SWAP3 SWAP6 POP SWAP3 SWAP6 POP PUSH2 0x2879 PUSH2 0x2868 PUSH2 0x251A DUP8 DUP5 PUSH2 0x2455 JUMP JUMPDEST SWAP2 PUSH2 0x2873 PUSH1 0xFF PUSH2 0x26B3 JUMP JUMPDEST AND PUSH2 0x2471 JUMP JUMPDEST SWAP3 DUP8 DUP10 ADD SWAP2 PUSH2 0x288B PUSH2 0x24EF DUP3 DUP6 PUSH2 0x2492 JUMP JUMPDEST PUSH2 0x2899 DUP6 PUSH2 0x27F4 DUP9 DUP3 PUSH2 0x77E JUMP JUMPDEST AND SWAP4 DUP5 PUSH2 0x28A8 PUSH2 0x792 DUP6 PUSH2 0x771 JUMP JUMPDEST GT ISZERO PUSH2 0x291D JUMPI POP POP POP POP PUSH2 0xF2 SWAP7 POP PUSH2 0x2911 SWAP4 PUSH2 0x290C PUSH2 0x2906 PUSH2 0x2901 PUSH2 0x24EF PUSH2 0x28FA PUSH2 0x2848 SWAP11 SWAP9 PUSH2 0x28F4 PUSH2 0x28EF DUP15 PUSH2 0xB1D PUSH2 0x1EEE PUSH2 0x2917 SWAP14 PUSH2 0x283D PUSH2 0x2837 PUSH2 0x2911 SWAP16 PUSH2 0x2EF7 JUMP JUMPDEST PUSH2 0x26B3 JUMP JUMPDEST SWAP1 PUSH2 0x26FE JUMP JUMPDEST DUP1 SWAP9 PUSH2 0x244B JUMP JUMPDEST PUSH2 0x2EF7 JUMP JUMPDEST SWAP5 PUSH2 0x2719 JUMP JUMPDEST PUSH2 0x272A JUMP JUMPDEST SWAP2 PUSH2 0x722 JUMP JUMPDEST SWAP1 PUSH2 0x273E JUMP JUMPDEST SWAP2 SWAP6 POP SWAP3 POP PUSH2 0x2947 SWAP4 POP PUSH2 0x27F4 PUSH2 0x2939 DUP7 PUSH2 0x2940 SWAP5 SWAP12 ADD PUSH2 0x1F8 JUMP JUMPDEST SWAP4 DUP3 PUSH2 0x77E JUMP JUMPDEST AND SWAP2 PUSH2 0x771 JUMP JUMPDEST DUP2 GT ISZERO PUSH2 0x29F8 JUMPI PUSH2 0x2917 PUSH2 0x2911 DUP4 PUSH2 0x290C PUSH2 0x29F3 PUSH2 0x29E9 PUSH2 0x2901 PUSH2 0x24EF PUSH2 0x2848 SWAP11 PUSH2 0x29E3 PUSH2 0x29DD PUSH2 0xF2 SWAP16 DUP16 PUSH2 0x29D1 PUSH2 0x2911 SWAP16 DUP3 SWAP16 SWAP1 PUSH2 0x29C6 PUSH2 0x28EF PUSH2 0x29D7 SWAP7 PUSH2 0xB1D PUSH2 0x29C0 PUSH2 0x2901 PUSH2 0x24EF PUSH2 0x29A7 PUSH2 0x29A2 PUSH2 0x29CB SWAP11 PUSH2 0x2EF7 JUMP JUMPDEST PUSH2 0x754 JUMP JUMPDEST SWAP5 PUSH2 0x29BA PUSH2 0x29B4 DUP14 PUSH2 0x754 JUMP JUMPDEST DUP8 PUSH2 0x7FC JUMP JUMPDEST SWAP1 PUSH2 0x2492 JUMP JUMPDEST SWAP8 PUSH2 0x754 JUMP JUMPDEST PUSH2 0x26C3 JUMP JUMPDEST SWAP2 PUSH2 0x26D7 JUMP JUMPDEST SWAP1 PUSH2 0x26E4 JUMP JUMPDEST SWAP12 PUSH2 0x26D7 JUMP JUMPDEST DUP12 PUSH2 0x26FE JUMP JUMPDEST SWAP1 PUSH2 0x244B JUMP JUMPDEST SWAP6 PUSH2 0x28F4 DUP11 PUSH2 0x26D7 JUMP JUMPDEST PUSH2 0x2719 JUMP JUMPDEST POP POP POP POP POP PUSH4 0xFFFFFFFF SWAP1 JUMP JUMPDEST SWAP1 PUSH2 0x2A10 PUSH1 0x8 PUSH2 0x754 JUMP JUMPDEST SWAP2 PUSH2 0x2A1E PUSH2 0x24CB DUP5 DUP5 PUSH2 0x23F9 JUMP JUMPDEST SWAP1 PUSH2 0x27F4 DUP3 PUSH2 0x2A2C DUP6 PUSH2 0x2427 JUMP JUMPDEST SWAP6 PUSH1 0x2 DUP5 ADD SWAP2 PUSH2 0x2A3F PUSH2 0x24EF DUP8 DUP6 PUSH2 0x244B JUMP JUMPDEST SWAP6 PUSH1 0x1 SWAP7 PUSH2 0x2A71 PUSH2 0x2A6D PUSH2 0x2A5B PUSH2 0x2A55 DUP12 PUSH2 0x754 JUMP JUMPDEST DUP14 PUSH2 0x277B JUMP JUMPDEST PUSH2 0x2A64 DUP12 PUSH2 0x771 JUMP JUMPDEST SWAP9 DUP10 SWAP2 DUP3 PUSH2 0x77E JUMP JUMPDEST NOT SWAP1 JUMP JUMPDEST AND SWAP6 PUSH1 0x0 DUP8 PUSH2 0x2A82 PUSH2 0x792 DUP4 PUSH2 0x771 JUMP JUMPDEST GT ISZERO PUSH2 0x2AB1 JUMPI POP POP POP POP POP POP POP PUSH2 0xF2 SWAP4 PUSH2 0x2AAC PUSH2 0x2917 SWAP4 PUSH2 0xB1D PUSH2 0x1EEE PUSH2 0x29A2 PUSH2 0x2843 SWAP7 PUSH2 0x3135 JUMP JUMPDEST PUSH2 0x7FC JUMP JUMPDEST SWAP3 SWAP6 SWAP10 POP SWAP3 DUP2 PUSH2 0x2AC7 SWAP3 SWAP6 SWAP9 SWAP10 POP DUP2 SWAP8 POP PUSH2 0x2455 JUMP JUMPDEST PUSH2 0x2AD0 SWAP1 PUSH2 0x2471 JUMP JUMPDEST SWAP3 PUSH2 0x2ADB PUSH1 0xFF PUSH2 0x26B3 JUMP JUMPDEST AND PUSH2 0x2AE5 SWAP1 PUSH2 0x2471 JUMP JUMPDEST SWAP3 DUP8 DUP4 ADD SWAP9 PUSH2 0x2AF4 DUP3 DUP12 PUSH2 0x2492 JUMP JUMPDEST PUSH2 0x2AFD SWAP1 PUSH2 0x1F8 JUMP JUMPDEST DUP2 PUSH2 0x2B07 DUP12 PUSH2 0x754 JUMP JUMPDEST PUSH2 0x2B11 SWAP1 DUP9 PUSH2 0x277B JUMP JUMPDEST PUSH2 0x2B1B SWAP1 DUP3 PUSH2 0x77E JUMP JUMPDEST SWAP1 PUSH2 0x2B25 SWAP2 PUSH2 0xE24 JUMP JUMPDEST NOT AND SWAP4 DUP5 PUSH2 0x2B32 DUP6 PUSH2 0x771 JUMP JUMPDEST LT ISZERO PUSH2 0x2B7F JUMPI POP POP POP POP PUSH2 0xF2 SWAP7 POP PUSH2 0x2911 SWAP4 PUSH2 0x290C PUSH2 0x2906 PUSH2 0x2B7A PUSH2 0x24EF PUSH2 0x28FA PUSH2 0x2848 SWAP11 SWAP9 PUSH2 0x29D1 PUSH2 0x28EF PUSH2 0x2917 SWAP11 DUP16 PUSH2 0x2AAC SWAP1 PUSH2 0xB1D PUSH2 0x1EEE PUSH2 0x29A2 PUSH2 0x2911 SWAP16 PUSH2 0x3135 JUMP JUMPDEST PUSH2 0x3135 JUMP JUMPDEST DUP4 SWAP7 POP PUSH2 0x2BB1 SWAP6 POP PUSH2 0x2A6D SWAP3 SWAP5 POP PUSH2 0x2BAB PUSH2 0x2BA1 PUSH2 0x2940 SWAP6 PUSH2 0x27F4 SWAP4 ADD PUSH2 0x1F8 JUMP JUMPDEST SWAP6 PUSH2 0x283D DUP13 PUSH2 0x754 JUMP JUMPDEST DUP3 PUSH2 0x77E JUMP JUMPDEST DUP2 GT ISZERO PUSH2 0x29F8 JUMPI PUSH2 0x2917 PUSH2 0x2911 DUP4 PUSH2 0x290C PUSH2 0x29F3 PUSH2 0x29E9 PUSH2 0x2B7A PUSH2 0x24EF PUSH2 0x2848 SWAP11 PUSH2 0x29E3 PUSH2 0x29DD PUSH2 0xF2 SWAP16 DUP16 PUSH2 0x29D1 PUSH2 0x2911 SWAP16 DUP3 SWAP16 SWAP1 PUSH2 0x29C6 PUSH2 0x28EF PUSH2 0x29D7 SWAP7 PUSH2 0xB1D PUSH2 0x29C0 PUSH2 0x2B7A PUSH2 0x24EF PUSH2 0x29A7 PUSH2 0x29A2 PUSH2 0x29CB SWAP11 PUSH2 0x3135 JUMP JUMPDEST PUSH2 0x2C1E SWAP1 PUSH1 0x1 PUSH1 0x1 PUSH1 0xA0 SHL SUB AND PUSH2 0x226A JUMP JUMPDEST ADD SWAP1 PUSH1 0x1 PUSH1 0x1 PUSH1 0xA0 SHL SUB DUP3 GT PUSH2 0x818 JUMPI JUMP JUMPDEST SWAP5 SWAP3 SWAP4 SWAP1 SWAP2 SWAP4 PUSH2 0x2C3E PUSH1 0x0 SWAP1 JUMP JUMPDEST POP PUSH1 0x0 SWAP1 DUP3 ISZERO PUSH2 0x2D0F JUMPI PUSH2 0x2C68 DUP8 PUSH2 0x2C62 DUP9 PUSH2 0x2C5D PUSH1 0x1 PUSH1 0x60 SHL PUSH2 0x79B JUMP JUMPDEST PUSH2 0x225C JUMP JUMPDEST DUP7 PUSH2 0x336A JUMP JUMPDEST DUP6 LT ISZERO PUSH2 0x2CB2 JUMPI POP POP ISZERO PUSH2 0x2C99 JUMPI PUSH2 0x2C95 SWAP1 PUSH2 0x2C8F PUSH2 0x2C88 DUP5 DUP4 DUP9 PUSH2 0x33D0 JUMP JUMPDEST DUP1 SWAP3 PUSH2 0x22D4 JUMP JUMPDEST SWAP4 PUSH2 0x2C0C JUMP JUMPDEST SWAP3 SWAP4 JUMP JUMPDEST PUSH2 0x2C95 SWAP1 PUSH2 0x22C9 DUP6 PUSH2 0x2CAB DUP6 DUP5 PUSH2 0x339B JUMP JUMPDEST DUP1 SWAP4 PUSH2 0x336A JUMP JUMPDEST SWAP6 SWAP3 SWAP5 SWAP4 POP POP ISZERO PUSH2 0x2CED JUMPI PUSH2 0x2CDC PUSH2 0x2CD4 PUSH2 0x2CE2 SWAP4 PUSH2 0x2C5D PUSH1 0x1 PUSH1 0x60 SHL PUSH2 0x79B JUMP JUMPDEST SWAP2 DUP3 DUP6 PUSH2 0x336A JUMP JUMPDEST SWAP3 PUSH2 0x22D4 JUMP JUMPDEST SWAP1 PUSH2 0x2C95 PUSH1 0x0 PUSH2 0x79B JUMP JUMPDEST PUSH2 0x2D01 SWAP2 PUSH2 0x2CFB DUP2 DUP6 PUSH2 0x22D4 JUMP JUMPDEST SWAP4 PUSH2 0x336A JUMP JUMPDEST SWAP1 PUSH2 0x2C95 PUSH1 0x1 PUSH1 0x60 SHL PUSH2 0x79B JUMP JUMPDEST PUSH2 0x2D19 DUP7 DUP6 PUSH2 0x22D4 JUMP JUMPDEST PUSH2 0x2C68 JUMP JUMPDEST PUSH1 0x20 DUP1 DUP3 MSTORE PUSH2 0xF2 SWAP3 SWAP2 ADD SWAP1 PUSH2 0x2626 JUMP JUMPDEST PUSH2 0x269F PUSH2 0x26AE PUSH2 0xDC SWAP3 PUSH2 0x2D42 PUSH1 0x40 MLOAD SWAP1 JUMP JUMPDEST PUSH4 0x104C13EB PUSH1 0xE2 SHL PUSH1 0x20 DUP3 ADD MSTORE SWAP3 DUP4 SWAP2 PUSH1 0x24 DUP4 ADD PUSH2 0x2D1E JUMP JUMPDEST PUSH2 0x356 PUSH2 0xDC SWAP5 PUSH2 0x957 PUSH2 0x2D81 PUSH1 0x60 SWAP6 SWAP10 SWAP9 SWAP7 SWAP10 PUSH1 0x80 DUP7 ADD SWAP1 DUP7 DUP3 SUB PUSH1 0x0 DUP9 ADD MSTORE PUSH2 0x2626 JUMP JUMPDEST SWAP9 PUSH1 0x20 DUP6 ADD MSTORE JUMP JUMPDEST PUSH2 0x269F PUSH2 0xDC SWAP5 PUSH2 0x26AE SWAP4 SWAP5 PUSH2 0x2D9E PUSH1 0x40 MLOAD SWAP1 JUMP JUMPDEST PUSH4 0xA7A87853 PUSH1 0xE0 SHL PUSH1 0x20 DUP3 ADD MSTORE SWAP6 DUP7 SWAP5 PUSH1 0x24 DUP7 ADD PUSH2 0x2D5B JUMP JUMPDEST SWAP2 SWAP3 SWAP2 SWAP1 PUSH1 0x0 SWAP1 PUSH1 0x0 NOT DUP2 DUP5 MULMOD SWAP3 DUP2 DUP2 MUL SWAP4 DUP5 DUP1 DUP3 LT SWAP2 SUB SUB SWAP3 PUSH2 0x2DDB PUSH1 0x0 PUSH2 0x771 JUMP JUMPDEST DUP5 EQ PUSH2 0x2EDD JUMPI DUP7 DUP5 LT ISZERO PUSH2 0x2EB9 JUMPI SWAP3 DUP7 PUSH2 0xF2 SWAP7 SWAP8 SWAP4 PUSH2 0x2E25 SWAP4 PUSH2 0x2E38 SWAP7 POP MULMOD DUP1 DUP7 SUB SWAP6 LT SWAP1 SUB PUSH1 0x1 PUSH2 0x2E12 DUP5 NOT PUSH2 0x492 DUP4 PUSH2 0x771 JUMP JUMPDEST DUP5 AND DUP1 DUP1 SWAP6 DIV SWAP7 DIV SWAP4 DUP1 PUSH1 0x0 SUB DIV ADD MUL SWAP1 JUMP JUMPDEST OR SWAP2 PUSH2 0x2E38 PUSH2 0x2E3C DUP3 PUSH2 0x2E38 PUSH1 0x3 PUSH2 0x771 JUMP JUMPDEST MUL SWAP1 JUMP JUMPDEST PUSH2 0x2E6D PUSH2 0x2EB3 PUSH2 0x2EAD PUSH2 0x2E9E PUSH2 0x2E8F PUSH2 0x2E80 PUSH2 0x2E71 PUSH1 0x2 SWAP8 PUSH2 0x2E5D DUP10 PUSH2 0x771 JUMP JUMPDEST XOR PUSH2 0x2E38 DUP12 DUP3 MUL PUSH2 0x2E6D DUP12 PUSH2 0x771 JUMP JUMPDEST SUB SWAP1 JUMP JUMPDEST PUSH2 0x2E38 DUP11 DUP3 MUL PUSH2 0x2E6D DUP11 PUSH2 0x771 JUMP JUMPDEST PUSH2 0x2E38 DUP10 DUP3 MUL PUSH2 0x2E6D DUP10 PUSH2 0x771 JUMP JUMPDEST PUSH2 0x2E38 DUP9 DUP3 MUL PUSH2 0x2E6D DUP9 PUSH2 0x771 JUMP JUMPDEST PUSH2 0x2E38 DUP8 DUP3 MUL PUSH2 0x2E6D DUP8 PUSH2 0x771 JUMP JUMPDEST DUP1 SWAP6 MUL SWAP1 JUMP JUMPDEST SWAP2 PUSH2 0x771 JUMP JUMPDEST DUP7 DUP5 PUSH2 0xBBB PUSH2 0x2EC7 PUSH1 0x40 MLOAD SWAP1 JUMP JUMPDEST PUSH4 0x1DCF3063 PUSH1 0xE2 SHL DUP2 MSTORE SWAP3 DUP4 SWAP3 PUSH1 0x4 DUP5 ADD PUSH2 0x343 JUMP JUMPDEST POP POP POP POP SWAP2 PUSH2 0xF2 SWAP2 SWAP3 PUSH2 0x1B02 JUMP JUMPDEST PUSH2 0xDC SWAP1 PUSH1 0x1 PUSH2 0x342D JUMP JUMPDEST SWAP1 PUSH1 0x0 DUP1 SWAP3 PUSH2 0x2F0F PUSH2 0x2F09 PUSH1 0x7F PUSH2 0x754 JUMP JUMPDEST DUP3 PUSH2 0x1AD3 JUMP JUMPDEST SWAP2 PUSH1 0x0 SWAP3 PUSH2 0x2F1F PUSH2 0x792 DUP6 PUSH2 0x771 JUMP JUMPDEST SUB PUSH2 0x30E8 JUMPI JUMPDEST POP PUSH2 0x2F33 PUSH2 0x2F09 PUSH1 0x3F PUSH2 0x754 JUMP JUMPDEST PUSH2 0x2F3F PUSH2 0x792 DUP5 PUSH2 0x771 JUMP JUMPDEST SUB PUSH2 0x30C6 JUMPI JUMPDEST PUSH2 0x2F52 PUSH2 0x2F09 PUSH1 0x1F PUSH2 0x754 JUMP JUMPDEST PUSH2 0x2F5E PUSH2 0x792 DUP5 PUSH2 0x771 JUMP JUMPDEST SUB PUSH2 0x30A4 JUMPI JUMPDEST PUSH2 0x2F71 PUSH2 0x2F09 PUSH1 0xF PUSH2 0x754 JUMP JUMPDEST PUSH2 0x2F7D PUSH2 0x792 DUP5 PUSH2 0x771 JUMP JUMPDEST SUB PUSH2 0x3082 JUMPI JUMPDEST PUSH2 0x2F90 PUSH2 0x2F09 PUSH1 0x7 PUSH2 0x754 JUMP JUMPDEST PUSH2 0x2F9C PUSH2 0x792 DUP5 PUSH2 0x771 JUMP JUMPDEST SUB PUSH2 0x3060 JUMPI JUMPDEST PUSH2 0x2FAF PUSH2 0x2F09 PUSH1 0x3 PUSH2 0x754 JUMP JUMPDEST PUSH2 0x2FBB PUSH2 0x792 DUP5 PUSH2 0x771 JUMP JUMPDEST SUB PUSH2 0x303E JUMPI JUMPDEST PUSH2 0x2FCB PUSH1 0x1 PUSH2 0x754 JUMP JUMPDEST SWAP2 PUSH2 0x2FD6 DUP4 DUP4 PUSH2 0x1AD3 JUMP JUMPDEST PUSH2 0x2FE2 PUSH2 0x792 DUP4 PUSH2 0x771 JUMP JUMPDEST SUB PUSH2 0x3015 JUMPI JUMPDEST PUSH2 0x2FF1 SWAP1 PUSH2 0x771 JUMP JUMPDEST DUP2 SUB PUSH2 0x2FFB JUMPI POP POP JUMP JUMPDEST PUSH2 0xF2 SWAP3 SWAP4 SWAP2 PUSH2 0x300A SWAP2 PUSH2 0x1AD3 JUMP JUMPDEST POP PUSH2 0x1EA6 PUSH1 0x1 PUSH2 0x771 JUMP JUMPDEST SWAP4 SWAP1 PUSH2 0x3036 PUSH2 0x302B PUSH2 0x2FF1 SWAP3 PUSH2 0x1EF4 PUSH1 0x2 PUSH2 0x754 JUMP JUMPDEST SWAP3 PUSH2 0x1EA6 PUSH1 0x2 PUSH2 0x771 JUMP JUMPDEST SWAP5 SWAP1 POP PUSH2 0x2FE8 JUMP JUMPDEST PUSH2 0x304F PUSH2 0x305A SWAP2 PUSH2 0x1EF4 PUSH1 0x4 PUSH2 0x754 JUMP JUMPDEST SWAP4 PUSH2 0x1EA6 PUSH1 0x4 PUSH2 0x771 JUMP JUMPDEST SWAP3 PUSH2 0x2FC1 JUMP JUMPDEST PUSH2 0x3071 PUSH2 0x307C SWAP2 PUSH2 0x1EF4 PUSH1 0x8 PUSH2 0x754 JUMP JUMPDEST SWAP4 PUSH2 0x1EA6 PUSH1 0x8 PUSH2 0x771 JUMP JUMPDEST SWAP3 PUSH2 0x2FA2 JUMP JUMPDEST PUSH2 0x3093 PUSH2 0x309E SWAP2 PUSH2 0x1EF4 PUSH1 0x10 PUSH2 0x754 JUMP JUMPDEST SWAP4 PUSH2 0x1EA6 PUSH1 0x10 PUSH2 0x771 JUMP JUMPDEST SWAP3 PUSH2 0x2F83 JUMP JUMPDEST PUSH2 0x30B5 PUSH2 0x30C0 SWAP2 PUSH2 0x1EF4 PUSH1 0x20 PUSH2 0x754 JUMP JUMPDEST SWAP4 PUSH2 0x1EA6 PUSH1 0x20 PUSH2 0x771 JUMP JUMPDEST SWAP3 PUSH2 0x2F64 JUMP JUMPDEST PUSH2 0x30D7 PUSH2 0x30E2 SWAP2 PUSH2 0x1EF4 PUSH1 0x40 PUSH2 0x754 JUMP JUMPDEST SWAP4 PUSH2 0x1EA6 PUSH1 0x40 PUSH2 0x771 JUMP JUMPDEST SWAP3 PUSH2 0x2F45 JUMP JUMPDEST SWAP4 POP PUSH2 0x30FB PUSH2 0x3106 SWAP2 PUSH2 0x1EF4 PUSH1 0x80 PUSH2 0x754 JUMP JUMPDEST SWAP4 PUSH2 0x1EA6 PUSH1 0x80 PUSH2 0x771 JUMP JUMPDEST SWAP3 CODESIZE PUSH2 0x2F25 JUMP JUMPDEST PUSH2 0xF2 PUSH2 0xF2 PUSH2 0xF2 SWAP3 PUSH8 0xFFFFFFFFFFFFFFFF AND SWAP1 JUMP JUMPDEST PUSH2 0xF2 PUSH2 0xF2 PUSH2 0xF2 SWAP3 PUSH2 0xFFFF AND SWAP1 JUMP JUMPDEST PUSH2 0xF2 SWAP1 PUSH1 0x0 SWAP1 DUP2 PUSH2 0x314D PUSH1 0x1 PUSH1 0x1 PUSH1 0x80 SHL SUB PUSH2 0x21ED JUMP JUMPDEST DUP3 AND SWAP3 PUSH1 0x0 SWAP4 PUSH2 0x315F PUSH2 0x792 DUP7 PUSH2 0x771 JUMP JUMPDEST GT ISZERO PUSH2 0x3354 JUMPI POP PUSH2 0x3174 SWAP1 PUSH2 0x1EA6 PUSH1 0x80 PUSH2 0x771 JUMP JUMPDEST PUSH2 0x3185 PUSH8 0xFFFFFFFFFFFFFFFF PUSH2 0x310D JUMP JUMPDEST DUP3 AND PUSH2 0x3193 PUSH2 0x792 DUP6 PUSH2 0x771 JUMP JUMPDEST GT ISZERO PUSH2 0x333F JUMPI PUSH2 0x31A7 SWAP1 PUSH2 0x1EA6 PUSH1 0x40 PUSH2 0x771 JUMP JUMPDEST PUSH2 0x31B4 PUSH4 0xFFFFFFFF PUSH2 0xDCE JUMP JUMPDEST DUP3 AND PUSH2 0x31C2 PUSH2 0x792 DUP6 PUSH2 0x771 JUMP JUMPDEST GT ISZERO PUSH2 0x332A JUMPI PUSH2 0x31D6 SWAP1 PUSH2 0x1EA6 PUSH1 0x20 PUSH2 0x771 JUMP JUMPDEST PUSH2 0x31E1 PUSH2 0xFFFF PUSH2 0x3124 JUMP JUMPDEST DUP3 AND PUSH2 0x31EF PUSH2 0x792 DUP6 PUSH2 0x771 JUMP JUMPDEST GT ISZERO PUSH2 0x3315 JUMPI PUSH2 0x3203 SWAP1 PUSH2 0x1EA6 PUSH1 0x10 PUSH2 0x771 JUMP JUMPDEST PUSH2 0x320D PUSH1 0xFF PUSH2 0x1B1B JUMP JUMPDEST DUP3 AND PUSH2 0x321B PUSH2 0x792 DUP6 PUSH2 0x771 JUMP JUMPDEST GT ISZERO PUSH2 0x3300 JUMPI PUSH2 0x322F SWAP1 PUSH2 0x1EA6 PUSH1 0x8 PUSH2 0x771 JUMP JUMPDEST PUSH2 0x3239 PUSH1 0xF PUSH2 0x771 JUMP JUMPDEST DUP3 AND PUSH2 0x3247 PUSH2 0x792 DUP6 PUSH2 0x771 JUMP JUMPDEST GT ISZERO PUSH2 0x32EB JUMPI PUSH2 0x325B SWAP1 PUSH2 0x1EA6 PUSH1 0x4 PUSH2 0x771 JUMP JUMPDEST PUSH2 0x3265 PUSH1 0x3 PUSH2 0x771 JUMP JUMPDEST DUP3 AND PUSH2 0x3273 PUSH2 0x792 DUP6 PUSH2 0x771 JUMP JUMPDEST GT ISZERO PUSH2 0x32D5 JUMPI PUSH2 0x3287 SWAP1 PUSH2 0x1EA6 PUSH1 0x2 PUSH2 0x771 JUMP JUMPDEST SWAP2 JUMPDEST PUSH2 0x32A1 PUSH2 0x792 PUSH2 0x3299 PUSH1 0x1 PUSH2 0x771 JUMP JUMPDEST DUP5 AND SWAP3 PUSH2 0x771 JUMP JUMPDEST GT ISZERO PUSH2 0x32C1 JUMPI POP PUSH2 0x32B6 SWAP1 PUSH2 0x1EA6 PUSH1 0x1 PUSH2 0x771 JUMP JUMPDEST PUSH2 0x27F4 PUSH2 0x100 PUSH2 0x771 JUMP JUMPDEST PUSH2 0x32CF SWAP1 PUSH2 0x1EF4 PUSH1 0x1 PUSH2 0x754 JUMP JUMPDEST POP PUSH2 0x32B6 JUMP JUMPDEST SWAP2 SWAP1 PUSH2 0x32E5 SWAP1 PUSH2 0x1EF4 PUSH1 0x2 PUSH2 0x754 JUMP JUMPDEST SWAP1 PUSH2 0x3289 JUMP JUMPDEST SWAP1 PUSH2 0x32FA SWAP1 PUSH2 0x1EF4 PUSH1 0x4 PUSH2 0x754 JUMP JUMPDEST SWAP1 PUSH2 0x325B JUMP JUMPDEST SWAP1 PUSH2 0x330F SWAP1 PUSH2 0x1EF4 PUSH1 0x8 PUSH2 0x754 JUMP JUMPDEST SWAP1 PUSH2 0x322F JUMP JUMPDEST SWAP1 PUSH2 0x3324 SWAP1 PUSH2 0x1EF4 PUSH1 0x10 PUSH2 0x754 JUMP JUMPDEST SWAP1 PUSH2 0x3203 JUMP JUMPDEST SWAP1 PUSH2 0x3339 SWAP1 PUSH2 0x1EF4 PUSH1 0x20 PUSH2 0x754 JUMP JUMPDEST SWAP1 PUSH2 0x31D6 JUMP JUMPDEST SWAP1 PUSH2 0x334E SWAP1 PUSH2 0x1EF4 PUSH1 0x40 PUSH2 0x754 JUMP JUMPDEST SWAP1 PUSH2 0x31A7 JUMP JUMPDEST SWAP2 PUSH2 0x3364 SWAP2 POP PUSH2 0x1EF4 PUSH1 0x80 PUSH2 0x754 JUMP JUMPDEST SWAP1 PUSH2 0x3174 JUMP JUMPDEST SWAP1 PUSH2 0x2256 PUSH2 0x3381 PUSH2 0x2218 PUSH2 0xF2 SWAP6 SWAP5 PUSH2 0x2212 PUSH1 0x0 SWAP1 JUMP JUMPDEST SWAP2 PUSH2 0x228A JUMP JUMPDEST PUSH2 0x199 SWAP1 PUSH2 0x796 PUSH2 0x895 PUSH2 0xF2 SWAP5 PUSH1 0xFF AND SWAP1 JUMP JUMPDEST PUSH2 0xF2 SWAP2 PUSH2 0xB32 SWAP2 PUSH2 0x33CA PUSH2 0x33C5 PUSH2 0x33B1 PUSH2 0x767 JUMP JUMPDEST PUSH2 0x33BF DUP2 PUSH2 0xB2D PUSH1 0x1 PUSH2 0x771 JUMP JUMPDEST SWAP4 PUSH2 0x3387 JUMP JUMPDEST PUSH2 0x21ED JUMP JUMPDEST SWAP2 PUSH2 0x2DB7 JUMP JUMPDEST PUSH2 0xF2 SWAP3 PUSH2 0x33CA PUSH2 0x33C5 PUSH2 0xB32 SWAP5 PUSH2 0x33E6 PUSH1 0x0 SWAP1 JUMP JUMPDEST POP PUSH2 0x33EF PUSH2 0x767 JUMP JUMPDEST SWAP1 PUSH2 0x3387 JUMP JUMPDEST PUSH1 0x0 DUP1 SWAP2 PUSH2 0x340B PUSH11 0x636F6E736F6C652E6C6F67 SWAP1 JUMP JUMPDEST PUSH1 0x20 DUP3 MLOAD SWAP3 ADD SWAP1 GAS STATICCALL POP JUMP JUMPDEST PUSH4 0x4E487B71 PUSH1 0xE0 SHL PUSH1 0x0 MSTORE PUSH1 0x51 PUSH1 0x4 MSTORE PUSH1 0x24 PUSH1 0x0 REVERT JUMPDEST PUSH1 0x1 SUB PUSH2 0x3417 JUMPI PUSH2 0xDC SWAP1 PUSH2 0x33F5 JUMP INVALID LOG2 PUSH5 0x6970667358 0x22 SLT KECCAK256 MCOPY 0xA9 0xD DUP5 0xE4 0xFB 0xE7 SELFDESTRUCT PUSH20 0x1EFBE530BA5429B4D63F1E20EE25ECC0A72B1300 0xF7 CALLDATALOAD 0xC1 PUSH5 0x736F6C6343 STOP ADDMOD XOR STOP CALLER "},"methodIdentifiers":{"composition()":"d456b5dd","liquidity()":"1a686502","mint(address,uint32,uint128,bytes)":"428716f8","onERC1155BatchReceived(address,address,uint256[],uint256[],bytes)":"bc197c81","onERC1155Received(address,address,uint256,uint256,bytes)":"f23a6e61","slot()":"1a88bc66","supportsInterface(bytes4)":"01ffc9a7","swap(uint256,uint256,bool,bytes)":"dd42d4c6","token0()":"0dfe1681","token1()":"d21220a7"}}}}}