{"contracts/PoolManager.sol":{"PoolManager":{"abi":[{"inputs":[{"internalType":"uint32","name":"target_bin","type":"uint32"},{"internalType":"uint256","name":"amount0","type":"uint256"},{"internalType":"uint256","name":"amount1","type":"uint256"},{"internalType":"bytes","name":"data","type":"bytes"}],"name":"PoolMintCallback","outputs":[],"stateMutability":"nonpayable","type":"function"},{"inputs":[{"internalType":"uint256[]","name":"bins","type":"uint256[]"},{"internalType":"uint256[]","name":"amount0","type":"uint256[]"},{"internalType":"uint256[]","name":"amount1","type":"uint256[]"},{"internalType":"bytes","name":"data","type":"bytes"},{"internalType":"bool","name":"zeroforone","type":"bool"}],"name":"PoolSwapCallback","outputs":[],"stateMutability":"nonpayable","type":"function"},{"inputs":[{"internalType":"address","name":"pool_address","type":"address"},{"internalType":"uint32","name":"target_bin","type":"uint32"},{"internalType":"uint128","name":"amount","type":"uint128"},{"internalType":"bytes","name":"data","type":"bytes"}],"name":"mint","outputs":[{"internalType":"uint256","name":"","type":"uint256"},{"internalType":"uint256","name":"","type":"uint256"}],"stateMutability":"nonpayable","type":"function"},{"inputs":[{"internalType":"address","name":"pool_address","type":"address"},{"internalType":"uint256","name":"expectedAmount","type":"uint256"},{"internalType":"uint256","name":"limitPrice","type":"uint256"},{"internalType":"bool","name":"zeroforone","type":"bool"},{"internalType":"bytes","name":"data","type":"bytes"}],"name":"swap","outputs":[{"internalType":"uint256","name":"","type":"uint256"},{"internalType":"uint256","name":"","type":"uint256"}],"stateMutability":"nonpayable","type":"function"}],"evm":{"bytecode":{"linkReferences":{},"object":"60806040523461001a57604051610a666100208239610a6690f35b600080fdfe6080604052600436101561001257600080fd5b60003560e01c80632ead224d14610052578063428716f81461004d57806363439a55146100485763859e32a703610078576103fb565b61026a565b61021d565b61015f565b6001600160a01b031690565b90565b6001600160a01b0381165b0361007857565b600080fd5b9050359061008a82610066565b565b80610071565b9050359061008a8261008c565b801515610071565b9050359061008a8261009f565b909182601f830112156100785781359167ffffffffffffffff831161007857602001926001830284011161007857565b91909160a081840312610078576100fb838261007d565b926101098160208401610092565b926101178260408501610092565b9261012583606083016100a7565b92608082013567ffffffffffffffff81116100785761014492016100b4565b9091565b9052565b90815260408101929161008a9160200152565b346100785761017e6101723660046100e4565b949390939291926104ef565b9061019461018b60405190565b9283928361014c565b0390f35b63ffffffff8116610071565b9050359061008a82610198565b6001600160801b038116610071565b9050359061008a826101b1565b90608082820312610078576101e2818361007d565b926101f082602085016101a4565b926101fe83604083016101c0565b92606082013567ffffffffffffffff81116100785761014492016100b4565b346100785761017e6102303660046101cd565b939290926105c8565b906080828203126100785761024e81836101a4565b9261025c8260208501610092565b926101fe8360408301610092565b346100785761028661027d366004610239565b939290926106e6565b604051005b634e487b7160e01b600052604160045260246000fd5b90601f01601f1916810190811067ffffffffffffffff8211176102c357604052565b61028b565b9061008a6102d560405190565b92836102a1565b67ffffffffffffffff81116102c35760208091020190565b90929192610309610304826102dc565b6102c8565b938185526020808601920283019281841161007857915b83831061032d5750505050565b6020809161033b8486610092565b815201920191610320565b9080601f8301121561007857816020610063933591016102f4565b9160a08383031261007857823567ffffffffffffffff81116100785782610389918501610346565b92602081013567ffffffffffffffff811161007857836103aa918301610346565b92604082013567ffffffffffffffff811161007857816103cb918401610346565b92606083013567ffffffffffffffff811161007857826103f26080946100639387016100b4565b949095016100a7565b346100785761028661040e366004610361565b949390939291926108c5565b61006390610057906001600160a01b031682565b6100639061041a565b6100639061042e565b9050519061008a8261008c565b9190604083820312610078576100639060206104698286610440565b9401610440565b90826000939282370152565b919061049a81610493816104a49560209181520190565b8095610470565b601f01601f191690565b0190565b90939161006395936104cd6104d6926104c660808601986000870152565b6020850152565b15156040830152565b606081850391015261047c565b6040513d6000823e3d90fd5b6040949695929161053961051561051060009461050a600090565b50610437565b610437565b9461051f60405190565b998a9788968795636ea16a6360e11b8752600487016104a8565b03925af1801561057d57600092839161055157509190565b905061014491925060403d604011610576575b61056e81836102a1565b81019061044d565b503d610564565b6104e3565b90939161006395936105b86104d6926105ab608086019860008701906001600160a01b03169052565b63ffffffff166020850152565b6001600160801b03166040830152565b9160006105e06105106040969598979861050a600090565b926105396105ed60405190565b98899687958694630850e2df60e31b86523360048701610582565b91906060838203126100785761064990604061062460606102c8565b9461062f838261007d565b865261063e836020830161007d565b60208701520161007d565b6040830152565b906060828203126100785761006391610608565b600091031261007857565b6100636100636100639263ffffffff1690565b6101489061066f565b91936106d26106d99296946106c861006399976106b860a088019a60008901906001600160a01b03169052565b6001600160a01b03166020870152565b6040850190610682565b6060830152565b608081850391015261047c565b939291926106f681840184610650565b9261070c6105108086516001600160a01b031690565b63f242432a94604081019461072886516001600160a01b031690565b833b1561007857899361075460008a6107618a8a849861074760405190565b9b8c998a98899760e01b90565b875233906004880161068b565b03925af190811561057d5761051060206105109261079f95610791956107f3575b5001516001600160a01b031690565b93516001600160a01b031690565b93833b15610078576107ca610754936000979388946107bd60405190565b9a8b998a98899760e01b90565b03925af1801561057d576107db5750565b61008a9060006107eb81836102a1565b810190610664565b6108039060006107eb81836102a1565b38610782565b90610829610822610818845190565b8084529260200190565b9260200190565b9060005b81811061083a5750505090565b9091926108576108506001928651815260200190565b9460200190565b92910161082d565b94926100639694916108a99161089c6108b79561088c60a08b019460008c01906001600160a01b03169052565b6001600160a01b031660208a0152565b8782036040890152610809565b908582036060870152610809565b92608081850391015261047c565b9492939091936108d782820182610650565b9315610993576108f26105108086516001600160a01b031690565b632eb2c2d694604081019461090e86516001600160a01b031690565b833b1561007857899361092d60008a6109398a8a849861074760405190565b8752336004880161085f565b03925af190811561057d5761051060206105109261096895610791956107f3575001516001600160a01b031690565b93833b15610078576107ca610986936000979388946107bd60405190565b875233906004880161085f565b6109a86105108086516001600160a01b031690565b632eb2c2d69460408101946109c486516001600160a01b031690565b833b1561007857899361098660008a6109e38a8a849861074760405190565b03925af190811561057d57610510602061051092610a1295610791956107f3575001516001600160a01b031690565b93833b15610078576107ca61092d936000979388946107bd6040519056fea2646970667358221220801d73515b02317e2da6eb1cd00b4752c98dc6479ffeeafa1cedc4551507f59c64736f6c63430008180033","opcodes":"PUSH1 0x80 PUSH1 0x40 MSTORE CALLVALUE PUSH2 0x1A JUMPI PUSH1 0x40 MLOAD PUSH2 0xA66 PUSH2 0x20 DUP3 CODECOPY PUSH2 0xA66 SWAP1 RETURN JUMPDEST PUSH1 0x0 DUP1 REVERT INVALID PUSH1 0x80 PUSH1 0x40 MSTORE PUSH1 0x4 CALLDATASIZE LT ISZERO PUSH2 0x12 JUMPI PUSH1 0x0 DUP1 REVERT JUMPDEST PUSH1 0x0 CALLDATALOAD PUSH1 0xE0 SHR DUP1 PUSH4 0x2EAD224D EQ PUSH2 0x52 JUMPI DUP1 PUSH4 0x428716F8 EQ PUSH2 0x4D JUMPI DUP1 PUSH4 0x63439A55 EQ PUSH2 0x48 JUMPI PUSH4 0x859E32A7 SUB PUSH2 0x78 JUMPI PUSH2 0x3FB JUMP JUMPDEST PUSH2 0x26A JUMP JUMPDEST PUSH2 0x21D JUMP JUMPDEST PUSH2 0x15F JUMP JUMPDEST PUSH1 0x1 PUSH1 0x1 PUSH1 0xA0 SHL SUB AND SWAP1 JUMP JUMPDEST SWAP1 JUMP JUMPDEST PUSH1 0x1 PUSH1 0x1 PUSH1 0xA0 SHL SUB DUP2 AND JUMPDEST SUB PUSH2 0x78 JUMPI JUMP JUMPDEST PUSH1 0x0 DUP1 REVERT JUMPDEST SWAP1 POP CALLDATALOAD SWAP1 PUSH2 0x8A DUP3 PUSH2 0x66 JUMP JUMPDEST JUMP JUMPDEST DUP1 PUSH2 0x71 JUMP JUMPDEST SWAP1 POP CALLDATALOAD SWAP1 PUSH2 0x8A DUP3 PUSH2 0x8C JUMP JUMPDEST DUP1 ISZERO ISZERO PUSH2 0x71 JUMP JUMPDEST SWAP1 POP CALLDATALOAD SWAP1 PUSH2 0x8A DUP3 PUSH2 0x9F JUMP JUMPDEST SWAP1 SWAP2 DUP3 PUSH1 0x1F DUP4 ADD SLT ISZERO PUSH2 0x78 JUMPI DUP2 CALLDATALOAD SWAP2 PUSH8 0xFFFFFFFFFFFFFFFF DUP4 GT PUSH2 0x78 JUMPI PUSH1 0x20 ADD SWAP3 PUSH1 0x1 DUP4 MUL DUP5 ADD GT PUSH2 0x78 JUMPI JUMP JUMPDEST SWAP2 SWAP1 SWAP2 PUSH1 0xA0 DUP2 DUP5 SUB SLT PUSH2 0x78 JUMPI PUSH2 0xFB DUP4 DUP3 PUSH2 0x7D JUMP JUMPDEST SWAP3 PUSH2 0x109 DUP2 PUSH1 0x20 DUP5 ADD PUSH2 0x92 JUMP JUMPDEST SWAP3 PUSH2 0x117 DUP3 PUSH1 0x40 DUP6 ADD PUSH2 0x92 JUMP JUMPDEST SWAP3 PUSH2 0x125 DUP4 PUSH1 0x60 DUP4 ADD PUSH2 0xA7 JUMP JUMPDEST SWAP3 PUSH1 0x80 DUP3 ADD CALLDATALOAD PUSH8 0xFFFFFFFFFFFFFFFF DUP2 GT PUSH2 0x78 JUMPI PUSH2 0x144 SWAP3 ADD PUSH2 0xB4 JUMP JUMPDEST SWAP1 SWAP2 JUMP JUMPDEST SWAP1 MSTORE JUMP JUMPDEST SWAP1 DUP2 MSTORE PUSH1 0x40 DUP2 ADD SWAP3 SWAP2 PUSH2 0x8A SWAP2 PUSH1 0x20 ADD MSTORE JUMP JUMPDEST CALLVALUE PUSH2 0x78 JUMPI PUSH2 0x17E PUSH2 0x172 CALLDATASIZE PUSH1 0x4 PUSH2 0xE4 JUMP JUMPDEST SWAP5 SWAP4 SWAP1 SWAP4 SWAP3 SWAP2 SWAP3 PUSH2 0x4EF JUMP JUMPDEST SWAP1 PUSH2 0x194 PUSH2 0x18B PUSH1 0x40 MLOAD SWAP1 JUMP JUMPDEST SWAP3 DUP4 SWAP3 DUP4 PUSH2 0x14C JUMP JUMPDEST SUB SWAP1 RETURN JUMPDEST PUSH4 0xFFFFFFFF DUP2 AND PUSH2 0x71 JUMP JUMPDEST SWAP1 POP CALLDATALOAD SWAP1 PUSH2 0x8A DUP3 PUSH2 0x198 JUMP JUMPDEST PUSH1 0x1 PUSH1 0x1 PUSH1 0x80 SHL SUB DUP2 AND PUSH2 0x71 JUMP JUMPDEST SWAP1 POP CALLDATALOAD SWAP1 PUSH2 0x8A DUP3 PUSH2 0x1B1 JUMP JUMPDEST SWAP1 PUSH1 0x80 DUP3 DUP3 SUB SLT PUSH2 0x78 JUMPI PUSH2 0x1E2 DUP2 DUP4 PUSH2 0x7D JUMP JUMPDEST SWAP3 PUSH2 0x1F0 DUP3 PUSH1 0x20 DUP6 ADD PUSH2 0x1A4 JUMP JUMPDEST SWAP3 PUSH2 0x1FE DUP4 PUSH1 0x40 DUP4 ADD PUSH2 0x1C0 JUMP JUMPDEST SWAP3 PUSH1 0x60 DUP3 ADD CALLDATALOAD PUSH8 0xFFFFFFFFFFFFFFFF DUP2 GT PUSH2 0x78 JUMPI PUSH2 0x144 SWAP3 ADD PUSH2 0xB4 JUMP JUMPDEST CALLVALUE PUSH2 0x78 JUMPI PUSH2 0x17E PUSH2 0x230 CALLDATASIZE PUSH1 0x4 PUSH2 0x1CD JUMP JUMPDEST SWAP4 SWAP3 SWAP1 SWAP3 PUSH2 0x5C8 JUMP JUMPDEST SWAP1 PUSH1 0x80 DUP3 DUP3 SUB SLT PUSH2 0x78 JUMPI PUSH2 0x24E DUP2 DUP4 PUSH2 0x1A4 JUMP JUMPDEST SWAP3 PUSH2 0x25C DUP3 PUSH1 0x20 DUP6 ADD PUSH2 0x92 JUMP JUMPDEST SWAP3 PUSH2 0x1FE DUP4 PUSH1 0x40 DUP4 ADD PUSH2 0x92 JUMP JUMPDEST CALLVALUE PUSH2 0x78 JUMPI PUSH2 0x286 PUSH2 0x27D CALLDATASIZE PUSH1 0x4 PUSH2 0x239 JUMP JUMPDEST SWAP4 SWAP3 SWAP1 SWAP3 PUSH2 0x6E6 JUMP JUMPDEST PUSH1 0x40 MLOAD STOP JUMPDEST PUSH4 0x4E487B71 PUSH1 0xE0 SHL PUSH1 0x0 MSTORE PUSH1 0x41 PUSH1 0x4 MSTORE PUSH1 0x24 PUSH1 0x0 REVERT JUMPDEST SWAP1 PUSH1 0x1F ADD PUSH1 0x1F NOT AND DUP2 ADD SWAP1 DUP2 LT PUSH8 0xFFFFFFFFFFFFFFFF DUP3 GT OR PUSH2 0x2C3 JUMPI PUSH1 0x40 MSTORE JUMP JUMPDEST PUSH2 0x28B JUMP JUMPDEST SWAP1 PUSH2 0x8A PUSH2 0x2D5 PUSH1 0x40 MLOAD SWAP1 JUMP JUMPDEST SWAP3 DUP4 PUSH2 0x2A1 JUMP JUMPDEST PUSH8 0xFFFFFFFFFFFFFFFF DUP2 GT PUSH2 0x2C3 JUMPI PUSH1 0x20 DUP1 SWAP2 MUL ADD SWAP1 JUMP JUMPDEST SWAP1 SWAP3 SWAP2 SWAP3 PUSH2 0x309 PUSH2 0x304 DUP3 PUSH2 0x2DC JUMP JUMPDEST PUSH2 0x2C8 JUMP JUMPDEST SWAP4 DUP2 DUP6 MSTORE PUSH1 0x20 DUP1 DUP7 ADD SWAP3 MUL DUP4 ADD SWAP3 DUP2 DUP5 GT PUSH2 0x78 JUMPI SWAP2 JUMPDEST DUP4 DUP4 LT PUSH2 0x32D JUMPI POP POP POP POP JUMP JUMPDEST PUSH1 0x20 DUP1 SWAP2 PUSH2 0x33B DUP5 DUP7 PUSH2 0x92 JUMP JUMPDEST DUP2 MSTORE ADD SWAP3 ADD SWAP2 PUSH2 0x320 JUMP JUMPDEST SWAP1 DUP1 PUSH1 0x1F DUP4 ADD SLT ISZERO PUSH2 0x78 JUMPI DUP2 PUSH1 0x20 PUSH2 0x63 SWAP4 CALLDATALOAD SWAP2 ADD PUSH2 0x2F4 JUMP JUMPDEST SWAP2 PUSH1 0xA0 DUP4 DUP4 SUB SLT PUSH2 0x78 JUMPI DUP3 CALLDATALOAD PUSH8 0xFFFFFFFFFFFFFFFF DUP2 GT PUSH2 0x78 JUMPI DUP3 PUSH2 0x389 SWAP2 DUP6 ADD PUSH2 0x346 JUMP JUMPDEST SWAP3 PUSH1 0x20 DUP2 ADD CALLDATALOAD PUSH8 0xFFFFFFFFFFFFFFFF DUP2 GT PUSH2 0x78 JUMPI DUP4 PUSH2 0x3AA SWAP2 DUP4 ADD PUSH2 0x346 JUMP JUMPDEST SWAP3 PUSH1 0x40 DUP3 ADD CALLDATALOAD PUSH8 0xFFFFFFFFFFFFFFFF DUP2 GT PUSH2 0x78 JUMPI DUP2 PUSH2 0x3CB SWAP2 DUP5 ADD PUSH2 0x346 JUMP JUMPDEST SWAP3 PUSH1 0x60 DUP4 ADD CALLDATALOAD PUSH8 0xFFFFFFFFFFFFFFFF DUP2 GT PUSH2 0x78 JUMPI DUP3 PUSH2 0x3F2 PUSH1 0x80 SWAP5 PUSH2 0x63 SWAP4 DUP8 ADD PUSH2 0xB4 JUMP JUMPDEST SWAP5 SWAP1 SWAP6 ADD PUSH2 0xA7 JUMP JUMPDEST CALLVALUE PUSH2 0x78 JUMPI PUSH2 0x286 PUSH2 0x40E CALLDATASIZE PUSH1 0x4 PUSH2 0x361 JUMP JUMPDEST SWAP5 SWAP4 SWAP1 SWAP4 SWAP3 SWAP2 SWAP3 PUSH2 0x8C5 JUMP JUMPDEST PUSH2 0x63 SWAP1 PUSH2 0x57 SWAP1 PUSH1 0x1 PUSH1 0x1 PUSH1 0xA0 SHL SUB AND DUP3 JUMP JUMPDEST PUSH2 0x63 SWAP1 PUSH2 0x41A JUMP JUMPDEST PUSH2 0x63 SWAP1 PUSH2 0x42E JUMP JUMPDEST SWAP1 POP MLOAD SWAP1 PUSH2 0x8A DUP3 PUSH2 0x8C JUMP JUMPDEST SWAP2 SWAP1 PUSH1 0x40 DUP4 DUP3 SUB SLT PUSH2 0x78 JUMPI PUSH2 0x63 SWAP1 PUSH1 0x20 PUSH2 0x469 DUP3 DUP7 PUSH2 0x440 JUMP JUMPDEST SWAP5 ADD PUSH2 0x440 JUMP JUMPDEST SWAP1 DUP3 PUSH1 0x0 SWAP4 SWAP3 DUP3 CALLDATACOPY ADD MSTORE JUMP JUMPDEST SWAP2 SWAP1 PUSH2 0x49A DUP2 PUSH2 0x493 DUP2 PUSH2 0x4A4 SWAP6 PUSH1 0x20 SWAP2 DUP2 MSTORE ADD SWAP1 JUMP JUMPDEST DUP1 SWAP6 PUSH2 0x470 JUMP JUMPDEST PUSH1 0x1F ADD PUSH1 0x1F NOT AND SWAP1 JUMP JUMPDEST ADD SWAP1 JUMP JUMPDEST SWAP1 SWAP4 SWAP2 PUSH2 0x63 SWAP6 SWAP4 PUSH2 0x4CD PUSH2 0x4D6 SWAP3 PUSH2 0x4C6 PUSH1 0x80 DUP7 ADD SWAP9 PUSH1 0x0 DUP8 ADD MSTORE JUMP JUMPDEST PUSH1 0x20 DUP6 ADD MSTORE JUMP JUMPDEST ISZERO ISZERO PUSH1 0x40 DUP4 ADD MSTORE JUMP JUMPDEST PUSH1 0x60 DUP2 DUP6 SUB SWAP2 ADD MSTORE PUSH2 0x47C JUMP JUMPDEST PUSH1 0x40 MLOAD RETURNDATASIZE PUSH1 0x0 DUP3 RETURNDATACOPY RETURNDATASIZE SWAP1 REVERT JUMPDEST PUSH1 0x40 SWAP5 SWAP7 SWAP6 SWAP3 SWAP2 PUSH2 0x539 PUSH2 0x515 PUSH2 0x510 PUSH1 0x0 SWAP5 PUSH2 0x50A PUSH1 0x0 SWAP1 JUMP JUMPDEST POP PUSH2 0x437 JUMP JUMPDEST PUSH2 0x437 JUMP JUMPDEST SWAP5 PUSH2 0x51F PUSH1 0x40 MLOAD SWAP1 JUMP JUMPDEST SWAP10 DUP11 SWAP8 DUP9 SWAP7 DUP8 SWAP6 PUSH4 0x6EA16A63 PUSH1 0xE1 SHL DUP8 MSTORE PUSH1 0x4 DUP8 ADD PUSH2 0x4A8 JUMP JUMPDEST SUB SWAP3 GAS CALL DUP1 ISZERO PUSH2 0x57D JUMPI PUSH1 0x0 SWAP3 DUP4 SWAP2 PUSH2 0x551 JUMPI POP SWAP2 SWAP1 JUMP JUMPDEST SWAP1 POP PUSH2 0x144 SWAP2 SWAP3 POP PUSH1 0x40 RETURNDATASIZE PUSH1 0x40 GT PUSH2 0x576 JUMPI JUMPDEST PUSH2 0x56E DUP2 DUP4 PUSH2 0x2A1 JUMP JUMPDEST DUP2 ADD SWAP1 PUSH2 0x44D JUMP JUMPDEST POP RETURNDATASIZE PUSH2 0x564 JUMP JUMPDEST PUSH2 0x4E3 JUMP JUMPDEST SWAP1 SWAP4 SWAP2 PUSH2 0x63 SWAP6 SWAP4 PUSH2 0x5B8 PUSH2 0x4D6 SWAP3 PUSH2 0x5AB PUSH1 0x80 DUP7 ADD SWAP9 PUSH1 0x0 DUP8 ADD SWAP1 PUSH1 0x1 PUSH1 0x1 PUSH1 0xA0 SHL SUB AND SWAP1 MSTORE JUMP JUMPDEST PUSH4 0xFFFFFFFF AND PUSH1 0x20 DUP6 ADD MSTORE JUMP JUMPDEST PUSH1 0x1 PUSH1 0x1 PUSH1 0x80 SHL SUB AND PUSH1 0x40 DUP4 ADD MSTORE JUMP JUMPDEST SWAP2 PUSH1 0x0 PUSH2 0x5E0 PUSH2 0x510 PUSH1 0x40 SWAP7 SWAP6 SWAP9 SWAP8 SWAP9 PUSH2 0x50A PUSH1 0x0 SWAP1 JUMP JUMPDEST SWAP3 PUSH2 0x539 PUSH2 0x5ED PUSH1 0x40 MLOAD SWAP1 JUMP JUMPDEST SWAP9 DUP10 SWAP7 DUP8 SWAP6 DUP7 SWAP5 PUSH4 0x850E2DF PUSH1 0xE3 SHL DUP7 MSTORE CALLER PUSH1 0x4 DUP8 ADD PUSH2 0x582 JUMP JUMPDEST SWAP2 SWAP1 PUSH1 0x60 DUP4 DUP3 SUB SLT PUSH2 0x78 JUMPI PUSH2 0x649 SWAP1 PUSH1 0x40 PUSH2 0x624 PUSH1 0x60 PUSH2 0x2C8 JUMP JUMPDEST SWAP5 PUSH2 0x62F DUP4 DUP3 PUSH2 0x7D JUMP JUMPDEST DUP7 MSTORE PUSH2 0x63E DUP4 PUSH1 0x20 DUP4 ADD PUSH2 0x7D JUMP JUMPDEST PUSH1 0x20 DUP8 ADD MSTORE ADD PUSH2 0x7D JUMP JUMPDEST PUSH1 0x40 DUP4 ADD MSTORE JUMP JUMPDEST SWAP1 PUSH1 0x60 DUP3 DUP3 SUB SLT PUSH2 0x78 JUMPI PUSH2 0x63 SWAP2 PUSH2 0x608 JUMP JUMPDEST PUSH1 0x0 SWAP2 SUB SLT PUSH2 0x78 JUMPI JUMP JUMPDEST PUSH2 0x63 PUSH2 0x63 PUSH2 0x63 SWAP3 PUSH4 0xFFFFFFFF AND SWAP1 JUMP JUMPDEST PUSH2 0x148 SWAP1 PUSH2 0x66F JUMP JUMPDEST SWAP2 SWAP4 PUSH2 0x6D2 PUSH2 0x6D9 SWAP3 SWAP7 SWAP5 PUSH2 0x6C8 PUSH2 0x63 SWAP10 SWAP8 PUSH2 0x6B8 PUSH1 0xA0 DUP9 ADD SWAP11 PUSH1 0x0 DUP10 ADD SWAP1 PUSH1 0x1 PUSH1 0x1 PUSH1 0xA0 SHL SUB AND SWAP1 MSTORE JUMP JUMPDEST PUSH1 0x1 PUSH1 0x1 PUSH1 0xA0 SHL SUB AND PUSH1 0x20 DUP8 ADD MSTORE JUMP JUMPDEST PUSH1 0x40 DUP6 ADD SWAP1 PUSH2 0x682 JUMP JUMPDEST PUSH1 0x60 DUP4 ADD MSTORE JUMP JUMPDEST PUSH1 0x80 DUP2 DUP6 SUB SWAP2 ADD MSTORE PUSH2 0x47C JUMP JUMPDEST SWAP4 SWAP3 SWAP2 SWAP3 PUSH2 0x6F6 DUP2 DUP5 ADD DUP5 PUSH2 0x650 JUMP JUMPDEST SWAP3 PUSH2 0x70C PUSH2 0x510 DUP1 DUP7 MLOAD PUSH1 0x1 PUSH1 0x1 PUSH1 0xA0 SHL SUB AND SWAP1 JUMP JUMPDEST PUSH4 0xF242432A SWAP5 PUSH1 0x40 DUP2 ADD SWAP5 PUSH2 0x728 DUP7 MLOAD PUSH1 0x1 PUSH1 0x1 PUSH1 0xA0 SHL SUB AND SWAP1 JUMP JUMPDEST DUP4 EXTCODESIZE ISZERO PUSH2 0x78 JUMPI DUP10 SWAP4 PUSH2 0x754 PUSH1 0x0 DUP11 PUSH2 0x761 DUP11 DUP11 DUP5 SWAP9 PUSH2 0x747 PUSH1 0x40 MLOAD SWAP1 JUMP JUMPDEST SWAP12 DUP13 SWAP10 DUP11 SWAP9 DUP10 SWAP8 PUSH1 0xE0 SHL SWAP1 JUMP JUMPDEST DUP8 MSTORE CALLER SWAP1 PUSH1 0x4 DUP9 ADD PUSH2 0x68B JUMP JUMPDEST SUB SWAP3 GAS CALL SWAP1 DUP2 ISZERO PUSH2 0x57D JUMPI PUSH2 0x510 PUSH1 0x20 PUSH2 0x510 SWAP3 PUSH2 0x79F SWAP6 PUSH2 0x791 SWAP6 PUSH2 0x7F3 JUMPI JUMPDEST POP ADD MLOAD PUSH1 0x1 PUSH1 0x1 PUSH1 0xA0 SHL SUB AND SWAP1 JUMP JUMPDEST SWAP4 MLOAD PUSH1 0x1 PUSH1 0x1 PUSH1 0xA0 SHL SUB AND SWAP1 JUMP JUMPDEST SWAP4 DUP4 EXTCODESIZE ISZERO PUSH2 0x78 JUMPI PUSH2 0x7CA PUSH2 0x754 SWAP4 PUSH1 0x0 SWAP8 SWAP4 DUP9 SWAP5 PUSH2 0x7BD PUSH1 0x40 MLOAD SWAP1 JUMP JUMPDEST SWAP11 DUP12 SWAP10 DUP11 SWAP9 DUP10 SWAP8 PUSH1 0xE0 SHL SWAP1 JUMP JUMPDEST SUB SWAP3 GAS CALL DUP1 ISZERO PUSH2 0x57D JUMPI PUSH2 0x7DB JUMPI POP JUMP JUMPDEST PUSH2 0x8A SWAP1 PUSH1 0x0 PUSH2 0x7EB DUP2 DUP4 PUSH2 0x2A1 JUMP JUMPDEST DUP2 ADD SWAP1 PUSH2 0x664 JUMP JUMPDEST PUSH2 0x803 SWAP1 PUSH1 0x0 PUSH2 0x7EB DUP2 DUP4 PUSH2 0x2A1 JUMP JUMPDEST CODESIZE PUSH2 0x782 JUMP JUMPDEST SWAP1 PUSH2 0x829 PUSH2 0x822 PUSH2 0x818 DUP5 MLOAD SWAP1 JUMP JUMPDEST DUP1 DUP5 MSTORE SWAP3 PUSH1 0x20 ADD SWAP1 JUMP JUMPDEST SWAP3 PUSH1 0x20 ADD SWAP1 JUMP JUMPDEST SWAP1 PUSH1 0x0 JUMPDEST DUP2 DUP2 LT PUSH2 0x83A JUMPI POP POP POP SWAP1 JUMP JUMPDEST SWAP1 SWAP2 SWAP3 PUSH2 0x857 PUSH2 0x850 PUSH1 0x1 SWAP3 DUP7 MLOAD DUP2 MSTORE PUSH1 0x20 ADD SWAP1 JUMP JUMPDEST SWAP5 PUSH1 0x20 ADD SWAP1 JUMP JUMPDEST SWAP3 SWAP2 ADD PUSH2 0x82D JUMP JUMPDEST SWAP5 SWAP3 PUSH2 0x63 SWAP7 SWAP5 SWAP2 PUSH2 0x8A9 SWAP2 PUSH2 0x89C PUSH2 0x8B7 SWAP6 PUSH2 0x88C PUSH1 0xA0 DUP12 ADD SWAP5 PUSH1 0x0 DUP13 ADD SWAP1 PUSH1 0x1 PUSH1 0x1 PUSH1 0xA0 SHL SUB AND SWAP1 MSTORE JUMP JUMPDEST PUSH1 0x1 PUSH1 0x1 PUSH1 0xA0 SHL SUB AND PUSH1 0x20 DUP11 ADD MSTORE JUMP JUMPDEST DUP8 DUP3 SUB PUSH1 0x40 DUP10 ADD MSTORE PUSH2 0x809 JUMP JUMPDEST SWAP1 DUP6 DUP3 SUB PUSH1 0x60 DUP8 ADD MSTORE PUSH2 0x809 JUMP JUMPDEST SWAP3 PUSH1 0x80 DUP2 DUP6 SUB SWAP2 ADD MSTORE PUSH2 0x47C JUMP JUMPDEST SWAP5 SWAP3 SWAP4 SWAP1 SWAP2 SWAP4 PUSH2 0x8D7 DUP3 DUP3 ADD DUP3 PUSH2 0x650 JUMP JUMPDEST SWAP4 ISZERO PUSH2 0x993 JUMPI PUSH2 0x8F2 PUSH2 0x510 DUP1 DUP7 MLOAD PUSH1 0x1 PUSH1 0x1 PUSH1 0xA0 SHL SUB AND SWAP1 JUMP JUMPDEST PUSH4 0x2EB2C2D6 SWAP5 PUSH1 0x40 DUP2 ADD SWAP5 PUSH2 0x90E DUP7 MLOAD PUSH1 0x1 PUSH1 0x1 PUSH1 0xA0 SHL SUB AND SWAP1 JUMP JUMPDEST DUP4 EXTCODESIZE ISZERO PUSH2 0x78 JUMPI DUP10 SWAP4 PUSH2 0x92D PUSH1 0x0 DUP11 PUSH2 0x939 DUP11 DUP11 DUP5 SWAP9 PUSH2 0x747 PUSH1 0x40 MLOAD SWAP1 JUMP JUMPDEST DUP8 MSTORE CALLER PUSH1 0x4 DUP9 ADD PUSH2 0x85F JUMP JUMPDEST SUB SWAP3 GAS CALL SWAP1 DUP2 ISZERO PUSH2 0x57D JUMPI PUSH2 0x510 PUSH1 0x20 PUSH2 0x510 SWAP3 PUSH2 0x968 SWAP6 PUSH2 0x791 SWAP6 PUSH2 0x7F3 JUMPI POP ADD MLOAD PUSH1 0x1 PUSH1 0x1 PUSH1 0xA0 SHL SUB AND SWAP1 JUMP JUMPDEST SWAP4 DUP4 EXTCODESIZE ISZERO PUSH2 0x78 JUMPI PUSH2 0x7CA PUSH2 0x986 SWAP4 PUSH1 0x0 SWAP8 SWAP4 DUP9 SWAP5 PUSH2 0x7BD PUSH1 0x40 MLOAD SWAP1 JUMP JUMPDEST DUP8 MSTORE CALLER SWAP1 PUSH1 0x4 DUP9 ADD PUSH2 0x85F JUMP JUMPDEST PUSH2 0x9A8 PUSH2 0x510 DUP1 DUP7 MLOAD PUSH1 0x1 PUSH1 0x1 PUSH1 0xA0 SHL SUB AND SWAP1 JUMP JUMPDEST PUSH4 0x2EB2C2D6 SWAP5 PUSH1 0x40 DUP2 ADD SWAP5 PUSH2 0x9C4 DUP7 MLOAD PUSH1 0x1 PUSH1 0x1 PUSH1 0xA0 SHL SUB AND SWAP1 JUMP JUMPDEST DUP4 EXTCODESIZE ISZERO PUSH2 0x78 JUMPI DUP10 SWAP4 PUSH2 0x986 PUSH1 0x0 DUP11 PUSH2 0x9E3 DUP11 DUP11 DUP5 SWAP9 PUSH2 0x747 PUSH1 0x40 MLOAD SWAP1 JUMP JUMPDEST SUB SWAP3 GAS CALL SWAP1 DUP2 ISZERO PUSH2 0x57D JUMPI PUSH2 0x510 PUSH1 0x20 PUSH2 0x510 SWAP3 PUSH2 0xA12 SWAP6 PUSH2 0x791 SWAP6 PUSH2 0x7F3 JUMPI POP ADD MLOAD PUSH1 0x1 PUSH1 0x1 PUSH1 0xA0 SHL SUB AND SWAP1 JUMP JUMPDEST SWAP4 DUP4 EXTCODESIZE ISZERO PUSH2 0x78 JUMPI PUSH2 0x7CA PUSH2 0x92D SWAP4 PUSH1 0x0 SWAP8 SWAP4 DUP9 SWAP5 PUSH2 0x7BD PUSH1 0x40 MLOAD SWAP1 JUMP INVALID LOG2 PUSH5 0x6970667358 0x22 SLT KECCAK256 DUP1 SAR PUSH20 0x515B02317E2DA6EB1CD00B4752C98DC6479FFEEA STATICCALL SHR 0xED 0xC4 SSTORE ISZERO SMOD CREATE2 SWAP13 PUSH5 0x736F6C6343 STOP ADDMOD XOR STOP CALLER "},"methodIdentifiers":{"PoolMintCallback(uint32,uint256,uint256,bytes)":"63439a55","PoolSwapCallback(uint256[],uint256[],uint256[],bytes,bool)":"859e32a7","mint(address,uint32,uint128,bytes)":"428716f8","swap(address,uint256,uint256,bool,bytes)":"2ead224d"}}}}}