{
  "_format": "hh-sol-artifact-1",
  "contractName": "PoolManager",
  "sourceName": "contracts/PoolManager.sol",
  "abi": [
    {
      "anonymous": false,
      "inputs": [
        {
          "indexed": false,
          "internalType": "uint256",
          "name": "limitPrice",
          "type": "uint256"
        }
      ],
      "name": "CAO",
      "type": "event"
    },
    {
      "inputs": [
        {
          "internalType": "uint32",
          "name": "target_bin",
          "type": "uint32"
        },
        {
          "internalType": "uint256",
          "name": "amount0",
          "type": "uint256"
        },
        {
          "internalType": "uint256",
          "name": "amount1",
          "type": "uint256"
        },
        {
          "internalType": "bytes",
          "name": "data",
          "type": "bytes"
        }
      ],
      "name": "PoolMintCallback",
      "outputs": [],
      "stateMutability": "nonpayable",
      "type": "function"
    },
    {
      "inputs": [
        {
          "internalType": "uint256[]",
          "name": "bins",
          "type": "uint256[]"
        },
        {
          "internalType": "uint256[]",
          "name": "amount0",
          "type": "uint256[]"
        },
        {
          "internalType": "uint256[]",
          "name": "amount1",
          "type": "uint256[]"
        },
        {
          "internalType": "bytes",
          "name": "data",
          "type": "bytes"
        },
        {
          "internalType": "bool",
          "name": "zeroforone",
          "type": "bool"
        }
      ],
      "name": "PoolSwapCallback",
      "outputs": [],
      "stateMutability": "nonpayable",
      "type": "function"
    },
    {
      "inputs": [
        {
          "internalType": "address",
          "name": "pool_address",
          "type": "address"
        },
        {
          "internalType": "uint32",
          "name": "target_bin",
          "type": "uint32"
        },
        {
          "internalType": "uint128",
          "name": "amount",
          "type": "uint128"
        },
        {
          "internalType": "bytes",
          "name": "data",
          "type": "bytes"
        }
      ],
      "name": "mint",
      "outputs": [
        {
          "internalType": "uint256",
          "name": "",
          "type": "uint256"
        },
        {
          "internalType": "uint256",
          "name": "",
          "type": "uint256"
        }
      ],
      "stateMutability": "nonpayable",
      "type": "function"
    },
    {
      "inputs": [
        {
          "internalType": "address",
          "name": "pool_address",
          "type": "address"
        },
        {
          "internalType": "uint256",
          "name": "expectedAmount",
          "type": "uint256"
        },
        {
          "internalType": "uint256",
          "name": "limitPrice",
          "type": "uint256"
        },
        {
          "internalType": "bool",
          "name": "zeroforone",
          "type": "bool"
        },
        {
          "internalType": "bytes",
          "name": "data",
          "type": "bytes"
        }
      ],
      "name": "swap",
      "outputs": [
        {
          "internalType": "uint256",
          "name": "",
          "type": "uint256"
        },
        {
          "internalType": "uint256",
          "name": "",
          "type": "uint256"
        }
      ],
      "stateMutability": "nonpayable",
      "type": "function"
    }
  ],
  "bytecode": "0x60806040523461001a57604051610a9d6100208239610a9d90f35b600080fdfe6080604052600436101561001257600080fd5b60003560e01c80632ead224d14610052578063428716f81461004d57806363439a55146100485763859e32a703610078576103fb565b61026a565b61021d565b61015f565b6001600160a01b031690565b90565b6001600160a01b0381165b0361007857565b600080fd5b9050359061008a82610066565b565b80610071565b9050359061008a8261008c565b801515610071565b9050359061008a8261009f565b909182601f830112156100785781359167ffffffffffffffff831161007857602001926001830284011161007857565b91909160a081840312610078576100fb838261007d565b926101098160208401610092565b926101178260408501610092565b9261012583606083016100a7565b92608082013567ffffffffffffffff81116100785761014492016100b4565b9091565b9052565b90815260408101929161008a9160200152565b346100785761017e6101723660046100e4565b949390939291926104ef565b9061019461018b60405190565b9283928361014c565b0390f35b63ffffffff8116610071565b9050359061008a82610198565b6001600160801b038116610071565b9050359061008a826101b1565b90608082820312610078576101e2818361007d565b926101f082602085016101a4565b926101fe83604083016101c0565b92606082013567ffffffffffffffff81116100785761014492016100b4565b346100785761017e6102303660046101cd565b939290926105f9565b906080828203126100785761024e81836101a4565b9261025c8260208501610092565b926101fe8360408301610092565b346100785761028661027d366004610239565b9392909261071d565b604051005b634e487b7160e01b600052604160045260246000fd5b90601f01601f1916810190811067ffffffffffffffff8211176102c357604052565b61028b565b9061008a6102d560405190565b92836102a1565b67ffffffffffffffff81116102c35760208091020190565b90929192610309610304826102dc565b6102c8565b938185526020808601920283019281841161007857915b83831061032d5750505050565b6020809161033b8486610092565b815201920191610320565b9080601f8301121561007857816020610063933591016102f4565b9160a08383031261007857823567ffffffffffffffff81116100785782610389918501610346565b92602081013567ffffffffffffffff811161007857836103aa918301610346565b92604082013567ffffffffffffffff811161007857816103cb918401610346565b92606083013567ffffffffffffffff811161007857826103f26080946100639387016100b4565b949095016100a7565b346100785761028661040e366004610361565b949390939291926108fc565b61006390610057906001600160a01b031682565b6100639061041a565b6100639061042e565b9050519061008a8261008c565b9190604083820312610078576100639060206104698286610440565b9401610440565b90826000939282370152565b919061049a81610493816104a49560209181520190565b8095610470565b601f01601f191690565b0190565b90939161006395936104cd6104d6926104c660808601986000870152565b6020850152565b15156040830152565b606081850391015261047c565b6040513d6000823e3d90fd5b6040949695929161056a61054661054160009461050a600090565b507f0f64aca3ed0ac59f780bc873a011a63618325e4f5aae93e119ce67c33625c00261053560405190565b888152602090a1610437565b610437565b9461055060405190565b998a9788968795636ea16a6360e11b8752600487016104a8565b03925af180156105ae57600092839161058257509190565b905061014491925060403d6040116105a7575b61059f81836102a1565b81019061044d565b503d610595565b6104e3565b90939161006395936105e96104d6926105dc608086019860008701906001600160a01b03169052565b63ffffffff166020850152565b6001600160801b03166040830152565b91600061061761054160409695989798610611600090565b50610437565b9261056a61062460405190565b98899687958694630850e2df60e31b865233600487016105b3565b91906060838203126100785761068090604061065b60606102c8565b94610666838261007d565b8652610675836020830161007d565b60208701520161007d565b6040830152565b90606082820312610078576100639161063f565b600091031261007857565b6100636100636100639263ffffffff1690565b610148906106a6565b91936107096107109296946106ff61006399976106ef60a088019a60008901906001600160a01b03169052565b6001600160a01b03166020870152565b60408501906106b9565b6060830152565b608081850391015261047c565b9392919261072d81840184610687565b926107436105418086516001600160a01b031690565b63f242432a94604081019461075f86516001600160a01b031690565b833b1561007857899361078b60008a6107988a8a849861077e60405190565b9b8c998a98899760e01b90565b87523390600488016106c2565b03925af19081156105ae576105416020610541926107d6956107c89561082a575b5001516001600160a01b031690565b93516001600160a01b031690565b93833b156100785761080161078b936000979388946107f460405190565b9a8b998a98899760e01b90565b03925af180156105ae576108125750565b61008a90600061082281836102a1565b81019061069b565b61083a90600061082281836102a1565b386107b9565b9061086061085961084f845190565b8084529260200190565b9260200190565b9060005b8181106108715750505090565b90919261088e6108876001928651815260200190565b9460200190565b929101610864565b94926100639694916108e0916108d36108ee956108c360a08b019460008c01906001600160a01b03169052565b6001600160a01b031660208a0152565b8782036040890152610840565b908582036060870152610840565b92608081850391015261047c565b94929390919361090e82820182610687565b93156109ca576109296105418086516001600160a01b031690565b632eb2c2d694604081019461094586516001600160a01b031690565b833b1561007857899361096460008a6109708a8a849861077e60405190565b87523360048801610896565b03925af19081156105ae5761054160206105419261099f956107c89561082a575001516001600160a01b031690565b93833b15610078576108016109bd936000979388946107f460405190565b8752339060048801610896565b6109df6105418086516001600160a01b031690565b632eb2c2d69460408101946109fb86516001600160a01b031690565b833b156100785789936109bd60008a610a1a8a8a849861077e60405190565b03925af19081156105ae57610541602061054192610a49956107c89561082a575001516001600160a01b031690565b93833b1561007857610801610964936000979388946107f46040519056fea2646970667358221220b3c1d97bd915505abd76ecc39a7125712e4f6cb62a34af2873d5234d9f98a8bd64736f6c63430008180033",
  "linkReferences": {},
  "deployedLinkReferences": {}
}