{
  "_format": "hh-sol-artifact-1",
  "contractName": "Token",
  "sourceName": "contracts/Tokens/Token.sol",
  "abi": [
    {
      "inputs": [
        {
          "internalType": "string",
          "name": "uri",
          "type": "string"
        }
      ],
      "stateMutability": "nonpayable",
      "type": "constructor"
    },
    {
      "inputs": [
        {
          "internalType": "address",
          "name": "sender",
          "type": "address"
        },
        {
          "internalType": "uint256",
          "name": "balance",
          "type": "uint256"
        },
        {
          "internalType": "uint256",
          "name": "needed",
          "type": "uint256"
        },
        {
          "internalType": "uint256",
          "name": "tokenId",
          "type": "uint256"
        }
      ],
      "name": "ERC1155InsufficientBalance",
      "type": "error"
    },
    {
      "inputs": [
        {
          "internalType": "address",
          "name": "approver",
          "type": "address"
        }
      ],
      "name": "ERC1155InvalidApprover",
      "type": "error"
    },
    {
      "inputs": [
        {
          "internalType": "uint256",
          "name": "idsLength",
          "type": "uint256"
        },
        {
          "internalType": "uint256",
          "name": "valuesLength",
          "type": "uint256"
        }
      ],
      "name": "ERC1155InvalidArrayLength",
      "type": "error"
    },
    {
      "inputs": [
        {
          "internalType": "address",
          "name": "operator",
          "type": "address"
        }
      ],
      "name": "ERC1155InvalidOperator",
      "type": "error"
    },
    {
      "inputs": [
        {
          "internalType": "address",
          "name": "receiver",
          "type": "address"
        }
      ],
      "name": "ERC1155InvalidReceiver",
      "type": "error"
    },
    {
      "inputs": [
        {
          "internalType": "address",
          "name": "sender",
          "type": "address"
        }
      ],
      "name": "ERC1155InvalidSender",
      "type": "error"
    },
    {
      "inputs": [
        {
          "internalType": "address",
          "name": "operator",
          "type": "address"
        },
        {
          "internalType": "address",
          "name": "owner",
          "type": "address"
        }
      ],
      "name": "ERC1155MissingApprovalForAll",
      "type": "error"
    },
    {
      "anonymous": false,
      "inputs": [
        {
          "indexed": true,
          "internalType": "address",
          "name": "account",
          "type": "address"
        },
        {
          "indexed": true,
          "internalType": "address",
          "name": "operator",
          "type": "address"
        },
        {
          "indexed": false,
          "internalType": "bool",
          "name": "approved",
          "type": "bool"
        }
      ],
      "name": "ApprovalForAll",
      "type": "event"
    },
    {
      "anonymous": false,
      "inputs": [
        {
          "indexed": true,
          "internalType": "address",
          "name": "operator",
          "type": "address"
        },
        {
          "indexed": true,
          "internalType": "address",
          "name": "from",
          "type": "address"
        },
        {
          "indexed": true,
          "internalType": "address",
          "name": "to",
          "type": "address"
        },
        {
          "indexed": false,
          "internalType": "uint256[]",
          "name": "ids",
          "type": "uint256[]"
        },
        {
          "indexed": false,
          "internalType": "uint256[]",
          "name": "values",
          "type": "uint256[]"
        }
      ],
      "name": "TransferBatch",
      "type": "event"
    },
    {
      "anonymous": false,
      "inputs": [
        {
          "indexed": true,
          "internalType": "address",
          "name": "operator",
          "type": "address"
        },
        {
          "indexed": true,
          "internalType": "address",
          "name": "from",
          "type": "address"
        },
        {
          "indexed": true,
          "internalType": "address",
          "name": "to",
          "type": "address"
        },
        {
          "indexed": false,
          "internalType": "uint256",
          "name": "id",
          "type": "uint256"
        },
        {
          "indexed": false,
          "internalType": "uint256",
          "name": "value",
          "type": "uint256"
        }
      ],
      "name": "TransferSingle",
      "type": "event"
    },
    {
      "anonymous": false,
      "inputs": [
        {
          "indexed": false,
          "internalType": "string",
          "name": "value",
          "type": "string"
        },
        {
          "indexed": true,
          "internalType": "uint256",
          "name": "id",
          "type": "uint256"
        }
      ],
      "name": "URI",
      "type": "event"
    },
    {
      "inputs": [
        {
          "internalType": "address",
          "name": "account",
          "type": "address"
        },
        {
          "internalType": "uint256",
          "name": "id",
          "type": "uint256"
        }
      ],
      "name": "balanceOf",
      "outputs": [
        {
          "internalType": "uint256",
          "name": "",
          "type": "uint256"
        }
      ],
      "stateMutability": "view",
      "type": "function"
    },
    {
      "inputs": [
        {
          "internalType": "address[]",
          "name": "accounts",
          "type": "address[]"
        },
        {
          "internalType": "uint256[]",
          "name": "ids",
          "type": "uint256[]"
        }
      ],
      "name": "balanceOfBatch",
      "outputs": [
        {
          "internalType": "uint256[]",
          "name": "",
          "type": "uint256[]"
        }
      ],
      "stateMutability": "view",
      "type": "function"
    },
    {
      "inputs": [
        {
          "internalType": "address",
          "name": "account",
          "type": "address"
        },
        {
          "internalType": "address",
          "name": "operator",
          "type": "address"
        }
      ],
      "name": "isApprovedForAll",
      "outputs": [
        {
          "internalType": "bool",
          "name": "",
          "type": "bool"
        }
      ],
      "stateMutability": "view",
      "type": "function"
    },
    {
      "inputs": [
        {
          "internalType": "uint256",
          "name": "bin",
          "type": "uint256"
        },
        {
          "internalType": "uint256",
          "name": "amount",
          "type": "uint256"
        },
        {
          "internalType": "bytes",
          "name": "data",
          "type": "bytes"
        }
      ],
      "name": "recharge",
      "outputs": [],
      "stateMutability": "nonpayable",
      "type": "function"
    },
    {
      "inputs": [
        {
          "internalType": "uint256[]",
          "name": "bin",
          "type": "uint256[]"
        },
        {
          "internalType": "uint256[]",
          "name": "amount",
          "type": "uint256[]"
        },
        {
          "internalType": "bytes",
          "name": "data",
          "type": "bytes"
        }
      ],
      "name": "rechargeBatch",
      "outputs": [],
      "stateMutability": "nonpayable",
      "type": "function"
    },
    {
      "inputs": [
        {
          "internalType": "address",
          "name": "from",
          "type": "address"
        },
        {
          "internalType": "address",
          "name": "to",
          "type": "address"
        },
        {
          "internalType": "uint256[]",
          "name": "ids",
          "type": "uint256[]"
        },
        {
          "internalType": "uint256[]",
          "name": "values",
          "type": "uint256[]"
        },
        {
          "internalType": "bytes",
          "name": "data",
          "type": "bytes"
        }
      ],
      "name": "safeBatchTransferFrom",
      "outputs": [],
      "stateMutability": "nonpayable",
      "type": "function"
    },
    {
      "inputs": [
        {
          "internalType": "address",
          "name": "from",
          "type": "address"
        },
        {
          "internalType": "address",
          "name": "to",
          "type": "address"
        },
        {
          "internalType": "uint256",
          "name": "id",
          "type": "uint256"
        },
        {
          "internalType": "uint256",
          "name": "value",
          "type": "uint256"
        },
        {
          "internalType": "bytes",
          "name": "data",
          "type": "bytes"
        }
      ],
      "name": "safeTransferFrom",
      "outputs": [],
      "stateMutability": "nonpayable",
      "type": "function"
    },
    {
      "inputs": [
        {
          "internalType": "address",
          "name": "operator",
          "type": "address"
        },
        {
          "internalType": "bool",
          "name": "approved",
          "type": "bool"
        }
      ],
      "name": "setApprovalForAll",
      "outputs": [],
      "stateMutability": "nonpayable",
      "type": "function"
    },
    {
      "inputs": [
        {
          "internalType": "bytes4",
          "name": "interfaceId",
          "type": "bytes4"
        }
      ],
      "name": "supportsInterface",
      "outputs": [
        {
          "internalType": "bool",
          "name": "",
          "type": "bool"
        }
      ],
      "stateMutability": "view",
      "type": "function"
    },
    {
      "inputs": [
        {
          "internalType": "uint256",
          "name": "",
          "type": "uint256"
        }
      ],
      "name": "uri",
      "outputs": [
        {
          "internalType": "string",
          "name": "",
          "type": "string"
        }
      ],
      "stateMutability": "view",
      "type": "function"
    }
  ],
  "bytecode": "0x60806040523462000030576200001e620000186200014d565b62000170565b60405161147262000384823961147290f35b600080fd5b634e487b7160e01b600052604160045260246000fd5b90601f01601f191681019081106001600160401b038211176200006d57604052565b62000035565b906200008a6200008260405190565b92836200004b565b565b6001600160401b0381116200006d57602090601f01601f19160190565b60005b838110620000bd5750506000910152565b8181015183820152602001620000ac565b90929192620000e7620000e1826200008c565b62000073565b938185528183011162000030576200008a916020850190620000a9565b9080601f83011215620000305781516200012192602001620000ce565b90565b90602082820312620000305781516001600160401b038111620000305762000121920162000104565b62000121620017f680380380620001648162000073565b92833981019062000124565b6200008a906200008a9062000376565b634e487b7160e01b600052602260045260246000fd5b9060016002830492168015620001b9575b6020831014620001b357565b62000180565b91607f1691620001a7565b6200012162000121620001219290565b9190620001e9620001216200020193620001c4565b90835460001960089290920291821b191691901b1790565b9055565b6200008a91600091620001d4565b8181106200021f575050565b806200022f600060019362000205565b0162000213565b9190601f81116200024657505050565b6200025a6200008a93600052602060002090565b906020601f8401819004830193106200027e575b6020601f90910104019062000213565b90915081906200026e565b9062000293815190565b906001600160401b0382116200006d57620002bb82620002b4855462000196565b8562000236565b602090601f8311600114620002fa5762000201929160009183620002ee575b5050600019600883021c1916906002021790565b015190503880620002da565b601f198316916200031085600052602060002090565b9260005b818110620003515750916002939185600196941062000337575b50505002019055565b01516000196008601f8516021c191690553880806200032e565b9193602060018192878701518155019501920162000314565b906200008a9162000289565b6200008a9060026200036a56fe6080604052600436101561001257600080fd5b60003560e01c8062fdd58e146100b157806301ffc9a7146100ac5780630e89341c146100a75780632eb2c2d6146100a25780634e1273f41461009d578063a22cb46514610098578063e985e9c514610093578063efaa50181461008e578063f242432a146100895763f737e496036100d757610713565b6106d4565b61067a565b6105f6565b6105ba565b61055a565b610421565b610230565b610182565b610121565b6001600160a01b031690565b90565b6001600160a01b0381165b036100d757565b600080fd5b905035906100e9826100c5565b565b806100d0565b905035906100e9826100eb565b91906040838203126100d7576100c290602061011a82866100dc565b94016100f1565b346100d75761014d61013d6101373660046100fe565b90610792565b6040519182918290815260200190565b0390f35b6001600160e01b031981166100d0565b905035906100e982610151565b906020828203126100d7576100c291610161565b346100d75761014d61019d61019836600461016e565b6107b7565b6040515b91829182901515815260200190565b906020828203126100d7576100c2916100f1565b60005b8381106101d75750506000910152565b81810151838201526020016101c7565b61020861021160209361021b936101fc815190565b80835293849260200190565b958691016101c4565b601f01601f191690565b0190565b60208082526100c2929101906101e7565b346100d75761014d61024b6102463660046101b0565b6108fa565b6040519182918261021f565b634e487b7160e01b600052604160045260246000fd5b90601f01601f1916810190811067ffffffffffffffff82111761028f57604052565b610257565b906100e96102a160405190565b928361026d565b67ffffffffffffffff811161028f5760208091020190565b909291926102d56102d0826102a8565b610294565b93818552602080860192028301928184116100d757915b8383106102f95750505050565b6020809161030784866100f1565b8152019201916102ec565b9080601f830112156100d7578160206100c2933591016102c0565b67ffffffffffffffff811161028f57602090601f01601f19160190565b90826000939282370152565b909291926103666102d08261032d565b93818552818301116100d7576100e991602085019061034a565b9080601f830112156100d7578160206100c293359101610356565b91909160a0818403126100d7576103b283826100dc565b926103c081602084016100dc565b92604083013567ffffffffffffffff81116100d757826103e1918501610312565b92606081013567ffffffffffffffff81116100d75783610402918301610312565b92608082013567ffffffffffffffff81116100d7576100c29201610380565b346100d75761043d61043436600461039b565b9392909261091f565b604051005b909291926104526102d0826102a8565b93818552602080860192028301928184116100d757915b8383106104765750505050565b6020809161048484866100dc565b815201920191610469565b9080601f830112156100d7578160206100c293359101610442565b9190916040818403126100d757803567ffffffffffffffff81116100d757836104d491830161048f565b92602082013567ffffffffffffffff81116100d7576100c29201610312565b9061051361050c610502845190565b8084529260200190565b9260200190565b9060005b8181106105245750505090565b90919261054161053a6001928651815260200190565b9460200190565b929101610517565b60208082526100c2929101906104f3565b346100d75761014d6105766105703660046104aa565b90610a0c565b60405191829182610549565b8015156100d0565b905035906100e982610582565b91906040838203126100d7576100c29060206105b382866100dc565b940161058a565b346100d75761043d6105cd366004610597565b90610abf565b91906040838203126100d7576100c29060206105ef82866100dc565b94016100dc565b346100d75761014d61019d61060c3660046105d3565b90610aca565b916060838303126100d757823567ffffffffffffffff81116100d7578261063a918501610312565b92602081013567ffffffffffffffff81116100d7578361065b918301610312565b92604082013567ffffffffffffffff81116100d7576100c29201610380565b346100d75761043d61068d366004610612565b91610aec565b91909160a0818403126100d7576106aa83826100dc565b926106b881602084016100dc565b926106c682604085016100f1565b9261040283606083016100f1565b346100d75761043d6106e7366004610693565b93929092610af8565b916060838303126100d75761070582846100f1565b9261065b83602083016100f1565b346100d75761043d6107263660046106f0565b91610b33565b6100c26100c26100c29290565b906107439061072c565b600052602052604060002090565b6100c2906100b6906001600160a01b031682565b6100c290610751565b6100c290610765565b906107439061076e565b6100c29081565b6100c29054610781565b6107b2906107ad6100c2936107a5600090565b506000610739565b610777565b610788565b636cdb3d1360e11b6001600160e01b03198216149081156107e7575b81156107dd575090565b6100c29150610b3f565b6001600160e01b031981166303a24d0760e21b1491506107d3565b634e487b7160e01b600052602260045260246000fd5b9060016002830492168015610838575b602083101461083357565b610802565b91607f1691610828565b8054600093929161085f61085583610818565b8085529360200190565b91600181169081156108b1575060011461087857505050565b61088b9192939450600052602060002090565b916000925b81841061089d5750500190565b805484840152602090930192600101610890565b92949550505060ff1916825215156020020190565b906100c291610842565b906100e96108ea926108e160405190565b938480926108c6565b038361026d565b6100c2906108d0565b506100c260026108f1565b6001600160a01b0391821681529116602082015260400190565b9493929190336001600160a01b0387168114158061096f575b61094757506100e99495610b73565b869061096b61095560405190565b63711bec9160e11b815292839260048401610905565b0390fd5b5061098161097d8289610aca565b1590565b610938565b9081526040810192916100e99160200152565b0152565b906109aa6102d0836102a8565b918252565b369037565b906100e96109ca6109c48461099d565b936102a8565b601f1901602084016109af565b634e487b7160e01b600052603260045260246000fd5b906109f6825190565b811015610a07576020809102010190565b6109d7565b908151610a21610a1d6100c2845190565b9190565b03610a8f57610a36610a31835190565b6109b4565b91610a41600061072c565b610a4c6100c2835190565b811015610a895780610a7e610a71610a67610a849486610c21565b6101378488610c21565b610a7b83886109ed565b52565b60010190565b610a41565b50505090565b519051610a9c565b915190565b9061096b610aa960405190565b635b05999160e01b815292839260048401610986565b6100e9919033610c61565b6100c2916107ad610ae592610add600090565b506001610777565b5460ff1690565b906100e9929133610d12565b9493929190336001600160a01b03871681141580610b20575b61094757506100e99495610d51565b50610b2e61097d8289610aca565b610b11565b906100e9929133610de2565b610b596301ffc9a760e01b5b916001600160e01b03191690565b1490565b6100b66100c26100c29290565b6100c290610b5d565b9493929190610b826000610b6a565b956001600160a01b0387166001600160a01b03831614610bf0576001600160a01b0387166001600160a01b03821614610bc0576100e9959650610e37565b61096b87610bcd60405190565b626a0d4560e21b8152918291600483016001600160a01b03909116815260200190565b61096b87610bfd60405190565b632bfa23e760e11b8152918291600483016001600160a01b03909116815260200190565b9060208091610c2e600090565b50029101015190565b9060ff905b9181191691161790565b90610c566100c2610c5d92151590565b8254610c37565b9055565b610c6b6000610b6a565b6001600160a01b0381166001600160a01b03841614610ce25750610cdd610cd3610ccd83610cc887610cc3886107ad7f17307eab39ab6107e8899845ad3d59bd9653f200f220920489ca2b5937696c31996001610777565b610c46565b61076e565b9361076e565b936101a160405190565b0390a3565b61096b90610cef60405190565b62ced3e160e81b8152918291600483016001600160a01b03909116815260200190565b93929190610d206000610b6a565b946001600160a01b0386166001600160a01b03821614610d44576100e99495610e37565b61096b86610bfd60405190565b909194939294610d616000610b6a565b6001600160a01b0381166001600160a01b03851614610dd5576001600160a01b0381166001600160a01b03841614610dc857506100e99495610dc060405192600184526020840152604083019160018352602083015260408201604052565b929091610e37565b61096b90610bcd60405190565b61096b90610bfd60405190565b90939291610df06000610b6a565b946001600160a01b0386166001600160a01b03841614610d44576100e9949591610dc060405192600184526020840152604083019160018352602083015260408201604052565b91939290610e4782868386610f6e565b610e546100b66000610b6a565b6001600160a01b03821603610e6b575b5050505050565b3392610e75865190565b610e82610a1d600161072c565b03610eb857610ea8610eae96610ea2610e9b600061072c565b8092610c21565b94610c21565b9361139b565b3880808080610e64565b610ec3959293611243565b610eae565b6109996100e994610ef9606094989795610ef2608086019a60008701906001600160a01b03169052565b6020850152565b6040830152565b9060001990610c3c565b90610f1a6100c2610c5d9261072c565b8254610f00565b634e487b7160e01b600052601160045260246000fd5b91908201809211610f4457565b610f21565b60408082526100c2939192610f60918401906104f3565b9160208184039101526104f3565b9392909192610f7b845190565b610f89610a1d6100c2855190565b03611185573393600091610f9c8361072c565b610fa76100c2845190565b8110156110bc57610fb88184610c21565b90610fc38187610c21565b91610fcd86610b6a565b92886001600160a01b0385166001600160a01b038d1603611046575b611010946001600160a01b03165b6001600160a01b03821603611015575b50505060010190565b610f9c565b611029611038916107ad61103e958b610739565b9161103383610788565b610f37565b90610f0a565b388088611007565b5090919261105b6107b28c6107ad868b610739565b82811061109757610ff7839261108f8a8f61108a908f968a6110846110109d9c9b6107ad930390565b94610739565b610f0a565b955050610fe9565b8b61096b85856110a660405190565b6303dee4c560e01b815294859460048601610ec8565b50959294916110c9825190565b6110d6610a1d600161072c565b0361113d5761111c61111c610ccd7fc3d58168c5ae7397731d063d5bbf3d657854427343f4c083240f7aacaa2d0f629594611116610e9b6111229661072c565b99610c21565b9461076e565b9461113861112f60405190565b92839283610986565b0390a4565b509361116f61111c61111c7f4a39dc06d4c0dbc64b70af90fd698a233a518aa5d07e595d983b8c0526c8f7fb9461076e565b9461113861117c60405190565b92839283610f49565b50610a9c610a97845190565b905051906100e982610151565b906020828203126100d7576100c291611191565b93906111fb906100c296946111ee611209956111de60a08a019460008b01906001600160a01b03169052565b6001600160a01b03166020890152565b86820360408801526104f3565b9084820360608601526104f3565b9160808184039101526101e7565b906109aa6102d08361032d565b3d1561123e576112333d611217565b903d6000602084013e565b606090565b92919490853b611256610a1d600061072c565b11611264575b505050505050565b600060209461129c611278610cc88a61076e565b9461128260405190565b9889978896879563bc197c8160e01b8752600487016111b2565b03925af160009181611313575b506112f857506112bf565b38808080808061125c565b6112c7611224565b906112d0825190565b6112dd610a1d600061072c565b036112ef5761096b90610bfd60405190565b50805190602001fd5b61130863bc197c8160e01b610b4b565b03610dd557506112b4565b61133691925060203d60201161133d575b61132e818361026d565b81019061119e565b90386112a9565b503d611324565b91936113876100c2969461138061138e949761137060a088019960008901906001600160a01b03169052565b6001600160a01b03166020870152565b6040850152565b6060830152565b60808184039101526101e7565b92919490853b6113ae610a1d600061072c565b116113bb57505050505050565b60006020946113f36113cf610cc88a61076e565b946113d960405190565b9889978896879563f23a6e6160e01b875260048701611344565b03925af16000918161141b575b5061140b57506112bf565b61130863f23a6e6160e01b610b4b565b61143591925060203d60201161133d5761132e818361026d565b903861140056fea2646970667358221220e41d19fac3dab63b8d215fa6e7a991e831a1c34df426d9b532f80ec55faa460364736f6c63430008180033",
  "linkReferences": {},
  "deployedLinkReferences": {}
}