{
  "_format": "hh-sol-artifact-1",
  "contractName": "CalcuEncode",
  "sourceName": "contracts/CalcuEncode.sol",
  "abi": [
    {
      "inputs": [],
      "name": "before",
      "outputs": [
        {
          "internalType": "bytes",
          "name": "",
          "type": "bytes"
        }
      ],
      "stateMutability": "nonpayable",
      "type": "function"
    },
    {
      "inputs": [],
      "name": "before1",
      "outputs": [
        {
          "internalType": "bytes",
          "name": "",
          "type": "bytes"
        }
      ],
      "stateMutability": "nonpayable",
      "type": "function"
    },
    {
      "inputs": [],
      "name": "intChange",
      "outputs": [
        {
          "internalType": "uint256",
          "name": "res",
          "type": "uint256"
        }
      ],
      "stateMutability": "nonpayable",
      "type": "function"
    },
    {
      "inputs": [
        {
          "internalType": "bytes",
          "name": "extra",
          "type": "bytes"
        }
      ],
      "name": "res",
      "outputs": [
        {
          "components": [
            {
              "internalType": "address",
              "name": "token0",
              "type": "address"
            },
            {
              "internalType": "address",
              "name": "token1",
              "type": "address"
            },
            {
              "internalType": "address",
              "name": "payer",
              "type": "address"
            }
          ],
          "internalType": "struct CalcuEncode.CallBackData",
          "name": "",
          "type": "tuple"
        }
      ],
      "stateMutability": "nonpayable",
      "type": "function"
    }
  ],
  "bytecode": "0x60806040523462000026576200001462000189565b60405161052e62000278823961052e90f35b600080fd5b906001600160a01b03905b9181191691161790565b620000569062000059906001600160a01b031682565b90565b6001600160a01b031690565b620000569062000040565b620000569062000065565b906200008f62000056620000979262000070565b82546200002b565b9055565b9063ffffffff60a01b9060a01b62000036565b620000be62000056620000569290565b60030b90565b90620000d8620000566200009792620000ae565b82546200009b565b9062ffffff60a01b9060a01b62000036565b6200010262000056620000569290565b60020b90565b906200011c620000566200009792620000f2565b8254620000e0565b9062ffffff60b81b9060b81b62000036565b906200014a620000566200009792620000f2565b825462000124565b906000199062000036565b6200005662000056620000569290565b90620001816200005662000097926200015d565b825462000152565b620001aa73d9145cce52d386f254917e481eb44e9943f3913860006200007b565b620001cb73d8b934580fce35a11b58c6d73adee468a2833fa860016200007b565b620001ec735b38da6a701c568545dcfcb03fcb875f56beddc460026200007b565b620001fc62814cb86002620000c4565b6200021d737ef2e0048f5baede046f6bf797943daf4ed8cb4760036200007b565b6200022d620148fe600362000108565b6200023d62015071600362000136565b6200024b606460046200016d565b62000259606460056200016d565b62000267600060066200016d565b62000275600060076200016d565b56fe6080604052600436101561001257600080fd5b60003560e01c8063b766938f14610052578063d79df6291461004d578063d7be03ba146100485763fdd240320361006257610265565b61012e565b610107565b610069565b600091031261006257565b600080fd5b565b3461006257610079366004610057565b6100946100846102a9565b6040519182918290815260200190565b0390f35b60005b8381106100ab5750506000910152565b818101518382015260200161009b565b6100dc6100e56020936100ef936100d0815190565b80835293849260200190565b95869101610098565b601f01601f191690565b0190565b6020808252610104929101906100bb565b90565b3461006257610117366004610057565b6100946101226102ec565b604051918291826100f3565b346100625761013e366004610057565b6100946101226103c6565b634e487b7160e01b600052604160045260246000fd5b90601f01601f1916810190811067ffffffffffffffff82111761018157604052565b610149565b9061006761019360405190565b928361015f565b67ffffffffffffffff811161018157602090601f01601f19160190565b90826000939282370152565b909291926101d86101d38261019a565b610186565b9381855281830111610062576100679160208501906101b7565b9080601f8301121561006257816020610104933591016101c3565b9060208282031261006257813567ffffffffffffffff81116100625761010492016101f2565b606081019291610067919080516001600160a01b03908116835260208083015182169084015260409182015116910152565b346100625761009461028061027b36600461020d565b6104d6565b60405191829182610233565b6101046101046101049260030b90565b6101046101046101049290565b6101046102c36102be60025460a01c60030b90565b61028c565b61029c565b6001600160a01b039182168152918116602083015291909116604082015260600190565b6000546001600160a01b031661010461030d6001546001600160a01b031690565b6002546001600160a01b03169261033461032660405190565b9485936020850193846102c8565b9081038252038261015f565b6101049060a01c5b60020b90565b6101049054610340565b6101049060b81c610348565b6101049054610358565b6101049081565b610104905461036e565b949290979695939160e0860198600087016103a1916001600160a01b03169052565b60020b602086015260020b60408501526060840152608083015260a082015260c00152565b6003546001600160a01b03166101046103df600361034e565b6103e96003610364565b926103346103f76004610375565b6104016005610375565b61040b6006610375565b906104166007610375565b9261042060405190565b98899760208901978861037f565b6101046060610186565b61044061042e565b600080825260208201819052604082015290565b610104610438565b6001600160a01b0381160361006257565b905051906100678261045c565b9190606083820312610062576104bb9060406104966060610186565b946104a1838261046d565b86526104b0836020830161046d565b60208701520161046d565b6040830152565b90606082820312610062576101049161047a565b610104906104e2610454565b5060206104ed825190565b8183010191016104c256fea264697066735822122061b321d26108f623732022342f9306fc0f995962350b30a0ecf1a00e145e8e4364736f6c63430008180033",
  "linkReferences": {},
  "deployedLinkReferences": {}
}