{
  "_format": "hh-sol-artifact-1",
  "contractName": "Quoter",
  "sourceName": "contracts/Quoter.sol",
  "abi": [
    {
      "inputs": [
        {
          "internalType": "uint256[]",
          "name": "",
          "type": "uint256[]"
        },
        {
          "internalType": "uint256[]",
          "name": "amount0",
          "type": "uint256[]"
        },
        {
          "internalType": "uint256[]",
          "name": "amount1",
          "type": "uint256[]"
        },
        {
          "internalType": "bytes",
          "name": "",
          "type": "bytes"
        },
        {
          "internalType": "bool",
          "name": "zeroforone",
          "type": "bool"
        }
      ],
      "name": "PoolSwapCallback",
      "outputs": [],
      "stateMutability": "nonpayable",
      "type": "function"
    },
    {
      "inputs": [
        {
          "internalType": "address",
          "name": "pool",
          "type": "address"
        },
        {
          "internalType": "uint256",
          "name": "expectedAmount",
          "type": "uint256"
        },
        {
          "internalType": "uint256",
          "name": "limitPrice",
          "type": "uint256"
        },
        {
          "internalType": "bool",
          "name": "zeroforone",
          "type": "bool"
        },
        {
          "internalType": "bytes",
          "name": "data",
          "type": "bytes"
        }
      ],
      "name": "quote",
      "outputs": [
        {
          "internalType": "uint256",
          "name": "amountOut",
          "type": "uint256"
        },
        {
          "internalType": "uint256",
          "name": "afterPrice",
          "type": "uint256"
        },
        {
          "internalType": "uint256",
          "name": "afterBin",
          "type": "uint256"
        }
      ],
      "stateMutability": "nonpayable",
      "type": "function"
    }
  ],
  "bytecode": "0x60806040523461001a57604051610721610020823961072190f35b600080fdfe6080604052600436101561001257600080fd5b60003560e01c806345df8648146100325763859e32a703610058576102ee565b610149565b6001600160a01b031690565b90565b6001600160a01b0381165b0361005857565b600080fd5b9050359061006a82610046565b565b80610051565b9050359061006a8261006c565b801515610051565b9050359061006a8261007f565b909182601f830112156100585781359167ffffffffffffffff831161005857602001926001830284011161005857565b91909160a081840312610058576100db838261005d565b926100e98160208401610072565b926100f78260408501610072565b926101058360608301610087565b92608082013567ffffffffffffffff8111610058576101249201610094565b9091565b90815260608101939261006a929091604091610145906020830152565b0152565b346100585761017a61016b61015f3660046100c4565b94939093929192610456565b60405191939193849384610128565b0390f35b634e487b7160e01b600052604160045260246000fd5b90601f01601f1916810190811067ffffffffffffffff8211176101b657604052565b61017e565b9061006a6101c860405190565b9283610194565b67ffffffffffffffff81116101b65760208091020190565b909291926101fc6101f7826101cf565b6101bb565b938185526020808601920283019281841161005857915b8383106102205750505050565b6020809161022e8486610072565b815201920191610213565b9080601f8301121561005857816020610043933591016101e7565b9160a08383031261005857823567ffffffffffffffff8111610058578261027c918501610239565b92602081013567ffffffffffffffff8111610058578361029d918301610239565b92604082013567ffffffffffffffff811161005857816102be918401610239565b92606083013567ffffffffffffffff811161005857826102e5608094610043938701610094565b94909501610087565b34610058576102fe366004610254565b949390939291926105b2565b61004390610037906001600160a01b031682565b6100439061030a565b6100439061031e565b9050519061006a8261006c565b9190604083820312610058576100439060206103598286610330565b9401610330565b90826000939282370152565b919061038a81610383816103949560209181520190565b8095610360565b601f01601f191690565b0190565b90939161004395936103bd6103c6926103b660808601986000870152565b6020850152565b15156040830152565b606081850391015261036c565b6040513d6000823e3d90fd5b67ffffffffffffffff81116101b657602090601f01601f19160190565b906104096101f7836103df565b918252565b3d156104285761041d3d6103fc565b903d6000602084013e565b606090565b9091606082840312610058576100436104468484610330565b9360406103598260208701610330565b939194926040919693610467600090565b96600088996104a561048161047c8c9b610327565b610327565b9461048b60405190565b98899788968795636ea16a6360e11b875260048701610398565b03925af190816104de575b5061006a57925050506104d96104c461040e565b60206104ce825190565b81830101910161042d565b909192565b6104ff9060403d604011610505575b6104f78183610194565b81019061033d565b506104b0565b503d6104ed565b6100436100436100439290565b634e487b7160e01b600052603260045260246000fd5b90610538825190565b811015610549576020809102010190565b610519565b634e487b7160e01b600052601160045260246000fd5b9190820180921161057157565b61054e565b63ffffffff8116610051565b9050519061006a82610576565b9190604083820312610058576100439060206105ab8286610330565b9401610582565b50925090506000921561069a57506105ca600061050c565b915b6105d7610043835190565b831015610609576105fc610603916105f66105f2868661052f565b5190565b90610564565b9260010190565b916105cc565b9150505b61061961047c33610327565b90604061062560405190565b630d445e3360e11b815292839060049082906000905af1918215610695576060926000918291610663575b5060405192835260208301526040820152fd5b9050610687915060403d60401161068e575b61067f8183610194565b81019061058f565b9038610650565b503d610675565b6103d3565b6106a4600061050c565b925b6106b1610043845190565b8410156106e2576100436106d96106d26106b1936105f66105f2898861052f565b9560010190565b949150506106a6565b9250505061060d56fea2646970667358221220427a7c4815ce65838cf6ea31db95f617a0980b38048adbc34b8a7632cdb7fb9b64736f6c63430008180033",
  "linkReferences": {},
  "deployedLinkReferences": {}
}