{
  "_format": "hh-sol-artifact-1",
  "contractName": "TestBinMath",
  "sourceName": "contracts/test/TestBinMath.sol",
  "abi": [
    {
      "inputs": [
        {
          "internalType": "uint32",
          "name": "bin",
          "type": "uint32"
        }
      ],
      "name": "getPriceAtBin",
      "outputs": [
        {
          "internalType": "uint256",
          "name": "priceX96",
          "type": "uint256"
        }
      ],
      "stateMutability": "pure",
      "type": "function"
    }
  ],
  "bytecode": "0x60806040523461001a5760405161098d610020823961098d90f35b600080fdfe6080604052600436101561001257600080fd5b60003560e01c631e784c5c0361003557610060565b63ffffffff81160361003557565b600080fd5b9050359061004782610027565b565b906020828203126100355761005d9161003a565b90565b346100355761008b61007b610076366004610049565b61008f565b6040519182918290815260200190565b0390f35b61005d90610295565b6100ab61005d61005d9263ffffffff1690565b60030b90565b6100ab61005d61005d9290565b61005d628000006100b1565b634e487b7160e01b600052601160045260246000fd5b6100ee9060030b9160030b90565b900390637fffffff198212637fffffff83131761010757565b6100ca565b61011c61005d61005d9260030b90565b60020b90565b61011c61005d61005d9290565b61005d61005d61005d9260020b90565b61005d61005d61005d9290565b600160ff1b81146101075760000390565b61005d62080000610122565b61017961005d61005d9260020b90565b62ffffff1690565b61005d61005d61005d9262ffffff1690565b1561019a57565b60405162461bcd60e51b815260206004820152601560248201527462696e206973206f7574206f662072616e6765202160581b6044820152606490fd5b6101e461005d61005d9290565b6001600160881b031690565b61005d61005d61005d926001600160881b031690565b8181029291811591840414171561010757565b61022661005d61005d9290565b60ff1690565b61005d9061024461024061005d9460ff1690565b9190565b901c90565b634e487b7160e01b600052601260045260246000fd5b8115610269570490565b610249565b8115610269570690565b61005d61005d61005d9260ff1690565b9190820180921161010757565b6102c36102be6102b061005d936102aa600090565b50610098565b6102b86100be565b906100e0565b61010c565b60006102ce81610122565b6102d88360020b90565b1215610945576102f76102f26102ed8461012f565b61014c565b61013f565b915b61031f61031761005d61031261030d61015d565b610169565b610181565b841115610193565b610329600161013f565b83166103376102408461013f565b146109355761035d6103586ffff97272373d400000000000000000006101d7565b6101f0565b92610368600261013f565b81166103766102408561013f565b0361090e575b610386600461013f565b81166103946102408561013f565b036108e7575b6103a4600861013f565b81166103b26102408561013f565b036108c0575b6103c2601061013f565b81166103d06102408561013f565b03610899575b6103e0602061013f565b81166103ee6102408561013f565b03610872575b6103fe604061013f565b811661040c6102408561013f565b03610841575b60809061041e8261013f565b811661042c6102408661013f565b0361081a575b61043d61010061013f565b811661044b6102408661013f565b036107f3575b61045c61020061013f565b811661046a6102408661013f565b036107cc575b61047b61040061013f565b81166104896102408661013f565b036107a5575b61049a61080061013f565b81166104a86102408661013f565b0361077e575b6104b961100061013f565b81166104c76102408661013f565b03610757575b6104d861200061013f565b81166104e66102408661013f565b03610730575b6104f761400061013f565b81166105056102408661013f565b03610709575b61051661800061013f565b81166105246102408661013f565b036106e2575b6105366201000061013f565b81166105446102408661013f565b036106bc575b6105566202000061013f565b81166105646102408661013f565b03610697575b6105766204000061013f565b81166105846102408661013f565b0361066b575b6105966208000061013f565b166105a36102408561013f565b03610637575b506105bd6105b683610122565b9160020b90565b13610624575b6105ee6105d96105d36020610219565b8461022c565b926105e864010000000061013f565b9061026e565b6105fa6102408361013f565b036106165761060b61061091610219565b610278565b90610288565b5061061061060b6001610219565b906106319060001961025f565b906105c3565b61065e610658610664939561065266149b34ee7b453361013f565b90610206565b91610219565b9061022c565b91386105a9565b93610688610691916106526b048a1703920644c00000000061013f565b61065e83610219565b9361058a565b936106886106b6916106526d2216e584f630380000000000000061013f565b9361056a565b936106886106dc916106526e5d6af8dedbcb38000000000000000061013f565b9361054a565b93610688610703916106526f09aa508b5b7e5a80000000000000000061013f565b9361052a565b9361068861072a916106526f31be135f97da6e00000000000000000061013f565b9361050b565b93610688610751916106526f70d869a156ddd400000000000000000061013f565b936104ec565b93610688610778916106526fa9f746462d8f7800000000000000000061013f565b936104cd565b9361068861079f916106526fd097f3bdfd255000000000000000000061013f565b936104ae565b936106886107c6916106526fe7159475a2c57800000000000000000061013f565b9361048f565b936106886107ed916106526ff3392b0822b88000000000000000000061013f565b93610470565b93610688610814916106526ff987a7253ac4d800000000000000000061013f565b93610451565b9361068861083b916106526ffcbe86c7900ae800000000000000000061013f565b93610432565b9261086261086c916106526ffe5dee046a99d800000000000000000061013f565b61065e6080610219565b92610412565b92610862610893916106526fff2ea16466c98000000000000000000061013f565b926103f4565b926108626108ba916106526fff973b41fa98d800000000000000000061013f565b926103d6565b926108626108e1916106526fffcb9843d60f6800000000000000000061013f565b926103b8565b92610862610908916106526fffe5caca7e10f000000000000000000061013f565b9261039a565b9261086261092f916106526ffff2e50f5f657000000000000000000061013f565b9261037c565b61035d610358600160801b6101d7565b6109516102f28361012f565b916102f956fea264697066735822122098e6ad36b0ef5f42384c31ac327c287328cf6ba51eb9744227482906ee5933eb64736f6c63430008180033",
  "linkReferences": {},
  "deployedLinkReferences": {}
}