{
  "_format": "hh-sol-artifact-1",
  "contractName": "TestTree",
  "sourceName": "contracts/lib/TestTree.sol",
  "abi": [
    {
      "inputs": [
        {
          "internalType": "uint32",
          "name": "bin",
          "type": "uint32"
        }
      ],
      "name": "findbigbin",
      "outputs": [
        {
          "internalType": "uint32",
          "name": "nextBin",
          "type": "uint32"
        }
      ],
      "stateMutability": "nonpayable",
      "type": "function"
    },
    {
      "inputs": [
        {
          "internalType": "uint32",
          "name": "bin",
          "type": "uint32"
        }
      ],
      "name": "findsmallbin",
      "outputs": [
        {
          "internalType": "uint32",
          "name": "nextBin",
          "type": "uint32"
        }
      ],
      "stateMutability": "nonpayable",
      "type": "function"
    },
    {
      "inputs": [
        {
          "internalType": "uint32",
          "name": "bin",
          "type": "uint32"
        }
      ],
      "name": "flipbin",
      "outputs": [],
      "stateMutability": "nonpayable",
      "type": "function"
    }
  ],
  "bytecode": "0x60806040523461001a57604051611127610020823961112790f35b600080fdfe6080604052600436101561001257600080fd5b60003560e01c80634da4e3c7146100425780637291e6ef1461003d57639e8fa2e103610055576100d3565b6100a1565b610080565b63ffffffff81160361005557565b600080fd5b9050359061006782610047565b565b906020828203126100555761007d9161005a565b90565b3461005557610098610093366004610069565b6101c1565b604051005b0390f35b346100555761009d6100bc6100b7366004610069565b6102f7565b6040519182918263ffffffff909116815260200190565b346100555761009d6100bc6100e9366004610069565b610318565b6100fb61007d61007d9290565b60ff1690565b6101249061011f61011561007d9460ff1690565b9163ffffffff1690565b901c90565b63ffffffff1690565b61014061007d61007d9263ffffffff1690565b61ffff1690565b61014061007d61007d9261ffff1690565b9061016290610147565b600052602052604060002090565b61007d9081565b61007d9054610170565b6100fb61007d61007d9263ffffffff1690565b6100fb61007d61007d9260ff1690565b9061016290610194565b61007d61007d61007d9263ffffffff1690565b6100679060006101d1828261038e565b6102016101fc600283016101f66101f16101eb60086100ee565b87610101565b61012d565b90610158565b610177565b9161024161023b6102336101fc6001860161022d61022861022260106100ee565b88610101565b610181565b906101a4565b938001610177565b916101ae565b61047d565b634e487b7160e01b600052604160045260246000fd5b90601f01601f1916810190811067ffffffffffffffff82111761027e57604052565b610246565b9061006761029060405190565b928361025c565b67ffffffffffffffff811161027e57602090601f01601f19160190565b0190565b906102ca6102c583610297565b610283565b918252565b6102d9600a6102b8565b6903732bc3a2134b7101e960b51b602082015290565b61007d6102cf565b61030290600061065c565b906100678261031261023b6102ef565b90610999565b6103029060006109d3565b61007d61007d61007d9290565b61007d9061034861034461007d9460ff1690565b9190565b901b90565b9061007d61007d61035d92610323565b9055565b6101409061011f61037561007d9460ff1690565b9161ffff1690565b6100fb61007d61007d9261ffff1690565b6000610439610067936103a160086100ee565b61043461040d6104076104026103c36103bd6101f18789610101565b96610181565b946103fc60028b016103f7896103dc6101fc8285610158565b6103f06103e96001610323565b9b8c610330565b1792610158565b61034d565b86610361565b61037d565b9361037d565b6103f784600189019261042d6104266101fc84876101a4565b9187610330565b17926101a4565b610330565b91019061044582610177565b179061034d565b6104796100679461047260609498979561046b608086019a6000870152565b6020850152565b6040830152565b0152565b6104aa610067946104b9939461049260405190565b620327f760eb1b60208201529586946024860161044c565b6020820181038252038261025c565b610b9b565b634e487b7160e01b600052601160045260246000fd5b6104e39060ff165b9160ff1690565b019060ff82116104ef57565b6104be565b6105009060ff166104dc565b90039060ff82116104ef57565b61014061007d61007d9260ff1690565b61052760056102b8565b64199a5c9cdd60da1b602082015290565b61007d61051d565b6101409061034861037561007d9460ff1690565b61014061007d61007d9290565b61056e9061ffff16610375565b019061ffff82116104ef57565b6105889061ffff16610375565b90039061ffff82116104ef57565b61012461007d61007d9261ffff1690565b6101249061034861011561007d9460ff1690565b61012461007d61007d9290565b6105d79063ffffffff16610115565b019063ffffffff82116104ef57565b6105f59063ffffffff16610115565b90039063ffffffff82116104ef57565b61060f60066102b8565b651cd958dbdb9960d21b602082015290565b61007d610605565b61063360056102b8565b641d1a1a5c9960da1b602082015290565b61007d610629565b61012461007d61007d9260ff1690565b9061066760086100ee565b916106756101f18484610101565b908161068084610181565b9460028301906106936101fc8684610158565b926001956106bb6106ac6106a6896100ee565b8b6104d4565b6106b5896100ee565b906104f4565b946106d66106d26106cb8a610323565b9788610330565b1990565b16956000876106e761034483610323565b111561073c575050505050505061007d9361072c610736936106b56107266107216107319661071c610717610644565b610bb7565b610c52565b6100ee565b916100ee565b6104f4565b61064c565b906105c8565b92959950929550929596506107686107576104028786610361565b9361076260ff61050d565b1661037d565b928783019861077a6101fc838c6101a4565b61079f6106d26107998c6106b5610726610793836100ee565b8c6104d4565b84610330565b1693846107ae61034486610323565b1115610825575050505061007d96506108199361081461080e61071c6101fc61080761081f9a986108016107fc6107369a8f61072c906106b56107266107216108199f61071c610717610621565b61050d565b90610561565b8098610158565b94610596565b6105a7565b916105bb565b906105e6565b83965061086d95506106d2929450610857610847610866956108609301610177565b956108518c6100ee565b906104d4565b6106b58b6100ee565b90610330565b1691610323565b811115610913576107366108198361081461090e6108fe61071c6101fc61081f9a6101f66108f861007d9f8f6108016108199f829f906108e76107fc6108f2966106b56108e161071c6101fc6108ce6107216108ec9a61071c610717610538565b9461022d6108db8d6100ee565b876104f4565b976100ee565b610540565b91610554565b9b610554565b8b61057b565b956109088a610554565b9061057b565b610596565b505050505063ffffffff90565b60005b8381106109335750506000910152565b8181015183820152602001610923565b61096461096d6020936102b493610958815190565b80835293849260200190565b95869101610920565b601f01601f191690565b929160206109946100679360408701908782036000890152610943565b940152565b906104b9610067926104aa6109ad60405190565b632d839cb360e21b602082015293849260248401610977565b919082039182116104ef57565b906109de60086100ee565b916109ec6101f18484610101565b80916109f784610181565b946002820190610a0a6101fc8584610158565b94600195610a1787610323565b90610a2b82610a268c82610330565b6109c6565b16908196600092610a3e61034485610323565b1115610a79575050505050505061081f916106b561072661007d96610851610a7361073196610a6e610717610644565b610e93565b946100ee565b9296509296949850929650610a9f610a946104028884610361565b9161076260ff61050d565b9284890191610ab16101fc82856101a4565b610abf85610a268882610330565b169384610ace61034485610323565b1115610b14575050505061007d9650610a6e6101fc610807610819966109086107fc6107369a986106b56107266108149a610851610a7361080e9c610a6e610717610621565b9195989796509250610b3a9350610a26610b3386610866949b01610177565b9382610330565b811115610913576107366108198361081461090e6108fe610a6e6101fc61081f9a6101f66108f861007d9f8f6108016108199f829f906108e76107fc6108f2966106b56108e1610a6e6101fc6108ce6107216108ec9a610a6e610717610538565b6100679060016110e1565b602080825261007d92910190610943565b6104aa6104b961006792610bca60405190565b63104c13eb60e21b602082015292839160248301610ba6565b61007d61007d61007d926001600160801b031690565b61007d9061011f61034461007d9460ff1690565b919082018092116104ef57565b61007d61007d61007d9267ffffffffffffffff1690565b61007d61007d61007d9261ffff1690565b61007d61007d61007d9260ff1690565b61007d9060009081610c6a6001600160801b03610be3565b821692600093610c7c61034486610323565b1115610e7d5750610c9790610c916080610323565b90610c0d565b610ca867ffffffffffffffff610c1a565b8216610cb661034485610323565b1115610e6857610cca90610c916040610323565b610cd763ffffffff6101ae565b8216610ce561034485610323565b1115610e5357610cf990610c916020610323565b610d0461ffff610c31565b8216610d1261034485610323565b1115610e3e57610d2690610c916010610323565b610d3060ff610c42565b8216610d3e61034485610323565b1115610e2957610d5290610c916008610323565b610d5c600f610323565b8216610d6a61034485610323565b1115610e1457610d7e90610c916004610323565b610d886003610323565b8216610d9661034485610323565b1115610dfe57610daa90610c916002610323565b915b610dc4610344610dbc6001610323565b841692610323565b1115610de45750610dd990610c916001610323565b610a26610100610323565b610df890610df260016100ee565b90610bf9565b50610dd9565b9190610e0e90610df260026100ee565b90610dac565b90610e2390610df260046100ee565b90610d7e565b90610e3890610df260086100ee565b90610d52565b90610e4d90610df260106100ee565b90610d26565b90610e6290610df260206100ee565b90610cf9565b90610e7790610df260406100ee565b90610cca565b91610e8d9150610df260806100ee565b90610c97565b9060008092610eab610ea5607f6100ee565b82610bf9565b91600092610ebb61034485610323565b03611084575b50610ecf610ea5603f6100ee565b610edb61034484610323565b03611062575b610eee610ea5601f6100ee565b610efa61034484610323565b03611040575b610f0d610ea5600f6100ee565b610f1961034484610323565b0361101e575b610f2c610ea560076100ee565b610f3861034484610323565b03610ffc575b610f4b610ea560036100ee565b610f5761034484610323565b03610fda575b610f6760016100ee565b91610f728383610bf9565b610f7e61034483610323565b03610fb1575b610f8d90610323565b8103610f97575050565b61007d929391610fa691610bf9565b50610c916001610323565b9390610fd2610fc7610f8d92610df260026100ee565b92610c916002610323565b949050610f84565b610feb610ff691610df260046100ee565b93610c916004610323565b92610f5d565b61100d61101891610df260086100ee565b93610c916008610323565b92610f3e565b61102f61103a91610df260106100ee565b93610c916010610323565b92610f1f565b61105161105c91610df260206100ee565b93610c916020610323565b92610f00565b61107361107e91610df260406100ee565b93610c916040610323565b92610ee1565b93506110976110a291610df260806100ee565b93610c916080610323565b9238610ec1565b600080916110bf6a636f6e736f6c652e6c6f6790565b602082519201905afa50565b634e487b7160e01b600052605160045260246000fd5b6001036110cb57610067906110a956fea26469706673582212207e3020b417e6eec155c0a6fe9bb0bbef94bb1cb396e1e83a67c06a778c50dc0b64736f6c63430008180033",
  "linkReferences": {},
  "deployedLinkReferences": {}
}