{
  "_format": "hh-sol-artifact-1",
  "contractName": "JoeSwapManager",
  "sourceName": "contracts/JoeSwapManager.sol",
  "abi": [
    {
      "inputs": [
        {
          "internalType": "uint256[]",
          "name": "ids",
          "type": "uint256[]"
        },
        {
          "internalType": "uint256[]",
          "name": "amountsOfToken0",
          "type": "uint256[]"
        },
        {
          "internalType": "uint256[]",
          "name": "amountsOfToken1",
          "type": "uint256[]"
        },
        {
          "internalType": "bytes",
          "name": "data",
          "type": "bytes"
        },
        {
          "internalType": "bool",
          "name": "zeroForOne",
          "type": "bool"
        }
      ],
      "name": "JoeSwapCallBack",
      "outputs": [],
      "stateMutability": "nonpayable",
      "type": "function"
    },
    {
      "inputs": [
        {
          "internalType": "int32",
          "name": "target_bin",
          "type": "int32"
        },
        {
          "internalType": "uint256",
          "name": "amount0",
          "type": "uint256"
        },
        {
          "internalType": "uint256",
          "name": "amount1",
          "type": "uint256"
        },
        {
          "internalType": "bytes",
          "name": "data",
          "type": "bytes"
        }
      ],
      "name": "JoeSwapMintCallback",
      "outputs": [],
      "stateMutability": "nonpayable",
      "type": "function"
    },
    {
      "inputs": [
        {
          "internalType": "address",
          "name": "pool_address",
          "type": "address"
        },
        {
          "internalType": "int32",
          "name": "target_bin",
          "type": "int32"
        },
        {
          "internalType": "uint128",
          "name": "amount",
          "type": "uint128"
        },
        {
          "internalType": "bytes",
          "name": "data",
          "type": "bytes"
        }
      ],
      "name": "mint",
      "outputs": [
        {
          "internalType": "uint256",
          "name": "amount0",
          "type": "uint256"
        },
        {
          "internalType": "uint256",
          "name": "amount1",
          "type": "uint256"
        }
      ],
      "stateMutability": "nonpayable",
      "type": "function"
    },
    {
      "inputs": [
        {
          "internalType": "address",
          "name": "pool_address",
          "type": "address"
        },
        {
          "internalType": "uint256",
          "name": "expectedAmount",
          "type": "uint256"
        },
        {
          "internalType": "uint256",
          "name": "limitPrice",
          "type": "uint256"
        },
        {
          "internalType": "bool",
          "name": "zeroforone",
          "type": "bool"
        },
        {
          "internalType": "bytes",
          "name": "data",
          "type": "bytes"
        }
      ],
      "name": "swap",
      "outputs": [
        {
          "internalType": "uint256",
          "name": "amount0",
          "type": "uint256"
        },
        {
          "internalType": "uint256",
          "name": "amount1",
          "type": "uint256"
        }
      ],
      "stateMutability": "nonpayable",
      "type": "function"
    }
  ],
  "bytecode": "0x60806040523461001a57604051610bfd6100208239610bfd90f35b600080fdfe6080604052600436101561001257600080fd5b60003560e01c80632ead224d1461005257806356b4b80d1461004d57806365b5cedc146100485763a271aa6e0361007857610466565b610264565b610217565b61015b565b6001600160a01b031690565b90565b6001600160a01b0381165b0361007857565b600080fd5b9050359061008a82610066565b565b80610071565b9050359061008a8261008c565b801515610071565b9050359061008a8261009f565b909182601f830112156100785781359167ffffffffffffffff831161007857602001926001830284011161007857565b91909160a081840312610078576100fb838261007d565b926101098160208401610092565b926101178260408501610092565b9261012583606083016100a7565b92608082013567ffffffffffffffff81116100785761014492016100b4565b9091565b90815260408101929161008a9160200152565b346100785761017a61016e3660046100e4565b94939093929192610547565b9061019061018760405190565b92839283610148565b0390f35b6100718160030b90565b9050359061008a82610194565b6001600160801b038116610071565b9050359061008a826101ab565b90608082820312610078576101dc818361007d565b926101ea826020850161019e565b926101f883604083016101ba565b92606082013567ffffffffffffffff81116100785761014492016100b4565b346100785761017a61022a3660046101c7565b9392909261061d565b9060808282031261007857610248818361019e565b926102568260208501610092565b926101f88360408301610092565b3461007857610280610277366004610233565b93929092610773565b604051005b634e487b7160e01b600052604160045260246000fd5b90601f01601f1916810190811067ffffffffffffffff8211176102bd57604052565b610285565b9061008a6102cf60405190565b928361029b565b67ffffffffffffffff81116102bd5760208091020190565b909291926103036102fe826102d6565b6102c2565b938185526020808601920283019281841161007857915b8383106103275750505050565b602080916103358486610092565b81520192019161031a565b9080601f8301121561007857816020610063933591016102ee565b67ffffffffffffffff81116102bd57602090601f01601f19160190565b0190565b90826000939282370152565b909291926103986102fe8261035b565b93818552818301116100785761008a91602085019061037c565b9080601f830112156100785781602061006393359101610388565b919060a08382031261007857823567ffffffffffffffff811161007857816103f6918501610340565b92602081013567ffffffffffffffff81116100785782610417918301610340565b92604082013567ffffffffffffffff81116100785783610438918401610340565b9260608301359067ffffffffffffffff821161007857608061045f826100639487016103b2565b94016100a7565b34610078576102806104793660046103cd565b93929092610a2e565b61006390610057906001600160a01b031682565b61006390610482565b61006390610496565b9050519061008a8261008c565b9190604083820312610078576100639060206104d182866104a8565b94016104a8565b91906104f6816104ef816103789560209181520190565b809561037c565b601f01601f191690565b909391610063959361052561052e9261051e60808601986000870152565b6020850152565b15156040830152565b60608185039101526104d8565b6040513d6000823e3d90fd5b6040949695929161059161056d610568600094610562600090565b5061049f565b61049f565b9461057760405190565b998a9788968795636ea16a6360e11b875260048701610500565b03925af180156105d55760009283916105a957509190565b905061014491925060403d6040116105ce575b6105c6818361029b565b8101906104b5565b503d6105bc565b61053b565b909391610063959361060d61052e92610603608086019860008701906001600160a01b03169052565b60030b6020850152565b6001600160801b03166040830152565b91600061063561056860409695989798610562600090565b9261059161064260405190565b988996879586946356b4b80d60e01b865233600487016105da565b91906060838203126100785761069e90604061067960606102c2565b94610684838261007d565b8652610693836020830161007d565b60208701520161007d565b6040830152565b90606082820312610078576100639161065d565b6106c66100636100639290565b60ff1690565b61006360606106b9565b610063906106ee6106ea6100639460ff1690565b9190565b901c90565b6100636100636100639260030b90565b6100636100636100639290565b600091031261007857565b919361075f610766929694610758610063999761074860a088019a60008901906001600160a01b03169052565b6001600160a01b03166020870152565b6040850152565b6060830152565b60808185039101526104d8565b9391909161079f610786828601866106a5565b936107996107926106cc565b80926106d6565b936106d6565b936107b56105688086516001600160a01b031690565b63f242432a9460408101946107e26107dd6107d788516001600160a01b031690565b9a6106f3565b610703565b98833b1561007857899361080f60008a61081c8a8a849861080260405190565b9b8c998a98899760e01b90565b875233906004880161071b565b03925af19081156105d55761056860206105689261085a9561084c956108ae575b5001516001600160a01b031690565b93516001600160a01b031690565b93833b156100785761088561080f9360009793889461087860405190565b9a8b998a98899760e01b90565b03925af180156105d5576108965750565b61008a9060006108a6818361029b565b810190610710565b6108be9060006108a6818361029b565b3861083d565b9050519061008a82610066565b91906060838203126100785761069e9060406108ed60606102c2565b946108f883826108c4565b865261090783602083016108c4565b6020870152016108c4565b9060608282031261007857610063916108d1565b9061094661093f610935845190565b8084529260200190565b9260200190565b9060005b8181106109575750505090565b90919261097461096d6001928651815260200190565b9460200190565b92910161094a565b60005b83811061098f5750506000910152565b818101518382015260200161097f565b6109c06104f6602093610378936109b4815190565b80835293849260200190565b9586910161097c565b9390610a12906100639694610a05610a20956109f560a08a019460008b01906001600160a01b03169052565b6001600160a01b03166020890152565b8682036040880152610926565b908482036060860152610926565b91608081840391015261099f565b939291610a4a610a3c845190565b602085010160208501610912565b9315610b2c57610a656105688086516001600160a01b031690565b632eb2c2d6946040810193610a8185516001600160a01b031690565b833b15610078578893610aac60008a610ab98b8397610a9f60405190565b9a8b988997889660e01b90565b86523390600487016109c9565b03925af19081156105d557610568602061056892610af695610ae8956108ae575001516001600160a01b031690565b92516001600160a01b031690565b92823b15610078576000946108858692610b2094610b1360405190565b998a988997889660e01b90565b865233600487016109c9565b610b416105688086516001600160a01b031690565b632eb2c2d6946040810193610b5d85516001600160a01b031690565b833b15610078578893610b2060008a610b7b8b8397610a9f60405190565b03925af19081156105d557610568602061056892610baa95610ae8956108ae575001516001600160a01b031690565b92823b15610078576000946108858692610aac94610b136040519056fea26469706673582212201af70e1d3b9aca0934676f19555408972d8fef5965198bc2ea7a0475650e3f3364736f6c63430008180033",
  "linkReferences": {},
  "deployedLinkReferences": {}
}