{
  "_format": "hh-sol-artifact-1",
  "contractName": "JoeSwapManager",
  "sourceName": "contracts/JoeSwapManager.sol",
  "abi": [
    {
      "inputs": [
        {
          "internalType": "int32",
          "name": "target_bin",
          "type": "int32"
        },
        {
          "internalType": "uint256",
          "name": "amount0",
          "type": "uint256"
        },
        {
          "internalType": "uint256",
          "name": "amount1",
          "type": "uint256"
        },
        {
          "internalType": "bytes",
          "name": "data",
          "type": "bytes"
        }
      ],
      "name": "JoeSwapMintCallback",
      "outputs": [],
      "stateMutability": "nonpayable",
      "type": "function"
    },
    {
      "inputs": [
        {
          "internalType": "address",
          "name": "pool_address",
          "type": "address"
        },
        {
          "internalType": "int32",
          "name": "target_bin",
          "type": "int32"
        },
        {
          "internalType": "uint128",
          "name": "amount",
          "type": "uint128"
        },
        {
          "internalType": "bytes",
          "name": "data",
          "type": "bytes"
        }
      ],
      "name": "mint",
      "outputs": [
        {
          "internalType": "uint256",
          "name": "amount0",
          "type": "uint256"
        },
        {
          "internalType": "uint256",
          "name": "amount1",
          "type": "uint256"
        }
      ],
      "stateMutability": "nonpayable",
      "type": "function"
    }
  ],
  "bytecode": "0x60806040523461001a5760405161063d610020823961063d90f35b600080fdfe6080604052600436101561001257600080fd5b60003560e01c806356b4b80d14610032576365b5cedc03610058576101b0565b610136565b6001600160a01b031690565b90565b6001600160a01b0381165b0361005857565b600080fd5b9050359061006a82610046565b565b6100518160030b90565b9050359061006a8261006c565b6001600160801b038116610051565b9050359061006a82610083565b909182601f830112156100585781359167ffffffffffffffff831161005857602001926001830284011161005857565b90608082820312610058576100e4818361005d565b926100f28260208501610076565b926101008360408301610092565b92606082013567ffffffffffffffff81116100585761011f920161009f565b9091565b90815260408101929161006a9160200152565b34610058576101526101493660046100cf565b939290926102f8565b9061016861015f60405190565b92839283610123565b0390f35b80610051565b9050359061006a8261016c565b90608082820312610058576101948183610076565b926101a28260208501610172565b926101008360408301610172565b34610058576101cc6101c336600461017f565b939290926104b6565b604051005b61004390610037906001600160a01b031682565b610043906101d1565b610043906101e5565b634e487b7160e01b600052604160045260246000fd5b90601f01601f1916810190811067ffffffffffffffff82111761022f57604052565b6101f7565b9050519061006a8261016c565b91906040838203126100585761004390602061025d8286610234565b9401610234565b90826000939282370152565b919061028e81610287816102989560209181520190565b8095610264565b601f01601f191690565b0190565b90939161004395936102cf6102df926102c5608086019860008701906001600160a01b03169052565b60030b6020850152565b6001600160801b03166040830152565b6060818503910152610270565b6040513d6000823e3d90fd5b91600061031b61031660409695989798610310600090565b506101ee565b6101ee565b9261034361032860405190565b988996879586946356b4b80d60e01b8652336004870161029c565b03925af1801561038757600092839161035b57509190565b905061011f91925060403d604011610380575b610378818361020d565b810190610241565b503d61036e565b6102ec565b9061006a61039960405190565b928361020d565b9190606083820312610058576103e19060406103bc606061038c565b946103c7838261005d565b86526103d6836020830161005d565b60208701520161005d565b6040830152565b9060608282031261005857610043916103a0565b6104096100436100439290565b60ff1690565b61004360606103fc565b6100439061043161042d6100439460ff1690565b9190565b901c90565b6100436100436100439260030b90565b6100436100436100439290565b600091031261005857565b91936104a26104a992969461049b610043999761048b60a088019a60008901906001600160a01b03169052565b6001600160a01b03166020870152565b6040850152565b6060830152565b6080818503910152610270565b939190916104e26104c9828601866103e8565b936104dc6104d561040f565b8092610419565b93610419565b936104f86103168086516001600160a01b031690565b63f242432a94604081019461052561052061051a88516001600160a01b031690565b9a610436565b610446565b98833b1561005857899361055260008a61055f8a8a849861054560405190565b9b8c998a98899760e01b90565b875233906004880161045e565b03925af19081156103875761031660206103169261059d9561058f956105f1575b5001516001600160a01b031690565b93516001600160a01b031690565b93833b15610058576105c8610552936000979388946105bb60405190565b9a8b998a98899760e01b90565b03925af18015610387576105d95750565b61006a9060006105e9818361020d565b810190610453565b6106019060006105e9818361020d565b3861058056fea2646970667358221220cb4ee15467b6488dcef86655e73ec26b581a9673ed8187edfe9686dea2fa343b64736f6c63430008180033",
  "linkReferences": {},
  "deployedLinkReferences": {}
}