{
  "_format": "hh-sol-artifact-1",
  "contractName": "JoeSwapPool",
  "sourceName": "contracts/JoeSwapPool.sol",
  "abi": [
    {
      "inputs": [
        {
          "internalType": "address",
          "name": "token0_",
          "type": "address"
        },
        {
          "internalType": "address",
          "name": "token1_",
          "type": "address"
        },
        {
          "internalType": "uint256",
          "name": "_pi",
          "type": "uint256"
        },
        {
          "internalType": "int32",
          "name": "_bin",
          "type": "int32"
        }
      ],
      "stateMutability": "nonpayable",
      "type": "constructor"
    },
    {
      "inputs": [],
      "name": "Invalidbinposition",
      "type": "error"
    },
    {
      "inputs": [],
      "name": "LiquidityNotEnough",
      "type": "error"
    },
    {
      "inputs": [
        {
          "internalType": "uint256",
          "name": "prod1",
          "type": "uint256"
        },
        {
          "internalType": "uint256",
          "name": "denominator",
          "type": "uint256"
        }
      ],
      "name": "PRBMath__MulDivOverflow",
      "type": "error"
    },
    {
      "inputs": [],
      "name": "ZeroLiquidity",
      "type": "error"
    },
    {
      "inputs": [],
      "name": "composition",
      "outputs": [
        {
          "internalType": "uint160",
          "name": "",
          "type": "uint160"
        }
      ],
      "stateMutability": "view",
      "type": "function"
    },
    {
      "inputs": [],
      "name": "liquidity",
      "outputs": [
        {
          "internalType": "uint128",
          "name": "",
          "type": "uint128"
        }
      ],
      "stateMutability": "view",
      "type": "function"
    },
    {
      "inputs": [
        {
          "internalType": "address",
          "name": "owner",
          "type": "address"
        },
        {
          "internalType": "int32",
          "name": "target_bin",
          "type": "int32"
        },
        {
          "internalType": "uint128",
          "name": "amount",
          "type": "uint128"
        },
        {
          "internalType": "bytes",
          "name": "data",
          "type": "bytes"
        }
      ],
      "name": "mint",
      "outputs": [
        {
          "internalType": "uint256",
          "name": "amount0",
          "type": "uint256"
        },
        {
          "internalType": "uint256",
          "name": "amount1",
          "type": "uint256"
        }
      ],
      "stateMutability": "nonpayable",
      "type": "function"
    },
    {
      "inputs": [
        {
          "internalType": "address",
          "name": "operator",
          "type": "address"
        },
        {
          "internalType": "address",
          "name": "from",
          "type": "address"
        },
        {
          "internalType": "uint256[]",
          "name": "ids",
          "type": "uint256[]"
        },
        {
          "internalType": "uint256[]",
          "name": "values",
          "type": "uint256[]"
        },
        {
          "internalType": "bytes",
          "name": "data",
          "type": "bytes"
        }
      ],
      "name": "onERC1155BatchReceived",
      "outputs": [
        {
          "internalType": "bytes4",
          "name": "",
          "type": "bytes4"
        }
      ],
      "stateMutability": "nonpayable",
      "type": "function"
    },
    {
      "inputs": [
        {
          "internalType": "address",
          "name": "operator",
          "type": "address"
        },
        {
          "internalType": "address",
          "name": "from",
          "type": "address"
        },
        {
          "internalType": "uint256",
          "name": "id",
          "type": "uint256"
        },
        {
          "internalType": "uint256",
          "name": "value",
          "type": "uint256"
        },
        {
          "internalType": "bytes",
          "name": "data",
          "type": "bytes"
        }
      ],
      "name": "onERC1155Received",
      "outputs": [
        {
          "internalType": "bytes4",
          "name": "",
          "type": "bytes4"
        }
      ],
      "stateMutability": "nonpayable",
      "type": "function"
    },
    {
      "inputs": [],
      "name": "slot",
      "outputs": [
        {
          "internalType": "uint256",
          "name": "pi",
          "type": "uint256"
        },
        {
          "internalType": "int32",
          "name": "bin",
          "type": "int32"
        }
      ],
      "stateMutability": "view",
      "type": "function"
    },
    {
      "inputs": [
        {
          "internalType": "uint256",
          "name": "expectedAmount",
          "type": "uint256"
        },
        {
          "internalType": "uint256",
          "name": "limitPrice",
          "type": "uint256"
        },
        {
          "internalType": "bool",
          "name": "zeroforone",
          "type": "bool"
        },
        {
          "internalType": "bytes",
          "name": "data",
          "type": "bytes"
        }
      ],
      "name": "swap",
      "outputs": [
        {
          "internalType": "uint256",
          "name": "amount0",
          "type": "uint256"
        },
        {
          "internalType": "uint256",
          "name": "amount1",
          "type": "uint256"
        }
      ],
      "stateMutability": "nonpayable",
      "type": "function"
    },
    {
      "inputs": [],
      "name": "token0",
      "outputs": [
        {
          "internalType": "address",
          "name": "",
          "type": "address"
        }
      ],
      "stateMutability": "view",
      "type": "function"
    },
    {
      "inputs": [],
      "name": "token1",
      "outputs": [
        {
          "internalType": "address",
          "name": "",
          "type": "address"
        }
      ],
      "stateMutability": "view",
      "type": "function"
    }
  ],
  "bytecode": "0x60c060405234620000455762000022620000186200013b565b9291909162000232565b6040516139096200026882396080518160e1015260a05181610424015261390990f35b600080fd5b634e487b7160e01b600052604160045260246000fd5b90601f01601f191681019081106001600160401b038211176200008257604052565b6200004a565b906200009f6200009760405190565b928362000060565b565b90565b6001600160a01b0381165b036200004557565b905051906200009f82620000a4565b80620000af565b905051906200009f82620000c6565b620000af8160030b90565b905051906200009f82620000dc565b60808183031262000045576200010d8282620000b7565b92620000a1620001218460208501620000b7565b936060620001338260408701620000cd565b9401620000e7565b6200015e62003b7180380380620001528162000088565b928339810190620000f6565b90919293565b620000a1604062000088565b90600019905b9181191691161790565b620000a1620000a1620000a19290565b90620001a4620000a1620001ac9262000180565b825462000170565b9055565b9063ffffffff9062000176565b620001d0620000a1620000a19260030b90565b60030b90565b90620001ea620000a1620001ac92620001bd565b8254620001b0565b60016200021e60206200009f94620002166200020f600083015190565b8662000190565b015160030b90565b9101620001d6565b906200009f91620001f2565b60805260a0526200009f916200025f90620002556200025062000164565b938452565b60030b6020830152565b60006200022656fe6080604052600436101561001257600080fd5b60003560e01c80630dfe1681146100a25780631a6865021461009d5780631a88bc661461009857806356b4b80d14610093578063bc197c811461008e578063d21220a714610089578063d456b5dd14610084578063dd42d4c61461007f5763f23a6e61036100b257610563565b6104e7565b610473565b61040f565b6103cf565b6102e5565b6101bb565b61014b565b6100cc565b60009103126100b257565b600080fd5b6001600160a01b031690565b90565b9052565b565b346100b2576100dc3660046100a7565b61011b7f00000000000000000000000000000000000000000000000000000000000000005b604051918291826001600160a01b03909116815260200190565b0390f35b6100c3916008021c5b6001600160801b031690565b906100c3915461011f565b6100c360006005610134565b346100b25761015b3660046100a7565b61011b61016661013f565b604051918291826001600160801b03909116815260200190565b6100c39081565b6100c39054610180565b6100c3905b60030b90565b6100c39054610191565b6101b06000610187565b906100c3600161019c565b346100b2576101cb3660046100a7565b6101d36101a6565b9061011b6101e060405190565b9283928390815260039190910b602082015260400190565b6001600160a01b0381165b036100b257565b905035906100ca826101f8565b6102038160030b90565b905035906100ca82610217565b6001600160801b038116610203565b905035906100ca8261022e565b909182601f830112156100b25781359167ffffffffffffffff83116100b25760200192600183028401116100b257565b906080828203126100b25761028f818361020a565b9261029d8260208501610221565b926102ab836040830161023d565b92606082013567ffffffffffffffff81116100b2576102ca920161024a565b9091565b9081526040810192916100ca9160200152565b0152565b346100b2576103016102f836600461027a565b9392909261085f565b9061011b61030e60405190565b928392836102ce565b909182601f830112156100b25781359167ffffffffffffffff83116100b25760200192602083028401116100b257565b9160a0838303126100b25761035c828461020a565b9261036a836020830161020a565b92604082013567ffffffffffffffff81116100b2578161038b918401610317565b929093606082013567ffffffffffffffff81116100b257836103ae918401610317565b929093608082013567ffffffffffffffff81116100b2576102ca920161024a565b346100b25761011b6103f46103e5366004610347565b96959095949194939293610b08565b604051918291826001600160e01b0319909116815260200190565b346100b25761041f3660046100a7565b61011b7f0000000000000000000000000000000000000000000000000000000000000000610101565b6100c3916008021c6001600160a01b031690565b906100c39154610448565b6100c36000600661045c565b346100b2576104833660046100a7565b61011b610101610467565b80610203565b905035906100ca8261048e565b801515610203565b905035906100ca826104a1565b906080828203126100b2576104cb8183610494565b926104d98260208501610494565b926102ab83604083016104a9565b346100b2576103016104fa3660046104b6565b93929092611760565b91909160a0818403126100b25761051a838261020a565b92610528816020840161020a565b926105368260408501610494565b926105448360608301610494565b92608082013567ffffffffffffffff81116100b2576102ca920161024a565b346100b25761011b6103f4610579366004610503565b949390939291926121d5565b6101966100c36100c39290565b6100c3628d89e8610585565b6100c362727618610585565b6101286100c36100c39290565b634e487b7160e01b600052601160045260246000fd5b6105dc9060030b5b9160030b90565b900390637fffffff198212637fffffff8313176105f557565b6105b7565b61060a6100c36100c39260030b90565b60020b90565b61061d6100c36100c39290565b60ff1690565b6100c36060610610565b6100c36100c36100c39290565b6100c39061065261064e6100c39460ff1690565b9190565b901b90565b6100b76100c36100c39290565b6101966100c36100c39260030b90565b9061067e90610664565b600052602052604060002090565b6100c39061061d565b6100c3905461068c565b6106ae9060ff165b9160ff1690565b90039060ff82116105f557565b906001600160a01b03905b9181191691161790565b6100c3906100b7906001600160a01b031682565b906106f46100c36106fb926106d0565b82546106bb565b9055565b6100c3906100b7565b6100c390546106ff565b6100c390610128565b6100c39054610712565b610740906001600160801b03165b916001600160801b031690565b01906001600160801b0382116105f557565b906001600160801b03906106c6565b6101286100c36100c3926001600160801b031690565b906107876100c36106fb92610761565b8254610752565b6100c3906106d0565b6100c39061078e565b634e487b7160e01b600052604160045260246000fd5b90601f01601f1916810190811067ffffffffffffffff8211176107d857604052565b6107a0565b90826000939282370152565b919061080781610800816108119560209181520190565b80956107dd565b601f01601f191690565b0190565b9093916100c3959361083f610846926108386080860198600087019060030b9052565b6020850152565b6040830152565b60608185039101526107e9565b6040513d6000823e3d90fd5b939492906000958693610873610196610592565b61087d8460030b90565b138015610aec575b610ada57600094610895866105aa565b6001600160801b03831614610ac4576108b06001870161019c565b986108d66108d16108cc6108c662800000610585565b886105cd565b6105fa565b612316565b996108e18160030b90565b6108eb8760030b90565b03610a605750505061090885610902856002610674565b01610695565b15610a0b576109709061096b8461093561092e6109256006610708565b9c5b8d86612a65565b9b84612aa3565b9961095361094c85610947600561071b565b610725565b6005610777565b61095f84836002612b29565b6109f1575b6003612c71565b612cbb565b61098161097c33610797565b610797565b803b156100b257878580946109b48a9561099a60405190565b9889978896879563196d73b760e21b875260048701610815565b03925af180156109ec576109c6575050565b816100ca92903d106109e5575b6109dd81836107b6565b8101906100a7565b503d6109d3565b610853565b610a066109fe6001610585565b836004612be4565b610964565b6109709061096b8461093561092e610a5b9c610a52610a4d610a3e610a2e610623565b610a386001610610565b9061069f565b610a48600161062d565b61063a565b610657565b9d8e60066106e4565b610927565b9899919860030b610a718660030b90565b1315610a9a57509061096b84610a9461097094610a8d8a610657565b5084612a01565b9a610953565b9897505061097090610ab0610a4d610a3e610623565b5061096b84610abe836129e4565b99610953565b604051630200e8a960e31b8152600490fd5b0390fd5b604051633944550f60e21b8152600490fd5b50610af861019661059e565b610b028460030b90565b12610885565b5050505050505050610b18600090565b5063bc197c8160e01b90565b818102929181159184041417156105f557565b9160001960089290920291821b911b6106c6565b9190610b5c6100c36106fb9361062d565b908354610b37565b6100ca91600091610b4b565b818110610b7b575050565b80610b896000600193610b64565b01610b70565b919091828210610b9e57505050565b6100ca9291610bb39091600052602060002090565b9182019101610b70565b90600160401b81116107d85781610bd56100ca935490565b90828155610b8f565b60006100ca91610bbd565b634e487b7160e01b600052600060045260246000fd5b90600003610c10576100ca90610bde565b610be9565b906100ca610c2260405190565b92836107b6565b6100c36040610c15565b906100ca610c5b6001610c44610c29565b94610c55610c5182610187565b8752565b0161019c565b60030b6020840152565b6100c390610c33565b6100c373fffd8963efd1fc6a506488495d951d5263988d2661062d565b6100c36401000276a361062d565b15610ca057565b60405162461bcd60e51b8152602060048201526013602482015272496e76616c6964204c696d697450726963652160681b6044820152606490fd5b6100c360a0610c15565b67ffffffffffffffff81116107d857602090601f01601f19160190565b90610d14610d0f83610ce5565b610c15565b918252565b610d236081610d02565b7f20202020202020202020205b44454255475d3a202a2a2a2a2a2a2a2a2a2a2a2a60208201527f2a2a2a2a2a2a2a2a2a2a2a2a2a2a2a2a2a2a2a2a2a2a2a2a2a2a2a2a2a2a2a2a604082018190527f2a2a2a2a2a2a2a2a20526f756e64202a2a2a2a2a2a2a2a2a2a2a2a2a2a2a2a2a60608301526080820152601560f91b60a082015290565b6100c3610d19565b6100c360c0610c15565b610dc3610db1565b906000825260208080808080870160008152016000815201600081520160008152016000905250565b6100c3610dbb565b610dfe6033610d02565b7f20202020202020202020205b44454255475d3a202a2a2a2a2a2a2a2a205365616020820152723931b41022bc32b1baba32901515151515151560691b604082015290565b6100c3610df4565b6100c36100c36100c39260030b90565b610e656013610d02565b7210101010101010101010102da222a12aa3ae9d60691b602082015290565b6100c3610e5b565b610e966034610d02565b7f20202020202020202020205b44454255475d3a204e6f7420537572653a207072602082015273696365506f696e743e3d6c696d6974507269636560601b604082015290565b6100c3610e8c565b610ef09060030b6105d5565b0190637fffffff8213637fffffff198312176105f557565b610f126030610d02565b6000805160206138b483398151915260208201526f6f696e743c3d6c696d6974507269636560801b604082015290565b6100c3610f08565b610f54602f610d02565b6000805160206138b483398151915260208201526e6f696e743e6c696d6974507269636560881b604082015290565b6100c3610f4a565b610f95601e610d02565b7f20202020202020202020205b44454255475d3a206e65787442696e203d200000602082015290565b6100c3610f8b565b610fd06025610d02565b7f20202020202020202020205b44454255475d3a206e6578745072696365506f696020820152640373a101e960dd1b604082015290565b6100c3610fc6565b6110196033610d02565b7f20202020202020202020205b44454255475d3a204e6f7420537572653a207072602082015272696365506f696e743c6c696d6974507269636560681b604082015290565b6100c361100f565b6110706030610d02565b6000805160206138b483398151915260208201526f6f696e743e3d6c696d6974507269636560801b604082015290565b6100c3611066565b6110b2602f610d02565b6000805160206138b483398151915260208201526e6f696e743c6c696d6974507269636560881b604082015290565b6100c36110a8565b6110f36033610d02565b7f20202020202020202020205b44454255475d3a202a2a2a2a2a2a2a2a2a204f756020820152723a1027b31029b2b0b931b4101515151515151560691b604082015290565b6100c36110e9565b61114a603f610d02565b7f20202020202020202020205b44454255475d3a20737465702e7374617274507260208201527f696365207c2073746174652e6163746976655f6c6971756964697479203a2000604082015290565b6100c3611140565b6100c36100c36100c3926001600160801b031690565b6111c16044610d02565b7f20202020202020202020205b44454255475d3a20636f6d706f736974696f6e2060208201527f7c20737465702e6e6578745072696365207c206578706563746564416d6f756e60408201526303a101d160e51b606082015290565b6100c36111b7565b6100c39081906001600160a01b031681565b6100c39060081c610128565b6100c39054611237565b919082039182116105f557565b919082018092116105f557565b634e487b7160e01b600052603260045260246000fd5b80548210156112a057611297600191600052602060002090565b91020190600090565b611267565b90815491600160401b8310156107d857826112c89160016100ca9501815561127d565b90610b4b565b6100c3906112e261064e6100c39460ff1690565b901c90565b6112f16035610d02565b7f20202020202020202020205b44454255475d3a20737465702e616d6f756e744f60208201527403aba103e1039ba32b81730b6b7bab73a24b7101d1605d1b604082015290565b6100c36112e7565b61134a601f610d02565b7f20202020202020202020205b44454255475d3a2073746174652e7069203d2000602082015290565b6100c3611340565b611385600e610d02565b6d031b7b6b837b9b4ba34b7b7101e960951b602082015290565b6100c361137b565b6113b16081610d02565b7f20202020202020202020205b44454255475d3a202a2a2a2a2a2a2a2a2a2a2a2a60208201527f2a2a2a2a2a2a2a2a2a2a2a2a2a2a2a2a2a2a2a2a2a2a2a2a2a2a2a2a2a2a2a2a604082018190527f2a2a2a2a204f7574204f6620526f756e64202a2a2a2a2a2a2a2a2a2a2a2a2a2a60608301526080820152601560f91b60a082015290565b6100c36113a7565b67ffffffffffffffff81116107d85760208091020190565b90610d14610d0f8361143f565b369037565b906100ca61147f61147984611457565b9361143f565b601f190160208401611464565b6100c3916008021c81565b906100c3915461148c565b6114ac6053610d02565b7f20202020202020202020205b44454255475d3a2074656d704964735b695d207c60208201527f2074656d70416d6f756e74734f66546f6b656e305b695d207c2074656d70416d604082015272037bab73a39a7b32a37b5b2b718adb4ae901e9606d1b606082015290565b6100c36114a2565b90611528825190565b8110156112a0576020809102010190565b91906060838203126100b25761083f9060406115556060610c15565b94611560838261020a565b865261156f836020830161020a565b60208701520161020a565b906060828203126100b2576100c391611539565b906115ae6115a761159d845190565b8084529260200190565b9260200190565b9060005b8181106115bf5750505090565b9091926115dc6115d56001928651815260200190565b9460200190565b9291016115b2565b969593909461162c60809461161e61163a956116108c6100ca9b60a0820191600081840391015261158e565b8c810360208e01529061158e565b908a820360408c015261158e565b9188830360608a01526107e9565b94019015159052565b9063ffffffff906106c6565b9061165f6100c36106fb92610664565b8254611643565b90600019906106c6565b906116806100c36106fb9261062d565b8254611666565b611691601e610d02565b7f20202020202020202020205b44454255475d3a20736c6f742e7069203d200000602082015290565b6100c3611687565b6116cc601f610d02565b7f20202020202020202020205b44454255475d3a20736c6f742e62696e203d2000602082015290565b6100c36116c2565b611707601e610d02565b7f20202020202020202020205b44454255475d3a20616d6f756e7430203d200000602082015290565b6100c36116fd565b611742600a610d02565b69030b6b7bab73a18901e960b51b602082015290565b6100c3611738565b9092949161176c600090565b9361177960006007610bff565b61178560006008610bff565b61179160006009610bff565b8161179c6000610c65565b936118176117aa600561071b565b600084156121a957506117be6100c3885190565b851080612190575b6117cf90610c99565b6118076117eb60006117e560208b015160030b90565b99015190565b6118006117f6610cdb565b998a9060030b9052565b6020890152565b6001600160801b03166040870152565b611821600061062d565b9661182d886060880152565b611838886080880152565b8782118061216f575b156121665761184e612cd2565b61185e611859610da9565b612d66565b85611867610dec565b611879611875602084015190565b8252565b805193611887835160030b90565b8060009660008915612056575b8a821061204f57506118a4612cd2565b6118af611859610e43565b6118d06118c36118be84610e4b565b61062d565b6118cb610e84565b612db4565b6118dc816118cb610e84565b6118f48960046118ec6001610585565b948591612e57565b90819362800000908d6119156108d16108cc61190f86610585565b876105cd565b9461192d6119256118be87610e4b565b6118cb610fbe565b611939866118cb611007565b15611fbe5791506119479050565b821015611fa957505061195b6118596110e1565b611963612cd2565b61196b611138565b61197490612d66565b600383900b602086015260408501521515606084015286611993845190565b9160408601926119aa84516001600160801b031690565b906119b3611199565b916119bd906111a1565b906119c792612fd7565b6119d16006610708565b846119dd604088015190565b6119e561121d565b926119ef90611225565b6119f893613032565b855160030b97611a06865190565b8584611a1987516001600160801b031690565b611a236006610708565b60408b015191611a3295613084565b60a08a01526080890152611a479060066106e4565b60208801526020870151604087015114600014611bb46020611c0599611baf6108d19a611b3e611ae86108cc9c611bf29c611bde99611f9257611add90611a98611a92604088015190565b8a8a0152565b611aaf611aa88a88015160030b90565b60030b8952565b611ad06000611aca6002611ac48c5160030b90565b90610674565b01611243565b6001600160801b03169052565b60a08401519061124d565b9f611b0c611af760a085015190565b6100c66060880191611b07835190565b61125a565b611b2a611b1a608085015190565b6100c66080880191611b07835190565b611b386118be600792610e4b565b906112a5565b8815611f6157611b8b611b52608083015190565b611b84611b7b611b6a611b63610623565b80946112ce565b92611b7660a087015190565b6112ce565b915b60086112a5565b60096112a5565b611ba16080611b9b60a084015190565b92015190565b90611baa611338565b612fd7565b015190565b611bbe6006610708565b611bc6611373565b91611bd8611bd261139f565b92611225565b926131bb565b50600490611bec6001610585565b91612e57565b50611bff62800000610585565b906105cd565b8315611f5a5784115b1561183857505050505b611c20612cd2565b611c2b611859611437565b600791611c3e611c39845490565b611469565b93611c4a611c39855490565b97611c56611c39865490565b965b611c636100c3875490565b811015611d2357611c74818761127d565b611c7d91611497565b81808c600882808d8d82611c91818761127d565b611c9a91611497565b9960099a611ca8838d61127d565b611cb191611497565b90611cba611517565b92611cc493613032565b611ccd9161127d565b611cd691611497565b91611ce09161151f565b52611cea9161127d565b611cf391611497565b91611cfd9161151f565b52611d079161127d565b611d1091611497565b611d1a828a61151f565b52600101611c58565b50949350949196959095611d398286018661157a565b611d4e61097c8083516001600160a01b031690565b63a22cb46591813b156100b2576000611d6660405190565b8093611d728660e01b90565b825233600483015260016024830152604490829084905af19182156109ec57602061097c9261097c92611db395611f44575b5001516001600160a01b031690565b803b156100b257611dd391600091611dca60405190565b93849260e01b90565b825233600483015260016024830152604490829084905af180156109ec57611f2e575b50611e0361097c33610797565b91823b156100b257600094611e378a8793611e1d60405190565b998a9889978896635138d53760e11b8852600488016115e4565b03925af180156109ec57611f18575b506100ca6020830192611e5a611bb4855190565b611e7161094c60408301516001600160801b031690565b611e91611e7f825160030b90565b60019590611e8d908761164f565b5190565b60009590611e9f9087611670565b15611f0257611eb46060611b9b608084015190565b905b611eeb611ee36118be611ede8598611ed9611ed1879c610187565b6118cb6116ba565b61019c565b610e4b565b6118cb6116f5565b611ef3611730565b90611efc611758565b916131bb565b611f126080611b9b606084015190565b90611eb6565b611f289060006109dd81836107b6565b38611e46565b611f3e9060006109dd81836107b6565b38611df6565b611f549060006109dd81836107b6565b38611da4565b8410611c0e565b611b8b611f6f60a083015190565b611b84611f8c611f80611b63610623565b92611b76608087015190565b91611b7d565b50611fa4611f9e855190565b88880152565b611add565b91509250611fb86118596110a0565b9161195b565b61064e611fd19198949896939695929590565b1061203f57505083611fe96000610902836002610674565b1561200d5750506108d16108cc61200261200893610585565b856105cd565b61195b565b61203292999896979594506120286108d1926108cc926105cd565b611bff819b610585565b8792939594969791611894565b925093505061200861185961105e565b915061195b565b8a821161204f5750612066612cd2565b612071611859610e43565b6120806118c36118be84610e4b565b61208c816118cb610e84565b61209c8960046118ec6001610585565b90819362800000908d6120b76108d16108cc61190f86610585565b94156120e95791506120c69050565b8211156120da575050612008611859610f83565b91509250611fb8611859610f42565b61064e6120fc9198949896939695929590565b1015612156575050836121156000610902836002610674565b1561212e5750506108d16108cc61200261200893610585565b61214992999896979594506120286108d1926108cc92610ee4565b8792939594969791612056565b9250935050612008611859610edc565b50505050611c18565b508215612183576020860151841115611841565b6020860151841015611841565b506117cf61219f6100c3610c8b565b86101590506117c6565b8701518511806121bc576117cf90610c99565b506117cf6121cb6100c3610c6e565b86111590506117c6565b5050505050506121e3600090565b5063f23a6e6160e01b90565b61060a6100c36100c39290565b6100c36100c36100c39260020b90565b600160ff1b81146105f55760000390565b6100c3620d89e7196121ef565b60020b627fffff1981146105f55760000390565b6100c361224961221d565b61222a565b61225e6100c36100c39260020b90565b62ffffff1690565b6100c36100c36100c39262ffffff1690565b1561227f57565b60405162461bcd60e51b81526020600482015260016024820152601560fa1b6044820152606490fd5b6122b56100c36100c39290565b6001600160881b031690565b6100c36100c36100c3926001600160881b031690565b634e487b7160e01b600052601260045260246000fd5b81156122f7570490565b6122d7565b81156122f7570690565b6100c36100c36100c39260ff1690565b61269061268a61267a6100c39361232b600090565b506000612337816121ef565b6123418360020b90565b12156129d25761235b6118be612356846121fc565b61220c565b915b61238361237b6100c361237661237161223e565b61224e565b612266565b841115612278565b61238d600161062d565b831661239b61064e8461062d565b146129c2576123c16123bc6ffffcb933bd6fad37aa2d162d1a5940016122a8565b6122c1565b926123cc600261062d565b81166123da61064e8561062d565b0361299b575b6123ea600461062d565b81166123f861064e8561062d565b03612974575b612408600861062d565b811661241661064e8561062d565b0361294d575b612426601061062d565b811661243461064e8561062d565b03612926575b612444602061062d565b811661245261064e8561062d565b036128ff575b612462604061062d565b811661247061064e8561062d565b036128ce575b6080906124828261062d565b811661249061064e8661062d565b036128a7575b6124a161010061062d565b81166124af61064e8661062d565b03612880575b6124c061020061062d565b81166124ce61064e8661062d565b03612859575b6124df61040061062d565b81166124ed61064e8661062d565b03612832575b6124fe61080061062d565b811661250c61064e8661062d565b0361280b575b61251d61100061062d565b811661252b61064e8661062d565b036127e4575b61253c61200061062d565b811661254a61064e8661062d565b036127bd575b61255b61400061062d565b811661256961064e8661062d565b03612796575b61257a61800061062d565b811661258861064e8661062d565b0361276f575b61259a6201000061062d565b81166125a861064e8661062d565b03612748575b6125ba6202000061062d565b81166125c861064e8661062d565b03612722575b6125da6204000061062d565b81166125e861064e8661062d565b036126f4575b6125fa6208000061062d565b1661260761064e8561062d565b036126c1575b5061262161261a836121ef565b9160020b90565b136126ae575b61265261263d6126376020610610565b846112ce565b9261264c64010000000061062d565b906122fc565b61265e61064e8361062d565b036126a05761266f61267491610610565b612306565b9061125a565b6126846050610610565b906112ce565b80610b24565b61269a6040610610565b9061063a565b5061267461266f6001610610565b906126bb906000196122ed565b90612627565b6126846126e76126ed93956126e16b048a170391f7dc42444e8fa261062d565b90610b24565b91610610565b913861260d565b9361271361271c916126e16d2216e584f5fa1ea926041bedfe9861062d565b61268483610610565b936125ee565b93612713612742916126e16e5d6af8dedb81196699c329225ee60461062d565b936125ce565b93612713612769916126e16f09aa508b5b7a84e1c677de54f3e99bc961062d565b936125ae565b93612713612790916126e16f31be135f97d08fd981231505542fcfa661062d565b9361258e565b936127136127b7916126e16f70d869a156d2a1b890bb3df62baf32f761062d565b9361256f565b936127136127de916126e16fa9f746462d870fdf8a65dc1f90e061e561062d565b93612550565b93612713612805916126e16fd097f3bdfd2022b8845ad8f792aa582561062d565b93612531565b9361271361282c916126e16fe7159475a2c29b7443b29c7fa6e889d961062d565b93612512565b93612713612853916126e16ff3392b0822b70005940c7a398e4b70f361062d565b936124f3565b9361271361287a916126e16ff987a7253ac413176f2b074cf7815e5461062d565b936124d4565b936127136128a1916126e16ffcbe86c7900a88aedcffc83b479aa3a461062d565b936124b5565b936127136128c8916126e16ffe5dee046a99a2a811c461f1969c305361062d565b93612496565b926128ef6128f9916126e16fff2ea16466c96a3843ec78b326b5286161062d565b6126846080610610565b92612476565b926128ef612920916126e16fff973b41fa98c081472e6896dfb254c061062d565b92612458565b926128ef612947916126e16fffcb9843d60f6159c9db58835c92664461062d565b9261243a565b926128ef61296e916126e16fffe5caca7e10e4e61c3624eaa0941cd061062d565b9261241c565b926128ef612995916126e16ffff2e50f5f656932ef12357cf3c7fdcc61062d565b926123fe565b926128ef6129bc916126e16ffff97272373d413259a46990580e213a61062d565b926123e0565b6123c16123bc600160801b6122a8565b6129de6118be836121fc565b9161235d565b6129f96100c3916129f3600090565b506111a1565b61269a610623565b90612a116100c3926129f3600090565b612a31612a26612a1f610623565b809361063a565b91610a48600161062d565b906131e9565b612a52906001600160a01b03165b916001600160a01b031690565b9003906001600160a01b0382116105f557565b612a9d612a986100c39493612a78600090565b50612a926129f9612a8c600160601b610657565b956111a1565b93612a37565b611225565b9061332d565b90612ab36100c3926129f3600090565b612a31611bd2612acb612ac4610623565b809461063a565b92610a48600161062d565b9060ff906106c6565b90612aef6100c36106fb92151590565b8254612ad6565b9070ffffffffffffffffffffffffffffffff009060081b6106c6565b90612b226100c36106fb92610761565b8254612af6565b6100c36100ca92612b4592959495612b3f600090565b50610674565b92612b4f84611243565b6000948591612b60610733846105aa565b14612bb4575b0193612bac612ba6612b81612b7a88611243565b9485610725565b93612ba2610733612b91866105aa565b6001600160801b03881614956105aa565b1490565b91151590565b141593612b12565b612bc16001838301612adf565b612b66565b612bd29060030b6105d5565b9081156122f7570790565b156100b257565b90612c24612c17612c2a92612c12612bff6100ca9783612bc6565b612c0c6105d56000610585565b14612bdd565b6133b7565b610a48600193929361062d565b92610674565b90612c3482610187565b1890611670565b6100c6906001600160a01b031660601b90565b601481612c616108119360049695612c3b565b01809260e01b9052565b9061067e565b612c96612ca26100c3946100c394612c8860405190565b938492602084019283612c4e565b908103825203826107b6565b612cb4612cad825190565b9160200190565b2090612c6b565b6100ca91612ccc906109478361071b565b90610777565b6100ca612cde60405190565b6351973ec960e01b6020820152612d0381602481015b602082018103825203826107b6565b6133f0565b60005b838110612d1b5750506000910152565b8181015183820152602001612d0b565b612d4c61080760209361081193612d40815190565b80835293849260200190565b95869101612d08565b60208082526100c392910190612d2b565b612cf4612d036100ca92612d7960405190565b63104c13eb60e21b602082015292839160248301612d55565b92916020612daf6100ca9360408701908782036000890152612d2b565b940152565b90612d036100ca92612cf4612dc860405190565b632d839cb360e21b602082015293849260248401612d92565b612ded9060030b6105d5565b9081156122f757637fffffff1981146000198314166105f5570590565b612e1a6100c36100c39260ff1690565b63ffffffff1690565b6101966100c36100c39263ffffffff1690565b612e429060030b6105d5565b0290612e4e8260030b90565b9182036105f557565b92919081612e6d91612e67600090565b50612de1565b9115612f0257612ea792612eac612e83846133b7565b9590612ea1612e92600161062d565b612e9c898261063a565b61124d565b93610674565b610187565b1692612eb8600061062d565b841480159490612eee5792611bff612ee1612edc612ee694610a38612eeb9861367e565b612e0a565b612e23565b612e36565b91565b50612eeb92611bff612ee1612ee693612e0a565b612ea7600193612f3f612f20612c12612f1a88610585565b87610ee4565b9390612ea1612f3b612f318a61062d565b612e9c888261063a565b1990565b1690612f4b600061062d565b821480159590612f8757612ee1612edc612ee69493612f82612f7c612eeb99612f76612f7697610585565b90610ee4565b95613436565b61069f565b612ee69250612ee1612edc612fa5612eeb97612f76612f7695610585565b9360ff61069f565b6040906102e1612fcf6100ca9597969460608401908482036000860152612d2b565b966020830152565b612d0390612cf46100ca94612feb60405190565b63ca47c4eb60e01b602082015294859360248501612fad565b6102e16100ca9461083f61302a6060959998969960808601908682036000880152612d2b565b986020850152565b612cf46100ca94612d03939461304760405190565b63a7a8785360e01b602082015295869460248601613004565b613072906001600160a01b0316612a45565b01906001600160a01b0382116105f557565b94919360009381156131705761309a8684612aa3565b8410156130ff575085908394506000146130e157612a92906130bf6130dd9484613841565b926130d7846130d2610a4d610a3e610623565b612a37565b90612a65565b9293565b6130f26130dd93836130f993613811565b8092612aa3565b93613060565b9592509093925060001461314157613133919061312d90613127836130d2600160601b610657565b85612a65565b92612aa3565b6130dd610a4d610a3e610623565b8161316061315a613166946130d2610a4d610a3e610623565b85612aa3565b93612a65565b6130dd6000610657565b61317b878785612a65565b61309a565b949391612daf906100ca946131ae6131a660609560808b01908b820360008d0152612d2b565b9260208a0152565b8782036040890152612d2b565b612cf46100ca94612d0393946131d060405190565b63c67ea9d160e01b602082015295869460248601613180565b919291906000906000198184099281810293848082109103039261320d600061062d565b841461330f57868410156132eb5792866100c39697936132579361326a96500980860395109003600161324484196108118361062d565b8416808095049604938060000304010290565b179161326a61326e8261326a600361062d565b0290565b61329f6132e56132df6132d06132c16132b26132a360029761328f8961062d565b1861326a8b820261329f8b61062d565b0390565b61326a8a820261329f8a61062d565b61326a89820261329f8961062d565b61326a88820261329f8861062d565b61326a87820261329f8761062d565b80950290565b9161062d565b8684610ad66132f960405190565b631dcf306360e21b8152928392600484016102ce565b50505050916100c391926122ed565b60001981146105f55760010190565b91929161333b8483836131e9565b91829480156122f75761335791613352600061062d565b930990565b1161335f5750565b9091506100c3906133736000198210612bdd565b61331e565b6101969061338c6105d56100c39460ff1690565b901d90565b6133a16100c36100c39260030b90565b60000b90565b61061d6100c36100c39260000b90565b906100c36133eb6133e66133d46133ce6008610610565b86613378565b946133e0610100610585565b90612bc6565b613391565b6133a7565b6100ca9060016138a3565b6100c36100c36100c39267ffffffffffffffff1690565b6100c36100c36100c39263ffffffff1690565b6100c36100c36100c39261ffff1690565b90600061344d6134458261062d565b845b11612bdd565b61345760ff610610565b806134686001600160801b036111a1565b851661347661064e8561062d565b1115613650575061348b90610a386080610610565b61349c67ffffffffffffffff6133fb565b84166134aa61064e8461062d565b111561363b576134be90610a386040610610565b6134cb63ffffffff613412565b84166134d961064e8461062d565b1115613626576134ed90610a386020610610565b6134f861ffff613425565b841661350661064e8461062d565b11156136115761351a90610a386010610610565b61352460ff612306565b841661353261064e8461062d565b11156135fc5761354690610a386008610610565b613550600f61062d565b841661355e61064e8461062d565b11156135e75761357290610a386004610610565b61357c600361062d565b841661358a61064e8461062d565b11156135cd5761064e6135a46135b792610a386002610610565b945b6135b0600161062d565b169261062d565b116135be57565b906100c390610a386001610610565b9261064e6135e26135b7926126846002610610565b6135a6565b926135f6906126846004610610565b92613572565b9261360b906126846008610610565b92613546565b92613620906126846010610610565b9261351a565b92613635906126846020610610565b926134ed565b9261364a906126846040610610565b926134be565b9361366091506126846080610610565b9261348b565b6136729060ff166106a7565b019060ff82116105f557565b9060009182613696613690600061062d565b83613447565b6136a3600160801b61062d565b8210156137e3575b506136b9600160401b61062d565b8110156137cc575b6136cf64010000000061062d565b8110156137b5575b6136e36201000061062d565b81101561379e575b6136f661010061062d565b811015613787575b613708601061062d565b811015613770575b61371a600461062d565b81101561374c575b61372f61064e600261062d565b101561373757565b906100c3906137466001610610565b90613666565b61376a9061376461375d6002610610565b80926112ce565b93613666565b91613722565b6137819061376461375d6004610610565b91613710565b6137989061376461375d6008610610565b916136fe565b6137af9061376461375d6010610610565b916136eb565b6137c69061376461375d6020610610565b916136d7565b6137dd9061376461375d6040610610565b916136c1565b92506137f69061376461375d6080610610565b91386136ab565b610128906106526107336100c39460ff1690565b6100c39261383b613836610a4d94613827600090565b50613830610623565b906137fd565b6111a1565b9161332d565b6100c391610a4d9161383b613836613857610623565b61386581610a48600161062d565b936137fd565b600080916138816a636f6e736f6c652e6c6f6790565b602082519201905afa50565b634e487b7160e01b600052605160045260246000fd5b60010361388d576100ca9061386b56fe20202020202020202020205b44454255475d3a20537572653a20707269636550a26469706673582212206b310da5df28853bbdc43e4878c8e0754fcddce5aaae3052a4ca8eb01954496864736f6c63430008180033",
  "linkReferences": {},
  "deployedLinkReferences": {}
}