{
  "_format": "hh-sol-artifact-1",
  "contractName": "TestMath",
  "sourceName": "contracts/test/TestMath.sol",
  "abi": [
    {
      "inputs": [
        {
          "internalType": "uint256",
          "name": "prod1",
          "type": "uint256"
        },
        {
          "internalType": "uint256",
          "name": "denominator",
          "type": "uint256"
        }
      ],
      "name": "PRBMath__MulDivOverflow",
      "type": "error"
    },
    {
      "inputs": [
        {
          "internalType": "uint128",
          "name": "L",
          "type": "uint128"
        },
        {
          "internalType": "uint160",
          "name": "deltaC",
          "type": "uint160"
        },
        {
          "internalType": "uint256",
          "name": "P",
          "type": "uint256"
        }
      ],
      "name": "calcAmount0",
      "outputs": [
        {
          "internalType": "uint256",
          "name": "deltaX",
          "type": "uint256"
        }
      ],
      "stateMutability": "pure",
      "type": "function"
    },
    {
      "inputs": [
        {
          "internalType": "uint128",
          "name": "deltaL",
          "type": "uint128"
        },
        {
          "internalType": "uint160",
          "name": "C",
          "type": "uint160"
        },
        {
          "internalType": "uint256",
          "name": "P",
          "type": "uint256"
        }
      ],
      "name": "calcAmount0Active",
      "outputs": [
        {
          "internalType": "uint256",
          "name": "deltaX",
          "type": "uint256"
        }
      ],
      "stateMutability": "pure",
      "type": "function"
    },
    {
      "inputs": [
        {
          "internalType": "uint128",
          "name": "deltaL",
          "type": "uint128"
        },
        {
          "internalType": "uint256",
          "name": "P",
          "type": "uint256"
        }
      ],
      "name": "calcAmount0Inactive",
      "outputs": [
        {
          "internalType": "uint256",
          "name": "deltaX",
          "type": "uint256"
        }
      ],
      "stateMutability": "pure",
      "type": "function"
    },
    {
      "inputs": [
        {
          "internalType": "uint128",
          "name": "L",
          "type": "uint128"
        },
        {
          "internalType": "uint160",
          "name": "deltaC",
          "type": "uint160"
        }
      ],
      "name": "calcAmount1",
      "outputs": [
        {
          "internalType": "uint256",
          "name": "deltaY",
          "type": "uint256"
        }
      ],
      "stateMutability": "pure",
      "type": "function"
    },
    {
      "inputs": [
        {
          "internalType": "uint128",
          "name": "deltaL",
          "type": "uint128"
        },
        {
          "internalType": "uint160",
          "name": "C",
          "type": "uint160"
        }
      ],
      "name": "calcAmount1Active",
      "outputs": [
        {
          "internalType": "uint256",
          "name": "deltaY",
          "type": "uint256"
        }
      ],
      "stateMutability": "pure",
      "type": "function"
    },
    {
      "inputs": [
        {
          "internalType": "uint128",
          "name": "deltaL",
          "type": "uint128"
        }
      ],
      "name": "calcAmount1Inactive",
      "outputs": [
        {
          "internalType": "uint256",
          "name": "deltaY",
          "type": "uint256"
        }
      ],
      "stateMutability": "pure",
      "type": "function"
    },
    {
      "inputs": [
        {
          "internalType": "uint256",
          "name": "price",
          "type": "uint256"
        },
        {
          "internalType": "uint128",
          "name": "liquidity",
          "type": "uint128"
        },
        {
          "internalType": "uint256",
          "name": "deltaAmount0",
          "type": "uint256"
        }
      ],
      "name": "calcCompositionAtAmount0",
      "outputs": [
        {
          "internalType": "uint160",
          "name": "deltaComposition",
          "type": "uint160"
        }
      ],
      "stateMutability": "pure",
      "type": "function"
    },
    {
      "inputs": [
        {
          "internalType": "uint128",
          "name": "liquidity",
          "type": "uint128"
        },
        {
          "internalType": "uint256",
          "name": "deltaAmount1",
          "type": "uint256"
        }
      ],
      "name": "calcCompositionAtAmount1",
      "outputs": [
        {
          "internalType": "uint160",
          "name": "deltaComposition",
          "type": "uint160"
        }
      ],
      "stateMutability": "pure",
      "type": "function"
    }
  ],
  "bytecode": "0x60806040523461001a576040516106b661002082396106b690f35b600080fdfe6080604052600436101561001257600080fd5b60003560e01c80630fc8d3fe1461008e5780632b3622d51461008957806335fe5590146100845780638fd63dad1461007f578063bf63ace91461007a578063c08841f014610070578063c427b988146100755763f500fa1d036100a5575b610227565b61026c565b6101e8565b6101cc565b6101b0565b610140565b6100f2565b6001600160801b0381165b036100a557565b600080fd5b905035906100b782610093565b565b8061009e565b905035906100b7826100b9565b91906040838203126100a5576100ef9060206100e882866100aa565b94016100bf565b90565b346100a55761012861010e6101083660046100cc565b90610288565b604051918291826001600160a01b03909116815260200190565b0390f35b906020828203126100a5576100ef916100aa565b346100a55761012861015b61015636600461012c565b610292565b6040519182918290815260200190565b6001600160a01b03811661009e565b905035906100b78261016b565b90916060828403126100a5576100ef6101a084846100aa565b9360406100e8826020870161017a565b346100a55761012861015b6101c6366004610187565b9161029b565b346100a55761012861015b6101e23660046100cc565b906102a6565b346100a55761012861015b6101fe366004610187565b916102b0565b91906040838203126100a5576100ef90602061022082866100aa565b940161017a565b346100a55761012861015b61023d366004610204565b906102bb565b90916060828403126100a5576100ef61025c84846100bf565b9360406100e882602087016100aa565b346100a55761012861010e610282366004610243565b916102c5565b6100ef9190610373565b6100ef906103b2565b6100ef9291906103e7565b6100ef919061040a565b6100ef929190610475565b6100ef91906104ad565b6100ef9291906104e6565b6102dd6100ef6100ef9290565b60ff1690565b6100ef60606102d0565b6100ef6100ef6100ef9290565b6100ef9061031261030e6100ef9460ff1690565b9190565b901b90565b6103389061031261032b6100ef9460ff1690565b916001600160801b031690565b6001600160801b031690565b6100ef6100ef6100ef926001600160801b031690565b6103676100ef6100ef9290565b6001600160a01b031690565b6100ef916103ad916103a76103a26103896102e3565b61039c8161039760016102ed565b6102fa565b93610317565b610344565b91610543565b61035a565b6103c76100ef916103c1600090565b50610344565b6103cf6102e3565b906102fa565b6100ef9081906001600160a01b031681565b906104046103fe6103c76100ef95946103c1600090565b916103d5565b90610543565b9061041a6100ef926103c1600090565b61040461042f6104286102e3565b80936102fa565b9161039760016102ed565b634e487b7160e01b600052601160045260246000fd5b6001600160a01b0390811691169003906001600160a01b03821161047057565b61043a565b6104046104a86100ef9493610488600090565b506104a26103c761049c600160601b61035a565b95610344565b93610450565b6103d5565b906104bd6100ef926103c1600090565b6104046104e06104d56104ce6102e3565b80946102fa565b9261039760016102ed565b926103d5565b6100ef926103a76103a26103ad946104fc600090565b506105056102e3565b90610317565b634e487b7160e01b600052601260045260246000fd5b811561052b570490565b61050b565b9081526040810192916100b79160200152565b919291906000906000198184099281810293848082109103039261056760006102ed565b841461067157868410156106495792866100ef9697936105b5936105c89650098086039510900360016105a2841961059e836102ed565b0190565b8416808095049604938060000304010290565b17916105c86105cc826105c860036102ed565b0290565b6105fd61064361063d61062e61061f6106106106016002976105ed896102ed565b186105c88b82026105fd8b6102ed565b0390565b6105c88a82026105fd8a6102ed565b6105c88982026105fd896102ed565b6105c88882026105fd886102ed565b6105c88782026105fd876102ed565b80950290565b916102ed565b868461066d61065760405190565b631dcf306360e21b815292839260048401610530565b0390fd5b50505050916100ef919261052156fea264697066735822122092e3a4db3030862950751eefce59e782206f800b10f963bd7667c9c8ac5d568564736f6c63430008180033",
  "linkReferences": {},
  "deployedLinkReferences": {}
}