{
  "_format": "hh-sol-artifact-1",
  "contractName": "Pool",
  "sourceName": "contracts/Pool.sol",
  "abi": [
    {
      "inputs": [
        {
          "internalType": "address",
          "name": "token0_",
          "type": "address"
        },
        {
          "internalType": "address",
          "name": "token1_",
          "type": "address"
        },
        {
          "internalType": "uint256",
          "name": "_pi",
          "type": "uint256"
        },
        {
          "internalType": "uint32",
          "name": "_bin",
          "type": "uint32"
        }
      ],
      "stateMutability": "nonpayable",
      "type": "constructor"
    },
    {
      "inputs": [],
      "name": "InvalidLimitPrice",
      "type": "error"
    },
    {
      "inputs": [],
      "name": "Invalidbinposition",
      "type": "error"
    },
    {
      "inputs": [],
      "name": "LiquidityNotEnough",
      "type": "error"
    },
    {
      "inputs": [
        {
          "internalType": "uint256",
          "name": "prod1",
          "type": "uint256"
        },
        {
          "internalType": "uint256",
          "name": "denominator",
          "type": "uint256"
        }
      ],
      "name": "PRBMath__MulDivOverflow",
      "type": "error"
    },
    {
      "inputs": [],
      "name": "ZeroLiquidity",
      "type": "error"
    },
    {
      "anonymous": false,
      "inputs": [
        {
          "indexed": false,
          "internalType": "uint256",
          "name": "amount0",
          "type": "uint256"
        },
        {
          "indexed": false,
          "internalType": "uint256",
          "name": "amount1",
          "type": "uint256"
        }
      ],
      "name": "Swap",
      "type": "event"
    },
    {
      "inputs": [],
      "name": "composition",
      "outputs": [
        {
          "internalType": "uint160",
          "name": "",
          "type": "uint160"
        }
      ],
      "stateMutability": "view",
      "type": "function"
    },
    {
      "inputs": [],
      "name": "liquidity",
      "outputs": [
        {
          "internalType": "uint128",
          "name": "",
          "type": "uint128"
        }
      ],
      "stateMutability": "view",
      "type": "function"
    },
    {
      "inputs": [
        {
          "internalType": "address",
          "name": "owner",
          "type": "address"
        },
        {
          "internalType": "uint32",
          "name": "target_bin",
          "type": "uint32"
        },
        {
          "internalType": "uint128",
          "name": "amount",
          "type": "uint128"
        },
        {
          "internalType": "bytes",
          "name": "data",
          "type": "bytes"
        }
      ],
      "name": "mint",
      "outputs": [
        {
          "internalType": "uint256",
          "name": "amount0",
          "type": "uint256"
        },
        {
          "internalType": "uint256",
          "name": "amount1",
          "type": "uint256"
        }
      ],
      "stateMutability": "nonpayable",
      "type": "function"
    },
    {
      "inputs": [
        {
          "internalType": "address",
          "name": "",
          "type": "address"
        },
        {
          "internalType": "address",
          "name": "",
          "type": "address"
        },
        {
          "internalType": "uint256[]",
          "name": "",
          "type": "uint256[]"
        },
        {
          "internalType": "uint256[]",
          "name": "",
          "type": "uint256[]"
        },
        {
          "internalType": "bytes",
          "name": "",
          "type": "bytes"
        }
      ],
      "name": "onERC1155BatchReceived",
      "outputs": [
        {
          "internalType": "bytes4",
          "name": "",
          "type": "bytes4"
        }
      ],
      "stateMutability": "nonpayable",
      "type": "function"
    },
    {
      "inputs": [
        {
          "internalType": "address",
          "name": "",
          "type": "address"
        },
        {
          "internalType": "address",
          "name": "",
          "type": "address"
        },
        {
          "internalType": "uint256",
          "name": "",
          "type": "uint256"
        },
        {
          "internalType": "uint256",
          "name": "",
          "type": "uint256"
        },
        {
          "internalType": "bytes",
          "name": "",
          "type": "bytes"
        }
      ],
      "name": "onERC1155Received",
      "outputs": [
        {
          "internalType": "bytes4",
          "name": "",
          "type": "bytes4"
        }
      ],
      "stateMutability": "nonpayable",
      "type": "function"
    },
    {
      "inputs": [],
      "name": "slot",
      "outputs": [
        {
          "internalType": "uint256",
          "name": "pi",
          "type": "uint256"
        },
        {
          "internalType": "uint32",
          "name": "bin",
          "type": "uint32"
        }
      ],
      "stateMutability": "view",
      "type": "function"
    },
    {
      "inputs": [
        {
          "internalType": "bytes4",
          "name": "interfaceId",
          "type": "bytes4"
        }
      ],
      "name": "supportsInterface",
      "outputs": [
        {
          "internalType": "bool",
          "name": "",
          "type": "bool"
        }
      ],
      "stateMutability": "view",
      "type": "function"
    },
    {
      "inputs": [
        {
          "internalType": "uint256",
          "name": "expectedAmount",
          "type": "uint256"
        },
        {
          "internalType": "uint256",
          "name": "limitPrice",
          "type": "uint256"
        },
        {
          "internalType": "bool",
          "name": "zeroforone",
          "type": "bool"
        },
        {
          "internalType": "bytes",
          "name": "data",
          "type": "bytes"
        }
      ],
      "name": "swap",
      "outputs": [
        {
          "internalType": "uint256",
          "name": "amount0",
          "type": "uint256"
        },
        {
          "internalType": "uint256",
          "name": "amount1",
          "type": "uint256"
        }
      ],
      "stateMutability": "nonpayable",
      "type": "function"
    },
    {
      "inputs": [],
      "name": "token0",
      "outputs": [
        {
          "internalType": "address",
          "name": "",
          "type": "address"
        }
      ],
      "stateMutability": "view",
      "type": "function"
    },
    {
      "inputs": [],
      "name": "token1",
      "outputs": [
        {
          "internalType": "address",
          "name": "",
          "type": "address"
        }
      ],
      "stateMutability": "view",
      "type": "function"
    }
  ],
  "bytecode": "0x60c060405234620000465762000022620000186200013e565b929190916200023e565b60405161356862000277823960805181610157015260a051816105bd015261356890f35b600080fd5b634e487b7160e01b600052604160045260246000fd5b90601f01601f191681019081106001600160401b038211176200008357604052565b6200004b565b90620000a06200009860405190565b928362000061565b565b90565b6001600160a01b0381165b036200004657565b90505190620000a082620000a5565b80620000b0565b90505190620000a082620000c7565b63ffffffff8116620000b0565b90505190620000a082620000dd565b6080818303126200004657620001108282620000b8565b92620000a2620001248460208501620000b8565b936060620001368260408701620000ce565b9401620000ea565b62000161620037df80380380620001558162000089565b928339810190620000f9565b90919293565b620000a2604062000089565b90600019905b9181191691161790565b620000a2620000a2620000a29290565b90620001a7620000a2620001af9262000183565b825462000173565b9055565b9063ffffffff9062000179565b620001d6620000a2620000a29263ffffffff1690565b63ffffffff1690565b90620001f3620000a2620001af92620001c0565b8254620001b3565b60016200022a6020620000a0946200021f62000218600083015190565b8662000193565b015163ffffffff1690565b9101620001df565b90620000a091620001fb565b60805260a052620000a0916200026e90620002616200025c62000167565b938452565b63ffffffff166020830152565b60076200023256fe6101c0604052600436101561001357600080fd5b60003560e01c806301ffc9a7146100b35780630dfe1681146100ae5780631a686502146100a95780631a88bc66146100a4578063428716f81461009f578063bc197c811461009a578063d21220a714610095578063d456b5dd14610090578063dd42d4c61461008b5763f23a6e61036100cb576106ca565b61066d565b61060c565b6105a8565b61056e565b61035b565b610230565b6101bd565b610142565b6100fa565b6001600160e01b031981165b036100cb57565b600080fd5b905035906100dd826100b8565b565b906020828203126100cb576100f3916100d0565b90565b9052565b346100cb576101276101156101103660046100df565b6106e9565b60405191829182901515815260200190565b0390f35b60009103126100cb57565b6001600160a01b031690565b346100cb5761015236600461012b565b6101277f00000000000000000000000000000000000000000000000000000000000000005b604051918291826001600160a01b03909116815260200190565b6100f3916008021c5b6001600160801b031690565b906100f39154610191565b6100f3600060056101a6565b346100cb576101cd36600461012b565b6101276101d86101b1565b604051918291826001600160801b03909116815260200190565b6100f39081565b6100f390546101f2565b6100f3905b63ffffffff1690565b6100f39054610203565b61022560076101f9565b906100f36008610211565b346100cb5761024036600461012b565b61024861021b565b9061012761025560405190565b9283928390815263ffffffff909116602082015260400190565b6001600160a01b0381166100c4565b905035906100dd8261026f565b63ffffffff81166100c4565b905035906100dd8261028b565b6001600160801b0381166100c4565b905035906100dd826102a4565b909182601f830112156100cb5781359167ffffffffffffffff83116100cb5760200192600183028401116100cb57565b906080828203126100cb57610305818361027e565b926103138260208501610297565b9261032183604083016102b3565b92606082013567ffffffffffffffff81116100cb5761034092016102c0565b9091565b9081526040810192916100dd9160200152565b0152565b346100cb5761037761036e3660046102f0565b93929092610978565b9061012761038460405190565b92839283610344565b634e487b7160e01b600052604160045260246000fd5b90601f01601f1916810190811067ffffffffffffffff8211176103c557604052565b61038d565b906100dd6103d760405190565b92836103a3565b67ffffffffffffffff81116103c55760208091020190565b806100c4565b905035906100dd826103f6565b9092919261041e610419826103de565b6103ca565b93818552602080860192028301928184116100cb57915b8383106104425750505050565b6020809161045084866103fc565b815201920191610435565b9080601f830112156100cb578160206100f393359101610409565b67ffffffffffffffff81116103c557602090601f01601f19160190565b0190565b90826000939282370152565b909291926104b361041982610476565b93818552818301116100cb576100dd916020850190610497565b9080601f830112156100cb578160206100f3933591016104a3565b91909160a0818403126100cb576104ff838261027e565b9261050d816020840161027e565b92604083013567ffffffffffffffff81116100cb578261052e91850161045b565b92606081013567ffffffffffffffff81116100cb578361054f91830161045b565b92608082013567ffffffffffffffff81116100cb576100f392016104cd565b346100cb5761012761058d6105843660046104e8565b93929092610c11565b604051918291826001600160e01b0319909116815260200190565b346100cb576105b836600461012b565b6101277f0000000000000000000000000000000000000000000000000000000000000000610177565b6100f3916008021c6001600160a01b031690565b906100f391546105e1565b6100f3600060066105f5565b346100cb5761061c36600461012b565b610127610177610600565b8015156100c4565b905035906100dd82610627565b906080828203126100cb5761065181836103fc565b9261065f82602085016103fc565b92610321836040830161062f565b346100cb5761037761068036600461063c565b93929092611181565b91909160a0818403126100cb576106a0838261027e565b926106ae816020840161027e565b926106bc82604085016103fc565b9261054f83606083016103fc565b346100cb5761012761058d6106e0366004610689565b93929092611a63565b630271189760e51b6001600160e01b0319821614908115610708575090565b6100f391506001600160e01b0319166301ffc9a760e01b1490565b6102086100f36100f39290565b6100f3628d89e8610723565b6100f362727618610723565b61019a6100f36100f39290565b6107626100f36100f39290565b60ff1690565b6100f36060610755565b6100f36100f36100f39290565b6100f3906107976107936100f39460ff1690565b9190565b901b90565b6101366100f36100f39290565b6102086100f36100f39263ffffffff1690565b906107c6906107a9565b600052602052604060002090565b6100f390610762565b6100f390546107d4565b634e487b7160e01b600052601160045260246000fd5b61080c9060ff165b9160ff1690565b90039060ff821161081957565b6107e7565b906001600160a01b03905b9181191691161790565b6100f390610136906001600160a01b031682565b906108576100f361085e92610833565b825461081e565b9055565b6100f390610136565b6100f39054610862565b6100f39061019a565b6100f39054610875565b6108a3906001600160801b03165b916001600160801b031690565b01906001600160801b03821161081957565b906001600160801b0390610829565b61019a6100f36100f3926001600160801b031690565b906108ea6100f361085e926108c4565b82546108b5565b6100f390610833565b6100f3906108f1565b91906109218161091a816104939560209181520190565b8095610497565b601f01601f191690565b9093916100f3959361095861095f926109516080860198600087019063ffffffff169052565b6020850152565b6040830152565b6060818503910152610903565b6040513d6000823e3d90fd5b93949290600095869361098c610208610730565b63ffffffff8416118015610bd2575b610bc0576000946109ab86610748565b6001600160801b03831614610baa576109c46008610211565b986109ce85611c20565b9963ffffffff811663ffffffff871603610b46575050506109f9856109f385826107bc565b016107dd565b15610af157610a6090610a5b84610a26610a1f610a16600661086b565b9c5b8d86612391565b9b846123c9565b99610a44610a3d85610a38600561087e565b610888565b60056108da565b610a4f84838b612455565b610ae1575b6001612697565b6126e1565b610a71610a6c336108fa565b6108fa565b803b156100cb5787858094610aa48a95610a8a60405190565b988997889687956363439a5560e01b87526004870161092b565b03925af18015610adc57610ab6575050565b816100dd92903d10610ad5575b610acd81836103a3565b81019061012b565b503d610ac3565b61096c565b610aec826002612591565b610a54565b610a6090610a5b84610a26610a1f610b419c610b38610b33610b24610b14610768565b610b1e6001610755565b906107fd565b610b2e6001610772565b61077f565b61079c565b9d8e6006610847565b610a18565b9899919863ffffffff1663ffffffff86161115610b80575090610a5b84610b7a610a6094610b738a61079c565b508461231b565b9a610a44565b98975050610a6090610b96610b33610b24610768565b50610a5b84610ba4836122f8565b99610a44565b604051630200e8a960e31b8152600490fd5b0390fd5b604051633944550f60e21b8152600490fd5b50610bde61020861073c565b63ffffffff84161061099b565b610c04610bfe6100f39263ffffffff1690565b60e01b90565b6001600160e01b03191690565b5050505050610c1e600090565b506100f363bc197c81610beb565b8181029291811591840414171561081957565b9160001960089290920291821b911b610829565b9190610c646100f361085e93610772565b908354610c3f565b6100dd91600091610c53565b818110610c83575050565b80610c916000600193610c6c565b01610c78565b919091828210610ca657505050565b6100dd9291610cbb9091600052602060002090565b9182019101610c78565b90600160401b81116103c55781610cdd6100dd935490565b90828155610c97565b60006100dd91610cc5565b634e487b7160e01b600052600060045260246000fd5b90600003610d18576100dd90610ce6565b610cf1565b6100f360406103ca565b906100dd610d4f6001610d38610d1d565b94610d49610d45826101f9565b8752565b01610211565b63ffffffff166020840152565b6100f390610d27565b6100f36401000276a3610772565b6100f373fffd8963efd1fc6a506488495d951d5263988d26610772565b6100f360a06103ca565b90610da761041983610476565b918252565b610db66005610d9a565b6462696e203d60d81b602082015290565b6100f3610dac565b6100f36100f36100f39263ffffffff1690565b6100f360c06103ca565b610df4610de2565b906000825260208080808080870160008152016000815201600081520160008152016000905250565b6100f3610dec565b9190820391821161081957565b9190820180921161081957565b634e487b7160e01b600052603260045260246000fd5b8054821015610e7857610e6f600191600052602060002090565b91020190600090565b610e3f565b90815491600160401b8310156103c55782610ea09160016100dd95018155610e55565b90610c53565b610eb06018610d9a565b7f446f6e6520506172746c793a206e6f206d6f72652062696e0000000000000000602082015290565b6100f3610ea6565b610eeb601e610d9a565b7f446f6e6520506172746c793a206f7574206f66206c696d697470726963650000602082015290565b6100f3610ee1565b610f26601d610d9a565b7f446f6e653a2066756c6c206f6620657870656374656420616d6f756e74000000602082015290565b6100f3610f1c565b6100f39060081c61019a565b6100f39054610f57565b90610da7610419836103de565b369037565b906100dd610f95610f8f84610f6d565b936103de565b601f190160208401610f7a565b6100f3916008021c81565b906100f39154610fa2565b610fc2603f610d9a565b7f74656d704964735b695d207c2074656d70416d6f756e74734f66546f6b656e3060208201527f5b695d207c2074656d70416d6f756e74734f66546f6b656e315b695d203d2000604082015290565b6100f3610fb8565b90611022825190565b811015610e78576020809102010190565b9063ffffffff90610829565b9061104f6100f361085e926107a9565b8254611033565b9060001990610829565b906110706100f361085e92610772565b8254611056565b91906060838203126100cb5761095890604061109360606103ca565b9461109e838261027e565b86526110ad836020830161027e565b60208701520161027e565b906060828203126100cb576100f391611077565b906110ec6110e56110db845190565b8084529260200190565b9260200190565b9060005b8181106110fd5750505090565b90919261111a6111136001928651815260200190565b9460200190565b9291016110f0565b969593909461116a60809461115c6111789561114e8c6100dd9b60a082019160008184039101526110cc565b8c810360208e0152906110cc565b908a820360408c01526110cc565b9188830360608a0152610903565b94019015159052565b60c0526101a0526101205261018052610160526000610100526111a660006009610d07565b6111b26000600a610d07565b6111be6000600b610d07565b6111c86007610d5c565b6111d2600561087e565b600061012051600014611a3457506111eb6100f3835190565b6101a0511180611a18575b155b611a065761124e82611245611222600061121c602061126298015163ffffffff1690565b93015190565b916000608052611230610d90565b60a05260805160a051019063ffffffff169052565b602060a0510152565b604060a05101906001600160801b03169052565b61126d608051610772565b6101405261128161014051606060a0510152565b61129161014051608060a0510152565b6101405160c05111806119c6575b156118d6576112d26112bb60805160a051015163ffffffff1690565b6112cc6112c6610dc7565b91610dcf565b90612767565b6112da610e1d565b60e05260a051602001516112f29060805160e0510152565b60805160a051015163ffffffff168061130e602060a051015190565b906101205160001461197a5750611326826002612afa565b63ffffffff8082160361194d575b505b61134d61020860805160a051015163ffffffff1690565b63ffffffff8316146119295761137161137a92602060e051019063ffffffff169052565b604060e0510152565b61010051506113e36113ea6113da6113ca61139960805160e051015190565b60a051604001516001600160801b0316906113b4600661086b565b60e051604001519060c051936101205193612d25565b60a060e097949795929395510152565b608060e0510152565b6006610847565b6114026113fa60a060e051015190565b60c051610e25565b908160c05261142e61141760a060e051015190565b6100f6606060a0510191611429835190565b610e32565b61145061143e608060e051015190565b6100f6608060a0510191611429835190565b611477600961147161146c60805160a051015163ffffffff1690565b610dcf565b90610e7d565b6101205115611903576114b061149060a060e051015190565b6114a96114a0608060e051015190565b915b600a610e7d565b600b610e7d565b602060e05101916114c5835163ffffffff1690565b6114d863ffffffff5b9163ffffffff1690565b146118f55761012051156118db5760e051604001516114fa6107936101a05190565b115b6118c85761014051146115625761124561151d61152f935163ffffffff1690565b60805160a051019063ffffffff169052565b61155d61124e61155461154c60805160a051015163ffffffff1690565b6080516107bc565b60805101610f63565b611291565b505061157461156f610f4f565b612e24565b600990611587611582835490565b610f7f565b91611593611582825490565b9261159f611582835490565b91610140515b6115b06100f3835490565b81101561166b576115c18183610e55565b6115ca91610fad565b81600a6115d78282610e55565b6115e091610fad565b92600b936115ee8486610e55565b6115f791610fad565b90611600611011565b9261160a93612e7e565b816116158187610e55565b61161e91610fad565b6116288289611019565b5261163291610e55565b61163b91610fad565b611645828a611019565b5261164f91610e55565b61165891610fad565b6116628286611019565b526001016115a5565b5050929192611689610a3d604060a05101516001600160801b031690565b6116a76116a060805160a051015163ffffffff1690565b600861103f565b6116c26116b7602060a051015190565b608051600701611060565b6116d7610160516101805101610180516110b8565b6116f2610a6c610a6c6080518401516001600160a01b031690565b63a22cb46591813b156100cb576040519161170d8460e01b90565b835233600484015260016024840152608051908390604490829084905af1918215610adc576020610a6c92610a6c92611754956118a8575b5001516001600160a01b031690565b803b156100cb5761176e61176760405190565b9260e01b90565b825233600483015260016024830152608051908290604490829084905af18015610adc57611888575b506117a4610a6c336108fa565b91823b156100cb576117de906117b960405190565b94859363859e32a760e01b855261012051926101605192610180519260048801611122565b918180608051940391608051905af18015610adc57611868575b50610120511561184d5760a0516060015190611817608060a051015190565b905b7f015fc8ee969fd902d9ebd12a31c54446400a2b512a405366fe14defd6081d220828461184861038460405190565b0390a1565b60a0516080015190611862606060a051015190565b90611819565b611882906080513d60805111610ad557610acd81836103a3565b386117f8565b6118a2906080513d60805111610ad557610acd81836103a3565b38611797565b6118c2906080513d60805111610ad557610acd81836103a3565b38611745565b5050506118d661156f610f14565b611574565b60e051604001516118ef6107936101a05190565b106114fc565b5050506118d661156f610ed9565b6114b0611913608060e051015190565b6114a961192360a060e051015190565b916114a2565b505060e05163ffffffff602090910152611948600019604060e0510152565b61137a565b61195681611c20565b906119616101a05190565b82111561196f575b50611334565b925090503880611969565b611985906002612898565b63ffffffff80821603611999575b50611336565b6119a281611c20565b906119ad6101a05190565b8210156119bb575b50611993565b9250905038806119b5565b5061012051156119eb5760a051602001516119e46107936101a05190565b111561129f565b60a051602001516119ff6107936101a05190565b101561129f565b604051632e6cde9d60e11b8152600490fd5b506111f8611a276100f3610d73565b6101a051111590506111f6565b8201516101a0511080611a4757156111f8565b506111f8611a566100f3610d65565b6101a051101590506111f6565b5050505050611a70600090565b506100f363f23a6e61610beb565b1490565b611a956100f36100f39263ffffffff1690565b60030b90565b611a956100f36100f39290565b6100f362800000611a9b565b611ac29060030b9160030b90565b900390637fffffff198212637fffffff83131761081957565b611aeb6100f36100f39260030b90565b60020b90565b611aeb6100f36100f39290565b6100f36100f36100f39260020b90565b600160ff1b81146108195760000390565b6100f362080000611af1565b611b3b6100f36100f39260020b90565b62ffffff1690565b6100f36100f36100f39262ffffff1690565b15611b5c57565b60405162461bcd60e51b815260206004820152601560248201527462696e206973206f7574206f662072616e6765202160581b6044820152606490fd5b611ba66100f36100f39290565b6001600160881b031690565b6100f36100f36100f3926001600160881b031690565b6100f390611bdc6107936100f39460ff1690565b901c90565b634e487b7160e01b600052601260045260246000fd5b8115611c01570490565b611be1565b8115611c01570690565b6100f36100f36100f39260ff1690565b611c4e611c49611c3b6100f393611c35600090565b50611a82565b611c43611aa8565b90611ab4565b611adb565b6000611c5981611af1565b611c638360020b90565b12156122d057611c82611c7d611c7884611afe565b611b0e565b610772565b915b611caa611ca26100f3611c9d611c98611b1f565b611b2b565b611b43565b841115611b55565b611cb46001610772565b8316611cc261079384610772565b146122c057611ce8611ce36ffff97272373d40000000000000000000611b99565b611bb2565b92611cf36002610772565b8116611d0161079385610772565b03612299575b611d116004610772565b8116611d1f61079385610772565b03612272575b611d2f6008610772565b8116611d3d61079385610772565b0361224b575b611d4d6010610772565b8116611d5b61079385610772565b03612224575b611d6b6020610772565b8116611d7961079385610772565b036121fd575b611d896040610772565b8116611d9761079385610772565b036121cc575b608090611da982610772565b8116611db761079386610772565b036121a5575b611dc8610100610772565b8116611dd661079386610772565b0361217e575b611de7610200610772565b8116611df561079386610772565b03612157575b611e06610400610772565b8116611e1461079386610772565b03612130575b611e25610800610772565b8116611e3361079386610772565b03612109575b611e44611000610772565b8116611e5261079386610772565b036120e2575b611e63612000610772565b8116611e7161079386610772565b036120bb575b611e82614000610772565b8116611e9061079386610772565b03612094575b611ea1618000610772565b8116611eaf61079386610772565b0361206d575b611ec162010000610772565b8116611ecf61079386610772565b03612047575b611ee162020000610772565b8116611eef61079386610772565b03612022575b611f0162040000610772565b8116611f0f61079386610772565b03611ff6575b611f2162080000610772565b16611f2e61079385610772565b03611fc2575b50611f48611f4183611af1565b9160020b90565b13611faf575b611f79611f64611f5e6020610755565b84611bc8565b92611f73640100000000610772565b90611c06565b611f8561079383610772565b03611fa157611f96611f9b91610755565b611c10565b90610e32565b50611f9b611f966001610755565b90611fbc90600019611bf7565b90611f4e565b611fe9611fe3611fef9395611fdd66149b34ee7b4533610772565b90610c2c565b91610755565b90611bc8565b9138611f34565b9361201361201c91611fdd6b048a1703920644c000000000610772565b611fe983610755565b93611f15565b9361201361204191611fdd6d2216e584f6303800000000000000610772565b93611ef5565b9361201361206791611fdd6e5d6af8dedbcb380000000000000000610772565b93611ed5565b9361201361208e91611fdd6f09aa508b5b7e5a800000000000000000610772565b93611eb5565b936120136120b591611fdd6f31be135f97da6e000000000000000000610772565b93611e96565b936120136120dc91611fdd6f70d869a156ddd4000000000000000000610772565b93611e77565b9361201361210391611fdd6fa9f746462d8f78000000000000000000610772565b93611e58565b9361201361212a91611fdd6fd097f3bdfd2550000000000000000000610772565b93611e39565b9361201361215191611fdd6fe7159475a2c578000000000000000000610772565b93611e1a565b9361201361217891611fdd6ff3392b0822b880000000000000000000610772565b93611dfb565b9361201361219f91611fdd6ff987a7253ac4d8000000000000000000610772565b93611ddc565b936120136121c691611fdd6ffcbe86c7900ae8000000000000000000610772565b93611dbd565b926121ed6121f791611fdd6ffe5dee046a99d8000000000000000000610772565b611fe96080610755565b92611d9d565b926121ed61221e91611fdd6fff2ea16466c980000000000000000000610772565b92611d7f565b926121ed61224591611fdd6fff973b41fa98d8000000000000000000610772565b92611d61565b926121ed61226c91611fdd6fffcb9843d60f68000000000000000000610772565b92611d43565b926121ed61229391611fdd6fffe5caca7e10f0000000000000000000610772565b92611d25565b926121ed6122ba91611fdd6ffff2e50f5f6570000000000000000000610772565b92611d07565b611ce8611ce3600160801b611b99565b6122dc611c7d83611afe565b91611c84565b6100f36100f36100f3926001600160801b031690565b61230d6100f391612307600090565b506122e2565b612315610768565b9061077f565b9061232b6100f392612307600090565b61234b612340612339610768565b809361077f565b91610b2e6001610772565b90612eac565b61236c906001600160a01b03165b916001600160a01b031690565b9003906001600160a01b03821161081957565b6100f39081906001600160a01b031681565b61234b6123c46100f394936123a4600090565b506123be61230d6123b8600160601b61079c565b956122e2565b93612351565b61237f565b906123d96100f392612307600090565b61234b6123fc6123f16123ea610768565b809461077f565b92610b2e6001610772565b9261237f565b9060ff90610829565b9061241b6100f361085e92151590565b8254612402565b9070ffffffffffffffffffffffffffffffff009060081b610829565b9061244e6100f361085e926108c4565b8254612422565b6100f36100dd926124719295949561246b600090565b506107bc565b9261247b84610f63565b600094859161248c61089684610748565b146124dc575b01936124d46124ce6124ad6124a688610f63565b9485610888565b93611a7e6108966124bd86610748565b6001600160801b0388161495610748565b91151590565b14159361243e565b6124e9600183830161240b565b612492565b61020890611bdc6114ce6100f39460ff1690565b6125156100f36100f39263ffffffff1690565b61ffff1690565b6107626100f36100f39263ffffffff1690565b6125156100f36100f39261ffff1690565b906107c69061252f565b61251590611bdc61255e6100f39460ff1690565b9161ffff1690565b6107626100f36100f39261ffff1690565b6107626100f36100f39260ff1690565b906107c690612577565b60006126416100dd936125a46008610755565b610b2e61261a61261461260f6125cb6125c56125c087896124ee565b612502565b9661251c565b9461260960028b01612604896125e96125e48285612540565b6101f9565b6125fd6125f66001610772565b9b8c61077f565b1792612540565b611060565b8661254a565b612566565b93612566565b61260484600189019261263a6126336125e48487612587565b918761077f565b1792612587565b91019061264d826101f9565b1790611060565b6100f6906001600160a01b031660601b90565b6100f69063ffffffff16610bfe565b6014816126896104939360049695612654565b018092612667565b906107c6565b6126bc6126c86100f3946100f3946126ae60405190565b938492602084019283612676565b908103825203826103a3565b6126da6126d3825190565b9160200190565b2090612691565b6100dd916126f290610a388361087e565b906108da565b60005b83811061270b5750506000910152565b81810151838201526020016126fb565b61273c61092160209361049393612730815190565b80835293849260200190565b958691016126f8565b929160206127626100dd936040870190878203600089015261271b565b940152565b906127a36100dd9261279461277b60405190565b632d839cb360e21b602082015293849260248401612745565b602082018103825203826103a3565b612fe1565b6125156100f36100f39260ff1690565b6125159061079761255e6100f39460ff1690565b6125156100f36100f39290565b6127e69061ffff1661255e565b019061ffff821161081957565b6128009061ffff1661255e565b90039061ffff821161081957565b6102086100f36100f39261ffff1690565b610208906107976114ce6100f39460ff1690565b6128429063ffffffff166114ce565b019063ffffffff821161081957565b6128609063ffffffff166114ce565b90039063ffffffff821161081957565b61287c9060ff16610805565b019060ff821161081957565b6102086100f36100f39260ff1690565b6128a26008610755565b6128af6125c082856124ee565b80926128ba8561251c565b9260028201906128cd6125e48584612540565b956001966128da88610772565b906128ee826128e98a8261077f565b610e25565b1690819660009261290161079385610772565b111561294357505050505050506100f39392610b1e611fe361293d9461293261292c61293896612fec565b94610755565b90612870565b612888565b90612851565b9295995092955092955061296e61295d61260f878461254a565b9161296860ff6127a8565b16612566565b92878901916129806125e48285612587565b61298e856128e9888261077f565b16938461299d61079385610772565b1115612a1257505050506100f39650612a0693612a016129fb6129f66125e46129ef61293d9a986129e96129e48e610b1e611fe3612a0c9d61293261292c612a069f612fec565b6127a8565b906127f3565b8098612540565b612fec565b9461280e565b61281f565b91610723565b90612833565b9195509250612a3c93506128e9612a2e86612a35949b016101f9565b938261077f565b1691610772565b811115612aed57612a0c612a0683612a01612ae8612ade6129f66125e461293d9a612ad8612ad26100f39f8f612ac6612a069f829f90612abb6129e4612acc96610b1e612ab56129f66125e4612a9c612a97612ac09a612fec565b610755565b94612aaf612aa98d610755565b876107fd565b90612587565b97610755565b6127b8565b916127cc565b906127d9565b9b6127cc565b8b6127f3565b90612540565b956129e98a6127cc565b61280e565b505050505063ffffffff90565b90612b056008610755565b91612b136125c084846124ee565b906128e982612b218561251c565b956002840191612b346125e48785612540565b95600196612b66612b62612b50612b4a8b610755565b8d612870565b612b598b610772565b9889918261077f565b1990565b1695600087612b7761079383610772565b1115612ba657505050505050506100f393612ba1612a0c93610b1e611fe3612a976129389661322a565b6107fd565b929599509281612bbc929598995081975061254a565b612bc590612566565b92612bd060ff6127a8565b16612bda90612566565b9287830198612be9828b612587565b612bf2906101f9565b81612bfc8b610755565b612c069088612870565b612c10908261077f565b90612c1a91610e25565b19169384612c2785610772565b1015612c7457505050506100f39650612a0693612a016129fb612c6f6125e46129ef61293d9a98612ac66129e4612a0c9a8f612ba190610b1e611fe3612a97612a069f61322a565b61322a565b839650612ca69550612b62929450612ca0612c96612a35956128e993016101f9565b956129328c610755565b8261077f565b811115612aed57612a0c612a0683612a01612ae8612ade612c6f6125e461293d9a612ad8612ad26100f39f8f612ac6612a069f829f90612abb6129e4612acc96610b1e612ab5612c6f6125e4612a9c612a97612ac09a61322a565b612d13906001600160a01b031661235f565b01906001600160a01b03821161081957565b949293909193612d33600090565b506000908215612e0457612d5d87612d5788612d52600160601b61079c565b612351565b8661345f565b851015612da757505015612d8e57612d8a90612d84612d7d8483886134c5565b80926123c9565b93612d01565b9293565b612d8a906123be85612da08584613490565b809361345f565b95929493505015612de257612dd1612dc9612dd793612d52600160601b61079c565b91828561345f565b926123c9565b90612d8a600061079c565b612df691612df081856123c9565b9361345f565b90612d8a600160601b61079c565b612e0e86856123c9565b612d5d565b60208082526100f39291019061271b565b6127946127a36100dd92612e3760405190565b63104c13eb60e21b602082015292839160248301612e13565b6103576100dd94610958612e76606095999896996080860190868203600088015261271b565b986020850152565b6127946100dd946127a39394612e9360405190565b63a7a8785360e01b602082015295869460248601612e50565b9192919060009060001981840992818102938480821091030392612ed06000610772565b8414612fd25786841015612fae5792866100f3969793612f1a93612f2d965009808603951090036001612f07841961049383610772565b8416808095049604938060000304010290565b1791612f2d612f3182612f2d6003610772565b0290565b612f62612fa8612fa2612f93612f84612f75612f66600297612f5289610772565b18612f2d8b8202612f628b610772565b0390565b612f2d8a8202612f628a610772565b612f2d898202612f6289610772565b612f2d888202612f6288610772565b612f2d878202612f6287610772565b80950290565b91610772565b8684610bbc612fbc60405190565b631dcf306360e21b815292839260048401610344565b50505050916100f39192611bf7565b6100dd906001613522565b9060008092613004612ffe607f610755565b82611bc8565b9160009261301461079385610772565b036131dd575b50613028612ffe603f610755565b61303461079384610772565b036131bb575b613047612ffe601f610755565b61305361079384610772565b03613199575b613066612ffe600f610755565b61307261079384610772565b03613177575b613085612ffe6007610755565b61309161079384610772565b03613155575b6130a4612ffe6003610755565b6130b061079384610772565b03613133575b6130c06001610755565b916130cb8383611bc8565b6130d761079383610772565b0361310a575b6130e690610772565b81036130f0575050565b6100f39293916130ff91611bc8565b50611f9b6001610772565b939061312b6131206130e692611fe96002610755565b92611f9b6002610772565b9490506130dd565b61314461314f91611fe96004610755565b93611f9b6004610772565b926130b6565b61316661317191611fe96008610755565b93611f9b6008610772565b92613097565b61318861319391611fe96010610755565b93611f9b6010610772565b92613078565b6131aa6131b591611fe96020610755565b93611f9b6020610772565b92613059565b6131cc6131d791611fe96040610755565b93611f9b6040610772565b9261303a565b93506131f06131fb91611fe96080610755565b93611f9b6080610772565b923861301a565b6100f36100f36100f39267ffffffffffffffff1690565b6100f36100f36100f39261ffff1690565b6100f390600090816132426001600160801b036122e2565b82169260009361325461079386610772565b1115613449575061326990611f9b6080610772565b61327a67ffffffffffffffff613202565b821661328861079385610772565b11156134345761329c90611f9b6040610772565b6132a963ffffffff610dcf565b82166132b761079385610772565b111561341f576132cb90611f9b6020610772565b6132d661ffff613219565b82166132e461079385610772565b111561340a576132f890611f9b6010610772565b61330260ff611c10565b821661331061079385610772565b11156133f55761332490611f9b6008610772565b61332e600f610772565b821661333c61079385610772565b11156133e05761335090611f9b6004610772565b61335a6003610772565b821661336861079385610772565b11156133ca5761337c90611f9b6002610772565b915b61339661079361338e6001610772565b841692610772565b11156133b657506133ab90611f9b6001610772565b6128e9610100610772565b6133c490611fe96001610755565b506133ab565b91906133da90611fe96002610755565b9061337e565b906133ef90611fe96004610755565b90613350565b9061340490611fe96008610755565b90613324565b9061341990611fe96010610755565b906132f8565b9061342e90611fe96020610755565b906132cb565b9061344390611fe96040610755565b9061329c565b916134599150611fe96080610755565b90613269565b9061234b61347661230d6100f39594612307600090565b9161237f565b61019a906107976108966100f39460ff1690565b6100f391610b33916134bf6134ba6134a6610768565b6134b481610b2e6001610772565b9361347c565b6122e2565b91612eac565b6100f3926134bf6134ba610b33946134db600090565b506134e4610768565b9061347c565b600080916135006a636f6e736f6c652e6c6f6790565b602082519201905afa50565b634e487b7160e01b600052605160045260246000fd5b60010361350c576100dd906134ea56fea2646970667358221220c39d3c64b2cb966816f0357809809f4eb158e8c07da3282c4e726b955b0a2dda64736f6c63430008180033",
  "linkReferences": {},
  "deployedLinkReferences": {}
}