{
  "_format": "hh-sol-artifact-1",
  "contractName": "TestIndexTree",
  "sourceName": "contracts/test/TestIndexTree.sol",
  "abi": [
    {
      "inputs": [
        {
          "internalType": "uint32",
          "name": "bin",
          "type": "uint32"
        }
      ],
      "name": "findbigbin",
      "outputs": [
        {
          "internalType": "uint32",
          "name": "nextBin",
          "type": "uint32"
        }
      ],
      "stateMutability": "view",
      "type": "function"
    },
    {
      "inputs": [
        {
          "internalType": "uint32",
          "name": "bin",
          "type": "uint32"
        }
      ],
      "name": "findsmallbin",
      "outputs": [
        {
          "internalType": "uint32",
          "name": "nextBin",
          "type": "uint32"
        }
      ],
      "stateMutability": "view",
      "type": "function"
    },
    {
      "inputs": [
        {
          "internalType": "uint32",
          "name": "bin",
          "type": "uint32"
        }
      ],
      "name": "flipbin",
      "outputs": [],
      "stateMutability": "nonpayable",
      "type": "function"
    }
  ],
  "bytecode": "0x60806040523461001a5760405161105d610020823961105d90f35b600080fdfe6080604052600436101561001257600080fd5b60003560e01c80634da4e3c7146100425780637291e6ef1461003d57639e8fa2e103610055576100d3565b6100a1565b610080565b63ffffffff81160361005557565b600080fd5b9050359061006782610047565b565b906020828203126100555761007d9161005a565b90565b3461005557610098610093366004610069565b6101c1565b604051005b0390f35b346100555761009d6100bc6100b7366004610069565b6102f7565b6040519182918263ffffffff909116815260200190565b346100555761009d6100bc6100e9366004610069565b610318565b6100fb61007d61007d9290565b60ff1690565b6101249061011f61011561007d9460ff1690565b9163ffffffff1690565b901c90565b63ffffffff1690565b61014061007d61007d9263ffffffff1690565b61ffff1690565b61014061007d61007d9261ffff1690565b9061016290610147565b600052602052604060002090565b61007d9081565b61007d9054610170565b6100fb61007d61007d9263ffffffff1690565b6100fb61007d61007d9260ff1690565b9061016290610194565b61007d61007d61007d9263ffffffff1690565b6100679060006101d1828261038e565b6102016101fc600283016101f66101f16101eb60086100ee565b87610101565b61012d565b90610158565b610177565b9161024161023b6102336101fc6001860161022d61022861022260106100ee565b88610101565b610181565b906101a4565b938001610177565b916101ae565b61047d565b634e487b7160e01b600052604160045260246000fd5b90601f01601f1916810190811067ffffffffffffffff82111761027e57604052565b610246565b9061006761029060405190565b928361025c565b67ffffffffffffffff811161027e57602090601f01601f19160190565b0190565b906102ca6102c583610297565b610283565b918252565b6102d9600a6102b8565b6903732bc3a2134b7101e960b51b602082015290565b61007d6102cf565b6103029060006105ff565b906100678261031261023b6102ef565b90610928565b610302906000610955565b61007d61007d61007d9290565b61007d9061034861034461007d9460ff1690565b9190565b901b90565b9061007d61007d61035d92610323565b9055565b6101409061011f61037561007d9460ff1690565b9161ffff1690565b6100fb61007d61007d9261ffff1690565b6000610439610067936103a160086100ee565b61043461040d6104076104026103c36103bd6101f18789610101565b96610181565b946103fc60028b016103f7896103dc6101fc8285610158565b6103f06103e96001610323565b9b8c610330565b1792610158565b61034d565b86610361565b61037d565b9361037d565b6103f784600189019261042d6104266101fc84876101a4565b9187610330565b17926101a4565b610330565b91019061044582610177565b179061034d565b6104796100679461047260609498979561046b608086019a6000870152565b6020850152565b6040830152565b0152565b6104aa610067946104b9939461049260405190565b620327f760eb1b60208201529586946024860161044c565b6020820181038252038261025c565b610b0e565b634e487b7160e01b600052601160045260246000fd5b6104e39060ff165b9160ff1690565b019060ff82116104ef57565b6104be565b919082039182116104ef57565b61014061007d61007d9260ff1690565b61051d9060ff166104dc565b90039060ff82116104ef57565b6101409061034861037561007d9460ff1690565b61014061007d61007d9290565b6105589061ffff16610375565b019061ffff82116104ef57565b6105729061ffff16610375565b90039061ffff82116104ef57565b61012461007d61007d9261ffff1690565b6101249061034861011561007d9460ff1690565b61012461007d61007d9290565b6105c19063ffffffff16610115565b019063ffffffff82116104ef57565b6105df9063ffffffff16610115565b90039063ffffffff82116104ef57565b61012461007d61007d9260ff1690565b9061060a60086100ee565b916106186101f18484610101565b906106678261062685610181565b9560028401916106396101fc8785610158565b9560019661067061066c61065561064f8b6100ee565b8d6104d4565b61065e8b610323565b98899182610330565b6104f4565b1990565b169560008761068161034483610323565b11156106cc575050505050505061007d936106bc6106c6936106b66106b06106ab6106c196610b88565b6100ee565b916100ee565b90610511565b610511565b6105ef565b906105b2565b9295995092816106e29295989950819750610361565b6106eb9061037d565b926106f660ff610501565b166107009061037d565b928783019861070f828b6101a4565b61071890610177565b816107228b6100ee565b61072c90886104d4565b6107369082610330565b90610740916104f4565b1916938461074d85610323565b10156107c3575050505061007d96506107b7936107b26107ac6107a76101fc6107a06107bd9a9861079a6107956106c69a8f6106bc906106b66106b06106ab6107b79f610b88565b610501565b9061054b565b8098610158565b610b88565b94610580565b610591565b916105a5565b906105d0565b839650610802955061066c9294506107f56107e56107fb956106679301610177565b956107ef8c6100ee565b906104d4565b82610330565b1691610323565b8111156108a2576106c66107b7836107b261089d61088d6107a76101fc6107bd9a6101f661088761007d9f8f61079a6107b79f829f90610876610795610881966106b66108706107a76101fc61085d6106ab61087b9a610b88565b9461022d61086a8d6100ee565b87610511565b976100ee565b61052a565b9161053e565b9b61053e565b8b610565565b956108978a61053e565b90610565565b610580565b505050505063ffffffff90565b60005b8381106108c25750506000910152565b81810151838201526020016108b2565b6108f36108fc6020936102b4936108e7815190565b80835293849260200190565b958691016108af565b601f01601f191690565b9291602061092361006793604087019087820360008901526108d2565b940152565b906104b9610067926104aa61093c60405190565b632d839cb360e21b602082015293849260248401610906565b61095f60086100ee565b61096c6101f18285610101565b809261097785610181565b92600282019061098a6101fc8584610158565b9560019661099788610323565b906109a6826106678a82610330565b169081966000926109b961034485610323565b11156109ea575050505050505061007d93926106b66106b06107bd946107ef6109e46106c196610dc9565b946100ee565b92959950929550929550610a15610a046104028784610361565b91610a0f60ff610501565b1661037d565b9287890191610a276101fc82856101a4565b610a35856106678882610330565b169384610a4461034485610323565b1115610a90575050505061007d96506107b7936107b26107ac610a8b6101fc6107a06107bd9a986108976107958e6106b66106b06106c69d6107ef6109e46107b79f610dc9565b610dc9565b9195509250610ab39350610667610aac866107fb949b01610177565b9382610330565b8111156108a2576106c66107b7836107b261089d61088d610a8b6101fc6107bd9a6101f661088761007d9f8f61079a6107b79f829f90610876610795610881966106b6610870610a8b6101fc61085d6106ab61087b9a610dc9565b610067906001611017565b61007d61007d61007d926001600160801b031690565b61007d9061011f61034461007d9460ff1690565b919082018092116104ef57565b61007d61007d61007d9267ffffffffffffffff1690565b61007d61007d61007d9261ffff1690565b61007d61007d61007d9260ff1690565b61007d9060009081610ba06001600160801b03610b19565b821692600093610bb261034486610323565b1115610db35750610bcd90610bc76080610323565b90610b43565b610bde67ffffffffffffffff610b50565b8216610bec61034485610323565b1115610d9e57610c0090610bc76040610323565b610c0d63ffffffff6101ae565b8216610c1b61034485610323565b1115610d8957610c2f90610bc76020610323565b610c3a61ffff610b67565b8216610c4861034485610323565b1115610d7457610c5c90610bc76010610323565b610c6660ff610b78565b8216610c7461034485610323565b1115610d5f57610c8890610bc76008610323565b610c92600f610323565b8216610ca061034485610323565b1115610d4a57610cb490610bc76004610323565b610cbe6003610323565b8216610ccc61034485610323565b1115610d3457610ce090610bc76002610323565b915b610cfa610344610cf26001610323565b841692610323565b1115610d1a5750610d0f90610bc76001610323565b610667610100610323565b610d2e90610d2860016100ee565b90610b2f565b50610d0f565b9190610d4490610d2860026100ee565b90610ce2565b90610d5990610d2860046100ee565b90610cb4565b90610d6e90610d2860086100ee565b90610c88565b90610d8390610d2860106100ee565b90610c5c565b90610d9890610d2860206100ee565b90610c2f565b90610dad90610d2860406100ee565b90610c00565b91610dc39150610d2860806100ee565b90610bcd565b9060008092610de1610ddb607f6100ee565b82610b2f565b91600092610df161034485610323565b03610fba575b50610e05610ddb603f6100ee565b610e1161034484610323565b03610f98575b610e24610ddb601f6100ee565b610e3061034484610323565b03610f76575b610e43610ddb600f6100ee565b610e4f61034484610323565b03610f54575b610e62610ddb60076100ee565b610e6e61034484610323565b03610f32575b610e81610ddb60036100ee565b610e8d61034484610323565b03610f10575b610e9d60016100ee565b91610ea88383610b2f565b610eb461034483610323565b03610ee7575b610ec390610323565b8103610ecd575050565b61007d929391610edc91610b2f565b50610bc76001610323565b9390610f08610efd610ec392610d2860026100ee565b92610bc76002610323565b949050610eba565b610f21610f2c91610d2860046100ee565b93610bc76004610323565b92610e93565b610f43610f4e91610d2860086100ee565b93610bc76008610323565b92610e74565b610f65610f7091610d2860106100ee565b93610bc76010610323565b92610e55565b610f87610f9291610d2860206100ee565b93610bc76020610323565b92610e36565b610fa9610fb491610d2860406100ee565b93610bc76040610323565b92610e17565b9350610fcd610fd891610d2860806100ee565b93610bc76080610323565b9238610df7565b60008091610ff56a636f6e736f6c652e6c6f6790565b602082519201905afa50565b634e487b7160e01b600052605160045260246000fd5b6001036110015761006790610fdf56fea264697066735822122009c01a58ae863406af97f6ae697f1eb6acdbf23c5be03d1730dfceed8d29af0e64736f6c63430008180033",
  "linkReferences": {},
  "deployedLinkReferences": {}
}