{
  "_format": "hh-sol-artifact-1",
  "contractName": "ERC1155",
  "sourceName": "contracts/ERC1155/ERC1155.sol",
  "abi": [
    {
      "inputs": [
        {
          "internalType": "string",
          "name": "name_",
          "type": "string"
        },
        {
          "internalType": "string",
          "name": "symbol_",
          "type": "string"
        }
      ],
      "stateMutability": "nonpayable",
      "type": "constructor"
    },
    {
      "anonymous": false,
      "inputs": [
        {
          "indexed": true,
          "internalType": "address",
          "name": "account",
          "type": "address"
        },
        {
          "indexed": true,
          "internalType": "address",
          "name": "operator",
          "type": "address"
        },
        {
          "indexed": false,
          "internalType": "bool",
          "name": "approved",
          "type": "bool"
        }
      ],
      "name": "ApprovalForAll",
      "type": "event"
    },
    {
      "anonymous": false,
      "inputs": [
        {
          "indexed": true,
          "internalType": "address",
          "name": "operator",
          "type": "address"
        },
        {
          "indexed": true,
          "internalType": "address",
          "name": "from",
          "type": "address"
        },
        {
          "indexed": true,
          "internalType": "address",
          "name": "to",
          "type": "address"
        },
        {
          "indexed": false,
          "internalType": "uint256[]",
          "name": "ids",
          "type": "uint256[]"
        },
        {
          "indexed": false,
          "internalType": "uint256[]",
          "name": "values",
          "type": "uint256[]"
        }
      ],
      "name": "TransferBatch",
      "type": "event"
    },
    {
      "anonymous": false,
      "inputs": [
        {
          "indexed": true,
          "internalType": "address",
          "name": "operator",
          "type": "address"
        },
        {
          "indexed": true,
          "internalType": "address",
          "name": "from",
          "type": "address"
        },
        {
          "indexed": true,
          "internalType": "address",
          "name": "to",
          "type": "address"
        },
        {
          "indexed": false,
          "internalType": "uint256",
          "name": "id",
          "type": "uint256"
        },
        {
          "indexed": false,
          "internalType": "uint256",
          "name": "value",
          "type": "uint256"
        }
      ],
      "name": "TransferSingle",
      "type": "event"
    },
    {
      "anonymous": false,
      "inputs": [
        {
          "indexed": false,
          "internalType": "string",
          "name": "value",
          "type": "string"
        },
        {
          "indexed": true,
          "internalType": "uint256",
          "name": "id",
          "type": "uint256"
        }
      ],
      "name": "URI",
      "type": "event"
    },
    {
      "inputs": [
        {
          "internalType": "uint256",
          "name": "",
          "type": "uint256"
        },
        {
          "internalType": "address",
          "name": "",
          "type": "address"
        }
      ],
      "name": "_balances",
      "outputs": [
        {
          "internalType": "uint256",
          "name": "",
          "type": "uint256"
        }
      ],
      "stateMutability": "view",
      "type": "function"
    },
    {
      "inputs": [
        {
          "internalType": "address",
          "name": "to",
          "type": "address"
        },
        {
          "internalType": "uint256",
          "name": "id",
          "type": "uint256"
        },
        {
          "internalType": "uint256",
          "name": "amount",
          "type": "uint256"
        },
        {
          "internalType": "bytes",
          "name": "data",
          "type": "bytes"
        }
      ],
      "name": "_mint",
      "outputs": [
        {
          "internalType": "uint256",
          "name": "_balanceafter",
          "type": "uint256"
        }
      ],
      "stateMutability": "nonpayable",
      "type": "function"
    },
    {
      "inputs": [
        {
          "internalType": "address",
          "name": "",
          "type": "address"
        },
        {
          "internalType": "address",
          "name": "",
          "type": "address"
        }
      ],
      "name": "_operatorApprovals",
      "outputs": [
        {
          "internalType": "bool",
          "name": "",
          "type": "bool"
        }
      ],
      "stateMutability": "view",
      "type": "function"
    },
    {
      "inputs": [
        {
          "internalType": "address",
          "name": "account",
          "type": "address"
        },
        {
          "internalType": "uint256",
          "name": "id",
          "type": "uint256"
        }
      ],
      "name": "balanceOf",
      "outputs": [
        {
          "internalType": "uint256",
          "name": "",
          "type": "uint256"
        }
      ],
      "stateMutability": "view",
      "type": "function"
    },
    {
      "inputs": [
        {
          "internalType": "address[]",
          "name": "accounts",
          "type": "address[]"
        },
        {
          "internalType": "uint256[]",
          "name": "ids",
          "type": "uint256[]"
        }
      ],
      "name": "balanceOfBatch",
      "outputs": [
        {
          "internalType": "uint256[]",
          "name": "",
          "type": "uint256[]"
        }
      ],
      "stateMutability": "view",
      "type": "function"
    },
    {
      "inputs": [
        {
          "internalType": "address",
          "name": "account",
          "type": "address"
        },
        {
          "internalType": "address",
          "name": "operator",
          "type": "address"
        }
      ],
      "name": "isApprovedForAll",
      "outputs": [
        {
          "internalType": "bool",
          "name": "",
          "type": "bool"
        }
      ],
      "stateMutability": "view",
      "type": "function"
    },
    {
      "inputs": [],
      "name": "name",
      "outputs": [
        {
          "internalType": "string",
          "name": "",
          "type": "string"
        }
      ],
      "stateMutability": "view",
      "type": "function"
    },
    {
      "inputs": [
        {
          "internalType": "address",
          "name": "from",
          "type": "address"
        },
        {
          "internalType": "address",
          "name": "to",
          "type": "address"
        },
        {
          "internalType": "uint256[]",
          "name": "ids",
          "type": "uint256[]"
        },
        {
          "internalType": "uint256[]",
          "name": "amounts",
          "type": "uint256[]"
        },
        {
          "internalType": "bytes",
          "name": "data",
          "type": "bytes"
        }
      ],
      "name": "safeBatchTransferFrom",
      "outputs": [],
      "stateMutability": "nonpayable",
      "type": "function"
    },
    {
      "inputs": [
        {
          "internalType": "address",
          "name": "from",
          "type": "address"
        },
        {
          "internalType": "address",
          "name": "to",
          "type": "address"
        },
        {
          "internalType": "uint256",
          "name": "id",
          "type": "uint256"
        },
        {
          "internalType": "uint256",
          "name": "amount",
          "type": "uint256"
        },
        {
          "internalType": "bytes",
          "name": "data",
          "type": "bytes"
        }
      ],
      "name": "safeTransferFrom",
      "outputs": [
        {
          "internalType": "uint256",
          "name": "_id",
          "type": "uint256"
        },
        {
          "internalType": "address",
          "name": "_from",
          "type": "address"
        },
        {
          "internalType": "uint256",
          "name": "_frombalance",
          "type": "uint256"
        }
      ],
      "stateMutability": "nonpayable",
      "type": "function"
    },
    {
      "inputs": [
        {
          "internalType": "address",
          "name": "operator",
          "type": "address"
        },
        {
          "internalType": "bool",
          "name": "approved",
          "type": "bool"
        }
      ],
      "name": "setApprovalForAll",
      "outputs": [],
      "stateMutability": "nonpayable",
      "type": "function"
    },
    {
      "inputs": [
        {
          "internalType": "bytes4",
          "name": "interfaceId",
          "type": "bytes4"
        }
      ],
      "name": "supportsInterface",
      "outputs": [
        {
          "internalType": "bool",
          "name": "",
          "type": "bool"
        }
      ],
      "stateMutability": "view",
      "type": "function"
    },
    {
      "inputs": [],
      "name": "symbol",
      "outputs": [
        {
          "internalType": "string",
          "name": "",
          "type": "string"
        }
      ],
      "stateMutability": "view",
      "type": "function"
    },
    {
      "inputs": [
        {
          "internalType": "uint256",
          "name": "id",
          "type": "uint256"
        }
      ],
      "name": "uri",
      "outputs": [
        {
          "internalType": "string",
          "name": "",
          "type": "string"
        }
      ],
      "stateMutability": "view",
      "type": "function"
    }
  ],
  "bytecode": "0x60806040523462000031576200001f6200001862000175565b9062000392565b6040516119eb620003ad82396119eb90f35b600080fd5b634e487b7160e01b600052604160045260246000fd5b90601f01601f191681019081106001600160401b038211176200006e57604052565b62000036565b906200008b6200008360405190565b92836200004c565b565b6001600160401b0381116200006e57602090601f01601f19160190565b60005b838110620000be5750506000910152565b8181015183820152602001620000ad565b90929192620000e8620000e2826200008d565b62000074565b938185528183011162000031576200008b916020850190620000aa565b9080601f83011215620000315781516200012292602001620000cf565b90565b919091604081840312620000315780516001600160401b0381116200003157836200015291830162000105565b60208201519093906001600160401b038111620000315762000122920162000105565b6200019862001d98803803806200018c8162000074565b92833981019062000125565b9091565b634e487b7160e01b600052602260045260246000fd5b9060016002830492168015620001d5575b6020831014620001cf57565b6200019c565b91607f1691620001c3565b6200012262000122620001229290565b919062000205620001226200021d93620001e0565b90835460001960089290920291821b191691901b1790565b9055565b6200008b91600091620001f0565b8181106200023b575050565b806200024b600060019362000221565b016200022f565b9190601f81116200026257505050565b620002766200008b93600052602060002090565b906020601f8401819004830193106200029a575b6020601f9091010401906200022f565b90915081906200028a565b90620002af815190565b906001600160401b0382116200006e57620002d782620002d08554620001b2565b8562000252565b602090601f831160011462000316576200021d9291600091836200030a575b5050600019600883021c1916906002021790565b015190503880620002f6565b601f198316916200032c85600052602060002090565b9260005b8181106200036d5750916002939185600196941062000353575b50505002019055565b01516000196008601f8516021c191690553880806200034a565b9193602060018192878701518155019501920162000330565b906200008b91620002a5565b90620003a46200008b92600062000386565b60016200038656fe6080604052600436101561001257600080fd5b60003560e01c8062fdd58e146100e157806301ffc9a7146100dc57806306fdde03146100d75780630e89341c146100d25780632ca6f4da146100cd5780632eb2c2d6146100c85780634e1273f4146100c357806395d89b41146100be578063a22cb465146100b9578063e985e9c5146100b4578063edc3bc3f146100af578063f242432a146100aa5763fc25a4da03610107576109aa565b61091a565b61089a565b610808565b6107cc565b610779565b610745565b61060c565b6104e7565b6103f5565b6103ba565b6101b2565b610151565b6001600160a01b031690565b90565b6001600160a01b0381165b0361010757565b600080fd5b90503590610119826100f5565b565b80610100565b905035906101198261011b565b9190604083820312610107576100f290602061014a828661010c565b9401610121565b346101075761017d61016d61016736600461012e565b90610a50565b6040519182918290815260200190565b0390f35b6001600160e01b03198116610100565b9050359061011982610181565b90602082820312610107576100f291610191565b346101075761017d6101cd6101c836600461019e565b610a91565b6040515b91829182901515815260200190565b600091031261010757565b634e487b7160e01b600052600060045260246000fd5b634e487b7160e01b600052602260045260246000fd5b9060016002830492168015610237575b602083101461023257565b610201565b91607f1691610227565b8054600093929161025e61025483610217565b8085529360200190565b91600181169081156102b0575060011461027757505050565b61028a9192939450600052602060002090565b916000925b81841061029c5750500190565b80548484015260209093019260010161028f565b92949550505060ff1916825215156020020190565b906100f291610241565b634e487b7160e01b600052604160045260246000fd5b90601f01601f1916810190811067ffffffffffffffff82111761030757604052565b6102cf565b906101196103269261031d60405190565b938480926102c5565b03836102e5565b9060001061033e576100f29061030c565b6101eb565b6100f260008061032d565b60005b8381106103615750506000910152565b8181015183820152602001610351565b61039261039b6020936103a593610386815190565b80835293849260200190565b9586910161034e565b601f01601f191690565b0190565b60208082526100f292910190610371565b34610107576103ca3660046101e0565b61017d6103d5610343565b604051918291826103a9565b90602082820312610107576100f291610121565b346101075761017d6103d561040b3660046103e1565b610b4b565b9061011961041d60405190565b92836102e5565b67ffffffffffffffff811161030757602090601f01601f19160190565b90826000939282370152565b9092919261046261045d82610424565b610410565b938185528183011161010757610119916020850190610441565b9080601f83011215610107578160206100f29335910161044d565b90608082820312610107576104ac818361010c565b926104ba8260208501610121565b926104c88360408301610121565b92606082013567ffffffffffffffff8111610107576100f2920161047c565b346101075761017d61016d6104fd366004610497565b92919091610c69565b67ffffffffffffffff81116103075760208091020190565b9092919261052e61045d82610506565b938185526020808601920283019281841161010757915b8383106105525750505050565b602080916105608486610121565b815201920191610545565b9080601f83011215610107578160206100f29335910161051e565b91909160a0818403126101075761059d838261010c565b926105ab816020840161010c565b92604083013567ffffffffffffffff811161010757826105cc91850161056b565b92606081013567ffffffffffffffff811161010757836105ed91830161056b565b92608082013567ffffffffffffffff8111610107576100f2920161047c565b346101075761062861061f366004610586565b93929092610f06565b604051005b9092919261063d61045d82610506565b938185526020808601920283019281841161010757915b8383106106615750505050565b6020809161066f848661010c565b815201920191610654565b9080601f83011215610107578160206100f29335910161062d565b91909160408184031261010757803567ffffffffffffffff811161010757836106bf91830161067a565b92602082013567ffffffffffffffff8111610107576100f2920161056b565b906106fe6106f76106ed845190565b8084529260200190565b9260200190565b9060005b81811061070f5750505090565b90919261072c6107256001928651815260200190565b9460200190565b929101610702565b60208082526100f2929101906106de565b346101075761017d61076161075b366004610695565b90611119565b60405191829182610734565b6100f26000600161032d565b34610107576107893660046101e0565b61017d6103d561076d565b801515610100565b9050359061011982610794565b9190604083820312610107576100f29060206107c5828661010c565b940161079c565b34610107576106286107df3660046107a9565b9061122d565b9190604083820312610107576100f2906020610801828661010c565b940161010c565b346101075761017d6101cd61081e3660046107e5565b906112b2565b6100f2906100e6906001600160a01b031682565b6100f290610824565b6100f290610838565b9061085490610841565b600052602052604060002090565b6100f2916008021c5b60ff1690565b906100f29154610862565b6108956100f292610890600093600361084a565b61084a565b610871565b346101075761017d6101cd6108b03660046107e5565b9061087c565b91909160a081840312610107576108cd838261010c565b926108db816020840161010c565b926108e98260408501610121565b926105ed8360608301610121565b9081526001600160a01b0390911660208201526060810192916101199160400152565b346101075761017d6109396109303660046108b6565b939290926112d2565b604051919391938493846108f7565b9190604083820312610107576100f29060206108018286610121565b6100f26100f26100f29290565b9061085490610964565b6100f2916008021c81565b906100f2915461097b565b6109a56100f2926108906000936002610971565b610986565b346101075761017d61016d6109c0366004610948565b90610991565b6100e66100f26100f29290565b6100f2906109c6565b156109e357565b60405162461bcd60e51b815260206004820152602a60248201527f455243313135353a2061646472657373207a65726f206973206e6f742061207660448201526930b634b21037bbb732b960b11b6064820152608490fd5b0390fd5b6100f29081565b6100f29054610a3f565b610a8c906108906100f293610a63600090565b50610a85610a746100e660006109d3565b6001600160a01b03851614156109dc565b6002610971565b610a46565b636cdb3d1360e11b6001600160e01b0319821614908115610ad7575b8115610ab7575090565b9050610ad36301ffc9a760e01b5b916001600160e01b03191690565b1490565b6001600160e01b031981166303a24d0760e21b149150610aad565b90610aff61045d83610424565b918252565b6100f26000610af2565b6100f2610b04565b6103a5610b2e92602092610b28815190565b94859290565b9384910161034e565b610b45906100f29392610b16565b90610b16565b610b53611426565b8051610b66610b626000610964565b9190565b1115610ba3576100f2610b9791610b7f6100f2946114f5565b90610b8960405190565b938492602084019283610b37565b908103825203826102e5565b50506100f2610b0e565b15610bb457565b60405162461bcd60e51b815260206004820152602160248201527f455243313135353a206d696e7420746f20746865207a65726f206164647265736044820152607360f81b6064820152608490fd5b634e487b7160e01b600052601160045260246000fd5b91908201809211610c2657565b610c03565b90600019905b9181191691161790565b90610c4b6100f2610c5292610964565b8254610c2b565b9055565b9081526040810192916101199160200152565b9392610119929091610c7b60006109d3565b95610c9a6001600160a01b0388166001600160a01b0383161415610bad565b610cc4610cac82610890856002610971565b610cbe85610cb983610a46565b610c19565b90610c3b565b610cd6610a8c82610890856002610971565b96610ce033610841565b610ce982610841565b610cf284610841565b917fc3d58168c5ae7397731d063d5bbf3d657854427343f4c083240f7aacaa2d0f62610d1d60405190565b80610d298a8a83610c56565b0390a4336116df565b15610d3957565b60405162461bcd60e51b815260206004820152602f60248201527f455243313135353a2063616c6c6572206973206e6f7420746f6b656e206f776e60448201526e195c881b9bdc88185c1c1c9bdd9959608a1b6064820152608490fd5b15610d9d57565b60405162461bcd60e51b815260206004820152602860248201527f455243313135353a2069647320616e6420616d6f756e7473206c656e677468206044820152670dad2e6dac2e8c6d60c31b6064820152608490fd5b15610dfa57565b60405162461bcd60e51b815260206004820152602560248201527f455243313135353a207472616e7366657220746f20746865207a65726f206164604482015264647265737360d81b6064820152608490fd5b634e487b7160e01b600052603260045260246000fd5b90610e6c825190565b811015610e7d576020809102010190565b610e4d565b15610e8957565b60405162461bcd60e51b815260206004820152602a60248201527f455243313135353a20696e73756666696369656e742062616c616e636520666f60448201526939103a3930b739b332b960b11b6064820152608490fd5b60408082526100f2939192610ef8918401906106de565b9160208184039101526106de565b9490929190336001600160a01b038716148015611071575b610f2790610d32565b610f46610f32835190565b610f40610b626100f2875190565b14610d96565b610f67610f566100e660006109d3565b6001600160a01b0386161415610df3565b610f716000610964565b610f7c6100f2845190565b81101561100e578061100388610cbe610ff9896108908a610fb5610fab89610faf610fab8f9d6110099e610e63565b5190565b93610e63565b95610ff4600291610fef610fe48a610fd4610a8c856108908a8a610971565b610fe082821015610e82565b0390565b916108908686610971565b610c3b565b610971565b91610cb983610a46565b60010190565b610f71565b509492610119949361101f33610841565b61102882610841565b61103184610841565b917f4a39dc06d4c0dbc64b70af90fd698a233a518aa5d07e595d983b8c0526c8f7fb61105c60405190565b806110688a8a83610ee1565b0390a433611905565b50610f2761107f33886112b2565b9050610f1e565b1561108d57565b60405162461bcd60e51b815260206004820152602960248201527f455243313135353a206163636f756e747320616e6420696473206c656e677468604482015268040dad2e6dac2e8c6d60bb1b6064820152608490fd5b90610aff61045d83610506565b369037565b9061011961110c611106846110e4565b93610506565b601f1901602084016110f1565b90611139611125835190565b611133610b626100f2855190565b14611086565b611149611144835190565b6110f6565b916111546000610964565b61115f6100f2835190565b8110156111a9578061100361119761118a61117d6111a49587610e63565b516001600160a01b031690565b610167610fab8589610e63565b6111a18388610e63565b52565b611154565b50505090565b156111b657565b60405162461bcd60e51b815260206004820152602960248201527f455243313135353a2073657474696e6720617070726f76616c20737461747573604482015268103337b91039b2b63360b91b6064820152608490fd5b9060ff90610c31565b906112266100f2610c5292151590565b825461120d565b6112426001600160a01b0382163314156111af565b61125a826112558361089033600361084a565b611216565b7f17307eab39ab6107e8899845ad3d59bd9653f200f220920489ca2b5937696c3161129a61129061128a33610841565b93610841565b936101d160405190565b0390a3565b6100f29061086b565b6100f2905461129f565b6100f2916108906112cd926112c5600090565b50600361084a565b6112a8565b90949192936112df600090565b50336001600160a01b038316148015611411575b6112fc90610d32565b61130660006109d3565b6001600160a01b03166001600160a01b038716141561132490610df3565b600294826113328688610971565b9061133c9161084a565b61134590610a46565b9480978085988389866113558190565b82101561136190610e82565b90038861136e8385610971565b906113789161084a565b9061138291610c3b565b61138b91610971565b906113959161084a565b8361139f82610a46565b906113a991610c19565b6113b291610c3b565b6113bb33610841565b6113c486610841565b6113cd83610841565b916113d760405190565b806113e3888883610c56565b037fc3d58168c5ae7397731d063d5bbf3d657854427343f4c083240f7aacaa2d0f6291a461011994336116df565b506112fc61141f33846112b2565b90506112f3565b6100f2610b0e565b6114386001610af2565b600360fc1b602082015290565b6100f261142e565b6000198114610c265760010190565b634e487b7160e01b600052601260045260246000fd5b811561147c570490565b61145c565b9061011961110c61149184610af2565b93610424565b91908203918211610c2657565b811561147c570690565b61086b6100f26100f29290565b6114d16114cb6100f29260ff1690565b60f81b90565b6001600160f81b03191690565b906114e7825190565b811015610e7d570160200190565b90600061150181610964565b83146115ce579091908160005b61151783610964565b84146115405761152961153a9161144d565b93611534600a610964565b90611472565b9261150e565b9193925061154d82611481565b915b61155885610964565b82146115c3576115756115bd9161156f6001610964565b90611497565b91611534600a846115b76115ae6115a96115a461159a61159487610964565b896114a4565b610cb96030610964565b6114ae565b6114bb565b8a1a91886114de565b53610964565b9061154f565b50506100f291925090565b5090506100f2611445565b9050519061011982610181565b90602082820312610107576100f2916115d9565b919361163d6100f29694611636611644949761162660a088019960008901906001600160a01b03169052565b6001600160a01b03166020870152565b6040850152565b6060830152565b6080818403910152610371565b60009060033d1161165e57565b905060046000803e60005160e01c90565b60009060443d106101195760405160043d036004823e8051903d602483011167ffffffffffffffff8311176116db5781810191825167ffffffffffffffff81116116d55760043d038301816020860101116116d5576100f29394955060200101906102e5565b50505050565b5050565b9394916116eb816119a3565b6116f8575b505050505050565b60209461173561171161170c600094610841565b610841565b9461171b60405190565b9889978896879563f23a6e6160e01b8752600487016115fa565b03925af16000918161186f575b5061180457506001611752611651565b6308c379a0146117cf575b61176d575b3880808080806116f0565b60405162461bcd60e51b815260206004820152603460248201527f455243313135353a207472616e7366657220746f206e6f6e2d455243313135356044820152732932b1b2b4bb32b91034b6b83632b6b2b73a32b960611b6064820152608490fd5b6117d761166f565b806117e2575061175d565b610a3b906117ef60405190565b62461bcd60e51b8152918291600483016103a9565b61181463f23a6e6160e01b610ac5565b146117625760405162461bcd60e51b815260206004820152602860248201527f455243313135353a204552433131353552656365697665722072656a656374656044820152676420746f6b656e7360c01b6064820152608490fd5b61189291925060203d602011611899575b61188a81836102e5565b8101906115e6565b9038611742565b503d611880565b93906118e9906100f296946118dc6118f7956118cc60a08a019460008b01906001600160a01b03169052565b6001600160a01b03166020890152565b86820360408801526106de565b9084820360608601526106de565b916080818403910152610371565b939491611911816119a3565b61191d57505050505050565b60209461195561193161170c600094610841565b9461193b60405190565b9889978896879563bc197c8160e01b8752600487016118a0565b03925af160009181611982575b5061197257506001611752611651565b61181463bc197c8160e01b610ac5565b61199c91925060203d6020116118995761188a81836102e5565b9038611962565b3b6119b1610b626000610964565b119056fea2646970667358221220098a67f6afeacdde210a93415326312d57b43c0114fa5684a1f0b2d6986b57d264736f6c63430008180033",
  "linkReferences": {},
  "deployedLinkReferences": {}
}